:100000000C94860D0C94AE0D0C94AE0D0C94AE0DAC
:100010000C94AE0D0C94AE0D0C94AE0D0C94D82136
:100020000C94AE0D0C94AE0D0C94AE0D0C94AE0D64
:100030000C94AE0D0C94AE0D0C94AE0D0C94AE0D54
:100040000C94C4220C94AE0D0C9492220C946C224D
:100050000C94AE0D0C940E230C94AE0D0C94AE0DBE
:100060000C94AE0D0C94AE0D0C94AE0D0C94C223FA
:100070000C94AE0D0C94AE0D0C94AE0D0C94AE0D14
:100080000C94AE0D0C94D6230C94AE0D0C94AE0DC6
:100090000C94AE0D0C94AE0D0C94AE0D0C94AE0DF4
:1000A0000C94AE0D0C94AE0D0C94AE0D0C94AE0DE4
:1000B0000C94AE0DAED580A83FD300408D14200225
:1000C000A1C8DA1281FFD9F1DB40A4A6AFB40019B0
:1000D00080400000030C0F30333C3FC0C3CCCFF056
:1000E000F3FCFF00000000240027002A002D000080
:1000F000960A10205F050A0A0A0A0A0A0A0A0A0A68
:100100000A0A0A060A0A0A0A0A0A0A0A0A0A0A0A53
:100110000A0A0A0A0A0A0A0A0A0A0A0A0A0A0A0A3F
:100120000A0A0A0A0A0A0A0A0A0A0A0A0A0A0A0A2F
:100130000A0A0A0A0A0A0A0A0A0A0A0A0A0A0A0A1F
:100140000A0A0A0A0A0A0A0A0A0A0A0A0A0A0A0A0F
:100150000A0A0A0A00000000000000000000000077
:100160000000FEFE00000000000000001919000061
:10017000000000001E1E00001E1E00000000000007
:1001800000000000000000C0E676303076E6C000D7
:1001900000070F1C18181C0F07000070F8D8FE98F5
:1001A00098000000000C18187F191F0F00001CB6E3
:1001B000A2F6CC60602030000101000E1B111B0E66
:1001C00000000000DC7EE6C6860C808000070F1C65
:1001D00018191F1E1F13000000001E1E0000000043
:1001E00000000000000000000000000000E0FC1E15
:1001F00002000000000000073F78400000000000FF
:10020000021EFCE000000000000040783F070000F4
:10021000000000487830FE30784800000000000000
:1002200001000000000000808080F0F080808000ED
:10023000000101010F0F010101000000000000009A
:1002400000000000000000407C3C000000000000B6
:10025000000000000000000000030303030303008C
:10026000000000000000000000001818000000005E
:100270000000C0F03C0E02000020381E0701000004
:10028000000000F0FC0EC6C60EFCF80000030F1CB8
:1002900018181C0F070000000C06FEFE00000000EE
:1002A000001818181F1F18181800000C06060686DC
:1002B000C67C380000181C1E1B1918181800000CEA
:1002C00006C6C6C6C6FC3800000C18181818190F48
:1002D0000F000080C070180EFEFE00000003030334
:1002E00003031F1F030000FE7E666666E6C68000ED
:1002F000000C181818181C0F070000F0FCCE6666DA
:10030000E6CC800000070F1C18181C0F0700000621
:10031000060606E6FE3E0E000000101C0F0300005D
:1003200000000038FCC6C6C6C6FC3800000F0F1817
:100330001818180F0F000078FCCE8686CEFCF80047
:1003400000000C1919191C0F030000000000E0E068
:1003500000000000000000001C1C0000000000C0A5
:10036000E0B1B3B6B4E0C00000070F1D19191919A8
:100370000D0000C0E0B0B4B6B3E1C00000070F1D2F
:10038000191919190D0000006032B3B6B4F0E0007D
:10039000000E1F1B19190D1F1F0000F0F3030000B2
:1003A00003F3F000000F1F1818180C1F1F00000C9B
:1003B0000686C6667E1C00000000001B1B000000B5
:1003C0000000E0F0389CCCCCDCF8F000071F38735C
:1003D0006766667727000000C0FC3E3EFCC0000058
:1003E00000181F0F03030F1F180000FEFEC6C6C62D
:1003F000C6FC3C00001F1F181818181F0F0000F043
:10040000FC0C060606060C0000030F0C1818181842
:100410000C0000FEFE0606060CFCF000001F1F1874
:1004200018180C0F030000FEFEC6C6C6C6C606009E
:10043000001F1F1818181818180000FEFEC6C6C6A0
:10044000C6C60600001F1F0000000000000000F0EC
:10045000FC0C068686868C0000030F0C1819191FE9
:100460000F0000FEFEC0C0C0C0FEFE00001F1F0047
:100470000000001F1F0000000606FEFE060600002A
:10048000000018181F1F18180000000000000606C2
:1004900006FEFE00000C18181818180F0F0000FEBA
:1004A000FEE0F0FC0E060200001F1F0000030F1EFE
:1004B000180000FEFE00000000000000001F1F18D2
:1004C00018181818180000FEFE3EF0F03EFEFE0060
:1004D000001F1F000101001F1F0000FEFE1EF0C0D4
:1004E00000FEFE00001F1F0000031E1F1F0000F083
:1004F000FC0E06060EFCF00000030F1C18181C0F63
:10050000030000FEFEC6C6C6C67C7C00001F1F009E
:1005100000000000000000F0FC0E06060EFCF000DB
:1005200000030F1C18183C6F070000FEFEC6C6C66D
:10053000C6FC3C00001F1F000001031F1E100038F6
:100540007CE6C6C6C68C0000000C18181818190FD7
:100550000F0000060606FEFE06060600000000006C
:100560001F1F0000000000FEFE00000000FEFE0055
:1005700000070F1C18181C0F07000006FEFC0000E7
:10058000FCFE06000000001F1F1F1F0000001EFED3
:10059000E000F0F000E0FE1E001F1F1E01011E1F04
:1005A0001F0000020E3EF8F83E0E020000101C1F55
:1005B00003031F1C1000020E3E78E0E0783E0E029E
:1005C000000000001F1F0000000000060686C6F69F
:1005D0007E1E0E00001C1E1F1B181818180000009D
:1005E00000FEFE02020000000000007F7F4040008D
:1005F000000000020E38E080000000000000000053
:1006000000030E38200000000202FEFE0000000081
:10061000000040407F7F0000000010181C0E060EF6
:100620001C18100000000000000000000000000086
:1006300000000000000000004040404040404040BA
:10064000404000000103060400000000000000001C
:1006500000000000000000006030B0B0B0F0E0002A
:10066000000E1F1B19190D1F1F0000FEFE60303009
:1006700070E0C000001F1F0C18181C0F070000C0FE
:10068000E07030303030600000070F1C1818181868
:100690000C0000C0E070303060FEFE0000070F1C50
:1006A00018180C1F1F0000C0E0B0B0B0B0E0C000D0
:1006B00000070F1D191919190D00003030FCFE3606
:1006C000363600000000001F1F000000000000C0C0
:1006D000E070303060F0F0000003376E6C6C667FC5
:1006E0003F0000FEFE60303030F0E000001F1F00D1
:1006F0000000001F1F0000003030F7F7000000006E
:10070000001818181F1F1818180000003030F7F7CD
:1007100000000000006060607F3F0000000000FEFD
:10072000FE80E07030100000001F1F0103071E183C
:100730001000000606FEFE00000000000000000F92
:100740001F181818000000F0F030F0E030F0E00062
:10075000001F1F001F1F001F1F0000F0F06030303F
:1007600030F0E000001F1F000000001F1F0000C04D
:10077000E070303070E0C00000070F1C18181C0F2C
:10078000070000F0F060303070E0C000007F7F06AE
:100790000C0C0E07030000C0E070303060F0F00079
:1007A0000003070E0C0C067F7F000000F0F06030A5
:1007B0003030300000001F1F00000000000000E08B
:1007C000F0B0B0B0B0306000000C191919191B1F3F
:1007D0000E00003030FCFC30303000000000000F14
:1007E0001F181818000000F0F000000000F0F000E2
:1007F000000F1F1818180C1F1F000030F0E0000039
:10080000E0F030000000010F1E1E0F01000070F02C
:100810000000C0C00000F07000071F1E03031E1F71
:100820000700001030F0C0C0F03010000010181E9B
:1008300007071E1810000010F0F08000F0F03000E4
:10084000000060637F1F0F0100000030303030B0C7
:10085000F070300000181C1E1B191818180000003A
:100860000000FCFE02020000000001013E7E40404C
:10087000000000000000FEFE00000000000000007C
:100880007F7F0000000000000202FEFC000000006C
:10089000000040407E3E010100000080C0C0C080DA
:1008A0008080C000000100000001010100000090F4
:1008B0001C24206008000000002000000000000050
:1008C000000A0000150F151416151514141508004C
:1008D0000000000000000000000000000000000018
:1008E00000001800000000170000000000000000D9
:1008F00000000000000000150000000000080000DB
:1009000000001400000000000E00000000160000AF
:1009100000000000000000000000000000000000D7
:1009200000000000000000000000000000000000C7
:10093000000000000000000000000000C0F0F8FC13
:100940007C1C1C1C7CFCF8F8C0000000000000C0EF
:10095000F0FC7C1C0400000000000000071F3F7F2B
:100960007C7070707C7F3F3F070080E0F8FE3F1F87
:10097000070100000000000000000000000000006F
:10098000000000000000C0E0F8FE3F0F030000F090
:10099000FEFEFF1F0707071FFFFEFCF00000000020
:1009A000000000101C1F1F070300000000000001D2
:1009B0000F0F1F1F1C1C1C1F1F0F07010000000032
:1009C0000000000000000000000000000000000027
:1009D0000000000000000000000000000000000017
:1009E0000000000000000000000000000000000007
:1009F0001F1F1F1F1F1F1F1F1F1F000000000000C1
:100A0000000000000000000000000000000000C026
:100A1000F0F0F8F8FCFC7C7C7C7CFCFCF8F8F0E066
:100A2000C00000FFFFFFFFFFFFFF0000000000000D
:100A3000FFFFFFFFFFFFFF003FFFFFFFFFFFFFC0C4
:100A400080808080C0FFFFFFFFFFFF3F00000003AA
:100A500007070F0F0F0F0F0F0F0F0F0F07070301E0
:100A60000000000000000000000000000000000086
:100A7000000000000000000000008080C0E0F0FCEA
:100A8000FCFCFCFCFCFC3F3F3F1F1F0F07FFFFFF70
:100A9000FFFFFFFFFF00000000000000FFFFFFFF5F
:100AA000FFFFFFFF000000000000000F0F0F0F0FFF
:100AB0000F0F0F0000000000000000000000000009
:100AC000000000C0E0F0F8F8FCFCFC7C7C7C7CFCC6
:100AD000FCFCF8F8F0E0C000030303030303030089
:100AE00080C0C0E0F8FFFFFFFF7F3F0F0080C0F035
:100AF000F8FCFEFFFFFFFFDFCFC7C7C3C1C0C0C008
:100B0000C00F0F0F0F0F0F0F0F0F0F0F0F0F0F0F44
:100B10000F0F0F0F0F0F000000000000000000007B
:100B2000000000000000000000000080E0F0F8F885
:100B3000FCFC7C7C3C7C7CFCFCFCF8F8F0C00001FC
:100B400001010101010100F0F0F8F8FFFFFFFFDFF4
:100B50008F8700E0E0E0E0E0E0E080010101018358
:100B6000FFFFFFFFFFFFFF00010307070F0F0F0F3E
:100B70000F0F0F0F0F0F0707030100000000000009
:100B80000000000000000000000000000000000065
:100B90000000000000000080C0E0F8FCFCFCFCFC51
:100BA000FCFC0000000080C0E0F0FCFEFF7F1F0F97
:100BB0000703FFFFFFFFFFFF0000007F7F7F7F7FB6
:100BC0007F7D7C7C7C7C7C7CFFFFFFFFFFFF7C7C4F
:100BD0007C000000000000000000000000000F0F7B
:100BE0000F0F0F0F000000000000000000000000C9
:100BF000000000000000000000000000000000FCF9
:100C0000FCFCFCFCFCFCFCFCFCFCFCFCFCFCFCFC24
:100C100000000000FFFFFFFFFFF878787878F8F811
:100C2000F8F8F0E0E0800000E0E0E1E1E1E18000E0
:100C300000000080FFFFFFFFFFFF7F1E0001030792
:100C4000070F0F0F0F0F0F0F0F0F0F0707030100F5
:100C50000000000000000000000000000000000094
:100C600000000000000000C0E0F0F8F8FCFC7C3C54
:100C70003C3C7CFCFCF8F8F0E00000FEFFFFFFFFCE
:100C8000FFFFE1F0787878F8F8F8F8F0E0C080003D
:100C90003FFFFFFFFFFFFFC18000000080C1FFFF9B
:100CA000FFFFFFFF3E0000010307070F0F0F0F0FAD
:100CB0000F0F0F0F0F0703030000000000000000DC
:100CC000000000000000000000000000000000FC28
:100CD000FCFCFCFCFCFCFCFCFCFCFCFCFCFCFCFC54
:100CE000FCFCFC0000000000000000C0F0F8FEFF6B
:100CF000FF7F1F0F0301000000000000E0FCFFFF6A
:100D0000FFFFFF0F01000000000000000000000EC8
:100D10000F0F0F0F0F0F0100000000000000000078
:100D200000000000000000000000000000000000C3
:100D300000000080E0F0F8F8FCFC7C3C3C3C7CFCD3
:100D4000FCFCF8F8F0E080030F9FFFFFFFFFF8F0D6
:100D5000F0F0F0FCFFFFFFFF9F0F03FEFFFFFFFF20
:100D6000FFFF830100000183FFFFFFFFFFFFFE0085
:100D70000307070F0F0F0F0F0F0F0F0F0F0F0707AF
:100D8000070100000000000000000000000000005B
:100D90000000000000000000C0E0F0F8F8FCFC7C5F
:100DA0003C3C7C7CFCFCF8F8F0E0C0003F7FFFFF9F
:100DB000FFFFFFE0C0808080C0E0FFFFFFFFFFFF7C
:100DC000FE00C0C1C3C3C7C7C78707070783E1FFCA
:100DD000FFFFFFFFFF3F00000103070F0F0F0F0F83
:100DE0000F0F0F0F0F0707030100000000000000A6
:100DF00000000000000000000000000000000000F3
:100E00000000000000000000FEFEFEFEFEFEFEFEF2
:100E1000E0E0E0E0E0E0E0E00F0F0F0F0F0F0F0F5A
:100E20000000000000000000FCFCFCFCFCFCFCF8E6
:100E3000F0C080000000000000FCFCFCFCFCFCFC9E
:100E4000FFFFFFFFFFFFFF7FFFFFFFFEFCF0E080E3
:100E500000FFFFFFFFFFFFFFFFFFFFFFFFFFFF00A0
:100E60000001070F3F7FFFFFFFFFFFFFFFFFFFFFB7
:100E70000F0F0F0F0F0F0F00000000000000010305
:100E80000F0F0F0F0F0F0F0F0000000000000000EA
:100E90000000000000000000000000000000000052
:100EA00000E0F0F0F8F8FCFC7C7C7C7C7CFCFCFC3A
:100EB000F8F8F0E0C00000071F3F7FFFFFFFFFFCD6
:100EC000FCF8F8F8F8F3F3F3E3E3C3830000F8F871
:100ED000F8F8F8F8F8E1C18183838387CFFFFFFF3B
:100EE000FFFFFFFF7E00010307070F0F0F0F0F0F1C
:100EF0000F0F0F0F0F0F0707030100000000000086
:100F000000000000000000000000000000000000E1
:100F100000000000000000000000000000000000D1
:100F2000000000000000000000C0F0F8F8FCFCFE2B
:100F30007E7E3E3E3E7EFEFEFCFCF8F0E01EFFFFA5
:100F4000FFFFFFFFF3C08080008080C0E0E0E0E0B2
:100F5000E0E00000010307070F0F0F0F0F0F0F0F47
:100F60000F0F0F0703030000000000000000000047
:100F70000000000000000000000000007C7C7C7C81
:100F80007C7C7C7CFEFEFEFEFEFEFEFEFFFFFFFF85
:100F9000FFFFFFFF0F0F0F0F0F0F0F0F00000000DD
:100FA0000000000000000000000000000000000041
:100FB0000000000000000000FEFEFEFEFEFEFEF04F
:100FC000787C7C7EFEFEFEFEFCFCF8E0FFFFFFFF6F
:100FD000FFFFFF000000000000FFFFFFFFFFFFFF1B
:100FE0000F0F0F0F0F0F0F0000000000000F0F0F6B
:100FF0000F0F0F0F000000000000000000000000B5
:101000000000000000000000000000E0E0F0F0F848
:10101000F8F8000000007E7E7EFFFFFFFFFFFFFF6D
:101020007E7E7E7E000000FFFFFFFFFFFFFF8080CF
:10103000808000000003070F0F0F0F0F0F0F0F0F1F
:1010400000000000000000000000000000000000A0
:101050000000000000000000000000000000000090
:1010600000000000021E7EFEFEFEFEFCF08000007E
:101070000080F8FEFEFEFEFE3E06000000010F3F6F
:10108000FFFFFFFFF8E0FCFFFFFFFF3F070000004E
:1010900000C0C08080C0C1E7FFFFFFFFFFFF3F0728
:1010A00000000000000000307070F0F0F0F0F07010
:1010B0007030100000000000000000000000050F6C
:1010C0007C011020FF201000901C087C0180000093
:1010D0000000000F010101010101010101010101F5
:1010E0000101010101010F010101010101010101E2
:1010F000010101010101010101010F0101010101D2
:1011000001010101010101010101010101FF0101D1
:1011100001010101010101010101010101010101BF
:101120000F010101010101010101010101010101A1
:10113000010101010F010101010101010101010191
:1011400001010101010101010F0000000000000088
:1011500005072060000000000000005F00000003A1
:10116000000300143E143E14242A7F2A124333083D
:10117000666136495522500005030000001C2241DB
:10118000000041221C0014083E081408083E08080C
:1011900000503000000000000808006060000020DF
:1011A000100804023E5149453E0004027F0042619E
:1011B00051494622414949361814127F10274545A6
:1011C00045393E49494932010171090736494949C2
:1011D00036264949493E00363600000056360000A2
:1011E000081422410014141414140041221408029B
:1011F000015109063E4159555E7E0909097E7F4924
:101200004949363E414141227F4141413E7F494962
:1012100049417F090909013E4141493A7F080808CF
:101220007F00417F4100304040403F7F0814224111
:101230007F404040407F020C027F7F0204087F3ED7
:101240004141413E7F090909061E2121215E7F0996
:10125000090976264949493201017F01013F404091
:10126000403F1F2040201F7F2010207F41221C2252
:101270004107087008076151494543007F4100005C
:1012800002040810200000417F0004020102044013
:1012900040404040000102040020545454787F44F0
:1012A0004444383844444444384444447F385454D3
:1012B000541804047E0505085454543C7F08040463
:1012C0007800447D40002040443D007F10284400C9
:1012D00000417F40007C047804787C08040478385E
:1012E000444444387C14141408081414147C007CFE
:1012F000080404485454542004043F44443C4040EF
:10130000207C1C2040201C3C4030403C44281028BD
:10131000440C5050503C4464544C44000836414105
:1013200000007F0000414136080002010204027FF4
:101330007F7F7F7F00000A0F205F00000000000019
:10134000000000000000000000000000000000009D
:101350000000FEFE0000000000000000191900005F
:10136000000000001E1E00001E1E00000000000005
:101370000000000000000030FEFE3030FEFE3000B5
:1013800000031F1F03031F1F03000070F8D8FE98FF
:1013900098000000000C18187F191F0F00001CB6E1
:1013A000A2F6CC60602030000101000E1B111B0E64
:1013B00000000000DC7EE6C6860C808000070F1C63
:1013C00018191F1E1F13000000001E1E0000000041
:1013D00000000000000000000000000000E0FC1E13
:1013E00002000000000000073F78400000000000FD
:1013F000021EFCE000000000000040783F070000F3
:10140000000000F0FC0E86C66EFCFC06301B0F1FB1
:1014100031181C0F030000808080F0F08080800075
:10142000000101010F0F0101010000000000000098
:1014300000000000000000407C3C000000000000B4
:10144000000000000000000000000303030303008D
:10145000000000000000000000000000000000008C
:101460001C1C0000000000000000C0F03C0E020048
:101470000020381E07010000000000F0FC0EC6C668
:101480000EFCF80000030F1C18181C0F07000000CA
:101490000C06FEFE00000000001818181F1F181888
:1014A0001800000C06060686C67C380000181C1EB4
:1014B0001B1918181800000C06C6C6C6C6FC380052
:1014C000000C18181818190F0F000080C070180EA3
:1014D000FEFE00000003030303031F1F030000FEC2
:1014E0007E666666E6C68000000C181818181C0F89
:1014F000070000F0FCCE6666E6CC800000070F1CFB
:1015000018181C0F07000006060606E6FE3E0E0031
:101510000000101C0F03000000000038FCC6C6C607
:10152000C6FC3800000F0F181818180F0F000078AD
:10153000FCCE8686CEFCF80000000C1919191C0F91
:10154000030000000000E0E00000000000000000D8
:101550001C1C0000000000000000E0E00000000093
:10156000000000407C3C00000000008080C0406023
:101570006020300000010103020606040C00006038
:101580006060606060606000000606060606060691
:101590000600003020606040C0808000000C04061F
:1015A000060203010100000C0686C6667E1C0000D0
:1015B0000000001B1B0000000000E0F0389CCCCCB9
:1015C000DCF8F000071F38736766667727000000B5
:1015D000C0FC3E3EFCC0000000181F0F03030F1F9D
:1015E000180000FEFEC6C6C6C6FC3C00001F1F1841
:1015F0001818181F0F0000F0FC0C060606060C0059
:1016000000030F0C181818180C0000FEFE06060642
:101610000CFCF000001F1F1818180C0F030000FE30
:10162000FEC6C6C6C6C60600001F1F181818181822
:10163000180000FEFEC6C6C6C6C60600001F1F0074
:1016400000000000000000F0FC0C068686868C007E
:1016500000030F0C1819191F0F0000FEFEC0C0C0B8
:10166000C0FEFE00001F1F000000001F1F00000042
:101670000606FEFE06060000000018181F1F1818B8
:10168000000000000000060606FEFE00000C181810
:101690001818180F0F0000FEFEE0F0FC0E06020006
:1016A000001F1F0000030F1E180000FEFE000000B8
:1016B00000000000001F1F1818181818180000FE5E
:1016C000FE3EF0F03EFEFE00001F1F000101001F65
:1016D0001F0000FEFE1EF0C000FEFE00001F1F00E7
:1016E00000031E1F1F0000F0FC0E06060EFCF0009B
:1016F00000030F1C18181C0F030000FEFEC6C6C610
:10170000C67C7C00001F1F0000000000000000F0ED
:10171000FC0E06060EFCF00000030F1C18183C6FB0
:10172000070000FEFEC6C6C6C6FC3C00001F1F0028
:101730000001031F1E1000387CE6C6C6C68C0000E0
:10174000000C18181818190F0F0000060606FEFEE8
:1017500006060600000000001F1F0000000000FE3B
:10176000FE00000000FEFE0000070F1C18181C0FF2
:1017700007000006FEFC0000FCFE06000000001F43
:101780001F1F1F0000001EFEE000F0F000E0FE1E24
:10179000001F1F1E01011E1F1F0000020E3EF8F851
:1017A0003E0E020000101C1F03031F1C1000020E3F
:1017B0003E78E0E0783E0E02000000001F1F0000AF
:1017C000000000060686C6F67E1E0E00001C1E1FC8
:1017D0001B1818181800000000FEFE02020000008E
:1017E0000000007F7F404000000000020E38E080D3
:1017F000000000000000000000030E382000000080
:101800000202FEFE00000000000040407F7F00005A
:10181000000010181C0E060E1C181000000000001E
:1018200000000000000000000000000000000000B8
:10183000404040404040404040400000010306041A
:101840000000000000000000000000000000000098
:101850006030B0B0B0F0E000000E1F1B19190D1F72
:101860001F0000FEFE60303070E0C000001F1F0C43
:1018700018181C0F070000C0E070303030306000D6
:1018800000070F1C181818180C0000C0E07030304A
:1018900060FEFE0000070F1C18180C1F1F0000C080
:1018A000E0B0B0B0B0E0C00000070F1D1919191961
:1018B0000D00003030FCFE36363600000000001F00
:1018C0001F000000000000C0E070303060F0F00049
:1018D0000003376E6C6C667F3F0000FEFE603030A8
:1018E00030F0E000001F1F000000001F1F0000007C
:1018F0003030F7F700000000001818181F1F1818E4
:10190000180000003030F7F7000000000060606051
:101910007F3F0000000000FEFE80E07030100000FD
:10192000001F1F0103071E181000000606FEFE0020
:10193000000000000000000F1F181818000000F041
:10194000F030F0E030F0E000001F1F001F1F001F0C
:101950001F0000F0F060303030F0E000001F1F008A
:101960000000001F1F0000C0E070303070E0C000B9
:1019700000070F1C18181C0F070000F0F060303033
:1019800070E0C000007F7F060C0C0E07030000C053
:10199000E070303060F0F0000003070E0C0C067FA2
:1019A0007F000000F0F060303030300000001F1F7A
:1019B00000000000000000E0F0B0B0B0B030600007
:1019C000000C191919191B1F0E00003030FCFC30D7
:1019D000303000000000000F1F181818000000F041
:1019E000F000000000F0F000000F1F1818180C1F86
:1019F0001F000030F0E00000E0F030000000010FB8
:101A00001E1E0F01000070F00000C0C00000F0704A
:101A100000071F1E03031E1F0700001030F0C0C088
:101A2000F03010000010181E07071E1810000010DC
:101A3000F0F08000F0F03000000060637F1F0F01C5
:101A400000000030303030B0F070300000181C1E44
:101A50001B191818180000000000FCFE020200000C
:101A6000000001013E7E4040000000000000FEFE3C
:101A700000000000000000007F7F00000000000068
:101A80000202FEFC00000000000040407E3E01011A
:101A900000000080C0C0C0808080C0000001000045
:101AA00000010101000000000000230026002900C1
:101AB0002C000000000800020100000304070000E1
:101AC00000000000000000000000020102040810F5
:101AD00020408001020408102001020408102004A4
:101AE00008010200000000250028002B002E000441
:101AF00004040404040404020202020202030303B5
:101B00000303030505050500B1258B3311241FBE12
:101B1000CFEFD8E0DEBFCDBF12E0A0E0B1E0EEE64F
:101B2000F3E702C005900D92A437B107D9F724E07E
:101B3000A4E7B2E001C01D92AA3BB207E1F71DE0A5
:101B4000C5E8DDE004C02197FE010E949E37C4383D
:101B5000D107C9F70E94F6260C94AA390C9400000C
:101B60004F925F926F927F928F929F92AF92BF92AD
:101B7000FF9220910104309102048217930708F02C
:101B800043C02B0166247724852E962EA72EBB24D6
:101B9000B82DA42F20910704F42C222391F0E22FDA
:101BA000F0E0E49DD001E59DB00DF49DB00D112451
:101BB000FB2E289D40011124B92D249F9001112452
:101BC000A32FE0910D042091080430910904509155
:101BD0000A04E51323C0FC01EE0FFF1F8E0F9F1FA9
:101BE000820F931FE0910A04E80FF92FF11DF08294
:101BF000E0910B04E80FF92FF11DB08320910C0444
:101C0000820F911DFC01A083FF90BF90AF909F9029
:101C10008F907F906F905F904F900895880F991FDD
:101C2000880F991F820F931FE80FF92FF11D108263
:101C3000D9CFE091E903F091EA030196880F991F4B
:101C4000880F991FE80FF91FDF0114978081918198
:101C50002D913C91821B930B69E070E00E948A37C2
:101C6000892B11F06F5F7F4FCB010895AF92BF9228
:101C7000CF92DF92EF92FF920F931F93CF93DF9358
:101C80006C017B018B01040F151FEB015E01AE1887
:101C9000BF08C017D10759F06991D601ED91FC91A9
:101CA0000190F081E02DC6010995892B79F7C501D6
:101CB000DF91CF911F910F91FF90EF90DF90CF9028
:101CC000BF90AF900895FC0144815581608171817E
:101CD00085E194E00C94360EFC01538D448D252F44
:101CE00030E0842F90E0821B930B541710F0CF96B6
:101CF000089501970895FC01918D828D981761F0E8
:101D0000A28DAE0FBF2FB11D5D968C91928D9F5FFE
:101D10009F73928F90E008958FEF9FEF0895FC01DD
:101D2000918D828D981731F0828DE80FF11D858D90
:101D300090E008958FEF9FEF0895FC01918D228D23
:101D4000892F90E0805C9F4F821B91098F739927A8
:101D500008958CE493E00E949D0E21E0892B09F404
:101D600020E0822F0895FC01A48DA80FB92FB11D8A
:101D7000A35ABF4F2C91848D90E001968F739927C1
:101D8000848FA689B7892C93A089B1898C9183709F
:101D900080648C93938D848D981306C00288F38998
:101DA000E02D80818F7D80830895EF92FF920F93C5
:101DB0001F93CF93DF93EC0181E0888F9B8D8C8DF7
:101DC00098131AC0E889F989808185FF15C09FB7EB
:101DD000F894EE89FF896083E889F98980818370AE
:101DE000806480839FBF81E090E0DF91CF911F915D
:101DF0000F91FF90EF900895F62E0B8D10E00F5F7E
:101E00001F4F0F731127E02E8C8D8E110CC00FB653
:101E100007FCFACFE889F989808185FFF5CFCE01EB
:101E20000E94B30EF1CFEB8DEC0FFD2FF11DE35AA5
:101E3000FF4FF0829FB7F8940B8FEA89FB8980816E
:101E40008062CFCFCF93DF93EC01888D8823B9F0E8
:101E5000AA89BB89E889F9898C9185FD03C08081B5
:101E600086FD0DC00FB607FCF7CF8C9185FFF2CF32
:101E7000808185FFEDCFCE010E94B30EE9CFDF91C7
:101E8000CF91089580E090E0892B29F00E94A90E5F
:101E900081110E94000080E090E0892B49F080E0F1
:101EA00090E0892B29F00E94000081110C94000021
:101EB000089581508D3008F03DC0E82FF0E0ED59D5
:101EC000F04F0C949E377A0F7E0F700F760F9A0F9B
:101ED0009A0F810F870F8B0F910F9A0F950F9B0F02
:101EE000809180008F77809380000895809180009A
:101EF0008F7DF9CF84B58F7784BD089584B58F7DAC
:101F0000FBCF8091B0008F778093B00008958091CF
:101F1000B0008F7DF9CF809190008F7780939000F3
:101F20000895809190008F7DF9CF8091A0008F77E8
:101F30008093A00008958091A0008F7DF9CFCF936A
:101F4000DF93E2ECFAE18491EBEDFAE1D491EFEF6B
:101F5000FAE1C491CC23A1F081110E94590FEC2F1A
:101F6000F0E0EE0FFF1FEA55F54EA591B491EC910C
:101F7000ED2381E090E009F480E0DF91CF910895B6
:101F800080E090E0FACF1F93CF93DF93282F30E0CB
:101F9000F901EE54F54E8491F901E553F54ED491D3
:101FA000F901E151F54EC491CC23A9F0162F81110E
:101FB0000E94590FEC2FF0E0EE0FFF1FED51F54E90
:101FC000A591B4918FB7F894EC91111108C0D095F8
:101FD000DE23DC938FBFDF91CF911F910895DE2B1D
:101FE000F8CFCF93DF9390E0FC01E553F54E2491B9
:101FF0008151954EFC0184918823C9F090E0880FAF
:10200000991FFC01ED51FF4FA591B491FC01ED51D9
:10201000F54EC591D49161110DC09FB7F8948C9184
:10202000209582238C938881282328839FBFDF916A
:10203000CF910895623051F49FB7F8943C91822F6C
:10204000809583238C93E8812E2BEFCF8FB7F89464
:10205000EC912E2B2C938FBFEACF4F925F926F9211
:102060007F928F929F92AF92BF92CF92DF92EF9228
:10207000FF920F931F93CF938C014A015B018091D4
:102080001701893099F08F3F09F453C0CF911F9108
:102090000F91FF90EF90DF90CF90BF90AF909F9007
:1020A0008F907F906F905F904F900895EAECFAE1E7
:1020B000C491C7FDEBCF61E089E00E94F10F2801D8
:1020C000712C612CCC23F1F0980150E040E0C2303B
:1020D00009F0E2C028013A0160E970ED83E090E088
:1020E0000E94BD3569017A0181E0C81AD108E10872
:1020F000F10893E08FEFC816D104E104F10409F070
:102100000CF461C168E478EE81E090E0A3019201F3
:102110000E94BD3569017A0181E0C81AD108E10841
:10212000F10894E0C1114FC185B5887F836085BDFA
:10213000C8C089E080931701EAECFAE1C4918C2FC2
:10214000CF3F09F4A3CFC23009F466C060F4CC23BA
:1021500069F1C13009F442C087FD98CF61E089E0A0
:102160000E94F10FB1CFC33009F478C0C430A1F799
:102170001092A0001092A1008091A100886080932D
:10218000A1008091A10081608093A100E8EFFAE1B5
:10219000E491F0E0EE0FFF1FED51F54E8591949123
:1021A000E4EDFAE1E491E093310385CF14BC15BC72
:1021B00084B5826084BD85B5816085BDE8EFFAE1B4
:1021C000E491F0E0EE0FFF1FED51F54E85919491F3
:1021D000E4EDFAE1E491E09337036DCF10928000D3
:1021E00010928100809181008860809381008091AD
:1021F0008100816080938100E8EFFAE1E491F0E0F2
:10220000EE0FFF1FED51F54E85919491E4EDFAE14B
:10221000E491E09336034FCF1092B0001092B100DA
:102220008091B00082608093B0008091B1008160A5
:102230008093B100E8EFFAE1E491F0E0EE0FFF1FC8
:10224000ED51F54E8591949190933503809334032D
:10225000E4EDFAE1E491E09333032DCF1092900086
:1022600010929100809191008860809391008091FC
:102270009100816080939100E8EFFAE1E491F0E051
:10228000EE0FFF1FED51F54E85919491E4EDFAE1CB
:10229000E491E09332030FCF60E072E18AE790E0CF
:1022A0000E94BD3569017A0181E0C81AD108E108B0
:1022B000F108C13071F580918100887F8160809341
:1022C0008100D801AA0FBB1FA50194010E94DC3533
:1022D00028EE33E040E050E00E942636C230D1F1D3
:1022E0000CF05AC0CC2339F1C13009F0CFCED092D6
:1022F0008900C092880020934403309345034093A3
:1023000046035093470380916F00826080936F0073
:10231000BDCEC33039F480919100887F8160809375
:102320009100CFCFC43069F68091A100887F816091
:102330008093A100C6CFC7BC2093480330934903C4
:1023400040934A0350934B0380916E0082608093C8
:102350006E009CCEC092B3002093400330934103A3
:1023600040934203509343038091700082608093B6
:1023700070008CCED0929900C092980020933C03BC
:1023800030933D0340933E0350933F03809171008F
:102390008260809371007ACEC33061F3C43009F05B
:1023A00075CED092A900C092A80020933803309334
:1023B000390340933A0350933B038091720082604B
:1023C0008093720063CE8091B100887F892B8093C7
:1023D000B10077CF8E50806480937C0080917A002A
:1023E000806480937A0080917A0086FDFCCF809192
:1023F00078009091790008953FB7F8948091C802D1
:102400009091C902A091CA02B091CB0226B5A89BB7
:1024100005C02F3F19F00196A11DB11D3FBFBA2F76
:10242000A92F982F8827BC01CD01620F711D811D36
:10243000911D42E0660F771F881F991F4A95D1F7BB
:1024400008950F931F93CF93DF93CDB7DEB72997EE
:102450000FB6F894DEBF0FBECDBF809108049091F7
:102460000904892B09F47CC00E94FC1100910E0420
:1024700010910F042091100430911104601771071E
:102480008207930740F460930E0470930F048093C7
:1024900010049093110400910E0410910F042091E8
:1024A000100430911104601B710B820B930B6C3282
:1024B000714081059105C0F2F894809103049091D8
:1024C00004049A838983E0910804F0910904DF01F0
:1024D0001196808189879091FF03E0911204F09119
:1024E000130480911404992309F445C09081982B1A
:1024F00098879081809589238F838F818C8388E052
:102500008B8358856F8149853B812C8189819A8194
:10251000508347FD252F3A952083262F39F0441FFD
:1025200000C000006083000000C0F2CF38E04D9191
:1025300060830000019761F7F0931304E0931204A5
:1025400049873B832C839A83898378940E94FC116A
:1025500060930E0470930F04809310049093110401
:1025600029960FB6F894DEBF0FBECDBFDF91CF9195
:102570001F910F9108959081982B98879081809555
:1025800089238F838F818E8388E08D8358856F8127
:1025900049853D812E8189819A81508347FD252F70
:1025A00000C000C0208300C000C000C000C000C048
:1025B00060830000262F3A9541F0441F000000C0C0
:1025C00000C000C000C000C0E8CF38E04D9100C09E
:1025D000608300C0019709F7F0931304E09312049D
:1025E00049873D832E83AFCF8F929F92AF92BF9248
:1025F000CF92DF92EF92FF924B015C010E94FC119F
:102600006B017C010E94FC116C197D098E099F09E8
:10261000683E734081059105A8F321E0821A910874
:10262000A108B10888EEC80E83E0D81EE11CF11C99
:1026300081149104A104B10429F7FF90EF90DF9079
:10264000CF90BF90AF909F908F9008952FB7F89440
:102650006091C4027091C5028091C6029091C70238
:102660002FBF0895CF93DF93EC018D85882329F048
:1026700081508D87DF91CF9108959C818E8198172D
:10268000C8F788896827E881F9810084F185E02D01
:1026900042E0CE0109958C818F5F8C83EBCFDC010A
:1026A0001E96ED91FC9184913196E491982F8E2F96
:1026B0000895909324048093230485E194E00E947C
:1026C0004F13019719F410921E04089581E080932E
:1026D0001E040895CF92DF92EF92FF920F931F9303
:1026E000CF93DF93EC0110E000E0E990EE2041F0A1
:1026F0008091230490912404009761F410E000E09D
:10270000C801DF91CF911F910F91FF90EF90DF9063
:10271000CF900895FC013496C4903196E491EC1466
:1027200068F3F12CD12CEC0DFD2DF11DEE16FF06FA
:102730002CF785E194E00E944F13E0912304F0917F
:102740002404209126040297D0F086E0E80EF11CC4
:10275000EC18FD08EE0DFF1DE491E29FE02D112421
:10276000EE2361F280911E0490912604899F802DB2
:1027700011248E0F9927991F080F191FB6CF329673
:10278000EBCF4FB7F8942091BC023091BD028091FD
:10279000BA029091BB024FBF4091B802042E02C012
:1027A000359527950A94E2F702C0959587954A9545
:1027B000E2F78802C00111242202800D911D11242C
:1027C00008950E94C1139093D9028093D80220915A
:1027D0001703309118038217930720F09093180382
:1027E000809317032091170330911803409104013F
:1027F000509105013695279536952795240F351F5D
:10280000265F3F4F8217930790F081E08093BE02CE
:1028100080911703909118039093E1028093E00256
:102820005093DF024093DE028091BE020895109221
:10283000BE02FACF8091B7028823E1F11092B6026E
:102840002091E6023091E7028091150390911603E2
:102850002817390740F08091E6029091E7029093A3
:1028600016038093150380911503909116038091B0
:102870001503909116034091130350911403209176
:10288000130330911403E091E602F091E702841BF8
:10289000950B6AE070E00E947637265F3F4F620F2B
:1028A000731F81E0E617F70708F480E08093E802E1
:1028B0001092B7028091B602811108C081E0809326
:1028C000B60280917A00886480937A008091E80251
:1028D0000895CF93DF93D0E0C0E040E050E0BA012C
:1028E000CE010E94B00D2196CA31D105B1F7DF911A
:1028F000CF910C942112CF92DF92EF92FF920F931F
:102900001F93CF93DF93C091A202D091A3028E01B7
:10291000000F111F02571D4FF80140815181052EF4
:10292000000C660B770BC090A402D090A502E0903B
:10293000A602F090A702C41AD50AE60AF70A81E1B6
:102940000E94EA11F80191838083092E000CAA0BE2
:10295000BB0BBC01CD016C0D7D1D8E1D9F1D6093B9
:10296000A4027093A5028093A6029093A7022196D9
:10297000CA30D105A4F4D093A302C093A2022AE0E6
:1029800030E040E050E00E94BD35C901DF91CF91B9
:102990001F910F91FF90EF90DF90CF9008951092CC
:1029A000A3021092A202EBCF81E080932D038091CD
:1029B00008014EEF5EEF6EEF70E090E00E94B00D08
:1029C0000E9421120E94261360939A0470939B0424
:1029D00080939C0490939D04089580E680937C00EE
:1029E00081E080938D0210927B008EEF80937A00BD
:1029F00080E090E0AAE2B5E480930F039093100387
:102A0000A0931103B09312038AE89DE3A6E9B6E40C
:102A100080930B0390930C03A0930D03B0930E03CC
:102A200085E394E2A0E0B0E080930703909308036D
:102A3000A0930903B0930A0385E090E09093B90254
:102A40008093B802089510920103109200030E942F
:102A5000ED140E9426136093FB037093FC03809394
:102A6000FD039093FE030E9426136093E20270938D
:102A7000E3028093E4029093E50281E080930301F6
:102A80001092FF021092EC021092ED021092EE02F0
:102A90001092EF028EE190E0909305018093040183
:102AA000109218031092170308951F93CF93DF938A
:102AB000EC01162F61E0411101C060E08B890E949A
:102AC000C30F80E58CBD81E08DBD60E08A890E94E6
:102AD000C30F1EBD00000DB407FEFDCF8EB561E033
:102AE0008A89DF91CF911F910C94C30FDC01ED9186
:102AF000FC910084F185E02D40E009940F931F9331
:102B0000CF938C01FC016483C085C60F6C2F6F705E
:102B10000E9476156C2F62956F706061C801CF912D
:102B20001F910F910C947615FC012781269526950F
:102B30002695621738F465832385620F6770606B92
:102B40000C94761508951F93CF93DF93EC01142F07
:102B50008E81681718F4CE010E947E15612FCE0178
:102B6000DF91CF911F910C949415CF92DF92EF9249
:102B7000FF920F931F93CF93DF93EC01F62EC42E99
:102B8000D22E1D868F81869586958695081710F022
:102B90000FEF080F1D2D011780F0412F6F2DCE0173
:102BA0000E94A315EF2CCE1430F06889CE010E944C
:102BB0003213E394F8CF1F5FEECF4D2D6F2DCE0172
:102BC000DF91CF911F910F91FF90EF90DF90CF9009
:102BD0000C94A3150F93DC0115962C9115971E9656
:102BE000ED91FC911F9700E0309779F03396E491D6
:102BF000F0E0379683E0F595E7958A95E1F75196F1
:102C00000C9151970E9F002D1124EFEFE20F0E0F44
:102C100016964C911697415014966C911497CD01CD
:102C20000E94B5150F9108952F923F924F925F9297
:102C30006F927F928F929F92AF92BF92CF92DF92CC
:102C4000EF92FF920F931F93CF93DF9300D000D0AA
:102C500000D0CDB7DEB7FC0106851785011511053B
:102C600009F446C19E838D83F801329664903196B3
:102C7000A490EA2CF12CF7E0EF0EF11C23E0F59480
:102C8000E7942A95E1F7E982F80134968491319628
:102C9000E491681748F0CE2ED12C9601280F311DF3
:102CA000621713060CF469C06D3031F5ED81FE81B9
:102CB000868181111BC081E090E026960FB6F894C2
:102CC000DEBF0FBECDBFDF91CF911F910F91FF905F
:102CD000EF90DF90CF90BF90AF909F908F907F90BC
:102CE0006F905F904F903F902F90089560E08D819E
:102CF0009E810E947E15DFCF6A3009F0F9C0ED8118
:102D0000FE818681882321F060E0CF010E947E153C
:102D1000ED81FE8181898E9DE02C112465816E0DEF
:102D20008485882349F097819695969596958E2D62
:102D3000891B860F18162CF08D819E810E94941598
:102D4000BACFED81FE812385820F877083879E191C
:102D50009583CF010E94EA15ED81FE818485813043
:102D600009F0A9CF6385660F660F660F6F736287E0
:102D70006064CF010E9476159ECF0A5F1F4FB62E6A
:102D8000B81AED81FE8191858189989F802D11244B
:102D90008C83CF010E944F13029708F06AC06E9C8B
:102DA000C0016F9C900D1124B89E6001B99ED00C9B
:102DB00011240C0D1D1D512CED81FE81F481FA832F
:102DC000ED81FE812580F585FB83862C912CAA243C
:102DD000A394B12C312C8981381608F087C0412C7E
:102DE000ED81FE818189481608F079C08B81858745
:102DF000311002C0442041F0ED81FE8145814F5FDA
:102E00006A81CF010E94A315D12CC12CC61408F0F1
:102E100059C0F801EC0DFD1D7490552061F0EA14C5
:102E2000FB0449F4E72DF0E0052C02C0F595E79589
:102E30000A94E2F77E2EED81FE818189823081F451
:102E4000442009F43BC072948FE07822E72DF0E033
:102E5000ED52FF4F7490672D8D819E810E94321339
:102E6000672D8D819E810E9432138FEFC81AD80A78
:102E7000CDCFEA2DE77088E0582E5E1AE11101C02F
:102E8000512CF801612C90E080E06B1431F024911A
:102E9000820F911D63943196F8CF600E712E711CD4
:102EA000F3016490E89EF001E99EF00DF89EF00DAC
:102EB0001124CE0EDF1E0C0D1D1D7ECFF72DFF70D1
:102EC0007F2EC4CFD12CEC81DE1639F060E08D81ED
:102ED0009E810E943213D394F6CF439481CF3394D2
:102EE000080D191DFFEFAF1ABF0A75CF622D24CF51
:102EF00090E080E0E2CE0F93CF93DF93EC011B864E
:102F00001A8660E40E9476150F810695069506954F
:102F100001504E81415020E060E0CE010E94B51585
:102F2000DF91CF910F910895089590E080E008958A
:102F3000CF93DF93EC0188819981009711F00E9473
:102F40004F38198218821D821C821B821A82DF91DF
:102F5000CF910895FC0180819181009711F00C942C
:102F60004F380895FB0101900020E9F73197AF0138
:102F7000461B570BDC01ED91FC910280F381E02DA3
:102F800009948F929F92AF92BF920F931F93CF930A
:102F9000DF93CDB7DEB7A1970FB6F894DEBF0FBEB3
:102FA000CDBF19A2423008F44AE08E010F5D1F4FD9
:102FB000842E912CB12CA12CA50194010E942636BF
:102FC000E62FB901CA01EA3004F5E05DD801EE93BD
:102FD0008D01232B242B252B79F790E080E010978F
:102FE00029F0BD0185E194E00E94B217A1960FB6C9
:102FF000F894DEBF0FBECDBFDF91CF911F910F912F
:10300000BF90AF909F908F900895E95CDFCFCF92F3
:10301000DF92EF92FF92CF93DF936C01990FEE084E
:10302000FF08F7FE19C06DE285E194E00E941416D6
:10303000EC0166277727CB016C197D098E099F0962
:103040004AE00E94C1178C0F9D1FDF91CF91FF9026
:10305000EF90DF90CF9008954AE0C701B601DF916D
:10306000CF91FF90EF90DF90CF900C94C117BC01EF
:1030700085E194E00C94B21780910D01882351F002
:1030800041E066E185E194E00E94A31583E891E0C8
:103090000C943718089580911F0381110DC081E0B1
:1030A00080931F0345E066E485E194E00E94A31548
:1030B0008EE491E00C943718089545E06CE385E1C7
:1030C00094E00E94A3158BE392E00C94371845E03E
:1030D00065E085E194E00E94A31584E591E00C94FD
:1030E00037188091200381111CC080911C0381112D
:1030F0000AC041E06CE285E194E00E94A3158AE5F4
:1031000091E00E94371880911C03882399F041E0D8
:103110006CE385E194E00E94A31584E691E00C94B1
:10312000371841E06BE485E194E00E94A31581E645
:1031300091E0E7CF08950F931F93CF93DF93EC01B6
:103140000E94B2178C0169E671E0CE010E94B217AD
:10315000800F911FDF91CF911F910F91089585E10D
:1031600094E00E947B1741E069E185E194E00E94D0
:10317000A3156CE671E085E194E00E949B1845E0A0
:1031800065E085E194E00E94A31564E771E085E1C4
:1031900094E00C949B18CF92DF92EF92FF920F93E2
:1031A0001F93CF93DF937B012091EB033091EC03CE
:1031B00082179307F4F4880F991F880F991F2091A5
:1031C000E9033091EA03820F931FFC01C280D38090
:1031D000FFEFCF16DF0669F08B01C3E0D0E0C60138
:1031E0008C1B9D0B0E94A735F80181938F012197BD
:1031F000B0F7C701DF91CF911F910F91FF90EF9032
:10320000DF90CF9008950C94A7350F931F93CF9321
:10321000DF93EC018C01060F171FC017D1079CF438
:10322000CE010E9403198F3F61F0FC9AFD98FB9834
:10323000D2BDC1BD8FB7F894F999FECFFA9AF99A29
:103240008FBF2196EACFDF91CF911F910F91089503
:103250000F931F93CF93DF93EC01162F22E030E002
:10326000062F0095FD9AFC98FB98D2BDC1BD10BDFC
:103270008FB7F894F999FECFFA9AF99A8FBFF99916
:10328000FECF2130310539F0CE010E94031921E033
:1032900030E0802339F7DF91CF911F910F9108958E
:1032A000CF93DF93EB010E94A7358883CE01DF9196
:1032B000CF910895CF93DF93EB010E94A7358883C8
:1032C000CE01DF91CF9108950E9495390F931F93FE
:1032D000CF93DF93EC0188819981009759F02A817F
:1032E0003B812617370730F081E0DF91CF911F91A6
:1032F0000F9108958B016F5F7F4F0E94D838009720
:1033000059F0998388831B830A832C813D81232B69
:1033100059F7FC011082E8CF80E0E7CFEF92FF92EF
:103320000F931F93CF93DF93EC01FB01E080F180BB
:10333000E114F10411F10481158101151105A9F0C1
:103340008C819D81080F191FB801CE010E9466195A
:10335000882399F0288139818C819D81B701820F62
:10336000931F0E94A3391D830C83CE01DF91CF915F
:103370001F910F91FF90EF900895CE010E94981732
:10338000F4CFEF92FF920F931F93CF93DF9300D070
:10339000CDB7DEB78C018EE289831A82F801E48012
:1033A000F580FFEFEF1AFF0AB701C8010E94661906
:1033B0008823C9F0F8012081318184819581BE0183
:1033C0006F5F7F4F820F931F0E94A339F801F58230
:1033D000E482C8010F900F90DF91CF911F910F9160
:1033E000FF90EF900895C8010E949817F2CFEF92D6
:1033F000FF920F931F93CF93DF93EC017B018A0120
:10340000BA010E94661981110BC0CE010E94981763
:10341000CE01DF91CF911F910F91FF90EF90089512
:103420001D830C83B701888199810E94A339F0CF55
:10343000EF92FF920F931F93CF93DF93CDB7DEB739
:1034400062970FB6F894DEBF0FBECDBF8C01CB01E3
:10345000F8011182108213821282158214824AE0CE
:103460009E012F5F3F4F7901B9010E944E34F70151
:1034700001900020E9F73197AF014E195F09B701BC
:10348000C8010E94F71962960FB6F894DEBF0FBE0E
:10349000CDBFDF91CF911F910F91FF90EF900895D5
:1034A000FB01DC0111961C921E9213961C921E9237
:1034B000129715961C921E9214978617970749F03B
:1034C000608171816115710521F0448155810C94F1
:1034D000F71908950F931F93CF93DF93CDB7DEB7FE
:1034E00068970FB6F894DEBF0FBECDBF809108017C
:1034F000882309F4AFC090911C03992309F461C09B
:1035000009E110E09801281B310945E0429FC00104
:10351000439F900D11246AE070E00E948A37BC013D
:10352000CE0143960E94181A80910801B801681BC9
:10353000710977FF02C06F5F7F4F75956795CE0168
:1035400007960E94181ABE01695F7F4FCE010D9643
:103550000E94501ACE010D960E94C119BE016D5EE7
:103560007F4F0E948E19BC01CE0101960E94501A15
:10357000CE010D960E94AA17CE0107960E94AA17A7
:10358000CE0143960E94AA1741E06AE085E194E0EB
:103590000E94A31580E891E00E943718CE010196A1
:1035A0000E94630ECE0101960E94AA1768960FB67C
:1035B000F894DEBF0FBECDBFDF91CF911F910F9169
:1035C000089590912003911121C0803151F441E080
:1035D00064E185E194E00E94A31583E891E00E94F4
:1035E000371841E06AE085E194E00E94A31580E885
:1035F00091E00E9437189091080129E130E0A9017B
:10360000491B5109CA010E940718D0CF853151F4D6
:1036100041E069E385E194E00E94A31584E891E02C
:103620000E94371841E069E185E194E00E94A3150A
:1036300080E891E00E9437182091080189E190E02C
:10364000821B910924E1AC01249FC001259F900DAC
:103650001124D9CF8091200341E0811112C06AE08A
:1036600085E194E00E94A31584E891E00E94371858
:103670006091080170E090E080E04AE00E94C1178C
:1036800095CF69E185E194E00E94A31582E891E07D
:103690000E94371841E06DE285E194E00E94A31595
:1036A000E7CF0F931F93CF93DF93CDB7DEB7689724
:1036B0000FB6F894DEBF0FBECDBF809108018823FE
:1036C00009F45EC090911C03992309F464C025E0BD
:1036D000829FC00111246AE070E00E948A37BC0119
:1036E000CE0143960E94181A6091080170E075950A
:1036F0006795CE010D960E94181A18861F821A86A9
:1037000019861C861B868BE289831A828E010F5FC5
:103710001F4FF80101900020E9F73197AF01401BDE
:10372000510BB801CE0107960E94F719BE01635FE5
:103730007F4FCE0107960E948E190E94C119BE01CB
:103740006D5E7F4F0E948E19BC01C8010E94501A05
:10375000CE0107960E94AA17CE010D960E94AA17C5
:10376000CE0143960E94AA1741E06AE085E194E009
:103770000E94A315C8010E94630EC8010E94AA17E7
:1037800068960FB6F894DEBF0FBECDBFDF91CF9124
:103790001F910F9108958091200341E0811112C083
:1037A0006AE085E194E00E94A31586E891E00E941A
:1037B00037186091080170E090E080E04AE00E94D4
:1037C000C117DECF69E185E194E00E94A31586E888
:1037D00091E00E9437188091080124E1829FC00186
:1037E00011240E940718CCCF0C94AF35FF920F9391
:1037F0001F93CF93DF93EC01F62E08811981C80146
:103800000E94A735F81621F06F2DC8010E94AF3530
:10381000CE01DF91CF911F910F91FF9008952F92CC
:103820003F924F925F926F927F928F929F92AF9250
:10383000BF92CF92DF92EF92FF920F931F93CF939D
:10384000DF9300D000D0CDB7DEB71C013B010E9452
:10385000190E7C018091EB039091EC032816390638
:103860000CF0BCC08090E9039090EA032FEF221A7D
:10387000320A220C331C220C331CF401E20DF31D1E
:103880004080518034E0231A3108820C931CF401EB
:10389000A080B180C2018A199B098E199F090497E3
:1038A0000CF49CC0028113810F3F100729F487019B
:1038B0000A0D1B1D01501109680123E0C21AD1082D
:1038C0007C826B820C151D050CF488C0C6010E9419
:1038D0000319EB81FC819191FC83EB83FFEFCF1AFD
:1038E000DF0A891779F3C80105960F5F1F4F481645
:1038F00059064CF4B701C5010E940519F401008175
:1039000011810E0D1F1D17FD69C05301F4E0AF0EAC
:10391000B11C6801C618D708C601860D971D9A8389
:103920008983F30161913F01CE0101960E94F61B4C
:103930006A147B0489F78091E9039091EA03280EC9
:10394000391EC8010396F10193838283808191819E
:10395000E80EF91E0E191F09780117FF03C0F7E0E2
:10396000EF0EF11C83E0F594E7948A95E1F78E2D34
:10397000880F880F880F081B94E0892E912C6FEF19
:1039800027E0C22ED12CAA24A394B12CC601801BFF
:103990009109950102C0220F331F8A95E2F7C901F0
:1039A000809568230F5F083060F0F101808191817C
:1039B0008E0D9F1D0E942819FFEFEF1AFF0A6FEF6F
:1039C00000E021E0821A910809F76F3F39F0F10118
:1039D000808191818E0D9F1D0E9428190F900F905C
:1039E0000F900F90DF91CF911F910F91FF90EF906B
:1039F000DF90CF90BF90AF909F908F907F906F900F
:103A00005F904F903F902F9008950F931F93CF9307
:103A1000DF9300D0CDB7DEB78B019A838983FB019A
:103A20006081CE0101960E94F61BC8010F900F9095
:103A3000DF91CF911F910F9108952F923F924F9256
:103A40005F926F927F928F929F92AF92BF92CF922E
:103A5000DF92EF92FF920F931F93CF93DF9300D0EB
:103A600000D01F92CDB7DEB710921501109214014D
:103A70001092130161E082E00E94F10F61E085E0A5
:103A80000E94F10F61E082E00E94C30F80910E015D
:103A900081508A3018F084E080930E0180910504F3
:103AA0009091060497FD08C061E00E94F10F60E06C
:103AB000809105040E94C30F81E08093000462E3BB
:103AC00070E080E090E00E94F41261E085E00E94E6
:103AD000C30F61E089E00E94F10F62E080E10E9483
:103AE000F10F0E94691482E090E09093EC038093C0
:103AF000EB038CE090E00E94B337FC019093EA0363
:103B00008093E90381E090E09183808382EE91E0ED
:103B10009583848383EC93E09187808790E080E0B5
:103B20000E9403198D831A82198263E0CE010196E7
:103B30000E94F61BF12CE12CD12CC12C0091E90341
:103B40001091EA030E0D1F1D8091EB039091EC0381
:103B5000C816D9060CF087C0C6010E94190E1C01B8
:103B60002D81233031F0BC01F801808191810E94C8
:103B700005198091E9039091EA039C012E0D3F1DE8
:103B80003C832B83F901A080B1802A0C3B1C2101CE
:103B9000F1E04F1A5108320145018FEF0FEF1FEF8F
:103BA00068147904DCF08301081919091595079543
:103BB000080D191DC8010E9403199FEF980F9E3F21
:103BC000C8F0811105C048012FEF821A920AE8CF90
:103BD000380131E0631A71088FEFE2CF811117C00D
:103BE000041515053CF40F5F1F4FC8010E9403190F
:103BF0008823B1F3C8010E94031927E030E091E067
:103C0000482F4923A1F0990F21503109F9CF0A1506
:103C10001B053CF001501109C8010E9403198F3F98
:103C2000B1F30415150534F70F5F1F4FE3CF0A19E1
:103C30001B0993E0000F111F9A95E1F7020F131F64
:103C40000F3F100769F0020D131DEB81FC811383F8
:103C50000283FFEFCF1ADF0A24E0E20EF11C6ECFE1
:103C60000FEF1FEFF2CF8FEF9FEFF8019383828367
:103C70006EE173E08CEF93E00E945A198DEF93E0B0
:103C80000E94A735809321038EEF93E00E94A73511
:103C9000809322031982BE016F5F7F4F8BEF93E009
:103CA0000E94051D62EC72E08BEF93E00E945A19AE
:103CB00063E273E090E080E00E94CB1880912303E0
:103CC00090912403A0912503B09126030196A11D94
:103CD000B11D8093230390932403A0932503B093F5
:103CE00026038091EB039091EC031816190634F427
:103CF00063E273E090E080E00E940F1C67E273E0F3
:103D000081E090E00E94CB188FEF93E00E940319AE
:103D10008E3141F08851823028F069E18FEF93E0D5
:103D20000E94F41B8CEF93E00E940319823028F06C
:103D300060E08CEF93E00E94F41B0E949F0F892BA0
:103D400089F48FEF93E00E9403196EE1893131F01D
:103D500068E18E3119F0883129F469E18FEF93E041
:103D60000E94F41B6AE173E08FEF93E00E94501908
:103D70006EE273E089EF93E00E94501980912E0368
:103D8000853010F010922E0364E170E080E090E046
:103D90000E94F412F8948091680088608093680013
:103DA00080917300886080937300789461E08AE06A
:103DB0000E94F10F60E08AE00E94C30F6AE070E0A9
:103DC00080E090E00E94F41261E08AE00E94C30F5C
:103DD0006AE070E080E090E00E94F41287E1809356
:103DE000270486E18093280461E087E10E94F10FB7
:103DF00061E0809128040E94F10F1FB7F894809130
:103E0000BF02811127C0E9EFFAE18491E5EDFAE103
:103E10009491E82FF0E0EE0FFF1FED51FF4FA591B9
:103E2000B491EC91E92321F461E08AE00E94C30F90
:103E300061E08AE00E94F10F8CB580618CBD8CB589
:103E400080648CBD61E08DE00E94F10F61E08BE049
:103E50000E94F10F8091BF028F5F8093BF021FBF4E
:103E60001092190410921A04EDECF0E0C590D49071
:103E7000EFECF0E0F490E0EDF0E0E491E0931B046F
:103E8000E1EDF0E0E491E0931C04E2EDF0E0E49178
:103E9000E0931D0410E000E00F1558F4F801EC0D5C
:103EA000FD1D649185E194E00E9476150F5F1F4F20
:103EB000F3CF85E194E00E947B176BED85E194E000
:103EC0000E94761560E385E194E00E94761561E832
:103ED00085E194E00E9476156FEF85E194E00E9401
:103EE000761562E370E080E090E00E94F41284E3D3
:103EF00093E10E94591381E080931601809302019F
:103F00001092D7021092D6021092D5021092D102CE
:103F10001092D4020E942613609396047093970423
:103F200080939804909399041092D3021092D20235
:103F300080917A008F7D80937A0087E880937A0061
:103F400061E087E00E94F10F61E087E00E94C30F0B
:103F5000F894109290008AE08093910082E0809320
:103F6000710080911A03883151F481EC92EA9093A8
:103F70009900809398009093C1028093C002809131
:103F80001A03893151F48FE39CE99093990080934F
:103F900098009093C1028093C00280911A038E31E1
:103FA00051F484E392E89093990080939800909361
:103FB000C1028093C002789482E090E090930A015D
:103FC000809309011092810081E080930F010F908E
:103FD0000F900F900F900F90DF91CF911F910F9145
:103FE000FF90EF90DF90CF90BF90AF909F908F9019
:103FF0007F906F905F904F903F902F9008950F9318
:104000001F93CF938091B502882391F01092B5024F
:104010001092B4021092B30210921F030E94FC117E
:104020006093AF027093B0028093B1029093B2029A
:104030008091080181115AC08091B402811128C079
:1040400080911E03811109C080912003811105C058
:1040500067EA85E194E00E9476158091B3028111B0
:1040600012C081E08093B30280911C03882309F47D
:1040700087C141E06AE285E194E00E94A31587E9E7
:1040800091E00E9437180E946A1A81E08093B4027E
:104090000E94FC110091AF021091B0022091B10278
:1040A0003091B202AB01BC01401B510B620B730B90
:1040B00080910B0190910C01092E000CAA0BBB0BF7
:1040C000481759076A077B0788F00E94FC11609324
:1040D000AF027093B0028093B1029093B2020E943B
:1040E0003C1866EA85E194E00E947615809108010B
:1040F000813061F49091B402911108C08093B402B0
:104100000E944B180E9471180E94511B8091080157
:1041100081508C3090F58091B402811105C081E00E
:104120008093B4020E94511B0E94FC110091AF02C7
:104130001091B0022091B1023091B202AB01BC01EA
:10414000401B510B620B730B80910B0190910C0182
:10415000092E000CAA0BBB0B481759076A077B07EF
:1041600060F00E94FC116093AF027093B0028093E4
:10417000B1029093B2020E943C18809108018C30E9
:1041800009F055C080911B03882309F450C0809129
:10419000AE0281114CC043E06EE185E194E00E94E3
:1041A000A31585E194E00E94EA158EE891E00E9453
:1041B00037188091A802811117C00E94F63323E1BD
:1041C00030E040E050E00E94BD356F5F7F4F8F4F81
:1041D0009F4F6093AA027093AB028093AC029093BE
:1041E000AD0281E08093A8028091090190910A01BB
:1041F00090930701809306018091AA029091AB02EF
:10420000880F991F90930A018093090181E08093A0
:10421000AE0290910801292F30E09C5040E050E020
:10422000BA019D3008F0B5C0C9010E94B00D80915F
:1042300008018D3009F061C080911B03882381F053
:1042400082E090E090930A018093090143E060E0EE
:1042500085E194E00E94A31585E194E00E94EA15AF
:104260008091B402811111C081E08093B402109258
:104270001F0345E066E485E194E00E94A31585E113
:1042800094E00E94EA150E945D180E947B142AE9BE
:1042900030E0DC010E94AC37653D7E4F8F4F9F4F71
:1042A0000CF47DC00E947B142AE930E0DC010E94FE
:1042B000AC37643A754B810591050CF073C00E94D0
:1042C0007B142AE930E0DC010E94AC372CE231E0BB
:1042D00040E050E00E94BD352C593F4F4F4F5F4F9B
:1042E00030930101209300010E947B148B3892408F
:1042F0000CF45BC081E08093A902809108018E30AC
:1043000011F41092AE028D508C30B0F58091B40251
:10431000811107C0C1E0C093B4020E946A1AC09321
:10432000B4020E94FC110091AF021091B0022091E2
:10433000B1023091B202AB01BC01401B510B620BC8
:10434000730B80910B0190910C01092E000CAA0BAC
:10435000BB0B481759076A077B0760F00E94FC11E6
:104360006093AF027093B0028093B1029093B20257
:104370000E943C181092A802CF911F910F910895AE
:1043800045E066E485E194E00E94A31588E891E0A9
:1043900078CEC9010E94B00D0E94211248CF24E6B8
:1043A00030E09ECF2EEF30E09BCF1092A902A5CF38
:1043B0001F920F920FB60F9211242F933F934F939A
:1043C0005F936F937F938F939F93AF93BF93EF937D
:1043D000FF938091400390914103A0914203B091DB
:1043E0004303892B8A2B8B2BD1F190913303E091DE
:1043F0003403F091350380818927808380914003C5
:1044000090914103A0914203B091430318161906FD
:104410001A061B069CF48091400390914103A091E1
:104420004203B09143030197A109B109809340036E
:1044300090934103A0934203B0934303FF91EF9104
:10444000BF91AF919F918F917F916F915F914F91AC
:104450003F912F910F900FBE0F901F901895809154
:104460001701EAECFAE1E4919FEF90931701E23033
:10447000E1F040F4EE2381F0E13089F060E00E9449
:10448000C30FDCCFE33011F1E430C1F7909172003B
:104490009D7F90937200F2CF10926E00EFCF9091BB
:1044A0006F009D7F90936F00E9CF909170009D7F8A
:1044B0009093700091E09093B0009091B100987F3C
:1044C00094609093B1001092B300D8CF9091710096
:1044D0009D7F90937100D2CF1F920F920FB60F92D3
:1044E00011242F933F934F935F936F937F938F93F9
:1044F0009F93AF93BF93EF93FF938CE493E00E945D
:10450000B30EFF91EF91BF91AF919F918F917F91EA
:104510006F915F914F913F912F910F900FBE0F9030
:104520001F9018951F920F920FB60F9211242F9380
:104530008F939F93EF93FF93E0915C03F0915D0362
:104540008081E0916203F091630382FD1BC0908142
:10455000809165038F5F8F7320916603821741F00E
:10456000E0916503F0E0E45BFC4F958F8093650379
:10457000FF91EF919F918F912F910F900FBE0F9010
:104580001F9018958081F4CF1F920F920FB60F9253
:1045900011242F933F938F939F93AF93BF93809159
:1045A000C4029091C502A091C602B091C702309199
:1045B000C30223E0230F2D3758F50196A11DB11D2D
:1045C0002093C3028093C4029093C502A093C602B5
:1045D000B093C7028091C8029091C902A091CA020B
:1045E000B091CB020196A11DB11D8093C80290939A
:1045F000C902A093CA02B093CB02BF91AF919F9121
:104600008F913F912F910F900FBE0F901F90189593
:1046100026E8230F0296A11DB11DD2CF1F920F9243
:104620000FB60F9211242F933F934F935F936F9385
:104630008F939F93AF93BF93EF93FF938091030169
:10464000882309F46DC080918D02882309F495C0F8
:10465000809179008455990B90938C0280938B0202
:1046600020918B0230918C0240910E01429FC0013B
:10467000439F900D112490938C0280938B02809124
:10468000070390910803A0910903B0910A03409198
:10469000890250918A02480F591F50938A02409311
:1046A000890220918B0230918C0257FF02C0209525
:1046B000309580918B0290918C0240E4450F47FF2A
:1046C00002C0809590954091BC025091BD026091CE
:1046D000B802E091BC02F091BD02062E02C05595D1
:1046E00047950A94E2F7241B350B2E0F3F1F30939A
:1046F000BD022093BC022091BA023091BB024091CE
:10470000BA025091BB0202C0359527956A95E2F72F
:10471000821B930B840F951F9093BB028093BA0268
:104720008091FF028823C9F09091780080917900F0
:104730008927982789279093E7028093E60281E0F2
:104740008093B7028091E6029091E7028E3F9340FA
:1047500024F01092E7021092E602FF91EF91BF91D0
:10476000AF919F918F916F915F914F913F912F9159
:104770000F900FBE0F901F90189580917900805870
:10478000990B79CF1F920F920FB60F9211248F932E
:104790009F9380918D0491E0892780938D049F9150
:1047A0008F910F900FBE0F901F9018951F920F9230
:1047B0000FB60F921124CF92DF92EF92FF920F93D8
:1047C0001F932F933F934F935F936F937F938F9399
:1047D0009F93AF93BF93EF93FF938091E9029091E2
:1047E000EA0201969093EA028093E902809187029F
:1047F000909188020196909388028093870220917D
:10480000E9023091EA028091090190910A0128178A
:10481000390708F448C1809108011092EA02109209
:10482000E90291E09093B5028F5F893108F064C18D
:104830008093080180910801811152C085B191E0F7
:10484000892785B910928602109285028091130102
:104850008823E1F00E9426136093F6027093F7021A
:104860008093F8029093F90248E050E060E070E035
:1048700080EA9AE00E942D100E94FC116093810250
:10488000709382028093830290938402809114013A
:10489000882331F180911E03882309F430C180916F
:1048A000200381112CC181E080932D0310E000E0F2
:1048B00044E654E664E670E0C8010E94B00D0F5F64
:1048C0001F4F0A311105A1F70E9421120E942613E1
:1048D00060939A0470939B0480939C0490939D042E
:1048E000809108018C3011F580911B03811126C144
:1048F0008091090190910A0190930701809306012C
:1049000080911A038E3151F4809120038111FAC0F5
:104910008CE090E090930A018093090180911A0342
:10492000883109F00BC18DE0809308018091080166
:104930008D3009F061C0209106013091070130935C
:104940000A012093090190911A039931D9F49091A9
:10495000D00220912103309122034091C002509156
:10496000C102992309F4D1C037FF02C021583F4F3B
:10497000220F232F221F330B240F351F3093990052
:104980002093980090911A039E31C9F4209121033D
:10499000309122034091C0025091C10237FF02C002
:1049A000295F3F4FA3E035952795AA95E1F74C5E27
:1049B0005F4F240F351F30939900209398009091FA
:1049C0001A039831C9F420912103309122034091B8
:1049D000C0025091C10237FF02C0295F3F4FF3E090
:1049E00035952795FA95E1F7405E5F4F240F351F07
:1049F000309399002093980090911501992309F420
:104A000052C09FEF980F9C30A0F491E090932D033B
:104A10009091A902992309F482C00E94D4140E94A3
:104A2000261360939A0470939B0480939C04909344
:104A30009D04809108018C3039F490911A039E31C5
:104A400019F491E09093800293EF980F9D3058F500
:104A500040910001C42ED12CF12CE12CB601552738
:104A6000442790E02091A902222361F03E2D2D2DB4
:104A70001C2D0027402B512B622B732B4C295D29B9
:104A80006E297F290E94B00D0E94211281E080933F
:104A90002D030E94261360939A0470939B048093C5
:104AA0009C0490939D04809108018D3071F4809155
:104AB000E9029091EA02019741F48091C00290913D
:104AC000C1029093990080939800FF91EF91BF915C
:104AD000AF919F918F917F916F915F914F913F9196
:104AE0002F911F910F91FF90EF90DF90CF900F903B
:104AF0000FBE0F901F901895109208019BCE0E9438
:104B0000D414EECE86E090E005CF37FF02C0295FD7
:104B10003F4FB3E035952795BA95E1F72DCF4091FA
:104B2000000150E070E060E0762F652F542F44279D
:104B300090E00E94B00D0E94211271CF8CE05CCFFA
:104B4000FC01118210821382128215821482FB01F1
:104B500001900020E9F73197AF01461B570B0C94E9
:104B6000F71910924F0310924E0388EE93E0A0E0E5
:104B7000B0E08093500390935103A0935203B093FD
:104B8000530382E391E090934D0380934C0385ECB3
:104B900090E0909359038093580384EC90E09093B5
:104BA0005B0380935A0380EC90E090935D038093C5
:104BB0005C0381EC90E090935F0380935E0382EC52
:104BC00090E0909361038093600386EC90E0909373
:104BD0006303809362031092650310926603109240
:104BE0006703109268031092EC031092EB03ADEE92
:104BF000B3E0EEE0F0E091E29093570084918D9362
:104C00003196E831F105C1F764E971E080EB94E099
:104C10000E94A02569E971E08AEA94E00E94A0253B
:104C200064EA71E084EA94E00E94A0256BE671E0FA
:104C30008EE994E00E94A0250E94261360939A04B6
:104C400070939B0480939C0490939D040E94261370
:104C500060939604709397048093980490939904BA
:104C60000E9426136093920470939304809394049B
:104C7000909395040E9426130E94261360938E043D
:104C800070938F04809390049093910480918D048D
:104C900080938C040E9426138AE080932A04109249
:104CA0002B0410922C0410922904E9E7F4E080E030
:104CB00081938F5F8A30E1F70E9426130E942613AA
:104CC00010921804109217041092210410922204DA
:104CD00010922404109223041092250481E0809302
:104CE000260424E431E03093160420931504109236
:104CF00000041092070410920E0410920F041092F8
:104D000010041092110480930D0480930A041092F1
:104D10000B0492E090930C048093FF038BE490E0EB
:104D200090930404809303040E94B3379093090482
:104D300080930804009709F450C02BE4FC01119201
:104D40002A95E9F789E190E09093020480930104A9
:104D50008FE090E090930604809305048091000416
:104D6000882341F061E08FE00E94F10F60E08FE066
:104D70000E94C30FEEEFFAE1E491F0E0EE0FFF1FA7
:104D8000ED51F54E85919491909313048093120404
:104D9000EAEDFAE1E491E09314040E942613609393
:104DA000FB037093FC038093FD039093FE030E942A
:104DB00026136093F7037093F8038093F90390939D
:104DC000FA030E9426130E9426130E9426130E94B3
:104DD00026130E9426130C9426131092040410929A
:104DE00003041092020410920104B2CFCF93DF9318
:104DF00000D000D000D0CDB7DEB7789484B5826003
:104E000084BD84B5816084BD85B5826085BD85B56E
:104E1000816085BD80916E00816080936E001092EC
:104E20008100809181008260809381008091810067
:104E300081608093810080918000816080938000F8
:104E40008091B10084608093B1008091B000816056
:104E50008093B00080919100826080939100809156
:104E60009100816080939100809190008160809397
:104E700090008091A10082608093A1008091A100A8
:104E800081608093A1008091A00081608093A00048
:104E900080917A00846080937A0080917A008260A9
:104EA00080937A0080917A00816080937A0080916B
:104EB0007A00806880937A001092C100209A17BE11
:104EC0000E941D1D90918D0480918C04981749F0CB
:104ED00080918D0480938C040E94261381E080933E
:104EE000CC028091CC02882359F00E9426130E94A4
:104EF00026131092CC0281E0639BA4C280932F03FF
:104F000080913003882309F47FC01092300364E15C
:104F100070E080E090E00E94F41280911D03811106
:104F200048C01092150110921401809168008860A9
:104F3000809368008091730088608093730060E0C4
:104F400085E00E94C30F64E170E080E090E00E9481
:104F5000F41260E082E00E94C30F64E170E080E040
:104F600090E00E94F41283B7817F846083BFF8943D
:104F700010927A00809164008FEF8093640080919A
:104F800065008D638093650083B7816083BF80E691
:104F900085BF80E485BF7894889583B78E7F83BF73
:104FA000809164001092640080916500827C8093FF
:104FB000650080911D03882339F18091CD02811114
:104FC00023C010921501109214011092130184E075
:104FD00080936900E99A60E085E00E94C30F64E174
:104FE00070E080E090E00E94F41260E082E00E94B5
:104FF000C30F81E08093CD028093D0028093CE02D4
:105000001092CF020E94261380912F038823D9F09B
:1050100010922F031092D00281E08093CF02109261
:10502000CE02809168008860809368008091730050
:1050300088608093730010921501109214011092F1
:10504000CD020E941D1D80911601882309F489C29A
:1050500080910201882309F471C08091D7028111E7
:1050600049C00E94261360938E0470938F0480932E
:1050700090049093910485E194E00E947B178EEA5E
:1050800098E00E94591340E060E085E194E00E94BE
:10509000A3158AEA91E00E94371884E393E10E9405
:1050A000591345E060E085E194E00E94A31560910A
:1050B0001A0370E090E080E04AE00E94C11745E0EA
:1050C00067E185E194E00E94A31582EB91E00E94E4
:1050D000371845E066E485E194E00E94A31586EB6D
:1050E00091E00E94371880EB94E00E94630E81E00B
:1050F0008093D7020E94261300918E0410918F0492
:105100002091900430919104601B710B820B930BE2
:105110006C3D75408105910588F00E9426136093CF
:105120008E0470938F048093900490939104109256
:10513000D7021092020181E08093D6028091D602BC
:10514000882309F4ABC08091D70281117DC00E94F1
:10515000261360938E0470938F0480939004909331
:10516000910485E194E00E947B1784E393E10E941F
:105170005913FF24F394F0921E048BE691E00E94F1
:105180006A1360911B0470E0681B790B7695679534
:1051900040E085E194E00E94A3156BE671E085E1B3
:1051A00094E00E949B1888EB91E00E946A138C01A6
:1051B0008FEE90E00E94591310921E0460911B0420
:1051C00070E0601B710B7695679543E085E194E094
:1051D0000E94A31568EB71E085E194E00E949B18A2
:1051E0008BE691E00E946A1360911B0470E0681BDB
:1051F000790B7695679544E085E194E00E94A315CC
:105200006BE671E085E194E00E949B188BE691E0EB
:105210000E946A1360911B0470E0681B790B7695FD
:10522000679546E085E194E00E94A3156BE671E086
:1052300085E194E00E949B18F0921E0484E393E1C0
:105240000E945913F092D7020E94261300918E04F7
:1052500010918F042091900430919104601B710B88
:10526000820B930B6433784081059105B8F00E945E
:10527000261360938E0470938F0480939004909310
:1052800091041092D702109202011092D60281E08E
:105290008093D50285E194E00E947B178091D5022E
:1052A000882309F45BC18091D70281110DC081E090
:1052B0008093D7020E94261360938E0470938F040C
:1052C00080939004909391049AE0F92E10E000E00E
:1052D00085E10E94EA11080F191FFA94F110F8CF26
:1052E000B801110F880B990B0E948A3420E030E03E
:1052F00040E251E40E94C43620E030E040EA50E44D
:105300000E94E93420E030E040E85AE30E94E934AA
:105310009B01AC010E94583620E030E048EC52E49A
:105320000E94E9340E9436374B015C0148E5841A3B
:1053300042E0940AA108B108AAE1B0E0A5019401F5
:105340000E94DC352CE231E040E050E00E94BD35A7
:10535000CA01B9010E948A346B017C018091D40298
:10536000811141C081E08093D40241E069E185E18F
:1053700094E00E94A3158EEA98E00E945913A4E6D7
:10538000B0E0A50194010E94DC352CE231E040E060
:1053900050E00E94BD35C9012536310514F084E680
:1053A00090E097FF02C090E080E00E94071886EC32
:1053B00091E00E94371820E030E0A901C701B60152
:1053C0000E946C3745E018160CF03FC069E185E19A
:1053D00094E00E94A31584E393E10E94591388ECA2
:1053E00091E00E94371820E030E0A901C701B60122
:1053F0000E94833418160CF441C00E942613809139
:10540000D10281113BC00E94261381E08093D1021A
:105410006EED71E08CE493E00E949B1810920801FD
:10542000109108011A3120F540E050E06AE070E088
:10543000812F90E00E94B00D0E9421121F5F1093F7
:105440000801EECF809330035BCD60E085E194E00E
:105450000E94A31584E393E10E94591310921E0445
:1054600080ED91E00E94371881E080931E04BBCF4D
:1054700068EE73E080E090E00E94F4120E94261330
:10548000009196041091970420919804309199040A
:10549000601B710B820B930B6F30710581059105B9
:1054A00090F10E9426136093960470939704809362
:1054B0009804909399040091D2021091D302B801FC
:1054C000012E000C880B990B0E948A349B01AC01C1
:1054D000C701B6010E946C3744E150E060E070E023
:1054E00018161CF040E050E0BA01C8010E94B00D4F
:1054F0000E9421120A31110534F40F5F1F4F1093DF
:10550000D3020093D2020E94261300918E041091C0
:105510008F042091900430919104601B710B820BD9
:10552000930B603D774081059105C0F00E942613E2
:1055300060938E0470938F048093900490939104F1
:105540001092D702109202011092D6021092D50248
:105550001092160185E194E00E947B170E94420F91
:10556000B1CC0E949F0F90932C0380932B03009744
:1055700009F060C18091100190911101019791F49F
:105580000E9426136B3071058105910558F00E9429
:1055900026132B013C0180912B0390912C03892B26
:1055A00009F029C10E942613641975098609970913
:1055B000653F71408105910508F41DC18091150179
:1055C000811110921501109214011092130185E1BE
:1055D00094E00E947B170E94691484E393E10E9487
:1055E000591310921E0440E060E085E194E00E94AF
:1055F000A31562E271E085E194E00E949B1885EEBC
:1056000091E00E9437188AEA94E00E94630E69E6EE
:1056100071E085E194E00E94B21784EA94E00E9470
:10562000630E69E671E085E194E00E94B2178EE9AD
:1056300094E00E94630E60ED77E080E090E00E94CD
:10564000F41284E393E10E94591385E194E00E94EF
:105650007B1740E060E085E194E00E94A31588EEAE
:1056600091E00E9437186091270370912803809180
:10567000290390912A034AE00E94C1176DEE71E060
:1056800085E194E00E949B1881EF91E00E94371819
:105690006091230370912403809125039091260348
:1056A0004AE00E94C11769E671E085E194E00E943A
:1056B000B21787EF91E00E943718809121039091F3
:1056C00022030E9407188EEF91E00E943718609124
:1056D0000E0170E090E080E04AE00E94C11760EDAA
:1056E00077E080E090E00E94F41280912E038150D8
:1056F00080932E0385E194E00E947B1711E01093C4
:105700001E041092200310921F030E9467188091BC
:105710002B0390912C03892B09F06DC00E94261356
:1057200064197509860997096137774181059105E3
:1057300008F461C080911E038111A8C01983BE01C5
:105740006F5F7F4F8CEF93E00E94051D42E350E0B6
:1057500060E070E084EF91E00E942D10109215013E
:1057600085E194E00E947B170E94691441E06AE0A1
:1057700085E194E00E94A31581E092E00E94371831
:1057800043E06AE085E194E00E94A3158CE092E09A
:105790000E9437188EE491E10E94591346E060E0C0
:1057A00085E194E00E94A3150DEE13E087EFE82E4B
:1057B00083E0F82EF80181918F01803120F487E990
:1057C00091E00E943718F8013197608170E090E015
:1057D00080E040E10E94C117E016F10659F784E32A
:1057E00093E10E94591360ED77E080E090E00E9421
:1057F000F4120C94000080912B0390912C03909351
:10580000110180931001E0912E03ED3008F0A6CE37
:10581000F0E0E35FF34D0C949E37482CF32C302DD1
:10582000A82DEB2D6E33763376337633763376339D
:105830007D3383330197F9F6809110019091110126
:10584000892BC9F60E9426136419750986099709E0
:105850006B3071058105910570F281E080930F0135
:1058600080912E038F5F80932E03853010F010926D
:105870002E030E94261389EF93E09A838983609117
:105880002E03CE0101960E94F61B85CE198257CFBA
:1058900080910F018823E9F11092810080917A00B4
:1058A0008F7D80937A0087E880937A0066EA85E1AD
:1058B00094E00E94761585E194E00E947B170E9497
:1058C000671881E080931501809314018093130180
:1058D00080930D011092200310921D0310921C035F
:1058E00010921B0388EA91E690930C0180930B01C0
:1058F00082E18093120143E060E085E194E00E9440
:10590000A31585E194E00E94EA150E947118109297
:105910000F010E94FF1F80911501811104C0809129
:105920001401882311F180912D038823F1F00E9446
:10593000261300919A0410919B0420919C043091AD
:105940009D04AB01BC01401B510B620B730B80919A
:10595000120190E0B0E0A0E0481759076A077B0702
:1059600020F010922D030E9469140E9426130091CA
:105970009204109193042091940430919504601B3B
:10598000710B820B930B60367A4E8105910508F4FA
:10599000E5CD8091270390912803A0912903B09130
:1059A0002A030196A11DB11D80932703909328031C
:1059B000A0932903B0932A038091EB039091EC0309
:1059C000029734F067E273E081E090E00E940F1CE0
:1059D0000E9426136093920470939304809394041E
:1059E00090939504BBCD80910F01882309F491CF4A
:1059F0001092810011E0109315011093140110937F
:105A0000130166EA85E194E00E9476150E9467180A
:105A100081E090E090930A01809309018AE08093ED
:105A2000120110920D011093200310921C0310928A
:105A30001B0310921D0341E061E085E194E00E94A8
:105A4000A31585E194E00E94EA1543E062E185E157
:105A500094E00E94A31584E192E00E94371857CF8A
:105A600080910F01882309F454CF1092810011E036
:105A700010931501109314011093130166EA85E148
:105A800094E00E9476150E94671810920D0143E081
:105A900060E085E194E00E94A31585E194E00E9416
:105AA000EA1510921F0380E197E290930C01809316
:105AB0000B0182E18093120110920D0110922003DC
:105AC00010931C0310921B0310921D0380911A0364
:105AD0008E3131F42EE130E030930A012093090138
