:100000000C94A6090C94CE090C94CE090C94CE093C
:100010000C94CE090C94CE090C94CE090C94F81DC6
:100020000C94CE090C94CE090C94CE090C94CE09F4
:100030000C94CE090C94CE090C94CE090C94CE09E4
:100040000C94E41E0C94CE090C94B21E0C948C1EDD
:100050000C94CE090C942E1F0C94CE090C94CE094E
:100060000C94CE090C94CE090C94CE090C94E21F8A
:100070000C94CE090C94CE090C94CE090C94CE09A4
:100080000C94CE090C94F61F0C94CE090C94CE0956
:100090000C94CE090C94CE090C94CE090C94CE0984
:1000A0000C94CE090C94CE090C94CE090C94CE0974
:1000B0000C94CE09AED580A83FD300408D14200209
:1000C000A1C8DA1281FFD9F1DB40A4A6AFB40019B0
:1000D00080400000030C0F30333C3FC0C3CCCFF056
:1000E000F3FCFF00000000240027002A002D000080
:1000F000901C242060080000000020000000000088
:1001000000000A0000150F15141615151414150813
:1001100000000000000000000000000000000000DF
:1001200000000018000000001700000000000000A0
:1001300000000000000000001500000000000800A2
:100140000000001400000000000E00000000160077
:10015000000000000000000000000000000000009F
:10016000000000000000000000000000000000008F
:1001700000000000000000000000000000C0F0F8D7
:10018000FC7C1C1C1C7CFCF8F8C00000000000007B
:10019000C0F0FC7C1C0400000000000000071F3FB2
:1001A0007F7C7070707C7F3F3F070080E0F8FE3FEF
:1001B0001F07010000000000000000000000000018
:1001C00000000000000000C0E0F8FE3F0F03000048
:1001D000F0FEFEFF1F0707071FFFFEFCF0000000F8
:1001E00000000000101C1F1F07030000000000009B
:1001F000010F0F1F1F1C1C1C1F1F0F0701000000F9
:1002000000000000000000000000000000000000EE
:1002100000000000000000000000000000000000DE
:1002200000000000000000000000000000000000CE
:10023000001F1F1F1F1F1F1F1F1F1F000000000088
:1002400000000000000000000000000000000000AE
:10025000C0F0F0F8F8FCFC7C7C7C7CFCFCF8F8F04E
:10026000E0C00000FFFFFFFFFFFFFF0000000000F5
:1002700000FFFFFFFFFFFFFF003FFFFFFFFFFFFF4C
:10028000C080808080C0FFFFFFFFFFFF3F000000B5
:100290000307070F0F0F0F0F0F0F0F0F0F070703A6
:1002A000010000000000000000000000000000004D
:1002B00000000000000000000000008080C0E0F0AE
:1002C000FCFCFCFCFCFCFC3F3F3F1F1F0F07FFFF3B
:1002D000FFFFFFFFFFFF00000000000000FFFFFF27
:1002E000FFFFFFFFFF000000000000000F0F0F0FD7
:1002F0000F0F0F0F000000000000000000000000C2
:1003000000000000C0E0F0F8F8FCFCFC7C7C7C7C89
:10031000FCFCFCF8F8F0E0C0000303030303030354
:100320000080C0C0E0F8FFFFFFFF7F3F0F0080C0EC
:10033000F0F8FCFEFFFFFFFFDFCFC7C7C3C1C0C09F
:10034000C0C00F0F0F0F0F0F0F0F0F0F0F0F0F0F5B
:100350000F0F0F0F0F0F0F00000000000000000034
:1003600000000000000000000000000080E0F0F845
:10037000F8FCFC7C7C3C7C7CFCFCFCF8F8F0C000CD
:100380000101010101010100F0F0F8F8FFFFFFFF9A
:10039000DF8F8700E0E0E0E0E0E0E08001010101C4
:1003A00083FFFFFFFFFFFFFF00010307070F0F0F92
:1003B0000F0F0F0F0F0F0F070703010000000000C2
:1003C000000000000000000000000000000000002D
:1003D000000000000000000080C0E0F8FCFCFCFC15
:1003E000FCFCFC0000000080C0E0F0FCFEFF7F1F72
:1003F0000F0703FFFFFFFFFFFF0000007F7F7F7FEE
:100400007F7F7D7C7C7C7C7C7CFFFFFFFFFFFF7C13
:100410007C7C000000000000000000000000000FD5
:100420000F0F0F0F0F000000000000000000000081
:1004300000000000000000000000000000000000BC
:10044000FCFCFCFCFCFCFCFCFCFCFCFCFCFCFCFCEC
:10045000FC00000000FFFFFFFFFFF878787878F8D5
:10046000F8F8F8F0E0E0800000E0E0E1E1E1E180B0
:100470000000000080FFFFFFFFFFFF7F1E00010361
:1004800007070F0F0F0F0F0F0F0F0F0F07070301B6
:10049000000000000000000000000000000000005C
:1004A0000000000000000000C0E0F0F8F8FCFC7C58
:1004B0003C3C3C7CFCFCF8F8F0E00000FEFFFFFF59
:1004C000FFFFFFE1F0787878F8F8F8F8F0E0C08006
:1004D000003FFFFFFFFFFFFFC18000000080C1FF62
:1004E000FFFFFFFFFF3E0000010307070F0F0F0F85
:1004F0000F0F0F0F0F0F0703030000000000000095
:1005000000000000000000000000000000000000EB
:10051000FCFCFCFCFCFCFCFCFCFCFCFCFCFCFCFC1B
:10052000FCFCFCFC0000000000000000C0F0F8FE35
:10053000FFFF7F1F0F0301000000000000E0FCFF31
:10054000FFFFFFFF0F01000000000000000000009F
:100550000E0F0F0F0F0F0F01000000000000000032
:10056000000000000000000000000000000000008B
:100570000000000080E0F0F8F8FCFC7C3C3C3C7C97
:10058000FCFCFCF8F8F0E080030F9FFFFFFFFFF892
:10059000F0F0F0F0FCFFFFFFFF9F0F03FEFFFFFFF7
:1005A000FFFFFF830100000183FFFFFFFFFFFFFE4E
:1005B000000307070F0F0F0F0F0F0F0F0F0F0F077E
:1005C000070701000000000000000000000000001C
:1005D000000000000000000000C0E0F0F8F8FCFCA3
:1005E0007C3C3C7C7CFCFCF8F8F0E0C0003F7FFFEA
:1005F000FFFFFFFFE0C0808080C0E0FFFFFFFFFF44
:10060000FFFE00C0C1C3C3C7C7C78707070783E191
:10061000FFFFFFFFFFFF3F00000103070F0F0F0F5A
:100620000F0F0F0F0F0F070703010000000000005E
:1006300000000000000000000000000000000000BA
:10064000000000000000000000FEFEFEFEFEFEFEB8
:10065000FEE0E0E0E0E0E0E0E00F0F0F0F0F0F0F33
:100660000F0000000000000000FCFCFCFCFCFCFC97
:10067000F8F0C080000000000000FCFCFCFCFCFC6A
:10068000FCFFFFFFFFFFFFFF7FFFFFFFFEFCF0E02F
:100690008000FFFFFFFFFFFFFFFFFFFFFFFFFFFFE8
:1006A000000001070F3F7FFFFFFFFFFFFFFFFFFF7E
:1006B000FF0F0F0F0F0F0F0F0000000000000001D1
:1006C000030F0F0F0F0F0F0F0F00000000000000AF
:1006D000000000000000000000000000000000001A
:1006E0000000E0F0F0F8F8FCFC7C7C7C7C7CFCFCFE
:1006F000FCF8F8F0E0C00000071F3F7FFFFFFFFF9E
:10070000FCFCF8F8F8F8F3F3F3E3E3C3830000F834
:10071000F8F8F8F8F8F8E1C18183838387CFFFFF09
:10072000FFFFFFFFFF7E00010307070F0F0F0F0FF3
:100730000F0F0F0F0F0F0F0707030100000000003E
:1007400000000000000000000000000000000000A9
:100750000000000000000000000000000000000099
:1007600000000000000000000000C0F0F8F8FCFCF1
:10077000FE7E7E3E3E3E7EFEFEFCFCF8F0E01EFF6E
:10078000FFFFFFFFFFF3C08080008080C0E0E0E05B
:10079000E0E0E00000010307070F0F0F0F0F0F0F3E
:1007A0000F0F0F0F07030300000000000000000000
:1007B000000000000000000000000000007C7C7CC5
:1007C0007C7C7C7C7CFEFEFEFEFEFEFEFEFFFFFFD0
:1007D000FFFFFFFFFF0F0F0F0F0F0F0F0F000000A6
:1007E0000000000000000000000000000000000009
:1007F000000000000000000000FEFEFEFEFEFEFE07
:10080000F0787C7C7EFEFEFEFEFCFCF8E0FFFFFF45
:10081000FFFFFFFF000000000000FFFFFFFFFFFFE2
:10082000FF0F0F0F0F0F0F0F0000000000000F0F42
:100830000F0F0F0F0F00000000000000000000006D
:10084000000000000000000000000000E0E0F0F008
:10085000F8F8F8000000007E7E7EFFFFFFFFFFFF3C
:10086000FF7E7E7E7E000000FFFFFFFFFFFFFF8018
:1008700080808000000003070F0F0F0F0F0F0F0F76
:100880000F00000000000000000000000000000059
:100890000000000000000000000000000000000058
:1008A0000000000000021E7EFEFEFEFEFCF0800046
:1008B000000080F8FEFEFEFEFE3E06000000010F76
:1008C0003FFFFFFFFFF8E0FCFFFFFFFF3F070000D7
:1008D0000000C0C08080C0C1E7FFFFFFFFFFFF3FF7
:1008E0000700000000000000307070F0F0F0F0F041
:1008F00070703010000000000000000000000005D3
:100900000F7C011020FF201000901C087C0180004B
:10091000000000000F0101010101010101010101BD
:10092000010101010101010F0101010101010101A9
:1009300001010101010101010101010F0101010199
:100940000101010101010101010101010101FF0199
:100950000101010101010101010101010101010187
:10096000010F010101010101010101010101010169
:1009700001010101010F0101010101010101010159
:100980000101010101010101010F0000000000004F
:100990000005072060000000000000005F0000006C
:1009A00003000300143E143E14242A7F2A1243330A
:1009B00008666136495522500005030000001C22DC
:1009C00041000041221C0014083E081408083E089B
:1009D00008005030000000000008080060600000BF
:1009E00020100804023E5149453E0004027F0042A7
:1009F0006151494622414949361814127F10274552
:100A00004545393E4949493201017109073649498D
:100A10004936264949493E00363600000056360020
:100A20000008142241001414141414004122140864
:100A300002015109063E4159555E7E0909097E7F32
:100A4000494949363E414141227F4141413E7F492A
:100A50004949417F090909013E4141493A7F080856
:100A6000087F00417F4100304040403F7F08142212
:100A7000417F404040407F020C027F7F0204087F9C
:100A80003E4141413E7F090909061E2121215E7F29
:100A900009090976264949493201017F01013F4090
:100AA00040403F1F2040201F7F2010207F41221CFC
:100AB000224107087008076151494543007F410002
:100AC0000002040810200000417F0004020102041B
:100AD0004040404040000102040020545454787FBC
:100AE000444444383844444444384444447F3854AB
:100AF00054541804047E0505085454543C7F0804DB
:100B0000047800447D40002040443D007F1028448C
:100B10000000417F40007C047804787C080404785D
:100B200038444444387C14141408081414147C0009
:100B30007C080404485454542004043F44443C407A
:100B400040207C1C2040201C3C4030403C4428106D
:100B500028440C5050503C4464544C4400083641E6
:100B60004100007F000041413608000201020402FA
:100B70007F7F7F7F7F00000A0F205F000000000062
:100B80000000000000000000000000000000000065
:100B9000000000FEFE000000000000000019190027
:100BA00000000000001E1E00001E1E0000000000CD
:100BB000000000000000000030FEFE3030FEFE307D
:100BC0000000031F1F03031F1F03000070F8D8FE5F
:100BD0009898000000000C18187F191F0F00001CC7
:100BE000B6A2F6CC60602030000101000E1B111B84
:100BF0000E00000000DC7EE6C6860C808000070F39
:100C00001C18191F1E1F13000000001E1E000000EC
:100C10000000000000000000000000000000E0FCF8
:100C20001E02000000000000073F784000000000A6
:100C300000021EFCE000000000000040783F0700BA
:100C400000000000F0FC0E86C66EFCFC06301B0F98
:100C50001F31181C0F030000808080F0F08080801E
:100C600000000101010F0F01010100000000000060
:100C70000000000000000000407C3C00000000007C
:100C80000000000000000000000000030303030355
:100C90000000000000000000000000000000000054
:100CA000001C1C0000000000000000C0F03C0E0210
:100CB000000020381E07010000000000F0FC0EC6F6
:100CC000C60EFCF80000030F1C18181C0F070000CC
:100CD000000C06FEFE00000000001818181F1F1868
:100CE000181800000C06060686C67C380000181C82
:100CF0001E1B1918181800000C06C6C6C6C6FC38FC
:100D000000000C18181818190F0F000080C0701878
:100D10000EFEFE00000003030303031F1F03000079
:100D2000FE7E666666E6C68000000C181818181C61
:100D30000F070000F0FCCE6666E6CC800000070FCF
:100D40001C18181C0F07000006060606E6FE3E0EDD
:100D5000000000101C0F03000000000038FCC6C695
:100D6000C6C6FC3800000F0F181818180F0F000027
:100D700078FCCE8686CEFCF80000000C1919191CF0
:100D80000F030000000000E0E00000000000000091
:100D9000001C1C0000000000000000E0E00000005B
:100DA00000000000407C3C00000000008080C0404B
:100DB000606020300000010103020606040C000000
:100DC00060606060606060600000060606060606FF
:100DD000060600003020606040C0808000000C04E7
:100DE00006060203010100000C0686C6667E1C0092
:100DF000000000001B1B0000000000E0F0389CCC4D
:100E0000CCDCF8F000071F387367666677270000B0
:100E100000C0FC3E3EFCC0000000181F0F03030F83
:100E20001F180000FEFEC6C6C6C6FC3C00001F1F01
:100E3000181818181F0F0000F0FC0C060606060C08
:100E40000000030F0C181818180C0000FEFE060610
:100E5000060CFCF000001F1F1818180C0F030000F0
:100E6000FEFEC6C6C6C6C60600001F1F1818181804
:100E700018180000FEFEC6C6C6C6C60600001F1F24
:100E80000000000000000000F0FC0C068686868C46
:100E90000000030F0C1819191F0F0000FEFEC0C040
:100EA000C0C0FEFE00001F1F000000001F1F00004A
:100EB000000606FEFE06060000000018181F1F1898
:100EC00018000000000000060606FEFE00000C18D8
:100ED000181818180F0F0000FEFEE0F0FC0E0602B6
:100EE00000001F1F0000030F1E180000FEFE000080
:100EF0000000000000001F1F181818181818000024
:100F0000FEFE3EF0F03EFEFE00001F1F000101004D
:100F10001F1F0000FEFE1EF0C000FEFE00001F1F8F
:100F20000000031E1F1F0000F0FC0E06060EFCF062
:100F30000000030F1C18181C0F030000FEFEC6C69D
:100F4000C6C67C7C00001F1F0000000000000000DF
:100F5000F0FC0E06060EFCF00000030F1C18183CF7
:100F60006F070000FEFEC6C6C6C6FC3C00001F1F81
:100F7000000001031F1E1000387CE6C6C6C68C00A8
:100F800000000C18181818190F0F0000060606FEAE
:100F9000FE06060600000000001F1F000000000003
:100FA000FEFE00000000FEFE0000070F1C18181CCB
:100FB0000F07000006FEFC0000FCFE06000000001B
:100FC0001F1F1F1F0000001EFEE000F0F000E0FEEB
:100FD0001E001F1F1E01011E1F1F0000020E3EF8F3
:100FE000F83E0E020000101C1F03031F1C1000021D
:100FF0000E3E78E0E0783E0E02000000001F1F0069
:1010000000000000060686C6F67E1E0E00001C1EAE
:101010001F1B1818181800000000FEFE0202000036
:10102000000000007F7F404000000000020E38E01A
:1010300080000000000000000000030E38200000C7
:10104000000202FEFE00000000000040407F7F0022
:1010500000000010181C0E060E1C181000000000E6
:101060000000000000000000000000000000000080
:1010700000404040404040404040400000010306E6
:10108000040000000000000000000000000000005C
:10109000006030B0B0B0F0E000000E1F1B19190D59
:1010A0001F1F0000FEFE60303070E0C000001F1FF8
:1010B0000C18181C0F070000C0E070303030306092
:1010C0000000070F1C181818180C0000C0E0703042
:1010D0003060FEFE0000070F1C18180C1F1F0000D8
:1010E000C0E0B0B0B0B0E0C00000070F1D19191982
:1010F000190D00003030FCFE3636360000000000CE
:101100001F1F000000000000C0E070303060F0F0F1
:10111000000003376E6C6C667F3F0000FEFE60309F
:101120003030F0E000001F1F000000001F1F000013
:10113000003030F7F700000000001818181F1F18C3
:1011400018180000003030F7F70000000000606061
:10115000607F3F0000000000FEFE80E07030100065
:1011600000001F1F0103071E181000000606FEFEE8
:1011700000000000000000000F1F181818000000F9
:10118000F0F030F0E030F0E000001F1F001F1F0003
:101190001F1F0000F0F060303030F0E000001F1F33
:1011A000000000001F1F0000C0E070303070E0C081
:1011B0000000070F1C18181C0F070000F0F060302B
:1011C0003070E0C000007F7F060C0C0E07030000AB
:1011D000C0E070303060F0F0000003070E0C0C0629
:1011E0007F7F000000F0F060303030300000001FE2
:1011F0001F00000000000000E0F0B0B0B0B03060B0
:1012000000000C191919191B1F0E00003030FCFCCE
:1012100030303000000000000F1F181818000000C8
:10122000F0F000000000F0F000000F1F1818180C7C
:101230001F1F000030F0E00000E0F030000000016F
:101240000F1E1E0F01000070F00000C0C00000F073
:101250007000071F1E03031E1F0700001030F0C0A0
:10126000C0F03010000010181E07071E18100000F4
:1012700010F0F08000F0F03000000060637F1F0F7E
:101280000100000030303030B0F070300000181C29
:101290001E1B191818180000000000FCFE020200B6
:1012A00000000001013E7E4040000000000000FE02
:1012B000FE00000000000000007F7F000000000032
:1012C000000202FEFC00000000000040407E3E01E3
:1012D0000100000080C0C0C0808080C0000001000C
:1012E0000000010101000000000000230026002989
:1012F000002C0000000008000201000003040700A9
:1013000000000000000000000000000201020408CC
:10131000102040800102040810200102040810205F
:101320000408010200000000250028002B002E0008
:10133000040404040404040402020202020203037B
:101340000303030305050505D121A72F11241FBEA3
:10135000CFEFD8E0DEBFCDBF12E0A0E0B1E0E6EA1B
:10136000FBE602C005900D92AA38B107D9F724E038
:10137000AAE8B2E001C01D92A03DB207E1F719E072
:10138000C5EAD9E004C02197FE010E94BA33C43AED
:10139000D107C9F70E9416230C94C6350C9400009F
:1013A0004F925F926F927F928F929F92AF92BF9275
:1013B000FF9220911704309118048217930708F0C8
:1013C00043C02B0166247724852E962EA72EBB249E
:1013D000B82DA42F20911D04F42C222391F0E22F8C
:1013E000F0E0E49DD001E59DB00DF49DB00D112419
:1013F000FB2E289D40011124B92D249F900111241A
:10140000A32FE091230420911E0430911F045091DA
:101410002004E51323C0FC01EE0FFF1F8E0F9F1F5A
:10142000820F931FE0912004E80FF92FF11DF08245
:10143000E0912104E80FF92FF11DB08320912204DF
:10144000820F911DFC01A083FF90BF90AF909F90F1
:101450008F907F906F905F904F900895880F991FA5
:10146000880F991F820F931FE80FF92FF11D10822B
:10147000D9CFE091FF03F09100040196880F991FE6
:10148000880F991FE80FF91FDF0114978081918160
:101490002D913C91821B930B69E070E00E94A63372
:1014A000892B11F06F5F7F4FCB010895AF92BF92F0
:1014B000CF92DF92EF92FF920F931F93CF93DF9320
:1014C0006C017B018B01040F151FEB015E01AE184F
:1014D000BF08C017D10759F06991D601ED91FC9171
:1014E0000190F081E02DC6010995892B79F7C5019E
:1014F000DF91CF911F910F91FF90EF90DF90CF90F0
:10150000BF90AF900895FC01448155816081718145
:101510008BE294E00C94560AFC01538D448D252FE8
:1015200030E0842F90E0821B930B541710F0CF967D
:10153000089501970895FC01918D828D981761F0AF
:10154000A28DAE0FBF2FB11D5D968C91928D9F5FC6
:101550009F73928F90E008958FEF9FEF0895FC01A5
:10156000918D828D981731F0828DE80FF11D858D58
:1015700090E008958FEF9FEF0895FC01918D228DEB
:10158000892F90E0805C9F4F821B91098F73992770
:10159000089582E693E00E94BD0A21E0892B09F4B8
:1015A00020E0822F0895FC01A48DA80FB92FB11D52
:1015B000A35ABF4F2C91848D90E001968F73992789
:1015C000848FA689B7892C93A089B1898C91837067
:1015D00080648C93938D848D981306C00288F38960
:1015E000E02D80818F7D80830895EF92FF920F938D
:1015F0001F93CF93DF93EC0181E0888F9B8D8C8DBF
:1016000098131AC0E889F989808185FF15C09FB7B2
:10161000F894EE89FF896083E889F9898081837075
:10162000806480839FBF81E090E0DF91CF911F9124
:101630000F91FF90EF900895F62E0B8D10E00F5F45
:101640001F4F0F731127E02E8C8D8E110CC00FB61B
:1016500007FCFACFE889F989808185FFF5CFCE01B3
:101660000E94D30AF1CFEB8DEC0FFD2FF11DE35A51
:10167000FF4FF0829FB7F8940B8FEA89FB89808136
:101680008062CFCFCF93DF93EC01888D8823B9F0B0
:10169000AA89BB89E889F9898C9185FD03C080817D
:1016A00086FD0DC00FB607FCF7CF8C9185FFF2CFFA
:1016B000808185FFEDCFCE010E94D30AE9CFDF9173
:1016C000CF91089580E090E0892B29F00E94C90A0B
:1016D00081110E94000080E090E0892B49F080E0B9
:1016E00090E0892B29F00E94000081110C940000E9
:1016F000089581508D3008F03DC0E82FF0E0ED579F
:10170000F44F0C94BA339A0B9E0B900B960BBA0BBA
:10171000BA0BA10BA70BAB0BB10BBA0BB50BBB0BE9
:10172000809180008F778093800008958091800061
:101730008F7DF9CF84B58F7784BD089584B58F7D73
:10174000FBCF8091B0008F778093B0000895809197
:10175000B0008F7DF9CF809190008F7780939000BB
:101760000895809190008F7DF9CF8091A0008F77B0
:101770008093A00008958091A0008F7DF9CFCF9332
:10178000DF93E3E0F3E18491ECE1F3E1D491E0E471
:10179000F3E1C491CC23A1F081110E94790BEC2FCD
:1017A000F0E0EE0FFF1FE951FD4EA591B491EC91D1
:1017B000ED2381E090E009F480E0DF91CF9108957E
:1017C00080E090E0FACF1F93CF93DF93282F30E093
:1017D000F901ED50FD4E8491F901E45FFC4ED49186
:1017E000F901E05DFC4EC491CC23A9F0162F8111C4
:1017F0000E94790BEC2FF0E0EE0FFF1FEC5DFC4E2A
:10180000A591B4918FB7F894EC91111108C0D095BF
:10181000DE23DC938FBFDF91CF911F910895DE2BE4
:10182000F8CFCF93DF9390E0FC01E45FFC4E24916E
:10183000805D9C4EFC0184918823C9F090E0880F64
:10184000991FFC01ED51FF4FA591B491FC01EC5D96
:10185000FC4EC591D49161110DC09FB7F8948C9145
:10186000209582238C938881282328839FBFDF9132
:10187000CF910895623051F49FB7F8943C91822F34
:10188000809583238C93E8812E2BEFCF8FB7F8942C
:10189000EC912E2B2C938FBFEACF4F925F926F92D9
:1018A0007F928F929F92AF92BF92CF92DF92EF92F0
:1018B000FF920F931F93CF938C014A015B0180919C
:1018C0001701893099F08F3F09F453C0CF911F91D0
:1018D0000F91FF90EF90DF90CF90BF90AF909F90CF
:1018E0008F907F906F905F904F900895EBE0F3E1C1
:1018F000C491C7FDEBCF61E089E00E94110C280183
:10190000712C612CCC23F1F0980150E040E0C23002
:1019100009F0E2C028013A0160E970ED83E090E04F
:101920000E94D93169017A0181E0C81AD108E10821
:10193000F10893E08FEFC816D104E104F10409F037
:101940000CF461C168E478EE81E090E0A3019201BB
:101950000E94D93169017A0181E0C81AD108E108F1
:10196000F10894E0C1114FC185B5887F836085BDC2
:10197000C8C089E080931701EBE0F3E1C4918C2F9C
:10198000CF3F09F4A3CFC23009F466C060F4CC2382
:1019900069F1C13009F442C087FD98CF61E089E068
:1019A0000E94110CB1CFC33009F478C0C430A1F744
:1019B0001092A0001092A1008091A10088608093F5
:1019C000A1008091A10081608093A100E9E3F3E18F
:1019D000E491F0E0EE0FFF1FEC5DFC4E85919491D9
:1019E000E5E1F3E1E491E093470385CF14BC15BC36
:1019F00084B5826084BD85B5816085BDE9E3F3E18E
:101A0000E491F0E0EE0FFF1FEC5DFC4E85919491A8
:101A1000E5E1F3E1E491E0934D036DCF1092800096
:101A20001092810080918100886080938100809174
:101A30008100816080938100E9E3F3E1E491F0E0CB
:101A4000EE0FFF1FEC5DFC4E85919491E5E1F3E113
:101A5000E491E0934C034FCF1092B0001092B1008C
:101A60008091B00082608093B0008091B10081606D
:101A70008093B100E9E3F3E1E491F0E0EE0FFF1FA2
:101A8000EC5DFC4E8591949190934B0380934A03B7
:101A9000E5E1F3E1E491E09349032DCF109290004A
:101AA00010929100809191008860809391008091C4
:101AB0009100816080939100E9E3F3E1E491F0E02B
:101AC000EE0FFF1FEC5DFC4E85919491E5E1F3E193
:101AD000E491E09348030FCF60E072E18AE790E081
:101AE0000E94D93169017A0181E0C81AD108E10860
:101AF000F108C13071F580918100887F8160809309
:101B00008100D801AA0FBB1FA50194010E94F831E2
:101B100028EE33E040E050E00E944232C230D1F182
:101B20000CF05AC0CC2339F1C13009F0CFCED0929D
:101B30008900C092880020935A0330935B0340933E
:101B40005C0350935D0380916F00826080936F000F
:101B5000BDCEC33039F480919100887F816080933D
:101B60009100CFCFC43069F68091A100887F816059
:101B70008093A100C6CFC7BC20935E0330935F0360
:101B8000409360035093610380916E008260809364
:101B90006E009CCEC092B30020935603309357033F
:101BA0004093580350935903809170008260809352
:101BB00070008CCED0929900C0929800209352036E
:101BC0003093530340935403509355038091710015
:101BD0008260809371007ACEC33061F3C43009F023
:101BE00075CED092A900C092A80020934E033093E6
:101BF0004F034093500350935103809172008260D1
:101C00008093720063CE8091B100887F892B80938E
:101C1000B10077CF8E50806480937C0080917A00F1
:101C2000806480937A0080917A0086FDFCCF809159
:101C300078009091790008953FB7F8948091DE0282
:101C40009091DF02A091E002B091E10226B5A89B3D
:101C500005C02F3F19F00196A11DB11D3FBFBA2F3E
:101C6000A92F982F8827BC01CD01620F711D811DFE
:101C7000911D42E0660F771F881F991F4A95D1F783
:101C800008950F931F93CF93DF93CDB7DEB72997B6
:101C90000FB6F894DEBF0FBECDBF80911E049091A9
:101CA0001F04892B09F47CC00E941C0E009124049F
:101CB00010912504209126043091270460177107A4
:101CC0008207930740F46093240470932504809363
:101CD0002604909327040091240410912504209158
:101CE000260430912704601B710B820B930B6C321E
:101CF000714081059105C0F2F8948091190490918A
:101D00001A049A838983E0911E04F0911F04DF0175
:101D100011968081898790911504E0912804F091B3
:101D2000290480912A04992309F445C09081982BB5
:101D300098879081809589238F838F818C8388E019
:101D40008B8358856F8149853B812C8189819A815C
:101D5000508347FD252F3A952083262F39F0441FC5
:101D600000C000006083000000C0F2CF38E04D9159
:101D700060830000019761F7F0932904E093280441
:101D800049873B832C839A83898378940E941C0E15
:101D90006093240470932504809326049093270471
:101DA00029960FB6F894DEBF0FBECDBFDF91CF915D
:101DB0001F910F9108959081982B9887908180951D
:101DC00089238F838F818E8388E08D8358856F81EF
:101DD00049853D812E8189819A81508347FD252F38
:101DE00000C000C0208300C000C000C000C000C010
:101DF00060830000262F3A9541F0441F000000C088
:101E000000C000C000C000C0E8CF38E04D9100C065
:101E1000608300C0019709F7F0932904E093280438
:101E200049873D832E83AFCF8F929F92AF92BF920F
:101E3000CF92DF92EF92FF924B015C010E941C0E49
:101E40006B017C010E941C0E6C197D098E099F0993
:101E5000683E734081059105A8F321E0821A91083C
:101E6000A108B10888EEC80E83E0D81EE11CF11C61
:101E700081149104A104B10429F7FF90EF90DF9041
:101E8000CF90BF90AF909F908F9008952FB7F89408
:101E90006091DA027091DB028091DC029091DD02A8
:101EA0002FBF0895CF93DF93EC018D85882329F010
:101EB00081508D87DF91CF9108959C818E819817F5
:101EC000C8F788896827E881F9810084F185E02DC9
:101ED00042E0CE0109958C818F5F8C83EBCFDC01D2
:101EE0001E96ED91FC9184913196E491982F8E2F5E
:101EF000089590933A04809339048BE294E00E9411
:101F00006F0F019719F410923404089581E08093C3
:101F100034040895CF92DF92EF92FF920F931F93B4
:101F2000CF93DF93EC0110E000E0E990EE2041F068
:101F30008091390490913A04009761F410E000E038
:101F4000C801DF91CF911F910F91FF90EF90DF902B
:101F5000CF900895FC013496C4903196E491EC142E
:101F600068F3F12CD12CEC0DFD2DF11DEE16FF06C2
:101F70002CF78BE294E00E946F0FE0913904F0910E
:101F80003A0420913C040297D0F086E0E80EF11C60
:101F9000EC18FD08EE0DFF1DE491E29FE02D1124E9
:101FA000EE2361F28091340490913C04899F802D4E
:101FB00011248E0F9927991F080F191FB6CF32963B
:101FC000EBCF4FB7F8942091D2023091D302809199
:101FD000D0029091D1024FBF4091CE02042E02C098
:101FE000359527950A94E2F702C0959587954A950D
:101FF000E2F78802C00111242202800D911D1124F4
:1020000008950E94E10F9093EF028093EE022091D9
:102010002D0330912E038217930720F090932E0307
:1020200080932D0320912D0330912E0340910401C4
:10203000509105013695279536952795240F351F24
:10204000265F3F4F8217930790F081E08093D40280
:1020500080912D0390912E039093F7028093F602C6
:102060005093F5024093F4028091D40208951092A7
:10207000D402FACF8091CD028823E1F11092CC02F4
:102080002091FC023091FD0280912B0390912C0352
:102090002817390740F08091FC029091FD0290933F
:1020A0002C0380932B0380912B0390912C03809120
:1020B0002B0390912C034091290350912A032091E6
:1020C000290330912A03E091FC02F091FD02841B68
:1020D000950B6AE070E00E949233265F3F4F620FDB
:1020E000731F81E0E617F70708F480E08093FE0293
:1020F0001092CD028091CC02811108C081E08093C2
:10210000CC0280917A00886480937A008091FE02EC
:102110000895CF93DF93D0E0C0E040E050E0BA01F3
:10212000CE010E94D0092196CA31D105B1F7DF91C5
:10213000CF910C94410ECF92DF92EF92FF920F93CA
:102140001F93CF93DF93C091B802D091B9028E0153
:10215000000F111F0C551D4FF80140815181052EB4
:10216000000C660B770BC090BA02D090BB02E090D7
:10217000BC02F090BD02C41AD50AE60AF70A81E152
:102180000E940A0EF80191838083092E000CAA0B8D
:10219000BB0BBC01CD016C0D7D1D8E1D9F1D609381
:1021A000BA027093BB028093BC029093BD02219649
:1021B000CA30D105A4F4D093B902C093B8022AE082
:1021C00030E040E050E00E94D931C901DF91CF9169
:1021D0001F910F91FF90EF90DF90CF900895109294
:1021E000B9021092B802EBCF81E080934303809153
:1021F00008014EEF5EEF6EEF70E090E00E94D009B4
:102200000E94410E0E94460F6093B0047093B10487
:102210008093B2049093B304089580E680937C0089
:1022200081E08093A30210927B008EEF80937A006E
:1022300080E090E0AAE2B5E4809325039093260322
:10224000A0932703B09328038AE89DE3A6E9B6E4A8
:102250008093210390932203A0932303B09324033C
:1022600085E394E2A0E0B0E080931D0390931E0309
:10227000A0931F03B093200385E090E09093CF02DA
:102280008093CE02089510921703109216030E94B5
:102290000D110E94460F60931104709312048093F5
:1022A0001304909314040E94460F6093F8027093F5
:1022B000F9028093FA029093FB0281E0809303017C
:1022C000109215031092020310920303109204035C
:1022D000109205038EE190E0909305018093040134
:1022E00010922E0310922D0308951F93CF93DF9326
:1022F000EC01162F61E0411101C060E08B890E9462
:10230000E30B80E58CBD81E08DBD60E08A890E9491
:10231000E30B1EBD00000DB407FEFDCF8EB561E0DE
:102320008A89DF91CF911F910C94E30BDC01ED9131
:10233000FC910084F185E02D40E009940F931F93F8
:10234000CF938C01FC016483C085C60F6C2F6F7026
:102350000E9496116C2F62956F706061C801CF91D9
:102360001F910F910C949611FC01278126952695BB
:102370002695621738F465832385620F6770606B5A
:102380000C94961108951F93CF93DF93EC01142FB3
:102390008E81681718F4CE010E949E11612FCE0124
:1023A000DF91CF911F910C94B411CF92DF92EF92F5
:1023B000FF920F931F93CF93DF93EC01F62EC42E61
:1023C000D22E1D868F81869586958695081710F0EA
:1023D0000FEF080F1D2D011780F0412F6F2DCE013B
:1023E0000E94C311EF2CCE1430F06889CE010E94F8
:1023F000520FE394F8CF1F5FEECF4D2D6F2DCE011E
:10240000DF91CF911F910F91FF90EF90DF90CF90D0
:102410000C94C3110F93DC0115962C9115971E9601
:10242000ED91FC911F9700E0309779F03396E4919D
:10243000F0E0379683E0F595E7958A95E1F75196B8
:102440000C9151970E9F002D1124EFEFE20F0E0F0C
:1024500016964C911697415014966C911497CD0195
:102460000E94D5110F9108952F923F924F925F9243
:102470006F927F928F929F92AF92BF92CF92DF9294
:10248000EF92FF920F931F93CF93DF9300D000D072
:1024900000D0CDB7DEB7FC01068517850115110503
:1024A00009F446C19E838D83F8013296649031967B
:1024B000A490EA2CF12CF7E0EF0EF11C23E0F59448
:1024C000E7942A95E1F7E982F801349684913196F0
:1024D000E491681748F0CE2ED12C9601280F311DBB
:1024E000621713060CF469C06D3031F5ED81FE8181
:1024F000868181111BC081E090E026960FB6F8948A
:10250000DEBF0FBECDBFDF91CF911F910F91FF9026
:10251000EF90DF90CF90BF90AF909F908F907F9083
:102520006F905F904F903F902F90089560E08D8165
:102530009E810E949E11DFCF6A3009F0F9C0ED81C3
:10254000FE818681882321F060E0CF010E949E11E8
:10255000ED81FE8181898E9DE02C112465816E0DB7
:102560008485882349F097819695969596958E2D2A
:10257000891B860F18162CF08D819E810E94B41144
:10258000BACFED81FE812385820F877083879E19E4
:102590009583CF010E940A12ED81FE8184858130EE
:1025A00009F0A9CF6385660F660F660F6F736287A8
:1025B0006064CF010E9496119ECF0A5F1F4FB62E16
:1025C000B81AED81FE8191858189989F802D112413
:1025D0008C83CF010E946F0F029708F06AC06E9C37
:1025E000C0016F9C900D1124B89E6001B99ED00C63
:1025F00011240C0D1D1D512CED81FE81F481FA83F7
:10260000ED81FE812580F585FB83862C912CAA2403
:10261000A394B12C312C8981381608F087C0412C45
:10262000ED81FE818189481608F079C08B8185870C
:10263000311002C0442041F0ED81FE8145814F5FA1
:102640006A81CF010E94C311D12CC12CC61408F09D
:1026500059C0F801EC0DFD1D7490552061F0EA148D
:10266000FB0449F4E72DF0E0052C02C0F595E79551
:102670000A94E2F77E2EED81FE818189823081F419
:10268000442009F43BC072948FE07822E72DF0E0FB
:10269000ED52FF4F7490672D8D819E810E94520FE5
:1026A000672D8D819E810E94520F8FEFC81AD80A24
:1026B000CDCFEA2DE77088E0582E5E1AE11101C0F7
:1026C000512CF801612C90E080E06B1431F02491E2
:1026D000820F911D63943196F8CF600E712E711C9C
:1026E000F3016490E89EF001E99EF00DF89EF00D74
:1026F0001124CE0EDF1E0C0D1D1D7ECFF72DFF7099
:102700007F2EC4CFD12CEC81DE1639F060E08D81B4
:102710009E810E94520FD394F6CF439481CF33947D
:10272000080D191DFFEFAF1ABF0A75CF622D24CF18
:1027300090E080E0E2CE0F93CF93DF93EC011B8615
:102740001A8660E40E9496110F81069506950695FB
:1027500001504E81415020E060E0CE010E94D51131
:10276000DF91CF910F910895089590E080E0089552
:10277000CF93DF93EC0188819981009711F00E943B
:102780006B34198218821D821C821B821A82DF918F
:10279000CF910895FC0180819181009711F00C94F4
:1027A0006B340895FB0101900020E9F73197AF01E8
:1027B000461B570BDC01ED91FC910280F381E02D6B
:1027C00009948F929F92AF92BF920F931F93CF93D2
:1027D000DF93CDB7DEB7A1970FB6F894DEBF0FBE7B
:1027E000CDBF19A2423008F44AE08E010F5D1F4FA1
:1027F000842E912CB12CA12CA50194010E9442326F
:10280000E62FB901CA01EA3004F5E05DD801EE9384
:102810008D01232B242B252B79F790E080E0109756
:1028200029F0BD018BE294E00E94D213A1960FB66D
:10283000F894DEBF0FBECDBFDF91CF911F910F91F6
:10284000BF90AF909F908F900895E95CDFCFCF92BB
:10285000DF92EF92FF92CF93DF936C01990FEE0816
:10286000FF08F7FE19C06DE28BE294E00E9434127B
:10287000EC0166277727CB016C197D098E099F092A
:102880004AE00E94E1138C0F9D1FDF91CF91FF90D2
:10289000EF90DF90CF9008954AE0C701B601DF9135
:1028A000CF91FF90EF90DF90CF900C94E113BC019B
:1028B0008BE294E00C94D21380910D01882351F0A7
:1028C00041E066E18BE294E00E94C31183E891E06D
:1028D0000C94571408958091350381110DC081E047
:1028E0008093350345E066E48BE294E00E94C311D7
:1028F0008EE491E00C945714089545E06CE38BE26C
:1029000094E00E94C31182E592E00C94571445E0D4
:1029100065E08BE294E00E94C31184E591E00C94A1
:1029200057148091360381111CC0809132038111AC
:102930000AC041E06CE28BE294E00E94C3118AE598
:1029400091E00E94571480913203882399F041E06E
:102950006CE38BE294E00E94C31184E691E00C9456
:10296000571441E06BE48BE294E00E94C31181E6CE
:1029700091E0E7CF08950F931F93CF93DF93EC017E
:102980000E94D2138C0169E671E0CE010E94D2133D
:10299000800F911FDF91CF911F910F9108958BE2CE
:1029A00094E00E949B1341E069E18BE294E00E9475
:1029B000C3116CE671E08BE294E00E94BB1445E029
:1029C00065E08BE294E00E94C31164E771E08BE262
:1029D00094E00C94BB14CF92DF92EF92FF920F938E
:1029E0001F93CF93DF937B01209101043091020468
:1029F00082179307F4F4880F991F880F991F20916D
:102A0000FF0330910004820F931FFC01C280D3802A
:102A1000FFEFCF16DF0669F08B01C3E0D0E0C601FF
:102A20008C1B9D0B0E94C331F80181938F0121976C
:102A3000B0F7C701DF91CF911F910F91FF90EF90F9
:102A4000DF90CF9008950C94C3310F931F93CF93D1
:102A5000DF93EC018C01060F171FC017D1079CF400
:102A6000CE010E9423158F3F61F0FC9AFD98FB98E0
:102A7000D2BDC1BD8FB7F894F999FECFFA9AF99AF1
:102A80008FBF2196EACFDF91CF911F910F910895CB
:102A90000F931F93CF93DF93EC01162F22E030E0CA
:102AA000062F0095FD9AFC98FB98D2BDC1BD10BDC4
:102AB0008FB7F894F999FECFFA9AF99A8FBFF999DE
:102AC000FECF2130310539F0CE010E94231521E0DF
:102AD00030E0802339F7DF91CF911F910F91089556
:102AE000CF93DF93EB010E94C3318883CE01DF9146
:102AF000CF910895CF93DF93EB010E94C331888378
:102B0000CE01DF91CF9108950E94B1350F931F93AD
:102B1000CF93DF93EC0188819981009759F02A8146
:102B20003B812617370730F081E0DF91CF911F916D
:102B30000F9108958B016F5F7F4F0E94F4340097CF
:102B400059F0998388831B830A832C813D81232B31
:102B500059F7FC011082E8CF80E0E7CFEF92FF92B7
:102B60000F931F93CF93DF93EC01FB01E080F18083
:102B7000E114F10411F10481158101151105A9F089
:102B80008C819D81080F191FB801CE010E94861506
:102B9000882399F0288139818C819D81B701820F2A
:102BA000931F0E94BF351D830C83CE01DF91CF910F
:102BB0001F910F91FF90EF900895CE010E94B813DE
:102BC000F4CFEF92FF920F931F93CF93DF9300D038
:102BD000CDB7DEB78C018EE289831A82F801E480DA
:102BE000F580FFEFEF1AFF0AB701C8010E948615B2
:102BF0008823C9F0F8012081318184819581BE014B
:102C00006F5F7F4F820F931F0E94BF35F801F582DF
:102C1000E482C8010F900F90DF91CF911F910F9127
:102C2000FF90EF900895C8010E94B813F2CFEF9281
:102C3000FF920F931F93CF93DF93EC017B018A01E7
:102C4000BA010E94861581110BC0CE010E94B813F3
:102C5000CE01DF91CF911F910F91FF90EF900895DA
:102C60001D830C83B701888199810E94BF35F0CF05
:102C7000EF92FF920F931F93CF93DF93CDB7DEB701
:102C800062970FB6F894DEBF0FBECDBF8C01CB01AB
:102C9000F8011182108213821282158214824AE096
:102CA0009E012F5F3F4F7901B9010E946A30F70101
:102CB00001900020E9F73197AF014E195F09B70184
:102CC000C8010E94171662960FB6F894DEBF0FBEB9
:102CD000CDBFDF91CF911F910F91FF90EF9008959D
:102CE000FB01DC0111961C921E9213961C921E92FF
:102CF000129715961C921E9214978617970749F003
:102D0000608171816115710521F0448155810C94B8
:102D1000171608950F931F93CF93DF93CDB7DEB7A8
:102D200068970FB6F894DEBF0FBECDBF8091080143
:102D3000882309F4AFC090913203992309F461C04C
:102D400009E110E09801281B310945E0429FC001CC
:102D5000439F900D11246AE070E00E94A633BC01ED
:102D6000CE0143960E94381680910801B801681B75
:102D7000710977FF02C06F5F7F4F75956795CE0130
:102D800007960E943816BE01695F7F4FCE010D96EF
:102D90000E947016CE010D960E94E115BE016D5E77
:102DA0007F4F0E94AE15BC01CE0101960E947016A5
:102DB000CE010D960E94CA13CE0107960E94CA1337
:102DC000CE0143960E94CA1341E06AE08BE294E090
:102DD0000E94C31180E891E00E945714CE01019631
:102DE0000E94830ACE0101960E94CA1368960FB60C
:102DF000F894DEBF0FBECDBFDF91CF911F910F9131
:102E0000089590913603911121C0803151F441E031
:102E100064E18BE294E00E94C31183E891E00E9498
:102E2000571441E06AE08BE294E00E94C31180E80D
:102E300091E00E9457149091080129E130E0A90126
:102E4000491B5109CA010E942714D0CF853151F482
:102E500041E069E38BE294E00E94C31184E891E0D1
:102E60000E94571441E069E18BE294E00E94C31193
:102E700080E891E00E9457142091080189E190E0D8
:102E8000821B910924E1AC01249FC001259F900D74
:102E90001124D9CF8091360341E0811112C06AE03C
:102EA0008BE294E00E94C31184E891E00E945714E1
:102EB0006091080170E090E080E04AE00E94E11338
:102EC00095CF69E18BE294E00E94C31182E891E022
:102ED0000E94571441E06DE28BE294E00E94C3111E
:102EE000E7CF0F931F93CF93DF93CDB7DEB76897EC
:102EF0000FB6F894DEBF0FBECDBF809108018823C6
:102F000009F45EC090913203992309F464C025E06E
:102F1000829FC00111246AE070E00E94A633BC01C8
:102F2000CE0143960E9438166091080170E07595B5
:102F30006795CE010D960E94381618861F821A8654
:102F400019861C861B868BE289831A828E010F5F8D
:102F50001F4FF80101900020E9F73197AF01401BA6
:102F6000510BB801CE0107960E941716BE01635F90
:102F70007F4FCE0107960E94AE150E94E115BE015B
:102F80006D5E7F4F0E94AE15BC01C8010E94701695
:102F9000CE0107960E94CA13CE010D960E94CA1355
:102FA000CE0143960E94CA1341E06AE08BE294E0AE
:102FB0000E94C311C8010E94830AC8010E94CA135B
:102FC00068960FB6F894DEBF0FBECDBFDF91CF91EC
:102FD0001F910F9108958091360341E0811112C035
:102FE0006AE08BE294E00E94C31186E891E00E94BF
:102FF00057146091080170E090E080E04AE00E9480
:10300000E113DECF69E18BE294E00E94C31186E810
:1030100091E00E9457148091080124E1829FC00131
:1030200011240E942714CCCF0C94CB31FF920F9324
:103030001F93CF93DF93EC01F62E08811981C8010D
:103040000E94C331F81621F06F2DC8010E94CB31C8
:10305000CE01DF91CF911F910F91FF9008952F9294
:103060003F924F925F926F927F928F929F92AF9218
:10307000BF92CF92DF92EF92FF920F931F93CF9365
:10308000DF9300D000D0CDB7DEB71C013B010E941A
:10309000390A7C01809101049091020428163906B6
:1030A0000CF0BCC08090FF03909000042FEF221A18
:1030B000320A220C331C220C331CF401E20DF31DE6
:1030C0004080518034E0231A3108820C931CF401B3
:1030D000A080B180C2018A199B098E199F090497AB
:1030E0000CF49CC0028113810F3F100729F4870163
:1030F0000A0D1B1D01501109680123E0C21AD108F5
:103100007C826B820C151D050CF488C0C6010E94E0
:103110002315EB81FC819191FC83EB83FFEFCF1AA8
:10312000DF0A891779F3C80105960F5F1F4F48160C
:1031300059064CF4B701C5010E942515F401008120
:1031400011810E0D1F1D17FD69C05301F4E0AF0E74
:10315000B11C6801C618D708C601860D971D9A8351
:103160008983F30161913F01CE0101960E941618F7
:103170006A147B0489F78091FF0390910004280E64
:10318000391EC8010396F101938382838081918166
:10319000E80EF91E0E191F09780117FF03C0F7E0AA
:1031A000EF0EF11C83E0F594E7948A95E1F78E2DFC
:1031B000880F880F880F081B94E0892E912C6FEFE1
:1031C00027E0C22ED12CAA24A394B12CC601801BC7
:1031D0009109950102C0220F331F8A95E2F7C901B8
:1031E000809568230F5F083060F0F1018081918144
:1031F0008E0D9F1D0E944815FFEFEF1AFF0A6FEF1B
:1032000000E021E0821A910809F76F3F39F0F101DF
:10321000808191818E0D9F1D0E9448150F900F9007
:103220000F900F90DF91CF911F910F91FF90EF9032
:10323000DF90CF90BF90AF909F908F907F906F90D6
:103240005F904F903F902F9008950F931F93CF93CF
:10325000DF9300D0CDB7DEB78B019A838983FB0162
:103260006081CE0101960E941618C8010F900F9040
:10327000DF91CF911F910F9108952F923F924F921E
:103280005F926F927F928F929F92AF92BF92CF92F6
:10329000DF92EF92FF920F931F93CF93DF9300D0B3
:1032A00000D01F92CDB7DEB7109215011092140115
:1032B0001092130161E082E00E94110C61E085E050
:1032C0000E94110C61E082E00E94E30B80910E01EC
:1032D00081508A3018F084E080930E0180911B04A5
:1032E00090911C0497FD08C061E00E94110C60E001
:1032F00080911B040E94E30B81E08093160462E33B
:1033000070E080E090E00E94140F61E085E00E9490
:10331000E30B61E089E00E94110C62E080E10E9411
:10332000110C0E94891082E090E090930204809337
:1033300001048CE090E00E94CF33FC0190930004E4
:103340008093FF0381E090E09183808382EE91E09F
:103350009583848383EC93E09187808790E080E07D
:103360000E9423158D831A82198263E0CE01019693
:103370000E941618F12CE12CD12CC12C0091FF03D6
:10338000109100040E0D1F1D809101049091020404
:10339000C816D9060CF087C0C6010E94390A1C0164
:1033A0002D81233031F0BC01F801808191810E9490
:1033B00025158091FF03909100049C012E0D3F1D67
:1033C0003C832B83F901A080B1802A0C3B1C210196
:1033D000F1E04F1A5108320145018FEF0FEF1FEF57
:1033E00068147904DCF0830108191909159507950B
:1033F000080D191DC8010E9423159FEF980F9E3FCD
:10340000C8F0811105C048012FEF821A920AE8CF57
:10341000380131E0631A71088FEFE2CF811117C0D4
:10342000041515053CF40F5F1F4FC8010E942315BA
:103430008823B1F3C8010E94231527E030E091E012
:10344000482F4923A1F0990F21503109F9CF0A15CE
:103450001B053CF001501109C8010E9423158F3F44
:10346000B1F30415150534F70F5F1F4FE3CF0A19A9
:103470001B0993E0000F111F9A95E1F7020F131F2C
:103480000F3F100769F0020D131DEB81FC811383C0
:103490000283FFEFCF1ADF0A24E0E20EF11C6ECFA9
:1034A0000FEF1FEFF2CF8FEF9FEFF801938382832F
:1034B00064E373E08CEF93E00E947A158DEF93E064
:1034C0000E94C331809337038EEF93E00E94C33193
:1034D000809338031982BE016F5F7F4F8BEF93E0BB
:1034E0000E94251968ED72E08BEF93E00E947A1537
:1034F00069E373E090E080E00E94EB14809139036F
:1035000090913A03A0913B03B0913C030196A11D19
:10351000B11D8093390390933A03A0933B03B0937A
:103520003C0380910104909102041816190634F4AA
:1035300069E373E090E080E00E942F186DE373E090
:1035400081E090E00E94EB148FEF93E00E9423153E
:103550008E3141F08851823028F069E18FEF93E09D
:103560000E9414188CEF93E00E942315823028F0FB
:1035700060E08CEF93E00E9414180E94BF0B892B2F
:1035800089F48FEF93E00E9423156EE1893131F0C9
:1035900068E18E3119F0883129F469E18FEF93E009
:1035A0000E94141860E373E08FEF93E00E9470159F
:1035B00064E473E089EF93E00E9470158091440306
:1035C000853010F01092440364E170E080E090E0F8
:1035D0000E94140FF89480916800886080936800BE
:1035E00080917300886080937300789461E08AE032
:1035F0000E94110C60E08AE00E94E30B6AE070E038
:1036000080E090E00E94140F61E08AE00E94E30BEA
:103610006AE070E080E090E00E94140F87E1809300
:103620003D0486E180933E0461E087E10E94110C35
:1036300061E080913E040E94110C1FB7F8948091C4
:10364000D502811127C0EAE3F3E18491E6E1F3E1D9
:103650009491E82FF0E0EE0FFF1FED51FF4FA59181
:10366000B491EC91E92321F461E08AE00E94E30B3C
:1036700061E08AE00E94110C8CB580618CBD8CB534
:1036800080648CBD61E08DE00E94110C61E08BE0F4
:103690000E94110C8091D5028F5F8093D5021FBFCD
:1036A00010922F0410923004EDECF0E0C590D4900D
:1036B000EFECF0E0F490E0EDF0E0E491E093310421
:1036C000E1EDF0E0E491E0933204E2EDF0E0E4912A
:1036D000E093330410E000E00F1558F4F801EC0D0E
:1036E000FD1D64918BE294E00E9496110F5F1F4FC5
:1036F000F3CF8BE294E00E949B136BED8BE294E09E
:103700000E94961160E78BE294E00E94961161E8B6
:103710008BE294E00E9496116FEF8BE294E00E949E
:10372000961162E370E080E090E00E94140F85E75C
:103730009BE00E94790F81E0809316018093020143
:103740001092ED021092EC021092EB021092E7023E
:103750001092EA020E94460F6093AC047093AD048D
:103760008093AE049093AF041092E9021092E802A5
:1037700080917A008F7D80937A0087E880937A0029
:1037800061E087E00E94110C61E087E00E94E30B9A
:10379000F894109290008AE08093910082E08093E8
:1037A000710080913003883151F481EC92EA90935A
:1037B0009900809398009093D7028093D6028091CD
:1037C0003003893151F48FE39CE990939900809301
:1037D00098009093D7028093D602809130038E3167
:1037E00051F484E392E89093990080939800909329
:1037F000D7028093D602789482E090E090930A01F9
:10380000809309011092810081E080930F010F9055
:103810000F900F900F900F90DF91CF911F910F910C
:10382000FF90EF90DF90CF90BF90AF909F908F90E0
:103830007F906F905F904F903F902F9008950F93DF
:103840001F93CF938091CB02882391F01092CB02EB
:103850001092CA021092C902109235030E941C0EE7
:103860006093C5027093C6028093C7029093C8020A
:103870008091080181115AC08091CA02811128C02B
:1038800080913403811109C080913603811105C0F4
:1038900067EA8BE294E00E9496118091C90281113F
:1038A00012C081E08093C90280913203882309F419
:1038B00087C141E06AE28BE294E00E94C31187E98C
:1038C00091E00E9457140E948A1681E08093CA02F8
:1038D0000E941C0E0091C5021091C6022091C702E1
:1038E0003091C802AB01BC01401B510B620B730B42
:1038F00080910B0190910C01092E000CAA0BBB0BBF
:10390000481759076A077B0788F00E941C0E6093CE
:10391000C5027093C6028093C7029093C8020E94AA
:103920005C1466EA8BE294E00E9496118091080193
:10393000813061F49091CA02911108C08093CA024B
:103940000E946B140E9491140E94711780910801CB
:1039500081508C3090F58091CA02811105C081E0C0
:103960008093CA020E9471170E941C0E0091C5022A
:103970001091C6022091C7023091C802AB01BC0170
:10398000401B510B620B730B80910B0190910C014A
:10399000092E000CAA0BBB0B481759076A077B07B7
:1039A00060F00E941C0E6093C5027093C602809363
:1039B000C7029093C8020E945C14809108018C3069
:1039C00009F055C080913103882309F450C08091DB
:1039D000C40281114CC043E06EE18BE294E00E948E
:1039E000C3118BE294E00E940A128EE891E00E94DB
:1039F00057148091BE02811117C00E94123023E13A
:103A000030E040E050E00E94D9316F5F7F4F8F4F30
:103A10009F4F6093C0027093C1028093C202909343
:103A2000C30281E08093BE028091090190910A0156
:103A300090930701809306018091C0029091C1028A
:103A4000880F991F90930A018093090181E0809368
:103A5000C40290910801292F30E09C5040E050E0D2
:103A6000BA019D3008F0B5C0C9010E94D00980910B
:103A700008018D3009F061C080913103882381F005
:103A800082E090E090930A018093090143E060E0B6
:103A90008BE294E00E94C3118BE294E00E940A1230
:103AA0008091CA02811111C081E08093CA021092F4
:103AB000350345E066E48BE294E00E94C3118BE29B
:103AC00094E00E940A120E947D140E949B102AE931
:103AD00030E0DC010E94C833653D7E4F8F4F9F4F21
:103AE0000CF47DC00E949B102AE930E0DC010E94AA
:103AF000C833643A754B810591050CF073C00E9480
:103B00009B102AE930E0DC010E94C8332CE231E04E
:103B100040E050E00E94D9312C593F4F4F4F5F4F4A
:103B200030930101209300010E949B108B3892403A
:103B30000CF45BC081E08093BF02809108018E305D
:103B400011F41092C4028D508C30B0F58091CA02ED
:103B5000811107C0C1E0C093CA020E948A16C093B7
:103B6000CA020E941C0E0091C5021091C60220914B
:103B7000C7023091C802AB01BC01401B510B620B64
:103B8000730B80910B0190910C01092E000CAA0B74
:103B9000BB0B481759076A077B0760F00E941C0E91
:103BA0006093C5027093C6028093C7029093C802C7
:103BB0000E945C141092BE02CF911F910F91089544
:103BC00045E066E48BE294E00E94C31188E891E04E
:103BD00078CEC9010E94D0090E94410E48CF24E648
:103BE00030E09ECF2EEF30E09BCF1092BF02A5CFEA
:103BF0001F920F920FB60F9211242F933F934F9362
:103C00005F936F937F938F939F93AF93BF93EF9344
:103C1000FF938091560390915703A0915803B09160
:103C20005903892B8A2B8B2BD1F190914903E09179
:103C30004A03F0914B03808189278083809156034A
:103C400090915703A0915803B09159031816190683
:103C50001A061B069CF48091560390915703A0917D
:103C60005803B09159030197A109B10980935603F4
:103C700090935703A0935803B0935903FF91EF918A
:103C8000BF91AF919F918F917F916F915F914F9174
:103C90003F912F910F900FBE0F901F90189580911C
:103CA0001701EBE0F3E1E4919FEF90931701E2300D
:103CB000E1F040F4EE2381F0E13089F060E00E9411
:103CC000E30BDCCFE33011F1E430C1F790917200E7
:103CD0009D7F90937200F2CF10926E00EFCF909183
:103CE0006F009D7F90936F00E9CF909170009D7F52
:103CF0009093700091E09093B0009091B100987F04
:103D000094609093B1001092B300D8CF909171005D
:103D10009D7F90937100D2CF1F920F920FB60F929A
:103D200011242F933F934F935F936F937F938F93C0
:103D30009F93AF93BF93EF93FF9382E693E00E942C
:103D4000D30AFF91EF91BF91AF919F918F917F9196
:103D50006F915F914F913F912F910F900FBE0F90F8
:103D60001F9018951F920F920FB60F9211242F9348
:103D70008F939F93EF93FF93E0917203F0917303FE
:103D80008081E0917803F091790382FD1BC09081DE
:103D900080917B038F5F8F7320917C03821741F0AA
:103DA000E0917B03F0E0EE59FC4F958F80937B030D
:103DB000FF91EF919F918F912F910F900FBE0F90D8
:103DC0001F9018958081F4CF1F920F920FB60F921B
:103DD00011242F933F938F939F93AF93BF93809121
:103DE000DA029091DB02A091DC02B091DD02309109
:103DF000D90223E0230F2D3758F50196A11DB11DDF
:103E00002093D9028093DA029093DB02A093DC0224
:103E1000B093DD028091DE029091DF02A091E0027A
:103E2000B091E1020196A11DB11D8093DE02909335
:103E3000DF02A093E002B093E102BF91AF919F91A6
:103E40008F913F912F910F900FBE0F901F9018955B
:103E500026E8230F0296A11DB11DD2CF1F920F920B
:103E60000FB60F9211242F933F934F935F936F934D
:103E70008F939F93AF93BF93EF93FF938091030131
:103E8000882309F46DC08091A302882309F495C0AA
:103E9000809179008455990B9093A2028093A1029E
:103EA0002091A1023091A20240910E01429FC001D7
:103EB000439F900D11249093A2028093A1028091C0
:103EC0001D0390911E03A0911F03B0912003409108
:103ED0009F025091A002480F591F5093A002409397
:103EE0009F022091A1023091A20257FF02C02095AB
:103EF00030958091A1029091A20240E4450F47FFC6
:103F000002C0809590954091D2025091D302609169
:103F1000CE02E091D202F091D302062E02C0559556
:103F200047950A94E2F7241B350B2E0F3F1F309361
:103F3000D3022093D2022091D0023091D10240913D
:103F4000D0025091D10202C0359527956A95E2F7CB
:103F5000821B930B840F951F9093D1028093D00204
:103F6000809115038823C9F09091780080917900A1
:103F70008927982789279093FD028093FC0281E08E
:103F80008093CD028091FC029091FD028E3F934080
:103F900024F01092FD021092FC02FF91EF91BF916C
:103FA000AF919F918F916F915F914F913F912F9121
:103FB0000F900FBE0F901F90189580917900805838
:103FC000990B79CF1F920F920FB60F9211248F93F6
:103FD0009F938091A30491E089278093A3049F91EC
:103FE0008F910F900FBE0F901F9018951F920F92F8
:103FF0000FB60F921124CF92DF92EF92FF920F93A0
:104000001F932F933F934F935F936F937F938F9360
:104010009F93AF93BF93EF93FF938091FF02909193
:1040200000030196909300038093FF0280919D020C
:1040300090919E02019690939E0280939D02209102
:10404000FF02309100038091090190910A01281725
:10405000390708F448C180910801109200031092BA
:10406000FF0291E09093CB028F5F893108F064C129
:104070008093080180910801811152C085B191E0BF
:10408000892785B910929C0210929B02809113019E
:104090008823E1F00E94460F60930C0370930D0398
:1040A00080930E0390930F0348E050E060E070E0CF
:1040B00080EA9AE00E944D0C0E941C0E60939702C9
:1040C000709398028093990290939A0280911401C0
:1040D000882331F180913403882309F430C1809121
:1040E000360381112CC181E08093430310E000E08E
:1040F00044E654E664E670E0C8010E94D0090F5F10
:104100001F4F0A311105A1F70E94410E0E94460F70
:104110006093B0047093B1048093B2049093B3049D
:10412000809108018C3011F580913103811126C1F5
:104130008091090190910A019093070180930601F3
:10414000809130038E3151F4809136038111FAC091
:104150008CE090E090930A018093090180913003F4
:10416000883109F00BC18DE080930801809108012E
:104170008D3009F061C02091060130910701309324
:104180000A0120930901909130039931D9F490915B
:10419000E60220913703309138034091D6025091C6
:1041A000D702992309F4D1C037FF02C021583F4FED
:1041B000220F232F221F330B240F351F309399001A
:1041C00020939800909130039E31C9F420913703D9
:1041D000309138034091D6025091D70237FF02C088
:1041E000295F3F4FA3E035952795AA95E1F74C5EEF
:1041F0005F4F240F351F30939900209398009091C2
:1042000030039831C9F4209137033091380340913D
:10421000D6025091D70237FF02C0295F3F4FF3E02B
:1042200035952795FA95E1F7405E5F4F240F351FCE
:10423000309399002093980090911501992309F4E7
:1042400052C09FEF980F9C30A0F491E090934303ED
:104250009091BF02992309F482C00E94F4100E9439
:10426000460F6093B0047093B1048093B2049093AE
:10427000B304809108018C3039F4909130039E3161
:1042800019F491E09093960293EF980F9D3058F5B2
:1042900040910001C42ED12CF12CE12CB601552700
:1042A000442790E02091BF02222361F03E2D2D2D66
:1042B0001C2D0027402B512B622B732B4C295D2981
:1042C0006E297F290E94D0090E94410E81E08093CF
:1042D00043030E94460F6093B0047093B10480932F
:1042E000B2049093B304809108018D3071F48091F1
:1042F000FF0290910003019741F48091D6029091C2
:10430000D7029093990080939800FF91EF91BF910D
:10431000AF919F918F917F916F915F914F913F915D
:104320002F911F910F91FF90EF90DF90CF900F9002
:104330000FBE0F901F901895109208019BCE0E94FF
:10434000F410EECE86E090E005CF37FF02C0295F83
:104350003F4FB3E035952795BA95E1F72DCF4091C2
:10436000000150E070E060E0762F652F542F442765
:1043700090E00E94D0090E94410E71CF8CE05CCF8A
:10438000FC01118210821382128215821482FB01B9
:1043900001900020E9F73197AF01461B570B0C94B1
:1043A0001716109265031092640388EE93E0A0E064
:1043B000B0E08093660390936703A0936803B09383
:1043C000690382E391E0909363038093620385EC39
:1043D00090E090936F0380936E0384EC90E0909351
:1043E00071038093700380EC90E09093730380934B
:1043F000720381EC90E0909375038093740382ECD8
:1044000090E0909377038093760386EC90E090930E
:1044100079038093780310927B0310927C031092AF
:104420007D0310927E031092020410920104A3E017
:10443000B4E0EEE0F0E091E29093570084918D9328
:104440003196E831F105C1F764E971E086EC94E05A
:104450000E94C02169E971E080EC94E00E94C021D3
:1044600064EA71E08AEB94E00E94C0216BE671E09F
:1044700084EB94E00E94C0210E94460F6093B00438
:104480007093B1048093B2049093B3040E94460FDA
:104490006093AC047093AD048093AE049093AF042A
:1044A0000E94460F6093A8047093A9048093AA0405
:1044B0009093AB040E94460F0E94460F6093A404A1
:1044C0007093A5048093A6049093A7048091A304FD
:1044D0008093A2040E94460F8AE0809340041092C9
:1044E00041041092420410923F04EFE8F4E080E0AF
:1044F00081938F5F8A30E1F70E94460F0E94460F3A
:1045000010922E0410922D04109237041092380449
:1045100010923A041092390410923B0481E0809387
:104520003C0424E431E030932C0420932B041092BB
:10453000160410921D041092240410922504109267
:104540002604109227048093230480932004109261
:10455000210492E090932204809315048BE490E070
:1045600090931A04809319040E94CF3390931F04F0
:1045700080931E04009709F450C02BE4FC011192B3
:104580002A95E9F789E190E0909318048093170445
:104590008FE090E090931C0480931B04809116049C
:1045A000882341F061E08FE00E94110C60E08FE011
:1045B0000E94E30BEFE3F3E1E491F0E0EE0FFF1F65
:1045C000EC5DFC4E8591949190932904809328048E
:1045D000EBE1F3E1E491E0932A040E94460F60933B
:1045E00011047093120480931304909314040E9496
:1045F000460F60930D0470930E0480930F04909304
:1046000010040E94460F0E94460F0E94460F0E940F
:10461000460F0E94460F0C94460F10921A041092F7
:1046200019041092180410921704B2CFCF93DF939D
:1046300000D000D000D0CDB7DEB7789484B58260CA
:1046400084BD84B5816084BD85B5826085BD85B536
:10465000816085BD80916E00816080936E001092B4
:10466000810080918100826080938100809181002F
:1046700081608093810080918000816080938000C0
:104680008091B10084608093B1008091B00081601E
:104690008093B0008091910082608093910080911E
:1046A000910081608093910080919000816080935F
:1046B00090008091A10082608093A1008091A10070
:1046C00081608093A1008091A00081608093A00010
:1046D00080917A00846080937A0080917A00826071
:1046E00080937A0080917A00816080937A00809133
:1046F0007A00806880937A001092C100209A17BED9
:104700000E943D199091A3048091A204981749F04A
:104710008091A3048093A2040E94460F81E08093BD
:10472000E2028091E202882359F00E94460F0E9423
:10473000460F1092E20281E0639BA0C28093450382
:1047400080914603882309F47FC01092460364E1F8
:1047500070E080E090E00E94140F8091330381119B
:1047600048C0109215011092140180916800886071
:10477000809368008091730088608093730060E08C
:1047800085E00E94E30B64E170E080E090E00E942D
:10479000140F60E082E00E94E30B64E170E080E0CF
:1047A00090E00E94140F83B7817F846083BFF894E8
:1047B00010927A00809164008FEF80936400809162
:1047C00065008D638093650083B7816083BF80E659
:1047D00085BF80E485BF7894889583B78E7F83BF3B
:1047E000809164001092640080916500827C8093C7
:1047F000650080913303882339F18091E3028111B0
:1048000023C010921501109214011092130184E03C
:1048100080936900E99A60E085E00E94E30B64E11F
:1048200070E080E090E00E94140F60E082E00E945F
:10483000E30B81E08093E3028093E6028093E4023D
:104840001092E5020E94460F809145038823D9F01B
:10485000109245031092E60281E08093E5021092E7
:10486000E402809168008860809368008091730002
:1048700088608093730010921501109214011092B9
:10488000E3020E943D1980911601882309F485C234
:1048900080910201882309F471C08091ED02811199
:1048A00049C00E94460F6093A4047093A5048093AE
:1048B000A6049093A7048BE294E00E949B138FEED2
:1048C00090E00E94790F40E060E08BE294E00E946B
:1048D000C31181EB91E00E94571485E79BE00E9491
:1048E000790F45E060E08BE294E00E94C311609193
:1048F000300370E090E080E04AE00E94E11345E080
:1049000067E18BE294E00E94C31189EB91E00E9481
:10491000571445E066E48BE294E00E94C3118DEBEE
:1049200091E00E94571486EC94E00E94830A81E093
:104930008093ED020E94460F0091A4041091A504FB
:104940002091A6043091A704601B710B820B930B7E
:104950006C3D75408105910588F00E94460F60937B
:10496000A4047093A5048093A6049093A7041092C6
:10497000ED021092020181E08093EC028091EC0242
:10498000882309F4A7C08091ED02811179C00E94AB
:10499000460F6093A4047093A5048093A60490939B
:1049A000A7048BE294E00E949B1385E79BE00E94A2
:1049B000790F11E01093340484EA91E00E948A0F89
:1049C0006091310470E0681B790B7695679540E043
:1049D0008BE294E00E94C31164EA71E08BE294E000
:1049E0000E94BB14109234048FEB91E00E948A0F56
:1049F0006091310470E0681B790B7695679542E011
:104A00008BE294E00E94C3116FEB71E08BE294E0C3
:104A10000E94BB14109234048CEC91E00E948A0F27
:104A20006091310470E0681B790B7695679544E0DE
:104A30008BE294E00E94C3116CEC71E08BE294E095
:104A40000E94BB1480ED91E00E948A0F60913104B6
:104A500070E0681B790B7695679546E08BE294E0F1
:104A60000E94C31160ED71E08BE294E00E94BB14E0
:104A70001093340485E79BE00E94790F1093ED02B8
:104A80000E94460F0091A4041091A5042091A60451
:104A90003091A704601B710B820B930B6433784039
:104AA00081059105B8F00E94460F6093A4047093AD
:104AB000A5048093A6049093A7041092ED0210928F
:104AC00002011092EC0281E08093EB028BE294E011
:104AD0000E949B138091EB02882309F45BC18091B3
:104AE000ED0281110DC081E08093ED020E94460F1E
:104AF0006093A4047093A5048093A6049093A704E4
:104B00009AE0F92E10E000E085E10E940A0E080FFD
:104B1000191FFA94F110F8CFB801110F880B990BF7
:104B20000E94A63020E030E040E251E40E94E032F2
:104B300020E030E040EA50E40E94053120E030E01F
:104B400040E85AE30E9405319B01AC010E94743297
:104B500020E030E048EC52E40E9405310E945233DC
:104B60004B015C0148E5841A42E0940AA108B108AF
:104B7000AAE1B0E0A50194010E94F8312CE231E0F5
:104B800040E050E00E94D931CA01B9010E94A6302C
:104B90006B017C018091EA02811141C081E0809328
:104BA000EA0241E069E18BE294E00E94C3118FEEDA
:104BB00090E00E94790FA4E6B0E0A50194010E9464
:104BC000F8312CE231E040E050E00E94D931C901D7
:104BD0002536310514F084E690E097FF02C090E09E
:104BE00080E00E9427148DED91E00E94571420E090
:104BF00030E0A901C701B6010E94883345E01816CC
:104C00000CF03FC069E18BE294E00E94C31185E79C
:104C10009BE00E94790F8FED91E00E94571420E0F5
:104C200030E0A901C701B6010E949F3018160CF4AC
:104C300041C00E94460F8091E70281113BC00E9453
:104C4000460F81E08093E70265EF71E082E693E032
:104C50000E94BB1410920801109108011A3120F52E
:104C600040E050E06AE070E0812F90E00E94D009BF
:104C70000E94410E1F5F10930801EECF8093460300
:104C80005FCD60E08BE294E00E94C31185E79BE07A
:104C90000E94790F1092340487EE91E00E9457141D
:104CA00081E080933404BBCF68EE73E080E090E055
:104CB0000E94140F0E94460F0091AC041091AD04A5
:104CC0002091AE043091AF04601B710B820B930BEB
:104CD0006F3071058105910590F10E94460F609338
:104CE000AC047093AD048093AE049093AF04009134
:104CF000E8021091E902B801012E000C880B990B13
:104D00000E94A6309B01AC01C701B6010E94883306
:104D100044E150E060E070E018161CF040E050E024
:104D2000BA01C8010E94D0090E94410E0A31110542
:104D300034F40F5F1F4F1093E9020093E8020E94C2
:104D4000460F0091A4041091A5042091A60430916F
:104D5000A704601B710B820B930B603D77408105AC
:104D60009105C0F00E94460F6093A4047093A504BF
:104D70008093A6049093A7041092ED021092020172
:104D80001092EC021092EB02109216018BE294E06A
:104D90000E949B130E94620BB5CC0E94BF0B9093A4
:104DA000420380934103009709F060C18091100194
:104DB00090911101019791F40E94460F6B3071059B
:104DC0008105910558F00E94460F2B013C0180910E
:104DD000410390914203892B09F029C10E94460F9B
:104DE0006419750986099709653F71408105910528
:104DF00008F41DC1809115018111109215011092C6
:104E00001401109213018BE294E00E949B130E9404
:104E1000891085E79BE00E94790F1092340440E0EE
:104E200060E08BE294E00E94C31162E271E08BE2E9
:104E300094E00E94BB148CEF91E00E94571480EC28
:104E400094E00E94830A69E671E08BE294E00E949C
:104E5000D2138AEB94E00E94830A69E671E08BE248
:104E600094E00E94D21384EB94E00E94830A60EDE8
:104E700077E080E090E00E94140F85E79BE00E94BD
:104E8000790F8BE294E00E949B1340E060E08BE29C
:104E900094E00E94C3118FEF91E00E94571460913B
:104EA0003D0370913E0380913F03909140034AE09F
:104EB0000E94E11364E072E08BE294E00E94BB1474
:104EC00088E092E00E9457146091390370913A0390
:104ED00080913B0390913C034AE00E94E11369E614
:104EE00071E08BE294E00E94D2138EE092E00E9487
:104EF000571480913703909138030E94271485E15D
:104F000092E00E94571460910E0170E090E080E002
:104F10004AE00E94E11360ED77E080E090E00E94BB
:104F2000140F809144038150809344038BE294E0FA
:104F30000E949B1311E010933404109236031092D8
:104F400035030E9487148091410390914203892B7D
:104F500009F06DC00E94460F64197509860997090A
:104F6000613777418105910508F461C08091340370
:104F70008111A8C01983BE016F5F7F4F8CEF93E052
:104F80000E94251942E350E060E070E084EF91E078
:104F90000E944D0C109215018BE294E00E949B132D
:104FA0000E94891041E06AE08BE294E00E94C31104
:104FB00088E192E00E94571443E06AE08BE294E0BB
:104FC0000E94C31183E292E00E9457148FE899E097
:104FD0000E94790F46E060E08BE294E00E94C311EA
:104FE00003E014E08DE0E82E84E0F82EF8018191D2
:104FF0008F01803120F487E991E00E945714F80175
:105000003197608170E090E080E040E10E94E11320
:10501000E016F10659F785E79BE00E94790F60EDF5
:1050200077E080E090E00E94140F0C9400008091E3
:105030004103909142039093110180931001E091FC
:105040004403ED3008F0A6CEF0E0E75DF74D0C9498
:10505000BA3364280F294C29C429072A8A2F922F92
:10506000922F922F922F922F992F9F2F0197F9F61F
:105070008091100190911101892BC9F60E94460F71
:1050800064197509860997096B30710581059105C9
:1050900070F281E080930F01809144038F5F8093D1
:1050A0004403853010F0109244030E94460F89EFAC
:1050B00093E09A83898360914403CE0101960E9414
:1050C000161885CE198257CF80910F018823E9F1F8
:1050D0001092810080917A008F7D80937A0087E81A
:1050E00080937A0066EA8BE294E00E9496118BE24C
:1050F00094E00E949B130E94871481E08093150125
:10510000809314018093130180930D011092360354
:1051100010923303109232031092310388EA91E621
:1051200090930C0180930B0182E18093120143E084
:1051300060E08BE294E00E94C3118BE294E00E9455
:105140000A120E94911410920F010E941F1C80915C
:105150001501811104C080911401882311F18091FF
:1051600043038823F1F00E94460F0091B004109190
:10517000B1042091B2043091B304AB01BC01401BD7
:10518000510B620B730B8091120190E0B0E0A0E034
:10519000481759076A077B0720F0109243030E94C3
:1051A00089100E94460F0091A8041091A904209133
:1051B000AA043091AB04601B710B820B930B603619
:1051C0007A4E8105910508F4E5CD80913D039091DB
:1051D0003E03A0913F03B09140030196A11DB11D74
:1051E00080933D0390933E03A0933F03B09340030D
:1051F0008091010490910204029734F06DE373E012
:1052000081E090E00E942F180E94460F6093A8044E
:105210007093A9048093AA049093AB04BBCD8091B2
:105220000F01882309F491CF1092810011E01093AF
:105230001501109314011093130166EA8BE294E0B8
:105240000E9496110E94871481E090E090930A01D9
:10525000809309018AE08093120110920D0110934E
:10526000360310923203109231031092330341E05F
:1052700061E08BE294E00E94C3118BE294E00E9413
:105280000A1243E062E18BE294E00E94C3118BE2D8
:1052900092E00E94571457CF80910F01882309F4A0
:1052A00054CF1092810011E0109315011093140156
:1052B0001093130166EA8BE294E00E9496110E941B
:1052C000871410920D0143E060E08BE294E00E94AD
:1052D000C3118BE294E00E940A121092350380E120
:1052E00097E290930C0180930B0182E1809312016D
:1052F00010920D0110923603109332031092310375
:1053000010923303809130038E3131F42EE130E07E
:1053100030930A012093090180913003883171F59F
:1053200088E190E090930A018093090141E061E0F7
:105330008BE294E00E94C3118BE294E00E940A1277
:1053400043E063E28BE294E00E94C31184E392E0C5
:105350000E94571445E065E08BE294E00E94C3117F
:1053600089E392E00E9457140E94911480910801F1
:105370008D508C3030F40E947D14E5CE89E190E0B0
:10538000D1CF0E946B14DFCE80910F01882309F4E6
:10539000DCCE1092810011E01093150110931401DE
:1053A0001093130166EA8BE294E00E9496110E942A
:1053B000871443E060E08BE294E00E94C3118BE22B
:1053C00094E00E940A1288EA91E690930C0180937F
:1053D0000B0182E18093120110920D0110923603AD
:1053E00010923203109233031093310342E050E0E5
:1053F00050930A014093090141E061E08BE294E09F
:105400000E94C3118BE294E00E940A129CCE10927B
:105410001501109214011092130180910F0188233D
:1054200049F11092810010920F0166EA8BE294E03C
:105430000E9496110E94CF140E9489100E940D11A3
:1054400010923103109233030E94460F60930D04B3
:1054500070930E0480930F04909310040E944311E4
:1054600082E090E090930A018093090190930701F4
:10547000809306010E94460F00910D0410910E04C6
:1054800020910F0430911004601B710B820B930B61
:1054900068357B418105910520F10E94460F60939C
:1054A0000D0470930E0480930F04909310040E94D7
:1054B00089100E9443110E94CF1410922F03109262
:1054C0002E0310922D03EEE1F0E0F0930501E0933E
:1054D000040110922C0310922B0310922A031092B5
:1054E000290380910301882309F4D7C10E94460F44
:1054F000C090F002D090F102E090F202F090F3023E
:105500006C197D098E099F09643671058105910525
:10551000D0F00E94460F6C197D098E099F096538ED
:1055200073408105910578F48091EE029091EF022D
:1055300020910401309105018217930724F0909384
:105540000501809304010E94E10F9093EF02809384
:10555000EE0220912D0330912E038217930720F045
:1055600090932E0380932D030E9401108823D9F07D
:1055700080911C03811117C081E080931C030E945D
:105580001C0E609318037093190380931A03909371
:105590001B0310922E0310922D032EE130E0309366
:1055A0000501209304010E94460FC0901104D09081
:1055B0001204E0901304F09014046C197D098E0914
:1055C0009F09603B74408105910550F010922E03B5
:1055D00010922D034EE150E05093050140930401D9
:1055E0000E94460F6C197D098E099F09683B7B401C
:1055F0008105910508F45CC00E94460F6093110478
:1056000070931204809313049093140420E030E00C
:105610004AE255E4609125037091260380912703A7
:10562000909128030E949F308111FDC280E090E09C
:10563000AAEAB5E48093250390932603A093270359
:10564000B093280381E080932F03209121033091B0
:10565000220340912303509124036091250370910C
:10566000260380912703909128030E94E03220E0D6
:1056700030E040E857E40E9405316B017C0120E0F6
:1056800030E0A9010E94883320E030E040E05FE391
:1056900087FDD8C2C701B6010E9474320E945233FE
:1056A00060931D0370931E0380931F039093200348
:1056B00080911C03882309F4CDC00E94460F60939B
:1056C00011047093120480931304909314040E94A5
:1056D0001C0EC0901803D0901903E0901A03F090AC
:1056E0001B036C197D098E099F09603A7B4B8D4025
:1056F000910508F4AFC00E940110882309F495C0F9
:105700000E94460F0091F8021091F9022091FA02CE
:105710003091FB02601B710B820B930B623371059E
:105720008105910508F481C00E941C0E9B01AC010B
:105730002C193D094E095F0969017A01C0920203E3
:10574000D0920303E0920403F092050360931803E0
:105750007093190380931A0390931B030E94460FC2
:105760006093F0027093F1028093F2029093F3023F
:105770004EE150E0509305014093040150EFC51AEB
:105780005EE7D50A5EE0E50AF10881EAC81686E818
:10579000D80681E0E806F104D0F5809116039091D7
:1057A00017039C012F5F3F4F30931703209316037D
:1057B0000A9620912F0340E050E064E670E0222337
:1057C00021F040E054E164E670E00E94D0090E94BC
:1057D000410E0E94460F6093F0027093F102809395
:1057E000F2029093F3020E94460F60930D047093AF
:1057F0000E0480930F04909310040E94460F609350
:10580000F8027093F9028093FA029093FB021092CF
:105810001C0310920B030E94460F60930C037093BD
:105820000D0380930E0390930F030E941C0E0091B2
:1058300018031091190320911A0330911B03601B68
:10584000710B820B930B603E784C8041910510F0F8
:1058500010921C0380911603909117030297ECF0AD
:10586000109217031092160386E480937C008091B7
:105870007C008F7D80937C001092030181E08093F7
:105880001503109217031092160310920203109240
:1058900003031092040310920503809115038823DB
:1058A00009F4BFC20E94460F00910C0310910D0332
:1058B00020910E0330910F03601B710B820B930B31
:1058C0006C3271408105910598F18091010381113D
:1058D0002FC0E4EFF1E0F0932A03E093290344EFB3
:1058E00051E060E070E0CB010091FC021091FD02FC
:1058F000012E000C220B330B600F711F821F931FB0
:105900004150510989F724EF31E040E050E00E9416
:10591000423230932A0320932903809129039091E6
:105920002A0381E0809301038091290390912A0347
:105930000E943A108823D9F080911403811117C076
:1059400010922C0310922B031092FE028091FC0205
:105950009091FD0281E0809314030E941C0E6093DD
:10596000100370931103809312039093130380919B
:105970001403882309F4B4C00E941C0EC0901003C5
:10598000D0901103E0901203F09013036C197D097D
:105990008E099F09603A7B4B8D40910508F4A0C0A9
:1059A0000E943A10882309F486C00E941C0E9B01B5
:1059B000AC012C193D094E095F0969017A01C092B9
:1059C0000203D0920303E0920403F0920503609374
:1059D00010037093110380931203909313030E949A
:1059E000460F1092010330EFC31A3EE7D30A3EE0A0
:1059F000E30AF10841EAC41646E8D40641E0E406A9
:105A0000F10408F04AC080911603909117030196A3
:105A1000909317038093160382309105F9F4F8945C
:105A2000109291001092950010929400C19A2AE071
:105A300020939100209171002260209371001092B8
:105A400000031092FF021092080190930A018093C4
:105A50000901789485B191E0892785B98BB192E0ED
:105A600089278BB985B191E0892785B98091160383
:105A70009091170344E650E060E070E00B960E94BE
:105A8000D0090E94410E0E94460F60930D0470934E
:105A90000E0480930F04909310041092140310923C
:105AA0000B030E94460F60930C0370930D038093C9
:105AB0000E0390930F030E941C0E0091100310918F
:105AC00011032091120330911303601B710B820BA1
:105AD000930B603E784C8041910510F010921403B6
