:020000040000FA
:100000000C948A000C949C000C949C000C949C0012
:100010000C949C000C949C000C949C000C949C00F0
:100020000C949C000C949C000C949C000C949C00E0
:100030000C949C000C949C000C949C000C949C00D0
:100040000C945F010C949C000C949C000C949C00FC
:100050000C949C000C949C000C949C000C949C00B0
:100060000C949C000C949C000C949C000C949C00A0
:100070000C949C000C949C000C949C000C949C0090
:100080000C949C000C949C000C949C000C949C0080
:100090000C949C000C949C000C949C000C949C0070
:1000A0000C949C000C949C000C949C000C949C0060
:1000B0000C949C0000000000240027002A002D0062
:1000C00000000000250028002B002E00040404047A
:1000D00004040404020202020202030303030303F2
:1000E00005050505010204081020408001020408EE
:1000F000102001020408102004080102000000087A
:1001000000020100000304070000000000000000DE
:100110000000000011241FBECFEFD8E0DEBFCDBF2E
:1001200021E0A0E0B1E001C01D92A930B207E1F7E3
:100130000E94A9010C943C020C940000E9E0F1E05B
:100140002491E1EFF0E03491E9EDF0E0949199230E
:1001500009F42EC02223D9F021502D30C0F4E22F13
:10016000F0E0EB54FF4F0C943602DD00E100C200DA
:10017000D900C700C700E400EA00EE00F400C700A1
:10018000F800FE00209180002F7720938000E92F57
:10019000F0E0EE0FFF1FE054FF4FA591B4919FB721
:1001A000F894EC9181112EC030953E233C939FBF73
:1001B0000895209180002F7DE8CF24B52F7724BDAE
:1001C000E6CF24B52F7DFBCF2091B0002F77209371
:1001D000B000DDCF2091B0002F7DF9CF20919000AD
:1001E0002F7720939000D3CF209190002F7DF9CFCF
:1001F0002091A0002F772093A000C9CF2091A000CC
:100200002F7DF9CF3E2BD2CF3FB7F89480910501D7
:1002100090910601A0910701B091080126B5A89B15
:1002200005C02F3F19F00196A11DB11D3FBFBA2F88
:10023000A92F982F8827BC01CD01620F711D811D48
:10024000911D42E0660F771F881F991F4A95D1F7CD
:1002500008958F929F92AF92BF92CF92DF92EF92CA
:10026000FF920E9404014B015C0188EEC82E83E0DE
:10027000D82EE12CF12C0E940401681979098A0911
:100280009B09683E734081059105A8F321E0C21ADD
:10029000D108E108F10888EE880E83E0981EA11CC1
:1002A000B11CC114D104E104F10429F7FF90EF90CF
:1002B000DF90CF90BF90AF909F908F9008951F9246
:1002C0000F920FB60F9211242F933F938F939F930A
:1002D000AF93BF938091010190910201A09103011E
:1002E000B09104013091000123E0230F2D3758F520
:1002F0000196A11DB11D20930001809301019093EF
:100300000201A0930301B093040180910501909133
:100310000601A0910701B09108010196A11DB11D30
:100320008093050190930601A0930701B093080103
:10033000BF91AF919F918F913F912F910F900FBEE1
:100340000F901F90189526E8230F0296A11DB11D4E
:10035000D2CF789484B5826084BD84B5816084BD39
:1003600085B5826085BD85B5816085BD80916E0053
:10037000816080936E001092810080918100826084
:1003800080938100809181008160809381008091C1
:1003900080008160809380008091B10084608093B0
:1003A000B1008091B00081608093B0008091910095
:1003B0008260809391008091910081608093910090
:1003C000809190008160809390008091A100826074
:1003D0008093A1008091A10081608093A100809111
:1003E000A00081608093A00080917A008460809357
:1003F0007A0080917A00826080937A0080917A00FE
:10040000816080937A0080917A00806880937A007E
:100410001092C100E1EFF0E02491E9EDF0E0849169
:10042000882399F090E0880F991FFC01EC54FF4F4E
:10043000A591B491FC01E054FF4F859194918FB741
:10044000F894EC91E22BEC938FBFC0E0D0E081E018
:100450000E949E000E94290180E00E949E000E944E
:1004600029012097A1F30E940000F1CFEE0FFF1F9A
:0C0470000590F491E02D0994F894FFCF62
:107E00001F92CDB7DEB7112484B714BE982F9D7092
:107E100009F0E6D082E08093C00088E18093C10041
:107E200086E08093C20080E18093C4008EE0C3D0DE
:107E300010928500109284004899FECF489BFECF97
:107E400081E0809381004899FECF109281002091BB
:107E50008400822F20918500922F089644E0969509
:107E600087954A95E1F701978093C40098D08033B5
:107E7000E9F7A7D0812C912C13E001E025E0F22E48
:107E800031E1E32E8CD0813479F489D0898399D083
:107E90008981823811F482E005C0813811F486E0CE
:107EA00001C083E075D071C0823411F484E103C055
:107EB000853419F485E08DD068C0853549F46FD0DC
:107EC000D82E6DD08D2C912C982A880C991C5CC0D2
:107ED000863521F484E07DD080E0E4CF843609F05B
:107EE00036C05DD05CD0D82E5AD0C82EA12CBB2471
:107EF000B39455D0F50181935F01DE12FACF61D0C2
:107F0000F5E4CF1201C0FFCFF40117BFE89507B623
:107F100000FCFDCFA401A0E0B1E02C911296CD01B0
:107F20000197FC01808130E0382BFA01090107BF7D
:107F3000E89511244E5F5F4FDA12EFCFF401F7BEE0
:107F4000E89507B600FCFDCFE7BEE8951EC0843774
:107F500071F425D024D0D82E22D033D05401F5018D
:107F600085915F0115D0DA94D110F9CF0EC0853715
:107F700039F427D08EE10CD085E90AD086E192CF82
:107F8000813511F488E017D01CD080E101D07ACF80
:107F90009091C00095FFFCCF8093C600089580911A
:107FA000C00087FFFCCF8091C00084FD01C0A89570
:107FB0008091C6000895E0E6F0E098E19083808328
:107FC0000895EDDF803219F088E0F5DFFFCF84E11E
:107FD000DFCFCF93C82FE3DFC150E9F7CF91F1CFC7
:0C7FE000282E80E0E8DFE0E0FF27099495
:00000001FF
