:1000000058C600008AC6000088C6000086C60000E8
:1000100084C6000082C6000080C600007EC60000C4
:100020007CC600007AC6000078C6000076C60000D4
:1000300074C6000072C6000070C600006EC60000E4
:100040000C9433216AC600000C94A3210C947D21EA
:1000500064C600000C94F22160C600005EC6000079
:100060005CC600005AC6000058C600000C94BF23AE
:1000700054C6000052C6000050C600004EC6000024
:100080004CC600000C94D32348C6000046C60000AE
:1000900044C6000042C6000040C600003EC6000044
:1000A0003CC600003AC600000C94D52136C60000BC
:1000B00034C60000AED580A83FD300408D14200286
:1000C000A1C8DA1281FFD9F1DB40A4A6AFB40019B0
:1000D00080400000030C0F30333C3FC0C3CCCFF056
:1000E000F3FCFF454550524F4D5F4944454E54493E
:1000F00054593D3000534F555243453D4C454741BF
:10010000435900454550524F4D5F5645523D3100D1
:10011000454550524F4D5F4944454E544954593D11
:100120003100534F555243453D454550524F4D00C8
:1001300000321C242D530A000000000000000000C3
:1001400000000000000000000000000000000000AF
:100150000000000000000000000000001700000088
:10016000000000000000000000000000150000007A
:10017000000008000000001400000000000E000055
:100180000000160000000000000000000000000059
:10019000000000000000000000000000001F1F1F02
:1001A0001F1F1F1F1F1F1F00000000000000000076
:1001B000000000000000000000000000E0F0F0F887
:1001C000F8FCFC7C7C7C7C7CFCFCFCF8F8F0E0C05F
:1001D0000000071F3F7FFFFFFFFFFCFCF8F8F8F867
:1001E000F3F3F3E3E3C3830000F8F8F8F8F8F8F862
:1001F000E1C18183838387CFFFFFFFFFFFFFFF7E86
:1002000000010307070F0F0F0F0F0F0F0F0F0F0F37
:100210000F070703010000000000000000000000BD
:1002200000000000000000000000000000000000CE
:1002300000000000000000000000000000000000BE
:1002400000000000C0F0F8F8FCFCFE7E7E3E3E3E62
:100250007EFEFEFCFCF8F0E01EFFFFFFFFFFFFF359
:10026000C08080008080C0E0E0E0E0E0E0000001CD
:100270000307070F0F0F0F0F0F0F0F0F0F0F0703BE
:10028000030000000000000000000000000000006B
:10029000000000000000007C7C7C7C7C7C7C7CFE80
:1002A000FEFEFEFEFEFEFEFFFFFFFFFFFFFFFF0F55
:1002B0000F0F0F0F0F0F0F000000000000000000D5
:1002C000000000000000000000000000000000002E
:1002D000000000FEFEFEFEFEFEFEF0787C7C7EFE50
:1002E000FEFEFEFCFCF8E0FFFFFFFFFFFFFF00004B
:1002F00000000000FFFFFFFFFFFFFF0F0F0F0F0FBA
:100300000F0F0000000000000F0F0F0F0F0F0F0066
:1003100000000000000000000000000000000000DD
:10032000000000000000E0E0F0F0F8F8F800000045
:10033000007E7E7EFFFFFFFFFFFFFF7E7E7E7E0052
:100340000000FFFFFFFFFFFFFF80808080000000B4
:1003500003070F0F0F0F0F0F0F0F0F00000000000C
:10036000000000000000000000000000000000008D
:10037000000000000000000000000000000000027B
:100380001E7EFEFEFEFEFCF08000000080F8FEFEF9
:10039000FEFEFE3E06000000010F3FFFFFFFFFF8DC
:1003A000E0FCFFFFFFFF3F0700000000C0C08080AF
:1003B000C0C1E7FFFFFFFFFFFF3F07000000000095
:1003C0000000307070F0F0F0F0F07070301000004D
:1003D0000000000000000001900A0F2060020000F1
:1003E000000000000000000000000000000000000D
:1003F00000000000000000000000000000000900F4
:1004000000000000000000000000000000000007E5
:1004100000000000000000000000000000000600D6
:1004200005060600000001000001000006000004AF
:1004300000000605000005000000000000000000AC
:10044000000000C0300C30C000001806020202029A
:10045000020618FC8484848478001E000000020CCC
:10046000104020202020C00C1212120A1EC0202092
:1004700020400E10101008C020202040FE0E10104A
:1004800010081EC020202020C00E1212121212E8E6
:100490001EFE1EC020202020C00E101010100EE0E6
:1004A0004020201E000000E000000000E00E1010C0
:1004B00010081E6080008060000618060060800042
:1004C000806000C638060000000A0F205F000000B0
:1004D000000000000000000000000000000000001C
:1004E0000000000000FEFE000000000000000019F7
:1004F000190000000000001E1E00001E1E0000006B
:100500000000000000000000000030FEFE3030FE61
:10051000FE300000031F1F03031F1F03000070F8BD
:10052000D8FE9898000000000C18187F191F0F00C3
:10053000001CB6A2F6CC60602030000101000E1B4A
:10054000111B0E00000000DC7EE6C6860C808000D9
:10055000070F1C18191F1E1F13000000001E1E008D
:10056000000000000000000000000000000000008B
:10057000E0FC1E02000000000000073F7840000081
:10058000000000021EFCE000000000000040783F78
:10059000070000000000487830FE30784800000076
:1005A00000000001000000000000808080F0F0806A
:1005B000808000000101010F0F0101010000000017
:1005C00000000000000000000000407C3C00000033
:1005D000000000000000000000000000030303030F
:1005E0000303000000000000000000000000000005
:1005F0000000001C1C0000000000000000C0F03CD7
:100600000E02000020381E07010000000000F0FC70
:100610000EC6C60EFCF80000030F1C18181C0F07AE
:100620000000000C06FEFE00000000001818181F55
:100630001F18181800000C06060686C67C38000035
:10064000181C1E1B1918181800000C06C6C6C6C6B2
:10065000FC3800000C18181818190F0F000080C083
:1006600070180EFEFE00000003030303031F1F03A8
:100670000000FE7E666666E6C68000000C1818184C
:10068000181C0F070000F0FCCE6666E6CC80000068
:10069000070F1C18181C0F07000006060606E6FECA
:1006A0003E0E000000101C0F03000000000038FC8C
:1006B000C6C6C6C6FC3800000F0F181818180F0F52
:1006C000000078FCCE8686CEFCF80000000C1919DC
:1006D000191C0F030000000000E0E0000000000013
:1006E0000000001C1C0000000000000000E0E00012
:1006F000000000000000407C3C0000000000808002
:10070000C040606020300000010103020606040CB6
:1007100000006060606060606060000006060606C1
:100720000606060600003020606040C080800000A1
:100730000C0406060203010100000C0686C6667E54
:100740001C00000000001B1B0000000000E0F0384F
:100750009CCCCCDCF8F000071F38736766667727FF
:10076000000000C0FC3E3EFCC0000000181F0F034C
:10077000030F1F180000FEFEC6C6C6C6FC3C0000E4
:100780001F1F181818181F0F0000F0FC0C06060693
:10079000060C0000030F0C181818180C0000FEFEC1
:1007A0000606060CFCF000001F1F1818180C0F039B
:1007B0000000FEFEC6C6C6C6C60600001F1F1818EB
:1007C000181818180000FEFEC6C6C6C6C6060000E9
:1007D0001F1F0000000000000000F0FC0C068686D1
:1007E000868C0000030F0C1819191F0F0000FEFE65
:1007F000C0C0C0C0FEFE00001F1F000000001F1F81
:100800000000000606FEFE06060000000018181F85
:100810001F1818000000000000060606FEFE00007B
:100820000C18181818180F0F0000FEFEE0F0FC0E50
:10083000060200001F1F0000030F1E180000FEFE2E
:1008400000000000000000001F1F181818181818DA
:100850000000FEFE3EF0F03EFEFE00001F1F000105
:1008600001001F1F0000FEFE1EF0C000FEFE000083
:100870001F1F0000031E1F1F0000F0FC0E06060EC7
:10088000FCF00000030F1C18181C0F030000FEFEF4
:10089000C6C6C6C67C7C00001F1F0000000000000A
:1008A0000000F0FC0E06060EFCF00000030F1C1802
:1008B000183C6F070000FEFEC6C6C6C6FC3C000022
:1008C0001F1F000001031F1E1000387CE6C6C6C6AD
:1008D0008C0000000C18181818190F0F00000606DD
:1008E00006FEFE06060600000000001F1F000000B6
:1008F0000000FEFE00000000FEFE0000070F1C18B6
:10090000181C0F07000006FEFC0000FCFE0600009D
:1009100000001F1F1F1F0000001EFEE000F0F0007F
:10092000E0FE1E001F1F1E01011E1F1F0000020E01
:100930003EF8F83E0E020000101C1F03031F1C109F
:1009400000020E3E78E0E0783E0E02000000001F3C
:100950001F0000000000060686C6F67E1E0E000080
:100960001C1E1F1B1818181800000000FEFE0202B3
:100970000000000000007F7F404000000000020EE9
:1009800038E080000000000000000000030E382066
:100990000000000202FEFE00000000000040407F58
:1009A0007F0000000010181C0E060E1C181000001E
:1009B0000000000000000000000000000000000037
:1009C00000000040404040404040404040000001A6
:1009D000030604000000000000000000000000000A
:1009E0000000006030B0B0B0F0E000000E1F1B1936
:1009F000190D1F1F0000FEFE60303070E0C00000C7
:100A00001F1F0C18181C0F070000C0E0703030309A
:100A100030600000070F1C181818180C0000C0E008
:100A200070303060FEFE0000070F1C18180C1F1FEE
:100A30000000C0E0B0B0B0B0E0C00000070F1D196A
:100A40001919190D00003030FCFE36363600000052
:100A500000001F1F000000000000C0E07030306088
:100A6000F0F0000003376E6C6C667F3F0000FEFE06
:100A700060303030F0E000001F1F000000001F1F3A
:100A80000000003030F7F700000000001818181FB1
:100A90001F1818180000003030F7F70000000000A1
:100AA0006060607F3F0000000000FEFE80E070306C
:100AB000100000001F1F0103071E1810000006068B
:100AC000FEFE00000000000000000F1F18181800B4
:100AD0000000F0F030F0E030F0E000001F1F001FD9
:100AE0001F001F1F0000F0F060303030F0E0000009
:100AF0001F1F000000001F1F0000C0E0703030709A
:100B0000E0C00000070F1C18181C0F070000F0F0D1
:100B100060303070E0C000007F7F060C0C0E0703D1
:100B20000000C0E070303060F0F0000003070E0CF1
:100B30000C067F7F000000F0F060303030300000A5
:100B4000001F1F00000000000000E0F0B0B0B0B0D7
:100B5000306000000C191919191B1F0E00003030ED
:100B6000FCFC30303000000000000F1F1818180087
:100B70000000F0F000000000F0F000000F1F181857
:100B8000180C1F1F000030F0E00000E0F030000003
:100B900000010F1E1E0F01000070F00000C0C00019
:100BA00000F07000071F1E03031E1F070000103017
:100BB000F0C0C0F03010000010181E07071E1810FB
:100BC000000010F0F08000F0F03000000060637F63
:100BD0001F0F0100000030303030B0F070300000E6
:100BE000181C1E1B191818180000000000FCFE023B
:100BF000020000000001013E7E40400000000000B5
:100C000000FEFE00000000000000007F7F000000EA
:100C10000000000202FEFC00000000000040407ED8
:100C20003E010100000080C0C0C0808080C0000084
:100C30000100000001010100000000000024002765
:100C4000002A002D00000000002300260029002CAF
:100C5000000A0D0E09000302000004050800000050
:100C60000000000000000000000000000102040875
:100C70001020408001020408102001020408102006
:100C80004080400102040800000000250028002BDD
:100C9000002E0004040404040404040202020202FC
:100CA0000203030303030302020305050505982558
:100CB000873611241FBECFEFD8E0DEBFCDBF14BEF4
:100CC0000FB6F894A89580916000886180936000C9
:100CD000109260000FBE14E0A0E0B1E0E6E3FFE692
:100CE00002C005900D92A43DB107D9F727E0A4ED0D
:100CF000B4E001C01D92A93FB207E1F716E0C8E5D4
:100D0000D6E004C02197FE010E946F37C735D10796
:100D1000C9F70E944F260C948F3772C9FC01AC01B1
:100D2000425E5F4F8FEF9FEF2191822728E0BC0149
:100D30006170772796958795672B21F031E083279F
:100D400030EA9327215099F7E417F50769F70895DA
:100D50004F925F926F927F928F929F92AF92BF92CB
:100D6000FF922091DF073091E0078217930708F088
:100D700043C02B0166247724852E962EA72EBB24F4
:100D8000B82DA42F2091E507F42C222391F0E22F17
:100D9000F0E0E49DD001E59DB00DF49DB00D11246F
:100DA000FB2E289D40011124B92D249F9001112470
:100DB000A32FE091EB072091E6073091E7075091D0
:100DC000E807E51323C0FC01EE0FFF1F8E0F9F1FE6
:100DD000820F931FE091E807E80FF92FF11DF082D1
:100DE000E091E907E80FF92FF11DB0832091EA07A0
:100DF000820F911DFC01A083FF90BF90AF909F9048
:100E00008F907F906F905F904F900895880F991FFB
:100E1000880F991F820F931FE80FF92FF11D108281
:100E2000D9CF82508D3008F03EC0E82FF0E0E55E6B
:100E3000F84F0C946F375007540728072E075307B5
:100E40005307320738073C074207530746074C074A
:100E5000809180008F77809380000895809180003A
:100E60008F7DF9CF8091B0008F778093B000089587
:100E70008091B0008F7DF9CF809190008F77809323
:100E800090000895809190008F7DF9CF8091A0000F
:100E90008F778093A00008958091A0008F7DF9CF77
:100EA00084B58F7784BD089584B58F7DFBCFCF93B4
:100EB000DF93282F30E0F901EF5AF34F8491F901C5
:100EC000E459F34FD491F901ED56F34FC491CC237B
:100ED00099F08111A6DFEC2FF0E0EE0FFF1FEB5B26
:100EE000F34FA591B491EC91ED2381E090E009F4EA
:100EF00080E0DF91CF91089580E090E0FACF1F93DA
:100F0000CF93DF93282F30E0F901EF5AF34F84910C
:100F1000F901E459F34FD491F901ED56F34FC4911F
:100F2000CC23A1F0162F81117CDFEC2FF0E0EE0F27
:100F3000FF1FE957F34FA591B4918FB7F894EC9147
:100F4000111108C0D095DE23DC938FBFDF91CF91C4
:100F50001F910895DE2BF8CFCF93DF9390E0FC0133
:100F6000E459F34F24918D56934FFC0184918823CB
:100F7000C9F090E0880F991FFC01E75CF34FA59141
:100F8000B491FC01E957F34FC591D49161110DC0A3
:100F90009FB7F8948C91209582238C938881282385
:100FA00028839FBFDF91CF910895623051F49FB79E
:100FB000F8943C91822F809583238C93E8812E2B8B
:100FC000EFCF8FB7F894EC912E2B2C938FBFEACFF5
:100FD000883038F092EF980F9B30A8F08931A8F054
:100FE00083518770806480937C0080917A00806454
:100FF00080937A0080917A0086FDFCCF8091780002
:10100000909179000895892FECCF8FEFEACF3FB709
:10101000F8948091BC069091BD06A091BE06B09157
:10102000BF0626B5A89B05C02F3F19F00196A11D4C
:10103000B11D3FBFBA2FA92F982F8827BC01CD0122
:10104000620F711D811D911D42E0660F771F881F81
:10105000991F4A95D1F70895A9E0B0E0E2E3F8E0DE
:101060000C94DF368091E6079091E707892B09F40D
:101070007AC0CDDF0091EC071091ED072091EE07CB
:101080003091EF07601771078207930740F4609370
:10109000EC077093ED078093EE079093EF070091B4
:1010A000EC071091ED072091EE073091EF07601BE0
:1010B000710B820B930B6C32714081059105C8F264
:1010C000F8948091E1079091E2079A838983E091F7
:1010D000E607F091E707DF011196808189879091FB
:1010E000DD07E091F007F091F1078091F207992375
:1010F00009F43DC09081982B988790818095892331
:101100008F838F818C8388E08B8358856F8149859D
:101110003B812C8189819A81508347FD252F3A9507
:101120002083262F39F0441F00C000006083000098
:1011300000C0F2CF38E04D9160830000019761F765
:10114000F093F107E093F00749873B832C839A8360
:10115000898378945CDF6093EC077093ED0780934C
:10116000EE079093EF072996E4E00C94FB3690810C
:10117000982B98879081809589238F838F818E8388
:1011800088E08D8358856F8149853D812E818981D5
:101190009A81508347FD252F00C000C0208300C0E6
:1011A00000C000C000C000C060830000262F3A9538
:1011B00041F0441F000000C000C000C000C000C0DB
:1011C000E8CF38E04D9100C0608300C0019709F777
:1011D000F093F107E093F00749873D832E83B7CF63
:1011E0008F929F92AF92BF92CF92DF92EF92FF9237
:1011F0006B017C010CDF4B015C01C114D104E104E3
:10120000F104B1F004DF681979098A099B09683E85
:1012100073408105910588F321E0C21AD108E108E5
:10122000F10888EE880E83E0981EA11CB11CE5CF62
:10123000FF90EF90DF90CF90BF90AF909F908F90F6
:1012400008952FB7F8946091B8067091B90680910F
:10125000BA069091BB062FBF0895B0E0A0E0E3E38B
:10126000F9E00C94D9366C017B018B01040F151F3A
:10127000EB015E01AE18BF08C017D10759F06991A4
:10128000D601ED91FC910190F081E02DC601099508
:10129000892B79F7C501CDB7DEB7EAE00C94F536B6
:1012A000AB01BC0180EC96E0D8CFA2E0B0E0EBE56A
:1012B000F9E00C94DD368C017C018AE0E80EF11C2B
:1012C000F80181918F01282F30E094E03595279522
:1012D0009A95E1F72A3031059CF4205D29838F70BF
:1012E0008A3080F4805D8A8362E070E0CE010196EE
:1012F000D7DFE016F10621F72296E6E00C94F936E6
:10130000295CECCF895CEFCFFC01538D448D252FF8
:1013100030E0842F90E0821B930B541710F0CF968F
:10132000089501970895FC01918D828D981761F0C1
:10133000A28DAE0FBF2FB11D5D968C91928D9F5FD8
:101340009F73928F90E008958FEF9FEF0895FC01B7
:10135000918D828D981731F0828DE80FF11D858D6A
:1013600090E008958FEF9FEF0895FC01918D228DFD
:10137000892F90E0805C9F4F821B91098F73992782
:10138000089580EC96E0F1DF21E0892B09F420E05C
:10139000822F0895FC01A48DA80FB92FB11DA35A67
:1013A000BF4F2C91848D90E001968F739927848F85
:1013B000A689B7892C93A089B1898C9183708064A8
:1013C0008C93938D848D981306C00288F389E02D49
:1013D00080818F7D80830895EF92FF920F931F93FA
:1013E000CF93DF93EC0181E0888F9B8D8C8D9813D8
:1013F00018C0E889F989808185FF13C09FB7F894E8
:10140000EE89FF896083E889F9898081837080642F
:1014100080839FBF81E090E0CDB7DEB7E6E00C941B
:10142000F936F62E0B8D10E00F5F1F4F0F7311274B
:10143000E02E8C8D8E110BC00FB607FCFACFE88919
:10144000F989808185FFF5CFCE01A4DFF2CFEB8D46
:10145000EC0FFD2FF11DE35AFF4FF0829FB7F89478
:101460000B8FEA89FB8980818062D2CFCF93DF9393
:10147000EC01888D8823B1F0AA89BB89E889F989B4
:101480008C9185FD03C0808186FD0CC00FB607FCE2
:10149000F7CF8C9185FFF2CF808185FFEDCFCE0114
:1014A00079DFEACFDF91CF91089580E090E0892B3A
:1014B00021F067DF81110E94000080E090E0892B1D
:1014C00049F080E090E0892B29F00E940000811112
:1014D0000E9400000895CF93DF93EC018D8588234F
:1014E00029F081508D87DF91CF9108959C818E8165
:1014F0009817C8F788896827E881F9810084F18501
:10150000E02D42E0CE0109958C818F5F8C83EBCF7B
:10151000DC011E96ED91FC9184913196E491982F17
:101520008E2F0895B0E0A0E0E8E9FAE00C94DB36F5
:10153000EC0110E000E0E990EE2041F080917307AB
:1015400090917407009741F410E000E0C801CDB716
:10155000DEB7E8E00C94F736FC013496C49031967F
:10156000E491EC1488F3F12CD12CEC0DFD2DF11D40
:10157000EE16FF064CF785E697E0CADFE0917307A9
:10158000F0917407209176070297D0F086E0E80E7C
:10159000F11CEC18FD08EE0DFF1DE491E29FE02D1B
:1015A0001124EE2389F280916E0790917607899F2E
:1015B000802D11248E0F9927991F080F191FBBCF5B
:1015C0003296EBCFCF93DF93EC017F876E87672B4B
:1015D00039F09EDF019721F41986DF91CF910895AC
:1015E00081E08987FACF81E080937F0580917E0238
:1015F000882389F080919406882369F008DD685774
:101600007C4E8F4F9F4F60937B0570937C0580933A
:101610007D0590937E050895DC01ED91FC91008499
:10162000F185E02D40E009950895CF93C82F61E83A
:1016300085E697E0F1DF6C2F85E697E0EDDFCF914F
:1016400008950F931F93CF938C01FC016483C08591
:10165000C60F6C2F6F70E0DF6C2F62956F7060614A
:10166000C801DADFCF911F910F910895FC01278106
:10167000269526952695621730F465832385620F9B
:101680006770606BC9CF08951F93CF93DF93EC0110
:10169000142F8E81681710F4CE01D3DF612FCE0195
:1016A000E5DFDF91CF911F910895B0E0A0E0EBE579
:1016B000FBE00C94DB36EC01F62EC42ED22E1D86F8
:1016C0008F81869586958695081710F00FEF080F85
:1016D0001D2D011770F0412F6F2DCE01D5DFEF2C9E
:1016E000CE1428F06889CE01F6DEE394F9CF1F5FAF
:1016F000F0CF4D2D6F2DCE01C7DFCDB7DEB7E8E0BF
:101700000C94F7360F93DC0115962C9115971E96C5
:10171000ED91FC911F9700E0309779F03396E491BA
:10172000F0E0379683E0F595E7958A95E1F75196D5
:101730000C9151970E9F002D1124EFEFE20F0E0F29
:1017400016964C911697415014966C911497CD01B2
:10175000ACDF0F910895A6E0B0E0E1EBFBE00C9464
:10176000D136FC01068517850115110509F427C13D
:101770009E838D83F801329664903196A490EA2C72
:10178000F12CF7E0EF0EF11C23E0F594E7942A9595
:10179000E1F7E982F801349684913196E491681773
:1017A00048F0CE2ED12C9601280F311D621713065A
:1017B0000CF44FC06D3081F4ED81FE818681811182
:1017C00006C081E090E02696E2E10C94ED3660E000
:1017D0008D819E8136DFF5CF6A3009F0F0C0ED8152
:1017E000FE818681882319F060E0CF012ADFED8138
:1017F000FE8181898E9DE02C112465816E0D84858A
:10180000882349F097819695969596958E2D891BFC
:10181000860F181624F08D819E8128DFD2CFED81AE
:10182000FE812385820F877083879E199583CF0160
:1018300069DFED81FE818485813009F0C2CF638547
:10184000660F660F660F6F7362876064CF01E4DE18
:10185000B8CF0A5F1F4FB62EB81AED81FE81918571
:101860008189989F802D11248C83CF0151DE0297AE
:1018700008F067C06E9CC0016F9C900D1124B89E4B
:101880006001B99ED00C11240C0D1D1D512CED8151
:10189000FE81F481FA83ED81FE812580F585FB834D
:1018A000862C912CAA24A394B12C312C8981381632
:1018B00008F083C0412CED81FE818189481608F033
:1018C00075C08B818587311002C0442039F0ED81CD
:1018D000FE8145814F5F6A81CF01D6DED12CC12CBC
:1018E000C61408F057C0F801EC0DFD1D749055208A
:1018F00061F0EA14FB0449F4E72DF0E0052C02C086
:10190000F595E7950A94E2F77E2EED81FE818189B7
:10191000823079F4442009F439C072948FE078223F
:10192000E72DF0E0ED52FF4F7490672D8D819E8181
:10193000D2DD672D8D819E81CEDD8FEFC81AD80A4A
:10194000CFCFEA2DE77088E0582E5E1AE11101C072
:10195000512CF801612C90E080E06B1431F024915F
:10196000820F911D63943196F8CF600E712E711C19
:10197000F3016490E89EF001E99EF00DF89EF00DF1
:101980001124CE0EDF1E0C0D1D1D81CFF72DFF7013
:101990007F2EC6CFD12CEC81DE1631F060E08D8138
:1019A0009E8199DDD394F7CF439485CF3394080D6E
:1019B000191DFFEFAF1ABF0A79CF622D2CCF90E02F
:1019C00080E001CF0F93CF93DF93EC011B861A8643
:1019D00060E422DE0F8106950695069501504E8142
:1019E000415020E060E0CE0160DEDF91CF910F91A9
:1019F0000895DC019EE021E227BFE92FFF278491B3
:101A00008D939F5F9831C1F708952F923F924F9227
:101A10005F927F928F929F92AF92BF92CF92DF920E
:101A2000EF92FF920F931F93CF93DF934FB7F894EA
:101A300020916A0530916B05809168059091690548
:101A40004FBF40916C05042E02C0359527950A942E
:101A5000E2F702C0959587954A95E2F79FB7F8940B
:101A6000409170055091710540916E0550916F0540
:101A70009FBF8802C00111242202800D911D1124F4
:101A800090937805809377058FB7F89480907305CD
:101A900090907405A0907505B09076058FBF8091E9
:101AA0000B0190910C01A0910D01B0910E018815D0
:101AB0009905AA05BB05C1F1C0917705D0917805BC
:101AC00080911701811144C0D0930401C093030198
:101AD00081E090E0909306018093050188E290E018
:101AE0009093080180930701D0930A01C0930901E4
:101AF00081E08093170180920B0190920C01A092DB
:101B00000D01B0920E0120EF820E29E4921E22E018
:101B1000A21EB11C80920F0190921001A09211019F
:101B2000B09212011092720580917205DF91CF91EF
:101B30001F910F91FF90EF90DF90CF90BF90AF90EB
:101B40009F908F907F905F904F903F902F9008953F
:101B5000709018017110C2C02091030130910401EE
:101B60002C173D07D8F4CE01821B930BB4E0969559
:101B70008795BA95E1F7AC01420F531F50930401CA
:101B8000409303014C175D0738F52F5F3F4F892BBA
:101B9000F9F0809103019091040126C0C217D30788
:101BA000C0F7A9014C1B5D0BA4E056954795AA957B
:101BB000E1F7C901841B950B909304018093030105
:101BC000C817D90730F7452B09F07DC121503109DD
:101BD000309304012093030180910301909104014B
:101BE000C817D90708F46FC19E01281B390BC9011A
:101BF00020910501309106012817390708F066C1C8
:101C0000AC01421B530BF4E056954795FA95E1F76A
:101C1000B901640F751F7093060160930501681781
:101C2000790728F42F5F3F4F452B09F46AC1809153
:101C3000050190910601892B31F481E090E09093A9
:101C400006018093050180910F0190911001A091F0
:101C50001101B09112010097A105B10529F0881674
:101C60009906AA06BB06D0F1209105013091060124
:101C7000C901880F991F820F931F8A30910510F4B4
:101C80008AE090E0209107013091080182179307C4
:101C900008F03CC1A901481B590B5695479556952C
:101CA00047954115510511F441E050E0241B350BD7
:101CB0002817390708F42AC1309308012093070137
:101CC000D501C4018051964BAD4FBF4F80930F019A
:101CD00090931001A0931101B0931201409107015C
:101CE00050910801CA01969587959695879500971A
:101CF00039F431E020E0452B09F430E0832F922FB6
:101D000020910501309106017901EE0CFF1C4AE09B
:101D1000E416F10418F41AE0E12EF12CE816F906A5
:101D200008F47C018091030190910401AC0170E002
:101D300060E01C012B012E0C3F1C411C511CE80EC5
:101D4000F91E21143104E1E04E06510418F0EE248E
:101D5000EA94FE2C8E159F0508F0DDC08701081B54
:101D6000190B0930110508F4D6C0085011090217E3
:101D7000130708F48901400F511F611D711D080FE1
:101D8000191F411551056140710510F00FEF1FEF4C
:101D9000C0900901D0900A0154DAAB01BC01711066
:101DA00038C0809119018823A1F1CC16DD0688F591
:101DB000CE15DF0570F19FB7F8948092500690928F
:101DC0005106A0925206B092530681E080935406C9
:101DD0009FBF80931801DB01CA01805B9F4FAF4F0B
:101DE000BF4F8093130190931401A0931501B093FA
:101DF000160110921901D501C4018051964BAD4FC7
:101E0000BF4F80930F0190931001A0931101B093E5
:101E1000120180911801882309F485C08091030183
:101E2000909104019E01281B390B8C179D0710F01F
:101E300030E020E0E0910501F0910601CF01880F2C
:101E4000991F8E0F9F1F8A30910510F48AE090E051
:101E50008217930708F4C901209107013091080106
:101E60002817390720F49093080180930701D501C2
:101E7000C4018051964BAD4FBF4F80930F0190939B
:101E80001001A0931101B093120180911301909160
:101E90001401A0911501B0911601481B590B6A0B52
:101EA0007B0B77FF3BC081E080937205D0930A01E2
:101EB000C093090180920B0190920C01A0920D0138
:101EC000B0920E0131CE8C1B9D0B92CE82179307E0
:101ED00008F0ADCEA901481B590BE4E05695479593
:101EE000EA95E1F7241B350B309306012093050199
:101EF0008217930708F09BCE452B09F098CE21500E
:101F00003109309306012093050191CE9093080189
:101F100080930701D5CE10E000E029CFC017D1078C
:101F200010F61092180181E0809319011092720549
:101F3000BDCF8FB7F89410925006109251061092B0
:101F4000520610925306109254068FBF10925906F3
:101F500010925A0610925B0610925C0687E1EAED39
:101F6000F2E0A3E0B1E001900D928A95E1F71092C2
:101F700072051092690608958FB7F894109254056F
:101F80001092530510922105109222051092180507
:101F900010921D0510921E0510921F05109220052B
:101FA00091E0909354058FBF0895ECE7F0E080E650
:101FB0008083808181E0809362051092A000E1EA35
:101FC000F0E010821092A5001092A4008FE990E03A
:101FD0009093A9008093A8008AE08083E2E7F0E074
:101FE0008081826080831092630583E18093130572
:101FF000C3DF10927B008EED80937A0083EA9AE330
:10200000A0E0B0E080935C0590935D05A0935E0531
:10201000B0935F0585E090E090936D0580936C052B
:10202000089520917A022223C9F080917B02482FE3
:1020300050E0FA01EE0FFF1FEE0FFF1FEE58FD4FAD
:1020400060817181828193814F5F5F4F417055271D
:1020500040937B02215020937A02089560E070E063
:10206000CB0108952091350230913602C901880FC5
:10207000991F820F931F8830910510F488E090E03B
:1020800020914002309141022817390720F49093A3
:10209000410280934002809133029091340220915A
:1020A0004202309143022817390720F490934302EB
:1020B00080934202109245028CE89AE09093490284
:1020C00080934802089510926C021092520210926E
:1020D000530210925402109255021092570210921D
:1020E00056021092640210926502109266021092DB
:1020F0006702109268021092690210926A021092AE
:102100006B0210926D0210926E0210926F0210928A
:1021100070021092710210924A0210924B021092B9
:102120004C0210924D0210925102109250021092E5
:102130007A0210927B0210927C0281E080937D02F1
:102140001092900610927B0610927C0610927D06EB
:1021500010927E06109277061092780610927906F9
:1021600010927A061092680610926706EFE7F6E082
:1021700010821182128213821482158216821782B3
:1021800010860895A4E1B0E0E8ECF0E10C94D136BB
:102190008FB7F894409059054A868FBF90E033245A
:1021A00033944FB7F89480912205212C882339F17C
:1021B00080912105282F30E0F901EE0FFF1FED5B24
:1021C000FA4F00811181220F331F220F331FF901B3
:1021D000ED5DFA4FC080D180E280F380C982DA825F
:1021E000EB82FC828F5F883008F080E080932105CD
:1021F00080912205815080932205222423944FBF91
:10220000222009F469C680910F0590911005A091D4
:102210001105B09112050196A11DB11D80930F0506
:1022200090931005A0931105B0931205809192062A
:10223000909193060817190720F0109393060093C6
:102240009206D090A401D9868091350290913602F1
:10225000E0903302F0903402FE82ED822D2D203486
:1022600008F42CC3A0904002B0904102A501A8162A
:10227000B90608F0AC017A018D809E80840E951E0F
:1022800060913F02662309F443C080913902909126
:102290003A0261E08017910708F060E02091370270
:1022A0003091380276E0729FA001739F500D112487
:1022B0009801281B390B4217530754F508151905C7
:1022C00038F18017910718F5809146028F5F80934F
:1022D00046029501A5E0B0E00E942A3724E630E0EE
:1022E00040E050E00E9408372430310510F424E02B
:1022F00030E02E153F0508F497014D805E80240DD7
:10230000351D61E00217130738F460E005C060E096
:10231000109246026111DDCF8016910610F03092C6
:102320007D026D807E806016710608F045C16801EF
:10233000C618D708DE86CD8680916E0290916F0216
:10234000A0917002B091710220917C020097A105CA
:10235000B10509F4FCC549805A806B807C80481A1D
:10236000590A6A0A7B0AD301C201662309F4F1C53E
:10237000B7FDEFC52D832111B5C0C0903B02D090B1
:102380003C02E0903D02F0903E0280913902909133
:102390003A028017910708F012C18815990508F0D4
:1023A0000EC1F801E81BF90BD401A81BB90B298158
:1023B0003A814B815C812C193D094E095F0921F45A
:1023C00021E030E040E050E00E94C7369F0150E03D
:1023D00040E00E940837C20ED31EE41EF51E409056
:1023E000640250906502609066027090670241142A
:1023F00051046104710461F0E1E0D701C601841960
:102400009509A609B7098136934EA641B10508F092
:10241000E0E08091680290916902A0916A02B09117
:102420006B028F87988BA98BBA8B892B8A2B8B2B6E
:1024300091F091E09D83B701A6018F859889A989C4
:10244000BA89481B590B6A0B7B0B4136534E6641C8
:10245000710508F01D82A50156954795569547953B
:102460005C8B4B8B4830510520F448E050E05C8B8E
:102470004B8B20916C02222309F4CBC08F85988965
:10248000A989BA890097A105B10509F49DC0A701E2
:102490009601281B390B4A0B5B0B213630494F4004
:1024A000510508F491C09501A7E0B0E00E942A37D9
:1024B000DC01CB01F3E0B695A79597958795FA9542
:1024C000D1F78F309105A105B10520F48FE090E0A0
:1024D000A0E0B0E02D853E852817390708F074C0CC
:1024E000F2DDC0DD8091500290915102009729F0F9
:1024F0000197909351028093500250914502752E9E
:1025000073247D822985203458F0772049F031E00A
:102510003D838091500290915102892B09F01D82D8
:1025200040916C02442309F4D7C1809164029091D8
:102530006502A0916602B091670260EE462E61EBE3
:10254000562E66246A94762C481A590A6A0A7B0A1F
:10255000D301C201C980DA80EB80FC808C0D9D1D07
:10256000AE1DBF1D21E02D8781339A4AAC40B105D5
:1025700008F01D868091A401803408F0AFC160E0AE
:102580004985403408F42BC24D84411035C58091F3
:102590004602811147C380917C02811143C380911F
:1025A000450281113FC34D80442009F43BC380168E
:1025B000910608F01CC236C31E861D86BDCEC9809A
:1025C000DA80EB80FC800BCF3D81311103C0EE231C
:1025D00009F486CFD701C60184199509A609B70960
:1025E000803824E892072EE1A207B10508F4E0C084
:1025F0006ADD38DD4D855E854F30510508F472CFB8
:10260000C0925202D0925302E0925402F0925502CC
:1026100069CF80914E0290914F028B34910508F062
:1026200061CF4D845E846B887C884614570408F41F
:1026300059CF8091520290915302A0915402B091CF
:1026400055020097A105B10569F4C0925202D092DB
:102650005302E0925402F092550250925702409277
:10266000560240CFA7019601281B390B4A0B5B0B82
:10267000DA01C901A901BD01405B5C436F4F7F4F87
:10268000403452446F40710550F48091560290914D
:1026900057024D845E8484159505B8F223CF8139A5
:1026A0009540A041B10508F08CC0109252021092E2
:1026B0005302109254021092550210925702109237
:1026C0005602C0926402D0926502E0926602F092D5
:1026D000670230926C0210926D0289819A81AB81FF
:1026E000BC818051964BAD4FBF4F80936E0290934B
:1026F0006F02A0937002B093710290917B0280915F
:102700007A02823019F49F5F917081E0292F280F9F
:1027100021702B871C86EB85FC85EE0FFF1FEE0FCB
:10272000FF1FEE58FD4FC082D182E282F382909368
:102730007B028F5F80937A0244E650E060E070E0B5
:102740008DE090E00E94A8060E94F30A0E942109F1
:102750006C597F4F8F4F9F4F609380057093810519
:10276000809382059093830530927C0220E6C20E0E
:102770002AEED21EE11CF11CC0924A02D0924B02FA
:10278000E0924C02F0924D0240E653E05093510229
:1027900040935002309245028EE0809344028CE8D0
:1027A0009AE0909349028093480210927D029ACE5B
:1027B00020914E0230914F022B34310568F083DCBA
:1027C00051DCC0925202D0925302E0925402F09235
:1027D00055024D845E8441CF2C013D0120E2420E22
:1027E0002EE4521E611C711C30E4431632E4530681
:1027F0003FE06306710418F410926D0273CE8136C7
:1028000040E994074FE0A407B10508F447C08139B7
:102810009540A041B10588F59501A7E0B0E00E9480
:102820002A37DC01CB01E3E0B695A795979587950C
:10283000EA95D1F78F309105A105B10520F48FE01D
:1028400090E0A0E0B0E0ED85FE85E817F90748F0DC
:10285000C0926402D0926502E0926602F092670232
:102860003ACF80916D02882309F4CAC32D853E8535
:102870004B895C892417350758F720E8421624E86D
:1028800052062EE16206710418F780916D028F3FA7
:1028900009F428CE8F5F80936D0224CEC50166E0D7
:1028A00070E00E9448376730710510F467E070E00F
:1028B0004D845E844616570658F614CE6D807E8091
:1028C000680E791E6016710620F010927C0230921C
:1028D0007D02912C812C06CE2D864CCE2091350286
:1028E0003091360269E0629FC001639F900D112410
:1028F0002091330230913402820F931F8017910789
:1029000028F010924F0210924E0239CE80914E0262
:1029100090914F028F3F980729F0019690934F02B4
:1029200080934E024423C1F080916402909165022D
:10293000A0916602B091670249805A806B807C80CA
:10294000481A590A6A0A7B0AD301C20161E0813E32
:102950009441AE42B10508F460E080916802909124
:102960006902A0916A02B0916B02722D0097A105D5
:10297000B10589F049805A806B807C80481A590AD9
:102980006A0A7B0AD301C20171E081369049AF40E7
:10299000B10508F470E080914E0290914F022091B1
:1029A000500230915102232B59F4511109C020914A
:1029B0007C02211105C020917A02222309F4F5C27C
:1029C000803831E0930708F0DACD662331F08F3F8D
:1029D000910509F008F4D4CDD2CD622DD1CD5D8022
:1029E000552009F41FC16D84662009F41BC16111D3
:1029F00019C17090A40179864091A30150E08090A4
:102A0000A5019090A601A090A701B090A80168012F
:102A1000F12CE12CCD82DE82EF82F886C090A901F4
:102A2000D090AA01E090AB01F090AC019801D801E0
:102A30000E942A372B013C01FA0131969F012F7326
:102A40003327388B2F87440F551FE985E03408F072
:102A500076C04D5D5E4FDA010D931C932D813E8152
:102A60004F815885820E931EA41EB51E8092A5012B
:102A70009092A601A092A701B092A801C40CD51C07
:102A8000E61CF71CC092A901D092AA01E092AB010A
:102A9000F092AC019E2F9F5F9093A4013F853093ED
:102AA000A3018091A401803408F4BCC0C090A501AA
:102AB000D090A601E090A701F090A80186E0F694DE
:102AC000E794D794C7948A95D1F78090A901909004
:102AD000AA01A090AB01B090AC0196E0B694A79487
:102AE000979487949A95D1F7A7019601C701B601EB
:102AF0000E943937681579058A059B0508F04EC094
:102B000024013501461A570A680A790AB301A2015D
:102B10009601D0923402C0923302812C912CA12CC8
:102B2000B0E4BB2E481559056A057B05D8F5A2E02F
:102B3000B694A79497948794AA95D1F7F3CFFA0106
:102B4000ED5DFE4FA081B1818A1A9B0AA108B108F0
:102B50002D813E814F815885820E931EA41EB51E85
:102B60008092A5019092A601A092A701B092A8011F
:102B70009D010E942A37C61AD70AE80AF90AC40C2E
:102B8000D51CE61CF71CC092A901D092AA01E092C4
:102B9000AB01F092AC011183008380CF40E050E0A4
:102BA000BA01B6CF80E090E0DC0181149104A10469
:102BB000B104F9F024013501480E591E6A1E7B1E2E
:102BC000B695A7959795879544155505660577059C
:102BD00040F04419550966097709880D991DAA1D09
:102BE000BB1DE2E0B694A79497948794EA95D1F739
:102BF000DCCFAA27BB270097A105B10521F481E00E
:102C000090E0A0E0B0E0909336028093350280918E
:102C10004202909143028217930720F4D09243021C
:102C2000C092420280913F02882309F440C0209163
:102C30002E028091390290913A02F801E81BF90BBB
:102C400080912D0290E0C0902F02D0903002E09051
:102C50003102F0903202AF01F7FF04C0442755273C
:102C60004E1B5F0B052E000C660B770BDC011196DB
:102C70003D013FE363227724880F991F203408F039
:102C80005BC083559E4FDC01ED93FC93C40ED51EB3
:102C9000E61EF71EC0922F02D0923002E09231025F
:102CA000F09232022F5F20932E0260922D0220912B
:102CB0002E02211166C0E1E0F0E0F0933802E093CB
:102CC00037028091A401803418F1809142029091E2
:102CD0004302209145028017910708F069C01093C4
:102CE00043020093420286E180934702211185C08E
:102CF0008091450281110CC0809148029091490257
:102D0000009709F4B4C00197909349028093480258
:102D100010933A020093390249805A806B807C807C
:102D200040923B0250923C0260923D0270923E0201
:102D300030923F02922D35CA9C0123553E4FD90156
:102D40008D909C9097FE03C0919481949108092CDA
:102D5000000CAA08BB08C818D908EA08FB08835564
:102D60009E4FDC01ED93FC93C40ED51EE61EF71EAC
:102D7000C0922F02D0923002E0923102F0923202E1
:102D800094CF30E050E040E060912F02709130022B
:102D900080913102909132020E940837211531054D
:102DA00011F421E030E0309338022093370289CFCC
:102DB000211123C020914702222309F499CF2150E9
:102DC00020934702211194CF209133023091340295
:102DD000821B930BF4E096958795FA95E1F7820FA5
:102DE000931F2817390708F49C013093430220935E
:102DF000420286E1809347027BCF80914402882380
:102E000019F081508093440280914402811170CF67
:102E100040913302509134028091420290914302DA
:102E2000609135027091360248175907F0F4841BFF
:102E3000950B9B01220F331F260F371F28173907C9
:102E400008F49C01309341022093400250934302C6
:102E500040934202109245027CE8472E7AE0572EBA
:102E6000509249024092480243CFCB01E2CF5CE846
:102E7000652E5AE0752E7092490260924802809148
:102E80003502909136029C01220F331F820F931F4F
:102E90008430910510F484E090E02091400230915C
:102EA00041028217930728F09093410280934002D9
:102EB0002FCF6901C81AD90AC601969587959695AC
:102EC0008795009711F481E090E0281B390B30932F
:102ED0004102209340021CCF80910E055A84851137
:102EE0001DC080910A0590910B05A0910C05B09131
:102EF0000D050196A11DB11D80930A0590930B0548
:102F0000A0930C05B0930D0581E090917A02911188
:102F100001C080E06496E2E10C94ED36911113C09B
:102F20008091060590910705A0910805B0910905CB
:102F30000196A11DB11D8093060590930705A093EE
:102F40000805B09309056A8460920E05DDCF611112
:102F500011CA222309F4C6CA80914A0290914B02F9
:102F6000A0914C02B0914D020097A105B10509F462
:102F7000B9CA49805A806B807C80481A590A6A0A0B
:102F80007B0AD301C201B7FDADCA80917D028823BF
:102F900009F4A8CA10927C0210924A0210924B02C5
:102FA00010924C0210924D029DCA442309F408CDA0
:102FB000772309F405CD8B34910508F406CD83D829
:102FC00051D82091350230913602C901880F991FDE
:102FD000820F931F8430910510F484E090E0909369
:102FE0004102809340028091330290913402909389
:102FF000430280934202C3CA5D805110F8CC12CEC6
:1030000020E8421624E852062EE16206710408F414
:1030100041CC1ECC9FB7F894809159059FBF815039
:1030200080930E0508958BE591E0E3E2F1E0DF0186
:103030009C011D9221503040E1F781E090E0909397
:1030400036028093350290933802809337028FEFD7
:103050009FEFDC018093600290936102A093620273
:10306000B093630281E080937D0287E090E09093CB
:103070004102809340028CE89AE090934902809349
:103080004802C8DF0E94BC0FC5CF462F682F85E6D7
:1030900097E00E94440B85E697E00C94820B1F9307
:1030A000CF93DF93EC01162F61E0411101C060E086
:1030B0008B890E947F0780E58CBD81E08DBD60E03B
:1030C0008A890E947F071EBD00000DB407FEFDCF58
:1030D0008EB561E08A890E947F07DF91CF911F91B1
:1030E0000895089590E080E0089581E08093D802EB
:1030F0008093D7028093D6020895CF93C091D202D5
:10310000CC2339F01092810066EA85E697E00E94B0
:103110000C0B8C2FCF910895CF93DF93D0E0C0E0BC
:1031200040E050E0BA01CE010E94A8062196CA31C3
:10313000D105B1F70E942C08DF91CF91089581E06D
:103140008093B306809181024EEF5EEF6EEF70E0E8
:1031500090E00E94A8060E942C080E94210960931A
:10316000F3077093F4078093F5079093F60708959B
:10317000B0E0A0E0EEEBF8E10C94DB36C091F70490
:10318000D091F8048E01000F111F0D511B4FF80153
:1031900040815181052E000C660B770BC090F9041D
:1031A000D090FA04E090FB04F090FC04C41AD50A15
:1031B000E60AF70A81E10E94E807F801918380831B
:1031C000092E000CAA0BBB0BBC01CD016C0D7D1DA3
:1031D0008E1D9F1D6093F9047093FA048093FB0485
:1031E0009093FC042196CA30D10584F4D093F8045E
:1031F000C093F7042AE030E040E050E00E94AB3694
:10320000C901CDB7DEB7E8E00C94F7361092F804A8
:103210001092F704EFCF0F931F93CF9380919D06E9
:103220008823E9F00E94070800919E0610919F06EE
:103230002091A0063091A106601B710B820B930BAD
:1032400097FD0DC0CFB7F8941092800010928100C6
:1032500060E089E00E947F0710929D06CFBFCF916A
:103260001F910F9108950F931F930E9407080091DB
:10327000FF04109100052091010530910205AB017A
:10328000BC01401B510B620B730B80918202909129
:103290008302B0E0A0E0481759076A077B0770F087
:1032A0000E9407086093FF04709300058093010556
:1032B0009093020581E01F910F91089580E0FBCF6C
:1032C000FC01DC018D91882389F080528F3538F024
:1032D0001082E60FF71F3197108280E00895CD012C
:1032E0008E1B9F0B8617970768F3F2CFE60FF71F29
:1032F0003197108281E00895FB0101900020E9F7E9
:103300003197AF01461B570BDC01ED91FC91028018
:10331000F381E02D099508950F931F93CF93DF93C9
:103320008C01D0E0C0E0F801EC0FFD1F6491662332
:1033300041F080EC96E00E94EC09892B11F0219677
:10334000F2CF6EEC73E080EC96E0D6DF8C0F9D1F21
:10335000DF91CF911F910F9108958F929F92AF921D
:10336000BF92EF92FF920F931F93CF93DF93CDB74E
:10337000DEB7A1970FB6F894DEBF0FBECDBF7C01BC
:10338000FA01CB0119A2223008F42AE08E010F5D68
:103390001F4F822E912CB12CA12CBF01A5019401AD
:1033A0000E940837F901CA016A3004F5605DD8014E
:1033B0006E938D01232B242B252B79F790E080E051
:1033C000109719F0BD01C70197DFA1960FB6F894C9
:1033D000DEBF0FBECDBFDF91CF911F910F91FF9048
:1033E000EF90BF90AF909F908F900895695CDFCF72
:1033F000B0E0A0E0EEEFF9E10C94DB368C016B015C
:10340000770FEE08FF08F7FE1AC0DC01ED91FC9182
:103410000190F081E02D6DE20995EC0144275527DC
:10342000BA014C195D096E097F092AE0C80195DFD0
:103430008C0F9D1FCDB7DEB7E8E00C94F7362AE07D
:10344000B701A6018ADFF6CFCF93DF93BC0180ECF2
:1034500096E0CEDFEC016EEC73E080EC96E04CDFA2
:103460008C0F9D1FDF91CF910895CF93DF93482F4D
:1034700050E070E060E02AE080EC96E06EDFEC0166
:103480006EEC73E080EC96E037DF8C0F9D1FDF91D0
:10349000CF9108950F931F93CF93DF938C01D0E0CA
:1034A000C0E06115710511F027DFEC016EEC73E0EF
:1034B000C80122DF8C0F9D1FDF91CF911F910F91CB
:1034C00008956115710509F017CF90E080E0089527
:1034D00080918602882359F041E066E185E697E015
:1034E0000E94440B6AE273E085E697E0EACF089514
:1034F0008091A30681110EC081E08093A30645E070
:1035000066E485E697E00E94440B6DE173E085E692
:1035100097E0D7CF089545E06CE385E697E00E94F9
:10352000440B69EA73E085E697E0CBCF45E065E0C0
:1035300085E697E00E94440B63E273E085E697E03E
:10354000C0CFCF93DF938091810281112CC08091F5
:10355000A40641E0811116C06AE085E697E00E946A
:10356000440B6BE273E085E697E0ABDF40918102AC
:1035700050E070E060E02AE085E697E0EEDEDF9163
:10358000CF91089569E185E697E00E94440B69E2D6
:1035900073E085E697E095DF41E06DE285E697E030
:1035A0000E94440BE3CFC9E1D0E0C81BD109909140
:1035B0009C06992349F141E06AE085E697E00E9484
:1035C000440B67E573E085E697E07BDFBE01D7FF3C
:1035D00002C06F5F7F4F7595679585E697E008DFBE
:1035E0006DE273E085E697E06CDF25E02C9FC0017B
:1035F0002D9F900D11246AE070E00E945C37BC01A1
:1036000085E697E0F5DEBBCF9091A4069923F9F00B
:10361000853159F441E069E385E697E00E94440B67
:103620006BE273E085E697E04CDF41E069E185E617
:1036300097E00E94440B67E573E085E697E041DF81
:1036400084E18C9FB0018D9F700D1124D9CF803102
:1036500059F441E064E185E697E00E94440B6AE298
:1036600073E085E697E02DDF41E06AE085E697E0CC
:103670000E94440B67E573E085E697E022DFBE0118
:10368000BFCF80919C06882359F041E06CE385E62A
:1036900097E00E94440B6FE273E085E697E011CF5C
:1036A0008091A40641E0882341F06BE485E697E031
:1036B0000E94440B64E373E0F0CF6CE285E697E090
:1036C0000E94440B67E373E0E8CFCF93A4DD8091C1
:1036D0000505882391F010920505109204051092BB
:1036E00003051092A3060E9407086093FF047093DD
:1036F000000580930105909302058091AD0681112C
:1037000038C08091810281113FC0809104058111F0
:1037100027C08091A206811109C08091A406811161
:1037200005C067EA85E697E00E940C0B80910305CF
:10373000811112C081E08093030580919C0688234B
:10374000D1F041E06AE285E697E00E94440B6EE327
:1037500073E085E697E0B5DEF4DE81E08093040552
:1037600082DD882331F0B4DE66EA85E697E00E94C8
:103770000C0BCF91089545E066E485E697E00E9442
:10378000440B60E473E0E5CF9FEF980F9C3008F0A6
:103790004DC090910405911146C091E090930405AD
:1037A000813011F4A5DE6DDFC0918102CC2309F4D4
:1037B0003AC080919C068823F1F041E064E185E6FF
:1037C00097E00E94440B6C2F669570E085E697E0C9
:1037D0000FDE6DE273E085E697E073DE25E0C29FC1
:1037E000C00111246AE070E00E945C37BC0185E6EC
:1037F00097E0FEDD18C08091A40641E08111B1C0C0
:103800006AE085E697E00E94440B66E473E085E693
:1038100097E057DE4091810250E070E060E02AE0DE
:1038200085E697E09ADD1FDD811152DE80918102ED
:103830008C30C9F580919B068823A9F18091FE0404
:10384000811131C063E08EE120DC68E473E085E63D
:1038500097E037DE809184029091850290938002F8
:1038600080937F028091020191E0980F943108F0DB
:1038700089C09093020190E0880F991F9093850270
:103880008093840281E08093FE0490918102292F2D
:1038900030E09C5040E050E0BA019D3008F074C028
:1038A000C9010E94A8068091810293EF980F9C3075
:1038B00008F05FCF8D3009F070C080919B0688239F
:1038C00049F082E090E0909385028093840263E067
:1038D00080E0DBDB80910405811109C081E08093E9
:1038E00004051092A30665E086E4CFDB14DE40DC1D
:1038F00028E230E0DC010E9475372CE231E040E044
:1039000050E00E94AB36DA01C9010A96A11DB11D33
:1039100083339105A105B10524F082E390E0A0E096
:10392000B0E08A309105A105B10524F48AE090E069
:10393000A0E0B0E0909301018093000119DC8B3886
:10394000924044F181E08093FD04809181028E30A9
:1039500011F41092FE0487DC882309F40ACFB8DD45
:1039600008CF69E185E697E00E94440B66E473E0C6
:1039700085E697E0A6DD6091810284E1689FB00151
:10398000112435CF91E075CFC9010E94A8060E948D
:103990002C0889CF1092FD04D8CF809104058111A5
:1039A000D4CF81E080930405CCDDCFCF0E947B375C
:1039B000B0E0A0E0EEEDFCE10C94DB36EB017B0126
:1039C00020E2E20EF11C8B016C01C61AD70AC60177
:1039D000800F911F0E949536F80181938F01EE159B
:1039E000FF05A9F7CE01CDB7DEB7E8E00C94F736B6
:1039F0000C949536B0E0A0E0E0E0FDE10C94D936FF
:103A0000EB012AE1FB0111922A95E9F76B01FAE13A
:103A1000CF0ED11C7B0111E001E05C01A61AB70AB0
:103A2000C5018E0D9F1DE4DF8F3F19F000E0882354
:103A3000D9F090EE980F9F3508F010E0F7018193D0
:103A40007F01CE16DF0661F780E0198E011104C0F8
:103A5000882311F0111102C0188210E0812FCDB718
:103A6000DEB7EAE00C94F53681E0EFCF0C949D369A
:103A7000A1E7B0E0EEE3FDE10C94D93610928000AE
:103A80001092810061E089E00E94AC0760E089E06B
:103A90000E947F071092D8021092D7021092D6028D
:103AA00061E082E00E94AC0761E085E00E94AC0723
:103AB00061E082E00E947F078091E3079091E40734
:103AC00097FD08C061E00E94AC0760E08091E307C9
:103AD0000E947F0781E08093DE078093B3061CDBA2
:103AE00062E370E080E090E00E94F00861E085E031
:103AF0000E947F0762E080E10E94AC078CEF93E0B8
:103B000077DF91E0811101C090E09093A2068DEFE4
:103B100093E00E9495368093A5068EEF93E00E9475
:103B200095368093A60662E276E086E090E062DF5A
:103B3000E82E67E076E082E290E05CDFF82E6BEE44
:103B400075E08EE390E056DF082F6FEC75E08AE5B4
:103B500090E050DF182F80E290E04ADF873008F0D5
:103B600080E08093210681E290E042DF873008F018
:103B700081E080931E018DE390E03ADF873008F00A
:103B800080E0809306068CE390E032DF873008F017
:103B900081E080931D0188E590E02ADF873008F0FE
:103BA00080E08093EA0589E590E022DF873008F025
:103BB00080E08093050684E790E01ADF873008F004
:103BC00080E08093CE0585E790E012DF873008F033
:103BD00080E08093E90586E790E00ADF9FEF980F89
:103BE0009E3F08F0C7C180931C0187E790E000DF8B
:103BF000815091E08E3F08F090E0909384058E3FD5
:103C000090F4EE2031F0FF2021F0002311F011118B
:103C10000AC010922206109207061092EB0510922D
:103C2000CF051092840587E790E0E2DE8F3FC1F078
:103C300086E090E0DDDEF82E82E290E0D9DE082F0B
:103C40008EE390E0D5DE182F8AE590E0D1DE2FEFED
:103C5000F21223C00F3F09F51F3FF9F48F3FE9F43B
:103C600010922206109207061092EB051092CF05D3
:103C70001092CE051092EA051092060610922106C7
:103C800081E080931E0180931D0110920506109221
:103C9000E90580931C01109284058E010F5F1F4F70
:103CA000580144E8E42E43E0F42ED02EC12EC70183
:103CB0000E949536D5018D935D01BFEFEB1AFB0A8B
:103CC000E5EDEE16E3E0FE0691F789819A818E3DDF
:103CD000904C09F451C163E573E087E892E00E94DB
:103CE000883763E573E08DE892E00E9488376EE4E0
:103CF00073E083E992E00E94883710929F0210924D
:103D00009E021092A0021092B90210E01093CD050D
:103D1000BE016E5A7F4F80E293E04ADE6D2D7C2D0E
:103D200080E493E045DE64968EAD9FAD64978E3D52
:103D3000904C91F465968FAD6597813069F4E29669
:103D4000EEACFFACE297CE018E5A9F4F0E948E06DA
:103D500011E0E816F90609F010E089819A818E3D9C
:103D6000904C09F02DC28B81813009F029C2EF8C73
:103D7000F8A08D2D9C2D0E948E06E816F90609F0FC
:103D80001FC211115EC180E2ED2DFC2DA6EAB5E047
:103D900001900D928A95E1F781E090E09093C7053C
:103DA0008093C6058091AE059091AF054091B00516
:103DB0005091B1056091B2057091B3054093A90689
:103DC0005093AA066093AB067093AC06019690934D
:103DD000A8068093A70681E08093CC058FEF93E03F
:103DE00007DE8E3139F08851823020F069E18FEFA3
:103DF00093E03CDE8CEF93E0FBDD823020F060E06E
:103E00008CEF93E033DE80E10E945707892B79F431
:103E10008FEF93E0EDDD6EE1893131F068E18E31B5
:103E200019F0883121F469E18FEF93E01FDE8FEF05
:103E300093E0DEDD80939A0689EF93E0D9DD8093ED
:103E4000B40664E170E080E090E00E94F00884E055
:103E500080937905F8948091680088608093680069
:103E600080917300886080937300789461E08AE0A9
:103E70000E94AC0760E08AE00E947F076AE070E081
:103E800080E090E00E94F00861E08AE00E947F07F5
:103E90006AE070E080E090E00E94F00888E18093A2
:103EA000770787E18093780761E088E10E94AC079B
:103EB00061E0809178070E94AC071FB7F894809169
:103EC0007A05811127C0EDE9FCE08491E6E7FCE08A
:103ED0009491E82FF0E0EE0FFF1FE75CF34FA59100
:103EE000B491EC91E92321F461E08AE00E947F071C
:103EF00061E08AE00E94AC078CB580618CBD8CB516
:103F000080648CBD61E08DE00E94AC0761E08BE0D5
:103F10000E94AC0780917A058F5F80937A051FBF5E
:103F20001092690710926A07EDECF0E0C590D4900A
:103F3000EFECF0E0F490E0EDF0E0E491E0936B075B
:103F4000E1EDF0E0E491E0936C07E2EDF0E0E49164
:103F5000E0936D0710E000E00F1508F091C0F80144
:103F6000EC0DFD1D649185E697E00E940C0B0F5F40
:103F70001F4FF2CF81E037CE8B81813009F0ABCE7D
:103F80008C818B3409F0A7CEA801415B5F4F8FEF86
:103F90009FEFD8012D918D01922728E0BC01880F59
:103FA000991F77FF04C0B1E28B27B0E19B27215016
:103FB000A9F70417150769F762962EAD3FAD629712
:103FC0002817390709F087CE8BE4FE013596A7E85C
:103FD000B2E001900D928A95E1F766E070E087E823
:103FE00092E06ED9082F66E070E08DE892E068D923
:103FF000182F6BE070E083E992E062D9F82E69E156
:1040000070E080EA92E05CD969E170E089EB92E0CF
:1040100057D9002321F080918702811110C011230C
:1040200021F080918D02811171CEFF2009F453CED1
:10403000809193021F2D882309F44DCE67CE102F57
:1040400065CE6A964CAD5DAD6EAD7FAD6A978D81E4
:104050009E81AF81B885481759076A077B0708F426
:1040600092CE80E2FE01EE5AFF4FA6EAB5E0019043
:104070000D928A95E1F71092C7051092C60592CE6F
:1040800085E697E00E94E20C6BED85E697E00E94E2
:104090000C0B60E785E697E00E940C0B6DE885E667
:1040A00097E00E940C0B64E985E697E00E940C0BF8
:1040B0008FEF0E94150B62E370E080E090E00E94B9
:1040C000F00881E08093D9028093220110924A0681
:1040D0001092490610924B06109241060E94210947
:1040E000609342067093430680934406909345067E
:1040F000109247061092460680917A008F7D809339
:104100007A0087E880937A0061E087E00E94AC073C
:1041100061E087E00E947F07F894109290008AE0A7
:104120008093910082E08093710080919A0688319B
:1041300051F481EC92EA90939900809398009093C7
:104140001B0180931A0180919A06893151F48FE303
:104150009CE9909399008093980090931B01809321
:104160001A0180919A068E3151F484E392E890937B
:1041700099008093980090931B0180931A01789482
:1041800082E090E0909385028093840281E08093A6
:10419000D20210927F061092800610928106109231
:1041A0008206109283061092840610928506109261
:1041B000860610928706CF58DF4FEAE00C94F5365A
:1041C00011114FCFE8EAF5E08EE1DF011D928A95EB
:1041D000E9F78EED90EC9093A7058093A60581E01A
:1041E0008093A80586EA95E00E948E069093C50507
:1041F0008093C40540CF1F93CF93DF93EC01162F1C
:104200000E949536181721F0612FCE010E949D362D
:10421000DF91CF911F910895B0E0A0E0E2E1F1E2DB
:104220000C94DB367C016B01D0E0C0E010E000E0D4
:10423000111104C0F601EC0FFD1F0081602FC701B2
:104240008C0F9D1FD8DF11110CC011E0011110E07F
:104250002196CA31D10559F7CDB7DEB7E8E00C9405
:10426000F73611E0F5CF1F920F920FB60F9211247F
:104270002F933F938F939F93AF93BF938091B806F3
:104280009091B906A091BA06B091BB063091B706DD
:1042900023E0230F2D3768F126E8230F0296A11D96
:1042A000B11D2093B7068093B8069093B906A093EA
:1042B000BA06B093BB068091BC069091BD06A09152
:1042C000BE06B091BF060196A11DB11D8093BC062C
:1042D0009093BD06A093BE06B093BF06BF91AF9169
:1042E0009F918F913F912F910F900FBE0F901F9034
:1042F00018950196A11DB11DD4CF1F920F920FB634
:104300000F9211242F933F934F935F936F937F935B
:104310008F939F93AF93BF93EF93FF9380EC96E0BF
:104320000E94CA09FF91EF91BF91AF919F918F9128
:104330007F916F915F914F913F912F910F900FBEA1
:104340000F901F9018951F920F920FB60F92112485
:104350002F938F939F93EF93FF93E091D006F0916B
:10436000D1068081E091D606F091D70682FD1BC070
:1043700090818091D9068F5F8F732091DA06821722
:1043800041F0E091D906F0E0E054F94F958F809329
:10439000D906FF91EF919F918F912F910F900FBEB2
:1043A0000F901F9018958081F4CF1F920F920FB637
:1043B0000F9211248F9380917E02811104C080910D
:1043C0009406882349F080917A0086FD05C080918B
:1043D0007A00806480937A008F910F900FBE0F90C7
:1043E0001F9018951F920F920FB60F9211242F93C2
:1043F0003F934F935F936F937F938F939F93AF936D
:10440000BF93CF93DF93EF93FF93809164059091D7
:104410006505A0916605B09167050196A11DB11DC6
:104420008093640590936505A0936605B093670536
:104430008091630590917C008111D3C080916205C9
:10444000882309F4C9C0809179008455990B909311
:104450006105809360052091600530916105409170
:104460007905429FC001439F900D112490936105EF
:104470008093600580915C0590915D05A0915E053B
:10448000B0915F0520915A0530915B05820F931F13
:1044900090935B0580935A05292F3327880F892F26
:1044A000881F990B9195E0916005F091610527FFB8
:1044B00002C0E095F0956091600570916105205C07
:1044C0003F4F27FF02C06095709540916005509165
:1044D000610587FF02C0409550952091600530919D
:1044E0006105805C9F4F87FF02C020953095A091A9
:1044F0006A05B0916B0580916C05C0916A05D091F9
:104500006B05082E02C0B595A7950A94E2F7EA1B41
:10451000FB0BEC0FFD1FF0936B05E0936A05E09138
:104520006805F0916905A0916805B0916905082EAC
:1045300002C0F595E7950A94E2F76E1B7F0B6A0FB0
:104540007B1F709369056093680560917005709199
:104550007105E0917005F0917105082E02C0759506
:1045600067950A94E2F7461B570B4E0F5F1F509357
:1045700071054093700540916E0550916F056091F3
:104580006E0570916F0502C0559547958A95E2F7C3
:10459000241B350B260F371F30936F0520936E05B4
:1045A0000E940708609373057093740580937505E6
:1045B00090937605809113058111BCC0109213056C
:1045C00086E480937C0080917C008F7D80937C00CA
:1045D00080917C0082E0BAC0809179008058990B6C
:1045E00045CF90917800C0917900823009F0C3C026
:1045F000DC2FC92FCE3F83E0D80710F0D0E0C0E019
:10460000D0936206C0936106809159058F5F8093B5
:1046100059058091550590915605A0915705B09187
:1046200058050196A11DB11D80935505909356051F
:10463000A0935705B093580580915405882309F439
:1046400065C00E94070840915305242F30E0F9010E
:10465000EE0FFF1FED5BFA4FD183C083220F331F94
:10466000220F331FF901ED5DFA4F6083718382835E
:10467000938381E0840F883008F080E080935305B5
:1046800080912205883030F5809122058F5F8093DC
:1046900022058091190590911A05A0911B05B091F2
:1046A0001C050196A11DB11D8093190590931A0553
:1046B000A0931B05B0931C059091220580911805CD
:1046C000891720F4809122058093180583E1809357
:1046D000130536C0809121058F5F883008F080E097
:1046E0008093210580911D0590911E05A0911F05C5
:1046F000B09120050196A11DB11D80931D059093D9
:104700001E05A0931F05B0932005C3CF809114050B
:1047100090911505A0911605B09117050196A11D60
:10472000B11D8093140590931505A0931605B093C1
:104730001705CCCF815080931305882309F440CF0F
:1047400080E680937C0080917C0080E0809363050C
:10475000FF91EF91DF91CF91BF91AF919F918F9199
:104760007F916F915F914F913F912F910F900FBE6D
:104770000F901F901895813009F422CFA7CF1F9278
:104780000F920FB60F9211248F939F938091F80789
:1047900091E089278093F8079F918F910F900FBE2A
:1047A0000F901F9018951F920F920FB60F92112421
:1047B000CF92DF92EF92FF920F931F932F933F932D
:1047C0004F935F936F937F938F939F93AF93BF9319
:1047D000EF93FF9380916506909166060196909302
:1047E0006606809365062091650630916606809185
:1047F0008402909185022817390708F456C18091E8
:104800008102109266061092650691E0909305056C
:104810008F5F893108F072C180938102809181029B
:10482000811164C01092E2048091D6028823A1F124
:104830000E942109609395067093960680939706CF
:10484000909398061FB7F89480E4809380008AE0E4
:10485000809381008EE691E0909389008093880098
:104860000E940708605C704E8F4F9F4F60939E06BA
:1048700070939F068093A0069093A10681E0809399
:104880009D061FBF0E9407086093DE047093DF043B
:104890008093E0049093E1048091D702882331F162
:1048A0008091A206882309F42CC18091A40681116D
:1048B00028C181E08093B30610E000E044E654E6AE
:1048C00064E670E0C8010E94A8060F5F1F4F0A311E
:1048D0001105A1F70E942C080E9421096093F3079B
:1048E0007093F4078093F5079093F6078091810207
:1048F0008C3011F580919B06811118C18091840242
:10490000909185029093800280937F0280919A0615
:104910008E3151F48091A4068111F6C08CE090E0B4
:10492000909385028093840280919A06883109F0E1
:10493000FDC08DE080938102809181028D3009F06D
:104940005DC020917F0230918002309385022093D8
:10495000840290919A069931B9F42091A50630917C
:10496000A60640911A0150911B0137FF02C0295F32
:104970003F4FB3E035952795BA95E1F7240F351FE2
:10498000309399002093980090919A069E31C9F433
:104990002091A5063091A60640911A0150911B0165
:1049A00037FF02C0295F3F4FA3E035952795AA95B1
:1049B000E1F74C5E5F4F240F351F30939900209331
:1049C000980090919A069831C9F42091A5063091EB
:1049D000A60640911A0150911B0137FF02C0295FC2
:1049E0003F4FF3E035952795FA95E1F7405E5F4F2D
:1049F000240F351F30939900209398009091D8028E
:104A0000992309F452C09FEF980F9C30A0F491E0D5
:104A10009093B3069091FD04992309F478C00E9405
:104A20009F180E9421096093F3077093F407809305
:104A3000F5079093F607809181028C3039F49091BC
:104A40009A069E3119F491E09093DD0493EF980F4C
:104A50009D3058F540910001C42ED12CF12CE12C51
:104A6000B6015527442790E02091FD04222361F0F0
:104A70003E2D2D2D1C2D0027402B512B622B732BEF
:104A80004C295D296E297F290E94A8060E942C08C6
:104A900081E08093B3060E9421096093F30770932D
:104AA000F4078093F5079093F607809181028D308B
:104AB00071F48091650690916606019741F48091AA
:104AC0001A0190911B019093990080939800FF9197
:104AD000EF91BF91AF919F918F917F916F915F9176
:104AE0004F913F912F911F910F91FF90EF90DF9089
:104AF000CF900F900FBE0F901F90189510928102CB
:104B00008DCE0E949F18F2CE86E090E009CF4091B2
:104B1000000150E070E060E0762F652F542F4427AD
:104B200090E00E94A8060E942C087BCF8CE066CF04
:104B3000CF93DF93E0ECF6E01382128288EE93E0ED
:104B4000A0E0B0E084839583A683B78381E093E0FF
:104B50009183808385EC90E09587848784EC90E056
:104B60009787868780EC90E0918B808B81EC90E03A
:104B7000938B828B82EC90E0958B848B86EC90E01B
:104B8000978B868B118E128E138E148E0E942109A4
:104B900060935D0770935E0780935F079093600753
:104BA0000E942109609361077093620780936307F5
:104BB000909364070E9421090E9421090E94210903
:104BC0000E9421090E942109E5E6F7E01382128282
:104BD0001486158617861686108AC1E0C18B83E17C
:104BE00093E0918380830E9421096093F30770937F
:104BF000F4078093F5079093F607ADEDB7E01196B3
:104C00001C92119718961C9218971F961D921D9230
:104C10001D921C9252971E96CC931E971B96CC9376
:104C20001B971C961C921C9782E01D968C931D97D7
:104C3000CC93E9E7F7E01A96FC93EE9319978BE48F
:104C400090E015969C938E931497EF0119928A9594
:104C5000E9F789E190E013969C938E9312978FE089
:104C600090E017969C938E931697E2EAFCE0E4910D
:104C7000F0E0EE0FFF1FE957F34F859194915496A2
:104C80009C938E935397EBE7FCE0E4915596EC935D
:104C90008091F8078093F707DF91CF910895A6E2FE
:104CA000B0E0E5E5F6E20C94D136789484B5836003
:104CB00084BD85B5836085BD80916E0081608093E1
:104CC0006E0012E0109381008091810081608093DA
:104CD0008100809180008160809380008091B1008C
:104CE00084608093B1008091B00081608093B000B7
:104CF0008091910083608093910080919000816009
:104D0000809390008091A10083608093A1008091A6
:104D1000A00081608093A00087E880937A001092C1
:104D2000C100109280001092810061E089E00E9431
:104D3000AC0760E089E00E947F07E091D006F09127
:104D4000D1061083E091D006F091D1061082E09157
:104D5000CC06F091CD061082E091CE06F091CF0600
:104D600080E180831092D806E091D406F091D506B8
:104D700086E08083E091D206F091D3068081886935
:104D80008083E091D206F091D30680818F7D80836D
:104D90006CED75E080E090E00E94F008209A17BE6C
:104DA0000E94381D80917F05882349F1C0907B05C2
:104DB000D0907C05E0907D05F0907E05C114D10473
:104DC000E104F104C1F080917E028823A1F080917A
:104DD0009406882381F00E9407086C197D098E09CA
:104DE0009F0997FD0CC010927B0510927C051092D4
:104DF0007D0510927E0510927F050E942C08C090C0
:104E00005506D0905606E0905706F0905806C1140B
:104E1000D104E104F104C9F00E9421096C197D0953
:104E20008E099F0997FD11C040E050E0BA018CE067
:104E300090E00E94A8060E94F30A10925506109274
:104E400056061092570610925806C0908005D090D2
:104E50008105E0908205F0908305C114D104E1043E
:104E6000F104C9F00E9421096C197D098E099F097E
:104E700097FD11C040E050E0BA018DE090E00E9443
:104E8000A8060E94F30A10928005109281051092E4
:104E9000820510928305BB24B39427E8E22E22E01A
:104EA000F22E80EC96E00E94B5098C01892B09F462
:104EB000DAC280EC96E00E9493098D3091F3E09184
:104EC000A5058A3009F0C3C2AE2FB0E0AB57BA4F88
:104ED0001C92E33031F580918505893409F074C264
:104EE00080918605843409F06FC2809187058F33E5
:104EF00009F06AC2CE0101960E94F90C63E070E0ED
:104F00008BEB93E00E945009CE0101960E94550957
:104F100062E070E08EEC93E00E9450091092A505CB
:104F2000C0CFE53009F092C180918505893409F040
:104F30004BC2809186058E3409F046C28091870568
:104F4000863409F041C2809188058F3409F03CC253
:104F5000809189058F3309F037C2CE0101960E94F6
:104F6000F90C63E070E08BEB93E00E945009CE01F6
:104F700001960E94550962E070E08EEC93E00E9479
:104F800050098091CD05882309F443C182E291E064
:104F90000E948C1980E191E00E948C1983E091E0DD
:104FA0000E948C1963E070E08FEB93E00E9450093F
:104FB0008091CD05882309F433C1D7010D900020DD
:104FC000E9F7BD016858724087E892E00E945009F5
:104FD00062E070E08EEC93E00E94500963E070E0C4
:104FE00081ED93E00E9450098091CD05882309F45A
:104FF0001CC1EDE8F2E001900020E9F7BF016E5816
:1050000072408DE892E00E94500962E070E08EEC00
:1050100093E00E9450098091CD0581110CC064E09D
:1050200070E08AED93E00E9450098091A50690916E
:10503000A6060E94241A63E070E08FED93E00E94C0
:1050400050098091CD05882309F4F4C063E972E02A
:1050500080EC96E00E944A1A8091CD058823D9F110
:1050600065E070E083EE93E00E94500940919E025B
:1050700050919F0270E060E02AE080EC96E00E9490
:10508000AD196EEC73E080EC96E00E947C1964E050
:1050900070E08AED93E00E9450098091A5069091FE
:1050A000A6060E94241A69E070E089EE93E00E944F
:1050B000500960EA72E080EC96E00E944A1A6AE0C9
:1050C00070E083EF93E00E94500969EB72E080EC9E
:1050D00096E00E944A1A63E070E08EEF93E00E942F
:1050E000500962E276E080EC96E00E944A1A63E0A2
:1050F00070E082E094E00E94500967E076E080EC86
:1051000096E00E944A1A63E070E086E094E00E9414
:1051100050096BEE75E080EC96E00E944A1A63E05D
:1051200070E08AE094E00E9450096FEC75E080EC3A
:1051300096E00E944A1A67E070E08EE094E00E94D8
:10514000500980918405882309F47BC081E090E0B8
:105150000E94241A65E070E086E194E00E94500904
:1051600080911C010E94351A63E070E08CE194E0AC
:105170000E945009809121060E94351A63E070E078
:1051800080E294E00E945009809106060E94351A40
:1051900063E070E084E294E00E9450098091EA05A7
:1051A0000E94351A63E070E088E294E00E945009A2
:1051B0008091CE050E94351A63E070E08CE294E0A5
:1051C0000E94500980911E010E94351A63E070E030
:1051D00080E394E00E94500980911D010E94351ADD
:1051E00063E070E084E394E00E945009809105063A
:1051F0000E94351A63E070E088E394E00E94500951
:105200008091E9050E94351A66E070E08CE394E035
:1052100083CE85EF90E00E948C1983EE90E0C0CEA3
:105220006DE070E083EC93E0D7CE64E070E085ED54
:1052300093E0E9CE62E070E08EEC93E00E945009CA
:105240000BCF90E080E00E94241ADECFE43009F01A
:10525000B8C080918505833509F0B6C08091860578
:10526000813409F0B1C080918705863509F0ACC062
:1052700080918805853409F0A7C0409122063091BD
:1052800007062091EB059091CF0581E0411107C001
:10529000311105C0211103C0911101C080E080933C
:1052A000840510923B064F3F11F410922206109293
:1052B00020063F3F11F410920706109204062F3F7C
:1052C00011F41092EB051092E8059F3F11F4109233
:1052D000CF0562E276E086E090E00E940C216091CA
:1052E0002106673008F060E080E290E00E94FB2039
:1052F00060911E01673008F061E081E290E00E9459
:10530000FB2067E076E082E290E00E940C21609151
:105310001D01673008F061E08CE390E00E94FB2003
:1053200060910606673008F060E08DE390E00E942F
:10533000FB206BEE75E08EE390E00E940C21609103
:10534000EA05673008F060E088E590E00E94FB2005
:1053500060910506673008F060E089E590E00E9402
:10536000FB206FEC75E08AE590E00E940C216091D3
:10537000CE05673008F060E084E790E00E94FB20F3
:105380006091E905673008F060E085E790E00E94F1
:10539000FB2080911C0181508E3F10F0B0921C01C7
:1053A00060911C0186E790E00E94FB2060918405DB
:1053B00087E790E00E94FB2064E070E082E494E0E4
:1053C000ABCDE33008F4AACD809185058C3409F08B
:1053D000A5CD809187058D3309F0A0CD80918605FC
:1053E0009FEC980F943008F099CD07E016E08233D7
:1053F00051F00BEE15E0833331F002E216E0843316
:1054000011F40FEC15E0E8E8F5E0D12CC12C819106
:10541000882391F08C3759F080324CF08F3739F077
:105420002FEFC21AD20A3AE1C316D10481F765E020
:1054300070E08DEC94E070CDA60168E875E0C801DD
:105440000E947F370C0D1D1DD8011C92B5CFEF3186
:1054500008F064CD91E09E0F9093A505F0E0EB5726
:10546000FA4F80831ECD9091F8078091F707981727
:1054700049F08091F8078093F70781E0639B16C499
:105480008093B5068091B606882309F43FC1109237
:10549000B60664E170E080E090E00E94F008809140
:1054A000CC05882309F49BC00E9421094B015C01B3
:1054B0008091C8059091C905A091CA05B091CB050E
:1054C00075016401C81AD90AEA0AFB0AD701C601A4
:1054D00080329E44A105B10508F481C08091C605C3
:1054E0009091C70521E030E06901C81AD90A90E41B
:1054F000292E93E0392EC114D10421F480E2282E04
:1055000083E0382E8EED90EC9A83898381E08B8343
:105510001C828091AA059091AB05A091AC05B09139
:10552000AD050196A11DB11D8D839E83AF83B88704
:105530008091A7069091A8069A8789878091A906ED
:105540009091AA06A091AB06B091AC068B879C8780
:10555000AD87BE87FE013F9680E1DF011D928A95EF
:10556000E9F7CE0101960E948E0698A38F8FFE0167
:105570003196FAA3E9A3F12CE12CA9A1BAA16D916E
:10558000BAA3A9A3C1018E0D9F1D0E94FB20BFEFEE
:10559000EB1AFB0AEEE1EE16F10479F76F8DC1010B
:1055A0004E960E94FB2068A1C1014F960E94FB20ED
:1055B00080E2FE013196A6EAB5E001900D928A954F
:1055C000E1F7D092C705C092C6058092C8059092B7
:1055D000C905A092CA05B092CB051092CC051092D5
:1055E000D8021092D702809168008860809368008A
:1055F0008091730088608093730060E08AE00E946D
:105600007F0765E070E080E090E00E94F00880ECA9
:1056100096E00E94360AE091D206F091D30680818E
:10562000877480838091DA068093D90660E080E0F9
:105630000E94AC0760E081E00E94AC0760E080E07F
:105640000E947F0760E081E00E947F0760E085E0C4
:105650000E947F0764E170E080E090E00E94F00823
:1056600060E082E00E947F0783B7817F846083BF10
:10567000F89410927A00809164008FEF8093640018
:10568000809165008D638093650083B7816083BFDF
:1056900080E685BF80E485BF7894889583B78E7F48
:1056A00083BF809164001092640080916500827CC9
:1056B00080936500E091D006F091D10682E080836E
:1056C000E091D006F091D1061082E091CC06F091E5
:1056D000CD061082E091CE06F091CF0680E1808366
:1056E0001092D806E091D406F091D50686E080832A
:1056F000E091D206F091D306808188698083E091A1
:10570000D206F091D30680818F7D80838091B5068B
:105710008823A1F01092B50680916800886080937C
:105720006800809173008860809373001092D802A3
:105730001092D7021092D6020E94381D8091D90291
:10574000882309F400C380914B0681110EC010928A
:10575000D8021092D7021092D602109280001092B6
:10576000810060E089E00E947F0780912201882308
:1057700009F49AC080914A06811161C00E942109F2
:105780000E94210960935D0770935E0780935F0715
:105790009093600785E697E00E94E20C60E371E079
:1057A00085E697E00E94E20A40E060E085E697E047
:1057B0000E94440B67E474E085E697E00E94611A5A
:1057C00067EC74E085E697E00E94E20A45E060E05D
:1057D00085E697E00E94440B40919A0650E070E005
:1057E00060E02AE085E697E00E94AD1945E067E1B8
:1057F00085E697E00E94440B6FE474E085E697E04D
:105800000E94611A45E066E485E697E00E94440B39
:1058100063E574E085E697E00E94611A8091CD050A
:105820006DE872E0811102C065ED73E085E697E0F6
:105830000E94611A0E948C1881E080934A060E949F
:105840002109C0905D07D0905E07E0905F07F0905F
:1058500060076C197D098E099F096C3D75408105B3
:10586000910510F10E94210960935D0770935E0716
:1058700080935F079093600710924A06109222016E
:105880008091220681110DC080910706811109C007
:105890008091EB05811105C08091CF05882309F423
:1058A00008C281E08093490680914906882309F463
:1058B000BCC080914A0681118EC00E94210960936C
:1058C0005D0770935E0780935F079093600785E69E
:1058D00097E00E94E20C67EC74E085E697E00E9496
:1058E000E20A80911E0180936E0782E296E00E9498
:1058F000920A60916B0770E0681B790B769567954B
:105900004091210685E697E00E94440B62E276E032
:1059100085E697E00E944A1A80911D0180936E07E8
:1059200087E096E00E94920A60916B0770E0681B26
:10593000790B769567954091060685E697E00E947B
:10594000440B67E076E085E697E00E944A1A809172
:10595000050680936E078BEE95E00E94920A609197
:105960006B0770E0681B790B769567954091EA05A7
:1059700085E697E00E94440B6BEE75E085E697E0C4
:105980000E944A1A8091E90580936E078FEC95E09A
:105990000E94920A60916B0770E0681B790B769504
:1059A00067954091CE0585E697E00E94440B6FEC29
:1059B00075E085E697E00E944A1AFF24F394F0927E
:1059C0006E0767EC74E085E697E00E94E20A0E94A9
:1059D0008C18F0924A060E942109C0905D07D09071
:1059E0005E07E0905F07F09060076C197D098E09F3
:1059F0009F096436710581059105B8F00E9421095F
:105A000060935D0770935E0780935F0790936007D4
:105A100010924A06109222011092490681E080936A
:105A20004B0685E697E00E94E20C80914B068823A6
:105A300009F439C180914A06811136C0FF24F394DC
:105A4000F0924A060E94210960935D0770935E07F9
:105A500080935F07909360078091480681110EC084
:105A6000F09248068091D802809321018091D7025C
:105A7000809320018091D60280931F011092D8025A
:105A80001092D7021092D6020E948C1810924706EC
:105A9000109246060E9421096093420670934306C5
:105AA00080934406909345065AE0F52E8AE10E94C1
:105AB000E807080F191FFA94F110F8CFC8016AE03F
:105AC00070E00E945C3724E833E0DB010E94753708
:105AD0007E5F8F4F9F4F20E034E040E050E00E9417
