:100000006AC600009CC600009AC6000098C60000A0
:1000100096C6000094C6000092C6000090C600007C
:100020008EC600008CC600008AC6000088C600008C
:1000300086C6000084C6000082C6000080C600009C
:100040000C9453227CC600000C94C3220C949D2275
:1000500076C600000C94122372C6000070C6000021
:100060006EC600006CC600006AC600000C94DF2457
:1000700066C6000064C6000062C6000060C60000DC
:100080005EC600000C94F3245AC6000058C6000057
:1000900056C6000054C6000052C6000050C60000FC
:1000A0004EC600004CC600000C94F52248C6000065
:1000B00046C60000AED580A83FD300408D14200274
:1000C000A1C8DA1281FFD9F1DB40A4A6AFB40019B0
:1000D00080400000030C0F30333C3FC0C3CCCFF056
:1000E000F3FCFF4C41594F55545F4341503D44454B
:1000F0004641554C543100454550524F4D5F49449F
:10010000454E544954593D3000534F555243453D97
:100110004C454741435900454550524F4D5F564568
:10012000523D3100454550524F4D5F4944454E5474
:100130004954593D3100534F555243453D45455073
:10014000524F4D004C41594F55543D444546415541
:100150004C540000321C242D530A00000000000003
:10016000000000000000000000000000000000008F
:100170000000000000000000000000000000001768
:10018000000000000000000000000000000000155A
:100190000000000000080000000014000000000043
:1001A0000E0000000016000000000000000000002B
:1001B000000000000000000000000000000000003F
:1001C0001F1F1F1F1F1F1F1F1F1F000000000000F9
:1001D000000000000000000000000000000000E03F
:1001E000F0F0F8F8FCFC7C7C7C7C7CFCFCFCF8F8F7
:1001F000F0E0C00000071F3F7FFFFFFFFFFCFCF89F
:10020000F8F8F8F3F3F3E3E3C3830000F8F8F8F841
:10021000F8F8F8E1C18183838387CFFFFFFFFFFFF9
:10022000FFFF7E00010307070F0F0F0F0F0F0F0FC8
:100230000F0F0F0F07070301000000000000000070
:1002400000000000000000000000000000000000AE
:10025000000000000000000000000000000000009E
:1002600000000000000000C0F0F8F8FCFCFE7E7EFC
:100270003E3E3E7EFEFEFCFCF8F0E01EFFFFFFFF70
:10028000FFFFF3C08080008080C0E0E0E0E0E0E0BD
:100290000000010307070F0F0F0F0F0F0F0F0F0FB6
:1002A0000F07030300000000000000000000000032
:1002B000000000000000000000007C7C7C7C7C7C56
:1002C0007C7CFEFEFEFEFEFEFEFEFFFFFFFFFFFF4C
:1002D000FFFF0F0F0F0F0F0F0F0F000000000000A8
:1002E000000000000000000000000000000000000E
:1002F000000000000000FEFEFEFEFEFEFEF0787C28
:100300007C7EFEFEFEFEFCFCF8E0FFFFFFFFFFFF31
:10031000FF000000000000FFFFFFFFFFFFFF0F0FC7
:100320000F0F0F0F0F0000000000000F0F0F0F0F37
:100330000F0F00000000000000000000000000009F
:10034000000000000000000000E0E0F0F0F8F8F825
:10035000000000007E7E7EFFFFFFFFFFFFFF7E7E2E
:100360007E7E000000FFFFFFFFFFFFFF8080808098
:1003700000000003070F0F0F0F0F0F0F0F0F0000EC
:10038000000000000000000000000000000000006D
:10039000000000000000000000000000000000005D
:1003A0000000021E7EFEFEFEFEFCF08000000080CB
:1003B000F8FEFEFEFEFE3E06000000010F3FFFFFBE
:1003C000FFFFF8E0FCFFFFFFFF3F0700000000C059
:1003D000C08080C0C1E7FFFFFFFFFFFF3F070000B5
:1003E0000000000000307070F0F0F0F0F07070303D
:1003F0001000000000000000000001900A0F2060C3
:1004000002000000000000000000000000000000EA
:1004100000000000000000000000000000000000DC
:1004200000090000000000000000000000000000C3
:1004300000000700000000000000000000000000B5
:10044000000600050606000000010000010000068D
:100450000000040000060500000500000000000088
:10046000000000000000C0300C30C0000018060280
:10047000020202020618FC8484848478001E0000B4
:1004800000020C104020202020C00C1212120A1E64
:10049000C0202020400E10101008C020202040FE58
:1004A0000E101010081EC020202020C00E121212A4
:1004B0001212E81EFE1EC020202020C00E101010B8
:1004C000100EE04020201E000000E000000000E0D0
:1004D0000E101010081E60800080600006180600D4
:1004E000608000806000C638060000000A0F205FB0
:1004F00000000000000000000000000000000000FC
:100500000000000000000000FEFE000000000000EF
:10051000000019190000000000001E1E00001E1E31
:100520000000000000000000000000000030FEFE9F
:100530003030FEFE300000031F1F03031F1F0300A7
:100540000070F8D8FE9898000000000C18187F1969
:100550001F0F00001CB6A2F6CC6060203000010125
:10056000000E1B111B0E00000000DC7EE6C6860C90
:10057000808000070F1C18191F1E1F1300000000A9
:100580001E1E00000000000000000000000000002F
:10059000000000E0FC1E02000000000000073F78A1
:1005A000400000000000021EFCE00000000000000F
:1005B00040783F070000000000487830FE3078485F
:1005C00000000000000001000000000000808080AA
:1005D000F0F080808000000101010F0F0101010097
:1005E00000000000000000000000000000407C3C13
:1005F00000000000000000000000000000000003F8
:1006000003030303030000000000000000000000DB
:100610000000000000001C1C0000000000000000A2
:10062000C0F03C0E02000020381E07010000000050
:1006300000F0FC0EC6C60EFCF80000030F1C1818D4
:100640001C0F070000000C06FEFE00000000001852
:1006500018181F1F18181800000C06060686C67CFE
:10066000380000181C1E1B1918181800000C06C6AC
:10067000C6C6C6FC3800000C18181818190F0F0051
:100680000080C070180EFEFE000000030303030389
:100690001F1F030000FE7E666666E6C68000000C33
:1006A000181818181C0F070000F0FCCE6666E6CC80
:1006B000800000070F1C18181C0F07000006060614
:1006C00006E6FE3E0E000000101C0F0300000000B6
:1006D0000038FCC6C6C6C6FC3800000F0F18181834
:1006E000180F0F000078FCCE8686CEFCF8000000C4
:1006F0000C1919191C0F030000000000E0E00000B5
:100700000000000000001C1C0000000000000000B1
:10071000E0E000000000000000407C3C0000000021
:10072000008080C0406060203000000101030206AC
:1007300006040C000060606060606060600000069D
:100740000606060606060600003020606040C080EF
:100750008000000C0406060203010100000C06865E
:10076000C6667E1C00000000001B1B00000000008D
:10077000E0F0389CCCCCDCF8F000071F38736766DB
:10078000667727000000C0FC3E3EFCC00000001859
:100790001F0F03030F1F180000FEFEC6C6C6C6FCCF
:1007A0003C00001F1F181818181F0F0000F0FC0C49
:1007B000060606060C0000030F0C181818180C008B
:1007C00000FEFE0606060CFCF000001F1F1818189D
:1007D0000C0F030000FEFEC6C6C6C6C60600001FFC
:1007E0001F1818181818180000FEFEC6C6C6C6C680
:1007F0000600001F1F0000000000000000F0FC0CBD
:10080000068686868C0000030F0C1819191F0F002E
:1008100000FEFEC0C0C0C0FEFE00001F1F000000A2
:10082000001F1F0000000606FEFE06060000000076
:1008300018181F1F1818000000000000060606FE0A
:10084000FE00000C18181818180F0F0000FEFEE02C
:10085000F0FC0E060200001F1F0000030F1E180010
:1008600000FEFE00000000000000001F1F18181806
:100870001818180000FEFE3EF0F03EFEFE00001FBD
:100880001F000101001F1F0000FEFE1EF0C000FE41
:10089000FE00001F1F0000031E1F1F0000F0FC0EC3
:1008A00006060EFCF00000030F1C18181C0F0300B6
:1008B00000FEFEC6C6C6C67C7C00001F1F000000EE
:1008C0000000000000F0FC0E06060EFCF000000325
:1008D0000F1C18183C6F070000FEFEC6C6C6C6FCFB
:1008E0003C00001F1F000001031F1E1000387CE6A3
:1008F000C6C6C68C0000000C18181818190F0F0077
:1009000000060606FEFE06060600000000001F1F89
:100910000000000000FEFE00000000FEFE000007D8
:100920000F1C18181C0F07000006FEFC0000FCFE40
:1009300006000000001F1F1F1F0000001EFEE00039
:10094000F0F000E0FE1E001F1F1E01011E1F1F0011
:1009500000020E3EF8F83E0E020000101C1F0303BA
:100960001F1C1000020E3E78E0E0783E0E020000F0
:1009700000001F1F0000000000060686C6F67E1E4F
:100980000E00001C1E1F1B1818181800000000FE87
:10099000FE02020000000000007F7F4040000000D7
:1009A00000020E38E080000000000000000000039C
:1009B0000E38200000000202FEFE000000000000D1
:1009C00040407F7F0000000010181C0E060E1C180F
:1009D0001000000000000000000000000000000007
:1009E0000000000000004040404040404040404087
:1009F00000000103060400000000000000000000E9
:100A00000000000000006030B0B0B0F0E000000E68
:100A10001F1B19190D1F1F0000FEFE60303070E013
:100A2000C000001F1F0C18181C0F070000C0E0704A
:100A300030303030600000070F1C181818180C00F8
:100A400000C0E070303060FEFE0000070F1C181878
:100A50000C1F1F0000C0E0B0B0B0B0E0C000000745
:100A60000F1D191919190D00003030FCFE363636ED
:100A700000000000001F1F000000000000C0E07028
:100A8000303060F0F0000003376E6C6C667F3F0022
:100A900000FEFE60303030F0E000001F1F0000005C
:100AA000001F1F0000003030F7F7000000000018A2
:100AB00018181F1F1818180000003030F7F7000032
:100AC0000000006060607F3F0000000000FEFE80CC
:100AD000E07030100000001F1F0103071E181000F7
:100AE000000606FEFE00000000000000000F1F18B8
:100AF0001818000000F0F030F0E030F0E000001FC7
:100B00001F001F1F001F1F0000F0F060303030F08A
:100B1000E000001F1F000000001F1F0000C0E07069
:100B2000303070E0C00000070F1C18181C0F0700C1
:100B300000F0F060303070E0C000007F7F060C0CE9
:100B40000E07030000C0E070303060F0F0000003DA
:100B5000070E0C0C067F7F000000F0F06030303094
:100B6000300000001F1F00000000000000E0F0B097
:100B7000B0B0B0306000000C191919191B1F0E001D
:100B8000003030FCFC30303000000000000F1F1837
:100B90001818000000F0F000000000F0F000000F56
:100BA0001F1818180C1F1F000030F0E00000E0F0C4
:100BB00030000000010F1E1E0F01000070F0000049
:100BC000C0C00000F07000071F1E03031E1F0700B7
:100BD000001030F0C0C0F03010000010181E0707E1
:100BE0001E1810000010F0F08000F0F0300000003F
:100BF00060637F1F0F0100000030303030B0F070B4
:100C0000300000181C1E1B191818180000000000E6
:100C1000FCFE02020000000001013E7E4040000098
:100C200000000000FEFE00000000000000007F7FCA
:100C30000000000000000202FEFC000000000000B6
:100C400040407E3E010100000080C0C0C080808026
:100C5000C0000001000000010101000000000000D0
:100C6000240027002A002D00000000002300260099
:100C700029002C000A0D0E090003020000040508DB
:100C80000000000000000000000000000000000163
:100C90000204081020408001020408102001020410
:100CA00008102040804001020408000000002500D8
:100CB00028002B002E00040404040404040402028F
:100CC00002020202030303030303020203050505F4
:100CD0000500B826FA3611241FBECFEFD8E0DEBFDC
:100CE000CDBF14BE0FB6F894A895809160008861BE
:100CF00080936000109260000FBE14E0A0E0B1E0AD
:100D0000E6E3F0E702C005900D92AA3EB107D9F7DD
:100D100028E0AAEEB4E001C01D92AF30B207E1F7BF
:100D200016E0CAE6D6E004C02197FE010E94EF3724
:100D3000C936D107C9F70E946F270C940F3860C9D4
:100D4000FC01AC01425E5F4F8FEF9FEF2191822744
:100D500028E0BC016170772796958795672B21F075
:100D600031E0832730EA9327215099F7E417F507FC
:100D700069F708954F925F926F927F928F929F9240
:100D8000AF92BF92FF922091F5073091F60782173C
:100D9000930708F043C02B0166247724852E962EF6
:100DA000A72EBB24B82DA42F2091FB07F42C2223BF
:100DB00091F0E22FF0E0E49DD001E59DB00DF49DAF
:100DC000B00D1124FB2E289D40011124B92D249F24
:100DD00090011124A32FE09101082091FC0730918C
:100DE000FD075091FE07E51323C0FC01EE0FFF1F26
:100DF0008E0F9F1F820F931FE091FE07E80FF92FC0
:100E0000F11DF082E091FF07E80FF92FF11DB0838B
:100E100020910008820F911DFC01A083FF90BF90DC
:100E2000AF909F908F907F906F905F904F900895BC
:100E3000880F991F880F991F820F931FE80FF92FB2
:100E4000F11D1082D9CF82508D3008F03EC0E82FBE
:100E5000F0E0E35DF84F0C94EF37620766073A075E
:100E600040076507650744074A074E0754076507AB
:100E700058075E07809180008F77809380000895E7
:100E8000809180008F7DF9CF8091B0008F77809323
:100E9000B00008958091B0008F7DF9CF80919000CF
:100EA0008F77809390000895809190008F7DF9CF87
:100EB0008091A0008F778093A00008958091A0007A
:100EC0008F7DF9CF84B58F7784BD089584B58F7DEC
:100ED000FBCFCF93DF93282F30E0F901EC58F34F8D
:100EE0008491F901E157F34FD491F901EA54F34F9A
:100EF000C491CC2399F08111A6DFEC2FF0E0EE0F26
:100F0000FF1FE859F34FA591B491EC91ED2381E0D7
:100F100090E009F480E0DF91CF91089580E090E0C7
:100F2000FACF1F93CF93DF93282F30E0F901EC58CD
:100F3000F34F8491F901E157F34FD491F901EA5449
:100F4000F34FC491CC23A1F0162F81117CDFEC2F3D
:100F5000F0E0EE0FFF1FE655F34FA591B4918FB768
:100F6000F894EC91111108C0D095DE23DC938FBF6B
:100F7000DF91CF911F910895DE2BF8CFCF93DF93B0
:100F800090E0FC01E157F34F24918A54934FFC0108
:100F900084918823C9F090E0880F991FFC01E45ADE
:100FA000F34FA591B491FC01E655F34FC591D4914F
:100FB00061110DC09FB7F8948C91209582238C937A
:100FC0008881282328839FBFDF91CF9108956230C5
:100FD00051F49FB7F8943C91822F809583238C9392
:100FE000E8812E2BEFCF8FB7F894EC912E2B2C931A
:100FF0008FBFEACF883038F092EF980F9B30A8F07F
:101000008931A8F083518770806480937C0080913F
:101010007A00806480937A0080917A0086FDFCCF0C
:1010200080917800909179000895892FECCF8FEF0F
:10103000EACF3FB7F8948091D2069091D306A09161
:10104000D406B091D50626B5A89B05C02F3F19F050
:101050000196A11DB11D3FBFBA2FA92F982F882738
:10106000BC01CD01620F711D811D911D42E0660F13
:10107000771F881F991F4A95D1F70895A9E0B0E01E
:10108000E4E4F8E00C945F378091FC079091FD0751
:10109000892B09F47AC0CDDF009102081091030872
:1010A00020910408309105086017710782079307A3
:1010B00040F46093020870930308809304089093AF
:1010C000050800910208109103082091040830914E
:1010D0000508601B710B820B930B6C32714081050C
:1010E0009105C8F2F8948091F7079091F8079A83D8
:1010F0008983E091FC07F091FD07DF011196808163
:1011000089879091F307E0910608F0910708809194
:101110000808992309F43DC09081982B9887908105
:10112000809589238F838F818C8388E08B8358857A
:101130006F8149853B812C8189819A81508347FD4C
:10114000252F3A952083262F39F0441F00C0000038
:101150006083000000C0F2CF38E04D916083000052
:10116000019761F7F0930708E093060849873B83EE
:101170002C839A83898378945CDF60930208709350
:10118000030880930408909305082996E4E00C94E2
:101190007B379081982B98879081809589238F83C6
:1011A0008F818E8388E08D8358856F8149853D814D
:1011B0002E8189819A81508347FD252F00C000C070
:1011C000208300C000C000C000C000C060830000D9
:1011D000262F3A9541F0441F000000C000C000C017
:1011E00000C000C0E8CF38E04D9100C0608300C06F
:1011F000019709F7F0930708E093060849873D83B4
:101200002E83B7CF8F929F92AF92BF92CF92DF92F1
:10121000EF92FF926B017C010CDF4B015C01C1146A
:10122000D104E104F104B1F004DF681979098A09F5
:101230009B09683E73408105910588F321E0C21A3D
:10124000D108E108F10888EE880E83E0981EA11C01
:10125000B11CE5CFFF90EF90DF90CF90BF90AF90A3
:101260009F908F9008952FB7F8946091CE0670915B
:10127000CF068091D0069091D1062FBF0895B0E09F
:10128000A0E0E5E4F9E00C9459376C017B018B0197
:10129000040F151FEB015E01AE18BF08C017D10780
:1012A00059F06991D601ED91FC910190F081E02D0A
:1012B000C6010995892B79F7C501CDB7DEB7EAE0FC
:1012C0000C947537AB01BC0186ED96E0D8CFA2E057
:1012D000B0E0EDE6F9E00C945D378C017C018AE02A
:1012E000E80EF11CF80181918F01282F30E094E085
:1012F000359527959A95E1F72A3031059CF4205DC4
:1013000029838F708A3080F4805D8A8362E070E088
:10131000CE010196D7DFE016F10621F72296E6E02E
:101320000C947937295CECCF895CEFCFFC01538DAD
:10133000448D252F30E0842F90E0821B930B5417AF
:1013400010F0CF96089501970895FC01918D828D3C
:10135000981761F0A28DAE0FBF2FB11D5D968C91D5
:10136000928D9F5F9F73928F90E008958FEF9FEF14
:101370000895FC01918D828D981731F0828DE80FD0
:10138000F11D858D90E008958FEF9FEF0895FC018A
:10139000918D228D892F90E0805C9F4F821B910957
:1013A0008F739927089586ED96E0F1DF21E0892B70
:1013B00009F420E0822F0895FC01A48DA80FB92F15
:1013C000B11DA35ABF4F2C91848D90E001968F736D
:1013D0009927848FA689B7892C93A089B1898C918C
:1013E000837080648C93938D848D981306C00288DB
:1013F000F389E02D80818F7D80830895EF92FF92A5
:101400000F931F93CF93DF93EC0181E0888F9B8D27
:101410008C8D981318C0E889F989808185FF13C0E5
:101420009FB7F894EE89FF896083E889F989808104
:101430008370806480839FBF81E090E0CDB7DEB78A
:10144000E6E00C947937F62E0B8D10E00F5F1F4FFE
:101450000F731127E02E8C8D8E110BC00FB607FC79
:10146000FACFE889F989808185FFF5CFCE01A4DF25
:10147000F2CFEB8DEC0FFD2FF11DE35AFF4FF08201
:101480009FB7F8940B8FEA89FB8980818062D2CF65
:10149000CF93DF93EC01888D8823B1F0AA89BB89B3
:1014A000E889F9898C9185FD03C0808186FD0CC097
:1014B0000FB607FCF7CF8C9185FFF2CF808185FFB7
:1014C000EDCFCE0179DFEACFDF91CF91089580E0B3
:1014D00090E0892B21F067DF81110E94000080E0FD
:1014E00090E0892B49F080E090E0892B29F00E9460
:1014F000000081110E9400000895CF93DF93EC015A
:101500008D85882329F081508D87DF91CF910895B3
:101510009C818E819817C8F788896827E881F981AE
:101520000084F185E02D42E0CE0109958C818F5F2A
:101530008C83EBCFDC011E96ED91FC91849131966A
:10154000E491982F8E2F0895B0E0A0E0EAEAFAE047
:101550000C945B37EC0110E000E0E990EE2041F0E4
:101560008091890790918A07009741F410E000E08C
:10157000C801CDB7DEB7E8E00C947737FC013496AC
:10158000C4903196E491EC1488F3F12CD12CEC0D3D
:10159000FD2DF11DEE16FF064CF78BE797E0CADF35
:1015A000E0918907F0918A0720918C070297D0F08B
:1015B00086E0E80EF11CEC18FD08EE0DFF1DE4912D
:1015C000E29FE02D1124EE2389F28091840790910F
:1015D0008C07899F802D11248E0F9927991F080F42
:1015E000191FBBCF3296EBCFCF93DF93EC017F87F0
:1015F0006E87672B39F09EDF019721F41986DF9102
:10160000CF91089581E08987FACF81E08093940596
:1016100080918202882389F08091A906882369F04D
:1016200008DD68577C4E8F4F9F4F609390057093F5
:10163000910580939205909393050895DC01ED91B7
:10164000FC910084F185E02D40E009950895CF9349
:10165000C82F61E88BE797E0F1DF6C2F8BE797E00D
:10166000EDDFCF9108950F931F93CF938C01FC0171
:101670006483C085C60F6C2F6F70E0DF6C2F62959E
:101680006F706061C801DADFCF911F910F910895EB
:10169000FC012781269526952695621730F46583EF
:1016A0002385620F6770606BC9CF08951F93CF9336
:1016B000DF93EC01142F8E81681710F4CE01D3DF75
:1016C000612FCE01E5DFDF91CF911F910895B0E04A
:1016D000A0E0EDE6FBE00C945B37EC01F62EC42EA7
:1016E000D22E1D868F81869586958695081710F0D7
:1016F0000FEF080F1D2D011770F0412F6F2DCE0138
:10170000D5DFEF2CCE1428F06889CE01F6DEE39405
:10171000F9CF1F5FF0CF4D2D6F2DCE01C7DFCDB7B5
:10172000DEB7E8E00C9477370F93DC0115962C9127
:1017300015971E96ED91FC911F9700E0309779F078
:101740003396E491F0E0379683E0F595E7958A9536
:10175000E1F751960C9151970E9F002D1124EFEF58
:10176000E20F0E0F16964C911697415014966C91FD
:101770001497CD01ACDF0F910895A6E0B0E0E3EC43
:10178000FBE00C945137FC01068517850115110506
:1017900009F427C19E838D83F801329664903196B7
:1017A000A490EA2CF12CF7E0EF0EF11C23E0F59465
:1017B000E7942A95E1F7E982F8013496849131960D
:1017C000E491681748F0CE2ED12C9601280F311DD8
:1017D000621713060CF44FC06D3081F4ED81FE8169
:1017E0008681811106C081E090E02696E2E10C94AA
:1017F0006D3760E08D819E8136DFF5CF6A3009F06C
:10180000F0C0ED81FE818681882319F060E0CF0170
:101810002ADFED81FE8181898E9DE02C1124658176
:101820006E0D8485882349F09781969596959695B7
:101830008E2D891B860F181624F08D819E8128DF3E
:10184000D2CFED81FE812385820F877083879E1919
:101850009583CF0169DFED81FE818485813009F0B8
:10186000C2CF6385660F660F660F6F736287606411
:10187000CF01E4DEB8CF0A5F1F4FB62EB81AED8154
:10188000FE8191858189989F802D11248C83CF01C1
:1018900051DE029708F067C06E9CC0016F9C900DEE
:1018A0001124B89E6001B99ED00C11240C0D1D1D91
:1018B000512CED81FE81F481FA83ED81FE8125803A
:1018C000F585FB83862C912CAA24A394B12C312C72
:1018D0008981381608F083C0412CED81FE81818911
:1018E000481608F075C08B818587311002C04420EE
:1018F00039F0ED81FE8145814F5F6A81CF01D6DEEF
:10190000D12CC12CC61408F057C0F801EC0DFD1DF8
:101910007490552061F0EA14FB0449F4E72DF0E0DF
:10192000052C02C0F595E7950A94E2F77E2EED812D
:10193000FE818189823079F4442009F439C072949F
:101940008FE07822E72DF0E0ED52FF4F7490672D85
:101950008D819E81D2DD672D8D819E81CEDD8FEFC1
:10196000C81AD80ACFCFEA2DE77088E0582E5E1A41
:10197000E11101C0512CF801612C90E080E06B1462
:1019800031F02491820F911D63943196F8CF600E4F
:10199000712E711CF3016490E89EF001E99EF00D38
:1019A000F89EF00D1124CE0EDF1E0C0D1D1D81CFF3
:1019B000F72DFF707F2EC6CFD12CEC81DE1631F0D3
:1019C00060E08D819E8199DDD394F7CF439485CFDC
:1019D0003394080D191DFFEFAF1ABF0A79CF622D9E
:1019E0002CCF90E080E001CF0F93CF93DF93EC01F9
:1019F0001B861A8660E422DE0F8106950695069501
:101A000001504E81415020E060E0CE0160DEDF9168
:101A1000CF910F910895DC019EE021E227BFE92FCD
:101A2000FF2784918D939F5F9831C1F708952F927E
:101A30003F924F925F927F928F929F92AF92BF920E
:101A4000CF92DF92EF92FF920F931F93CF93DF938A
:101A50004FB7F894209180053091810580917E05E3
:101A600090917F054FBF40918205042E02C03595AD
:101A700027950A94E2F702C0959587954A95E2F773
:101A80009FB7F89440918605509187054091840551
:101A9000509185059FBF8802C00111242202800D4C
:101AA000911D112490938E0580938D058FB7F89426
:101AB0008090890590908A05A0908B05B0908C0548
:101AC0008FBF80910B0190910C01A0910D01B091FD
:101AD0000E0188159905AA05BB05C1F1C0918D05B8
:101AE000D0918E0580911701811144C0D0930401DB
:101AF000C093030181E090E090930601809305017B
:101B000088E290E09093080180930701D0930A0146
:101B1000C093090181E08093170180920B0190929C
:101B20000C01A0920D01B0920E0120EF820E29E46B
:101B3000921E22E0A21EB11C80920F019092100111
:101B4000A0921101B092120110928805809188052F
:101B5000DF91CF911F910F91FF90EF90DF90CF9089
:101B6000BF90AF909F908F907F905F904F903F90ED
:101B70002F900895709018017110C2C02091030138
:101B8000309104012C173D07D8F4CE01821B930B32
:101B9000B4E096958795BA95E1F7AC01420F531FD3
:101BA00050930401409303014C175D0738F52F5FF4
:101BB0003F4F892BF9F0809103019091040126C0D9
:101BC000C217D307C0F7A9014C1B5D0BA4E05695C3
:101BD0004795AA95E1F7C901841B950B90930401E1
:101BE00080930301C817D90730F7452B09F07DC151
:101BF00021503109309304012093030180910301A6
:101C000090910401C817D90708F46FC19E01281BE1
:101C1000390BC901209105013091060128173907B8
:101C200008F066C1AC01421B530BF4E05695479592
:101C3000FA95E1F7B901640F751F7093060160937F
:101C400005016817790728F42F5F3F4F452B09F4EA
:101C50006AC18091050190910601892B31F481E0E0
:101C600090E0909306018093050180910F0190917F
:101C70001001A0911101B09112010097A105B105C9
:101C800029F088169906AA06BB06D0F12091050115
:101C900030910601C901880F991F820F931F8A3066
:101CA000910510F48AE090E020910701309108013D
:101CB0008217930708F03CC1A901481B590B5695A0
:101CC0004795569547954115510511F441E050E06F
:101CD000241B350B2817390708F42AC13093080153
:101CE00020930701D501C4018051964BAD4FBF4FE2
:101CF00080930F0190931001A0931101B0931201F2
:101D00004091070150910801CA01969587959695D3
:101D10008795009739F431E020E0452B09F430E055
:101D2000832F922F20910501309106017901EE0C4D
:101D3000FF1C4AE0E416F10418F41AE0E12EF12C3D
:101D4000E816F90608F47C018091030190910401E2
:101D5000AC0170E060E01C012B012E0C3F1C411C0B
:101D6000511CE80EF91E21143104E1E04E06510425
:101D700018F0EE24EA94FE2C8E159F0508F0DDC0C5
:101D80008701081B190B0930110508F4D6C008504B
:101D900011090217130708F48901400F511F611D33
:101DA000711D080F191F411551056140710510F093
:101DB0000FEF1FEFC0900901D0900A0154DAAB0178
:101DC000BC01711038C0809119018823A1F1CC1693
:101DD000DD0688F5CE15DF0570F19FB7F894809287
:101DE000650690926606A0926706B092680681E04A
:101DF000809369069FBF80931801DB01CA01805B55
:101E00009F4FAF4FBF4F8093130190931401A09346
:101E10001501B093160110921901D501C40180512A
:101E2000964BAD4FBF4F80930F0190931001A0933D
:101E30001101B093120180911801882309F485C023
:101E400080910301909104019E01281B390B8C178E
:101E50009D0710F030E020E0E0910501F0910601CF
:101E6000CF01880F991F8E0F9F1F8A30910510F4A4
:101E70008AE090E08217930708F4C90120910701D6
:101E8000309108012817390720F4909308018093B6
:101E90000701D501C4018051964BAD4FBF4F8093D0
:101EA0000F0190931001A0931101B0931201809142
:101EB000130190911401A0911501B0911601481BD6
:101EC000590B6A0B7B0B77FF3BC081E08093880541
:101ED000D0930A01C093090180920B0190920C01EA
:101EE000A0920D01B0920E0131CE8C1B9D0B92CEB3
:101EF0008217930708F0ADCEA901481B590BE4E007
:101F000056954795EA95E1F7241B350B309306016A
:101F1000209305018217930708F09BCE452B09F00B
:101F200098CE21503109309306012093050191CEBE
:101F30009093080180930701D5CE10E000E029CFEF
:101F4000C017D10710F61092180181E08093190193
:101F500010928805BDCF8FB7F89410926506109245
:101F600066061092670610926806109269068FBF87
:101F700010926E0610926F06109270061092710603
:101F800087E1EAEDF2E0A3E0B1E001900D928A95DD
:101F9000E1F71092880510927E0608958FB7F894A5
:101FA00010926A0510926905109237051092380553
:101FB00010922E05109233051092340510923505BB
:101FC0001092360591E090936A058FBF0895ECE773
:101FD000F0E080E68083808181E080937805109234
:101FE000A000E1EAF0E010821092A5001092A40097
:101FF0008FE990E09093A9008093A8008AE0808305
:10200000E2E7F0E08081826080831092790583E1CD
:1020100080932905C3DF10927B008EED80937A00B8
:1020200083EA9AE3A0E0B0E0809372059093730591
:10203000A0937405B093750585E090E090938305B7
:1020400080938205089520917E022223C9F0809119
:102050007F02482F50E0FA01EE0FFF1FEE0FFF1F27
:10206000EA58FD4F60817181828193814F5F5F4F9C
:102070004170552740937F02215020937E0208959E
:1020800060E070E0CB0108952091390230913A026E
:10209000C901880F991F820F931F8830910510F492
:1020A00088E090E0209144023091450228173907DA
:1020B00020F49093450280934402809137029091DE
:1020C000380220914602309147022817390720F440
:1020D0009093470280934602109249028CE89AE05E
:1020E00090934D0280934C020895109270021092CA
:1020F00056021092570210925802109259021092F2
:102100005B0210925A0210926802109269021092B9
:102110006A0210926B0210926C0210926D02109281
:102120006E0210926F02109271021092720210925F
:102130007302109274021092750210924E02109265
:102140004F021092500210925102109255021092BA
:10215000540210927E0210927F021092800281E05F
:10216000809381021092A50610929006109291061B
:10217000109292061092930610928C0610928D0681
:1021800010928E0610928F0610927D0610927C0699
:10219000E4E9F6E010821182128213821482158221
:1021A0001682178210860895A4E1B0E0EAEDF0E10E
:1021B0000C9451378FB7F89440906F054A868FBFC3
:1021C00090E0332433944FB7F89480913805212C54
:1021D000882339F180913705282F30E0F901EE0F7F
:1021E000FF1FE75AFA4F00811181220F331F220F80
:1021F000331FF901E75CFA4FC080D180E280F380A1
:10220000C982DA82EB82FC828F5F883008F080E03E
:1022100080933705809138058150809338052224BA
:1022200023944FBF222009F469C68091250590911F
:102230002605A0912705B09128050196A11DB11D85
:102240008093250590932605A0932705B093280534
:102250008091A7069091A8060817190720F01093FF
:10226000A8060093A706D090A801D98680913902CC
:1022700090913A02E0903702F0903802FE82ED82AF
:102280002D2D203408F42CC3A0904402B0904502B8
:10229000A501A816B90608F0AC017A018D809E80D0
:1022A000840E951E60914302662309F443C0809119
:1022B0003D0290913E0261E08017910708F060E0D6
:1022C00020913B0230913C0276E0729FA001739F07
:1022D000500D11249801281B390B4217530754F550
:1022E0000815190538F18017910718F580914A02F1
:1022F0008F5F80934A029501A5E0B0E00E94AA3763
:1023000024E630E040E050E00E9488372430310578
:1023100010F424E030E02E153F0508F497014D80BD
:102320005E80240D351D61E00217130738F460E06C
:1023300005C060E010924A026111DDCF801691065F
:1023400010F0309281026D807E806016710608F078
:1023500045C16801C618D708DE86CD868091720215
:1023600090917302A0917402B09175022091800245
:102370000097A105B10509F4FCC549805A806B801E
:102380007C80481A590A6A0A7B0AD301C201662373
:1023900009F4F1C5B7FDEFC52D832111B5C0C0907B
:1023A0003F02D0904002E0904102F09042028091C2
:1023B0003D0290913E028017910708F012C18815E6
:1023C000990508F00EC1F801E81BF90BD401A81B10
:1023D000B90B29813A814B815C812C193D094E0949
:1023E0005F0921F421E030E040E050E00E944737EF
:1023F0009F0150E040E00E948837C20ED31EE41EC9
:10240000F51E409068025090690260906A027090D8
:102410006B02411451046104710461F0E1E0D701E1
:10242000C60184199509A609B7098136934EA641BC
:10243000B10508F0E0E080916C0290916D02A091EE
:102440006E02B0916F028F87988BA98BBA8B892B04
:102450008A2B8B2B91F091E09D83B701A6018F858C
:102460009889A989BA89481B590B6A0B7B0B41369D
:10247000534E6641710508F01D82A501569547959A
:10248000569547955C8B4B8B4830510520F448E0BE
:1024900050E05C8B4B8B20917002222309F4CBC05F
:1024A0008F859889A989BA890097A105B10509F492
:1024B0009DC0A7019601281B390B4A0B5B0B2136E7
:1024C00030494F40510508F491C09501A7E0B0E0B4
:1024D0000E94AA37DC01CB01F3E0B695A79597954A
:1024E0008795FA95D1F78F309105A105B10520F4B4
:1024F0008FE090E0A0E0B0E02D853E8528173907F9
:1025000008F074C0F2DDC0DD809154029091550254
:10251000009729F0019790935502809354025091AF
:102520004902752E73247D822985203458F0772046
:1025300049F031E03D838091540290915502892BFE
:1025400009F01D8240917002442309F4D7C18091A3
:10255000680290916902A0916A02B0916B0260EEEC
:10256000462E61EB562E66246A94762C481A590A38
:102570006A0A7B0AD301C201C980DA80EB80FC8041
:102580008C0D9D1DAE1DBF1D21E02D8781339A4A04
:10259000AC40B10508F01D868091A801803408F098
:1025A000AFC160E04985403408F42BC24D8441102E
:1025B00035C580914A02811147C380918002811103
:1025C00043C38091490281113FC34D80442009F4E7
:1025D0003BC38016910608F01CC236C31E861D86BA
:1025E000BDCEC980DA80EB80FC800BCF3D813111FC
:1025F00003C0EE2309F486CFD701C60184199509DB
:10260000A609B709803824E892072EE1A207B10590
:1026100008F4E0C06ADD38DD4D855E854F30510538
:1026200008F472CFC0925602D0925702E09258023C
:10263000F092590269CF80915202909153028B34EB
:10264000910508F061CF4D845E846B887C884614C8
:10265000570408F459CF8091560290915702A091E7
:102660005802B09159020097A105B10569F4C092D2
:102670005602D0925702E0925802F09259025092BC
:102680005B0240925A0240CFA7019601281B390BEA
:102690004A0B5B0BDA01C901A901BD01405B5C4338
:1026A0006F4F7F4F403452446F40710550F480911A
:1026B0005A0290915B024D845E8484159505B8F2B0
:1026C00023CF81399540A041B10508F08CC010920C
:1026D000560210925702109258021092590210920C
:1026E0005B0210925A02C0926802D0926902E09294
:1026F0006A02F0926B02309270021092710289812C
:102700009A81AB81BC818051964BAD4FBF4F809376
:10271000720290937302A0937402B0937502909129
:102720007F0280917E02823019F49F5F917081E078
:10273000292F280F21702B871C86EB85FC85EE0F37
:10274000FF1FEE0FFF1FEA58FD4FC082D182E282C9
:10275000F38290937F028F5F80937E0244E650E085
:1027600060E070E08DE090E00E94BA060E94050BE8
:102770000E9433096C597F4F8F4F9F4F609395058F
:1027800070939605809397059093980530928002F8
:1027900020E6C20E2AEED21EE11CF11CC0924E02AF
:1027A000D0924F02E0925002F092510240E653E084
:1027B0005093550240935402309249028EE0809328
:1027C00048028CE89AE090934D0280934C0210925C
:1027D00081029ACE20915202309153022B3431055E
:1027E00068F083DC51DCC0925602D0925702E0922E
:1027F0005802F09259024D845E8441CF2C013D0174
:1028000020E2420E2EE4521E611C711C30E443167D
:1028100032E453063FE06306710418F4109271022B
:1028200073CE813640E994074FE0A407B10508F460
:1028300047C081399540A041B10588F59501A7E0D1
:10284000B0E00E94AA37DC01CB01E3E0B695A79582
:1028500097958795EA95D1F78F309105A105B10538
:1028600020F48FE090E0A0E0B0E0ED85FE85E81771
:10287000F90748F0C0926802D0926902E0926A02B9
:10288000F0926B023ACF80917102882309F4CAC397
:102890002D853E854B895C892417350758F720E83C
:1028A000421624E852062EE16206710418F7809160
:1028B00071028F3F09F428CE8F5F8093710224CE7E
:1028C000C50166E070E00E94C8376730710510F4FA
:1028D00067E070E04D845E844616570658F614CEC5
:1028E0006D807E80680E791E6016710620F0109251
:1028F000800230928102912C812C06CE2D864CCE06
:102900002091390230913A0269E0629FC001639FD1
:10291000900D11242091370230913802820F931FBD
:102920008017910728F0109253021092520239CE6C
:1029300080915202909153028F3F980729F001969F
:1029400090935302809352024423C1F08091680215
:1029500090916902A0916A02B0916B0249805A80FD
:102960006B807C80481A590A6A0A7B0AD301C2012B
:1029700061E0813E9441AE42B10508F460E080918F
:102980006C0290916D02A0916E02B0916F02722D57
:102990000097A105B10589F049805A806B807C8041
:1029A000481A590A6A0A7B0AD301C20171E08136CA
:1029B0009049AF40B10508F470E0809152029091C7
:1029C00053022091540230915502232B59F4511196
:1029D00009C020918002211105C020917E0222238E
:1029E00009F4F5C2803831E0930708F0DACD6623A8
:1029F00031F08F3F910509F008F4D4CDD2CD622D8E
:102A0000D1CD5D80552009F41FC16D84662009F485
:102A10001BC1611119C17090A80179864091A7016D
:102A200050E08090A9019090AA01A090AB01B090D5
:102A3000AC016801F12CE12CCD82DE82EF82F886B8
:102A4000C090AD01D090AE01E090AF01F090B00128
:102A50009801D8010E94AA372B013C01FA01319656
:102A60009F012F733327388B2F87440F551FE9851C
:102A7000E03408F076C0495D5E4FDA010D931C9397
:102A80002D813E814F815885820E931EA41EB51E56
:102A90008092A9019092AA01A092AB01B092AC01E0
:102AA000C40CD51CE61CF71CC092AD01D092AE013F
:102AB000E092AF01F092B0019E2F9F5F9093A8012A
:102AC0003F853093A7018091A801803408F4BCC0F1
:102AD000C090A901D090AA01E090AB01F090AC01A8
:102AE00086E0F694E794D794C7948A95D1F78090BE
:102AF000AD019090AE01A090AF01B090B00196E012
:102B0000B694A794979487949A95D1F7A7019601C4
:102B1000C701B6010E94B937681579058A059B057A
:102B200008F04EC024013501461A570A680A790A8E
:102B3000B301A2019601D0923802C0923702812CD3
:102B4000912CA12CB0E4BB2E481559056A057B05D4
:102B5000D8F5A2E0B694A79497948794AA95D1F754
:102B6000F3CFFA01E95DFE4FA081B1818A1A9B0A79
:102B7000A108B1082D813E814F815885820E931E98
:102B8000A41EB51E8092A9019092AA01A092AB0149
:102B9000B092AC019D010E94AA37C61AD70AE80A72
:102BA000F90AC40CD51CE61CF71CC092AD01D092EA
:102BB000AE01E092AF01F092B0011183008380CFAB
:102BC00040E050E0BA01B6CF80E090E0DC01811433
:102BD0009104A104B104F9F024013501480E591EF5
:102BE0006A1E7B1EB695A795979587954415550542
:102BF0006605770540F04419550966097709880D7F
:102C0000991DAA1DBB1DE2E0B694A79497948794E2
:102C1000EA95D1F7DCCFAA27BB270097A105B1051C
:102C200021F481E090E0A0E0B0E090933A0280933C
:102C3000390280914602909147028217930720F44F
:102C4000D0924702C092460280914302882309F441
:102C500040C02091320280913D0290913E02F801E5
:102C6000E81BF90B8091310290E0C0903302D090C4
:102C70003402E0903502F0903602AF01F7FF04C055
:102C8000442755274E1B5F0B052E000C660B770B58
:102C9000DC0111963D013FE363227724880F991FE1
:102CA000203408F05BC08F549E4FDC01ED93FC9301
:102CB000C40ED51EE61EF71EC0923302D092340217
:102CC000E0923502F09236022F5F2093320260923A
:102CD000310220913202211166C0E1E0F0E0F09370
:102CE0003C02E0933B028091A801803418F180916E
:102CF000460290914702209149028017910708F0FF
:102D000069C0109347020093460286E180934B020C
:102D1000211185C08091490281110CC080914C0223
:102D200090914D02009709F4B4C0019790934D0221
:102D300080934C0210933E0200933D0249805A80DA
:102D40006B807C8040923F02509240026092410230
:102D50007092420230924302922D35CA9C012F5448
:102D60003E4FD9018D909C9097FE03C09194819421
:102D70009108092C000CAA08BB08C818D908EA0851
:102D8000FB088F549E4FDC01ED93FC93C40ED51EBF
:102D9000E61EF71EC0923302D0923402E092350252
:102DA000F092360294CF30E050E040E06091330280
:102DB0007091340280913502909136020E948837DA
:102DC0002115310511F421E030E030933C022093CD
:102DD0003B0289CF211123C020914B02222309F409
:102DE00099CF215020934B02211194CF209137028B
:102DF00030913802821B930BF4E096958795FA95F3
:102E0000E1F7820F931F2817390708F49C013093CC
:102E100047022093460286E180934B027BCF80914C
:102E20004802882319F0815080934802809148021B
:102E3000811170CF40913702509138028091460243
:102E4000909147026091390270913A0248175907F0
:102E5000F0F4841B950B9B01220F331F260F371FA5
:102E60002817390708F49C01309345022093440247
:102E70005093470240934602109249027CE8472E45
:102E80007AE0572E50924D0240924C0243CFCB0134
:102E9000E2CF5CE8652E5AE0752E70924D0260928A
:102EA0004C028091390290913A029C01220F331F0B
:102EB000820F931F8430910510F484E090E02091FC
:102EC0004402309145028217930728F090934502FF
:102ED000809344022FCF6901C81AD90AC60196957A
:102EE000879596958795009711F481E090E0281BCF
:102EF000390B30934502209344021CCF8091240566
:102F00005A8485111DC08091200590912105A091C2
:102F10002205B09123050196A11DB11D80932005C6
:102F200090932105A0932205B093230581E0909111
:102F30007E02911101C080E06496E2E10C946D374D
:102F4000911113C080911C0590911D05A0911E0543
:102F5000B0911F050196A11DB11D80931C05909392
:102F60001D05A0931E05B0931F056A846092240579
:102F7000DDCF611111CA222309F4C6CA80914E0225
:102F800090914F02A0915002B09151020097A1057B
:102F9000B10509F4B9CA49805A806B807C80481A0F
:102FA000590A6A0A7B0AD301C201B7FDADCA8091F2
:102FB0008102882309F4A8CA1092800210924E025E
:102FC00010924F0210925002109251029DCA442357
:102FD00009F408CD772309F405CD8B34910508F465
:102FE00006CD83D851D82091390230913A02C901D7
:102FF000880F991F820F931F8430910510F484E08D
:1030000090E0909345028093440280913702909122
:1030100038029093470280934602C3CA5D805110E4
:10302000F8CC12CE20E8421624E852062EE16206C1
:10303000710408F441CC1ECC9FB7F89480916F05C1
:103040009FBF81508093240508958BE591E0E7E2CE
:10305000F1E0DF019C011D9221503040E1F781E059
:1030600090E090933A028093390290933C028093CF
:103070003B028FEF9FEFDC01809364029093650227
:10308000A0936602B093670281E08093810287E09B
:1030900090E090934502809344028CE89AE09093EC
:1030A0004D0280934C02C8DF0E94CE0FC5CF462F41
:1030B000682F8BE797E00E94560B8BE797E00C9404
:1030C000940B1F93CF93DF93EC01162F61E0411116
:1030D00001C060E08B890E94910780E58CBD81E092
:1030E0008DBD60E08A890E9491071EBD00000DB46D
:1030F00007FEFDCF8EB561E08A890E949107DF91BE
:10310000CF911F910895089590E080E0089581E0A7
:103110008093D8028093D7028093D6020895CF93EC
:10312000C091D202CC2339F01092810066EA8BE77D
:1031300097E00E941E0B8C2FCF910895CF93DF93C1
:10314000D0E0C0E040E050E0BA01CE010E94BA06F3
:103150002196CA31D105B1F70E943E08DF91CF9187
:10316000089581E08093C906809183024EEF5EEF5F
:103170006EEF70E090E00E94BA060E943E080E9446
:1031800033096093090870930A0880930B089093A1
:103190000C080895B0E0A0E0E0EDF8E10C945B3796
:1031A000C0910D05D0910E058E01000F111F075023
:1031B0001B4FF80140815181052E000C660B770BE7
:1031C000C0900F05D0901005E0901105F090120509
:1031D000C41AD50AE60AF70A81E10E94FA07F80143
:1031E00091838083092E000CAA0BBB0BBC01CD017F
:1031F0006C0D7D1D8E1D9F1D60930F057093100536
:1032000080931105909312052196CA30D10584F45C
:10321000D0930E05C0930D052AE030E040E050E069
:103220000E942B37C901CDB7DEB7E8E00C947737A1
:1032300010920E0510920D05EFCF2FB7F8949093D2
:1032400024018093230190932601809325012FBFB1
:1032500008950F931F93CF938091B2068823E9F0CE
:103260000E9419080091B3061091B4062091B5068A
:103270003091B606601B710B820B930B97FD0DC04E
:10328000CFB7F894109280001092810060E089E03E
:103290000E9491071092B206CFBFCF911F910F915C
:1032A00008950F931F930E9419080091150510911E
:1032B00016052091170530911805AB01BC01401B84
:1032C000510B620B730B8091840290918502B0E0E8
:1032D000A0E0481759076A077B0770F00E94190899
:1032E0006093150570931605809317059093180544
:1032F00081E01F910F91089580E0FBCFFC01DC017C
:103300008D91882389F080528F3538F01082E60F36
:10331000F71F3197108280E00895CD018E1B9F0B1F
:103320008617970768F3F2CFE60FF71F31971082E1
:1033300081E00895FB0101900020E9F73197AF018A
:10334000461B570BDC01ED91FC910280F381E02DCF
:10335000099508950F931F93CF93DF938C01D0E0CD
:10336000C0E0F801EC0FFD1F6491662341F086ED8B
:1033700096E00E94FE09892B11F02196F2CF6EECA7
:1033800073E086ED96E0D6DF8C0F9D1FDF91CF9125
:103390001F910F9108958F929F92AF92BF92EF92DB
:1033A000FF920F931F93CF93DF93CDB7DEB7A19713
:1033B0000FB6F894DEBF0FBECDBF7C01FA01CB0182
:1033C00019A2223008F42AE08E010F5D1F4F822ED1
:1033D000912CB12CA12CBF01A50194010E9488372A
:1033E000F901CA016A3004F5605DD8016E938D0160
:1033F000232B242B252B79F790E080E0109719F0F0
:10340000BD01C70197DFA1960FB6F894DEBF0FBECE
:10341000CDBFDF91CF911F910F91FF90EF90BF90A3
:10342000AF909F908F900895695CDFCFB0E0A0E0EF
:10343000ECE1FAE10C945B378C016B01770FEE083D
:10344000FF08F7FE1AC0DC01ED91FC910190F081BC
:10345000E02D6DE20995EC0144275527BA014C197E
:103460005D096E097F092AE0C80195DF8C0F9D1F59
:10347000CDB7DEB7E8E00C9477372AE0B701A601B4
:103480008ADFF6CFCF93DF93BC0186ED96E0CEDFE7
:10349000EC016EEC73E086ED96E04CDF8C0F9D1F27
:1034A000DF91CF910895462F50E070E060E02AE070
:1034B00072CFCF93DF93682F86ED96E0F4DFEC01B7
:1034C0006EEC73E086ED96E035DF8C0F9D1FDF918B
:1034D000CF9108950F931F93CF93DF938C01D0E08A
:1034E000C0E06115710511F025DFEC016EEC73E0B1
:1034F000C80120DF8C0F9D1FDF91CF911F910F918D
:103500000895CF93DF930E943309609373077093FC
:10351000740780937507909376078BE797E00E9476
:10352000F40C6AEE74E08BE797E00E94F40ACBE7B4
:10353000D7E080911D01898787E396E00E94A40A65
:103540006E8170E0681B790B769567954091A005B8
:10355000CE010E94560B67E376E0CE01BBDF80917F
:103560001C0189878DE196E00E94A40A6E8170E0BB
:10357000681B790B7695679540919F05CE010E9457
:10358000560B6DE176E0CE01A5DF80919A05898723
:1035900083E096E00E94A40A6E8170E0681B790BBC
:1035A0007695679540919E05CE010E94560B63E08B
:1035B00076E0CE018FDF80919905898789EE95E0CD
:1035C0000E94A40A6E8170E0681B790B769567955E
:1035D00040919D05CE010E94560B69EE75E0CE012B
:1035E00079DF81E089876AEE74E0CE010E94F40AF7
:1035F000DF91CF9108956115710509F09BCE90E0A0
:1036000080E0089580918602882359F041E066E1C8
:103610008BE797E00E94560B6AE273E08BE797E036
:10362000EACF08958091B80681110EC081E08093A1
:10363000B80645E066E48BE797E00E94560B6DE123
:1036400073E08BE797E0D7CF089545E06CE38BE715
:1036500097E00E94560B69EA73E08BE797E0CBCFC7
:1036600045E065E08BE797E00E94560B63E273E06C
:103670008BE797E0C0CFCF93DF93809183028111D6
:1036800028C08091B90641E0811112C06AE08BE741
:1036900097E00E94560B6BE273E08BE797E0ABDF9D
:1036A000609183028BE797E0FEDEDF91CF91089572
:1036B00069E18BE797E00E94560B69E273E08BE7C4
:1036C00097E099DF41E06DE28BE797E00E94560BAF
:1036D000E7CFC9E1D0E0C81BD1099091B106992389
:1036E00049F141E06AE08BE797E00E94560B67E5FD
:1036F00073E08BE797E07FDFBE01D7FF02C06F5F0B
:103700007F4F759567958BE797E090DE6DE273E0EC
:103710008BE797E070DF25E02C9FC0012D9F900D77
:1037200011246AE070E00E94DC37BC018BE797E06F
:103730007DDEBBCF9091B9069923F9F0853159F41C
:1037400041E069E38BE797E00E94560B6BE273E080
:103750008BE797E050DF41E069E18BE797E00E945B
:10376000560B67E573E08BE797E045DF84E18C9FBC
:10377000B0018D9F700D1124D9CF803159F441E0F3
:1037800064E18BE797E00E94560B6AE273E08BE7F7
:1037900097E031DF41E06AE08BE797E00E94560B4B
:1037A00067E573E08BE797E026DFBE01BFCF80912E
:1037B000B106882359F041E06CE38BE797E00E9463
:1037C000560B6FE273E08BE797E015CF8091B90657
:1037D00041E0882341F06BE48BE797E00E94560BB1
:1037E00064E373E0F0CF6CE28BE797E00E94560B46
:1037F00067E373E0E8CFCF932CDD80911B0588232E
:1038000091F010921B0510921A0510921905109252
:10381000B8060E94190860931505709316058093E9
:103820001705909318058091C306811138C08091C7
:10383000830281113FC080911A05811127C08091B8
:10384000B706811109C08091B906811105C067EAE8
:103850008BE797E00E941E0B80911905811112C021
:1038600081E0809319058091B1068823D1F041E071
:103870006AE28BE797E00E94560B6EE373E08BE7FA
:1038800097E0B9DEF8DE81E080931A050ADD88232F
:1038900031F0B8DE66EA8BE797E00E941E0BCF910D
:1038A000089545E066E48BE797E00E94560B60E4DC
:1038B00073E0E5CF9FEF980F9C3008F048C09091DF
:1038C0001A05911141C091E090931A05813011F4CD
:1038D000A9DE6DDFC0918302CC23B1F18091B106E6
:1038E0008823F1F041E064E18BE797E00E94560BFA
:1038F0006C2F669570E08BE797E098DD6DE273E0E2
:103900008BE797E078DE25E0C29FC00111246AE0D2
:1039100070E00E94DC37BC018BE797E087DD14C0C4
:103920008091B90641E08111ADC06AE08BE797E074
:103930000E94560B66E473E08BE797E05CDE6091D3
:1039400083028BE797E0AFDDACDC81115BDE809119
:1039500083028C30C9F58091B0068823A9F180914B
:103960001405811131C063E08EE1A1DB68E473E0EE
:103970008BE797E040DE80912301909124019093A2
:103980002601809325018091020191E0980F9431E6
:1039900008F089C09093020190E0880F991F9093DE
:1039A00024018093230181E0809314059091830288
:1039B000292F30E09C5040E050E0BA019D3008F0E3
:1039C00074C0C9010E94BA068091830293EF980FD8
:1039D0009C3008F064CF8D3009F070C08091B00643
:1039E000882349F082E090E09093240180932301A2
:1039F00063E080E05CDB80911A05811109C081E001
:103A000080931A051092B80665E086E450DB1DDE4F
:103A1000C1DB28E230E0DC010E94F5372CE231E026
:103A200040E050E00E942B37DA01C9010A96A11D3F
:103A3000B11D83339105A105B10524F082E390E027
:103A4000A0E0B0E08A309105A105B10524F48AE038
:103A500090E0A0E0B0E090930101809300019ADB38
:103A60008B38924044F181E080931305809183026A
:103A70008E3011F41092140514DC882309F40FCF52
:103A8000C1DD0DCF69E18BE797E00E94560B66E43C
:103A900073E08BE797E0AFDD6091830284E1689F7C
:103AA000B001112439CF91E075CFC9010E94BA0647
:103AB0000E943E0889CF10921305D8CF80911A0535
:103AC0008111D4CF81E080931A05D5DDCFCF0E943C
:103AD000FB37B0E0A0E0EFE6FDE10C945B37EB01D3
:103AE0007B0120E2E20EF11C8B016C01C61AD70AA1
:103AF000C601800F911F0E941537F80181938F0135
:103B0000EE15FF05A9F7CE01CDB7DEB7E8E00C94BE
:103B100077370C941537B0E0A0E0E1E9FDE10C94B3
:103B20005937EB012AE1FB0111922A95E9F76B0164
:103B3000FAE1CF0ED11C7B0111E001E05C01A61A75
:103B4000B70AC5018E0D9F1DE4DF8F3F19F000E01D
:103B50008823D9F090EE980F9F3508F010E0F70118
:103B600081937F01CE16DF0661F780E0198E011187
:103B700004C0882311F0111102C0188210E0812FB7
:103B8000CDB7DEB7EAE00C94753781E0EFCF0C9447
:103B90001D371F93CF93DF93EC01162F0E9415372B
:103BA000181721F0612FCE010E941D37DF91CF91B0
:103BB0001F91089563E588E790E0EBDF6CE489E707
:103BC00090E0E7DF61E38AE790E0E3DF61E08BE725
:103BD00090E0DFCFB0E0A0E0E0EFFDE10C945B37D8
:103BE0007C016B01D0E0C0E010E000E0111104C0E6
:103BF000F601EC0FFD1F0081602FC7018C0F9D1F88
:103C0000C8DF11110CC011E0011110E02196CA317A
:103C1000D10559F7CDB7DEB7E8E00C94773711E05E
:103C2000F5CF10925006809137068F3F11F4109215
:103C300037061092360680911D068F3F11F41092C0
:103C40001D0610921C06809103068F3F11F41092FE
:103C50000306109202068091E9058F3F11F410923D
:103C6000E90567E376E086E090E0B4DF6091A005C7
:103C7000673008F060E080E290E08BDF60911D012A
:103C8000673008F061E081E290E083DF6DE176E08B
:103C900082E290E09FDF60911C01673008F061E0F4
:103CA0008CE390E076DF60919F05673008F060E07C
:103CB0008DE390E06EDF63E076E08EE390E08ADFF4
:103CC00060919E05673008F060E088E590E061DF74
:103CD00060919A05673008F060E089E590E059DF6F
:103CE00069EE75E08AE590E075DF60919D056730CB
:103CF00008F060E084E790E04CDF60919905673060
:103D000008F060E085E790E044DF80911E0181507B
:103D10008E3F18F081E080931E0160911E0186E7BE
:103D200090E037DF60919C0587E790E032CFA1E714
:103D3000B0E0EDE9FEE10C9459371092800010924A
:103D4000810061E089E00E94BE0760E089E00E9496
:103D500091071092D8021092D7021092D60261E019
:103D600082E00E94BE0761E085E00E94BE0761E03C
:103D700082E00E9491078091F9079091FA0797FDE0
:103D800008C061E00E94BE0760E08091F9070E94D0
:103D9000910781E08093F4078093C906CFD962E34D
:103DA00070E080E090E00E94020961E085E00E94FE
:103DB000910762E080E10E94BE078CEF93E0A9DEEC
:103DC00091E0811101C090E09093B7068DEF93E0F0
:103DD0000E9415378093BB068EEF93E00E94153743
:103DE0008093BC0606E010E0C80193DE8F3F09F027
:103DF00017C20F5F1F4F08371105B1F711E067E3D6
:103E000076E086E090E087DED82E6DE176E082E213
:103E100090E081DEE82E63E076E08EE390E07BDEEA
:103E2000F82E69EE75E08AE590E075DE082F80E2F5
:103E300090E06FDE873008F080E08093A00581E29B
:103E400090E067DE873008F081E080931D018DE30C
:103E500090E05FDE873008F080E080939F058CE380
:103E600090E057DE873008F081E080931C0188E500
:103E700090E04FDE873008F080E080939E0589E572
:103E800090E047DE873008F080E080939A0584E771
:103E900090E03FDE873008F080E080939D0585E765
:103EA00090E037DE873008F080E08093990586E760
:103EB00090E02FDE9FEF980F9E3F08F0B3C18093F4
:103EC0001E0187E790E025DE815091E08E3F08F0EB
:103ED00090E090939C058E3F90F4DD2031F0EE2031
:103EE00021F0FF2011F001110AC010923706109244
:103EF0001D06109203061092E90510929C051123ED
:103F000011F11092370610921D06109203061092BE
:103F1000E9051092A00582E080939F0584E08093DC
:103F20009E0586E080939D0510921D0110921C0154
:103F300010929A051092990581E080931E011092CB
:103F40009C056FDE37DE8E010F5F1F4F580144E87E
:103F5000E42E43E0F42ED02EC12EC7010E94153767
:103F6000D5018D935D01BFEFEB1AFB0AE5EDEE166F
:103F7000E3E0FE0691F789819A818E3D904C09F429
:103F800053C163E573E087E892E00E94083863E577
:103F900073E08DE892E00E9408386EE473E083E9F4
:103FA00092E00E94083810929F0210929E02109296
:103FB000A0021092B90210E010939B05BE016E5A48
:103FC0007F4F80E293E085DD6D2D7C2D80E493E0D2
:103FD00080DD64968EAD9FAD64978E3D904C91F4DC
:103FE00065968FAD6597813069F4E296EEACFFACD3
:103FF000E297CE018E5A9F4F0E94A00611E0E8166C
:10400000F90609F010E089819A818E3D904C09F003
:104010002FC28B81813009F02BC2EF8CF8A08D2D3F
:104020009C2D0E94A006E816F90609F021C2111184
:1040300060C180E2ED2DFC2DA2ECB5E001900D9267
:104040008A95E1F781E090E09093E3058093E205A3
:104050008091CA059091CB054091CC055091CD053A
:104060006091CE057091CF054093BF065093C00676
:104070006093C1067093C20601969093BE0680932A
:10408000BD0681E08093E8058FEF93E042DD8E313D
:1040900039F08851823020F069E18FEF93E077DDCD
:1040A0008CEF93E036DD823020F060E08CEF93E01F
:1040B0006EDD80E10E946907892B79F48FEF93E030
:1040C00028DD6EE1893131F068E18E3119F08831F7
:1040D00021F469E18FEF93E05ADD8FEF93E019DD72
:1040E0008093AF0689EF93E014DD8093CA0664E104
:1040F00070E080E090E00E94020984E08093BA06BC
:10410000F8948091680088608093680080917300C3
:10411000886080937300789461E08AE00E94BE0713
:1041200060E08AE00E9491076AE070E080E090E041
:104130000E94020961E08AE00E9491076AE070E053
:1041400080E090E00E94020988E180938D0787E17A
:1041500080938E0761E088E10E94BE0761E0809154
:104160008E070E94BE071FB7F89480918F058111BA
:1041700027C0E0ECFCE08491E9E9FCE09491E82FB1
:10418000F0E0EE0FFF1FE45AF34FA591B491EC91CC
:10419000E92321F461E08AE00E94910761E08AE06E
:1041A0000E94BE078CB580618CBD8CB580648CBDCF
:1041B00061E08DE00E94BE0761E08BE00E94BE07D7
:1041C00080918F058F5F80938F051FBF10927F07AF
:1041D00010928007EDECF0E0C590D490EFECF0E0A9
:1041E000F490E0EDF0E0E491E0938107E1EDF0E0A0
:1041F000E491E0938207E2EDF0E0E491E09383073D
:1042000010E000E00F1508F093C0F801EC0DFD1D63
:1042100064918BE797E00E941E0B0F5F1F4FF2CF58
:1042200010E0EDCD81E04BCE8B81813009F0A9CE3D
:104230008C818B3409F0A5CEA801415B5F4F8FEFD5
:104240009FEFD8012D918D01922728E0BC01880FA6
:10425000991F77FF04C0B1E28B27B0E19B27215063
:10426000A9F70417150769F762962EAD3FAD62975F
:104270002817390709F085CE8BE4FE013596A7E8AB
:10428000B2E001900D928A95E1F766E070E087E870
:1042900092E034D8082F66E070E08DE892E02ED8E6
:1042A000182F6BE070E083E992E028D8F82E69E1DE
:1042B00070E080EA92E022D869E170E089EB92E058
:1042C0001DD8002321F080918702811110C0112395
:1042D00021F080918D0281116FCEFF2009F451CE23
:1042E000809193021F2D882309F44BCE65CE102FA9
:1042F00063CE6A964CAD5DAD6EAD7FAD6A978D8134
:104300009E81AF81B885481759076A077B0708F473
:1043100090CE80E2FE01EE5AFF4FA2ECB5E0019094
:104320000D928A95E1F71092E3051092E20590CE86
:104330008BE797E00E94F40C6BED8BE797E00E940F
:104340001E0B60E78BE797E00E941E0B6DE88BE782
:1043500097E00E941E0B64E98BE797E00E941E0B1A
:104360008FEF0E94270B62E370E080E090E00E94F4
:10437000020981E08093D9028093220110925F06A6
:1043800010925E0610926006109256060E94330943
:1043900060935706709358068093590690935A0677
:1043A00010925C0610925B0680917A008F7D80935C
:1043B0007A0087E880937A0061E087E00E94BE0778
:1043C00061E087E00E949107F894109290008AE0E3
:1043D0008093910082E0809371008091AF068831D4
:1043E00051F481EC92EA9093990080939800909315
:1043F0001B0180931A018091AF06893151F48FE33C
:104400009CE9909399008093980090931B0180936E
:104410001A018091AF068E3151F484E392E89093B3
:1044200099008093980090931B0180931A017894CF
:1044300082E090E0909324018093230181E08093B7
:10444000D20210929406109295061092960610923F
:104450009706109298061092990610929A0610925A
:104460009B0610929C06CF58DF4FEAE00C947537FC
:1044700011114FCFE4ECF5E08EE1DF011D928A953A
:10448000E9F78EED90EC9093C3058093C20581E02F
:104490008093C40582EC95E00E94A0069093E1050C
:1044A0008093E00540CF1F920F920FB60F92112418
:1044B0002F933F938F939F93AF93BF938091CE069B
:1044C0009091CF06A091D006B091D1063091CD0643
:1044D00023E0230F2D3768F126E8230F0296A11D54
:1044E000B11D2093CD068093CE069093CF06A09366
:1044F000D006B093D1068091D2069091D306A091B8
:10450000D406B091D5060196A11DB11D8093D206A7
:104510009093D306A093D406B093D506BF91AF91E4
:104520009F918F913F912F910F900FBE0F901F90F1
:1045300018950196A11DB11DD4CF1F920F920FB6F1
:104540000F9211242F933F934F935F936F937F9319
:104550008F939F93AF93BF93EF93FF9386ED96E076
:104560000E94DC09FF91EF91BF91AF919F918F91D4
:104570007F916F915F914F913F912F910F900FBE5F
:104580000F901F9018951F920F920FB60F92112443
:104590002F938F939F93EF93FF93E091E606F09113
:1045A000E7068081E091EC06F091ED0682FD1BC0EC
:1045B00090818091EF068F5F8F732091F0068217B4
:1045C00041F0E091EF06F0E0EA52F94F958F8093C9
:1045D000EF06FF91EF919F918F912F910F900FBE5A
:1045E0000F901F9018958081F4CF1F920F920FB6F5
:1045F0000F9211248F9380918202811104C08091C7
:10460000A906882349F080917A0086FD05C0809133
:104610007A00806480937A008F910F900FBE0F9084
:104620001F9018951F920F920FB60F9211242F937F
:104630003F934F935F936F937F938F939F93AF932A
:10464000BF93CF93DF93EF93FF9380917A0590917F
:104650007B05A0917C05B0917D050196A11DB11D42
:1046600080937A0590937B05A0937C05B0937D059C
:104670008091790590917C008111D3C0809178055B
:10468000882309F4C9C0809179008455990B9093CF
:1046900077058093760520917605309177054091D6
:1046A000BA06429FC001439F900D11249093770555
:1046B000809376058091720590917305A0917405A1
:1046C000B09175052091700530917105820F931F8F
:1046D0009093710580937005292F3327880F892FB8
:1046E000881F990B9195E0917605F091770527FF4A
:1046F00002C0E095F0956091760570917705205C99
:104700003F4F27FF02C0609570954091760550910C
:10471000770587FF02C0409550952091760530912E
:104720007705805C9F4F87FF02C020953095A09150
:104730008005B091810580918205C0918005D0915E
:104740008105082E02C0B595A7950A94E2F7EA1BE9
:10475000FB0BEC0FFD1FF0938105E0938005E091CA
:104760007E05F0917F05A0917E05B0917F05082E12
:1047700002C0F595E7950A94E2F76E1B7F0B6A0F6E
:104780007B1F70937F0560937E0560918605709115
:104790008705E0918605F0918705082E02C0759582
:1047A00067950A94E2F7461B570B4E0F5F1F509315
:1047B0008705409386054091840550918505609159
:1047C00084057091850502C0559547958A95E2F755
:1047D000241B350B260F371F309385052093840546
:1047E0000E9419086093890570938A0580938B0550
:1047F00090938C05809129058111BCC010922905E8
:1048000086E480937C0080917C008F7D80937C0087
:1048100080917C0082E0BAC0809179008058990B29
:1048200045CF90917800C0917900823009F0C3C0E3
:10483000DC2FC92FCE3F83E0D80710F0D0E0C0E0D6
:10484000D0937706C093760680916F058F5F809333
:104850006F0580916B0590916C05A0916D05B091ED
:104860006E050196A11DB11D80936B0590936C059B
:10487000A0936D05B0936E0580916A05882309F4B5
:1048800065C00E94190840916905242F30E0F901A4
:10489000EE0FFF1FE75AFA4FD183C083220F331F59
:1048A000220F331FF901E75CFA4F60837183828323
:1048B000938381E0840F883008F080E0809369055D
:1048C00080913805883030F5809138058F5F80936E
:1048D000380580912F0590913005A0913105B09158
:1048E00032050196A11DB11D80932F0590933005CF
:1048F000A0933105B09332059091380580912E0533
:10490000891720F48091380580932E0583E18093E8
:10491000290536C0809137058F5F883008F080E028
:10492000809337058091330590913405A09135052A
:10493000B09136050196A11DB11D8093330590936A
:104940003405A0933505B0933605C3CF80912A0571
:1049500090912B05A0912C05B0912D050196A11DDC
:10496000B11D80932A0590932B05A0932C05B0933D
:104970002D05CCCF815080932905882309F440CFA1
:1049800080E680937C0080917C0080E080937905B4
:10499000FF91EF91DF91CF91BF91AF919F918F9157
:1049A0007F916F915F914F913F912F910F900FBE2B
:1049B0000F901F901895813009F422CFA7CF1F9236
:1049C0000F920FB60F9211248F939F9380910E0830
:1049D00091E0892780930E089F918F910F900FBED1
:1049E0000F901F9018951F920F920FB60F921124DF
:1049F000CF92DF92EF92FF920F931F932F933F93EB
:104A00004F935F936F937F938F939F93AF93BF93D6
:104A1000EF93FF9380917A0690917B060196909395
:104A20007B0680937A0620917A0630917B068091EE
:104A30002301909124012817390708F456C1809169
:104A4000830210927B0610927A0691E090931B05E8
:104A50008F5F893108F072C1809383028091830255
:104A6000811164C01092F8048091D6028823A1F1CC
:104A70000E9433096093AA067093AB068093AC063C
:104A80009093AD061FB7F89480E4809380008AE08D
:104A9000809381008EE691E0909389008093880056
:104AA0000E941908605C704E8F4F9F4F6093B30651
:104AB0007093B4068093B5069093B60681E0809318
:104AC000B2061FBF0E9419086093F4047093F504A6
:104AD0008093F6049093F7048091D702882331F1F4
:104AE0008091B706882309F42CC18091B906811101
:104AF00028C181E08093C90610E000E044E654E656
:104B000064E670E0C8010E94BA060F5F1F4F0A31C9
:104B10001105A1F70E943E080E943309609309081D
:104B200070930A0880930B0890930C08809183027D
:104B30008C3011F58091B006811118C1809123014C
:104B40009091240190932601809325018091AF06D6
:104B50008E3151F48091B9068111F6C08CE090E05D
:104B600090932401809323018091AF06883109F04E
:104B7000FDC08DE080938302809183028D3009F027
:104B80005DC02091250130912601309324012093AE
:104B900023019091AF069931B9F42091BB06309171
:104BA000BC0640911A0150911B0137FF02C0295FDA
:104BB0003F4FB3E035952795BA95E1F7240F351FA0
:104BC00030939900209398009091AF069E31C9F4DC
:104BD0002091BB063091BC0640911A0150911B01F7
:104BE00037FF02C0295F3F4FA3E035952795AA956F
:104BF000E1F74C5E5F4F240F351F309399002093EF
:104C000098009091AF069831C9F42091BB0630917D
:104C1000BC0640911A0150911B0137FF02C0295F69
:104C20003F4FF3E035952795FA95E1F7405E5F4FEA
:104C3000240F351F30939900209398009091D8024B
:104C4000992309F452C09FEF980F9C30A0F491E093
:104C50009093C90690911305992309F478C00E9496
:104C6000B1180E9433096093090870930A08809371
:104C70000B0890930C08809183028C3039F490914A
:104C8000AF069E3119F491E09093F30493EF980FDF
:104C90009D3058F540910001C42ED12CF12CE12C0F
:104CA000B6015527442790E020911305222361F097
:104CB0003E2D2D2D1C2D0027402B512B622B732BAD
:104CC0004C295D296E297F290E94BA060E943E0860
:104CD00081E08093C9060E943309609309087093AC
:104CE0000A0880930B0890930C08809183028D3002
:104CF00071F480917A0690917B06019741F480913E
:104D00001A0190911B019093990080939800FF9154
:104D1000EF91BF91AF919F918F917F916F915F9133
:104D20004F913F912F911F910F91FF90EF90DF9046
:104D3000CF900F900FBE0F901F9018951092830286
:104D40008DCE0E94B118F2CE86E090E009CF40915E
:104D5000000150E070E060E0762F652F542F44276B
:104D600090E00E94BA060E943E087BCF8CE066CF9E
:104D7000CF93DF93E6EDF6E01382128288EE93E0A4
:104D8000A0E0B0E084839583A683B78381E093E0BD
:104D90009183808385EC90E09587848784EC90E014
:104DA0009787868780EC90E0918B808B81EC90E0F8
:104DB000938B828B82EC90E0958B848B86EC90E0D9
:104DC000978B868B118E128E138E148E0E94330950
:104DD00060937307709374078093750790937607B9
:104DE0000E9433096093770770937807809379075F
:104DF00090937A070E9433090E9433090E94330975
:104E00000E9433090E943309EBE7F7E01382128214
:104E10001486158617861686108AC1E0C18B83E139
:104E200093E0918380830E94330960930908709313
:104E30000A0880930B0890930C08A3EFB7E0119633
:104E40001C92119718961C9218971F961D921D92EE
:104E50001D921C9252971E96CC931E971B96CC9334
:104E60001B971C961C921C9782E01D968C931D9795
:104E7000CC93EFE8F7E01A96FC93EE9319978BE446
:104E800090E015969C938E931497EF0119928A9552
:104E9000E9F789E190E013969C938E9312978FE047
:104EA00090E017969C938E931697E5ECFCE0E491C6
:104EB000F0E0EE0FFF1FE655F34F85919491549665
:104EC0009C938E935397EEE9FCE0E4915596EC9316
:104ED00080910E0880930D08DF91CF910895A6E28E
:104EE000B0E0E5E7F7E20C945137789484B583603D
:104EF00084BD85B5836085BD80916E00816080939F
:104F00006E0012E010938100809181008160809397
:104F10008100809180008160809380008091B10049
:104F200084608093B1008091B00081608093B00074
:104F300080919100836080939100809190008160C6
:104F4000809390008091A10083608093A100809164
:104F5000A00081608093A00087E880937A0010927F
:104F6000C100109280001092810061E089E00E94EF
:104F7000BE0760E089E00E949107E091E606F091AB
:104F8000E7061083E091E606F091E7061082E091D3
:104F9000E206F091E3061082E091E406F091E50666
:104FA00080E180831092EE06E091EA06F091EB0634
:104FB00086E08083E091E806F091E90680818869C7
:104FC0008083E091E806F091E90680818F7D8083FF
:104FD0006CED75E080E090E00E940209209A17BE17
:104FE0000E94971E80919405882349F18090900536
:104FF00090909105A0909205B09093058114910432
:10500000A104B104C1F0809182028823A1F08091B3
:10501000A906882381F00E941908681979098A096C
:105020009B0997FD0CC0109290051092910510926B
:10503000920510929305109294050E943E0880906C
:105040006A0690906B06A0906C06B0906D06811475
:105050009104A104B104C9F00E94330968197909C7
:105060008A099B0997FD11C040E050E0BA018CE02D
:1050700090E00E94BA060E94050B10926A061092F8
:105080006B0610926C0610926D06809095059090BC
:105090009605A0909705B090980581149104A104FD
:1050A000B104C9F00E943309681979098A099B097A
:1050B00097FD11C040E050E0BA018DE090E00E9401
:1050C000BA060E94050B1092950510929605109253
:1050D000970510929805A4E02A2EB6E03B2E1DE815
:1050E000412E12E0512E07E8602E02E0702E86ED70
:1050F00096E00E94C7094C01892B09F4B0C286EDE5
:1051000096E00E94A5098D3091F3E091C1058A30A7
:1051100009F099C2AE2FB0E0AF55BA4F1C92E33000
:1051200031F58091A105893409F04AC28091A20528
:10513000843409F045C28091A3058F3309F040C241
:10514000CE0101960E940B0D63E070E08BEB93E0C3
:105150000E946209CE0101960E94670962E070E038
:105160008EEC93E00E9462091092C105C0CFE53039
:1051700009F0BFC18091A105893409F021C2809155
:10518000A2058E3409F01CC28091A305863409F073
:1051900017C28091A4058F3409F012C28091A50531
:1051A0008F3309F00DC2CE0101960E940B0D63E012
:1051B00070E08BEB93E00E946209CE0101960E94A1
:1051C000670962E070E08EEC93E00E9462098091D2
:1051D0009B05882309F477C186E391E00E94AA1910
:1051E00084E291E00E94AA1987E191E00E94AA1945
:1051F00063E070E08FEB93E00E94620980919B0571
:10520000882309F467C1D3010D900020E9F7BD019F
:105210006858724087E892E00E94620962E070E09C
:105220008EEC93E00E94620963E070E08EED93E003
:105230000E94620964E070E081ED93E00E946209DF
:1052400062E070E08EEC93E00E94620980919B0521
:105250008823B9F06BE070E086ED93E00E9462096C
:10526000F20101900020E9F7BF016E5872408DE80D
:1052700092E00E94620962E070E08EEC93E00E948E
:10528000620980919B0581110CC064E070E082EEA0
:1052900093E00E9462098091BB069091BC060E9437
:1052A000421A63E070E087EE93E00E946209809109
:1052B0009B05882309F413C163E972E086ED96E04B
:1052C0000E946A1A80919B058823D9F165E070E0FD
:1052D0008BEE93E00E94620940919E0250919F02E2
:1052E00070E060E02AE086ED96E00E94CB196EEC5B
:1052F00073E086ED96E00E949A1964E070E082EE19
:1053000093E00E9462098091BB069091BC060E94C6
:10531000421A69E070E081EF93E00E94620960EA5E
:1053200072E086ED96E00E946A1A6AE070E08BEF08
:1053300093E00E94620969EB72E086ED96E00E94BC
:105340006A1A63E070E086E094E00E94620967E315
:1053500076E086ED96E00E946A1A63E070E08AE0EB
:1053600094E00E9462096DE176E086ED96E00E948D
:105370006A1A63E070E08EE094E00E94620963E0E4
:1053800076E086ED96E00E946A1A63E070E082E1C2
:1053900094E00E94620969EE75E086ED96E00E9455
:1053A0006A1A67E070E086E194E00E9462098091E9
:1053B0009C0590E00E94421A65E070E08EE194E066
:1053C0000E94620980911E010E94591A63E070E0F8
:1053D00084E294E00E9462098091A0050E94591A1B
:1053E00063E070E088E294E00E94620980919F058A
:1053F0000E94591A63E070E08CE294E00E94620916
:1054000080919E050E94591A63E070E080E394E069
:105410000E94620980919D050E94591A63E070E024
:1054200084E394E00E94620980911D010E94591A50
:1054300063E070E088E394E00E94620980911C01BF
:105440000E94591A63E070E08CE394E00E946209C4
:1054500080919A050E94591A63E070E080E494E01C
:105460000E946209809199050E94591A83EE90E08A
:105470000E94AA196BE070E084E494E00E94620943
:1054800088E790E00E94891D833581F589E790E0E7
:105490000E94891D8C3451F58AE790E00E94891D95
:1054A000813321F58BE790E00E94891D21E090E097
:1054B000813009F020E0822F0E94421A66E070E0FD
:1054C00080E594E04FCE89E091E00E94AA1987EF31
:1054D00090E08CCE6DE070E083EC93E0A3CE62E0D0
:1054E00070E08EEC93E00E946209ECCE80E090E0E8
:1054F000E3CFE43009F047C08091A105833509F07E
:105500005FC08091A205813409F05AC08091A30543
:10551000863509F055C08091A405853409F050C046
:105520008091370681112DC080911D06811129C0FF
:1055300080910306811125C081E09091E9059111C8
:1055400001C080E080939C050E94111E80915E0640
:10555000882391F08090730790907407A09075074E
:10556000B09076070E94811A809273079092740718
:10557000A0927507B092760764E070E086E594E04B
:10558000F1CD81E0DFCFEE30C1F44EE050E064E4D5
:1055900071E081EA95E00E940837892B89F4109226
:1055A000A005F2E0F0939F0520929E0530929D05A4
:1055B0000E94111E0E94DA1DDFCFE33008F4D4CD23
:1055C0008091A1058C3409F0CFCD8091A3058D3356
:1055D00009F0CACD8091A2059FEC980F943008F095
:1055E000C3CD0DE116E0823351F003E016E08333C2
:1055F00031F007E316E0843311F409EE15E0E4EA34
:10560000F5E0B12CA12C8191882391F08C3759F0D1
:1056100080324CF08F3739F02FEFA21AB20A3AE1FC
:10562000A316B10481F765E070E084EE94E09ACDB2
:10563000A50164EA75E0C8010E94FF370A0D1B1D31
:10564000D8011C9299CFEF3108F08ECD91E09E0FDA
:105650009093C105F0E0EF55FA4F808348CD9091CB
:105660000E0880910D08981749F080910E088093DC
:105670000D0881E0639B8CC38093CB068091CC06A0
:10568000882309F44AC11092CC0664E170E080E0FE
:1056900090E00E9402098091E805882309F499C0EE
:1056A0000E9433092B013C018091E4059091E505AE
:1056B000A091E605B091E705A3019201281B390BE3
:1056C0004A0B5B0BDA01C90180329E44A105B1058A
:1056D00008F47FC08091E2059091E305AA24A39489
:1056E000B12CA81AB90AE0E42E2EE3E03E2EA11454
:1056F000B10421F470E2272E73E0372E8EED90EC8A
:105700009A83898381E08B831C828091C605909166
:10571000C705A091C805B091C9050196A11DB11D8D
:105720008D839E83AF83B8878091BD069091BE061E
:105730009A8789878091BF069091C006A091C10683
:10574000B091C2068B879C87AD87BE87FE013F96CE
:1057500080E1DF011D928A95E9F7CE0101960E9452
:10576000A00698A38F8FFE013196FAA3E9A310E05B
:1057700000E0A9A1BAA16D91BAA3A9A3C101800FAC
:10578000911F0E94C91D0F5F1F4F0E31110589F730
:105790006F8DC1014E960E94C91D68A1C1014F962F
:1057A0000E94C91D80E2FE013196A2ECB5E0019095
:1057B0000D928A95E1F7B092E305A092E20540923E
:1057C000E4055092E5056092E6057092E7051092B7
:1057D000E8051FB7F894109280001092810060E0F5
:1057E00089E00E9491071092B2061FBF1092D80262
:1057F0001092D70280916800886080936800809141
:10580000730088608093730060E08AE00E949107D3
:1058100065E070E080E090E00E94020986ED96E08D
:105820000E94480AE091E806F091E90680818774B9
:1058300080838091F0068093EF0660E080E00E9414
:10584000BE0760E081E00E94BE0760E080E00E9449
:10585000910760E081E00E94910760E085E00E948E
:10586000910764E170E080E090E00E94020960E04E
:1058700082E00E94910783B7817F846083BFF894A0
:1058800010927A00809164008FEF80936400809181
:1058900065008D638093650083B7816083BF80E678
:1058A00085BF80E485BF7894889583B78E7F83BF5A
:1058B000809164001092640080916500827C8093E6
:1058C0006500E091E606F091E70682E08083E091D2
:1058D000E606F091E7061082E091E206F091E30619
:1058E0001082E091E406F091E50680E18083109259
:1058F000EE06E091EA06F091EB0686E08083E09107
:10590000E806F091E906808188698083E091E806E5
:10591000F091E90680818F7D80838091CB0688237A
:10592000A1F01092CB068091680088608093680097
:10593000809173008860809373001092D802109257
:10594000D7021092D6020E94971E8091D902882316
:1059500009F46BC28091600681110EC01092D802CA
:105960001092D7021092D6021092800010928100FD
:1059700060E089E00E94910780912201882309F468
:1059800090C080915F06811157C00E9433090E9428
:10599000330960937307709374078093750790932E
:1059A00076078BE797E00E94F40C63E571E08BE7E4
:1059B00097E00E94F40A40E060E08BE797E00E94E5
:1059C000560B6BE574E08BE797E00E94FB1A6AEEDA
:1059D00074E08BE797E00E94F40A45E060E08BE713
:1059E00097E00E94560B6091AF068BE797E00E940C
:1059F000531A45E067E18BE797E00E94560B63E698
:105A000074E08BE797E00E94FB1A45E066E48BE7C1
:105A100097E00E94560B67E674E08BE797E00E94E0
:105A2000FB1A61ED73E08BE797E00E94FB1A0E947E
:105A30009E1881E080935F060E94330900917307EE
:105A4000109174072091750730917607601B710BD8
:105A5000820B930B6C3D75408105910510F10E94FE
:105A6000330960937307709374078093750790935D
:105A7000760710925F0610922201809137068111FD
:105A80000DC080911D06811109C08091030681110E
:105A900005C08091E905882309F47DC181E08093E8
:105AA0005E0680915E068823A9F180915F068111D0
:105AB00007C00E94811A0E949E1881E080935F06B1
:105AC0000E943309009173071091740720917507A4
:105AD00030917607601B710B820B930B6433784017
