:100000000C94A6090C94CE090C94CE090C94CE093C
:100010000C94CE090C94CE090C94CE090C94F21DCC
:100020000C94CE090C94CE090C94CE090C94CE09F4
:100030000C94CE090C94CE090C94CE090C94CE09E4
:100040000C94DE1E0C94CE090C94AC1E0C94861EEF
:100050000C94CE090C94281F0C94CE090C94CE0954
:100060000C94CE090C94CE090C94CE090C94DC1F90
:100070000C94CE090C94CE090C94CE090C94CE09A4
:100080000C94CE090C94F01F0C94CE090C94CE095C
:100090000C94CE090C94CE090C94CE090C94CE0984
:1000A0000C94CE090C94CE090C94CE090C94CE0974
:1000B0000C94CE09AED580A83FD300408D14200209
:1000C000A1C8DA1281FFD9F1DB40A4A6AFB40019B0
:1000D00080400000030C0F30333C3FC0C3CCCFF056
:1000E000F3FCFF00000000240027002A002D000080
:1000F000901C242060080000000020000000000088
:1001000000000A0000150F15141615151414150813
:1001100000000000000000000000000000000000DF
:1001200000000018000000001700000000000000A0
:1001300000000000000000001500000000000800A2
:100140000000001400000000000E00000000160077
:10015000000000000000000000000000000000009F
:10016000000000000000000000000000000000008F
:1001700000000000000000000000000000C0F0F8D7
:10018000FC7C1C1C1C7CFCF8F8C00000000000007B
:10019000C0F0FC7C1C0400000000000000071F3FB2
:1001A0007F7C7070707C7F3F3F070080E0F8FE3FEF
:1001B0001F07010000000000000000000000000018
:1001C00000000000000000C0E0F8FE3F0F03000048
:1001D000F0FEFEFF1F0707071FFFFEFCF0000000F8
:1001E00000000000101C1F1F07030000000000009B
:1001F000010F0F1F1F1C1C1C1F1F0F0701000000F9
:1002000000000000000000000000000000000000EE
:1002100000000000000000000000000000000000DE
:1002200000000000000000000000000000000000CE
:10023000001F1F1F1F1F1F1F1F1F1F000000000088
:1002400000000000000000000000000000000000AE
:10025000C0F0F0F8F8FCFC7C7C7C7CFCFCF8F8F04E
:10026000E0C00000FFFFFFFFFFFFFF0000000000F5
:1002700000FFFFFFFFFFFFFF003FFFFFFFFFFFFF4C
:10028000C080808080C0FFFFFFFFFFFF3F000000B5
:100290000307070F0F0F0F0F0F0F0F0F0F070703A6
:1002A000010000000000000000000000000000004D
:1002B00000000000000000000000008080C0E0F0AE
:1002C000FCFCFCFCFCFCFC3F3F3F1F1F0F07FFFF3B
:1002D000FFFFFFFFFFFF00000000000000FFFFFF27
:1002E000FFFFFFFFFF000000000000000F0F0F0FD7
:1002F0000F0F0F0F000000000000000000000000C2
:1003000000000000C0E0F0F8F8FCFCFC7C7C7C7C89
:10031000FCFCFCF8F8F0E0C0000303030303030354
:100320000080C0C0E0F8FFFFFFFF7F3F0F0080C0EC
:10033000F0F8FCFEFFFFFFFFDFCFC7C7C3C1C0C09F
:10034000C0C00F0F0F0F0F0F0F0F0F0F0F0F0F0F5B
:100350000F0F0F0F0F0F0F00000000000000000034
:1003600000000000000000000000000080E0F0F845
:10037000F8FCFC7C7C3C7C7CFCFCFCF8F8F0C000CD
:100380000101010101010100F0F0F8F8FFFFFFFF9A
:10039000DF8F8700E0E0E0E0E0E0E08001010101C4
:1003A00083FFFFFFFFFFFFFF00010307070F0F0F92
:1003B0000F0F0F0F0F0F0F070703010000000000C2
:1003C000000000000000000000000000000000002D
:1003D000000000000000000080C0E0F8FCFCFCFC15
:1003E000FCFCFC0000000080C0E0F0FCFEFF7F1F72
:1003F0000F0703FFFFFFFFFFFF0000007F7F7F7FEE
:100400007F7F7D7C7C7C7C7C7CFFFFFFFFFFFF7C13
:100410007C7C000000000000000000000000000FD5
:100420000F0F0F0F0F000000000000000000000081
:1004300000000000000000000000000000000000BC
:10044000FCFCFCFCFCFCFCFCFCFCFCFCFCFCFCFCEC
:10045000FC00000000FFFFFFFFFFF878787878F8D5
:10046000F8F8F8F0E0E0800000E0E0E1E1E1E180B0
:100470000000000080FFFFFFFFFFFF7F1E00010361
:1004800007070F0F0F0F0F0F0F0F0F0F07070301B6
:10049000000000000000000000000000000000005C
:1004A0000000000000000000C0E0F0F8F8FCFC7C58
:1004B0003C3C3C7CFCFCF8F8F0E00000FEFFFFFF59
:1004C000FFFFFFE1F0787878F8F8F8F8F0E0C08006
:1004D000003FFFFFFFFFFFFFC18000000080C1FF62
:1004E000FFFFFFFFFF3E0000010307070F0F0F0F85
:1004F0000F0F0F0F0F0F0703030000000000000095
:1005000000000000000000000000000000000000EB
:10051000FCFCFCFCFCFCFCFCFCFCFCFCFCFCFCFC1B
:10052000FCFCFCFC0000000000000000C0F0F8FE35
:10053000FFFF7F1F0F0301000000000000E0FCFF31
:10054000FFFFFFFF0F01000000000000000000009F
:100550000E0F0F0F0F0F0F01000000000000000032
:10056000000000000000000000000000000000008B
:100570000000000080E0F0F8F8FCFC7C3C3C3C7C97
:10058000FCFCFCF8F8F0E080030F9FFFFFFFFFF892
:10059000F0F0F0F0FCFFFFFFFF9F0F03FEFFFFFFF7
:1005A000FFFFFF830100000183FFFFFFFFFFFFFE4E
:1005B000000307070F0F0F0F0F0F0F0F0F0F0F077E
:1005C000070701000000000000000000000000001C
:1005D000000000000000000000C0E0F0F8F8FCFCA3
:1005E0007C3C3C7C7CFCFCF8F8F0E0C0003F7FFFEA
:1005F000FFFFFFFFE0C0808080C0E0FFFFFFFFFF44
:10060000FFFE00C0C1C3C3C7C7C78707070783E191
:10061000FFFFFFFFFFFF3F00000103070F0F0F0F5A
:100620000F0F0F0F0F0F070703010000000000005E
:1006300000000000000000000000000000000000BA
:10064000000000000000000000FEFEFEFEFEFEFEB8
:10065000FEE0E0E0E0E0E0E0E00F0F0F0F0F0F0F33
:100660000F0000000000000000FCFCFCFCFCFCFC97
:10067000F8F0C080000000000000FCFCFCFCFCFC6A
:10068000FCFFFFFFFFFFFFFF7FFFFFFFFEFCF0E02F
:100690008000FFFFFFFFFFFFFFFFFFFFFFFFFFFFE8
:1006A000000001070F3F7FFFFFFFFFFFFFFFFFFF7E
:1006B000FF0F0F0F0F0F0F0F0000000000000001D1
:1006C000030F0F0F0F0F0F0F0F00000000000000AF
:1006D000000000000000000000000000000000001A
:1006E0000000E0F0F0F8F8FCFC7C7C7C7C7CFCFCFE
:1006F000FCF8F8F0E0C00000071F3F7FFFFFFFFF9E
:10070000FCFCF8F8F8F8F3F3F3E3E3C3830000F834
:10071000F8F8F8F8F8F8E1C18183838387CFFFFF09
:10072000FFFFFFFFFF7E00010307070F0F0F0F0FF3
:100730000F0F0F0F0F0F0F0707030100000000003E
:1007400000000000000000000000000000000000A9
:100750000000000000000000000000000000000099
:1007600000000000000000000000C0F0F8F8FCFCF1
:10077000FE7E7E3E3E3E7EFEFEFCFCF8F0E01EFF6E
:10078000FFFFFFFFFFF3C08080008080C0E0E0E05B
:10079000E0E0E00000010307070F0F0F0F0F0F0F3E
:1007A0000F0F0F0F07030300000000000000000000
:1007B000000000000000000000000000007C7C7CC5
:1007C0007C7C7C7C7CFEFEFEFEFEFEFEFEFFFFFFD0
:1007D000FFFFFFFFFF0F0F0F0F0F0F0F0F000000A6
:1007E0000000000000000000000000000000000009
:1007F000000000000000000000FEFEFEFEFEFEFE07
:10080000F0787C7C7EFEFEFEFEFCFCF8E0FFFFFF45
:10081000FFFFFFFF000000000000FFFFFFFFFFFFE2
:10082000FF0F0F0F0F0F0F0F0000000000000F0F42
:100830000F0F0F0F0F00000000000000000000006D
:10084000000000000000000000000000E0E0F0F008
:10085000F8F8F8000000007E7E7EFFFFFFFFFFFF3C
:10086000FF7E7E7E7E000000FFFFFFFFFFFFFF8018
:1008700080808000000003070F0F0F0F0F0F0F0F76
:100880000F00000000000000000000000000000059
:100890000000000000000000000000000000000058
:1008A0000000000000021E7EFEFEFEFEFCF0800046
:1008B000000080F8FEFEFEFEFE3E06000000010F76
:1008C0003FFFFFFFFFF8E0FCFFFFFFFF3F070000D7
:1008D0000000C0C08080C0C1E7FFFFFFFFFFFF3FF7
:1008E0000700000000000000307070F0F0F0F0F041
:1008F00070703010000000000000000000000005D3
:100900000F7C011020FF201000901C087C0180004B
:10091000000000000F0101010101010101010101BD
:10092000010101010101010F0101010101010101A9
:1009300001010101010101010101010F0101010199
:100940000101010101010101010101010101FF0199
:100950000101010101010101010101010101010187
:10096000010F010101010101010101010101010169
:1009700001010101010F0101010101010101010159
:100980000101010101010101010F0000000000004F
:100990000005072060000000000000005F0000006C
:1009A00003000300143E143E14242A7F2A1243330A
:1009B00008666136495522500005030000001C22DC
:1009C00041000041221C0014083E081408083E089B
:1009D00008005030000000000008080060600000BF
:1009E00020100804023E5149453E0004027F0042A7
:1009F0006151494622414949361814127F10274552
:100A00004545393E4949493201017109073649498D
:100A10004936264949493E00363600000056360020
:100A20000008142241001414141414004122140864
:100A300002015109063E4159555E7E0909097E7F32
:100A4000494949363E414141227F4141413E7F492A
:100A50004949417F090909013E4141493A7F080856
:100A6000087F00417F4100304040403F7F08142212
:100A7000417F404040407F020C027F7F0204087F9C
:100A80003E4141413E7F090909061E2121215E7F29
:100A900009090976264949493201017F01013F4090
:100AA00040403F1F2040201F7F2010207F41221CFC
:100AB000224107087008076151494543007F410002
:100AC0000002040810200000417F0004020102041B
:100AD0004040404040000102040020545454787FBC
:100AE000444444383844444444384444447F3854AB
:100AF00054541804047E0505085454543C7F0804DB
:100B0000047800447D40002040443D007F1028448C
:100B10000000417F40007C047804787C080404785D
:100B200038444444387C14141408081414147C0009
:100B30007C080404485454542004043F44443C407A
:100B400040207C1C2040201C3C4030403C4428106D
:100B500028440C5050503C4464544C4400083641E6
:100B60004100007F000041413608000201020402FA
:100B70007F7F7F7F7F00000A0F205F000000000062
:100B80000000000000000000000000000000000065
:100B9000000000FEFE000000000000000019190027
:100BA00000000000001E1E00001E1E0000000000CD
:100BB000000000000000000030FEFE3030FEFE307D
:100BC0000000031F1F03031F1F03000070F8D8FE5F
:100BD0009898000000000C18187F191F0F00001CC7
:100BE000B6A2F6CC60602030000101000E1B111B84
:100BF0000E00000000DC7EE6C6860C808000070F39
:100C00001C18191F1E1F13000000001E1E000000EC
:100C10000000000000000000000000000000E0FCF8
:100C20001E02000000000000073F784000000000A6
:100C300000021EFCE000000000000040783F0700BA
:100C400000000000F0FC0E86C66EFCFC06301B0F98
:100C50001F31181C0F030000808080F0F08080801E
:100C600000000101010F0F01010100000000000060
:100C70000000000000000000407C3C00000000007C
:100C80000000000000000000000000030303030355
:100C90000000000000000000000000000000000054
:100CA000001C1C0000000000000000C0F03C0E0210
:100CB000000020381E07010000000000F0FC0EC6F6
:100CC000C60EFCF80000030F1C18181C0F070000CC
:100CD000000C06FEFE00000000001818181F1F1868
:100CE000181800000C06060686C67C380000181C82
:100CF0001E1B1918181800000C06C6C6C6C6FC38FC
:100D000000000C18181818190F0F000080C0701878
:100D10000EFEFE00000003030303031F1F03000079
:100D2000FE7E666666E6C68000000C181818181C61
:100D30000F070000F0FCCE6666E6CC800000070FCF
:100D40001C18181C0F07000006060606E6FE3E0EDD
:100D5000000000101C0F03000000000038FCC6C695
:100D6000C6C6FC3800000F0F181818180F0F000027
:100D700078FCCE8686CEFCF80000000C1919191CF0
:100D80000F030000000000E0E00000000000000091
:100D9000001C1C0000000000000000E0E00000005B
:100DA00000000000407C3C00000000008080C0404B
:100DB000606020300000010103020606040C000000
:100DC00060606060606060600000060606060606FF
:100DD000060600003020606040C0808000000C04E7
:100DE00006060203010100000C0686C6667E1C0092
:100DF000000000001B1B0000000000E0F0389CCC4D
:100E0000CCDCF8F000071F387367666677270000B0
:100E100000C0FC3E3EFCC0000000181F0F03030F83
:100E20001F180000FEFEC6C6C6C6FC3C00001F1F01
:100E3000181818181F0F0000F0FC0C060606060C08
:100E40000000030F0C181818180C0000FEFE060610
:100E5000060CFCF000001F1F1818180C0F030000F0
:100E6000FEFEC6C6C6C6C60600001F1F1818181804
:100E700018180000FEFEC6C6C6C6C60600001F1F24
:100E80000000000000000000F0FC0C068686868C46
:100E90000000030F0C1819191F0F0000FEFEC0C040
:100EA000C0C0FEFE00001F1F000000001F1F00004A
:100EB000000606FEFE06060000000018181F1F1898
:100EC00018000000000000060606FEFE00000C18D8
:100ED000181818180F0F0000FEFEE0F0FC0E0602B6
:100EE00000001F1F0000030F1E180000FEFE000080
:100EF0000000000000001F1F181818181818000024
:100F0000FEFE3EF0F03EFEFE00001F1F000101004D
:100F10001F1F0000FEFE1EF0C000FEFE00001F1F8F
:100F20000000031E1F1F0000F0FC0E06060EFCF062
:100F30000000030F1C18181C0F030000FEFEC6C69D
:100F4000C6C67C7C00001F1F0000000000000000DF
:100F5000F0FC0E06060EFCF00000030F1C18183CF7
:100F60006F070000FEFEC6C6C6C6FC3C00001F1F81
:100F7000000001031F1E1000387CE6C6C6C68C00A8
:100F800000000C18181818190F0F0000060606FEAE
:100F9000FE06060600000000001F1F000000000003
:100FA000FEFE00000000FEFE0000070F1C18181CCB
:100FB0000F07000006FEFC0000FCFE06000000001B
:100FC0001F1F1F1F0000001EFEE000F0F000E0FEEB
:100FD0001E001F1F1E01011E1F1F0000020E3EF8F3
:100FE000F83E0E020000101C1F03031F1C1000021D
:100FF0000E3E78E0E0783E0E02000000001F1F0069
:1010000000000000060686C6F67E1E0E00001C1EAE
:101010001F1B1818181800000000FEFE0202000036
:10102000000000007F7F404000000000020E38E01A
:1010300080000000000000000000030E38200000C7
:10104000000202FEFE00000000000040407F7F0022
:1010500000000010181C0E060E1C181000000000E6
:101060000000000000000000000000000000000080
:1010700000404040404040404040400000010306E6
:10108000040000000000000000000000000000005C
:10109000006030B0B0B0F0E000000E1F1B19190D59
:1010A0001F1F0000FEFE60303070E0C000001F1FF8
:1010B0000C18181C0F070000C0E070303030306092
:1010C0000000070F1C181818180C0000C0E0703042
:1010D0003060FEFE0000070F1C18180C1F1F0000D8
:1010E000C0E0B0B0B0B0E0C00000070F1D19191982
:1010F000190D00003030FCFE3636360000000000CE
:101100001F1F000000000000C0E070303060F0F0F1
:10111000000003376E6C6C667F3F0000FEFE60309F
:101120003030F0E000001F1F000000001F1F000013
:10113000003030F7F700000000001818181F1F18C3
:1011400018180000003030F7F70000000000606061
:10115000607F3F0000000000FEFE80E07030100065
:1011600000001F1F0103071E181000000606FEFEE8
:1011700000000000000000000F1F181818000000F9
:10118000F0F030F0E030F0E000001F1F001F1F0003
:101190001F1F0000F0F060303030F0E000001F1F33
:1011A000000000001F1F0000C0E070303070E0C081
:1011B0000000070F1C18181C0F070000F0F060302B
:1011C0003070E0C000007F7F060C0C0E07030000AB
:1011D000C0E070303060F0F0000003070E0C0C0629
:1011E0007F7F000000F0F060303030300000001FE2
:1011F0001F00000000000000E0F0B0B0B0B03060B0
:1012000000000C191919191B1F0E00003030FCFCCE
:1012100030303000000000000F1F181818000000C8
:10122000F0F000000000F0F000000F1F1818180C7C
:101230001F1F000030F0E00000E0F030000000016F
:101240000F1E1E0F01000070F00000C0C00000F073
:101250007000071F1E03031E1F0700001030F0C0A0
:10126000C0F03010000010181E07071E18100000F4
:1012700010F0F08000F0F03000000060637F1F0F7E
:101280000100000030303030B0F070300000181C29
:101290001E1B191818180000000000FCFE020200B6
:1012A00000000001013E7E4040000000000000FE02
:1012B000FE00000000000000007F7F000000000032
:1012C000000202FEFC00000000000040407E3E01E3
:1012D0000100000080C0C0C0808080C0000001000C
:1012E0000000010101000000000000230026002989
:1012F000002C0000000008000201000003040700A9
:1013000000000000000000000000000201020408CC
:10131000102040800102040810200102040810205F
:101320000408010200000000250028002B002E0008
:10133000040404040404040402020202020203037B
:101340000303030305050505CB219C2F11241FBEB4
:10135000CFEFD8E0DEBFCDBF12E0A0E0B1E0E0E922
:10136000FBE602C005900D92A037B107D9F724E043
:10137000A0E7B2E001C01D92A63BB207E1F719E079
:10138000C5EAD9E004C02197FE010E94AF33C43AF8
:10139000D107C9F70E9410230C94BB350C940000B0
:1013A0004F925F926F927F928F929F92AF92BF9275
:1013B000FF922091FD033091FE038217930708F0FE
:1013C00043C02B0166247724852E962EA72EBB249E
:1013D000B82DA42F20910304F42C222391F0E22FA6
:1013E000F0E0E49DD001E59DB00DF49DB00D112419
:1013F000FB2E289D40011124B92D249F900111241A
:10140000A32FE09109042091040430910504509128
:101410000604E51323C0FC01EE0FFF1F8E0F9F1F74
:10142000820F931FE0910604E80FF92FF11DF0825F
:10143000E0910704E80FF92FF11DB0832091080413
:10144000820F911DFC01A083FF90BF90AF909F90F1
:101450008F907F906F905F904F900895880F991FA5
:10146000880F991F820F931FE80FF92FF11D10822B
:10147000D9CFE091E503F091E6030196880F991F1B
:10148000880F991FE80FF91FDF0114978081918160
:101490002D913C91821B930B69E070E00E949B337D
:1014A000892B11F06F5F7F4FCB010895AF92BF92F0
:1014B000CF92DF92EF92FF920F931F93CF93DF9320
:1014C0006C017B018B01040F151FEB015E01AE184F
:1014D000BF08C017D10759F06991D601ED91FC9171
:1014E0000190F081E02DC6010995892B79F7C5019E
:1014F000DF91CF911F910F91FF90EF90DF90CF90F0
:10150000BF90AF900895FC01448155816081718145
:1015100081E194E00C94560AFC01538D448D252FF3
:1015200030E0842F90E0821B930B541710F0CF967D
:10153000089501970895FC01918D828D981761F0AF
:10154000A28DAE0FBF2FB11D5D968C91928D9F5FC6
:101550009F73928F90E008958FEF9FEF0895FC01A5
:10156000918D828D981731F0828DE80FF11D858D58
:1015700090E008958FEF9FEF0895FC01918D228DEB
:10158000892F90E0805C9F4F821B91098F73992770
:10159000089588E493E00E94BD0A21E0892B09F4B4
:1015A00020E0822F0895FC01A48DA80FB92FB11D52
:1015B000A35ABF4F2C91848D90E001968F73992789
:1015C000848FA689B7892C93A089B1898C91837067
:1015D00080648C93938D848D981306C00288F38960
:1015E000E02D80818F7D80830895EF92FF920F938D
:1015F0001F93CF93DF93EC0181E0888F9B8D8C8DBF
:1016000098131AC0E889F989808185FF15C09FB7B2
:10161000F894EE89FF896083E889F9898081837075
:10162000806480839FBF81E090E0DF91CF911F9124
:101630000F91FF90EF900895F62E0B8D10E00F5F45
:101640001F4F0F731127E02E8C8D8E110CC00FB61B
:1016500007FCFACFE889F989808185FFF5CFCE01B3
:101660000E94D30AF1CFEB8DEC0FFD2FF11DE35A51
:10167000FF4FF0829FB7F8940B8FEA89FB89808136
:101680008062CFCFCF93DF93EC01888D8823B9F0B0
:10169000AA89BB89E889F9898C9185FD03C080817D
:1016A00086FD0DC00FB607FCF7CF8C9185FFF2CFFA
:1016B000808185FFEDCFCE010E94D30AE9CFDF9173
:1016C000CF91089580E090E0892B29F00E94C90A0B
:1016D00081110E94000080E090E0892B49F080E0B9
:1016E00090E0892B29F00E94000081110C940000E9
:1016F000089581508D3008F03DC0E82FF0E0ED579F
:10170000F44F0C94AF339A0B9E0B900B960BBA0BC5
:10171000BA0BA10BA70BAB0BB10BBA0BB50BBB0BE9
:10172000809180008F778093800008958091800061
:101730008F7DF9CF84B58F7784BD089584B58F7D73
:10174000FBCF8091B0008F778093B0000895809197
:10175000B0008F7DF9CF809190008F7780939000BB
:101760000895809190008F7DF9CF8091A0008F77B0
:101770008093A00008958091A0008F7DF9CFCF9332
:10178000DF93E3E0F3E18491ECE1F3E1D491E0E471
:10179000F3E1C491CC23A1F081110E94790BEC2FCD
:1017A000F0E0EE0FFF1FE951FD4EA591B491EC91D1
:1017B000ED2381E090E009F480E0DF91CF9108957E
:1017C00080E090E0FACF1F93CF93DF93282F30E093
:1017D000F901ED50FD4E8491F901E45FFC4ED49186
:1017E000F901E05DFC4EC491CC23A9F0162F8111C4
:1017F0000E94790BEC2FF0E0EE0FFF1FEC5DFC4E2A
:10180000A591B4918FB7F894EC91111108C0D095BF
:10181000DE23DC938FBFDF91CF911F910895DE2BE4
:10182000F8CFCF93DF9390E0FC01E45FFC4E24916E
:10183000805D9C4EFC0184918823C9F090E0880F64
:10184000991FFC01ED51FF4FA591B491FC01EC5D96
:10185000FC4EC591D49161110DC09FB7F8948C9145
:10186000209582238C938881282328839FBFDF9132
:10187000CF910895623051F49FB7F8943C91822F34
:10188000809583238C93E8812E2BEFCF8FB7F8942C
:10189000EC912E2B2C938FBFEACF4F925F926F92D9
:1018A0007F928F929F92AF92BF92CF92DF92EF92F0
:1018B000FF920F931F93CF938C014A015B0180919C
:1018C0001701893099F08F3F09F453C0CF911F91D0
:1018D0000F91FF90EF90DF90CF90BF90AF909F90CF
:1018E0008F907F906F905F904F900895EBE0F3E1C1
:1018F000C491C7FDEBCF61E089E00E94110C280183
:10190000712C612CCC23F1F0980150E040E0C23002
:1019100009F0E2C028013A0160E970ED83E090E04F
:101920000E94CE3169017A0181E0C81AD108E1082C
:10193000F10893E08FEFC816D104E104F10409F037
:101940000CF461C168E478EE81E090E0A3019201BB
:101950000E94CE3169017A0181E0C81AD108E108FC
:10196000F10894E0C1114FC185B5887F836085BDC2
:10197000C8C089E080931701EBE0F3E1C4918C2F9C
:10198000CF3F09F4A3CFC23009F466C060F4CC2382
:1019900069F1C13009F442C087FD98CF61E089E068
:1019A0000E94110CB1CFC33009F478C0C430A1F744
:1019B0001092A0001092A1008091A10088608093F5
:1019C000A1008091A10081608093A100E9E3F3E18F
:1019D000E491F0E0EE0FFF1FEC5DFC4E85919491D9
:1019E000E5E1F3E1E491E0932D0385CF14BC15BC50
:1019F00084B5826084BD85B5816085BDE9E3F3E18E
:101A0000E491F0E0EE0FFF1FEC5DFC4E85919491A8
:101A1000E5E1F3E1E491E09333036DCF10928000B0
:101A20001092810080918100886080938100809174
:101A30008100816080938100E9E3F3E1E491F0E0CB
:101A4000EE0FFF1FEC5DFC4E85919491E5E1F3E113
:101A5000E491E09332034FCF1092B0001092B100A6
:101A60008091B00082608093B0008091B10081606D
:101A70008093B100E9E3F3E1E491F0E0EE0FFF1FA2
:101A8000EC5DFC4E859194919093310380933003EB
:101A9000E5E1F3E1E491E0932F032DCF1092900064
:101AA00010929100809191008860809391008091C4
:101AB0009100816080939100E9E3F3E1E491F0E02B
:101AC000EE0FFF1FEC5DFC4E85919491E5E1F3E193
:101AD000E491E0932E030FCF60E072E18AE790E09B
:101AE0000E94CE3169017A0181E0C81AD108E1086B
:101AF000F108C13071F580918100887F8160809309
:101B00008100D801AA0FBB1FA50194010E94ED31ED
:101B100028EE33E040E050E00E943732C230D1F18D
:101B20000CF05AC0CC2339F1C13009F0CFCED0929D
:101B30008900C09288002093400330934103409372
:101B400042035093430380916F00826080936F0043
:101B5000BDCEC33039F480919100887F816080933D
:101B60009100CFCFC43069F68091A100887F816059
:101B70008093A100C6CFC7BC209344033093450394
:101B8000409346035093470380916E008260809398
:101B90006E009CCEC092B30020933C0330933D0373
:101BA00040933E0350933F03809170008260809386
:101BB00070008CCED0929900C09298002093380388
:101BC0003093390340933A0350933B038091710063
:101BD0008260809371007ACEC33061F3C43009F023
:101BE00075CED092A900C092A80020933403309300
:101BF000350340933603509337038091720082601F
:101C00008093720063CE8091B100887F892B80938E
:101C1000B10077CF8E50806480937C0080917A00F1
:101C2000806480937A0080917A0086FDFCCF809159
:101C300078009091790008953FB7F8948091C4029C
:101C40009091C502A091C602B091C70226B5A89B8B
:101C500005C02F3F19F00196A11DB11D3FBFBA2F3E
:101C6000A92F982F8827BC01CD01620F711D811DFE
:101C7000911D42E0660F771F881F991F4A95D1F783
:101C800008950F931F93CF93DF93CDB7DEB72997B6
:101C90000FB6F894DEBF0FBECDBF809104049091C3
:101CA0000504892B09F47CC00E941C0E00910A04D3
:101CB00010910B0420910C0430910D0460177107F2
:101CC0008207930740F460930A0470930B04809397
:101CD0000C0490930D0400910A0410910B042091C0
:101CE0000C0430910D04601B710B820B930B6C3252
:101CF000714081059105C0F2F8948091FF039091A5
:101D000000049A838983E0910404F0910504DF01C3
:101D10001196808189879091FB03E0910E04F091E8
:101D20000F0480911004992309F445C09081982BE9
:101D300098879081809589238F838F818C8388E019
:101D40008B8358856F8149853B812C8189819A815C
:101D5000508347FD252F3A952083262F39F0441FC5
:101D600000C000006083000000C0F2CF38E04D9159
:101D700060830000019761F7F0930F04E0930E0475
:101D800049873B832C839A83898378940E941C0E15
:101D900060930A0470930B0480930C0490930D04D9
:101DA00029960FB6F894DEBF0FBECDBFDF91CF915D
:101DB0001F910F9108959081982B9887908180951D
:101DC00089238F838F818E8388E08D8358856F81EF
:101DD00049853D812E8189819A81508347FD252F38
:101DE00000C000C0208300C000C000C000C000C010
:101DF00060830000262F3A9541F0441F000000C088
:101E000000C000C000C000C0E8CF38E04D9100C065
:101E1000608300C0019709F7F0930F04E0930E046C
:101E200049873D832E83AFCF8F929F92AF92BF920F
:101E3000CF92DF92EF92FF924B015C010E941C0E49
:101E40006B017C010E941C0E6C197D098E099F0993
:101E5000683E734081059105A8F321E0821A91083C
:101E6000A108B10888EEC80E83E0D81EE11CF11C61
:101E700081149104A104B10429F7FF90EF90DF9041
:101E8000CF90BF90AF909F908F9008952FB7F89408
:101E90006091C0027091C1028091C2029091C30210
:101EA0002FBF0895CF93DF93EC018D85882329F010
:101EB00081508D87DF91CF9108959C818E819817F5
:101EC000C8F788896827E881F9810084F185E02DC9
:101ED00042E0CE0109958C818F5F8C83EBCFDC01D2
:101EE0001E96ED91FC9184913196E491982F8E2F5E
:101EF00008959093200480931F0481E194E00E9450
:101F00006F0F019719F410921A04089581E08093DD
:101F10001A040895CF92DF92EF92FF920F931F93CE
:101F2000CF93DF93EC0110E000E0E990EE2041F068
:101F300080911F0490912004009761F410E000E06C
:101F4000C801DF91CF911F910F91FF90EF90DF902B
:101F5000CF900895FC013496C4903196E491EC142E
:101F600068F3F12CD12CEC0DFD2DF11DEE16FF06C2
:101F70002CF781E194E00E946F0FE0911F04F09133
:101F80002004209122040297D0F086E0E80EF11C94
:101F9000EC18FD08EE0DFF1DE491E29FE02D1124E9
:101FA000EE2361F280911A0490912204899F802D82
:101FB00011248E0F9927991F080F191FB6CF32963B
:101FC000EBCF4FB7F8942091B8023091B9028091CD
:101FD000B6029091B7024FBF4091B402042E02C0E6
:101FE000359527950A94E2F702C0959587954A950D
:101FF000E2F78802C00111242202800D911D1124F4
:1020000008950E94E10F9093D5028093D40220910D
:102010001303309114038217930720F09093140355
:102020008093130320911303309114034091040112
:10203000509105013695279536952795240F351F24
:10204000265F3F4F8217930790F081E08093BA029A
:1020500080911303909114039093DD028093DC022E
:102060005093DB024093DA028091BA0208951092F5
:10207000BA02FACF8091B3028823E1F11092B20242
:102080002091E2023091E3028091110390911203BA
:102090002817390740F08091E2029091E302909373
:1020A0001203809311038091110390911203809188
:1020B00011039091120340910F035091100320914E
:1020C0000F0330911003E091E202F091E302841BD0
:1020D000950B6AE070E00E948733265F3F4F620FE6
:1020E000731F81E0E617F70708F480E08093E402AD
:1020F0001092B3028091B202811108C081E08093F6
:10210000B20280917A00886480937A008091E40220
:102110000895CF93DF93D0E0C0E040E050E0BA01F3
:10212000CE010E94D0092196CA31D105B1F7DF91C5
:10213000CF910C94410ECF92DF92EF92FF920F93CA
:102140001F93CF93DF93C0919E02D0919F028E0187
:10215000000F111F06571D4FF80140815181052EB8
:10216000000C660B770BC090A002D090A102E0900B
:10217000A202F090A302C41AD50AE60AF70A81E186
:102180000E940A0EF80191838083092E000CAA0B8D
:10219000BB0BBC01CD016C0D7D1D8E1D9F1D609381
:1021A000A0027093A1028093A2029093A3022196B1
:1021B000CA30D105A4F4D0939F02C0939E022AE0B6
:1021C00030E040E050E00E94CE31C901DF91CF9174
:1021D0001F910F91FF90EF90DF90CF900895109294
:1021E0009F0210929E02EBCF81E0809329038091A1
:1021F00008014EEF5EEF6EEF70E090E00E94D009B4
:102200000E94410E0E94460F6093960470939704BB
:102210008093980490939904089580E680937C00BD
:1022200081E08093890210927B008EEF80937A0088
:1022300080E090E0AAE2B5E480930B0390930C0356
:10224000A0930D03B0930E038AE89DE3A6E9B6E4DC
:102250008093070390930803A0930903B0930A03A4
:1022600085E394E2A0E0B0E080930303909304033D
:10227000A0930503B093060385E090E09093B50228
:102280008093B40208951092FD021092FC020E9405
:102290000D110E94460F6093F7037093F80380932B
:1022A000F9039093FA030E94460F6093DE02709345
:1022B000DF028093E0029093E10281E080930301CA
:1022C0001092FB021092E8021092E9021092EA02C8
:1022D0001092EB028EE190E090930501809304014F
:1022E000109214031092130308951F93CF93DF935A
:1022F000EC01162F61E0411101C060E08B890E9462
:10230000E30B80E58CBD81E08DBD60E08A890E9491
:10231000E30B1EBD00000DB407FEFDCF8EB561E0DE
:102320008A89DF91CF911F910C94E30BDC01ED9131
:10233000FC910084F185E02D40E009940F931F93F8
:10234000CF938C01FC016483C085C60F6C2F6F7026
:102350000E9496116C2F62956F706061C801CF91D9
:102360001F910F910C949611FC01278126952695BB
:102370002695621738F465832385620F6770606B5A
:102380000C94961108951F93CF93DF93EC01142FB3
:102390008E81681718F4CE010E949E11612FCE0124
:1023A000DF91CF911F910C94B411CF92DF92EF92F5
:1023B000FF920F931F93CF93DF93EC01F62EC42E61
:1023C000D22E1D868F81869586958695081710F0EA
:1023D0000FEF080F1D2D011780F0412F6F2DCE013B
:1023E0000E94C311EF2CCE1430F06889CE010E94F8
:1023F000520FE394F8CF1F5FEECF4D2D6F2DCE011E
:10240000DF91CF911F910F91FF90EF90DF90CF90D0
:102410000C94C3110F93DC0115962C9115971E9601
:10242000ED91FC911F9700E0309779F03396E4919D
:10243000F0E0379683E0F595E7958A95E1F75196B8
:102440000C9151970E9F002D1124EFEFE20F0E0F0C
:1024500016964C911697415014966C911497CD0195
:102460000E94D5110F9108952F923F924F925F9243
:102470006F927F928F929F92AF92BF92CF92DF9294
:10248000EF92FF920F931F93CF93DF9300D000D072
:1024900000D0CDB7DEB7FC01068517850115110503
:1024A00009F446C19E838D83F8013296649031967B
:1024B000A490EA2CF12CF7E0EF0EF11C23E0F59448
:1024C000E7942A95E1F7E982F801349684913196F0
:1024D000E491681748F0CE2ED12C9601280F311DBB
:1024E000621713060CF469C06D3031F5ED81FE8181
:1024F000868181111BC081E090E026960FB6F8948A
:10250000DEBF0FBECDBFDF91CF911F910F91FF9026
:10251000EF90DF90CF90BF90AF909F908F907F9083
:102520006F905F904F903F902F90089560E08D8165
:102530009E810E949E11DFCF6A3009F0F9C0ED81C3
:10254000FE818681882321F060E0CF010E949E11E8
:10255000ED81FE8181898E9DE02C112465816E0DB7
:102560008485882349F097819695969596958E2D2A
:10257000891B860F18162CF08D819E810E94B41144
:10258000BACFED81FE812385820F877083879E19E4
:102590009583CF010E940A12ED81FE8184858130EE
:1025A00009F0A9CF6385660F660F660F6F736287A8
:1025B0006064CF010E9496119ECF0A5F1F4FB62E16
:1025C000B81AED81FE8191858189989F802D112413
:1025D0008C83CF010E946F0F029708F06AC06E9C37
:1025E000C0016F9C900D1124B89E6001B99ED00C63
:1025F00011240C0D1D1D512CED81FE81F481FA83F7
:10260000ED81FE812580F585FB83862C912CAA2403
:10261000A394B12C312C8981381608F087C0412C45
:10262000ED81FE818189481608F079C08B8185870C
:10263000311002C0442041F0ED81FE8145814F5FA1
:102640006A81CF010E94C311D12CC12CC61408F09D
:1026500059C0F801EC0DFD1D7490552061F0EA148D
:10266000FB0449F4E72DF0E0052C02C0F595E79551
:102670000A94E2F77E2EED81FE818189823081F419
:10268000442009F43BC072948FE07822E72DF0E0FB
:10269000ED52FF4F7490672D8D819E810E94520FE5
:1026A000672D8D819E810E94520F8FEFC81AD80A24
:1026B000CDCFEA2DE77088E0582E5E1AE11101C0F7
:1026C000512CF801612C90E080E06B1431F02491E2
:1026D000820F911D63943196F8CF600E712E711C9C
:1026E000F3016490E89EF001E99EF00DF89EF00D74
:1026F0001124CE0EDF1E0C0D1D1D7ECFF72DFF7099
:102700007F2EC4CFD12CEC81DE1639F060E08D81B4
:102710009E810E94520FD394F6CF439481CF33947D
:10272000080D191DFFEFAF1ABF0A75CF622D24CF18
:1027300090E080E0E2CE0F93CF93DF93EC011B8615
:102740001A8660E40E9496110F81069506950695FB
:1027500001504E81415020E060E0CE010E94D51131
:10276000DF91CF910F910895089590E080E0089552
:10277000CF93DF93EC0188819981009711F00E943B
:102780006034198218821D821C821B821A82DF919A
:10279000CF910895FC0180819181009711F00C94F4
:1027A00060340895FB0101900020E9F73197AF01F3
:1027B000461B570BDC01ED91FC910280F381E02D6B
:1027C00009948F929F92AF92BF920F931F93CF93D2
:1027D000DF93CDB7DEB7A1970FB6F894DEBF0FBE7B
:1027E000CDBF19A2423008F44AE08E010F5D1F4FA1
:1027F000842E912CB12CA12CA50194010E9437327A
:10280000E62FB901CA01EA3004F5E05DD801EE9384
:102810008D01232B242B252B79F790E080E0109756
:1028200029F0BD0181E194E00E94D213A1960FB678
:10283000F894DEBF0FBECDBFDF91CF911F910F91F6
:10284000BF90AF909F908F900895E95CDFCFCF92BB
:10285000DF92EF92FF92CF93DF936C01990FEE0816
:10286000FF08F7FE19C06DE281E194E00E94341286
:10287000EC0166277727CB016C197D098E099F092A
:102880004AE00E94E1138C0F9D1FDF91CF91FF90D2
:10289000EF90DF90CF9008954AE0C701B601DF9135
:1028A000CF91FF90EF90DF90CF900C94E113BC019B
:1028B00081E194E00C94D21380910D01882351F0B2
:1028C00041E066E181E194E00E94C31183E891E078
:1028D0000C945714089580911B0381110DC081E061
:1028E00080931B0345E066E481E194E00E94C311FC
:1028F0008EE491E00C945714089545E06CE381E177
:1029000094E00E94C31187E392E00C94571445E0D1
:1029100065E081E194E00E94C31184E591E00C94AC
:10292000571480911C0381111CC0809118038111E0
:102930000AC041E06CE281E194E00E94C3118AE5A3
:1029400091E00E94571480911803882399F041E088
:102950006CE381E194E00E94C31184E691E00C9461
:10296000571441E06BE481E194E00E94C31181E6D9
:1029700091E0E7CF08950F931F93CF93DF93EC017E
:102980000E94D2138C0169E671E0CE010E94D2133D
:10299000800F911FDF91CF911F910F91089581E1D9
:1029A00094E00E949B1341E069E181E194E00E9480
:1029B000C3116CE671E081E194E00E94BB1445E034
:1029C00065E081E194E00E94C31164E771E081E178
:1029D00094E00C94BB14CF92DF92EF92FF920F938E
:1029E0001F93CF93DF937B012091E7033091E8039E
:1029F00082179307F4F4880F991F880F991F20916D
:102A0000E5033091E603820F931FFC01C280D3805F
:102A1000FFEFCF16DF0669F08B01C3E0D0E0C601FF
:102A20008C1B9D0B0E94B831F80181938F01219777
:102A3000B0F7C701DF91CF911F910F91FF90EF90F9
:102A4000DF90CF9008950C94B8310F931F93CF93DC
:102A5000DF93EC018C01060F171FC017D1079CF400
:102A6000CE010E9423158F3F61F0FC9AFD98FB98E0
:102A7000D2BDC1BD8FB7F894F999FECFFA9AF99AF1
:102A80008FBF2196EACFDF91CF911F910F910895CB
:102A90000F931F93CF93DF93EC01162F22E030E0CA
:102AA000062F0095FD9AFC98FB98D2BDC1BD10BDC4
:102AB0008FB7F894F999FECFFA9AF99A8FBFF999DE
:102AC000FECF2130310539F0CE010E94231521E0DF
:102AD00030E0802339F7DF91CF911F910F91089556
:102AE000CF93DF93EB010E94B8318883CE01DF9151
:102AF000CF910895CF93DF93EB010E94B831888383
:102B0000CE01DF91CF9108950E94A6350F931F93B8
:102B1000CF93DF93EC0188819981009759F02A8146
:102B20003B812617370730F081E0DF91CF911F916D
:102B30000F9108958B016F5F7F4F0E94E9340097DA
:102B400059F0998388831B830A832C813D81232B31
:102B500059F7FC011082E8CF80E0E7CFEF92FF92B7
:102B60000F931F93CF93DF93EC01FB01E080F18083
:102B7000E114F10411F10481158101151105A9F089
:102B80008C819D81080F191FB801CE010E94861506
:102B9000882399F0288139818C819D81B701820F2A
:102BA000931F0E94B4351D830C83CE01DF91CF911A
:102BB0001F910F91FF90EF900895CE010E94B813DE
:102BC000F4CFEF92FF920F931F93CF93DF9300D038
:102BD000CDB7DEB78C018EE289831A82F801E480DA
:102BE000F580FFEFEF1AFF0AB701C8010E948615B2
:102BF0008823C9F0F8012081318184819581BE014B
:102C00006F5F7F4F820F931F0E94B435F801F582EA
:102C1000E482C8010F900F90DF91CF911F910F9127
:102C2000FF90EF900895C8010E94B813F2CFEF9281
:102C3000FF920F931F93CF93DF93EC017B018A01E7
:102C4000BA010E94861581110BC0CE010E94B813F3
:102C5000CE01DF91CF911F910F91FF90EF900895DA
:102C60001D830C83B701888199810E94B435F0CF10
:102C7000EF92FF920F931F93CF93DF93CDB7DEB701
:102C800062970FB6F894DEBF0FBECDBF8C01CB01AB
:102C9000F8011182108213821282158214824AE096
:102CA0009E012F5F3F4F7901B9010E945F30F7010C
:102CB00001900020E9F73197AF014E195F09B70184
:102CC000C8010E94171662960FB6F894DEBF0FBEB9
:102CD000CDBFDF91CF911F910F91FF90EF9008959D
:102CE000FB01DC0111961C921E9213961C921E92FF
:102CF000129715961C921E9214978617970749F003
:102D0000608171816115710521F0448155810C94B8
:102D1000171608950F931F93CF93DF93CDB7DEB7A8
:102D200068970FB6F894DEBF0FBECDBF8091080143
:102D3000882309F4AFC090911803992309F461C066
:102D400009E110E09801281B310945E0429FC001CC
:102D5000439F900D11246AE070E00E949B33BC01F8
:102D6000CE0143960E94381680910801B801681B75
:102D7000710977FF02C06F5F7F4F75956795CE0130
:102D800007960E943816BE01695F7F4FCE010D96EF
:102D90000E947016CE010D960E94E115BE016D5E77
:102DA0007F4F0E94AE15BC01CE0101960E947016A5
:102DB000CE010D960E94CA13CE0107960E94CA1337
:102DC000CE0143960E94CA1341E06AE081E194E09B
:102DD0000E94C31180E891E00E945714CE01019631
:102DE0000E94830ACE0101960E94CA1368960FB60C
:102DF000F894DEBF0FBECDBFDF91CF911F910F9131
:102E0000089590911C03911121C0803151F441E04B
:102E100064E181E194E00E94C31183E891E00E94A3
:102E2000571441E06AE081E194E00E94C31180E818
:102E300091E00E9457149091080129E130E0A90126
:102E4000491B5109CA010E942714D0CF853151F482
:102E500041E069E381E194E00E94C31184E891E0DC
:102E60000E94571441E069E181E194E00E94C3119E
:102E700080E891E00E9457142091080189E190E0D8
:102E8000821B910924E1AC01249FC001259F900D74
:102E90001124D9CF80911C0341E0811112C06AE056
:102EA00081E194E00E94C31184E891E00E945714EC
:102EB0006091080170E090E080E04AE00E94E11338
:102EC00095CF69E181E194E00E94C31182E891E02D
:102ED0000E94571441E06DE281E194E00E94C31129
:102EE000E7CF0F931F93CF93DF93CDB7DEB76897EC
:102EF0000FB6F894DEBF0FBECDBF809108018823C6
:102F000009F45EC090911803992309F464C025E088
:102F1000829FC00111246AE070E00E949B33BC01D3
:102F2000CE0143960E9438166091080170E07595B5
:102F30006795CE010D960E94381618861F821A8654
:102F400019861C861B868BE289831A828E010F5F8D
:102F50001F4FF80101900020E9F73197AF01401BA6
:102F6000510BB801CE0107960E941716BE01635F90
:102F70007F4FCE0107960E94AE150E94E115BE015B
:102F80006D5E7F4F0E94AE15BC01C8010E94701695
:102F9000CE0107960E94CA13CE010D960E94CA1355
:102FA000CE0143960E94CA1341E06AE081E194E0B9
:102FB0000E94C311C8010E94830AC8010E94CA135B
:102FC00068960FB6F894DEBF0FBECDBFDF91CF91EC
:102FD0001F910F91089580911C0341E0811112C04F
:102FE0006AE081E194E00E94C31186E891E00E94CA
:102FF00057146091080170E090E080E04AE00E9480
:10300000E113DECF69E181E194E00E94C31186E81B
:1030100091E00E9457148091080124E1829FC00131
:1030200011240E942714CCCF0C94C031FF920F932F
:103030001F93CF93DF93EC01F62E08811981C8010D
:103040000E94B831F81621F06F2DC8010E94C031DE
:10305000CE01DF91CF911F910F91FF9008952F9294
:103060003F924F925F926F927F928F929F92AF9218
:10307000BF92CF92DF92EF92FF920F931F93CF9365
:10308000DF9300D000D0CDB7DEB71C013B010E941A
:10309000390A7C018091E7039091E80328163906EC
:1030A0000CF0BCC08090E5039090E6032FEF221A4D
:1030B000320A220C331C220C331CF401E20DF31DE6
:1030C0004080518034E0231A3108820C931CF401B3
:1030D000A080B180C2018A199B098E199F090497AB
:1030E0000CF49CC0028113810F3F100729F4870163
:1030F0000A0D1B1D01501109680123E0C21AD108F5
:103100007C826B820C151D050CF488C0C6010E94E0
:103110002315EB81FC819191FC83EB83FFEFCF1AA8
:10312000DF0A891779F3C80105960F5F1F4F48160C
:1031300059064CF4B701C5010E942515F401008120
:1031400011810E0D1F1D17FD69C05301F4E0AF0E74
:10315000B11C6801C618D708C601860D971D9A8351
:103160008983F30161913F01CE0101960E941618F7
:103170006A147B0489F78091E5039091E603280E99
:10318000391EC8010396F101938382838081918166
:10319000E80EF91E0E191F09780117FF03C0F7E0AA
:1031A000EF0EF11C83E0F594E7948A95E1F78E2DFC
:1031B000880F880F880F081B94E0892E912C6FEFE1
:1031C00027E0C22ED12CAA24A394B12CC601801BC7
:1031D0009109950102C0220F331F8A95E2F7C901B8
:1031E000809568230F5F083060F0F1018081918144
:1031F0008E0D9F1D0E944815FFEFEF1AFF0A6FEF1B
:1032000000E021E0821A910809F76F3F39F0F101DF
:10321000808191818E0D9F1D0E9448150F900F9007
:103220000F900F90DF91CF911F910F91FF90EF9032
:10323000DF90CF90BF90AF909F908F907F906F90D6
:103240005F904F903F902F9008950F931F93CF93CF
:10325000DF9300D0CDB7DEB78B019A838983FB0162
:103260006081CE0101960E941618C8010F900F9040
:10327000DF91CF911F910F9108952F923F924F921E
:103280005F926F927F928F929F92AF92BF92CF92F6
:10329000DF92EF92FF920F931F93CF93DF9300D0B3
:1032A00000D01F92CDB7DEB7109215011092140115
:1032B0001092130161E082E00E94110C61E085E050
:1032C0000E94110C61E082E00E94E30B80910E01EC
:1032D00081508A3018F084E080930E0180910104BF
:1032E0009091020497FD08C061E00E94110C60E01B
:1032F000809101040E94E30B81E08093FC0362E370
:1033000070E080E090E00E94140F61E085E00E9490
:10331000E30B61E089E00E94110C62E080E10E9411
:10332000110C0E94891082E090E09093E803809352
:10333000E7038CE090E00E94C433FC019093E60325
:103340008093E50381E090E09183808382EE91E0B9
:103350009583848383EC93E09187808790E080E07D
:103360000E9423158D831A82198263E0CE01019693
:103370000E941618F12CE12CD12CC12C0091E503F0
:103380001091E6030E0D1F1D8091E7039091E80355
:10339000C816D9060CF087C0C6010E94390A1C0164
:1033A0002D81233031F0BC01F801808191810E9490
:1033B00025158091E5039091E6039C012E0D3F1D9C
:1033C0003C832B83F901A080B1802A0C3B1C210196
:1033D000F1E04F1A5108320145018FEF0FEF1FEF57
:1033E00068147904DCF0830108191909159507950B
:1033F000080D191DC8010E9423159FEF980F9E3FCD
:10340000C8F0811105C048012FEF821A920AE8CF57
:10341000380131E0631A71088FEFE2CF811117C0D4
:10342000041515053CF40F5F1F4FC8010E942315BA
:103430008823B1F3C8010E94231527E030E091E012
:10344000482F4923A1F0990F21503109F9CF0A15CE
:103450001B053CF001501109C8010E9423158F3F44
:10346000B1F30415150534F70F5F1F4FE3CF0A19A9
:103470001B0993E0000F111F9A95E1F7020F131F2C
:103480000F3F100769F0020D131DEB81FC811383C0
:103490000283FFEFCF1ADF0A24E0E20EF11C6ECFA9
:1034A0000FEF1FEFF2CF8FEF9FEFF801938382832F
:1034B0006AE173E08CEF93E00E947A158DEF93E060
:1034C0000E94B83180931D038EEF93E00E94B831C3
:1034D00080931E031982BE016F5F7F4F8BEF93E0D5
:1034E0000E9425196EEB72E08BEF93E00E947A1533
:1034F0006FE173E090E080E00E94EB1480911F0385
:1035000090912003A0912103B09122030196A11D67
:10351000B11D80931F0390932003A0932103B093C8
:1035200022038091E7039091E8031816190634F4FA
:103530006FE173E090E080E00E942F1863E273E097
:1035400081E090E00E94EB148FEF93E00E9423153E
:103550008E3141F08851823028F069E18FEF93E09D
:103560000E9414188CEF93E00E942315823028F0FB
:1035700060E08CEF93E00E9414180E94BF0B892B2F
:1035800089F48FEF93E00E9423156EE1893131F0C9
:1035900068E18E3119F0883129F469E18FEF93E009
:1035A0000E94141866E173E08FEF93E00E9470159B
:1035B0006AE273E089EF93E00E94701564E170E0C5
:1035C00080E090E00E94140FF89480916800886079
:1035D0008093680080917300886080937300789472
:1035E00061E08AE00E94110C60E08AE00E94E30B37
:1035F0006AE070E080E090E00E94140F61E08AE0F1
:103600000E94E30B6AE070E080E090E00E94140FFB
:1036100087E18093230486E18093240461E087E1BD
:103620000E94110C61E0809124040E94110C1FB7CC
:10363000F8948091BB02811127C0EAE3F3E1849101
:10364000E6E1F3E19491E82FF0E0EE0FFF1FED517A
:10365000FF4FA591B491EC91E92321F461E08AE058
:103660000E94E30B61E08AE00E94110C8CB580613E
:103670008CBD8CB580648CBD61E08DE00E94110C26
:1036800061E08BE00E94110C8091BB028F5F809300
:10369000BB021FBF1092150410921604EDECF0E06F
:1036A000C590D490EFECF0E0F490E0EDF0E0E49120
:1036B000E0931704E1EDF0E0E491E0931804E2ED0B
:1036C000F0E0E491E093190410E000E00F1558F4E5
:1036D000F801EC0DFD1D649181E194E00E949611CA
:1036E0000F5F1F4FF3CF81E194E00E949B136BEDBE
:1036F00081E194E00E94961160E781E194E00E94EC
:10370000961161E881E194E00E9496116FEF81E1EA
:1037100094E00E94961162E370E080E090E00E94E5
:10372000140F85E79BE00E94790F81E080931601DA
:10373000809302011092D3021092D2021092D10211
:103740001092CD021092D0020E94460F6093920414
:103750007093930480939404909395041092CF02F5
:103760001092CE0280917A008F7D80937A0087E854
:1037700080937A0061E087E00E94110C61E087E0AD
:103780000E94E30BF894109290008AE080939100DD
:1037900082E08093710080911603883151F481ECAE
:1037A00092EA90939900809398009093BD02809341
:1037B000BC0280911603893151F48FE39CE9909308
:1037C0009900809398009093BD028093BC028091F1
:1037D00016038E3151F484E392E89093990080931C
:1037E00098009093BD028093BC02789482E090E0B0
:1037F00090930A01809309011092810081E08093E7
:103800000F010F900F900F900F900F90DF91CF91BD
:103810001F910F91FF90EF90DF90CF90BF90AF90EE
:103820009F908F907F906F905F904F903F902F90E0
:1038300008950F931F93CF938091B102882391F045
:103840001092B1021092B0021092AF0210921B03BC
:103850000E941C0E6093AB027093AC028093AD0289
:103860009093AE028091080181115AC08091B002FC
:10387000811128C080911A03811109C080911C0315
:10388000811105C067EA81E194E00E949611809160
:10389000AF02811112C081E08093AF0280911803C2
:1038A000882309F487C141E06AE281E194E00E9443
:1038B000C31182EA91E00E9457140E948A1681E0A7
:1038C0008093B0020E941C0E0091AB021091AC02DA
:1038D0002091AD023091AE02AB01BC01401B510BF7
:1038E000620B730B80910B0190910C01092E000C5F
:1038F000AA0BBB0B481759076A077B0788F00E9481
:103900001C0E6093AB027093AC028093AD02909357
:10391000AE020E945C1466EA81E194E00E94961176
:1039200080910801813061F49091B002911108C03A
:103930008093B0020E946B140E9491140E94711730
:103940008091080181508C3090F58091B0028111F6
:1039500005C081E08093B0020E9471170E941C0E86
:103960000091AB021091AC022091AD023091AE02F9
:10397000AB01BC01401B510B620B730B80910B011F
:1039800090910C01092E000CAA0BBB0B481759078C
:103990006A077B0760F00E941C0E6093AB02709375
:1039A000AC028093AD029093AE020E945C148091B1
:1039B00008018C3009F055C080911703882309F461
:1039C00050C08091AA0281114CC043E06EE181E1B8
:1039D00094E00E94C31181E194E00E940A128EE8F3
:1039E00091E00E9457148091A402811117C00E9497
:1039F000073023E130E040E050E00E94CE316F5FBD
:103A00007F4F8F4F9F4F6093A6027093A7028093C2
:103A1000A8029093A90281E08093A40280910901F9
:103A200090910A0190930701809306018091A6026C
:103A30009091A702880F991F90930A018093090122
:103A400081E08093AA0290910801292F30E09C50D8
:103A500040E050E0BA019D3008F0B5C0C9010E94B5
:103A6000D009809108018D3009F061C08091170361
:103A7000882381F082E090E090930A01809309010D
:103A800043E060E081E194E00E94C31181E194E0B1
:103A90000E940A128091B002811111C081E08093CE
:103AA000B00210921B0345E066E481E194E00E94BD
:103AB000C31181E194E00E940A120E947D140E94C9
:103AC0009B102AE930E0DC010E94BD33653D7E4F4A
:103AD0008F4F9F4F0CF47DC00E949B102AE930E06D
:103AE000DC010E94BD33643A754B810591050CF0F1
:103AF00073C00E949B102AE930E0DC010E94BD33B4
:103B00002CE231E040E050E00E94CE312C593F4F92
:103B10004F4F5F4F30930101209300010E949B1093
:103B20008B3892400CF45BC081E08093A5028091B9
:103B300008018E3011F41092AA028D508C30B0F52D
:103B40008091B002811107C0C1E0C093B0020E9411
:103B50008A16C093B0020E941C0E0091AB02109115
:103B6000AC022091AD023091AE02AB01BC01401B12
:103B7000510B620B730B80910B0190910C01092E7C
:103B8000000CAA0BBB0B481759076A077B0760F0AC
:103B90000E941C0E6093AB027093AC028093AD0246
:103BA0009093AE020E945C141092A402CF911F91D8
:103BB0000F91089545E066E481E194E00E94C3110D
:103BC00088E891E078CEC9010E94D0090E94410E98
:103BD00048CF24E630E09ECF2EEF30E09BCF10920E
:103BE000A502A5CF1F920F920FB60F9211242F930B
:103BF0003F934F935F936F937F938F939F93AF9375
:103C0000BF93EF93FF9380913C0390913D03A0916C
:103C10003E03B0913F03892B8A2B8B2BD1F19091DE
:103C20002F03E0913003F091310380818927808355
:103C300080913C0390913D03A0913E03B0913F03DE
:103C4000181619061A061B069CF480913C039091E5
:103C50003D03A0913E03B0913F030197A109B10933
:103C600080933C0390933D03A0933E03B0933F03A6
:103C7000FF91EF91BF91AF919F918F917F916F9144
:103C80005F914F913F912F910F900FBE0F901F901A
:103C9000189580911701EBE0F3E1E4919FEF909389
:103CA0001701E230E1F040F4EE2381F0E13089F0D9
:103CB00060E00E94E30BDCCFE33011F1E430C1F7A8
:103CC000909172009D7F90937200F2CF10926E00DF
:103CD000EFCF90916F009D7F90936F00E9CF90910F
:103CE00070009D7F9093700091E09093B000909150
:103CF000B100987F94609093B1001092B300D8CF38
:103D0000909171009D7F90937100D2CF1F920F927E
:103D10000FB60F9211242F933F934F935F936F939E
:103D20007F938F939F93AF93BF93EF93FF9388E419
:103D300093E00E94D30AFF91EF91BF91AF919F91C1
:103D40008F917F916F915F914F913F912F910F9044
:103D50000FBE0F901F9018951F920F920FB60F92E3
:103D600011242F938F939F93EF93FF93E091580328
:103D7000F09159038081E0915E03F0915F0382FD31
:103D80001BC09081809161038F5F8F7320916203CC
:103D9000821741F0E0916103F0E0E85BFC4F958F02
:103DA00080936103FF91EF919F918F912F910F90DD
:103DB0000FBE0F901F9018958081F4CF1F920F9225
:103DC0000FB60F9211242F933F938F939F93AF932E
:103DD000BF938091C0029091C102A091C202B091A4
:103DE000C3023091BF0223E0230F2D3758F501960F
:103DF000A11DB11D2093BF028093C0029093C10208
:103E0000A093C202B093C3028091C4029091C502F4
:103E1000A091C602B091C7020196A11DB11D809369
:103E2000C4029093C502A093C602B093C702BF918B
:103E3000AF919F918F913F912F910F900FBE0F9057
:103E40001F90189526E8230F0296A11DB11DD2CF11
:103E50001F920F920FB60F9211242F933F934F93FF
:103E60005F936F938F939F93AF93BF93EF93FF9362
:103E700080910301882309F46DC080918902882311
:103E800009F495C0809179008455990B909388022C
:103E900080938702209187023091880240910E0121
:103EA000429FC001439F900D1124909388028093FC
:103EB00087028091030390910403A0910503B091C0
:103EC00006034091850250918602480F591F509376
:103ED000860240938502209187023091880257FF25
:103EE00002C020953095809187029091880240E42D
:103EF000450F47FF02C0809590954091B8025091C0
:103F0000B9026091B402E091B802F091B902062EB4
:103F100002C0559547950A94E2F7241B350B2E0FE6
:103F20003F1F3093B9022093B8022091B60230911E
:103F3000B7024091B6025091B70202C0359527955D
:103F40006A95E2F7821B930B840F951F9093B7023B
:103F50008093B6028091FB028823C9F0909178008B
:103F6000809179008927982789279093E30280938D
:103F7000E20281E08093B3028091E2029091E30239
:103F80008E3F934024F01092E3021092E202FF91E0
:103F9000EF91BF91AF919F918F916F915F914F91F1
:103FA0003F912F910F900FBE0F901F901895809109
:103FB00079008058990B79CF1F920F920FB60F920C
:103FC00011248F939F938091890491E08927809396
:103FD00089049F918F910F900FBE0F901F9018959D
:103FE0001F920F920FB60F921124CF92DF92EF9291
:103FF000FF920F931F932F933F934F935F936F9372
:104000007F938F939F93AF93BF93EF93FF93809191
:10401000E5029091E60201969093E6028093E50214
:104020008091830290918402019690938402809300
:1040300083022091E5023091E6028091090190917E
:104040000A012817390708F448C180910801109225
:10405000E6021092E50291E09093B1028F5F893100
:1040600008F064C18093080180910801811152C059
:1040700085B191E0892785B9109282021092810260
:10408000809113018823E1F00E94460F6093F202B1
:104090007093F3028093F4029093F50248E050E0AD
:1040A00060E070E080EA9AE00E944D0C0E941C0ED5
:1040B00060937D0270937E0280937F0290938002D2
:1040C00080911401882331F180911A03882309F427
:1040D00030C180911C0381112CC181E080932903A0
:1040E00010E000E044E654E664E670E0C8010E9497
:1040F000D0090F5F1F4F0A311105A1F70E94410E31
:104100000E94460F609396047093970480939804DE
:1041100090939904809108018C3011F580911703D8
:10412000811126C18091090190910A0190930701A4
:1041300080930601809116038E3151F480911C0307
:104140008111FAC08CE090E090930A0180930901FC
:1041500080911603883109F00BC18DE0809308012E
:10416000809108018D3009F061C0209106013091E5
:10417000070130930A0120930901909116039931A8
:10418000D9F49091CC0220911D0330911E034091EF
:10419000BC025091BD02992309F4D1C037FF02C07F
:1041A00021583F4F220F232F221F330B240F351F7F
:1041B0003093990020939800909116039E31C9F492
:1041C00020911D0330911E034091BC025091BD020D
:1041D00037FF02C0295F3F4FA3E035952795AA9589
:1041E000E1F74C5E5F4F240F351F30939900209309
:1041F0009800909116039831C9F420911D033091D5
:104200001E034091BC025091BD0237FF02C0295FDE
:104210003F4FF3E035952795FA95E1F7405E5F4F04
:10422000240F351F30939900209398009091150129
:10423000992309F452C09FEF980F9C30A0F491E0AD
:10424000909329039091A502992309F482C00E94BA
:10425000F4100E94460F6093960470939704809325
:10426000980490939904809108018C3039F49091CE
:1042700016039E3119F491E090937C0293EF980F0E
:104280009D3058F540910001C42ED12CF12CE12C29
:10429000B6015527442790E02091A502222361F022
:1042A0003E2D2D2D1C2D0027402B512B622B732BC7
:1042B0004C295D296E297F290E94D0090E94410E58
:1042C00081E0809329030E94460F609396047093C7
:1042D00097048093980490939904809108018D30FD
:1042E00071F48091E5029091E602019741F480918A
:1042F000BC029091BD029093990080939800FF9129
:10430000EF91BF91AF919F918F917F916F915F914D
:104310004F913F912F911F910F91FF90EF90DF9060
:10432000CF900F900FBE0F901F901895109208011C
:104330009BCE0E94F410EECE86E090E005CF37FFD2
:1043400002C0295F3F4FB3E035952795BA95E1F755
:104350002DCF4091000150E070E060E0762F652F96
:10436000542F442790E00E94D0090E94410E71CF43
:104370008CE05CCFFC0111821082138212821582C4
:104380001482FB0101900020E9F73197AF01461B31
:10439000570B0C94171610924B0310924A0388EE99
:1043A00093E0A0E0B0E080934C0390934D03A09382
:1043B0004E03B0934F0382E391E0909349038093BF
:1043C000480385EC90E0909355038093540384EC6C
:1043D00090E0909357038093560380EC90E0909385
:1043E00059038093580381EC90E090935B03809392
:1043F0005A0382EC90E090935D0380935C0386EC1B
:1044000090E090935F0380935E031092610310929B
:10441000620310926303109264031092E8031092F7
:10442000E703A9EEB3E0EEE0F0E091E290935700ED
:1044300084918D933196E831F105C1F764E971E01B
:104440008CEA94E00E94BA2169E971E086EA94E07E
:104450000E94BA2164EA71E080EA94E00E94BA21E5
:104460006BE671E08AE994E00E94BA210E94460F4F
:1044700060939604709397048093980490939904A2
:104480000E94460F60939204709393048093940467
:10449000909395040E94460F60938E0470938F044E
:1044A00080939004909391040E94460F0E94460FBF
:1044B00060938A0470938B0480938C0490938D0492
:1044C00080918904809388040E94460F8AE080933B
:1044D0002604109227041092280410922504E5E780
:1044E000F4E080E081938F5F8A30E1F70E94460F0D
:1044F0000E94460F109214041092130410921D048F
:1045000010921E041092200410921F041092210495
:1045100081E08093220424E431E03093120420935C
:1045200011041092FC031092030410920A041092DA
:104530000B0410920C0410920D04809309048093D4
:1045400006041092070492E0909308048093FB0302
:104550008BE490E0909300048093FF030E94C433A7
:104560009093050480930404009709F450C02BE451
:10457000FC0111922A95E9F789E190E09093FE03FE
:104580008093FD038FE090E09093020480930104F8
:104590008091FC03882341F061E08FE00E94110CC0
:1045A00060E08FE00E94E30BEFE3F3E1E491F0E0E1
:1045B000EE0FFF1FEC5DFC4E8591949190930F04DC
:1045C00080930E04EBE1F3E1E491E09310040E9488
:1045D000460F6093F7037093F8038093F903909369
:1045E000FA030E94460F6093F3037093F4038093E1
:1045F000F5039093F6030E94460F0E94460F0E9417
:10460000460F0E94460F0E94460F0C94460F1092D0
:1046100000041092FF031092FE031092FD03B2CF2C
:10462000CF93DF9300D000D000D0CDB7DEB7789421
:1046300084B5826084BD84B5816084BD85B58260A7
:1046400085BD85B5816085BD80916E008160809358
:104650006E001092810080918100826080938100C1
:1046600080918100816080938100809180008160D1
:10467000809380008091B10084608093B10080912C
:10468000B00081608093B00080919100826080933F
:1046900091008091910081608093910080919000C1
:1046A0008160809390008091A10082608093A1003E
:1046B0008091A10081608093A1008091A000816021
:1046C0008093A00080917A00846080937A0080912A
:1046D0007A00826080937A0080917A008160809372
:1046E0007A0080917A00806880937A001092C100ED
:1046F000209A0E943D19909189048091880498170E
:1047000049F080918904809388040E94460F81E0DB
:104710008093C8028091C802882359F00E94460FF6
:104720000E94460F1092C80281E0639B9CC2809356
:104730002B0380912C03882309F47FC010922C0353
:1047400064E170E080E090E00E94140F8091190312
:10475000811148C0109215011092140180916800D7
:1047600088608093680080917300886080937300F4
:1047700060E085E00E94E30B64E170E080E090E09F
:104780000E94140F60E082E00E94E30B64E170E09D
:1047900080E090E00E94140F83B7817F846083BF24
:1047A000F89410927A00809164008FEF80936400F7
:1047B000809165008D638093650083B7816083BFBE
:1047C00080E685BF80E485BF7894889583B78E7F27
:1047D00083BF809164001092640080916500827CA8
:1047E0008093650080911903882339F18091C90273
:1047F000811123C01092150110921401109213011F
:1048000084E080936900E99A60E085E00E94E30B10
:1048100064E170E080E090E00E94140F60E082E0CC
:104820000E94E30B81E08093C9028093CC028093C5
:10483000CA021092CB020E94460F80912B0388235C
:10484000D9F010922B031092CC0281E08093CB021E
:104850001092CA02809168008860809368008091FD
:1048600073008860809373001092150110921401F8
:104870001092C9020E943D1980911601882309F403
:1048800081C280910201882309F471C08091D30212
:10489000811149C00E94460F60938A0470938B0473
:1048A00080938C0490938D0481E194E00E949B138B
:1048B0008FEE90E00E94790F40E060E081E194E0AB
:1048C0000E94C3118FEA91E00E94571485E79BE094
:1048D0000E94790F45E060E081E194E00E94C311FD
:1048E0006091160370E090E080E04AE00E94E113DE
:1048F00045E067E181E194E00E94C31187EB91E01C
:104900000E94571445E066E481E194E00E94C311DF
:104910008BEB91E00E9457148CEA94E00E94830A8A
:1049200081E08093D3020E94460F00918A04109187
:104930008B0420918C0430918D04601B710B820BD1
:10494000930B6C3D75408105910588F00E94460FE0
:1049500060938A0470938B0480938C0490938D04ED
:104960001092D3021092020181E08093D2028091D2
:10497000D202882309F4A3C08091D302811175C0AB
:104980000E94460F60938A0470938B0480938C047A
:1049900090938D0481E194E00E949B1385E79BE056
:1049A0000E94790F11E010931A048BE691E00E94A7
:1049B0008A0F6091170470E0681B790B76956795F4
:1049C00040E081E194E00E94C3116BE671E081E177
:1049D00094E00E94BB1484EA91E00E948A0F6091E7
:1049E000170470E0681B790B7695679542E081E1CA
:1049F00094E00E94C31164EA71E081E194E00E94B6
:104A0000BB148DEB91E00E948A0F6091170470E057
:104A1000681B790B7695679545E081E194E00E94EB
:104A2000C3116DEB71E081E194E00E94BB148BE651
:104A300091E00E948A0F6091170470E0681B790B67
:104A40007695679546E081E194E00E94C3116BE69C
:104A500071E081E194E00E94BB1410931A0485E791
:104A60009BE00E94790F1093D3020E94460F0091A1
:104A70008A0410918B0420918C0430918D04601B6A
:104A8000710B820B930B6433784081059105B8F06C
:104A90000E94460F60938A0470938B0480938C0469
:104AA00090938D041092D302109202011092D202C0
:104AB00081E08093D10281E194E00E949B13809178
:104AC000D102882309F45BC18091D30281110DC00A
:104AD00081E08093D3020E94460F60938A04709312
:104AE0008B0480938C0490938D049AE0F92E10E04F
:104AF00000E085E10E940A0E080F191FFA94F110D8
:104B0000F8CFB801110F880B990B0E949B3020E061
:104B100030E040E251E40E94D53220E030E040EA4B
:104B200050E40E94FA3020E030E040E85AE30E946E
:104B3000FA309B01AC010E94693220E030E048EC81
:104B400052E40E94FA300E9447334B015C0148E571
:104B5000841A42E0940AA108B108AAE1B0E0A501D4
:104B600094010E94ED312CE231E040E050E00E94DF
:104B7000CE31CA01B9010E949B306B017C0180914A
:104B8000D002811141C081E08093D00241E069E10F
:104B900081E194E00E94C3118FEE90E00E94790FB2
:104BA000A4E6B0E0A50194010E94ED312CE231E0D1
:104BB00040E050E00E94CE31C9012536310514F0A5
:104BC00084E690E097FF02C090E080E00E94271406
:104BD00082EC91E00E94571420E030E0A901C70167
:104BE000B6010E947D3345E018160CF03FC069E124
:104BF00081E194E00E94C31185E79BE00E94790F58
:104C000084EC91E00E94571420E030E0A901C70134
:104C1000B6010E94943018160CF441C00E94460F51
:104C20008091CD0281113BC00E94460F81E08093AC
:104C3000CD026AED71E088E493E00E94BB1410920B
:104C40000801109108011A3120F540E050E06AE0B7
:104C500070E0812F90E00E94D0090E94410E1F5FFA
:104C600010930801EECF80932C0363CD60E081E1C7
:104C700094E00E94C31185E79BE00E94790F109297
:104C80001A048CEC91E00E94571481E080931A047E
:104C9000BBCF68EE73E080E090E00E94140F0E94AA
:104CA000460F009192041091930420919404309146
:104CB0009504601B710B820B930B6F30710581059E
:104CC000910590F10E94460F6093920470939304B3
:104CD00080939404909395040091CE021091CF029A
:104CE000B801012E000C880B990B0E949B309B0190
:104CF000AC01C701B6010E947D3344E150E060E0A1
:104D000070E018161CF040E050E0BA01C8010E94A3
:104D1000D0090E94410E0A31110534F40F5F1F4F74
:104D20001093CF020093CE020E94460F00918A0496
:104D300010918B0420918C0430918D04601B710BB9
:104D4000820B930B603D774081059105C0F00E9476
:104D5000460F60938A0470938B0480938C04909325
:104D60008D041092D302109202011092D20210927E
:104D7000D1021092160181E194E00E949B130E94DF
:104D8000620BB9CC0E94BF0B90932803809327033A
:104D9000009709F060C18091100190911101019775
:104DA00091F40E94460F6B3071058105910558F012
:104DB0000E94460F2B013C0180912703909128030C
:104DC000892B09F029C10E94460F641975098609CB
:104DD0009709653F71408105910508F41DC18091D7
:104DE00015018111109215011092140110921301F6
:104DF00081E194E00E949B130E94891085E79BE06B
:104E00000E94790F10921A0440E060E081E194E082
:104E10000E94C31162E271E081E194E00E94BB1440
:104E200081EE91E00E94571486EA94E00E94830A82
:104E300069E671E081E194E00E94D21380EA94E097
:104E40000E94830A69E671E081E194E00E94D21336
:104E50008AE994E00E94830A60ED77E080E090E0C8
:104E60000E94140F85E79BE00E94790F81E194E096
:104E70000E949B1340E060E081E194E00E94C31136
:104E800084EE91E00E9457146091230370912403F3
:104E900080912503909126034AE00E94E11369EE78
:104EA00071E081E194E00E94BB148DEE91E00E94DC
:104EB000571460911F0370912003809121039091FA
:104EC00022034AE00E94E11369E671E081E194E087
:104ED0000E94D21383EF91E00E94571480911D032A
:104EE00090911E030E9427148AEF91E00E945714AC
:104EF00060910E0170E090E080E04AE00E94E113D2
:104F000060ED77E080E090E00E94140F80912A032A
:104F1000815080932A0381E194E00E949B1311E069
:104F200010931A0410921C0310921B030E94871402
:104F30008091270390912803892B09F06DC00E946E
:104F4000460F64197509860997096137774181050C
:104F5000910508F461C080911A038111A8C01983DA
:104F6000BE016F5F7F4F8CEF93E00E94251942E3F3
:104F700050E060E070E084EF91E00E944D0C1092F0
:104F8000150181E194E00E949B130E94891041E089
:104F90006AE081E194E00E94C3118DEF91E00E94EC
:104FA000571443E06AE081E194E00E94C31188E075
:104FB00092E00E9457148FE899E00E94790F46E032
:104FC00060E081E194E00E94C31109EE13E083EFF9
:104FD000E82E83E0F82EF80181918F01803120F4D2
:104FE00082EA91E00E945714F8013197608170E0E5
:104FF00090E080E040E10E94E113E016F10659F7ED
:1050000085E79BE00E94790F60ED77E080E090E01B
:105010000E94140F0C9400008091270390912803A4
:105020009093110180931001E0912A03ED3008F074
:10503000A6CEF0E0E25EF74D0C94AF335928042978
:105040004129B929FC297F2F872F872F872F872F69
:10505000872F8E2F942F0197F9F680911001909150
:105060001101892BC9F60E94460F6419750986093A
:1050700097096B3071058105910570F281E080938D
:105080000F0180912A038F5F80932A03853010F0EF
:1050900010922A030E94460F89EF93E09A83898336
:1050A00060912A03CE0101960E94161885CE1982BE
:1050B00057CF80910F018823E9F1109281008091F0
:1050C0007A008F7D80937A0087E880937A0066EA81
:1050D00081E194E00E94961181E194E00E949B138B
:1050E0000E94871481E080931501809314018093BE
:1050F000130180930D0110921C031092190310925A
:1051000018031092170388EA91E690930C0180939C
:105110000B0182E18093120143E060E081E194E0C1
:105120000E94C31181E194E00E940A120E9491142E
:1051300010920F010E94191C80911501811104C069
:1051400080911401882311F1809129038823F1F0C3
:105150000E94460F009196041091970420919804A4
:1051600030919904AB01BC01401B510B620B730BD6
:105170008091120190E0B0E0A0E0481759076A075B
:105180007B0720F0109229030E9489100E94460F8D
:1051900000918E0410918F0420919004309191041D
:1051A000601B710B820B930B60367A4E8105910563
:1051B00008F4E5CD8091230390912403A091250369
:1051C000B09126030196A11DB11D809323039093F6
:1051D0002403A0932503B09326038091E7039091C5
:1051E000E803029734F063E273E081E090E00E940C
:1051F0002F180E94460F60938E0470938F04809343
:10520000900490939104BBCD80910F01882309F401
:1052100091CF1092810011E01093150110931401A9
:105220001093130166EA81E194E00E9496110E94B6
:10523000871481E090E090930A01809309018AE04D
:105240008093120110920D0110931C031092180309
:10525000109217031092190341E061E081E194E09C
:105260000E94C31181E194E00E940A1243E062E1CE
:1052700081E194E00E94C31180E192E00E94571402
:1052800057CF80910F01882309F454CF10928100E9
:1052900011E010931501109314011093130166EAA5
:1052A00081E194E00E9496110E94871410920D01F2
:1052B00043E060E081E194E00E94C31181E194E069
:1052C0000E940A1210921B0380E197E290930C0156
:1052D00080930B0182E18093120110920D011092D4
:1052E0001C03109318031092170310921903809156
:1052F00016038E3131F42EE130E030930A01209311
:10530000090180911603883171F588E190E090934E
:105310000A018093090141E061E081E194E00E948B
:10532000C31181E194E00E940A1243E063E281E14B
:1053300094E00E94C31189E192E00E94571445E075
:1053400065E081E194E00E94C3118EE192E00E9449
:1053500057140E949114809108018D508C3030F4C4
:105360000E947D14E5CE89E190E0D1CF0E946B14BC
:10537000DFCE80910F01882309F4DCCE10928100EA
:1053800011E010931501109314011093130166EAB4
:1053900081E194E00E9496110E94871443E060E04E
:1053A00081E194E00E94C31181E194E00E940A121D
:1053B00088EA91E690930C0180930B0182E180933F
:1053C000120110920D0110921C03109218031092FA
:1053D00019031093170342E050E050930A014093E1
:1053E000090141E061E081E194E00E94C31181E1A3
:1053F00094E00E940A129CCE1092150110921401A2
:105400001092130180910F01882349F110928100BD
:1054100010920F0166EA81E194E00E9496110E94C9
:10542000CF140E9489100E940D1110921703109240
:1054300019030E94460F6093F3037093F403809363
:10544000F5039093F6030E94431182E090E090935D
:105450000A018093090190930701809306010E943D
:10546000460F0091F3031091F4032091F50330915E
:10547000F603601B710B820B930B68357B41810532
:10548000910520F10E94460F6093F3037093F4039B
:105490008093F5039093F6030E9489100E944311B4
:1054A0000E94CF141092150310921403109213034C
:1054B000EEE1F0E0F0930501E09304011092120395
:1054C000109211031092100310920F0380910301A8
:1054D000882309F4D7C10E94460FC090D602D0900D
:1054E000D702E090D802F090D9026C197D098E099C
:1054F0009F096436710581059105D0F00E94460F21
:105500006C197D098E099F096538734081059105E5
:1055100078F48091D4029091D502209104013091C9
:1055200005018217930724F09093050180930401ED
:105530000E94E10F9093D5028093D402209113032F
:10554000309114038217930720F0909314038093F3
:1055500013030E9401108823D9F080910203811166
:1055600017C081E0809302030E941C0E6093FE022C
:105570007093FF0280930003909301031092140331
:10558000109213032EE130E03093050120930401C3
:105590000E94460FC090F703D090F803E090F90303
:1055A000F090FA036C197D098E099F09603B7440E5
:1055B0008105910550F010921403109213034EE1EF
:1055C00050E050930501409304010E94460F6C196E
:1055D0007D098E099F09683B7B408105910508F490
:1055E0005CC00E94460F6093F7037093F8038093AA
:1055F000F9039093FA0320E030E04AE255E4609129
:105600000B0370910C0380910D0390910E030E9487
:1056100094308111FDC280E090E0AAEAB5E4809365
:105620000B0390930C03A0930D03B0930E0381E042
:1056300080931503209107033091080340910903DB
:1056400050910A0360910B0370910C0380910D033C
:1056500090910E030E94D53220E030E040E857E4FC
:105660000E94FA306B017C0120E030E0A9010E9429
:105670007D3320E030E040E05FE387FDD8C2C70122
:10568000B6010E9469320E9447336093030370930E
:1056900004038093050390930603809102038823FB
:1056A00009F4CDC00E94460F6093F7037093F8038E
:1056B0008093F9039093FA030E941C0EC090FE029F
:1056C000D090FF02E0900003F09001036C197D0977
:1056D0008E099F09603A7B4B8D40910508F4AFC05D
:1056E0000E940110882309F495C00E94460F009182
:1056F000DE021091DF022091E0023091E102601B96
:10570000710B820B930B623371058105910508F4CF
:1057100081C00E941C0E9B01AC012C193D094E0951
:105720005F0969017A01C092E802D092E902E09231
:10573000EA02F092EB026093FE027093FF02809304
:105740000003909301030E94460F6093D60270936A
:10575000D7028093D8029093D9024EE150E0509343
:1057600005014093040150EFC51A5EE7D50A5EE0DB
:10577000E50AF10881EAC81686E8D80681E0E8065D
:10578000F104D0F58091FC029091FD029C012F5F05
:105790003F4F3093FD022093FC020A96209115039F
:1057A00040E050E064E670E0222321F040E054E164
:1057B00064E670E00E94D0090E94410E0E94460FEC
:1057C0006093D6027093D7028093D8029093D90247
:1057D0000E94460F6093F3037093F4038093F503E4
:1057E0009093F6030E94460F6093DE027093DF02EF
:1057F0008093E0029093E102109202031092F10272
:105800000E94460F6093F2027093F3028093F402B9
:105810009093F5020E941C0E0091FE021091FF026F
:105820002091000330910103601B710B820B930BDD
:10583000603E784C8041910510F0109202038091F7
:10584000FC029091FD020297ECF01092FD02109282
:10585000FC0286E480937C0080917C008F7D8093A5
:105860007C001092030181E08093FB021092FD0204
:105870001092FC021092E8021092E9021092EA02E1
:105880001092EB028091FB02882309F4BFC20E94B0
:10589000460F0091F2021091F3022091F402309130
:1058A000F502601B710B820B930B6C32714081050A
:1058B000910598F18091E70281112FC0E4EFF1E0AA
:1058C000F0931003E0930F0344EF51E060E070E0C9
:1058D000CB010091E2021091E302012E000C220B99
:1058E000330B600F711F821F931F4150510989F7BD
:1058F00024EF31E040E050E00E9437323093100353
:1059000020930F0380910F039091100381E0809307
:10591000E70280910F03909110030E943A108823B0
:10592000D9F08091FA02811117C0109212031092DF
:1059300011031092E4028091E2029091E30281E06F
:105940008093FA020E941C0E6093F6027093F70295
:105950008093F8029093F9028091FA02882309F467
:10596000B4C00E941C0EC090F602D090F702E090E6
:10597000F802F090F9026C197D098E099F09603ACE
:105980007B4B8D40910508F4A0C00E943A108823FB
:1059900009F486C00E941C0E9B01AC012C193D0924
:1059A0004E095F0969017A01C092E802D092E902CA
:1059B000E092EA02F092EB026093F6027093F70233
:1059C0008093F8029093F9020E94460F1092E7022A
:1059D00030EFC31A3EE7D30A3EE0E30AF10841EA9A
:1059E000C41646E8D40641E0E406F10408F04AC0D3
:1059F0008091FC029091FD0201969093FD028093AC
:105A0000FC0282309105F9F4F89410929100109202
:105A1000950010929400C19A2AE020939100209161
:105A200071002260209371001092E6021092E5024C
:105A30001092080190930A0180930901789485B12E
:105A400091E0892785B98BB192E089278BB985B11F
:105A500091E0892785B98091FC029091FD0244E68E
:105A600050E060E070E00B960E94D0090E94410E69
:105A70000E94460F6093F3037093F4038093F50341
:105A80009093F6031092FA021092F1020E94460FD0
:105A90006093F2027093F3028093F4029093F50204
:105AA0000E941C0E0091F6021091F7022091F8025C
:105AB0003091F902601B710B820B930B603E784CA6
:105AC0008041910510F01092FA028091FC029091B1
:105AD000FD0202970CF49AC10E9443118091EF02DB
