:100000000C94A6090C94CE090C94CE090C94CE093C
:100010000C94CE090C94CE090C94CE090C940D1EB0
:100020000C94CE090C94CE090C94CE090C94CE09F4
:100030000C94CE090C94CE090C94CE090C94CE09E4
:100040000C94F91E0C94CE090C94C71E0C94A11E9E
:100050000C94CE090C94431F0C94CE090C94CE0939
:100060000C94CE090C94CE090C94CE090C94F71F75
:100070000C94CE090C94CE090C94CE090C94CE09A4
:100080000C94CE090C940B200C94CE090C94CE0940
:100090000C94CE090C94CE090C94CE090C94CE0984
:1000A0000C94CE090C94CE090C94CE090C94CE0974
:1000B0000C94CE09AED580A83FD300408D14200209
:1000C000A1C8DA1281FFD9F1DB40A4A6AFB40019B0
:1000D00080400000030C0F30333C3FC0C3CCCFF056
:1000E000F3FCFF00000000240027002A002D00027E
:1000F00000901C2420600800000000200000000088
:100100000000000A0000150F15141615151414151B
:1001100008000000000000000000000000000000D7
:1001200000000000180000000017000000000000A0
:1001300000000000000000000015000000000008A2
:10014000000000001400000000000E000000001677
:10015000000000000000000000000000000000009F
:10016000000000000000000000000000000000008F
:100170000000000000000000000000000000C0F0CF
:10018000F8FC7C1C1C1C7CFCF8F8C0000000000083
:1001900000C0F0FC7C1C0400000000000000071FF1
:1001A0003F7F7C7070707C7F3F3F070080E0F8FEEF
:1001B0003F1F0701000000000000000000000000D9
:1001C0000000000000000000C0E0F8FE3F0F030048
:1001D00000F0FEFEFF1F0707071FFFFEFCF00000F8
:1001E0000000000000101C1F1F070300000000009B
:1001F00000010F0F1F1F1C1C1C1F1F0F07010000F9
:1002000000000000000000000000000000000000EE
:1002100000000000000000000000000000000000DE
:1002200000000000000000000000000000000000CE
:1002300000001F1F1F1F1F1F1F1F1F1F0000000088
:1002400000000000000000000000000000000000AE
:1002500000C0F0F0F8F8FCFC7C7C7C7CFCFCF8F83E
:10026000F0E0C00000FFFFFFFFFFFFFF0000000005
:100270000000FFFFFFFFFFFFFF003FFFFFFFFFFF4B
:10028000FFC080808080C0FFFFFFFFFFFF3F0000B6
:10029000000307070F0F0F0F0F0F0F0F0F0F0707A9
:1002A000030100000000000000000000000000004A
:1002B0000000000000000000000000008080C0E09E
:1002C000F0FCFCFCFCFCFCFC3F3F3F1F1F0F07FF4A
:1002D000FFFFFFFFFFFFFF00000000000000FFFF27
:1002E000FFFFFFFFFFFF000000000000000F0F0FE7
:1002F0000F0F0F0F0F0000000000000000000000B3
:100300000000000000C0E0F0F8F8FCFCFC7C7C7C05
:100310007CFCFCFCF8F8F0E0C000030303030303DB
:10032000030080C0C0E0F8FFFFFFFF7F3F0F0080A9
:10033000C0F0F8FCFEFFFFFFFFDFCFC7C7C3C1C09F
:10034000C0C0C00F0F0F0F0F0F0F0F0F0F0F0F0FAA
:100350000F0F0F0F0F0F0F0F000000000000000025
:100360000000000000000000000000000080E0F03D
:10037000F8F8FCFC7C7C3C7C7CFCFCFCF8F8F0C0D5
:10038000000101010101010100F0F0F8F8FFFFFF99
:10039000FFDF8F8700E0E0E0E0E0E0E080010101C6
:1003A0000183FFFFFFFFFFFFFF00010307070F0FA0
:1003B0000F0F0F0F0F0F0F0F0707030100000000B3
:1003C000000000000000000000000000000000002D
:1003D00000000000000000000080C0E0F8FCFCFC11
:1003E000FCFCFCFC0000000080C0E0F0FCFEFF7F95
:1003F0001F0F0703FFFFFFFFFFFF0000007F7F7F4E
:100400007F7F7F7D7C7C7C7C7C7CFFFFFFFFFFFF10
:100410007C7C7C0000000000000000000000000068
:100420000F0F0F0F0F0F0000000000000000000072
:1004300000000000000000000000000000000000BC
:1004400000FCFCFCFCFCFCFCFCFCFCFCFCFCFCFCE8
:10045000FCFC00000000FFFFFFFFFFF878787878D1
:10046000F8F8F8F8F0E0E0800000E0E0E1E1E1E138
:10047000800000000080FFFFFFFFFFFF7F1E0001E4
:100480000307070F0F0F0F0F0F0F0F0F0F070703B4
:10049000010000000000000000000000000000005B
:1004A000000000000000000000C0E0F0F8F8FCFCD4
:1004B0007C3C3C3C7CFCFCF8F8F0E00000FEFFFFDC
:1004C000FFFFFFFFE1F0787878F8F8F8F8F0E0C087
:1004D00080003FFFFFFFFFFFFFC18000000080C1E1
:1004E000FFFFFFFFFFFF3E0000010307070F0F0F95
:1004F0000F0F0F0F0F0F0F07030300000000000086
:1005000000000000000000000000000000000000EB
:1005100000FCFCFCFCFCFCFCFCFCFCFCFCFCFCFC17
:10052000FCFCFCFCFC0000000000000000C0F0F837
:10053000FEFFFF7F1F0F0301000000000000E0FC32
:10054000FFFFFFFFFF0F01000000000000000000A0
:10055000000E0F0F0F0F0F0F010000000000000032
:10056000000000000000000000000000000000008B
:10057000000000000080E0F0F8F8FCFC7C3C3C3C13
:100580007CFCFCFCF8F8F0E080030F9FFFFFFFFF0E
:10059000F8F0F0F0F0FCFFFFFFFF9F0F03FEFFFFFE
:1005A000FFFFFFFF830100000183FFFFFFFFFFFF4D
:1005B000FE000307070F0F0F0F0F0F0F0F0F0F0F87
:1005C0000707070100000000000000000000000015
:1005D00000000000000000000000C0E0F0F8F8FC9F
:1005E000FC7C3C3C7C7CFCFCF8F8F0E0C0003F7FED
:1005F000FFFFFFFFFFE0C0808080C0E0FFFFFFFF44
:10060000FFFFFE00C0C1C3C3C7C7C7870707078373
:10061000E1FFFFFFFFFFFF3F00000103070F0F0F88
:100620000F0F0F0F0F0F0F0707030100000000004F
:1006300000000000000000000000000000000000BA
:1006400000000000000000000000FEFEFEFEFEFEB6
:10065000FEFEE0E0E0E0E0E0E0E00F0F0F0F0F0F44
:100660000F0F0000000000000000FCFCFCFCFCFC84
:10067000FCF8F0C080000000000000FCFCFCFCFC6A
:10068000FCFCFFFFFFFFFFFFFF7FFFFFFFFEFCF013
:10069000E08000FFFFFFFFFFFFFFFFFFFFFFFFFF07
:1006A000FF000001070F3F7FFFFFFFFFFFFFFFFF7E
:1006B000FFFF0F0F0F0F0F0F0F00000000000000D3
:1006C00001030F0F0F0F0F0F0F0F000000000000AE
:1006D000000000000000000000000000000000001A
:1006E000000000E0F0F0F8F8FCFC7C7C7C7C7CFCFA
:1006F000FCFCF8F8F0E0C00000071F3F7FFFFFFFA1
:10070000FFFCFCF8F8F8F8F3F3F3E3E3C38300002D
:10071000F8F8F8F8F8F8F8E1C18183838387CFFF10
:10072000FFFFFFFFFFFF7E00010307070F0F0F0F03
:100730000F0F0F0F0F0F0F0F07070301000000002F
:1007400000000000000000000000000000000000A9
:100750000000000000000000000000000000000099
:100760000000000000000000000000C0F0F8F8FCED
:10077000FCFE7E7E3E3E3E7EFEFEFCFCF8F0E01E71
:10078000FFFFFFFFFFFFF3C08080008080C0E0E03C
:10079000E0E0E0E00000010307070F0F0F0F0F0F6D
:1007A0000F0F0F0F0F0703030000000000000000F1
:1007B00000000000000000000000000000007C7C41
:1007C0007C7C7C7C7C7CFEFEFEFEFEFEFEFEFFFF53
:1007D000FFFFFFFFFFFF0F0F0F0F0F0F0F0F0000A7
:1007E0000000000000000000000000000000000009
:1007F00000000000000000000000FEFEFEFEFEFE05
:10080000FEF0787C7C7EFEFEFEFEFCFCF8E0FFFF46
:10081000FFFFFFFFFF000000000000FFFFFFFFFFE2
:10082000FFFF0F0F0F0F0F0F0F0000000000000F52
:100830000F0F0F0F0F0F000000000000000000005E
:1008400000000000000000000000000000E0E0F0F8
:10085000F0F8F8F8000000007E7E7EFFFFFFFFFF4B
:10086000FFFF7E7E7E7E000000FFFFFFFFFFFFFF99
:100870008080808000000003070F0F0F0F0F0F0F05
:100880000F0F00000000000000000000000000004A
:100890000000000000000000000000000000000058
:1008A000000000000000021E7EFEFEFEFEFCF08046
:1008B00000000080F8FEFEFEFEFE3E060000000185
:1008C0000F3FFFFFFFFFF8E0FCFFFFFFFF3F0700C8
:1008D000000000C0C08080C0C1E7FFFFFFFFFFFF36
:1008E0003F0700000000000000307070F0F0F0F0F2
:1008F000F0707030100000000000000000000000E8
:10090000050F7C011020FF201000901C087C018046
:1009100000000000000F01010101010101010101BE
:1009200001010101010101010F01010101010101A9
:100930000101010101010101010101010F01010199
:10094000010101010101010101010101010101FF99
:100950000101010101010101010101010101010187
:1009600001010F0101010101010101010101010169
:100970000101010101010F01010101010101010159
:10098000010101010101010101010F00000000004E
:10099000000005072060000000000000005F00006C
:1009A0000003000300143E143E14242A7F2A12433D
:1009B0003308666136495522500005030000001CCB
:1009C0002241000041221C0014083E081408083E81
:1009D00008080050300000000000080800606000B7
:1009E0000020100804023E5149453E0004027F00E9
:1009F000426151494622414949361814127F102755
:100A0000454545393E494949320101710907364991
:100A1000494936264949493E0036360000005636D7
:100A2000000008142241001414141414004122146C
:100A30000802015109063E4159555E7E0909097EA9
:100A40007F494949363E414141227F4141413E7FF4
:100A5000494949417F090909013E4141493A7F0815
:100A600008087F00417F4100304040403F7F08142C
:100A700022417F404040407F020C027F7F020408F9
:100A80007F3E4141413E7F090909061E2121215E29
:100A90007F09090976264949493201017F01013F51
:100AA0004040403F1F2040201F7F2010207F4122D8
:100AB0001C224107087008076151494543007F41E6
:100AC000000002040810200000417F00040201021F
:100AD0000440404040400001020400205454547837
:100AE0007F444444383844444444384444447F3880
:100AF0005454541804047E0505085454543C7F088B
:100B000004047800447D40002040443D007F1028CC
:100B1000440000417F40007C047804787C08040491
:100B20007838444444387C14141408081414147C91
:100B3000007C080404485454542004043F44443CBA
:100B40004040207C1C2040201C3C4030403C44283D
:100B50001028440C5050503C4464544C4400083617
:100B6000414100007F0000414136080002010204BB
:100B7000027F7F7F7F7F00000A0F205F0000000060
:100B80000000000000000000000000000000000065
:100B900000000000FEFE0000000000000000191927
:100BA0000000000000001E1E00001E1E00000000CD
:100BB00000000000000000000030FEFE3030FEFEAD
:100BC000300000031F1F03031F1F03000070F8D82D
:100BD000FE9898000000000C18187F191F0F0000E5
:100BE0001CB6A2F6CC60602030000101000E1B1183
:100BF0001B0E00000000DC7EE6C6860C808000072D
:100C00000F1C18191F1E1F13000000001E1E0000DD
:100C1000000000000000000000000000000000E0F4
:100C2000FC1E02000000000000073F7840000000AA
:100C30000000021EFCE000000000000040783F07BA
:100C40000000000000F0FC0E86C66EFCFC06301BA7
:100C50000F1F31181C0F030000808080F0F080808F
:100C60008000000101010F0F0101010000000000E0
:100C7000000000000000000000407C3C000000007C
:100C80000000000000000000000000000303030358
:100C90000300000000000000000000000000000051
:100CA00000001C1C0000000000000000C0F03C0E12
:100CB00002000020381E07010000000000F0FC0EBA
:100CC000C6C60EFCF80000030F1C18181C0F070006
:100CD00000000C06FEFE00000000001818181F1F80
:100CE00018181800000C06060686C67C3800001886
:100CF0001C1E1B1918181800000C06C6C6C6C6FC18
:100D00003800000C18181818190F0F000080C07058
:100D1000180EFEFE00000003030303031F1F030061
:100D200000FE7E666666E6C68000000C181818187D
:100D30001C0F070000F0FCCE6666E6CC80000007C2
:100D40000F1C18181C0F07000006060606E6FE3EDC
:100D50000E000000101C0F03000000000038FCC64D
:100D6000C6C6C6FC3800000F0F181818180F0F0061
:100D70000078FCCE8686CEFCF80000000C1919190C
:100D80001C0F030000000000E0E000000000000075
:100D900000001C1C0000000000000000E0E000005B
:100DA0000000000000407C3C00000000008080C08B
:100DB00040606020300000010103020606040C00C0
:100DC0000060606060606060600000060606060605
:100DD00006060600003020606040C0808000000CE5
:100DE0000406060203010100000C0686C6667E1C8E
:100DF00000000000001B1B0000000000E0F0389C19
:100E0000CCCCDCF8F000071F3873676666772700E4
:100E10000000C0FC3E3EFCC0000000181F0F030392
:100E20000F1F180000FEFEC6C6C6C6FC3C00001F11
:100E30001F181818181F0F0000F0FC0C06060606F5
:100E40000C0000030F0C181818180C0000FEFE060A
:100E500006060CFCF000001F1F1818180C0F0300EA
:100E600000FEFEC6C6C6C6C60600001F1F1818181C
:100E70001818180000FEFEC6C6C6C6C60600001F2B
:100E80001F0000000000000000F0FC0C06868686B3
:100E90008C0000030F0C1819191F0F0000FEFEC074
:100EA000C0C0C0FEFE00001F1F000000001F1F008A
:100EB00000000606FEFE06060000000018181F1FB0
:100EC0001818000000000000060606FEFE00000CD8
:100ED00018181818180F0F0000FEFEE0F0FC0E06A0
:100EE0000200001F1F0000030F1E180000FEFE007E
:100EF000000000000000001F1F1818181818180024
:100F000000FEFE3EF0F03EFEFE00001F1F0001014D
:100F1000001F1F0000FEFE1EF0C000FEFE00001FAE
:100F20001F0000031E1F1F0000F0FC0E06060EFC33
:100F3000F00000030F1C18181C0F030000FEFEC673
:100F4000C6C6C67C7C00001F1F0000000000000019
:100F500000F0FC0E06060EFCF00000030F1C181833
:100F60003C6F070000FEFEC6C6C6C6FC3C00001F64
:100F70001F000001031F1E1000387CE6C6C6C68C89
:100F80000000000C18181818190F0F0000060606AC
:100F9000FEFE06060600000000001F1F0000000005
:100FA00000FEFE00000000FEFE0000070F1C1818E7
:100FB0001C0F07000006FEFC0000FCFE06000000FF
:100FC000001F1F1F1F0000001EFEE000F0F000E0E9
:100FD000FE1E001F1F1E01011E1F1F0000020E3EED
:100FE000F8F83E0E020000101C1F03031F1C100027
:100FF000020E3E78E0E0783E0E02000000001F1F67
:101000000000000000060686C6F67E1E0E00001CCC
:101010001E1F1B1818181800000000FEFE02020018
:1010200000000000007F7F404000000000020E38FA
:10103000E080000000000000000000030E382000E7
:1010400000000202FEFE00000000000040407F7F22
:101050000000000010181C0E060E1C1810000000E6
:101060000000000000000000000000000000000080
:1010700000004040404040404040404000000103EC
:101080000604000000000000000000000000000056
:1010900000006030B0B0B0F0E000000E1F1B191966
:1010A0000D1F1F0000FEFE60303070E0C000001F0A
:1010B0001F0C18181C0F070000C0E07030303030D3
:1010C000600000070F1C181818180C0000C0E07012
:1010D000303060FEFE0000070F1C18180C1F1F00A8
:1010E00000C0E0B0B0B0B0E0C00000070F1D19199B
:1010F00019190D00003030FCFE36363600000000B5
:10110000001F1F000000000000C0E070303060F0E1
:10111000F0000003376E6C6C667F3F0000FEFE60DF
:10112000303030F0E000001F1F000000001F1F00E3
:1011300000003030F7F700000000001818181F1FDB
:101140001818180000003030F7F7000000000060A9
:1011500060607F3F0000000000FEFE80E070301005
:101160000000001F1F0103071E181000000606FEE6
:10117000FE00000000000000000F1F1818180000FB
:1011800000F0F030F0E030F0E000001F1F001F1F03
:10119000001F1F0000F0F060303030F0E000001F52
:1011A0001F000000001F1F0000C0E070303070E022
:1011B000C00000070F1C18181C0F070000F0F0609B
:1011C000303070E0C000007F7F060C0C0E0703007B
:1011D00000C0E070303060F0F0000003070E0C0C2F
:1011E000067F7F000000F0F06030303030000000FB
:1011F0001F1F00000000000000E0F0B0B0B0B030F1
:101200006000000C191919191B1F0E00003030FC6A
:10121000FC30303000000000000F1F1818180000CC
:1012200000F0F000000000F0F000000F1F18181888
:101230000C1F1F000030F0E00000E0F03000000064
:10124000010F1E1E0F01000070F00000C0C0000062
:10125000F07000071F1E03031E1F0700001030F070
:10126000C0C0F03010000010181E07071E18100034
:101270000010F0F08000F0F03000000060637F1F8D
:101280000F0100000030303030B0F0703000001836
:101290001C1E1B191818180000000000FCFE02029A
:1012A0000000000001013E7E404000000000000000
:1012B000FEFE00000000000000007F7F0000000034
:1012C00000000202FEFC00000000000040407E3EE4
:1012D000010100000080C0C0C0808080C00000010B
:1012E00000000001010100000000000023002600B2
:1012F00029002C0000000008000201000003040780
:1013000000000000000000000000000001020408CE
:10131000102040800102040810200102040810205F
:101320000408010200000000250028002B002E0008
:10133000040404040404040402020202020203037B
:101340000303030305050505E921C82F11241FBE6A
:10135000CFEFD8E0DEBFCDBF12E0A0E0B1E0E8EE15
:10136000FBE602C005900D92A039B107D9F724E041
:10137000A0E9B2E001C01D92A63DB207E1F719E075
:10138000C5EAD9E004C02197FE010E94DB33C43ACC
:10139000D107C9F70E942E230C94E7350C94000066
:1013A0004F925F926F927F928F929F92AF92BF9275
:1013B000FF9220911D0430911E048217930708F0BC
:1013C00043C02B0166247724852E962EA72EBB249E
:1013D000B82DA42F20912304F42C222391F0E22F86
:1013E000F0E0E49DD001E59DB00DF49DB00D112419
:1013F000FB2E289D40011124B92D249F900111241A
:10140000A32FE091290420912404309125045091C8
:101410002604E51323C0FC01EE0FFF1F8E0F9F1F54
:10142000820F931FE0912604E80FF92FF11DF0823F
:10143000E0912704E80FF92FF11DB08320912804D3
:10144000820F911DFC01A083FF90BF90AF909F90F1
:101450008F907F906F905F904F900895880F991FA5
:10146000880F991F820F931FE80FF92FF11D10822B
:10147000D9CFE0910504F09106040196880F991FD9
:10148000880F991FE80FF91FDF0114978081918160
:101490002D913C91821B930B69E070E00E94C73351
:1014A000892B11F06F5F7F4FCB010895AF92BF92F0
:1014B000CF92DF92EF92FF920F931F93CF93DF9320
:1014C0006C017B018B01040F151FEB015E01AE184F
:1014D000BF08C017D10759F06991D601ED91FC9171
:1014E0000190F081E02DC6010995892B79F7C5019E
:1014F000DF91CF911F910F91FF90EF90DF90CF90F0
:10150000BF90AF900895FC01448155816081718145
:1015100081E394E00C94560AFC01538D448D252FF1
:1015200030E0842F90E0821B930B541710F0CF967D
:10153000089501970895FC01918D828D981761F0AF
:10154000A28DAE0FBF2FB11D5D968C91928D9F5FC6
:101550009F73928F90E008958FEF9FEF0895FC01A5
:10156000918D828D981731F0828DE80FF11D858D58
:1015700090E008958FEF9FEF0895FC01918D228DEB
:10158000892F90E0805C9F4F821B91098F73992770
:10159000089588E693E00E94BD0A21E0892B09F4B2
:1015A00020E0822F0895FC01A48DA80FB92FB11D52
:1015B000A35ABF4F2C91848D90E001968F73992789
:1015C000848FA689B7892C93A089B1898C91837067
:1015D00080648C93938D848D981306C00288F38960
:1015E000E02D80818F7D80830895EF92FF920F938D
:1015F0001F93CF93DF93EC0181E0888F9B8D8C8DBF
:1016000098131AC0E889F989808185FF15C09FB7B2
:10161000F894EE89FF896083E889F9898081837075
:10162000806480839FBF81E090E0DF91CF911F9124
:101630000F91FF90EF900895F62E0B8D10E00F5F45
:101640001F4F0F731127E02E8C8D8E110CC00FB61B
:1016500007FCFACFE889F989808185FFF5CFCE01B3
:101660000E94D30AF1CFEB8DEC0FFD2FF11DE35A51
:10167000FF4FF0829FB7F8940B8FEA89FB89808136
:101680008062CFCFCF93DF93EC01888D8823B9F0B0
:10169000AA89BB89E889F9898C9185FD03C080817D
:1016A00086FD0DC00FB607FCF7CF8C9185FFF2CFFA
:1016B000808185FFEDCFCE010E94D30AE9CFDF9173
:1016C000CF91089580E090E0892B29F00E94C90A0B
:1016D00081110E94000080E090E0892B49F080E0B9
:1016E00090E0892B29F00E94000081110C940000E9
:1016F000089581508D3008F03DC0E82FF0E0ED579F
:10170000F44F0C94DB339A0B9E0B900B960BBA0B99
:10171000BA0BA10BA70BAB0BB10BBA0BB50BBB0BE9
:10172000809180008F778093800008958091800061
:101730008F7DF9CF84B58F7784BD089584B58F7D73
:10174000FBCF8091B0008F778093B0000895809197
:10175000B0008F7DF9CF809190008F7780939000BB
:101760000895809190008F7DF9CF8091A0008F77B0
:101770008093A00008958091A0008F7DF9CFCF9332
:10178000DF93E4E0F3E18491ECE1F3E1D491E0E470
:10179000F3E1C491CC23A1F081110E94790BEC2FCD
:1017A000F0E0EE0FFF1FE851FD4EA591B491EC91D2
:1017B000ED2381E090E009F480E0DF91CF9108957E
:1017C00080E090E0FACF1F93CF93DF93282F30E093
:1017D000F901EC50FD4E8491F901E45FFC4ED49187
:1017E000F901E05DFC4EC491CC23A9F0162F8111C4
:1017F0000E94790BEC2FF0E0EE0FFF1FEC5DFC4E2A
:10180000A591B4918FB7F894EC91111108C0D095BF
:10181000DE23DC938FBFDF91CF911F910895DE2BE4
:10182000F8CFCF93DF9390E0FC01E45FFC4E24916E
:10183000805D9C4EFC0184918823C9F090E0880F64
:10184000991FFC01ED51FF4FA591B491FC01EC5D96
:10185000FC4EC591D49161110DC09FB7F8948C9145
:10186000209582238C938881282328839FBFDF9132
:10187000CF910895623051F49FB7F8943C91822F34
:10188000809583238C93E8812E2BEFCF8FB7F8942C
:10189000EC912E2B2C938FBFEACF4F925F926F92D9
:1018A0007F928F929F92AF92BF92CF92DF92EF92F0
:1018B000FF920F931F93CF938B0149015A0190918F
:1018C0000201891799F09F3F09F452C0CF911F91EF
:1018D0000F91FF90EF90DF90CF90BF90AF909F90CF
:1018E0008F907F906F905F904F900895EFEEF0E0B3
:1018F000C491C7FDEBCF61E00E94110C2801712C4F
:10190000612CCC23F1F0980150E040E0C23009F0A6
:10191000F4C028013A0160E970ED83E090E00E9494
:10192000FA3169017A0181E0C81AD108E108F108A9
:1019300093E08FEFC816D104E104F10409F00CF430
:1019400073C168E478EE81E090E0A30192010E9407
:10195000FA3169017A0181E0C81AD108E108F10879
:1019600094E0C11161C185B5887F836085BDDAC00F
:1019700080930201EFEEF0E0C4919C2FCF3F09F479
:10198000A5CFC23009F471C058F4CC2381F1C13025
:1019900009F449C097FD9ACF61E00E94110CB3CFC2
:1019A000C33009F488C0C430A9F71092A000109287
:1019B000A1009091A10098609093A1009091A10046
:1019C00091609093A100282F30E0F901E05DFC4E7A
:1019D000E491F0E0EE0FFF1FEC5DFC4E4591549159
:1019E000F901E45FFC4EE491E093E80284CF14BC7B
:1019F00015BC94B5926094BD95B5916095BD282FA6
:101A000030E0F901E05DFC4EE491F0E0EE0FFF1FE5
:101A1000EC5DFC4E45915491F901E45FFC4EE4917C
:101A2000E093EB0268CF10928000109281009091B9
:101A300081009860909381009091810091609093D3
:101A40008100282F30E0F901E05DFC4EE491F0E0E8
:101A5000EE0FFF1FEC5DFC4E45915491F901E45FE0
:101A6000FC4EE491E093EA0246CF1092B00010924F
:101A7000B1009091B00092609093B0009091B1004D
:101A800091609093B100282F30E0F901E05DFC4EA9
:101A9000E491F0E0EE0FFF1FEC5DFC4E4591549198
:101AA0005093FD024093FC02F901E45FFC4EE49187
:101AB000E093FE0220CF109290001092910090913E
:101AC0009100986090939100909191009160909313
:101AD0009100282F30E0F901E05DFC4EE491F0E048
:101AE000EE0FFF1FEC5DFC4E45915491F901E45F50
:101AF000FC4EE491E093E902FECE60E072E18AE7F9
:101B000090E00E94FA3169017A0181E0C81AD10897
:101B1000E108F108C13071F580918100887F816012
:101B200080938100D801AA0FBB1FA50194010E94D8
:101B3000193228EE33E040E050E00E946332C230B8
:101B4000D1F10CF05AC0CC2339F1C13009F0BECE2E
:101B5000D0928900C09288002093F4023093F5025D
:101B60004093F6025093F70280916F008260809359
:101B70006F00ACCEC33039F480919100887F8160D2
:101B800080939100CFCFC43069F68091A100887F07
:101B900081608093A100C6CFC7BC2093F802309328
:101BA000F9024093FA025093FB0280916E0082602A
:101BB00080936E008BCEC092B3002093FF023093CF
:101BC00000034093010350930203809170008260F0
:101BD000809370007BCED0929900C09298002093A1
:101BE000F0023093F1024093F2025093F30280919D
:101BF000710082608093710069CEC33061F3C4309C
:101C000009F064CED092A900C092A8002093EC0203
:101C10003093ED024093EE025093EF0280917200F8
:101C200082608093720052CE8091B100887F892BB0
:101C30008093B10077CF8E50806480937C00809138
:101C40007A00806480937A0080917A0086FDFCCFD0
:101C5000809178009091790008953FB7F894809131
:101C6000E4029091E502A091E602B091E70226B568
:101C7000A89B05C02F3F19F00196A11DB11D3FBFC4
:101C8000BA2FA92F982F8827BC01CD01620F711D93
:101C9000811D911D42E0660F771F881F991F4A958D
:101CA000D1F708950F931F93CF93DF93CDB7DEB78E
:101CB00029970FB6F894DEBF0FBECDBF80912404E4
:101CC00090912504892B09F47CC00E942D0E00916F
:101CD0002A0410912B0420912C0430912D046017BC
:101CE00071078207930740F460932A0470932B04D2
:101CF00080932C0490932D0400912A0410912B04BE
:101D000020912C0430912D04601B710B820B930BDE
:101D10006C32714081059105C0F2F89480911F04E6
:101D2000909120049A838983E0912404F091250402
:101D3000DF0111968081898790911B04E0912E0428
:101D4000F0912F0480913004992309F445C09081CB
:101D5000982B98879081809589238F838F818C839E
:101D600088E08B8358856F8149853B812C818981EF
:101D70009A81508347FD252F3A952083262F39F0ED
:101D8000441F00C000006083000000C0F2CF38E0B4
:101D90004D9160830000019761F7F0932F04E09369
:101DA0002E0449873B832C839A83898378940E94ED
:101DB0002D0E60932A0470932B0480932C0490932F
:101DC0002D0429960FB6F894DEBF0FBECDBFDF916C
:101DD000CF911F910F9108959081982B98879081B2
:101DE000809589238F838F818E8388E08D835885AA
:101DF0006F8149853D812E8189819A81508347FD7C
:101E0000252F00C000C0208300C000C000C000C05B
:101E100000C060830000262F3A9541F0441F000067
:101E200000C000C000C000C000C0E8CF38E04D9145
:101E300000C0608300C0019709F7F0932F04E0937E
:101E40002E0449873D832E83AFCF8F929F92AF920E
:101E5000BF92CF92DF92EF92FF924B015C010E9402
:101E60002D0E6B017C010E942D0E6C197D098E09CF
:101E70009F09683E734081059105A8F321E0821A0D
:101E80009108A108B10888EEC80E83E0D81EE11CB5
:101E9000F11C81149104A104B10429F7FF90EF9083
:101EA000DF90CF90BF90AF909F908F9008952FB705
:101EB000F8946091E0027091E1028091E2029091C9
:101EC000E3022FBF0895CF93DF93EC018D85882324
:101ED00029F081508D87DF91CF9108959C818E816B
:101EE0009817C8F788896827E881F9810084F18507
:101EF000E02D42E0CE0109958C818F5F8C83EBCF82
:101F0000DC011E96ED91FC9184913196E491982F1D
:101F10008E2F08959093400480933F0481E394E0D2
:101F20000E94800F019719F410923A04089581E0FD
:101F300080933A040895CF92DF92EF92FF920F932D
:101F40001F93CF93DF93EC0110E000E0E990EE20C7
:101F500041F080913F0490914004009761F410E0BB
:101F600000E0C801DF91CF911F910F91FF90EF909A
:101F7000DF90CF900895FC013496C4903196E4919F
:101F8000EC1468F3F12CD12CEC0DFD2DF11DEE16A7
:101F9000FF062CF781E394E00E94800FE0913F045C
:101FA000F0914004209142040297D0F086E0E80EC0
:101FB000F11CEC18FD08EE0DFF1DE491E29FE02DF1
:101FC0001124EE2361F280913A0490914204899F9A
:101FD000802D11248E0F9927991F080F191FB6CF36
:101FE0003296EBCF4FB7F8942091D8023091D902B6
:101FF0008091D6029091D7024FBF4091D402042E17
:1020000002C0359527950A94E2F702C09595879509
:102010004A95E2F78802C00111242202800D911D29
:10202000112408950E94F20F9093100380930F03E0
:1020300020914E0330914F038217930720F0909325
:102040004F0380934E0320914E0330914F034091F4
:102050000501509106013695279536952795240F51
:10206000351F265F3F4F8217930790F081E08093E2
:10207000DA0280914E0390914F039093180380935E
:10208000170350931603409315038091DA020895C5
:102090001092DA02FACF8091D3028823E1F11092F4
:1020A000D20220911D0330911E0380914C03909128
:1020B0004D032817390740F080911D0390911E03AE
:1020C00090934D0380934C0380914C0390914D036A
:1020D00080914C0390914D0340914A0350914B03E2
:1020E00020914A0330914B03E0911D03F0911E03B0
:1020F000841B950B6AE070E00E94B333265F3F4F6C
:10210000620F731F81E0E617F70708F480E0809301
:102110001F031092D3028091D202811108C081E086
:102120008093D20280917A00886480937A008091B3
:102130001F030895CF93DF93D0E0C0E040E050E06C
:10214000BA01CE010E94D0092196CA31D105B1F75A
:10215000DF91CF910C94520ECF92DF92EF92FF92CB
:102160000F931F93CF93DF93C091BE02D091BF0214
:102170008E01000F111F06551D4FF801408151813E
:10218000052E000C660B770BC090C002D090C102E8
:10219000E090C202F090C302C41AD50AE60AF70A18
:1021A00081E10E941B0EF80191838083092E000CAF
:1021B000AA0BBB0BBC01CD016C0D7D1D8E1D9F1D9F
:1021C0006093C0027093C1028093C2029093C302D5
:1021D0002196CA30D105A4F4D093BF02C093BE02A9
:1021E0002AE030E040E050E00E94FA31C901DF917E
:1021F000CF911F910F91FF90EF90DF90CF900895B6
:102200001092BF021092BE02EBCF81E08093640374
:10221000809109014EEF5EEF6EEF70E090E00E945A
:10222000D0090E94520E0E94570F6093B60470931B
:10223000B7048093B8049093B904089580E680931E
:102240007C0081E08093A90210927B008EEF809346
:102250007A0080E090E0AAE2B5E480934603909390
:102260004703A0934803B09349038AE89DE3A6E996
:10227000B6E48093420390934303A0934403B09346
:10228000450385E394E2A0E0B0E080933E039093A1
:102290003F03A0934003B093410385E090E0909307
:1022A000D5028093D4020895109238031092370318
:1022B0000E941E110E94570F609317047093180418
:1022C0008093190490931A040E94570F6093190386
:1022D00070931A0380931B0390931C0381E08093F7
:1022E00004011092360310922303109224031092DB
:1022F0002503109226038EE190E0909306018093CF
:10230000050110924F0310924E0308951F93CF932F
:10231000DF93EC01162F61E0411101C060E08B8971
:102320000E94E30B80E58CBD81E08DBD60E08A8971
:102330000E94E30B1EBD00000DB407FEFDCF8EB55D
:1023400061E08A89DF91CF911F910C94E30BDC014E
:10235000ED91FC910084F185E02D40E009940F930C
:102360001F93CF938C01FC016483C085C60F6C2F33
:102370006F700E94A7116C2F62956F706061C80129
:10238000CF911F910F910C94A711FC0127812695E5
:1023900026952695621738F465832385620F67704A
:1023A000606B0C94A71108951F93CF93DF93EC01FA
:1023B000142F8E81681718F4CE010E94AF11612F7F
:1023C000CE01DF91CF911F910C94C511CF92DF9276
:1023D000EF92FF920F931F93CF93DF93EC01F62EB2
:1023E000C42ED22E1D868F818695869586950817D8
:1023F00010F00FEF080F1D2D011780F0412F6F2DEA
:10240000CE010E94D411EF2CCE1430F06889CE0199
:102410000E94630FE394F8CF1F5FEECF4D2D6F2D19
:10242000CE01DF91CF911F910F91FF90EF90DF9040
:10243000CF900C94D4110F93DC0115962C91159725
:102440001E96ED91FC911F9700E0309779F033963E
:10245000E491F0E0379683E0F595E7958A95E1F70A
:1024600051960C9151970E9F002D1124EFEFE20F22
:102470000E0F16964C911697415014966C91149726
:10248000CD010E94E6110F9108952F923F924F9235
:102490005F926F927F928F929F92AF92BF92CF92F4
:1024A000DF92EF92FF920F931F93CF93DF9300D0B1
:1024B00000D000D0CDB7DEB7FC0106851785011529
:1024C000110509F446C19E838D83F801329664900C
:1024D0003196A490EA2CF12CF7E0EF0EF11C23E0EA
:1024E000F594E7942A95E1F7E982F801349684910E
:1024F0003196E491681748F0CE2ED12C9601280F22
:10250000311D621713060CF469C06D3031F5ED8191
:10251000FE81868181111BC081E090E026960FB676
:10252000F894DEBF0FBECDBFDF91CF911F910F9109
:10253000FF90EF90DF90CF90BF90AF909F908F90E3
:102540007F906F905F904F903F902F90089560E044
:102550008D819E810E94AF11DFCF6A3009F0F9C0F2
:10256000ED81FE818681882321F060E0CF010E9409
:10257000AF11ED81FE8181898E9DE02C1124658152
:102580006E0D8485882349F097819695969596954A
:102590008E2D891B860F18162CF08D819E810E942E
:1025A000C511BACFED81FE812385820F87708387A5
:1025B0009E199583CF010E941B12ED81FE818485B7
:1025C000813009F0A9CF6385660F660F660F6F73C0
:1025D00062876064CF010E94A7119ECF0A5F1F4FE0
:1025E000B62EB81AED81FE8191858189989F802D44
:1025F00011248C83CF010E94800F029708F06AC0DB
:102600006E9CC0016F9C900D1124B89E6001B99E14
:10261000D00C11240C0D1D1D512CED81FE81F48177
:10262000FA83ED81FE812580F585FB83862C912C34
:10263000AA24A394B12C312C8981381608F087C0C4
:10264000412CED81FE818189481608F079C08B818B
:102650008587311002C0442041F0ED81FE81458123
:102660004F5F6A81CF010E94D411D12CC12CC614B6
:1026700008F059C0F801EC0DFD1D7490552061F073
:10268000EA14FB0449F4E72DF0E0052C02C0F595AF
:10269000E7950A94E2F77E2EED81FE8181898230F2
:1026A00081F4442009F43BC072948FE07822E72D36
:1026B000F0E0ED52FF4F7490672D8D819E810E9456
:1026C000630F672D8D819E810E94630F8FEFC81A63
:1026D000D80ACDCFEA2DE77088E0582E5E1AE111B6
:1026E00001C0512CF801612C90E080E06B1431F0B6
:1026F0002491820F911D63943196F8CF600E712E54
:10270000711CF3016490E89EF001E99EF00DF89EC3
:10271000F00D1124CE0EDF1E0C0D1D1D7ECFF72DEA
:10272000FF707F2EC4CFD12CEC81DE1639F060E033
:102730008D819E810E94630FD394F6CF439481CF05
:102740003394080D191DFFEFAF1ABF0A75CF622D24
:1027500024CF90E080E0E2CE0F93CF93DF93EC01A3
:102760001B861A8660E40E94A7110F8106950695C4
:10277000069501504E81415020E060E0CE010E945C
:10278000E611DF91CF910F910895089590E080E0D8
:102790000895CF93DF93EC0188819981009711F020
:1027A0000E948C34198218821D821C821B821A821C
:1027B000DF91CF910895FC0180819181009711F004
:1027C0000C948C340895FB0101900020E9F73197B7
:1027D000AF01461B570BDC01ED91FC910280F381A8
:1027E000E02D09948F929F92AF92BF920F931F9307
:1027F000CF93DF93CDB7DEB7A1970FB6F894DEBFC6
:102800000FBECDBF19A2423008F44AE08E010F5D21
:102810001F4F842E912CB12CA12CA50194010E9454
:102820006332E62FB901CA01EA3004F5E05DD80150
:10283000EE938D01232B242B252B79F790E080E05C
:10284000109729F0BD0181E394E00E94E313A19663
:102850000FB6F894DEBF0FBECDBFDF91CF911F91B1
:102860000F91BF90AF909F908F900895E95CDFCF5C
:10287000CF92DF92EF92FF92CF93DF936C01990F8B
:10288000EE08FF08F7FE19C06DE281E394E00E94B4
:102890004512EC0166277727CB016C197D098E095B
:1028A0009F094AE00E94F2138C0F9D1FDF91CF9188
:1028B000FF90EF90DF90CF9008954AE0C701B601F6
:1028C000DF91CF91FF90EF90DF90CF900C94F213B7
:1028D000BC0181E394E00C94E31380910E01882302
:1028E00051F041E066E181E394E00E94D41183E875
:1028F00091E00C94681408958091560381110DC0E5
:1029000081E08093560345E066E481E394E00E9411
:10291000D4118EE491E00C946814089545E06CE3C2
:1029200081E394E00E94D41187E592E00C9468144E
:1029300045E065E081E394E00E94D41184E591E0F4
:102940000C9468148091570381111CC0809153032B
:1029500081110AC041E06CE281E394E00E94D4114D
:102960008AE591E00E94681480915303882399F0CE
:1029700041E06CE381E394E00E94D41184E691E0AD
:102980000C94681441E06BE481E394E00E94D4115C
:1029900081E691E0E7CF08950F931F93CF93DF93E4
:1029A000EC010E94E3138C0169E671E0CE010E9404
:1029B000E313800F911FDF91CF911F910F91089525
:1029C00081E394E00E94AC1341E069E181E394E08B
:1029D0000E94D4116CE671E081E394E00E94CC1473
:1029E00045E065E081E394E00E94D41164E771E082
:1029F00081E394E00C94CC14CF92DF92EF92FF929B
:102A00000F931F93CF93DF937B01209107043091A5
:102A1000080482179307F4F4880F991F880F991FF1
:102A20002091050430910604820F931FFC01C2809F
:102A3000D380FFEFCF16DF0669F08B01C3E0D0E053
:102A4000C6018C1B9D0B0E94E431F80181938F011C
:102A50002197B0F7C701DF91CF911F910F91FF90A0
:102A6000EF90DF90CF9008950C94E4310F931F9373
:102A7000CF93DF93EC018C01060F171FC017D1070E
:102A80009CF4CE010E9434158F3F61F0FC9AFD98B2
:102A9000FB98D2BDC1BD8FB7F894F999FECFFA9AD1
:102AA000F99A8FBF2196EACFDF91CF911F910F91B5
:102AB00008950F931F93CF93DF93EC01162F22E01D
:102AC00030E0062F0095FD9AFC98FB98D2BDC1BD61
:102AD00010BD8FB7F894F999FECFFA9AF99A8FBF83
:102AE000F999FECF2130310539F0CE010E9434151D
:102AF00021E030E0802339F7DF91CF911F910F91D2
:102B00000895CF93DF93EB010E94E4318883CE01D7
:102B1000DF91CF910895CF93DF93EB010E94E431D1
:102B20008883CE01DF91CF9108950E94D2350F9313
:102B30001F93CF93DF93EC0188819981009759F01F
:102B40002A813B812617370730F081E0DF91CF9152
:102B50001F910F9108958B016F5F7F4F0E94153574
:102B6000009759F0998388831B830A832C813D81C8
:102B7000232B59F7FC011082E8CF80E0E7CFEF92DA
:102B8000FF920F931F93CF93DF93EC01FB01E08043
:102B9000F180E114F10411F1048115810115110591
:102BA000A9F08C819D81080F191FB801CE010E94E8
:102BB0009715882399F0288139818C819D81B701EF
:102BC000820F931F0E94E0351D830C83CE01DF919D
:102BD000CF911F910F91FF90EF900895CE010E9429
:102BE000C913F4CFEF92FF920F931F93CF93DF930C
:102BF00000D0CDB7DEB78C018EE289831A82F8014E
:102C0000E480F580FFEFEF1AFF0AB701C8010E94C8
:102C100097158823C9F0F80120813181848195813D
:102C2000BE016F5F7F4F820F931F0E94E035F80156
:102C3000F582E482C8010F900F90DF91CF911F9130
:102C40000F91FF90EF900895C8010E94C913F2CF31
:102C5000EF92FF920F931F93CF93DF93EC017B01D1
:102C60008A01BA010E94971581110BC0CE010E9402
:102C7000C913CE01DF91CF911F910F91FF90EF907B
:102C800008951D830C83B701888199810E94E035E6
:102C9000F0CFEF92FF920F931F93CF93DF93CDB7B7
:102CA000DEB762970FB6F894DEBF0FBECDBF8C01C2
:102CB000CB01F801118210821382128215821482D4
:102CC0004AE09E012F5F3F4F7901B9010E948B308E
:102CD000F70101900020E9F73197AF014E195F0924
:102CE000B701C8010E94281662960FB6F894DEBF9D
:102CF0000FBECDBFDF91CF911F910F91FF90EF904D
:102D00000895FB01DC0111961C921E9213961C92F1
:102D10001E92129715961C921E921497861797076B
:102D200049F0608171816115710521F044815581FF
:102D30000C94281608950F931F93CF93DF93CDB76C
:102D4000DEB768970FB6F894DEBF0FBECDBF809197
:102D50000901882309F4AFC090915303992309F422
:102D600061C009E110E09801281B310945E0429F4C
:102D7000C001439F900D11246AE070E00E94C733A8
:102D8000BC01CE0143960E94491680910901B80109
:102D9000681B710977FF02C06F5F7F4F759567955C
:102DA000CE0107960E944916BE01695F7F4FCE0192
:102DB0000D960E948116CE010D960E94F215BE015D
:102DC0006D5E7F4F0E94BF15BC01CE0101960E942F
:102DD0008116CE010D960E94DB13CE0107960E944C
:102DE000DB13CE0143960E94DB1341E06AE081E3EE
:102DF00094E00E94D41180E891E00E946814CE0112
:102E000001960E94830ACE0101960E94DB13689608
:102E10000FB6F894DEBF0FBECDBFDF91CF911F91EB
:102E20000F91089590915703911121C0803151F471
:102E300041E064E181E394E00E94D41183E891E0F1
:102E40000E94681441E06AE081E394E00E94D4119A
:102E500080E891E00E9468149091090129E130E036
:102E6000A901491B5109CA010E943814D0CF8531EC
:102E700051F441E069E381E394E00E94D41184E8D5
:102E800091E00E94681441E069E181E394E00E94CE
:102E9000D41180E891E00E9468142091090189E131
:102EA00090E0821B910924E1AC01249FC001259F81
:102EB000900D1124D9CF8091570341E0811112C0A8
:102EC0006AE081E394E00E94D41184E891E00E94DA
:102ED00068146091090170E090E080E04AE00E948F
:102EE000F21395CF69E181E394E00E94D41182E866
:102EF00091E00E94681441E06DE281E394E00E9459
:102F0000D411E7CF0F931F93CF93DF93CDB7DEB7E5
:102F100068970FB6F894DEBF0FBECDBF8091090150
:102F2000882309F45EC090915303992309F464C087
:102F300025E0829FC00111246AE070E00E94C7333F
:102F4000BC01CE0143960E9449166091090170E0D0
:102F500075956795CE010D960E94491618861F82B9
:102F60001A8619861C861B868BE289831A828E013B
:102F70000F5F1F4FF80101900020E9F73197AF0173
:102F8000401B510BB801CE0107960E942816BE01C6
:102F9000635F7F4FCE0107960E94BF150E94F21516
:102FA000BE016D5E7F4F0E94BF15BC01C8010E942B
:102FB0008116CE0107960E94DB13CE010D960E946A
:102FC000DB13CE0143960E94DB1341E06AE081E30C
:102FD00094E00E94D411C8010E94830AC8010E9493
:102FE000DB1368960FB6F894DEBF0FBECDBFDF913E
:102FF000CF911F910F9108958091570341E0811166
:1030000012C06AE081E394E00E94D41186E891E066
:103010000E9468146091090170E090E080E04AE04D
:103020000E94F213DECF69E181E394E00E94D411A3
:1030300086E891E00E9468148091090124E1829F52
:10304000C00111240E943814CCCF0C94EC31FF92B3
:103050000F931F93CF93DF93EC01F62E0881198114
:10306000C8010E94E431F81621F06F2DC8010E94BA
:10307000EC31CE01DF91CF911F910F91FF90089518
:103080002F923F924F925F926F927F928F929F9278
:10309000AF92BF92CF92DF92EF92FF920F931F9366
:1030A000CF93DF9300D000D0CDB7DEB71C013B013A
:1030B0000E94390A7C018091070490910804281627
:1030C00039060CF0BCC080900504909006042FEFE8
:1030D000221A320A220C331C220C331CF401E20D9A
:1030E000F31D4080518034E0231A3108820C931C78
:1030F000F401A080B180C2018A199B098E199F0931
:1031000004970CF49CC0028113810F3F100729F42F
:1031100087010A0D1B1D01501109680123E0C21A25
:10312000D1087C826B820C151D050CF488C0C60189
:103130000E943415EB81FC819191FC83EB83FFEFBE
:10314000CF1ADF0A891779F3C80105960F5F1F4F61
:10315000481659064CF4B701C5010E943615F40112
:10316000008111810E0D1F1D17FD69C05301F4E090
:10317000AF0EB11C6801C618D708C601860D971D91
:103180009A838983F30161913F01CE0101960E94E8
:1031900027186A147B0489F780910504909106042E
:1031A000280E391EC8010396F10193838283808122
:1031B0009181E80EF91E0E191F09780117FF03C04F
:1031C000F7E0EF0EF11C83E0F594E7948A95E1F7C0
:1031D0008E2D880F880F880F081B94E0892E912C64
:1031E0006FEF27E0C22ED12CAA24A394B12CC601E4
:1031F000801B9109950102C0220F331F8A95E2F7C7
:10320000C901809568230F5F083060F0F10180816B
:1032100091818E0D9F1D0E945915FFEFEF1AFF0A35
:103220006FEF00E021E0821A910809F76F3F39F053
:10323000F101808191818E0D9F1D0E9459150F9083
:103240000F900F900F90DF91CF911F910F91FF90F2
:10325000EF90DF90CF90BF90AF909F908F907F9036
:103260006F905F904F903F902F9008950F931F9312
:10327000CF93DF9300D0CDB7DEB78B019A838983DC
:10328000FB016081CE0101960E942718C8010F90B2
:103290000F90DF91CF911F910F9108952F923F9240
:1032A0004F925F926F927F928F929F92AF92BF9256
:1032B000CF92DF92EF92FF920F931F93CF93DF9302
:1032C00000D000D01F92CDB7DEB710921601109239
:1032D00015011092140161E082E00E94110C61E07E
:1032E00085E00E94110C61E082E00E94E30B809176
:1032F0000F0181508A3018F084E080930F01809193
:1033000021049091220497FD08C061E00E94110CF5
:1033100060E0809121040E94E30B81E080931C0413
:1033200062E370E080E090E00E94250F61E085E0BC
:103330000E94E30B61E089E00E94110C61E083E0F0
:103340000E94110C62E080E10E94110C0E949A1010
:1033500082E090E090930804809307048CE090E072
:103360000E94F033FC01909306048093050481E0F1
:1033700090E09183808382EE91E09583848383EC57
:1033800093E09187808790E080E00E9434158D83E0
:103390001A82198263E0CE0101960E942718F12C4F
:1033A000E12CD12CC12C00910504109106040E0DC6
:1033B0001F1D8091070490910804C816D9060CF0CF
:1033C00087C0C6010E94390A1C012D81233031F0CB
:1033D000BC01F801808191810E943615809105041D
:1033E000909106049C012E0D3F1D3C832B83F90117
:1033F000A080B1802A0C3B1C2101F1E04F1A51083A
:10340000320145018FEF0FEF1FEF68147904DCF0F4
:1034100083010819190915950795080D191DC8018B
:103420000E9434159FEF980F9E3FC8F0811105C090
:1034300048012FEF821A920AE8CF380131E0631A6F
:1034400071088FEFE2CF811117C0041515053CF408
:103450000F5F1F4FC8010E9434158823B1F3C801C4
:103460000E94341527E030E091E0482F4923A1F075
:10347000990F21503109F9CF0A151B053CF0015075
:103480001109C8010E9434158F3FB1F304151505C9
:1034900034F70F5F1F4FE3CF0A191B0993E0000FAA
:1034A000111F9A95E1F7020F131F0F3F100769F0E4
:1034B000020D131DEB81FC8113830283FFEFCF1AF2
:1034C000DF0A24E0E20EF11C6ECF0FEF1FEFF2CF08
:1034D0008FEF9FEFF8019383828365E573E08CEFB4
:1034E00093E00E948B158DEF93E00E94E43180936E
:1034F00058038EEF93E00E94E431809359031982C0
:10350000BE016F5F7F4F8BEF93E00E9436196EED27
:1035100072E08BEF93E00E948B156AE573E090E018
:1035200080E00E94FC1480915A0390915B03A0916B
:103530005C03B0915D030196A11DB11D80935A03F8
:1035400090935B03A0935C03B0935D0380910704A9
:10355000909108041816190634F46AE573E090E0B7
:1035600080E00E9440186EE573E081E090E00E94E8
:10357000FC148FEF93E00E9434158E3141F0885196
:10358000823028F069E18FEF93E00E9425188CEFDC
:1035900093E00E943415823028F060E08CEF93E0D5
:1035A0000E9425180E94BF0B892B89F48FEF93E0AE
:1035B0000E9434156EE1893131F068E18E3119F0E5
:1035C000883129F469E18FEF93E00E94251861E5C5
:1035D00073E08FEF93E00E94811565E673E089EF59
:1035E00093E00E94811580916503853010F0109260
:1035F000650364E170E080E090E00E94250FF8949C
:103600008091680088608093680080917300886072
:1036100080937300789461E08AE00E94110C60E06E
:103620008AE00E94E30B6AE070E080E090E00E9494
:10363000250F61E08AE00E94E30B6AE070E080E021
:1036400090E00E94250F87E18093430486E18093F8
:10365000440461E087E10E94110C61E08091440420
:103660000E94110C1FB7F8948091DB02811127C0D2
:10367000EAE3F3E18491E6E1F3E19491E82FF0E0ED
:10368000EE0FFF1FED51FF4FA591B491EC91E9238F
:1036900021F461E08AE00E94E30B61E08AE00E948D
:1036A000110C8CB580618CBD8CB580648CBD61E0E3
:1036B0008DE00E94110C61E08BE00E94110C809162
:1036C000DB028F5F8093DB021FBF109235041092E4
:1036D0003604EDECF0E0C590D490EFECF0E0F4901F
:1036E000E0EDF0E0E491E0933704E1EDF0E0E49107
:1036F000E0933804E2EDF0E0E491E093390410E067
:1037000000E00F1558F4F801EC0DFD1D649181E304
:1037100094E00E94A7110F5F1F4FF3CF81E394E065
:103720000E94AC136BED81E394E00E94A71160E767
:1037300081E394E00E94A71161E881E394E00E9494
:10374000A7116FEF81E394E00E94A71162E370E09C
:1037500080E090E00E94250F86E79BE00E948A0FA0
:1037600081E0809317018093030110920E03109261
:103770000D0310920C031092080310920B030E9489
:10378000570F6093B2047093B3048093B404909382
:10379000B50410920A031092090380917A008F7D7C
:1037A00080937A0087E880937A0061E087E00E9446
:1037B000110C61E087E00E94E30BF89410929000F6
:1037C0008AE08093910082E08093710080915103A0
:1037D000883151F481EC92EA90939900809398009B
:1037E0009093DD028093DC0280915103893151F482
:1037F0008FE39CE990939900809398009093DD0269
:103800008093DC02809151038E3151F484E392E87D
:1038100090939900809398009093DD028093DC024E
:10382000789482E090E090930B0180930A011092CB
:10383000810081E0809310010F900F900F900F9006
:103840000F90DF91CF911F910F91FF90EF90DF903C
:10385000CF90BF90AF909F908F907F906F905F9030
:103860004F903F902F9008950F931F93CF93809187
:10387000D102882391F01092D1021092D0021092BE
:10388000CF02109256030E942D0E6093CB027093CC
:10389000CC028093CD029093CE02809109018111D8
:1038A0005AC08091D002811128C0809155038111A6
:1038B00009C080915703811105C067EA81E394E054
:1038C0000E94A7118091CF02811112C081E08093E4
:1038D000CF0280915303882309F487C141E06AE253
:1038E00081E394E00E94D41188E891E00E9468147A
:1038F0000E949B1681E08093D0020E942D0E0091C1
:10390000CB021091CC022091CD023091CE02AB01BE
:10391000BC01401B510B620B730B80910C01909109
:103920000D01092E000CAA0BBB0B481759076A079B
:103930007B0788F00E942D0E6093CB027093CC021F
:103940008093CD029093CE020E946D1466EA81E3CB
:1039500094E00E94A71180910901813061F4909157
:10396000D002911108C08093D0020E947C140E9462
:10397000A2140E9482178091090181508C3090F529
:103980008091D002811105C081E08093D0020E9415
:1039900082170E942D0E0091CB021091CC02209133
:1039A000CD023091CE02AB01BC01401B510B620B2A
:1039B000730B80910C0190910D01092E000CAA0B44
:1039C000BB0B481759076A077B0760F00E942D0E52
:1039D0006093CB027093CC028093CD029093CE0281
:1039E0000E946D14809109018C3009F055C08091BE
:1039F0005203882309F450C08091CA0281114CC03F
:103A000043E06EE181E394E00E94D41181E394E00D
:103A10000E941B1280E991E00E9468148091C40208
:103A2000811117C00E94333023E130E040E050E0C4
:103A30000E94FA316F5F7F4F8F4F9F4F6093C60296
:103A40007093C7028093C8029093C90281E080936B
:103A5000C40280910A0190910B0190930801809318
:103A600007018091C6029091C702880F991F909319
:103A70000B0180930A0181E08093CA0290910901B1
:103A8000292F30E09C5040E050E0BA019D3008F012
:103A9000B5C0C9010E94D009809109018D3009F09B
:103AA00061C080915203882381F082E090E090937E
:103AB0000B0180930A0143E060E081E394E00E94FF
:103AC000D41181E394E00E941B128091D0028111F5
:103AD00011C081E08093D0021092560345E066E465
:103AE00081E394E00E94D41181E394E00E941B12D0
:103AF0000E948E140E94AC102AE930E0DC010E9482
:103B0000E933653D7E4F8F4F9F4F0CF47DC00E947F
:103B1000AC102AE930E0DC010E94E933643A754BCD
:103B2000810591050CF073C00E94AC102AE930E0C9
:103B3000DC010E94E9332CE231E040E050E00E94D9
:103B4000FA312C593F4F4F4F5F4F30930101209373
:103B500000010E94AC108B3892400CF45BC081E0F5
:103B60008093C502809109018E3011F41092CA022F
:103B70008D508C30B0F58091D002811107C0C1E02A
:103B8000C093D0020E949B16C093D0020E942D0EBB
:103B90000091CB021091CC022091CD023091CE0247
:103BA000AB01BC01401B510B620B730B80910C01EC
:103BB00090910D01092E000CAA0BBB0B4817590759
:103BC0006A077B0760F00E942D0E6093CB02709312
:103BD000CC028093CD029093CE020E946D1410927D
:103BE000C402CF911F910F91089545E066E481E3EF
:103BF00094E00E94D4118AE891E078CEC9010E9435
:103C0000D0090E94520E48CF24E630E09ECF2EEF1E
:103C100030E09BCF1092C502A5CF1F920F920FB636
:103C20000F9211242F933F934F935F936F937F9342
:103C30008F939F93AF93BF93EF93FF938091FF0276
:103C400090910003A0910103B0910203892B8A2B6C
:103C50008B2BD1F19091FE02E091FC02F091FD02DC
:103C60008081892780838091FF0290910003A09139
:103C70000103B0910203181619061A061B069CF4DC
:103C80008091FF0290910003A0910103B091020383
:103C90000197A109B1098093FF0290930003A093BB
:103CA0000103B0930203FF91EF91BF91AF919F91F8
:103CB0008F917F916F915F914F913F912F910F90D5
:103CC0000FBE0F901F90189580910201EFEEF0E06B
:103CD000E4919FEF90930201E230E1F040F4EE2393
:103CE00081F0E13089F060E00E94E30BDCCFE3304B
:103CF00011F1E430C1F7909172009D7F90937200B2
:103D0000F2CF10926E00EFCF90916F009D7F909355
:103D10006F00E9CF909170009D7F9093700091E0CB
:103D20009093B0009091B100987F94609093B1000F
:103D30001092B300D8CF909171009D7F9093710045
:103D4000D2CF1F920F920FB60F9211242F933F9351
:103D50004F935F936F937F938F939F93AF93BF9393
:103D6000EF93FF9388E693E00E94D30AFF91EF91CF
:103D7000BF91AF919F918F917F916F915F914F9183
:103D80003F912F910F900FBE0F901F9018951F928B
:103D90000F920FB60F9211242F938F939F93EF934F
:103DA000FF93E0917803F09179038081E0917E03A5
:103DB000F0917F0382FD1BC09081809181038F5F12
:103DC0008F7320918203821741F0E0918103F0E02C
:103DD000E859FC4F958F80938103FF91EF919F915C
:103DE0008F912F910F900FBE0F901F90189580818B
:103DF000F4CF1F920F920FB60F9211242F933F937F
:103E00008F939F93AF93BF938091E0029091E102D3
:103E1000A091E202B091E3023091DF0223E0230F90
:103E20002D3758F50196A11DB11D2093DF02809317
:103E3000E0029093E102A093E202B093E30280914A
:103E4000E4029091E502A091E602B091E7020196AA
:103E5000A11DB11D8093E4029093E502A093E602B8
:103E6000B093E702BF91AF919F918F913F912F91B6
:103E70000F900FBE0F901F90189526E8230F029603
:103E8000A11DB11DD2CF1F920F920FB60F92112418
:103E90002F933F934F935F936F938F939F93AF9322
:103EA000BF93EF93FF9380910401882309F46DC0C1
:103EB0008091A902882309F495C0809179008455E6
:103EC000990B9093A8028093A7022091A7023091AA
:103ED000A80240910F01429FC001439F900D112401
:103EE0009093A8028093A70280913E0390913F0394
:103EF000A0914003B09141034091A5025091A602C8
:103F0000480F591F5093A6024093A5022091A70283
:103F10003091A80257FF02C0209530958091A702EA
:103F20009091A80240E4450F47FF02C0809590950C
:103F30004091D8025091D9026091D402E091D80208
:103F4000F091D902062E02C0559547950A94E2F7E2
:103F5000241B350B2E0F3F1F3093D9022093D8021C
:103F60002091D6023091D7024091D6025091D702CB
:103F700002C0359527956A95E2F7821B930B840F53
:103F8000951F9093D7028093D602809136038823A1
:103F9000C9F0909178008091790089279827892726
:103FA00090931E0380931D0381E08093D302809140
:103FB0001D0390911E038E3F934024F010921E0328
:103FC00010921D03FF91EF91BF91AF919F918F913F
:103FD0006F915F914F913F912F910F900FBE0F9076
:103FE0001F901895809179008058990B79CF1F9276
:103FF0000F920FB60F9211248F939F938091A90473
:1040000091E089278093A9049F918F910F900FBE13
:104010000F901F9018951F920F920FB60F921124B8
:10402000CF92DF92EF92FF920F931F932F933F93C4
:104030004F935F936F937F938F939F93AF93BF93B0
:10404000EF93FF9380912003909121030196909329
:104050002103809320038091A3029091A4020196F2
:104060009093A4028093A302209120033091210316
:1040700080910A0190910B012817390708F42EC18D
:1040800080910901109221031092200391E09093F6
:10409000D1028F5F893108F04AC180930901809174
:1040A0000901811138C085B191E0892785B9109245
:1040B000A2021092A10280911401882309F10E94AA
:1040C000570F60932D0370932E0380932F039093CB
:1040D00030038091550328E030E040E050E060EA92
:1040E0007AE0811127C189E00E944D0C0E942D0EBB
:1040F00060939D0270939E0280939F029093A00212
:1041000080911501882339F080915703882309F4A1
:1041100013C10E940511809109018C3011F5809125
:104120005203811143C180910A0190910B01909338
:10413000080180930701809151038E3151F48091E1
:104140005703811117C18CE090E090930B0180938D
:104150000A0180915103883109F028C18DE08093D4
:104160000901809109018D3009F061C0209107019A
:104170003091080130930B0120930A019091510373
:104180009931D9F490910703209158033091590344
:104190004091DC025091DD02992309F4EEC037FF13
:1041A00002C021583F4F220F232F221F330B240F11
:1041B000351F3093990020939800909151039E31C0
:1041C000C9F420915803309159034091DC02509179
:1041D000DD0237FF02C0295F3F4FA3E035952795E9
:1041E000AA95E1F74C5E5F4F240F351F309399007D
:1041F00020939800909151039831C9F4209158036D
:10420000309159034091DC025091DD0237FF02C02A
:10421000295F3F4FF3E035952795FA95E1F7405E2A
:104220005F4F240F351F3093990020939800909191
:104230001601992309F452C09FEF980F9C30A0F407
:1042400091E0909364039091C502992309F49FC073
:104250000E9405110E94570F6093B6047093B70433
:104260008093B8049093B904809109018C3039F49B
:10427000909151039E3119F491E090939C0293EF39
:10428000980F9D3058F540910001C42ED12CF12C8F
:10429000E12CB6015527442790E02091C502222346
:1042A00061F03E2D2D2D1C2D0027402B512B622B14
:1042B000732B4C295D296E297F290E94D0090E9409
:1042C000520E81E0809364030E94570F6093B604FE
:1042D0007093B7048093B8049093B9048091090156
:1042E0008D3071F48091200390912103019741F466
:1042F0008091DC029091DD02909399008093980068
:10430000FF91EF91BF91AF919F918F917F916F91AD
:104310005F914F913F912F911F910F91FF90EF90DF
:10432000DF90CF900F900FBE0F901F9018951092B6
:104330000901B5CE83E0D8CE81E08093640310E01C
:1043400000E044E654E664E670E0C8010E94D0094B
:104350000F5F1F4F0A311105A1F70E94520E0E94F4
:10436000570F6093B6047093B7048093B80490938A
:10437000B904D1CE86E090E0E8CE37FF02C0295FD5
:104380003F4FB3E035952795BA95E1F710CF4091AF
:10439000000150E070E060E0762F652F542F442735
:1043A00090E00E94D0090E94520E54CF8CE03FCF83
:1043B000FC01118210821382128215821482FB0189
:1043C00001900020E9F73197AF01461B570B0C9481
:1043D000281610926B0310926A0388EE93E0A0E017
:1043E000B0E080936C0390936D03A0936E03B09341
:1043F0006F0382E391E0909369038093680385ECF7
:1044000090E0909375038093740384EC90E0909314
:1044100077038093760380EC90E090937903809308
:10442000780381EC90E090937B0380937A0382EC95
:1044300090E090937D0380937C0386EC90E09093D2
:104440007F0380937E031092810310928203109267
:104450008303109284031092080410920704A9E0C9
:10446000B4E0EEE0F0E091E29093570084918D93F8
:104470003196E831F105C1F766E971E08CEC94E022
:104480000E94D8216CE971E086EC94E00E94D8216A
:1044900067EA71E080EC94E00E94D8216BE671E05D
:1044A0008AEB94E00E94D8210E94570F6093B604D3
:1044B0007093B7048093B8049093B9040E94570F87
:1044C0006093B2047093B3048093B4049093B504E2
:1044D0000E94570F6093AE047093AF048093B004B2
:1044E0009093B1040E94570F0E94570F6093AA0443
:1044F0007093AB048093AC049093AD048091A904B5
:104500008093A8040E94570F8AE08093460410927B
:1045100047041092480410924504E5E9F4E080E075
:1045200081938F5F8A30E1F70E94570F0E94570FE7
:10453000109234041092330410923D0410923E0401
:104540001092400410923F041092410481E0809345
:10455000420424E431E03093320420933104109279
:104560001C041092230410922A0410922B0410921F
:104570002C0410922D048093290480932604109219
:10458000270492E09093280480931B048BE490E02E
:104590009093200480931F040E94F033909325048D
:1045A00080932404009709F450C02BE4FC0111927D
:1045B0002A95E9F789E190E090931E0480931D0409
:1045C0008FE090E0909322048093210480911C045A
:1045D000882341F061E08FE00E94110C60E08FE0E1
:1045E0000E94E30BEFE3F3E1E491F0E0EE0FFF1F35
:1045F000EC5DFC4E8591949190932F0480932E0452
:10460000EBE1F3E1E491E09330040E94570F6093F3
:104610001704709318048093190490931A040E944D
:10462000570F6093130470931404809315049093B0
:1046300016040E94570F0E94570F0E94570F0E94A6
:10464000570F0E94570F0C94570F1092200410928E
:104650001F0410921E0410921D04B2CFCF93DF935B
:1046600000D000D000D0CDB7DEB7789484B582609A
:1046700084BD84B5816084BD85B5826085BD85B506
:10468000816085BD80916E00816080936E00109284
:1046900081008091810082608093810080918100FF
:1046A0008160809381008091800081608093800090
:1046B0008091B10084608093B1008091B0008160EE
:1046C0008093B000809191008260809391008091EE
:1046D000910081608093910080919000816080932F
:1046E00090008091A10082608093A1008091A10040
:1046F00081608093A1008091A00081608093A000E0
:1047000080917A00846080937A0080917A00826040
:1047100080937A0080917A00816080937A00809102
:104720007A00806880937A001092C100209A17BEA8
:104730000E944E199091A9048091A804981749F0FD
:104740008091A9048093A8040E94570F81E0809370
:10475000030380910303882359F00E94570F0E949E
:10476000570F1092030381E0639BA0C280936603FE
:1047700080916703882309F47FC01092670364E186
:1047800070E080E090E00E94250F80915403811139
:1047900048C010921601109215018091680088603F
:1047A000809368008091730088608093730060E05C
:1047B00085E00E94E30B64E170E080E090E00E94FD
:1047C000250F60E082E00E94E30B64E170E080E08E
:1047D00090E00E94250F83B7817F846083BFF894A7
:1047E00010927A00809164008FEF80936400809132
:1047F00065008D638093650083B7816083BF80E629
:1048000085BF80E485BF7894889583B78E7F83BF0A
:10481000809164001092640080916500827C809396
:10482000650080915403882339F18091040381113C
:1048300023C010921601109215011092140184E009
:1048400080936900E99A60E085E00E94E30B64E1EF
:1048500070E080E090E00E94250F60E082E00E941E
:10486000E30B81E0809304038093070380930503A7
:10487000109206030E94570F809166038823D9F097
:10488000109266031092070381E080930603109252
:1048900005038091680088608093680080917300B0
:1048A0008860809373001092160110921501109287
:1048B00004030E944E1980911701882309F485C2D0
:1048C00080910301882309F471C080910E03811146
:1048D00049C00E94570F6093AA047093AB04809361
:1048E000AC049093AD0481E394E00E94AC1380EF9C
:1048F00090E00E948A0F40E060E081E394E00E9433
:10490000D41184EB91E00E94681486E79BE00E943A
:104910008A0F45E060E081E394E00E94D411609149
:10492000510370E090E080E04AE00E94F21345E01D
:1049300067E181E394E00E94D4118CEB91E00E9446
:10494000681445E066E481E394E00E94D41180ECB1
:1049500091E00E9468148CEC94E00E94830A81E04C
:1049600080930E030E94570F0091AA041091AB048C
:104970002091AC043091AD04601B710B820B930B42
:104980006C3D75408105910588F00E94570F60933A
:10499000AA047093AB048093AC049093AD0410927E
:1049A0000E031092030181E080930D0380910D03AB
:1049B000882309F4A7C080910E03811179C00E9459
:1049C000570F6093AA047093AB048093AC04909348
:1049D000AD0481E394E00E94AC1386E79BE00E9463
:1049E0008A0F11E010933A0487EA91E00E949B0F2E
:1049F0006091370470E0681B790B7695679540E00D
:104A000081E394E00E94D41167EA71E081E394E0CD
:104A10000E94CC1410923A0482EC91E00E949B0F09
:104A20006091370470E0681B790B7695679542E0DA
:104A300081E394E00E94D41162EC71E081E394E0A0
:104A40000E94CC1410923A048FEC91E00E949B0FCC
:104A50006091370470E0681B790B7695679544E0A8
:104A600081E394E00E94D4116FEC71E081E394E063
:104A70000E94CC1483ED91E00E949B0F609137045B
:104A800070E0681B790B7695679546E081E394E0CA
:104A90000E94D41163ED71E081E394E00E94CC1494
:104AA00010933A0486E79BE00E948A0F10930E034E
:104AB0000E94570F0091AA041091AB042091AC04FE
:104AC0003091AD04601B710B820B930B6433784003
:104AD00081059105B8F00E94570F6093AA04709366
:104AE000AB048093AC049093AD0410920E0310922B
:104AF000030110920D0381E080930C0381E394E0A5
:104B00000E94AC1380910C03882309F45BC180914F
:104B10000E0381110DC081E080930E030E94570F98
:104B20006093AA047093AB048093AC049093AD049B
:104B30009AE0F92E10E000E085E10E941B0E080FBC
:104B4000191FFA94F110F8CFB801110F880B990BC7
:104B50000E94C73020E030E040E251E40E9401337F
:104B600020E030E040EA50E40E94263120E030E0CE
:104B700040E85AE30E9426319B01AC010E94953225
:104B800020E030E048EC52E40E9426310E9473336A
:104B90004B015C0148E5841A42E0940AA108B1087F
:104BA000AAE1B0E0A50194010E9419322CE231E0A3
:104BB00040E050E00E94FA31CA01B9010E94C730BA
:104BC0006B017C0180910B03811141C081E08093D6
:104BD0000B0341E069E181E394E00E94D41180EF8E
:104BE00090E00E948A0FA4E6B0E0A50194010E9423
:104BF00019322CE231E040E050E00E94FA31C90164
:104C00002536310514F084E690E097FF02C090E06D
:104C100080E00E94381480EE91E00E94681420E049
:104C200030E0A901C701B6010E94A93345E018167A
:104C30000CF03FC069E181E394E00E94D41186E763
:104C40009BE00E948A0F82EE91E00E94681420E0AF
:104C500030E0A901C701B6010E94C03018160CF45B
:104C600041C00E94570F8091080381113BC00E94F0
:104C7000570F81E08093080368EF71E088E693E0C6
:104C80000E94CC1410920901109109011A3120F5EB
:104C900040E050E06AE070E0812F90E00E94D0098F
:104CA0000E94520E1F5F10930901EECF809367039D
:104CB0005FCD60E081E394E00E94D41186E79BE041
:104CC0000E948A0F10923A048AEE91E00E946814C2
:104CD00081E080933A04BBCF68EE73E080E090E01F
:104CE0000E94250F0E94570F0091B2041091B30447
:104CF0002091B4043091B504601B710B820B930BAF
:104D00006F3071058105910590F10E94570F6093F6
:104D1000B2047093B3048093B4049093B5040091EB
:104D2000090310910A03B801012E000C880B990B9E
:104D30000E94C7309B01AC01C701B6010E94A93394
:104D400044E150E060E070E018161CF040E050E0F4
:104D5000BA01C8010E94D0090E94520E0A31110501
:104D600034F40F5F1F4F10930A03009309030E944E
:104D7000570F0091AA041091AB042091AC0430911C
:104D8000AD04601B710B820B930B603D7740810576
:104D90009105C0F00E94570F6093AA047093AB0472
:104DA0008093AC049093AD0410920E031092030113
:104DB00010920D0310920C031092170181E394E0FE
:104DC0000E94AC130E94620BB5CC0E94BF0B909363
:104DD000630380936203009709F062C1809111011F
:104DE00090911201019791F40E94570F6B30710559
:104DF0008105910558F00E94570F2B013C018091CD
:104E0000620390916303892B09F02BC10E94570F15
:104E10006419750986099709653F714081059105F7
:104E200008F41FC180911601811110921601109291
:104E300015011092140181E394E00E94AC130E94CA
:104E40009A1086E79BE00E948A0F10923A0440E095
:104E500060E081E394E00E94D41162E271E081E3BA
:104E600094E00E94CC148FEF91E00E94681486ECCD
:104E700094E00E94830A69E671E081E394E00E9475
:104E8000E31380EC94E00E94830A69E671E081E319
:104E900094E00E94E3138AEB94E00E94830A60EDA1
:104EA00077E080E090E00E94250F86E79BE00E947B
:104EB0008A0F81E394E00E94AC1340E060E081E35C
:104EC00094E00E94D41182E092E00E946814609104
:104ED0005E0370915F0380916003909161034AE0EB
:104EE0000E94F21367E072E081E394E00E94CC1428
:104EF0008BE092E00E94681460915A0370915B030A
:104F000080915C0390915D034AE00E94F21369E690
:104F100071E081E394E00E94E31381E192E00E945A
:104F2000681480915803909159030E94381488E1C5
:104F300092E00E94681460910F0170E090E080E0C0
:104F40004AE00E94F21360ED77E080E090E00E947A
:104F5000250F8091650381508093650381E394E080
:104F60000E94AC1311E010933A0410925703109270
:104F700056030E9498148091620390916303892BD9
:104F800009F06FC00E94570F6419750986099709C7
:104F9000613777418105910508F463C0809155031D
:104FA0008111AAC01983BE016F5F7F4F8CEF93E020
:104FB0000E94361922E330E040E050E064EF71E0F7
:104FC00089E00E944D0C1092160181E394E00E944A
:104FD000AC130E949A1041E06AE081E394E00E94E1
:104FE000D4118091550342E06AE0882309F486C019
:104FF00081E394E00E94D4118BE192E00E94681456
:1050000080E999E00E948A0F46E060E081E394E045
:105010000E94D41109E014E083E1E82E84E0F82E28
:10502000F80181918F01803120F488E891E00E949D
:105030006814F8013197608170E090E080E040E111
:105040000E94F213E016F10659F786E79BE00E94F2
:105050008A0F60ED77E080E090E00E94250F0C94CD
:1050600000008091620390916303909312018093FA
:105070001101E0916503ED3008F0A4CEF0E0ED5BA6
:10508000F74D0C94DB33852830296D29E529282A32
:10509000AB2FB32FB32FB32FB32FB32FBA2FC02FF4
:1050A0000197F9F68091110190911201892BC9F6AF
:1050B0000E94570F64197509860997096B307105AD
:1050C0008105910570F281E0809310018091650364
:1050D0008F5F80936503853010F0109265030E9406
:1050E000570F89EF93E09A83898360916503CE011E
:1050F00001960E94271883CE198255CF81E394E050
:105100000E94D41185E292E079CF8091100188232A
:10511000E9F11092810080917A008F7D80937A006E
:1051200087E880937A0066EA81E394E00E94A71101
:1051300081E394E00E94AC130E94981481E0809374
:105140001601809315018093140180930E01109233
:10515000570310925403109253031092520388EA9B
:1051600091E690930D0180930C0182E180931301ED
:1051700043E060E081E394E00E94D41181E394E095
:105180000E941B120E94A214109210010E94341C53
:1051900080911601811104C080911501882311F1BD
:1051A000809164038823F1F00E94570F0091B604A8
:1051B0001091B7042091B8043091B904AB01BC013F
:1051C000401B510B620B730B8091130190E0B0E018
:1051D000A0E0481759076A077B0720F01092640384
:1051E0000E949A100E94570F0091AE041091AF04D4
:1051F0002091B0043091B104601B710B820B930BB2
:1052000060367A4E8105910508F4DCCD80915E030D
:1052100090915F03A0916003B09161030196A11D7D
:10522000B11D80935E0390935F03A0936003B093DE
:1052300061038091070490910804029734F06EE5B1
:1052400073E081E090E00E9440180E94570F609345
:10525000AE047093AF048093B0049093B104B2CDC8
:1052600080911001882309F491CF1092810011E000
:1052700010931601109315011093140166EA81E34F
:1052800094E00E94A7110E94981481E090E090930E
:105290000B0180930A018AE08093130110920E01A2
:1052A0001093570310925303109252031092540319
:1052B00041E061E081E394E00E94D41181E394E055
:1052C0000E941B1243E062E181E394E00E94D4114A
:1052D00080E392E00E94681457CF809110018823E8
:1052E00009F454CF1092810011E01093160110932D
:1052F00015011093140166EA81E394E00E94A7115E
:105300000E94981410920E0143E060E081E394E063
:105310000E94D41181E394E00E941B121092560364
:1053200080E197E290930D0180930C0182E18093DC
:10533000130110920E011092570310935303109211
:10534000520310925403809151038E3131F42EE1B7
:1053500030E030930B0120930A0180915103883192
:1053600071F588E190E090930B0180930A0141E090
:1053700061E081E394E00E94D41181E394E00E9413
:105380001B1243E063E281E394E00E94D41189E3BD
:1053900092E00E94681445E065E081E394E00E9499
:1053A000D4118EE392E00E9468140E94A2148091AE
:1053B00009018D508C3030F40E948E14E5CE89E1C5
:1053C00090E0D1CF0E947C14DFCE80911001882321
:1053D00009F4DCCE1092810011E0109316011093B5
:1053E00015011093140166EA81E394E00E94A7116D
:1053F0000E94981443E060E081E394E00E94D4119D
:1054000081E394E00E941B1288EA91E690930D01DB
:1054100080930C0182E18093130110920E0110928F
:10542000570310925303109254031093520342E017
:1054300050E050930B0140930A0141E061E081E3A9
:1054400094E00E94D41181E394E00E941B129CCE50
:105450001092160110921501109214018091100102
:10546000882349F1109281001092100166EA81E3CD
:1054700094E00E94A7110E94E0140E949A100E94DA
:105480001E1110925203109254030E94570F609302
:1054900013047093140480931504909316040E94CF
:1054A000541182E090E090930B0180930A01909355
:1054B0000801809307010E94570F00911304109177
:1054C00014042091150430911604601B710B820B9B
:1054D000930B68357B418105910520F10E94570FA0
:1054E000609313047093140480931504909316042E
:1054F0000E949A100E9454110E94E01410925003CE
:1055000010924F0310924E03EEE1F0E0F09306018B
:10551000E093050110924D0310924C0310924B033F
:1055200010924A0380910401882309F4D7C10E9494
:10553000570FC0901103D0901203E0901303F09026
:1055400014036C197D098E099F0964367105810564
:105550009105D0F00E94570F6C197D098E099F09A3
:10556000653873408105910578F480910F0390911F
:10557000100320910501309106018217930724F052
:1055800090930601809305010E94F20F90931003FF
:1055900080930F0320914E0330914F03821793079E
:1055A00020F090934F0380934E030E9412108823A3
:1055B000D9F080913D03811117C081E080933D03B4
:1055C0000E942D0E6093390370933A0380933B033E
:1055D00090933C0310924F0310924E032EE130E063
:1055E00030930601209305010E94570FC0901704C5
:1055F000D0901804E0901904F0901A046C197D09F9
:105600008E099F09603B74408105910550F010920E
:105610004F0310924E034EE150E050930601409329
:1056200005010E94570F6C197D098E099F09683B7F
:105630007B408105910508F45CC00E94570F609380
:105640001704709318048093190490931A0420E0AF
:1056500030E04AE255E4609146037091470380913F
:105660004803909149030E94C0308111FDC280E03F
:1056700090E0AAEAB5E48093460390934703A09391
:105680004803B093490381E0809350032091420383
:105690003091430340914403509145036091460388
:1056A0007091470380914803909149030E94013310
:1056B00020E030E040E857E40E9426316B017C0195
:1056C00020E030E0A9010E94A93320E030E040E072
:1056D0005FE387FDD8C2C701B6010E9495320E94E0
:1056E000733360933E0370933F0380934003909322
:1056F000410380913D03882309F4CDC00E94570FD8
:1057000060931704709318048093190490931A04FB
:105710000E942D0EC0903903D0903A03E0903B03D5
:10572000F0903C036C197D098E099F09603A7B4B10
:105730008D40910508F4AFC00E941210882309F42F
:1057400095C00E94570F0091190310911A032091E0
:105750001B0330911C03601B710B820B930B623394
:1057600071058105910508F481C00E942D0E9B01F1
:10577000AC012C193D094E095F0969017A01C092FB
:105780002303D0922403E0922503F0922603609332
:10579000390370933A0380933B0390933C030E9438
:1057A000570F609311037093120380931303909328
:1057B00014034EE150E0509306014093050150EF71
:1057C000C51A5EE7D50A5EE0E50AF10881EAC81667
:1057D00086E8D80681E0E806F104D0F58091370329
:1057E000909138039C012F5F3F4F309338032093F3
:1057F00037030A962091500340E050E064E670E0E1
:10580000222321F040E054E164E670E00E94D009D8
:105810000E94520E0E94570F60931103709312035F
:1058200080931303909314030E94570F6093130403
:105830007093140480931504909316040E94570FDC
:105840006093190370931A0380931B0390931C03B6
:1058500010923D0310922C030E94570F60932D036A
:1058600070932E0380932F03909330030E942D0E8C
:105870000091390310913A0320913B0330913C038E
:10588000601B710B820B930B603E784C804191053D
:1058900010F010923D0380913703909138030297E6
:1058A000ECF0109238031092370386E480937C006A
:1058B00080917C008F7D80937C001092040181E0B8
:1058C000809336031092380310923703109223030B
:1058D0001092240310922503109226038091360320
:1058E000882309F4BFC20E94570F00912D03109125
:1058F0002E0320912F0330913003601B710B820B1C
:10590000930B6C3271408105910598F180912203CF
:1059100081112FC0E4EFF1E0F0934B03E0934A03D1
:1059200044EF51E060E070E0CB0100911D03109165
:105930001E03012E000C220B330B600F711F821F00
:10594000931F4150510989F724EF31E040E050E0C6
:105950000E94633230934B0320934A0380914A03A1
:1059600090914B0381E08093220380914A039091B0
:105970004B030E944B108823D9F08091350381118D
:1059800017C010924D0310924C0310921F03809188
:105990001D0390911E0381E0809335030E942D0E1C
:1059A00060933103709332038093330390933403F5
:1059B00080913503882309F4B4C00E942D0EC09055
:1059C0003103D0903203E0903303F09034036C192C
:1059D0007D098E099F09603A7B4B8D40910508F443
:1059E000A0C00E944B10882309F486C00E942D0E8F
:1059F0009B01AC012C193D094E095F0969017A012F
:105A0000C0922303D0922403E0922503F092260350
:105A10006093310370933203809333039093340384
:105A20000E94570F1092220330EFC31A3EE7D30AA9
:105A30003EE0E30AF10841EAC41646E8D40641E034
:105A4000E406F10408F04AC08091370390913803CE
:105A50000196909338038093370382309105F9F4CF
:105A6000F894109291001092950010929400C19AAF
:105A70002AE0209391002091710022602093710010
:105A800010922103109220031092090190930B01B0
:105A900080930A01789485B191E0892785B98BB10B
:105AA00092E089278BB985B191E0892785B98091EA
:105AB00037039091380344E650E060E070E00B96C5
:105AC0000E94D0090E94520E0E94570F6093130447
:105AD0007093140480931504909316041092350368
