:100000000C94A6090C94CE090C94441F0C94CE09B0
:100010000C94CE090C94CE090C94CE090C94B81D06
:100020000C94CE090C94CE090C94CE090C94CE09F4
:100030000C94CE090C94CE090C94CE090C94CE09E4
:100040000C946E1D0C94CE090C94721E0C944C1ED4
:100050000C94CE090C94A41E0C94CE090C94CE09D9
:100060000C94CE090C94CE090C94CE090C94CE09B4
:100070000C94CE090C94CE090C94CE090C94CE09A4
:100080000C94CE090C94581F0C94CE090C94CE09F4
:100090000C94CE090C94CE090C94CE090C94CE0984
:1000A0000C94CE090C94CE090C94CE090C94CE0974
:1000B0000C94CE09AED580A83FD300408D14200209
:1000C000A1C8DA1281FFD9F1DB40A4A6AFB40019B0
:1000D00080400000030C0F30333C3FC0C3CCCFF056
:1000E000F3FCFF90011C24206008000000002000A9
:1000F0000000000000000A0000150F151416151569
:1001000014141508000000000000000000000000AA
:1001100000000000000000180000000017000000B0
:1001200000000000000000000000000015000000BA
:10013000000008000000001400000000000E000095
:100140000000160000000000000000000000000099
:10015000000000000000000000000000000000009F
:10016000000000000000000000000000000000008F
:1001700000C0F0F8FC7C1C1C1C7CFCF8F8C00000E3
:1001800000000000C0F0FC7C1C0400000000000027
:1001900000071F3F7F7C7070707C7F3F3F070080AF
:1001A000E0F8FE3F1F070100000000000000000013
:1001B0000000000000000000000000C0E0F8FE3F6A
:1001C0000F030000F0FEFEFF1F0707071FFFFEFCE6
:1001D000F000000000000000101C1F1F07030000BB
:1001E00000000000010F0F1F1F1C1C1C1F1F0F070A
:1001F00001000000000000000000000000000000FE
:1002000000000000000000000000000000000000EE
:1002100000000000000000000000000000000000DE
:1002200000000000001F1F1F1F1F1F1F1F1F1F0098
:1002300000000000000000000000000000000000BE
:1002400000000000C0F0F0F8F8FCFC7C7C7C7CFC3A
:10025000FCF8F8F0E0C00000FFFFFFFFFFFFFF0029
:100260000000000000FFFFFFFFFFFFFF003FFFFF58
:10027000FFFFFFFFC080808080C0FFFFFFFFFFFF08
:100280003F0000000307070F0F0F0F0F0F0F0F0F97
:100290000F0707030100000000000000000000003D
:1002A00000000000000000000000000000000080CE
:1002B00080C0E0F0FCFCFCFCFCFCFC3F3F3F1F1F4F
:1002C0000F07FFFFFFFFFFFFFFFF00000000000020
:1002D00000FFFFFFFFFFFFFFFF0000000000000026
:1002E0000F0F0F0F0F0F0F0F000000000000000096
:1002F0000000000000000000C0E0F0F8F8FCFCFC8A
:100300007C7C7C7CFCFCFCF8F8F0E0C00003030380
:10031000030303030080C0C0E0F8FFFFFFFF7F3F3F
:100320000F0080C0F0F8FCFEFFFFFFFFDFCFC7C764
:10033000C3C1C0C0C0C00F0F0F0F0F0F0F0F0F0FA3
:100340000F0F0F0F0F0F0F0F0F0F0F000000000008
:10035000000000000000000000000000000000009D
:1003600080E0F0F8F8FCFC7C7C3C7C7CFCFCFCF83D
:10037000F8F0C0000101010101010100F0F0F8F8FE
:10038000FFFFFFFFDF8F8700E0E0E0E0E0E0E080DC
:100390000101010183FFFFFFFFFFFFFF00010307D2
:1003A000070F0F0F0F0F0F0F0F0F0F07070301009E
:1003B000000000000000000000000000000000003D
:1003C00000000000000000000000000080C0E0F815
:1003D000FCFCFCFCFCFCFC0000000080C0E0F0FC2D
:1003E000FEFF7F1F0F0703FFFFFFFFFFFF0000005F
:1003F0007F7F7F7F7F7F7D7C7C7C7C7C7CFFFFFFA1
:10040000FFFFFF7C7C7C000000000000000000007B
:100410000000000F0F0F0F0F0F0000000000000082
:1004200000000000000000000000000000000000CC
:1004300000000000FCFCFCFCFCFCFCFCFCFCFCFCEC
:10044000FCFCFCFCFC00000000FFFFFFFFFFF87855
:10045000787878F8F8F8F8F0E0E0800000E0E0E183
:10046000E1E1E1800000000080FFFFFFFFFFFF7F70
:100470001E00010307070F0F0F0F0F0F0F0F0F0FB6
:10048000070703010000000000000000000000005A
:10049000000000000000000000000000C0E0F0F8D4
:1004A000F8FCFC7C3C3C3C7CFCFCF8F8F0E00000F8
:1004B000FEFFFFFFFFFFFFE1F0787878F8F8F8F82B
:1004C000F0E0C080003FFFFFFFFFFFFFC1800000A2
:1004D0000080C1FFFFFFFFFFFF3E00000103070791
:1004E0000F0F0F0F0F0F0F0F0F0F07030300000069
:1004F00000000000000000000000000000000000FC
:1005000000000000FCFCFCFCFCFCFCFCFCFCFCFC1B
:10051000FCFCFCFCFCFCFCFC0000000000000000FB
:10052000C0F0F8FEFFFF7F1F0F0301000000000076
:1005300000E0FCFFFFFFFFFF0F01000000000000D4
:10054000000000000E0F0F0F0F0F0F010000000042
:10055000000000000000000000000000000000009B
:10056000000000000000000080E0F0F8F8FCFC7CD7
:100570003C3C3C7CFCFCFCF8F8F0E080030F9FFF67
:10058000FFFFFFF8F0F0F0F0FCFFFFFFFF9F0F030D
:10059000FEFFFFFFFFFFFF830100000183FFFFFF5E
:1005A000FFFFFFFE000307070F0F0F0F0F0F0F0FC7
:1005B0000F0F0F07070701000000000000000000F8
:1005C00000000000000000000000000000C0E0F09B
:1005D000F8F8FCFC7C3C3C7C7CFCFCF8F8F0E0C0CF
:1005E000003F7FFFFFFFFFFFE0C0808080C0E0FF93
:1005F000FFFFFFFFFFFE00C0C1C3C3C7C7C7870718
:10060000070783E1FFFFFFFFFFFF3F000001030734
:100610000F0F0F0F0F0F0F0F0F0F07070301000032
:1006200000000000000000000000000000000000CA
:1006300000000000000000000000000000FEFEFEC0
:10064000FEFEFEFEFEE0E0E0E0E0E0E0E00F0F0F87
:100650000F0F0F0F0F0000000000000000FCFCFC5B
:10066000FCFCFCFCF8F0C080000000000000FCFC7A
:10067000FCFCFCFCFCFFFFFFFFFFFFFF7FFFFFFF19
:10068000FEFCF0E08000FFFFFFFFFFFFFFFFFFFF2A
:10069000FFFFFFFF000001070F3F7FFFFFFFFFFF8E
:1006A000FFFFFFFFFF0F0F0F0F0F0F0F00000000E6
:1006B00000000001030F0F0F0F0F0F0F0F000000BE
:1006C000000000000000000000000000000000002A
:1006D000000000000000E0F0F0F8F8FCFC7C7C7CFE
:1006E0007C7CFCFCFCF8F8F0E0C00000071F3F7FBA
:1006F000FFFFFFFFFCFCF8F8F8F8F3F3F3E3E3C3C4
:10070000830000F8F8F8F8F8F8F8E1C181838383F2
:1007100087CFFFFFFFFFFFFFFF7E00010307070FEB
:100720000F0F0F0F0F0F0F0F0F0F0F070703010012
:1007300000000000000000000000000000000000B9
:1007400000000000000000000000000000000000A9
:100750000000000000000000000000000000C0F0E9
:10076000F8F8FCFCFE7E7E3E3E3E7EFEFEFCFCF883
:10077000F0E01EFFFFFFFFFFFFF3C08080008080DE
:10078000C0E0E0E0E0E0E00000010307070F0F0F2A
:100790000F0F0F0F0F0F0F0F0703030000000000D4
:1007A0000000000000000000000000000000000049
:1007B000007C7C7C7C7C7C7C7CFEFEFEFEFEFEFE67
:1007C000FEFFFFFFFFFFFFFFFF0F0F0F0F0F0F0FCA
:1007D0000F0000000000000000000000000000000A
:1007E00000000000000000000000000000FEFEFE0F
:1007F000FEFEFEFEF0787C7C7EFEFEFEFEFCFCF83B
:10080000E0FFFFFFFFFFFFFF000000000000FFFF11
:10081000FFFFFFFFFF0F0F0F0F0F0F0F0000000074
:1008200000000F0F0F0F0F0F0F000000000000005F
:1008300000000000000000000000000000000000B8
:10084000E0E0F0F0F8F8F8000000007E7E7EFFFFA8
:10085000FFFFFFFFFF7E7E7E7E000000FFFFFFFFA9
:10086000FFFFFF8080808000000003070F0F0F0F45
:100870000F0F0F0F0F00000000000000000000002D
:100880000000000000000000000000000000000068
:10089000000000000000000000021E7EFEFEFEFEC2
:1008A000FCF08000000080F8FEFEFEFEFE3E06002A
:1008B0000000010F3FFFFFFFFFF8E0FCFFFFFFFF1D
:1008C0003F0700000000C0C08080C0C1E7FFFFFFFD
:1008D000FFFFFF3F0700000000000000307070F0D5
:1008E000F0F0F0F070703010000000000000000028
:1008F000000000050F7C011020FF201000000A0FEF
:10090000205F000000000000000000000000000068
:1009100000000000000000000000FEFE00000000DB
:100920000000000019190000000000001E1E000059
:100930001E1E00000000000000000000000000304B
:10094000FEFE3030FEFE300000031F1F03031F1F9A
:1009500003000070F8D8FE9898000000000C1818EA
:100960007F191F0F00001CB6A2F6CC60602030007B
:100970000101000E1B111B0E00000000DC7EE6C60C
:10098000860C808000070F1C18191F1E1F13000003
:1009900000001E1E0000000000000000000000001B
:1009A0000000000000E0FC1E020000000000000744
:1009B0003F78400000000000021EFCE00000000044
:1009C000000040783F070000000000F0FC0E86C6E3
:1009D0006EFCFC06301B0F1F31181C0F030000803B
:1009E0008080F0F080808000000101010F0F010184
:1009F00001000000000000000000000000000040B6
:100A00007C3C00000000000000000000000000002E
:100A100000000303030303000000000000000000C7
:100A200000000000000000001C1C0000000000008E
:100A30000000C0F03C0E02000020381E070100003C
:100A4000000000F0FC0EC6C60EFCF80000030F1CF0
:100A500018181C0F070000000C06FEFE0000000026
:100A6000001818181F1F18181800000C0606068614
:100A7000C67C380000181C1E1B1918181800000C22
:100A800006C6C6C6C6FC3800000C18181818190F80
:100A90000F000080C070180EFEFE0000000303036C
:100AA00003031F1F030000FE7E666666E6C6800025
:100AB000000C181818181C0F070000F0FCCE666612
:100AC000E6CC800000070F1C18181C0F070000065A
:100AD000060606E6FE3E0E000000101C0F03000096
:100AE00000000038FCC6C6C6C6FC3800000F0F1850
:100AF0001818180F0F000078FCCE8686CEFCF80080
:100B000000000C1919191C0F030000000000E0E0A0
:100B100000000000000000001C1C0000000000009D
:100B20000000E0E000000000000000407C3C00000D
:100B30000000008080C040606020300000010103A0
:100B4000020606040C000060606060606060600087
:100B50000006060606060606060000302060604015
:100B6000C0808000000C0406060203010100000C96
:100B70000686C6667E1C00000000001B1B000000ED
:100B80000000E0F0389CCCCCDCF8F000071F387394
:100B90006766667727000000C0FC3E3EFCC0000090
:100BA00000181F0F03030F1F180000FEFEC6C6C665
:100BB000C6FC3C00001F1F181818181F0F0000F07B
:100BC000FC0C060606060C0000030F0C181818187B
:100BD0000C0000FEFE0606060CFCF000001F1F18AD
:100BE00018180C0F030000FEFEC6C6C6C6C60600D7
:100BF000001F1F1818181818180000FEFEC6C6C6D9
:100C0000C6C60600001F1F0000000000000000F024
:100C1000FC0C068686868C0000030F0C1819191F21
:100C20000F0000FEFEC0C0C0C0FEFE00001F1F007F
:100C30000000001F1F0000000606FEFE0606000062
:100C4000000018181F1F18180000000000000606FA
:100C500006FEFE00000C18181818180F0F0000FEF2
:100C6000FEE0F0FC0E060200001F1F0000030F1E36
:100C7000180000FEFE00000000000000001F1F180A
:100C800018181818180000FEFE3EF0F03EFEFE0098
:100C9000001F1F000101001F1F0000FEFE1EF0C00C
:100CA00000FEFE00001F1F0000031E1F1F0000F0BB
:100CB000FC0E06060EFCF00000030F1C18181C0F9B
:100CC000030000FEFEC6C6C6C67C7C00001F1F00D7
:100CD00000000000000000F0FC0E06060EFCF00014
:100CE00000030F1C18183C6F070000FEFEC6C6C6A6
:100CF000C6FC3C00001F1F000001031F1E1000382F
:100D00007CE6C6C6C68C0000000C18181818190F0F
:100D10000F0000060606FEFE0606060000000000A4
:100D20001F1F0000000000FEFE00000000FEFE008D
:100D300000070F1C18181C0F07000006FEFC00001F
:100D4000FCFE06000000001F1F1F1F0000001EFE0B
:100D5000E000F0F000E0FE1E001F1F1E01011E1F3C
:100D60001F0000020E3EF8F83E0E020000101C1F8D
:100D700003031F1C1000020E3E78E0E0783E0E02D6
:100D8000000000001F1F0000000000060686C6F6D7
:100D90007E1E0E00001C1E1F1B18181818000000D5
:100DA00000FEFE02020000000000007F7F404000C5
:100DB000000000020E38E08000000000000000008B
:100DC00000030E38200000000202FEFE00000000BA
:100DD000000040407F7F0000000010181C0E060E2F
:100DE0001C181000000000000000000000000000BF
:100DF00000000000000000004040404040404040F3
:100E00004040000001030604000000000000000054
:100E100000000000000000006030B0B0B0F0E00062
:100E2000000E1F1B19190D1F1F0000FEFE60303041
:100E300070E0C000001F1F0C18181C0F070000C036
:100E4000E07030303030600000070F1C18181818A0
:100E50000C0000C0E070303060FEFE0000070F1C88
:100E600018180C1F1F0000C0E0B0B0B0B0E0C00008
:100E700000070F1D191919190D00003030FCFE363E
:100E8000363600000000001F1F000000000000C0F8
:100E9000E070303060F0F0000003376E6C6C667FFD
:100EA0003F0000FEFE60303030F0E000001F1F0009
:100EB0000000001F1F0000003030F7F700000000A6
:100EC000001818181F1F1818180000003030F7F706
:100ED00000000000006060607F3F0000000000FE36
:100EE000FE80E07030100000001F1F0103071E1875
:100EF0001000000606FEFE00000000000000000FCB
:100F00001F181818000000F0F030F0E030F0E0009A
:100F1000001F1F001F1F001F1F0000F0F060303077
:100F200030F0E000001F1F000000001F1F0000C085
:100F3000E070303070E0C00000070F1C18181C0F64
:100F4000070000F0F060303070E0C000007F7F06E6
:100F50000C0C0E07030000C0E070303060F0F000B1
:100F60000003070E0C0C067F7F000000F0F06030DD
:100F70003030300000001F1F00000000000000E0C3
:100F8000F0B0B0B0B0306000000C191919191B1F77
:100F90000E00003030FCFC30303000000000000F4C
:100FA0001F181818000000F0F000000000F0F0001A
:100FB000000F1F1818180C1F1F000030F0E0000071
:100FC000E0F030000000010F1E1E0F01000070F065
:100FD0000000C0C00000F07000071F1E03031E1FAA
:100FE0000700001030F0C0C0F03010000010181ED4
:100FF00007071E1810000010F0F08000F0F030001D
:10100000000060637F1F0F0100000030303030B0FF
:10101000F070300000181C1E1B1918181800000072
:101020000000FCFE02020000000001013E7E404084
:10103000000000000000FEFE0000000000000000B4
:101040007F7F0000000000000202FEFC00000000A4
:10105000000040407E3E010100000080C0C0C08012
:101060008080C000000100000001010100000000BC
:1010700005072060000000000000005F0000000382
:10108000000300143E143E14242A7F2A124333081E
:10109000666136495522500005030000001C2241BC
:1010A000000041221C0014083E081408083E0808ED
:1010B00000503000000000000808006060000020C0
:1010C000100804023E5149453E0004027F0042617F
:1010D00051494622414949361814127F1027454587
:1010E00045393E49494932010171090736494949A3
:1010F00036264949493E0036360000005636000083
:10110000081422410014141414140041221408027B
:10111000015109063E4159555E7E0909097E7F4904
:101120004949363E414141227F4141413E7F494943
:1011300049417F090909013E4141493A7F080808B0
:101140007F00417F4100304040403F7F08142241F2
:101150007F404040407F020C027F7F0204087F3EB8
:101160004141413E7F090909061E2121215E7F0977
:10117000090976264949493201017F01013F404072
:10118000403F1F2040201F7F2010207F41221C2233
:101190004107087008076151494543007F4100003D
:1011A00002040810200000417F00040201020440F4
:1011B00040404040000102040020545454787F44D1
:1011C0004444383844444444384444447F385454B4
:1011D000541804047E0505085454543C7F08040444
:1011E0007800447D40002040443D007F10284400AA
:1011F00000417F40007C047804787C08040478383F
:10120000444444387C14141408081414147C007CDE
:10121000080404485454542004043F44443C4040CF
:10122000207C1C2040201C3C4030403C442810289E
:10123000440C5050503C4464544C440008364141E6
:1012400000007F0000414136080002010204027FD5
:101250007F7F7F7F01901C087C01800000000000E0
:101260000F01010101010101010101010101010160
:101270000101010F01010101010101010101010150
:10128000010101010101010F010101010101010140
:1012900001010101010101010101FF010101010140
:1012A000010101010101010101010101010F010120
:1012B000010101010101010101010101010101011E
:1012C000010F010101010101010101010101010100
:1012D00001010101010F00000000000000000024D6
:1012E0000027002A002D000000000023002600290E
:1012F000002C0000000008000201000003040700A9
:1013000000000000000000000000000201020408CC
:10131000102040800102040810200102040810205F
:101320000408010200000000250028002B002E0008
:10133000040404040404040402020202020203037B
:1013400003030303050505054721852D11241FBE51
:10135000CFEFD8E0DEBFCDBF12E0A0E0B1E0E0E724
:10136000F7E602C005900D92A239B107D9F724E043
:10137000A2E9B2E001C01D92A83CB207E1F719E072
:10138000C5EAD9E004C02197FE010E949F31C43A0A
:10139000D107C9F70E9482220C94AB330C94000051
:1013A0004F925F926F927F928F929F92AF92BF9275
:1013B000FF9220910F04309110048217930708F0D8
:1013C00043C02B0166247724852E962EA72EBB249E
:1013D000B82DA42F20911504F42C222391F0E22F94
:1013E000F0E0E49DD001E59DB00DF49DB00D112419
:1013F000FB2E289D40011124B92D249F900111241A
:10140000A32FE0911B0420911604309117045091F2
:101410001804E51323C0FC01EE0FFF1F8E0F9F1F62
:10142000820F931FE0911804E80FF92FF11DF0824D
:10143000E0911904E80FF92FF11DB08320911A04EF
:10144000820F911DFC01A083FF90BF90AF909F90F1
:101450008F907F906F905F904F900895880F991FA5
:10146000880F991F820F931FE80FF92FF11D10822B
:10147000D9CFE091FB03F091FC030196880F991FEF
:10148000880F991FE80FF91FDF0114978081918160
:101490002D913C91821B930B69E070E00E948B318F
:1014A000892B11F06F5F7F4FCB0108959093320429
:1014B00080933104FC0124913196E491F22F31970D
:1014C00019F410922C04089581E080932C0408955F
:1014D00081508D3008F03DC0E82FF0E0EE58F54F18
:1014E0000C949F31890A8D0A7F0A850AA90AA90AE4
:1014F000900A960A9A0AA00AA90AA40AAA0A80913E
:1015000080008F77809380000895809180008F7D88
:10151000F9CF84B58F7784BD089584B58F7DFBCFD7
:101520008091B0008F778093B00008958091B000D3
:101530008F7DF9CF809190008F77809390000895F0
:10154000809190008F7DF9CF8091A0008F7780935C
:10155000A00008958091A0008F7DF9CFCF93DF93F5
:10156000E3E0F3E18491ECE1F3E1D491E0E4F3E131
:10157000C491CC23A1F081110E94680AEC2FF0E005
:10158000EE0FFF1FE951FD4EA591B491EC91ED23B3
:1015900081E090E009F480E0DF91CF91089580E050
:1015A00090E0FACF1F93CF93DF93282F30E0F9011B
:1015B000ED50FD4E8491F901E45FFC4ED491F901A8
:1015C000E05DFC4EC491CC23A9F0162F81110E943E
:1015D000680AEC2FF0E0EE0FFF1FEC5DFC4EA591CA
:1015E000B4918FB7F894EC91111108C0D095DE2317
:1015F000DC938FBFDF91CF911F910895DE2BF8CF41
:10160000CF93DF9390E0FC01E45FFC4E2491805D7A
:101610009C4EFC0184918823C9F090E0880F991FAB
:10162000FC01E552FD4EA591B491FC01EC5DFC4E30
:10163000C591D49161110DC09FB7F8948C912095FC
:1016400082238C938881282328839FBFDF91CF91A9
:101650000895623051F49FB7F8943C91822F8095A1
:1016600083238C93E8812E2BEFCF8FB7F894EC91E6
:101670002E2B2C938FBFEACF4F925F926F927F9267
:101680008F929F92AF92BF92CF92DF92EF92FF9292
:101690000F931F93CF938C014A015B018091150139
:1016A000893099F08F3F09F453C0CF911F910F916A
:1016B000FF90EF90DF90CF90BF90AF909F908F9072
:1016C0007F906F905F904F900895EBE0F3E1C491AD
:1016D000C7FDEBCF61E089E00E94000B2801712C6F
:1016E000612CCC23F1F0980150E040E0C23009F0C9
:1016F000E2C028013A0160E970ED83E090E00E94C9
:10170000B72F69017A0181E0C81AD108E108F10810
:1017100093E08FEFC816D104E104F10409F00CF452
:1017200061C168E478EE81E090E0A30192010E943B
:10173000B72F69017A0181E0C81AD108E108F108E0
:1017400094E0C1114FC185B5887F836085BDC8C055
:1017500089E080931501EBE0F3E1C4918C2FCF3F3A
:1017600009F4A3CFC23009F466C060F4CC2369F158
:10177000C13009F442C087FD98CF61E089E00E9442
:10178000000BB1CFC33009F478C0C430A1F7109278
:10179000A0001092A1008091A10088608093A10018
:1017A0008091A10081608093A100E9E3F3E1E491DD
:1017B000F0E0EE0FFF1FEC5DFC4E85919491E5E1AA
:1017C000F3E1E491E093430385CF14BC15BC84B5E9
:1017D000826084BD85B5816085BDE9E3F3E1E49174
:1017E000F0E0EE0FFF1FEC5DFC4E85919491E5E17A
:1017F000F3E1E491E09349036DCF109280001092E1
:1018000081008091810088608093810080918100B7
:10181000816080938100E9E3F3E1E491F0E0EE0F71
:10182000FF1FEC5DFC4E85919491E5E1F3E1E491BD
:10183000E09348034FCF1092B0001092B100809116
:10184000B00082608093B0008091B100816080938D
:10185000B100E9E3F3E1E491F0E0EE0FFF1FEC5D8E
:10186000FC4E859194919093470380934603E5E164
:10187000F3E1E491E09345032DCF10929000109294
:1018800091008091910088608093910080919100F7
:10189000816080939100E9E3F3E1E491F0E0EE0FE1
:1018A000FF1FEC5DFC4E85919491E5E1F3E1E4913D
:1018B000E09344030FCF60E072E18AE790E00E947A
:1018C000B72F69017A0181E0C81AD108E108F1084F
:1018D000C13071F580918100887F816080938100A3
:1018E000D801AA0FBB1FA50194010E94D62F28EE94
:1018F00033E040E050E00E942030C230D1F10CF0E3
:101900005AC0CC2339F1C13009F0CFCED092890032
:10191000C092880020935603309357034093580396
:101920005093590380916F00826080936F00BDCE09
:10193000C33039F480919100887F81608093910059
:10194000CFCFC43069F68091A100887F81608093F9
:10195000A100C6CFC7BC20935A0330935B034093CA
:101960005C0350935D0380916E00826080936E00F3
:101970009CCEC092B3002093520330935303409304
:1019800054035093550380917000826080937000DF
:101990008CCED0929900C092980020934E03309341
:1019A0004F03409350035093510380917100826024
:1019B000809371007ACEC33061F3C43009F075CEE4
:1019C000D092A900C092A80020934A0330934B0301
:1019D00040934C0350934D0380917200826080933A
:1019E000720063CE8091B100887F892B8093B10013
:1019F00077CF8E50806480937C0080917A008064E1
:101A000080937A0080917A0086FDFCCF80917800E7
:101A10009091790008953FB7F89480913F03909199
:101A20004003A0914103B091420326B5A89B05C095
:101A30002F3F19F00196A11DB11D3FBFBA2FA92F4D
:101A4000982F8827BC01CD01620F711D811D911D4A
:101A500042E0660F771F881F991F4A95D1F70895B6
:101A60000F931F93CF93DF93CDB7DEB729970FB6B0
:101A7000F894DEBF0FBECDBF80911604909117047D
:101A8000892B09F47CC00E940B0D00911C0410915D
:101A90001D0420911E0430911F04601771078207F6
:101AA000930740F460931C0470931D0480931E04FC
:101AB00090931F0400911C0410911D0420911E049A
:101AC00030911F04601B710B820B930B6C327140C1
:101AD00081059105C0F2F89480911104909112044F
:101AE0009A838983E0911604F0911704DF0111961F
:101AF0008081898790910D04E0912004F091210468
:101B000080912204992309F445C09081982B9887ED
:101B10009081809589238F838F818C8388E08B834C
:101B200058856F8149853B812C8189819A815083B9
:101B300047FD252F3A952083262F39F0441F00C0FA
:101B400000006083000000C0F2CF38E04D91608358
:101B50000000019761F7F0932104E0932004498786
:101B60003B832C839A83898378940E940B0D609326
:101B70001C0470931D0480931E0490931F042996E7
:101B80000FB6F894DEBF0FBECDBFDF91CF911F918E
:101B90000F9108959081982B988790818095892343
:101BA0008F838F818E8388E08D8358856F814985EF
:101BB0003D812E8189819A81508347FD252F00C068
:101BC00000C0208300C000C000C000C000C060830F
:101BD0000000262F3A9541F0441F000000C000C0CD
:101BE00000C000C000C0E8CF38E04D9100C0608365
:101BF00000C0019709F7F0932104E093200449877E
:101C00003D832E83AFCF8F929F92AF92BF92CF92A0
:101C1000DF92EF92FF924B015C010E940B0D6B0172
:101C20007C010E940B0D6C197D098E099F09683E8D
:101C3000734081059105A8F321E0821A9108A1085B
:101C4000B10888EEC80E83E0D81EE11CF11C811497
:101C50009104A104B10429F7FF90EF90DF90CF9099
:101C6000BF90AF909F908F9008952FB7F894609198
:101C70003B0370913C0380913D0390913E032FBF45
:101C80000895AF92BF92CF92DF92EF92FF920F939F
:101C90001F93CF93DF936C017B018B01040F151F02
:101CA000EB015E01AE18BF08C017D10759F069916A
:101CB000D601ED91FC910190F081E02DC6010995CE
:101CC000892B79F7C501DF91CF911F910F91FF907B
:101CD000EF90DF90CF90BF90AF900895FC014481CA
:101CE00055816081718183E294E00C94410EFC0186
:101CF000538D448D252F30E0842F90E0821B930B71
:101D0000541710F0CF96089501970895FC01918D16
:101D1000828D981761F0A28DAE0FBF2FB11D5D9619
:101D20008C91928D9F5F9F73928F90E008958FEFBB
:101D30009FEF0895FC01918D828D981731F0828D6F
:101D4000E80FF11D858D90E008958FEF9FEF0895C6
:101D5000FC01918D228D892F90E0805C9F4F821B2A
:101D600091098F73992708958EE593E00E94A80E3C
:101D700021E0892B09F420E0822F0895FC01A48D35
:101D8000A80FB92FB11DA35ABF4F2C91848D90E09D
:101D900001968F739927848FA689B7892C93A08980
:101DA000B1898C91837080648C93938D848D98130A
:101DB00006C00288F389E02D80818F7D808308959D
:101DC000EF92FF920F931F93CF93DF93EC0181E08B
:101DD000888F9B8D8C8D98131AC0E889F989808132
:101DE00085FF15C09FB7F894EE89FF896083E88965
:101DF000F98980818370806480839FBF81E090E057
:101E0000DF91CF911F910F91FF90EF900895F62EE3
:101E10000B8D10E00F5F1F4F0F731127E02E8C8D7D
:101E20008E110CC00FB607FCFACFE889F9898081C2
:101E300085FFF5CFCE010E94BE0EF1CFEB8DEC0FEA
:101E4000FD2FF11DE35AFF4FF0829FB7F8940B8FDF
:101E5000EA89FB8980818062CFCFCF93DF93EC0149
:101E6000888D8823B9F0AA89BB89E889F9898C9182
:101E700085FD03C0808186FD0DC00FB607FCF7CF3E
:101E80008C9185FFF2CF808185FFEDCFCE010E943E
:101E9000BE0EE9CFDF91CF91089580E090E0892BCD
:101EA00029F00E94B40E81110E94000080E090E0B1
:101EB000892B49F080E090E0892B29F00E940000F6
:101EC00081110C9400000895CF93DF93EC018D8570
:101ED000882329F081508D87DF91CF9108959C81CF
:101EE0008E819817C8F788896827E881F98100846E
:101EF000F185E02D42E0CE0109958C818F5F8C83C6
:101F0000EBCFDC01ED91FC910084F185E02D40E008
:101F100009940F931F93CF938C01FC016483C085B8
:101F2000C60F6C2F6F700E94810F6C2F62956F70BF
:101F30006061C801CF911F910F910C94810FFC013A
:101F40002781269526952695621738F46583238583
:101F5000620F6770606B0C94810F08951F93CF938D
:101F6000DF93EC01142F8E81681718F4CE010E94C4
:101F7000890F612FCE01DF91CF911F910C949F0F9C
:101F8000CF92DF92EF92FF920F931F93CF93DF9345
:101F9000EC01F62EC42ED22E1D868F818695869555
:101FA0008695081710F00FEF080F1D2D011780F010
:101FB000412F6F2DCE010E94AE0FEF2CCE1430F0CA
:101FC0006889CE010E94640FE394F8CF1F5FEECFC3
:101FD0004D2D6F2DCE01DF91CF911F910F91FF906D
:101FE000EF90DF90CF900C94AE0F0F93DC0115961D
:101FF0002C9115971E96ED91FC911F9700E030975C
:1020000079F03396E491F0E0379683E0F595E79523
:102010008A95E1F751960C9151970E9F002D11244E
:10202000EFEFE20F0E0F16964C9116974150149653
:102030006C911497CD010E94C00F0F9108952F92BB
:102040003F924F925F926F927F928F929F92AF9248
:10205000BF92CF92DF92EF92FF920F931F93CF9395
:10206000DF9300D000D000D0CDB7DEB7FC012685CD
:1020700037852115310509F44AC19E838D83F90105
:102080003296649031964491E42EF12CF7E0EF0EF5
:10209000F11C53E0F594E7945A95E1F7E982F901D0
:1020A000349654913196E491651748F08E2F90E064
:1020B000FC01E50FF11D6E171F060CF469C06D30B1
:1020C00031F5ED81FE81868181111BC081E090E0B8
:1020D00026960FB6F894DEBF0FBECDBFDF91CF912D
:1020E0001F910F91FF90EF90DF90CF90BF90AF9036
:1020F0009F908F907F906F905F904F903F902F9028
:10210000089560E08D819E810E94890FDFCF6A3043
:1021100009F0FDC0ED81FE818681882321F060E019
:10212000CF010E94890FED81FE8181898E9DE02C77
:10213000112465816E0D8485882349F097819695D9
:10214000969596958E2D891B860F18162CF08D81ED
:102150009E810E949F0FBACFED81FE812385820F61
:10216000877083879E199583CF010E94F50FED81BB
:10217000FE818485813009F0A9CF6385660F660FE3
:10218000660F6F7362876064CF010E94810F9ECFDC
:1021900089010A5F1F4F651BED81FE8171855189A1
:1021A000759F502D11245C83F90154912F5F3F4F8F
:1021B000F9012491352F2230310508F06AC06E9C58
:1021C000C0016F9C900D1124689FF001699FF00D74
:1021D00011240E0F1F1F512CED81FE81F481FA8313
:1021E000ED81FE812580F585FB83862C912CAA2428
:1021F000A394B12C312C8981381608F086C0412C6B
:10220000ED81FE818189481608F078C08B81858731
:10221000311002C0442041F0ED81FE8145814F5FC5
:102220006A81CF010E94AE0FD12CC12CC61408F0D8
:1022300058C0F801EC0DFD1D7490552061F0EA14B2
:10224000FB0449F4E72DF0E0052C02C0F595E79575
:102250000A94E2F77E2EED81FE818189823081F43D
:10226000442009F43AC072948FE07822E72DF0E020
:10227000ED52FF4F7490672D8D819E810E94640FF7
:10228000672D8D819E810E94640F8FEFC81AD80A36
:10229000CDCF477028E0522E541A411101C0512C65
:1022A000F801612C30E020E0661631F04491240FF3
:1022B000311D63943196F8CF600E712E711CF301BD
:1022C0006490E29EF001E39EF00DF29EF00D112469
:1022D0008E0F9F1F080F191F7FCFF72DFF707F2EC6
:1022E000C5CFD12CEC81DE1639F060E08D819E8166
:1022F0000E94640FD394F6CF439482CF3394080D99
:10230000191DFFEFAF1ABF0A76CF622D20CF90E0E4
:1023100080E0DECE0F93CF93DF93EC011B861A860D
:1023200060E40E94810F0F81069506950695015085
:102330004E81415020E060E0CE010E94C00FDF914D
:10234000CF910F9108954FB7F8942091CE0230911C
:10235000CF028091CC029091CD024FBF4091EB0211
:10236000042E02C0359527950A94E2F702C0959590
:1023700087954A95E2F78802C00111242202800D58
:10238000911D11240895CF92DF92EF92FF92CF9387
:10239000DF930E94350EC0900903D0900A03E090AD
:1023A0000B03F0900C036C197D098E099F096C32A8
:1023B000714081059105A8F18091FA02811131C027
:1023C00084EF91E090931F0380931E03C4EFD1E04C
:1023D000C12CD12C76010E94A311C80ED91EE11C7C
:1023E000F11C2197C1F7C701B60124EF31E040E0AD
:1023F00050E00E94203030931F0320931E038091F1
:102400001E0390911F0381E08093FA0280911E03C6
:1024100090911F03DF91CF91FF90EF90DF90CF90CD
:102420000895F8CF0E94A3119C019093F902809324
:10243000F80280912003909121032817390720F09A
:10244000309321032093200380912203811123C024
:10245000809120039091210340911E0350911F030E
:10246000E0911E03F0911F03841B950B6AE070E05E
:102470000E94773174966E0F7F1F81E02617370711
:1024800008F480E08093D002809120039091210392
:102490008091D00208958091200390912103409172
:1024A0001E0350911F03E0911E03F0911F03841B34
:1024B000950B6AE070E00E947731EC59FF4FDBCF5B
:1024C0008091CB028823E1F11092CA022091FB0295
:1024D0003091FC0280911C0390911D03281739074D
:1024E00040F08091FB029091FC0290931D03809339
:1024F0001C0380911C0390911D0380911C039091FB
:102500001D0340911A0350911B0320911A0330912F
:102510001B03E091FB02F091FC02841B950B6AE027
:1025200070E00E947731265F3F4F620F731F81E09A
:10253000E617F70708F480E08093FD021092CB02C3
:102540008091CA02811108C081E08093CA02809103
:102550007A00886480937A008091FD020895CF9379
:10256000DF93D0E0C0E040E050E0BA01CE010E942D
:10257000D0092196CA31D105B1F7DF91CF910C94E2
:10258000300DCF92DF92EF92FF920F931F93CF9374
:10259000DF93C091B602D091B7028E01000F111FD8
:1025A0000E551D4FF80140815181052E000C660B20
:1025B000770BC090B802D090B902E090BA02F090C8
:1025C000BB02C41AD50AE60AF70A81E10E94F90C97
:1025D000F80191838083092E000CAA0BBB0BBC0170
:1025E000CD016C0D7D1D8E1D9F1D6093B8027093F3
:1025F000B9028093BA029093BB022196CA30D105EA
:10260000A4F4D093B702C093B6022AE030E040E0D1
:1026100050E00E94B72FC901DF91CF911F910F9118
:10262000FF90EF90DF90CF9008951092B702109234
:10263000B602EBCF81E080933603809107014EEF25
:102640005EEF6EEF70E090E00E94D0090E94300DC6
:102650000E94350E6093A8047093A9048093AA0485
:102660009093AB04089580E680937C0081E0809392
:10267000F10210927B008DEF80937A008BE192E162
:10268000A0E0B0E08093ED029093EE02A093EF0201
:10269000B093F00286E090E09093EC028093EB021E
:1026A000089510921403109213030E94331381E0D3
:1026B00080930601109212031092FF021092000301
:1026C000109201031092020308951F93CF93DF939A
:1026D000EC01162F61E0411101C060E08B890E947E
:1026E000D20A80E58CBD81E08DBD60E08A890E94C0
:1026F000D20A1EBD00000DB407FEFDCF8EB561E00D
:102700008A89DF91CF911F910C94D20A089590E0AD
:1027100080E00895CF93DF93EC0188819981009741
:1027200011F00E945032198218821D821C821B8275
:102730001A82DF91CF910895FC01808191810097E9
:1027400011F00C9450320895FC0101900020E9F73B
:102750003197AF01481B590BBC0183E294E00C9404
:10276000410E8F929F92AF92BF920F931F93CF9380
:10277000DF93CDB7DEB7A1970FB6F894DEBF0FBEDB
:10278000CDBF19A2423008F44AE08E010F5D1F4F01
:10279000842E912CB12CA12CA50194010E942030F3
:1027A000E62FB901CA01EA30F4F4E05DD801EE93F6
:1027B0008D01232B242B252B79F790E080E01097B7
:1027C00019F0CD010E94A413A1960FB6F894DEBFB4
:1027D0000FBECDBFDF91CF911F910F91BF90AF90F2
:1027E0009F908F900895E95CE1CFCF92DF92EF92B6
:1027F000FF92CF93DF936C01990FEE08FF08F7FE6D
:1028000019C06DE283E294E00E941F10EC0166277C
:102810007727CB016C197D098E099F094AE00E9438
:10282000B1138C0F9D1FDF91CF91FF90EF90DF9040
:10283000CF9008954AE0C701B601DF91CF91FF9094
:10284000EF90DF90CF900C94B1130C94A41380916F
:102850000A01882351F041E066E183E294E00E949E
:10286000AE0F81E891E00C9425140895809128031F
:1028700081110DC081E08093280345E066E483E286
:1028800094E00E94AE0F8CE491E00C94251408951E
:1028900045E06CE383E294E00E94AE0F84E592E0B1
:1028A0000C94251445E065E083E294E00E94AE0FAD
:1028B00082E591E00C9425148091290381111CC0BC
:1028C0008091250381110AC041E06CE283E294E02B
:1028D0000E94AE0F88E591E00E94251480912503A7
:1028E000882399F041E06CE383E294E00E94AE0F0C
:1028F00082E691E00C94251441E06BE483E294E0DD
:102900000E94AE0F8FE591E0E7CF0895CF93DF935C
:102910000E94A413EC0187E691E00E94A4138C0F9F
:102920009D1FDF91CF91089583E294E00E948A1168
:1029300041E064E183E294E00E94AE0F8AE691E018
:102940000E94861445E065E083E294E00E94AE0FA9
:1029500082E791E00C948614CF92DF92EF92FF927F
:102960000F931F93CF93DF937B012091FD03309151
:10297000FE0382179307F4F4880F991F880F991F9D
:102980002091FB033091FC03820F931FFC01C28056
:10299000D380FFEFCF16DF0669F08B01C3E0D0E0F4
:1029A000C6018C1B9D0B0E94A12FF80181938F0102
:1029B0002197B0F7C701DF91CF911F910F91FF9041
:1029C000EF90DF90CF9008950C94A12F0F931F9359
:1029D000CF93DF93EC018C01060F171FC017D107AF
:1029E0009CF4CE010E94E4148F3F61F0FC9AFD98A4
:1029F000FB98D2BDC1BD8FB7F894F999FECFFA9A72
:102A0000F99A8FBF2196EACFDF91CF911F910F9155
:102A100008950F931F93CF93DF93EC01162F22E0BD
:102A200030E0062F0095FD9AFC98FB98D2BDC1BD01
:102A300010BD8FB7F894F999FECFFA9AF99A8FBF23
:102A4000F999FECF2130310539F0CE010E94E4140E
:102A500021E030E0802339F7DF91CF911F910F9172
:102A60000895CF93DF93EB010E94A12F8883CE01BD
:102A7000DF91CF910895CF93DF93EB010E94A12FB7
:102A80008883CE01DF91CF9108950E9496330F93F2
:102A90001F93CF93DF93EC0188819981009759F0C0
:102AA0002A813B812617370730F081E0DF91CF91F3
:102AB0001F910F9108958B016F5F7F4F0E94D93254
:102AC000009759F0998388831B830A832C813D8169
:102AD000232B59F7FC011082E8CF80E0E7CFEF927B
:102AE000FF920F931F93CF93DF93EC01FB01E080E4
:102AF000F180E114F10411F1048115810115110532
:102B0000A9F08C819D81080F191FB801CE010E9488
:102B10004715882399F0288139818C819D81B701DF
:102B2000820F931F0E94A4331D830C83CE01DF917B
:102B3000CF911F910F91FF90EF900895CE010E94C9
:102B40008A13F4CFEF92FF920F931F93CF93DF93EB
:102B500000D0CDB7DEB78C018EE289831A82F801EE
:102B6000E480F580FFEFEF1AFF0AB701C8010E9469
:102B700047158823C9F0F80120813181848195812E
:102B8000BE016F5F7F4F820F931F0E94A433F80135
:102B9000F582E482C8010F900F90DF91CF911F91D1
:102BA0000F91FF90EF900895C8010E948A13F2CF11
:102BB000EF92FF920F931F93CF93DF93EC017B0172
:102BC0008A01BA010E94471581110BC0CE010E94F3
:102BD0008A13CE01DF91CF911F910F91FF90EF905B
:102BE00008951D830C83B701888199810E94A433C5
:102BF000F0CFEF92FF920F931F93CF93DF93CDB758
:102C0000DEB762970FB6F894DEBF0FBECDBF8C0162
:102C1000CB01F80111821082138212821582148274
:102C20004AE09E012F5F3F4F7901B9010E94482E73
:102C3000F70101900020E9F73197AF014E195F09C4
:102C4000B701C8010E94D81562960FB6F894DEBF8E
:102C50000FBECDBFDF91CF911F910F91FF90EF90ED
:102C60000895FB01DC0111961C921E9213961C9292
:102C70001E92129715961C921E921497861797070C
:102C800049F0608171816115710521F044815581A0
:102C90000C94D81508950F931F93CF93DF93CDB75E
:102CA000DEB768970FB6F894DEBF0FBECDBF809138
:102CB0000701882309F4AFC090912503992309F4F3
:102CC00061C009E110E09801281B310945E0429FED
:102CD000C001439F900D11246AE070E00E948B3187
:102CE000BC01CE0143960E94F91580910701B801FD
:102CF000681B710977FF02C06F5F7F4F75956795FD
:102D0000CE0107960E94F915BE01695F7F4FCE0183
:102D10000D960E943116CE010D960E94A215BE019D
:102D20006D5E7F4F0E946F15BC01CE0101960E941F
:102D30003116CE010D960E949C13CE0107960E947B
:102D40009C13CE0143960E949C1341E06AE083E20B
:102D500094E00E94AE0F8EE791E00E942514CE0110
:102D600001960E946E0ECE0101960E949C136896F9
:102D70000FB6F894DEBF0FBECDBFDF91CF911F918C
:102D80000F91089590912903911121C0803151F440
:102D900041E064E183E294E00E94AE0F81E891E0BB
:102DA0000E94251441E06AE083E294E00E94AE0FA5
:102DB0008EE791E00E9425149091070129E130E00F
:102DC000A901491B5109CA010E94F513D0CF8531D1
:102DD00051F441E069E383E294E00E94AE0F82E89F
:102DE00091E00E94251441E069E183E294E00E94B1
:102DF000AE0F8EE791E00E9425142091070189E132
:102E000090E0821B910924E1AC01249FC001259F21
:102E1000900D1124D9CF8091290341E0811112C076
:102E20006AE083E294E00E94AE0F82E891E00E94A3
:102E300025146091070170E090E080E04AE00E9474
:102E4000B11395CF69E183E294E00E94AE0F80E870
:102E500091E00E94251441E06DE283E294E00E943B
:102E6000AE0FE7CF0F931F93CF93DF93CDB7DEB7AE
:102E700068970FB6F894DEBF0FBECDBF80910701F3
:102E8000882309F45EC090912503992309F464C056
:102E900025E0829FC00111246AE070E00E948B311E
:102EA000BC01CE0143960E94F9156091070170E0C4
:102EB00075956795CE010D960E94F91518861F82AB
:102EC0001A8619861C861B868BE289831A828E01DC
:102ED0000F5F1F4FF80101900020E9F73197AF0114
:102EE000401B510BB801CE0107960E94D815BE01B8
:102EF000635F7F4FCE0107960E946F150E94A21557
:102F0000BE016D5E7F4F0E946F15BC01C8010E941B
:102F10003116CE0107960E949C13CE010D960E9499
:102F20009C13CE0143960E949C1341E06AE083E229
:102F300094E00E94AE0FC8010E946E0EC8010E946C
:102F40009C1368960FB6F894DEBF0FBECDBFDF911D
:102F5000CF911F910F9108958091290341E0811134
:102F600012C06AE083E294E00E94AE0F84E891E030
:102F70000E9425146091070170E090E080E04AE033
:102F80000E94B113DECF69E183E294E00E94AE0FAC
:102F900084E891E00E9425148091070124E1829F3A
:102FA000C00111240E94F513CCCFFF920F931F9301
:102FB000CF93DF93EC01F62E08811981C8010E949E
:102FC000A12FF81621F06F2DC8010E94A92FCE0164
:102FD000DF91CF911F910F91FF9008952F923F9213
:102FE0004F925F926F927F928F929F92AF92BF9219
:102FF000CF92DF92EF92FF920F931F93CF93DF93C5
:1030000000D000D0CDB7DEB71C013B010E94390AC9
:103010007C018091FD039091FE03281639060CF087
:10302000BCC08090FB039090FC032FEF221A320A61
:10303000220C331C220C331CF401E20DF31D4080E2
:10304000518034E0231A3108820C931CF401A080D3
:10305000B180C2018A199B098E199F0904970CF44B
:103060009CC0028113810F3F100729F487010A0DCC
:103070001B1D01501109680123E0C21AD1087C828E
:103080006B820C151D050CF488C0C6010E94E41467
:10309000EB81FC819191FC83EB83FFEFCF1ADF0A78
:1030A000891779F3C80105960F5F1F4F4816590617
:1030B0004CF4B701C5010E94E614F40100811181AE
:1030C0000E0D1F1D17FD69C05301F4E0AF0EB11CBA
:1030D0006801C618D708C601860D971D9A83898393
:1030E000F30161913F01CE0101960E94D5176A1448
:1030F0007B0489F78091FB039091FC03280E391E15
:10310000C8010396F1019383828380819181E80E47
:10311000F91E0E191F09780117FF03C0F7E0EF0E23
:10312000F11C83E0F594E7948A95E1F78E2D880FE2
:10313000880F880F081B94E0892E912C6FEF27E0F1
:10314000C22ED12CAA24A394B12CC601801B9109B4
:10315000950102C0220F331F8A95E2F7C9018095BD
:1031600068230F5F083060F0F101808191818E0D3E
:103170009F1D0E940915FFEFEF1AFF0A6FEF00E095
:1031800021E0821A910809F76F3F39F0F10180813F
:1031900091818E0D9F1D0E9409150F900F900F9029
:1031A0000F90DF91CF911F910F91FF90EF90DF90E3
:1031B000CF90BF90AF909F908F907F906F905F90D7
:1031C0004F903F902F9008950F931F93CF93DF93CD
:1031D00000D0CDB7DEB78B019A838983FB01608174
:1031E000CE0101960E94D517C8010F900F90DF9174
:1031F000CF911F910F9108952F923F924F925F921E
:103200006F927F928F929F92AF92BF92CF92DF92F6
:10321000EF92FF920F931F93CF93DF9300D000D0D4
:103220001F92CDB7DEB710921301109212011092C7
:10323000110161E082E00E94000B61E085E00E94E4
:10324000000B61E082E00E94D20A80911304909109
:10325000140497FD08C061E00E94000B60E08091BB
:1032600013040E94D20A81E080930E0462E370E0AE
:1032700080E090E00E94030E61E085E00E94D20AA7
:1032800061E089E00E94000B62E080E10E94000B97
:103290000E94AF1282E090E09093FE038093FD03C2
:1032A0008CE090E00E94B431FC019093FC03809389
:1032B000FB0381E090E09183808382EE91E095832F
:1032C000848383EC93E09187808790E080E00E9484
:1032D000E4148D831A82198263E0CE0101960E9464
:1032E000D517F12CE12CD12CC12C0091FB031091AE
:1032F000FC030E0D1F1D8091FD039091FE03C81667
:10330000D9060CF087C0C6010E94390A1C012D8124
:10331000233031F0BC01F801808191810E94E614D4
:103320008091FB039091FC039C012E0D3F1D3C837B
:103330002B83F901A080B1802A0C3B1C2101F1E014
:103340004F1A5108320145018FEF0FEF1FEF68143C
:103350007904DCF083010819190915950795080D02
:10336000191DC8010E94E4149FEF980F9E3FC8F0FA
:10337000811105C048012FEF821A920AE8CF380167
:1033800031E0631A71088FEFE2CF811117C0041585
:1033900015053CF40F5F1F4FC8010E94E4148823F9
:1033A000B1F3C8010E94E41427E030E091E0482F17
:1033B0004923A1F0990F21503109F9CF0A151B05B6
:1033C0003CF001501109C8010E94E4148F3FB1F391
:1033D0000415150534F70F5F1F4FE3CF0A191B09BA
:1033E00093E0000F111F9A95E1F7020F131F0F3F93
:1033F000100769F0020D131DEB81FC81138302831A
:10340000FFEFCF1ADF0A24E0E20EF11C6ECF0FEFC0
:103410001FEFF2CF8FEF9FEFF8019383828367E274
:1034200073E08CEF93E00E943B158DEF93E00E94D8
:10343000A12F80932A038EEF93E00E94A12F809307
:103440002B031982BE016F5F7F4F8BEF93E00E94C9
:10345000E41862ED72E08BEF93E00E943B156CE2A2
:1034600073E090E080E00E94AC1480912C03909176
:103470002D03A0912E03B0912F030196A11DB11D24
:1034800080932C0390932D03A0932E03B0932F03CE
:103490008091FD039091FE031816190634F46CE236
:1034A00073E090E080E00E94EE1760E373E081E05B
:1034B00090E00E94AC148FEF93E00E94E4148931F5
:1034C00039F08E3129F069E18FEF93E00E94A92F46
:1034D0008CEF93E00E94E414823028F060E08CEFDF
:1034E00093E00E94A92F0E94AE0A892B61F48FEF0E
:1034F00093E00E94E4146EE1893109F069E18FEFF5
:1035000093E00E94A92F63E273E08FEF93E00E94A3
:10351000311567E373E089EF93E00E94311564E1B0
:1035200070E080E090E00E94030E84E080936900E8
:10353000E99A61E08AE00E94000B60E08AE00E9464
:10354000D20A6AE070E080E090E00E94030E61E041
:103550008AE00E94D20A6AE070E080E090E00E9477
:10356000030E87E18093350486E18093360461E0A1
:1035700087E10E94000B61E0809136040E94000BFD
:103580001FB7F8948091D102811127C0EAE3F3E1DB
:103590008491E6E1F3E19491E82FF0E0EE0FFF1F54
:1035A000E552FD4EA591B491EC91E92321F461E03F
:1035B0008AE00E94D20A61E08AE00E94000B8CB58A
:1035C00080618CBD8CB580648CBD61E08DE00E9413
:1035D000000B61E08BE00E94000B8091D1028F5FB5
:1035E0008093D1021FBF1092270410922804EDECA3
:1035F000F0E0C590D490EFECF0E0F490E0EDF0E076
:10360000E491E0932904E1EDF0E0E491E0932A04F1
:10361000E2EDF0E0E491E0932B0410E000E00F1500
:1036200058F4F601E00FF11F649183E294E00E94E8
:10363000810F0F5F1F4FF3CF83E294E00E948A1146
:1036400062E370E080E090E00E94030E8CEF98E06F
:103650000E94560A81E08093140180930401109225
:10366000EA021092E9021092E8021092E7020E9428
:10367000350E6093A4047093A5048093A6049093E0
:10368000A7041092E6021092E50280917A008F7DE5
:1036900080937A0087E880937A0061E087E00E9457
:1036A000000B61E087E00E94D20AF894109290002B
:1036B00089E08093910082E08093710080912303E0
:1036C000893151F48FEF99EF90939900809398008E
:1036D0009093030180930201809123038E3151F472
:1036E00084E590ED90939900809398009093030166
:1036F0008093020178948AE080930B0110928100FC
:1037000081E080930E010F900F900F900F900F901B
:10371000DF91CF911F910F91FF90EF90DF90CF90AD
:10372000BF90AF909F908F907F906F905F904F90E1
:103730003F902F9008950F931F93CF938091C902CC
:10374000882391F01092C9021092C8021092C70209
:10375000109228030E940B0D6093C3027093C40261
:103760008093C5029093C6028091070181115AC0CF
:103770008091C802811128C080912703811109C05E
:1037800080912903811105C067EA83E294E00E94D9
:10379000810F8091C702811112C081E08093C7021E
:1037A00080912503882309F481C141E06AE283E224
:1037B00094E00E94AE0F80EA91E00E9425140E94DE
:1037C0004B1681E08093C8020E940B0D0091C3024A
:1037D0001091C4022091C5023091C602AB01BC0118
:1037E000401B510B620B730B8091080190910901F2
:1037F000092E000CAA0BBB0B481759076A077B0759
:1038000088F00E940B0D6093C3027093C4028093F2
:10381000C5029093C6020E94271466EA83E294E0F0
:103820000E94810F80910701813061F49091C8025C
:10383000911108C08093C8020E9436140E945C1443
:103840000E9432178091070181508C3090F5809151
:10385000C802811105C081E08093C8020E9432171E
:103860000E940B0D0091C3021091C4022091C50269
:103870003091C602AB01BC01401B510B620B730BB4
:103880008091080190910901092E000CAA0BBB0B35
:10389000481759076A077B0760F00E940B0D609379
:1038A000C3027093C4028093C5029093C6020E9423
:1038B0002714809107018C3009F052C080912403B5
:1038C000882309F44DC08091C202811149C043E0B0
:1038D0006EE183E294E00E94AE0F83E294E00E94E6
:1038E000F50F8CE891E00E9425148091BC028111B3
:1038F00017C00E94F02D23E130E040E050E00E942C
:10390000B72F6F5F7F4F8F4F9F4F6093BE027093B3
:10391000BF028093C0029093C10281E08093BC02F9
:1039200080910B0190E090930D0180930C018091A8
:10393000BE029AE0899F802D112480930B0181E0C3
:103940008093C20290910701292F30E09C5040E003
:1039500050E0BA019D3008F0B2C0C9010E94D00900
:10396000809107018D3009F05EC080912403882387
:1039700069F08AE080930B0143E060E083E294E029
:103980000E94AE0F83E294E00E94F50F8091C8027E
:10399000811111C081E08093C8021092280345E094
:1039A00066E483E294E00E94AE0F83E294E00E941A
:1039B000F50F0E9448140E94C1122AE930E0DC0190
:1039C0000E94AD31653D7E4F8F4F9F4F0CF47DC0FF
:1039D0000E94C1122AE930E0DC010E94AD31643A54
:1039E000754B810591050CF073C00E94C1122AE944
:1039F00030E0DC010E94AD312CE231E040E050E0EB
:103A00000E94B72F2C593F4F4F4F5F4F309301010A
:103A1000209300010E94C1128B3892400CF45BC0CD
:103A200081E08093BD02809107018E3011F41092E5
:103A3000C2028D508C30B0F58091C802811107C050
:103A4000C1E0C093C8020E944B16C093C8020E94F6
:103A50000B0D0091C3021091C4022091C502309158
:103A6000C602AB01BC01401B510B620B730B809172
:103A7000080190910901092E000CAA0BBB0B4817F5
:103A800059076A077B0760F00E940B0D6093C30221
:103A90007093C4028093C5029093C6020E942714BB
:103AA0001092BC02CF911F910F91089545E066E4FA
:103AB00083E294E00E94AE0F86E891E07ECEC901D9
:103AC0000E94D0090E94300D4BCF24E630E09ECFFB
:103AD0002EEF30E09BCF1092BD02A5CF1F920F9228
:103AE0000FB60F9211242F933F938F939F93AF9311
:103AF000BF9380913B0390913C03A0913D03B09113
:103B00003E0330913A0323E0230F2D3758F50196F9
:103B1000A11DB11D20933A0380933B0390933C0376
:103B2000A0933D03B0933E0380913F0390914003E7
:103B3000A0914103B09142030196A11DB11D809354
:103B40003F0390934003A0934103B0934203BF917E
:103B5000AF919F918F913F912F910F900FBE0F903A
:103B60001F90189526E8230F0296A11DB11DD2CFF4
:103B70001F920F920FB60F9211242F933F934F93E2
:103B80005F936F937F938F939F93AF93BF93EF93C5
:103B9000FF938091520390915303A0915403B091ED
:103BA0005503892B8A2B8B2BD1F190914503E09102
:103BB0004603F091470380818927808380915203D7
:103BC00090915303A0915403B09155031816190610
:103BD0001A061B069CF48091520390915303A09106
:103BE0005403B09155030197A109B1098093520381
:103BF00090935303A0935403B0935503FF91EF9117
:103C0000BF91AF919F918F917F916F915F914F91F4
:103C10003F912F910F900FBE0F901F90189580919C
:103C20001501EBE0F3E1E4919FEF90931501E23091
:103C3000E1F040F4EE2381F0E13089F060E00E9491
:103C4000D20ADCCFE33011F1E430C1F79091720079
:103C50009D7F90937200F2CF10926E00EFCF909103
:103C60006F009D7F90936F00E9CF909170009D7FD2
:103C70009093700091E09093B0009091B100987F84
:103C800094609093B1001092B300D8CF90917100DE
:103C90009D7F90937100D2CF1F920F920FB60F921B
:103CA00011242F933F934F935F936F937F938F9341
:103CB0009F93AF93BF93EF93FF938EE593E00E94A2
:103CC000BE0EFF91EF91BF91AF919F918F917F9128
:103CD0006F915F914F913F912F910F900FBE0F9079
:103CE0001F9018951F920F920FB60F9211242F93C9
:103CF0008F939F93EF93FF93E0916E03F0916F0387
:103D00008081E0917403F091750382FD1BC0908166
:103D1000809177038F5F8F7320917803821741F032
:103D2000E0917703F0E0E25AFC4F958F80937703A0
:103D3000FF91EF919F918F912F910F900FBE0F9058
:103D40001F9018958081F4CF1F920F920FB60F929B
:103D500011242F933F934F935F936F938F939F9370
:103D6000EF93FF9380910601882309F45DC0809151
:103D7000F102882309F483C0809179008054990B63
:103D80009093A1028093A0028091ED029091EE02A7
:103D900020919E0230919F02820F931F90939F0269
:103DA00080939E024091A0025091A102242F97FD82
:103DB00020954091A0025091A102842F905C97FD24
:103DC00080954091CE025091CF026091EB02E0913C
:103DD000CE02F091CF02022E000C330B062E02C051
:103DE000559547950A94E2F7241B350B2E0F3F1F7C
:103DF0003093CF022093CE022091CC023091CD029D
:103E00004091CC025091CD02082E000C990B02C0BB
:103E1000359527956A95E2F7821B930B840F951FC2
:103E20009093CD028093CC02809112038823C9F035
:103E3000909178008091790089279827892790931D
:103E4000FC028093FB0281E08093CB028091FB0215
:103E50009091FC028E3F934024F01092FC0210924D
:103E6000FB02FF91EF919F918F916F915F914F9125
:103E70003F912F910F900FBE0F901F90189580913A
:103E800079008058990B7CCF1F920F920FB60F923A
:103E900011248F939F9380919B0491E089278093B5
:103EA0009B049F918F910F900FBE0F901F901895BC
:103EB0001F920F920FB60F921124CF92DF92EF92C2
:103EC000FF920F931F932F933F934F935F936F93A3
:103ED0007F938F939F93AF93BF93CF93DF93EF9392
:103EE000FF938091D5028823F9F01092D50280913A
:103EF0009800909199000196C4E096958795CA958F
:103F0000E1F7019790939900809398008091980031
:103F100090919900909303018093020180E880932F
:103F2000610084E0809361008091D6028823E9F0EB
:103F30001092D60280E88093610010926100809117
:103F4000980090919900B4E0880F991FBA95E1F715
:103F50004197909399008093980080919800909158
:103F6000990090930301809302018091F7028F5F83
:103F70008093F70280919C0290919D02019690930C
:103F80009D0280939C029091F70280910B019817FB
:103F900008F494C0809107011092F70291E0909389
:103FA000C9028F5F893108F0B2C080930701109178
:103FB00007011111D6C01092F602809111018823D9
:103FC000E1F00E94350E6093090370930A03809319
:103FD0000B0390930C0347E050E060E070E080EA50
:103FE0009AE00E943C0B0E940B0D6093F2027093CA
:103FF000F3028093F4029093F502809112018823DA
:1040000031F080912703811185C00E941A1380919D
:104010001301882309F452C08FEF810F8C30A0F474
:1040200081E0809336038091BD02882309F40EC19C
:104030000E941A130E94350E6093A8047093A9047D
:104040008093AA049093AB04809107018C3039F4DB
:10405000909123039E3119F491E090939B0293EF8A
:10406000980F9D3058F540910001C42ED12CF12CB1
:10407000E12CB6015527442790E02091BD02222370
:1040800061F03E2D2D2D1C2D0027402B512B622B36
:10409000732B4C295D296E297F290E94D0090E942B
:1040A000300D81E0809336030E94350E6093A804A2
:1040B0007093A9048093AA049093AB0480910701A4
:1040C0008D3061F48091F702813041F480910201DA
:1040D000909103019093990080939800FF91EF9144
:1040E000DF91CF91BF91AF919F918F917F916F9110
:1040F0005F914F913F912F911F910F91FF90EF9002
:10410000DF90CF900F900FBE0F901F9018951092D8
:1041100007014DCF81E0809336034EEF5EEF6EEFE7
:1041200070E090E080E00E94D0090E94300DC1E074
:10413000D0E042E352E362E370E0CE010E94D00996
:104140002196CA31D105A9F70E94300D0E94350E83
:104150006093A8047093A9048093AA049093AB047D
:1041600056CF1C30C1F480912403811150CF80912F
:104170000B0190E090930D0180930C01809123033B
:104180008E3109F044CF90912903911101C08CE345
:1041900080930B013CCF1D3009F039CF80910C0189
:1041A00090910D0180930B01809123038931C9F413
:1041B0008091D7028823B1F180912A0390912B033B
:1041C000209102013091030197FD0F96A4E095958F
:1041D0008795AA95E1F7820F931F9093990080939A
:1041E0009800809123038E3109F011CF8091D7027E
:1041F000882309F180912A0390912B0320910201D9
:104200003091030197FD0F96F4E095958795FA9507
:10421000E1F72C593F4F820F931F909399008093A1
:104220009800F5CE209102013091030180912A037C
:1042300090912B03D0CF80910201909103012091A6
:104240002A0330912B038C599F4FE5CF40910001F9
:1042500050E070E060E0762F652F542F4427812FC7
:1042600090E00E94D0090E94300DE4CEFC01118242
:1042700010821382128215821482FB0101900020A9
:10428000E9F73197AF01461B570B0C94D8151092E4
:1042900061031092600388EE93E0A0E0B0E08093A9
:1042A000620390936303A0936403B093650380E378
:1042B00091E090935F0380935E0385EC90E0909390
:1042C0006B0380936A0384EC90E090936D0380937A
:1042D0006C0380EC90E090936F0380936E0381EC0D
:1042E00090E0909371038093700382EC90E0909340
:1042F00073038093720386EC90E090937503809330
:10430000740310927703109278031092790310923D
:104310007A031092FE031092FD03AFEFB3E0EEE0DC
:10432000F0E091E29093570084918D933196E831BB
:10433000F105C1F762E971E08EEB94E00E9436214D
:1043400068E971E088EB94E00E94362162EA71E04E
:1043500082EB94E00E94362160EB71E08CEA94E0FD
:104360000E9436210E94350E6093A8047093A90420
:104370008093AA049093AB040E94350E6093A4042A
:104380007093A5048093A6049093A7040E94350E11
:104390006093A0047093A1048093A2049093A3045B
:1043A0000E94350E0E94350E60939C0470939D040C
:1043B00080939E0490939F0480919B0480939A0421
:1043C0000E94350E8AE080933804109239041092CE
:1043D0003A0410923704E7E8F4E080E081938F5FBD
:1043E0008A30E1F70E94350E0E94350E10922604A5
:1043F0001092250410922F0410923004109232046F
:10440000109231041092330481E08093340422E44A
:1044100031E0309324042093230410920E04109270
:10442000150410921C0410921D0410921E04109288
:104430001F0480931B04809318041092190492E0C7
:1044400090931A0480930D048BE490E090931204EF
:10445000809311040E94B431909317048093160442
:10446000009709F446C02BE4FC0111922A95E9F764
:1044700089E190E09093100480930F048FE090E026
:10448000909314048093130480910E04882341F0C8
:1044900061E08FE00E94000B60E08FE00E94D20A92
:1044A000EFE3F3E1E491F0E0EE0FFF1FEC5DFC4E73
:1044B000859194919093210480932004EBE1F3E1A2
:1044C000E491E09322040E94350E609309047093F6
:1044D0000A0480930B0490930C040E94350E0E94F2
:1044E000350E0E94350E0E94350E0E94350E0C943A
:1044F000350E1092120410921104109210041092B2
:104500000F04BCCFCF93DF9300D0CDB7DEB7789444
:1045100084B5826084BD84B5816084BD85B58260C8
:1045200085BD85B5816085BD80916E008160809379
:104530006E001092810080918100826080938100E2
:1045400080918100816080938100809180008160F2
:10455000809380008091B10084608093B10080914D
:10456000B00081608093B000809191008260809360
:1045700091008091910081608093910080919000E2
:104580008160809390008091A10082608093A1005F
:104590008091A10081608093A1008091A000816042
:1045A0008093A00080917A00846080937A0080914B
:1045B0007A00826080937A0080917A008160809393
:1045C0007A0080917A00806880937A001092C1000E
:1045D0000E94FC1898EE292E93E0392E28E7822EAF
:1045E000912CA12CB12C90919B0480919A04981746
:1045F00049F080919B0480939A040E94350E81E0DB
:104600008093D3028091D302882359F00E94350E03
:104610000E94350E1092D30281E0639B43C28093C7
:10462000380380913903882309F46DC0109239034F
:104630008091260381113CC0109213011092120147
:1046400084E080936900E99A60E085E00E94D20AE4
:1046500064E170E080E090E00E94030E60E082E0A0
:104660000E94D20A83B7817F846083BFF89410923E
:104670007A00809164008FEF8093640080916500E0
:104680008D638093650083B7816083BF80E685BFBB
:1046900080E485BF7894889583B78E7F83BF8091AF
:1046A00064001092640080916500827C80936500B4
:1046B00080912603882339F18091D402811123C08F
:1046C00010921301109212011092110184E0809354
:1046D0006900E99A60E085E00E94D20A64E170E036
:1046E00080E090E00E94030E60E082E00E94D20A27
:1046F00081E08093D4028093D7028093D5021092F8
:10470000D6020E94350E809138038823A1F01092C2
:1047100038031092D70281E08093D6021092D5021E
:1047200084E080936900109213011092120110929C
:10473000D4020E94FC1880911401882309F45BC202
:1047400080910401882309F471C08091EA028111EB
:1047500049C00E94350E60939C0470939D04809321
:104760009E0490939F0483E294E00E948A1183EE5A
:1047700090E00E94560A40E060E083E294E00E94EC
:10478000AE0F83EC91E00E9425148CEF98E00E941C
:10479000560A45E060E083E294E00E94AE0F60912B
:1047A000230370E090E080E04AE00E94B11345E00E
:1047B00067E183E294E00E94AE0F8BEC91E00E94EF
:1047C000251445E06CE383E294E00E94AE0F8FEC89
:1047D00091E00E9425148EEB94E00E946E0E81E021
:1047E0008093EA020E94350E00919C0410919D0472
:1047F00020919E0430919F04601B710B820B930BE0
:104800006C3D75408105910588F00E94350E6093DE
:104810009C0470939D0480939E0490939F04109237
:10482000EA021092040181E08093E9028091E9029A
:10483000882309F469C08091EA0281113BC00E947B
:10484000350E60939C0470939D0480939E04909316
:104850009F0483E294E00E948A1111E010932C04DB
:104860008CEF98E00E94560A41E06AE083E294E00F
:104870000E94AE0F81ED91E00E94251443E064E1B7
:1048800083E294E00E94AE0F8CED91E00E9425142B
:1048900046E06AE083E294E00E94AE0F85EE91E08C
:1048A0000E94251410932C048CEF98E00E94560A65
:1048B0001093EA020E94350E00919C0410919D0411
:1048C00020919E0430919F04601B710B820B930B0F
:1048D0006433784081059105B8F00E94350E6093ED
:1048E0009C0470939D0480939E0490939F04109267
:1048F000EA02109204011092E90281E08093E8023A
:1049000083E294E00E948A118091E802882309F4EE
:104910006FC18091EA0281110DC081E08093EA02AB
:104920000E94350E60939C0470939D0480939E04B6
:1049300090939F048AE0782E10E000E085E10E94C9
:10494000F90C080F191F7A947110F8CFB801110FE4
:10495000880B990B0E94842E20E030E040E251E465
:104960000E94BE3020E030E040EA50E40E94E32E96
:1049700020E030E040E85AE30E94E32E9B01AC01C6
:104980000E94523020E030E048EC52E40E94E32ED6
:104990000E9430312B013C018091E70281113BC024
:1049A00081E08093E70241E069E183E294E00E94C4
:1049B000AE0F83EE90E00E94560AA4E6B0E0A30199
:1049C000920126523240410951090E94D62F2AE411
:1049D00031E040E050E00E94B72FC9012536310593
:1049E00014F084E690E097FF02C090E080E00E941F
:1049F000F51380EF91E00E94251445E069E183E220
:104A000094E00E94AE0F8CEF98E00E94560A82EF6D
:104A100091E00E942514A3019201245F31404109D5
:104A20005109AAE1B0E00E94D62F20E931E040E030
:104A300050E00E94B72FCA01B9010E94842E2B01B9
:104A40003C0120E030E0A9010E947D2E18160CF4F4
:104A50005FC08091DD0281110DC00E94350E609310
:104A6000D9027093DA028093DB029093DC0281E03A
:104A70008093DD028091D80281114AC01092070113
:104A8000109107011A3188F440E050E06AE070E0CC
:104A9000812F90E00E94D0090E94300D1F5F10937B
:104AA0000701EECF80933903BCCD0E94350E0091F3
:104AB000D9021091DA022091DB023091DC02601BF6
:104AC000710B820B930B643F71408105910500F1DE
:104AD0000E94350E6093D9027093DA028093DB0254
:104AE0009093DC0210920701109107011A3168F4CB
:104AF00040E050E0BA01812F90E00E94D0090E946E
:104B0000300D1F5F10930701EFCF81E08093D80233
:104B10000E94350E0091A4041091A5042091A604D2
:104B20003091A704601B710B820B930B68327105E7
:104B30008105910590F10E94350E6093A404709355
:104B4000A5048093A6049093A7040091E502109118
:104B5000E602B801012E000C880B990B0E94842EEE
:104B60009B01AC01C301B2010E94663144E150E0F7
:104B700060E070E018161CF040E050E0BA01C80197
:104B80000E94D0090E94300D0A31110534F40F5FE4
:104B90001F4F1093E6020093E5020E94350E00912C
:104BA0009C0410919D0420919E0430919F04601BF1
:104BB000710B820B930B603D774081059105C0F02E
:104BC0000E94350E60939C0470939D0480939E0414
:104BD00090939F041092EA02109204011092E9024D
:104BE0001092E8021092140183E294E00E948A116C
:104BF0000E944D0FF8CC0E94AE0A9093350380932B
:104C00003403009709F013C180910F0190911001B6
:104C1000019791F40E94350E6B3071058105910565
:104C200058F00E94350E6B017C0180913403909105
:104C30003503892B09F0E2C00E94350E6C197D09FD
:104C40008E099F09653F71408105910508F4D6C022
:104C50008091130181111092130110921201109290
:104C6000110183E294E00E948A110E94AF12109217
:104C70002C0440E060E083E294E00E94AE0F80E20A
:104C800091E00E9486148AEF91E00E94251488EB3F
:104C900094E00E946E0E87E691E00E94A41382EBDE
:104CA00094E00E946E0E87E691E00E94A41360EDEE
:104CB00077E080E090E00E94030E83E294E00E949F
:104CC0008A118DEF91E00E9425146091300370915C
:104CD000310380913203909133034AE00E94B11373
:104CE00082E092E00E94861486E092E00E94251401
:104CF00060912C0370912D0380912E0390912F03CE
:104D00004AE00E94B11387E691E00E94A4138CE070
:104D100092E00E94251480912A0390912B030E9417
:104D2000F51360ED77E080E090E00E94030E809143
:104D3000370381508093370383E294E00E948A1105
:104D400011E010932C0410922903109228030E9462
:104D500052148091340390913503892B09F04EC091
:104D60000E94350E6C197D098E099F0961377741C4
:104D70008105910508F442C08091270381118BC001
:104D80001983BE016F5F7F4F8CEF93E00E94E418A0
:104D900042E350E060E070E084EF91E00E943C0B61
:104DA0001092130183E294E00E948A110E94AF12D4
:104DB00041E06AE083E294E00E94AE0F84E192E079
:104DC0000E94251443E06AE083E294E00E94AE0F63
:104DD0008FE192E00E94251445E06AE083E294E0CE
:104DE0000E94AE0F87E292E00E94251460ED77E00A
:104DF00080E090E00E94030E0C9400008091340348
:104E0000909135039093100180930F01E091370347
:104E1000E73008F0EDCEF0E0E05FF84D0C949F3104
:104E20004D27F12728288F28CC28442C902701973C
:104E300029F780910F0190911001892BF9F60E94BA
:104E4000350E6C197D098E099F096B30710581053E
:104E50009105A0F281E080930E01809137038F5F6E
:104E600080933703843010F0109237030E94350E80
:104E700089EF93E09A83898360913703CE0101968D
:104E80000E94D5170E94AF1280910C0190910D01E4
:104E900080930B01CACE198274CF80910E018823B2
:104EA000E9F11092810080917A008F7D80937A00E1
:104EB00087E880937A0066EA83E294E00E94810F9B
:104EC00083E294E00E948A110E94521481E0809350
:104ED0001301809312018093110180930A011092B3
:104EE00029031092260310922503109224038AE0CE
:104EF00080930B0188EA91E6909309018093080161
:104F000043E060E083E294E00E94AE0F83E294E02D
:104F10000E94F50F0E945C1410920E010E949B1BD0
:104F200080911301811104C0809112018823D9F06E
:104F3000809136038823B9F00E94350E0091A804B1
:104F40001091A9042091AA043091AB04601B710B4D
:104F5000820B930B6A3071058105910520F0109248
:104F600036030E94AF120E94350E0091A0041091EA
:104F7000A1042091A2043091A304601B710B820B49
:104F8000930B60367A4E8105910508F431CE8091FD
:104F9000300390913103A0913203B0913303019615
:104FA000A11DB11D8093300390933103A093320370
:104FB000B09333038091FD039091FE03029734F088
:104FC00060E373E081E090E00E94EE170E94350EEE
:104FD0006093A0047093A1048093A2049093A3040F
:104FE00007CE80910E01882309F498CF109281009A
:104FF00011E010931301109312011093110166EA4E
:1050000083E294E00E94810F0E94521485E0809315
:105010000B0110920A01109329031092250310929C
:1050200024031092260341E061E083E294E00E94B1
:10503000AE0F83E294E00E94F50F43E062E183E269
:1050400094E00E94AE0F8DE292E00E94251464CF9E
:1050500080910E01882309F461CF1092810011E044
:1050600010931301109312011093110166EA83E269
:1050700094E00E94810F0E94521410920A0143E0B2
:1050800060E083E294E00E94AE0F83E294E00E942D
:10509000F50F1092280380E197E290930901809325
:1050A000080110920A01109229031093250310920F
:1050B000240310922603809123038E3159F586E94B
:1050C00080930B0141E061E083E294E00E94AE0F27
:1050D00083E294E00E94F50F43E063E283E294E010
:1050E0000E94AE0F86E392E00E94251445E065E041
:1050F00083E294E00E94AE0F8BE392E00E942514BD
:105100000E945C14809107018D508C3028F40E941D
:10511000481402CF8DE7D4CF0E943614FDCE809183
:105120000E01882309F4FACE1092810011E0109349
:105130001301109312011093110166EA83E294E0C7
:105140000E94810F0E94521443E060E083E294E0E9
:105150000E94AE0F83E294E00E94F50F88EA91E688
:10516000909309018093080110920A01109229037B
:105170001092250310922603109324038AE0809353
:105180000B0141E061E083E294E00E94AE0F83E214
:1051900094E00E94F50FC0CE1092130110921201FC
:1051A0001092110180910E01882301F1109281006B
:1051B00010920E0166EA83E294E00E94810F0E9441
:1051C00094140E94AF120E943313109226030E947F
:1051D000350E6093090470930A0480930B04909336
:1051E0000C048AE080930B01109222030E94350E7A
:1051F0000091090410910A0420910B0430910C04D1
:10520000601B710B820B930B603777418105910511
:1052100000F10E94350E6093090470930A04809394
:105220000B0490930C040E94AF120E9451130E9431
:105230009414109221031092200310921F031092D5
:105240001E0310921D0310921C0310921B03109258
:105250001A0380910601882309F4DBC00E94C31160
:105260000E94A3119093F9028093F80220912003E9
:10527000309121038217930720F0909321038093AC
:1052800020030E9412128823A9F080911903811132
:1052900011C010922103109220030E940B0D609305
:1052A000150370931603809317039093180381E0FE
:1052B0008093190380911903882309F487C00E9401
:1052C0000B0D4090150350901603609017037090DB
:1052D00018036419750986099709603A7B4B8D405C
:1052E000910508F473C00E941212882309F459C072
:1052F0000E940B0D9B01AC01241935094609570981
:1053000029013A014092FF0250920003609201038A
:105310007092020360931503709316038093170332
:10532000909318030E94350E1092FA0230EF431A40
:105330003EE7530A3EE0630A710841EA441646E834
:10534000540641E064067104F0F4809113039091D7
:1053500014039C012F5F3F4F3093140320931303DA
:1053600040E050E064E670E00A960E94D0090E9496
:10537000300D0E94350E6093090470930A048093E7
:105380000B0490930C0410921903109208030E94CE
:10539000350E6093090370930A0380930B03909377
:1053A0000C030E940B0D0091150310911603209120
:1053B000170330911803601B710B820B930B603E37
:1053C000784C8041910510F01092190380911303DD
:1053D000909114030297ECF01092140310921303AF
:1053E00086E480937C0080917C008F7D80937C009C
:1053F0001092060181E08093120310921403109220
:1054000013031092FF0210920003109201031092F6
:10541000020380911203882309F4B4C10E94350E5F
:105420000091090310910A0320910B0330910C03A2
:10543000601B710B820B930B6C32714081059105DF
:1054400098F18091FE0281112FC084EF91E090933A
:105450001B0380931A0344EF51E060E070E0CB013E
:105460000091FB021091FC02012E000C220B330B69
:10547000600F711F821F931F4150510989F724EF5C
:1054800031E040E050E00E94203030931B03209335
:105490001A0380911A0390911B0381E08093FE020E
:1054A00080911A0390911B030E9460128823D9F007
:1054B00080911103811117C010921D0310921C03DB
:1054C0001092FD028091FB029091FC0281E080939A
:1054D00011030E940B0D60930D0370930E038093D4
:1054E0000F039093100380911103882309F487C060
:1054F0000E940B0D40900D0350900E0360900F031F
:10550000709010036419750986099709603A7B4BFE
:105510008D40910508F473C00E946012882309F43D
:1055200059C00E940B0D9B01AC0124193509460995
:10553000570929013A014092FF02509200036092FC
:1055400001037092020360930D0370930E03809326
:105550000F03909310030E94350E1092FE0230EF5D
:10556000431A3EE7530A3EE0630A710841EA4416D3
:1055700046E8540641E064067104F0F48091130398
:10558000909114039C012F5F3F4F3093140320939D
:10559000130344E650E060E070E00C960E94D009EE
:1055A0000E94300D0E94350E6093090470930A0426
:1055B00080930B0490930C04109211031092080333
:1055C0000E94350E6093090370930A0380930B03C6
:1055D00090930C030E940B0D00910D0310910E038C
:1055E00020910F0330911003601B710B820B930B02
:1055F000603E784C8041910510F01092110380912B
:1056000013039091140302970CF4BCC00E94511331
:105610008091060390910703909305038093040300
:1056200060910D0370910E0380910F039091100310
:105630000091150310911603209117033091180360
:10564000601B710B820B930B20E432E44FE050E0BF
:105650000E94203028EE33E040E050E00E942030ED
:10566000C90101969093070380930603255E33409A
:105670002530310518F0019709F0A0C081E0809332
:10568000030367EA83E294E00E94810F83E294E0DF
:105690000E948A1120910603309107038091040330
:1056A00090910503821B930B97FF03C09195819501
:1056B00091098431910524F0855D9340879730F5F9
:1056C000C901845F9140823F914008F07AC0D101C6
:1056D000A21BB30B2AE330E00E94AD31A501940177
:1056E0000E94B72F205C6EEF620F45E083E294E0EA
:1056F0000E94AE0F81EF98E00E94560A82E492E089
:105700000E9425148CEF98E00E94560A41E068E25E
:1057100083E294E00E94AE0F80910303882309F492
:1057200075C042E067E083E294E00E94AE0F84E43B
:1057300092E00E94251466EA83E294E00E94810FC1
:105740000E94AF1284E592E10E94560A46E060E0B2
:1057500083E294E00E94AE0F82E492E00E9425145E
:105760008EE690E10E94560A47E060E083E294E012
:105770000E94AE0F86E692E00E9425148CEF98E01E
:105780000E94560A0E94350E0091090310910A03E7
:1057900020910B0330910C03601B710B820B930B58
:1057A000683C71058105910508F4BACB8091080326
:1057B0008111B6CB81E080930803B2CB1092030332
:1057C00060CF2B3EB3E03B073CF0285E3340A6ECB5
:1057D000BFEF0E94A53182CF243F41E03407A4F4FB
:1057E00037FD0EC02937310514F028E730E0032ECD
:1057F000000C440B550BA6ECBFEF0E94E42F6ECFBC
:1058000020E030E0A901F7CF2FE36DCF80910603B0
:10581000909107038A3E53E095078CF0885E934091
:105820000E94F5138FE591E00E94861443E06AE040
:1058300083E294E00E94AE0F8FE492E07ACF9C0165
:10584000245F3140233F314098F49101281B390BEC
:10585000C9010E94F5138FE591E00E94861443E090
:105860006AE083E294E00E94AE0F8BE592E061CFA4
:10587000843F31E093070CF05ECF0E94F5138FE573
:1058800091E00E948614D8CF1092130111E010937A
:1058900011011093120180910E01882309F452C066
:1058A0001092810010920E0166EA83E294E00E9459
:1058B000810F83E294E00E948A1141E06FE083E26D
:1058C00094E00E94AE0F8CE792E00E94861445E0BF
:1058D00065E083E294E00E94AE0F86E892E00E94C9
:1058E00086140E94AF12109227031092260385E6B9
:1058F00080937C001092F10210927B008DEF8093D8
:105900007A0085E394E2A0E0B0E08093ED0290930A
:10591000EE02A093EF02B093F002A6E0B0E0B093E5
:10592000EC02A093EB0210922103109220032FEFC0
:1059300033E030931F0320931E0388E280930B0112
:10594000109322030E94350E0091090410910A045D
:1059500020910B0430910C04601B710B820B930B94
:10596000683B7B408105910580F10E94350E609374
:10597000090470930A0480930B0490930C0483E24F
:1059800094E00E948A1141E06FE083E294E00E947B
:10599000AE0F8CE792E00E94861445E065E083E25A
:1059A00094E00E94AE0F86E892E00E94861443E0E5
:1059B00060E083E294E00E94AE0F10922103109207
:1059C000200310921F0310921E0380910701843060
:1059D00009F05CC08091F7026AE00E946B3191117E
:1059E00055C08091050181114FC081E08093050170
:1059F00080912003909121031092210310922003A3
:105A000067EA83E294E00E94810F83E294E00E94BF
:105A10008A1141E064E183E294E00E94AE0F83EEDC
:105A200090E00E94560A809106039091070383300C
:105A300091050CF068C0109207031092060390E0E5
:105A400080E00E94F5138CEF98E00E94560A8FE5E3
:105A500091E00E94251445E065E083E294E00E9415
:105A6000AE0F86E892E00E94861466EA83E294E034
:105A70000E94810F0E94350E6093090470930A04FE
:105A800080930B0490930C040E94350E0E94C31166
:105A90000E941212882309F443CA8091F6028111F0
:105AA0003FCA0E940B0D60931503709316038093F9
:105AB0001703909318030091F2021091F3022091C2
:105AC000F4023091F5020091F2021091F30220915C
:105AD000F4023091F502601B710B820B930B28EEE0
