:100000000C945D090C9485090C9485090C94850960
:100010000C9485090C9485090C9485090C94881D11
:100020000C9485090C9485090C9485090C94850918
:100030000C9485090C9485090C9485090C94850908
:100040000C94741E0C9485090C94421E0C941C1E76
:100050000C9485090C94BE1E0C9485090C9485099A
:100060000C9485090C9485090C9485090C94721FD5
:100070000C9485090C9485090C9485090C948509C8
:100080000C9485090C94861F0C9485090C948509A1
:100090000C9485090C9485090C9485090C948509A8
:1000A0000C9485090C9485090C9485090C94850998
:1000B0000C948509AED580A83FD300408D14200252
:1000C000A1C8DA1281FFD9F1DB40A4A6AFB40019B0
:1000D00080400000030C0F30333C3FC0C3CCCFF056
:1000E000F3FCFF00000000240027002A002D000080
:1000F000901C242060080000000020000000000088
:1001000000000A0000150F15141615151414150813
:1001100000000000000000000000000000000000DF
:1001200000000018000000001700000000000000A0
:1001300000000000000000001500000000000800A2
:100140000000001400000000000E00000000160077
:10015000000000000000000000000000000000009F
:10016000000000000000000000000000000000008F
:1001700000000000000000000000000000C0F0F8D7
:10018000FC7C1C1C1C7CFCF8F8C00000000000007B
:10019000C0F0FC7C1C0400000000000000071F3FB2
:1001A0007F7C7070707C7F3F3F070080E0F8FE3FEF
:1001B0001F07010000000000000000000000000018
:1001C00000000000000000C0E0F8FE3F0F03000048
:1001D000F0FEFEFF1F0707071FFFFEFCF0000000F8
:1001E00000000000101C1F1F07030000000000009B
:1001F000010F0F1F1F1C1C1C1F1F0F0701000000F9
:1002000000000000000000000000000000000000EE
:1002100000000000000000000000000000000000DE
:1002200000000000000000000000000000000000CE
:10023000001F1F1F1F1F1F1F1F1F1F000000000088
:1002400000000000000000000000000000000000AE
:10025000C0F0F0F8F8FCFC7C7C7C7CFCFCF8F8F04E
:10026000E0C00000FFFFFFFFFFFFFF0000000000F5
:1002700000FFFFFFFFFFFFFF003FFFFFFFFFFFFF4C
:10028000C080808080C0FFFFFFFFFFFF3F000000B5
:100290000307070F0F0F0F0F0F0F0F0F0F070703A6
:1002A000010000000000000000000000000000004D
:1002B00000000000000000000000008080C0E0F0AE
:1002C000FCFCFCFCFCFCFC3F3F3F1F1F0F07FFFF3B
:1002D000FFFFFFFFFFFF00000000000000FFFFFF27
:1002E000FFFFFFFFFF000000000000000F0F0F0FD7
:1002F0000F0F0F0F000000000000000000000000C2
:1003000000000000C0E0F0F8F8FCFCFC7C7C7C7C89
:10031000FCFCFCF8F8F0E0C0000303030303030354
:100320000080C0C0E0F8FFFFFFFF7F3F0F0080C0EC
:10033000F0F8FCFEFFFFFFFFDFCFC7C7C3C1C0C09F
:10034000C0C00F0F0F0F0F0F0F0F0F0F0F0F0F0F5B
:100350000F0F0F0F0F0F0F00000000000000000034
:1003600000000000000000000000000080E0F0F845
:10037000F8FCFC7C7C3C7C7CFCFCFCF8F8F0C000CD
:100380000101010101010100F0F0F8F8FFFFFFFF9A
:10039000DF8F8700E0E0E0E0E0E0E08001010101C4
:1003A00083FFFFFFFFFFFFFF00010307070F0F0F92
:1003B0000F0F0F0F0F0F0F070703010000000000C2
:1003C000000000000000000000000000000000002D
:1003D000000000000000000080C0E0F8FCFCFCFC15
:1003E000FCFCFC0000000080C0E0F0FCFEFF7F1F72
:1003F0000F0703FFFFFFFFFFFF0000007F7F7F7FEE
:100400007F7F7D7C7C7C7C7C7CFFFFFFFFFFFF7C13
:100410007C7C000000000000000000000000000FD5
:100420000F0F0F0F0F000000000000000000000081
:1004300000000000000000000000000000000000BC
:10044000FCFCFCFCFCFCFCFCFCFCFCFCFCFCFCFCEC
:10045000FC00000000FFFFFFFFFFF878787878F8D5
:10046000F8F8F8F0E0E0800000E0E0E1E1E1E180B0
:100470000000000080FFFFFFFFFFFF7F1E00010361
:1004800007070F0F0F0F0F0F0F0F0F0F07070301B6
:10049000000000000000000000000000000000005C
:1004A0000000000000000000C0E0F0F8F8FCFC7C58
:1004B0003C3C3C7CFCFCF8F8F0E00000FEFFFFFF59
:1004C000FFFFFFE1F0787878F8F8F8F8F0E0C08006
:1004D000003FFFFFFFFFFFFFC18000000080C1FF62
:1004E000FFFFFFFFFF3E0000010307070F0F0F0F85
:1004F0000F0F0F0F0F0F0703030000000000000095
:1005000000000000000000000000000000000000EB
:10051000FCFCFCFCFCFCFCFCFCFCFCFCFCFCFCFC1B
:10052000FCFCFCFC0000000000000000C0F0F8FE35
:10053000FFFF7F1F0F0301000000000000E0FCFF31
:10054000FFFFFFFF0F01000000000000000000009F
:100550000E0F0F0F0F0F0F01000000000000000032
:10056000000000000000000000000000000000008B
:100570000000000080E0F0F8F8FCFC7C3C3C3C7C97
:10058000FCFCFCF8F8F0E080030F9FFFFFFFFFF892
:10059000F0F0F0F0FCFFFFFFFF9F0F03FEFFFFFFF7
:1005A000FFFFFF830100000183FFFFFFFFFFFFFE4E
:1005B000000307070F0F0F0F0F0F0F0F0F0F0F077E
:1005C000070701000000000000000000000000001C
:1005D000000000000000000000C0E0F0F8F8FCFCA3
:1005E0007C3C3C7C7CFCFCF8F8F0E0C0003F7FFFEA
:1005F000FFFFFFFFE0C0808080C0E0FFFFFFFFFF44
:10060000FFFE00C0C1C3C3C7C7C78707070783E191
:10061000FFFFFFFFFFFF3F00000103070F0F0F0F5A
:100620000F0F0F0F0F0F070703010000000000005E
:1006300000000000000000000000000000000000BA
:10064000000000000000000000FEFEFEFEFEFEFEB8
:10065000FEE0E0E0E0E0E0E0E00F0F0F0F0F0F0F33
:100660000F0000000000000000FCFCFCFCFCFCFC97
:10067000F8F0C080000000000000FCFCFCFCFCFC6A
:10068000FCFFFFFFFFFFFFFF7FFFFFFFFEFCF0E02F
:100690008000FFFFFFFFFFFFFFFFFFFFFFFFFFFFE8
:1006A000000001070F3F7FFFFFFFFFFFFFFFFFFF7E
:1006B000FF0F0F0F0F0F0F0F0000000000000001D1
:1006C000030F0F0F0F0F0F0F0F00000000000000AF
:1006D000000000000000000000000000000000001A
:1006E0000000E0F0F0F8F8FCFC7C7C7C7C7CFCFCFE
:1006F000FCF8F8F0E0C00000071F3F7FFFFFFFFF9E
:10070000FCFCF8F8F8F8F3F3F3E3E3C3830000F834
:10071000F8F8F8F8F8F8E1C18183838387CFFFFF09
:10072000FFFFFFFFFF7E00010307070F0F0F0F0FF3
:100730000F0F0F0F0F0F0F0707030100000000003E
:1007400000000000000000000000000000000000A9
:100750000000000000000000000000000000000099
:1007600000000000000000000000C0F0F8F8FCFCF1
:10077000FE7E7E3E3E3E7EFEFEFCFCF8F0E01EFF6E
:10078000FFFFFFFFFFF3C08080008080C0E0E0E05B
:10079000E0E0E00000010307070F0F0F0F0F0F0F3E
:1007A0000F0F0F0F07030300000000000000000000
:1007B000000000000000000000000000007C7C7CC5
:1007C0007C7C7C7C7CFEFEFEFEFEFEFEFEFFFFFFD0
:1007D000FFFFFFFFFF0F0F0F0F0F0F0F0F000000A6
:1007E0000000000000000000000000000000000009
:1007F000000000000000000000FEFEFEFEFEFEFE07
:10080000F0787C7C7EFEFEFEFEFCFCF8E0FFFFFF45
:10081000FFFFFFFF000000000000FFFFFFFFFFFFE2
:10082000FF0F0F0F0F0F0F0F0000000000000F0F42
:100830000F0F0F0F0F00000000000000000000006D
:10084000000000000000000000000000E0E0F0F008
:10085000F8F8F8000000007E7E7EFFFFFFFFFFFF3C
:10086000FF7E7E7E7E000000FFFFFFFFFFFFFF8018
:1008700080808000000003070F0F0F0F0F0F0F0F76
:100880000F00000000000000000000000000000059
:100890000000000000000000000000000000000058
:1008A0000000000000021E7EFEFEFEFEFCF0800046
:1008B000000080F8FEFEFEFEFE3E06000000010F76
:1008C0003FFFFFFFFFF8E0FCFFFFFFFF3F070000D7
:1008D0000000C0C08080C0C1E7FFFFFFFFFFFF3FF7
:1008E0000700000000000000307070F0F0F0F0F041
:1008F00070703010000000000000000000000005D3
:10090000072060000000000000005F0000000300FE
:100910000300143E143E14242A7F2A12433308662F
:100920006136495522500005030000001C22410099
:100930000041221C0014083E081408083E08080064
:100940005030000000000008080060600000201027
:100950000804023E5149453E0004027F00426151B5
:10096000494622414949361814127F10274545450A
:10097000393E494949320101710907364949493629
:10098000264949493E003636000000563600000828
:1009900014224100141414141400412214080201FA
:1009A0005109063E4159555E7E0909097E7F494934
:1009B00049363E414141227F4141413E7F494949BB
:1009C000417F090909013E4141493A7F0808087FF2
:1009D00000417F4100304040403F7F081422417F6A
:1009E000404040407F020C027F7F0204087F3E416E
:1009F00041413E7F090909061E2121215E7F090927
:100A00000976264949493201017F01013F404040B2
:100A10003F1F2040201F7F2010207F41221C2241A9
:100A200007087008076151494543007F41000002F3
:100A3000040810200000417F00040201020440402D
:100A4000404040000102040020545454787F444444
:100A500044383844444444384444447F385454541B
:100A60001804047E0505085454543C7F0804047897
:100A700000447D40002040443D007F102844000099
:100A8000417F40007C047804787C08040478384472
:100A90004444387C14141408081414147C007C0892
:100AA0000404485454542004043F44443C4040202F
:100AB0007C1C2040201C3C4030403C4428102844F2
:100AC0000C5050503C4464544C44000836414100A2
:100AD000007F0000414136080002010204027F7FCE
:100AE0007F7F7F00000A0F205F00000000000000F1
:100AF00000000000000000000000000000000000F6
:100B000000FEFE00000000000000001919000000B7
:100B10000000001E1E00001E1E000000000000005D
:100B200000000000000030FEFE3030FEFE3000000D
:100B3000031F1F03031F1F03000070F8D8FE9898BF
:100B4000000000000C18187F191F0F00001CB6A22F
:100B5000F6CC60602030000101000E1B111B0E005E
:100B6000000000DC7EE6C6860C808000070F1C18A3
:100B7000191F1E1F13000000001E1E0000000000B1
:100B8000000000000000000000000000E0FC1E0269
:100B9000000000000000073F784000000000000255
:100BA0001EFCE000000000000040783F070000004D
:100BB0000000F0FC0E86C66EFCFC06301B0F1F31D9
:100BC000181C0F030000808080F0F08080800000FF
:100BD0000101010F0F0101010000000000000000F1
:100BE000000000000000407C3C000000000000000D
:100BF00000000000000000000003030303030000E6
:100C00000000000000000000000000000000001CC8
:100C10001C0000000000000000C0F03C0E020000BC
:100C200020381E07010000000000F0FC0EC6C60EB2
:100C3000FCF80000030F1C18181C0F070000000C24
:100C400006FEFE00000000001818181F1F181818D4
:100C500000000C06060686C67C380000181C1E1B09
:100C60001918181800000C06C6C6C6C6FC380000C5
:100C70000C18181818190F0F000080C070180EFEFD
:100C8000FE00000003030303031F1F030000FE7E9A
:100C9000666666E6C68000000C181818181C0F0758
:100CA0000000F0FCCE6666E6CC800000070F1C1842
:100CB000181C0F07000006060606E6FE3E0E0000A2
:100CC00000101C0F03000000000038FCC6C6C6C69A
:100CD000FC3800000F0F181818180F0F000078FCD0
:100CE000CE8686CEFCF80000000C1919191C0F03E3
:100CF0000000000000E0E000000000000000001C18
:100D00001C0000000000000000E0E0000000000007
:100D10000000407C3C00000000008080C04060601B
:100D200020300000010103020606040C0000606090
:100D30006060606060600000060606060606060643
:100D400000003020606040C0808000000C04060677
:100D50000203010100000C0686C6667E1C0000002E
:100D600000001B1B0000000000E0F0389CCCCCDC35
:100D7000F8F000071F38736766667727000000C029
:100D8000FC3E3EFCC0000000181F0F03030F1F189D
:100D90000000FEFEC6C6C6C6FC3C00001F1F181899
:100DA00018181F0F0000F0FC0C060606060C0000C9
:100DB000030F0C181818180C0000FEFE0606060C8F
:100DC000FCF000001F1F1818180C0F030000FEFE97
:100DD000C6C6C6C6C60600001F1F18181818181861
:100DE0000000FEFEC6C6C6C6C60600001F1F0000E5
:100DF000000000000000F0FC0C068686868C0000D7
:100E0000030F0C1819191F0F0000FEFEC0C0C0C050
:100E1000FEFE00001F1F000000001F1F0000000654
:100E200006FEFE06060000000018181F1F18180016
:100E30000000000000060606FEFE00000C18181850
:100E400018180F0F0000FEFEE0F0FC0E0602000076
:100E50001F1F0000030F1E180000FEFE0000000010
:100E6000000000001F1F1818181818180000FEFEB8
:100E70003EF0F03EFEFE00001F1F000101001F1F9C
:100E80000000FEFE1EF0C000FEFE00001F1F00005E
:100E9000031E1F1F0000F0FC0E06060EFCF00000F3
:100EA000030F1C18181C0F030000FEFEC6C6C6C6A2
:100EB0007C7C00001F1F0000000000000000F0FC10
:100EC0000E06060EFCF00000030F1C18183C6F07FE
:100ED0000000FEFEC6C6C6C6FC3C00001F1F000088
:100EE00001031F1E1000387CE6C6C6C68C00000039
:100EF0000C18181818190F0F0000060606FEFE063B
:100F0000060600000000001F1F0000000000FEFE9B
:100F100000000000FEFE0000070F1C18181C0F0741
:100F2000000006FEFC0000FCFE06000000001F1F83
:100F30001F1F0000001EFEE000F0F000E0FE1E009B
:100F40001F1F1E01011E1F1F0000020E3EF8F83E6B
:100F50000E020000101C1F03031F1C1000020E3E97
:100F600078E0E0783E0E02000000001F1F00000045
:100F70000000060686C6F67E1E0E00001C1E1F1B05
:100F80001818181800000000FEFE02020000000001
:100F900000007F7F404000000000020E38E080002B
:100FA0000000000000000000030E382000000002D6
:100FB00002FEFE00000000000040407F7F000000B5
:100FC0000010181C0E060E1C181000000000000077
:100FD00000000000000000000000000000000040D1
:100FE00040404040404040404000000103060400B3
:100FF0000000000000000000000000000000006091
:1010000030B0B0B0F0E000000E1F1B19190D1F1F0B
:101010000000FEFE60303070E0C000001F1F0C18A2
:10102000181C0F070000C0E0703030303060000046
:10103000070F1C181818180C0000C0E07030306042
:10104000FEFE0000070F1C18180C1F1F0000C0E058
:10105000B0B0B0B0E0C00000070F1D191919190D8C
:1010600000003030FCFE36363600000000001F1F46
:10107000000000000000C0E070303060F0F00000C0
:1010800003376E6C6C667F3F0000FEFE60303030D0
:10109000F0E000001F1F000000001F1F00000030D4
:1010A00030F7F700000000001818181F1F18181854
:1010B0000000003030F7F700000000006060607F43
:1010C0003F0000000000FEFE80E0703010000000D5
:1010D0001F1F0103071E181000000606FEFE000079
:1010E0000000000000000F1F181818000000F0F0AA
:1010F00030F0E030F0E000001F1F001F1F001F1F36
:101100000000F0F060303030F0E000001F1F000001
:1011100000001F1F0000C0E070303070E0C0000011
:10112000070F1C18181C0F070000F0F0603030701B
:10113000E0C000007F7F060C0C0E07030000C0E03B
:1011400070303060F0F0000003070E0C0C067F7F5B
:10115000000000F0F060303030300000001F1F0051
:10116000000000000000E0F0B0B0B0B0306000005F
:101170000C191919191B1F0E00003030FCFC3030FF
:101180003000000000000F1F181818000000F0F0D9
:1011900000000000F0F000000F1F1818180C1F1FAF
:1011A000000030F0E00000E0F030000000010F1E11
:1011B0001E0F01000070F00000C0C00000F07000C1
:1011C000071F1E03031E1F0700001030F0C0C0F0F1
:1011D0003010000010181E07071E1810000010F035
:1011E000F08000F0F03000000060637F1F0F01000E
:1011F000000030303030B0F070300000181C1E1B82
:10120000191818180000000000FCFE02020000007F
:101210000001013E7E4040000000000000FEFE0094
:10122000000000000000007F7F00000000000002BE
:1012300002FEFC00000000000040407E3E01010074
:10124000000080C0C0C0808080C00000010000009D
:101250000101010000000000002300260029002CED
:101260000000000008000201000003040700000065
:10127000000000000000000000020102040810202D
:101280004080010204081020010204081020040814
:10129000010200000000250028002B002E0004049D
:1012A000040404040404020202020202030303030E
:1012B0000303050505056121712811241FBECFEF29
:1012C000D8E0DEBFCDBF12E0A0E0B1E0E0E2FDE596
:1012D00002C005900D92AA30B107D9F724E0AAE028
:1012E000B2E001C01D92AC33B207E1F719E0CCE5E2
:1012F000D9E004C02197FE010E947F2CCB35D10795
:10130000C9F70E94A6220C94832E0C9400004F92E1
:101310005F926F927F928F929F92AF92BF92FF9255
:1013200020918303309184038217930708F043C010
:101330002B0166247724852E962EA72EBB24B82D4C
:10134000A42F20918903F42C222391F0E22FF0E0C6
:10135000E49DD001E59DB00DF49DB00D1124FB2E50
:10136000289D40011124B92D249F90011124A32F01
:10137000E0918F0320918A0330918B0350918C036D
:10138000E51323C0FC01EE0FFF1F8E0F9F1F820F7E
:10139000931FE0918C03E80FF92FF11DF082E0918B
:1013A0008D03E80FF92FF11DB08320918E03820F7A
:1013B000911DFC01A083FF90BF90AF909F908F90F4
:1013C0007F906F905F904F900895880F991F880FBE
:1013D000991F820F931FE80FF92FF11D1082D9CFAB
:1013E000E0916B03F0916C030196880F991F880FB1
:1013F000991FE80FF91FDF011497808191812D91CA
:101400003C91821B930B69E070E00E946B2C892B4E
:1014100011F06F5F7F4FCB010895AF92BF92CF92D3
:10142000DF92EF92FF920F931F93CF93DF936C01A4
:101430007B018B01040F151FEB015E01AE18BF0885
:10144000C017D10759F06991D601ED91FC91019037
:10145000F081E02DC6010995892B79F7C501DF914F
:10146000CF911F910F91FF90EF90DF90CF90BF90A1
:10147000AF900895FC01448155816081718187E9B5
:1014800093E00C940D0AFC01538D448D252F30E020
:10149000842F90E0821B930B541710F0CF96089581
:1014A00001970895FC01918D828D981761F0A28DAE
:1014B000AE0FBF2FB11D5D968C91928D9F5F9F7374
:1014C000928F90E008958FEF9FEF0895FC01918D2A
:1014D000828D981731F0828DE80FF11D858D90E097
:1014E00008958FEF9FEF0895FC01918D228D892F34
:1014F00090E0805C9F4F821B91098F73992708951C
:101500008EEC92E00E94740A21E0892B09F420E01D
:10151000822F0895FC01A48DA80FB92FB11DA35AE5
:10152000BF4F2C91848D90E001968F739927848F03
:10153000A689B7892C93A089B1898C918370806426
:101540008C93938D848D981306C00288F389E02DC7
:1015500080818F7D80830895EF92FF920F931F9378
:10156000CF93DF93EC0181E0888F9B8D8C8D981356
:101570001AC0E889F989808185FF15C09FB7F89462
:10158000EE89FF896083E889F989808183708064AE
:1015900080839FBF81E090E0DF91CF911F910F91F9
:1015A000FF90EF900895F62E0B8D10E00F5F1F4F08
:1015B0000F731127E02E8C8D8E110CC00FB607FC17
:1015C000FACFE889F989808185FFF5CFCE010E94A5
:1015D0008A0AF1CFEB8DEC0FFD2FF11DE35AFF4F7F
:1015E000F0829FB7F8940B8FEA89FB898081806233
:1015F000CFCFCF93DF93EC01888D8823B9F0AA89F0
:10160000BB89E889F9898C9185FD03C0808186FDBD
:101610000DC00FB607FCF7CF8C9185FFF2CF80810C
:1016200085FFEDCFCE010E948A0AE9CFDF91CF91ED
:10163000089580E090E0892B29F00E94800A8111B2
:101640000E94000080E090E0892B49F080E090E06B
:10165000892B29F00E94000081110C94000008954C
:1016600081508D3008F03DC0E82FF0E0E65CF44F8B
:101670000C947F2C510B550B470B4D0B710B710BC1
:10168000580B5E0B620B680B710B6C0B720B80912D
:1016900080008F77809380000895809180008F7DF7
:1016A000F9CF84B58F7784BD089584B58F7DFBCF46
:1016B0008091B0008F778093B00008958091B00042
:1016C0008F7DF9CF809190008F778093900008955F
:1016D000809190008F7DF9CF8091A0008F778093CB
:1016E000A00008958091A0008F7DF9CFCF93DF9364
:1016F000E1E7F2E18491EAE8F2E1D491EEEAF2E185
:10170000C491CC23A1F081110E94300BEC2FF0E0AA
:10171000EE0FFF1FEB5AFD4EA591B491EC91ED2316
:1017200081E090E009F480E0DF91CF91089580E0BE
:1017300090E0FACF1F93CF93DF93282F30E0F90189
:10174000EF59FD4E8491F901E658FD4ED491F9010F
:10175000E256FD4EC491CC23A9F0162F81110E94B0
:10176000300BEC2FF0E0EE0FFF1FEE56FD4EA59173
:10177000B4918FB7F894EC91111108C0D095DE2385
:10178000DC938FBFDF91CF911F910895DE2BF8CFAF
:10179000CF93DF9390E0FC01E658FD4E24918256F2
:1017A0009D4EFC0184918823C9F090E0880F991F19
:1017B000FC01ED51FF4FA591B491FC01EE56FD4E99
:1017C000C591D49161110DC09FB7F8948C9120956B
:1017D00082238C938881282328839FBFDF91CF9118
:1017E0000895623051F49FB7F8943C91822F809510
:1017F00083238C93E8812E2BEFCF8FB7F894EC9155
:101800002E2B2C938FBFEACF4F925F926F927F92D5
:101810008F929F92AF92BF92CF92DF92EF92FF9200
:101820000F931F93CF938C014A015B0180911601A6
:10183000893099F08F3F09F453C0CF911F910F91D8
:10184000FF90EF90DF90CF90BF90AF909F908F90E0
:101850007F906F905F904F900895E9E7F2E1C49117
:10186000C7FDEBCF61E089E00E94C80B2801712C15
:10187000612CCC23F1F0980150E040E0C23009F037
:10188000E2C028013A0160E970ED83E090E00E9437
:10189000A32A69017A0181E0C81AD108E108F10898
:1018A00093E08FEFC816D104E104F10409F00CF4C1
:1018B00061C168E478EE81E090E0A30192010E94AA
:1018C000A32A69017A0181E0C81AD108E108F10868
:1018D00094E0C1114FC185B5887F836085BDC8C0C4
:1018E00089E080931601E9E7F2E1C4918C2FCF3FA4
:1018F00009F4A3CFC23009F466C060F4CC2369F1C7
:10190000C13009F442C087FD98CF61E089E00E94B0
:10191000C80BB1CFC33009F478C0C430A1F710921E
:10192000A0001092A1008091A10088608093A10086
:101930008091A10081608093A100E7EAF2E1E49147
:10194000F0E0EE0FFF1FEE56FD4E85919491E3E817
:10195000F2E1E491E093B30285CF14BC15BC84B5E9
:10196000826084BD85B5816085BDE7EAF2E1E491DE
:10197000F0E0EE0FFF1FEE56FD4E85919491E3E8E7
:10198000F2E1E491E093B9026DCF109280001092E1
:101990008100809181008860809381008091810026
:1019A000816080938100E7EAF2E1E491F0E0EE0FDC
:1019B000FF1FEE56FD4E85919491E3E8F2E1E4912C
:1019C000E093B8024FCF1092B0001092B100809116
:1019D000B00082608093B0008091B10081608093FC
:1019E000B100E7EAF2E1E491F0E0EE0FFF1FEE56FE
:1019F000FD4E859194919093B7028093B602E3E8EF
:101A0000F2E1E491E093B5022DCF10929000109294
:101A10009100809191008860809391008091910065
:101A2000816080939100E7EAF2E1E491F0E0EE0F4B
:101A3000FF1FEE56FD4E85919491E3E8F2E1E491AB
:101A4000E093B4020FCF60E072E18AE790E00E9479
:101A5000A32A69017A0181E0C81AD108E108F108D6
:101A6000C13071F580918100887F81608093810011
:101A7000D801AA0FBB1FA50194010E94C22A28EE1B
:101A800033E040E050E00E940C2BC230D1F10CF06A
:101A90005AC0CC2339F1C13009F0CFCED0928900A1
:101AA000C09288002093C6023093C7024093C802B8
:101AB0005093C90280916F00826080936F00BDCE09
:101AC000C33039F480919100887F816080939100C8
:101AD000CFCFC43069F68091A100887F8160809368
:101AE000A100C6CFC7BC2093CA023093CB0240935B
:101AF000CC025093CD0280916E00826080936E0084
:101B00009CCEC092B3002093C2023093C302409394
:101B1000C4025093C502809170008260809370006F
:101B20008CCED0929900C09298002093BE02309340
:101B3000BF024093C0025093C10280917100826045
:101B4000809371007ACEC33061F3C43009F075CE52
:101B5000D092A900C092A8002093BA023093BB0291
:101B60004093BC025093BD028091720082608093CA
:101B7000720063CE8091B100887F892B8093B10081
:101B800077CF8E50806480937C0080917A0080644F
:101B900080937A0080917A0086FDFCCF8091780056
:101BA0009091790008953FB7F89480915E029091EA
:101BB0005F02A0916002B091610226B5A89B05C0AA
:101BC0002F3F19F00196A11DB11D3FBFBA2FA92FBC
:101BD000982F8827BC01CD01620F711D811D911DB9
:101BE00042E0660F771F881F991F4A95D1F7089525
:101BF0000F931F93CF93DF93CDB7DEB729970FB61F
:101C0000F894DEBF0FBECDBF80918A0390918B0305
:101C1000892B09F47CC00E94D30D00919003109190
:101C2000910320919203309193036017710782070B
:101C3000930740F460939003709391038093920311
:101C4000909393030091900310919103209192033C
:101C500030919303601B710B820B930B6C327140BC
:101C600081059105C0F2F8948091850390918603D7
:101C70009A838983E0918A03F0918B03DF011196A7
:101C80008081898790918103E0919403F09195037D
:101C900080919603992309F445C09081982B9887E9
:101CA0009081809589238F838F818C8388E08B83BB
:101CB00058856F8149853B812C8189819A81508328
:101CC00047FD252F3A952083262F39F0441F00C069
:101CD00000006083000000C0F2CF38E04D916083C7
:101CE0000000019761F7F0939503E093940349870F
:101CF0003B832C839A83898378940E94D30D6093CD
:101D00009003709391038093920390939303299689
:101D10000FB6F894DEBF0FBECDBFDF91CF911F91FC
:101D20000F9108959081982B9887908180958923B1
:101D30008F838F818E8388E08D8358856F8149855D
:101D40003D812E8189819A81508347FD252F00C0D6
:101D500000C0208300C000C000C000C000C060837D
:101D60000000262F3A9541F0441F000000C000C03B
:101D700000C000C000C0E8CF38E04D9100C06083D3
:101D800000C0019709F7F0939503E0939403498706
:101D90003D832E83AFCF8F929F92AF92BF92CF920F
:101DA000DF92EF92FF924B015C010E94D30D6B0119
:101DB0007C010E94D30D6C197D098E099F09683E34
:101DC000734081059105A8F321E0821A9108A108CA
:101DD000B10888EEC80E83E0D81EE11CF11C811406
:101DE0009104A104B10429F7FF90EF90DF90CF9008
:101DF000BF90AF909F908F9008952FB7F894609107
:101E00005A0270915B0280915C0290915D022FBF3B
:101E10000895CF93DF93EC018D85882329F08150BD
:101E20008D87DF91CF9108959C818E819817C8F797
:101E300088896827E881F9810084F185E02D42E0F6
:101E4000CE0109958C818F5F8C83EBCFDC011E96D0
:101E5000ED91FC9184913196E491982F8E2F089505
:101E60009093A6038093A50387E993E00E94260F31
:101E7000019719F41092A003089581E08093A003C4
:101E8000089590E080E008954FB7F89420915202B1
:101E90003091530280915002909151024FBF409176
:101EA0004E02042E02C0359527950A94E2F702C02F
:101EB000959587954A95E2F78802C0011124220280
:101EC000800D911D112408950E94440F90936F027C
:101ED00080936E0220919A0230919B0282179307A1
:101EE00020F090939B0280939A0220919A02309165
:101EF0009B02409104015091050136952795369536
:101F00002795240F351F265F3F4F8217930790F0C8
:101F100081E08093540280919A0290919B02909369
:101F20007302809372025093710240937002809109
:101F30005402089510925402FACF80914D028823E2
:101F4000E1F110924C022091780230917902809157
:101F50009802909199022817390740F080917802F1
:101F600090917902909399028093980280919802BF
:101F700090919902809198029091990240919602D5
:101F8000509197022091960230919702E091780249
:101F9000F0917902841B950B6AE070E00E94572C47
:101FA000265F3F4F620F731F81E0E617F70708F4C3
:101FB00080E080937A0210924D0280914C02811150
:101FC00008C081E080934C0280917A0088648093FD
:101FD0007A0080917A020895CF93DF93D0E0C0E039
:101FE00040E050E0BA01CE010E9487092196CA3133
:101FF000D105B1F7DF91CF910C94F80DCF92DF921C
:10200000EF92FF920F931F93CF93DF93C09138020B
:10201000D09139028E01000F111F0C5D1D4FF80188
:1020200040815181052E000C660B770BC0903A025F
:10203000D0903B02E0903C02F0903D02C41AD50AD9
:10204000E60AF70A81E10E94C10DF80191838083BD
:10205000092E000CAA0BBB0BBC01CD016C0D7D1D24
:102060008E1D9F1D60933A0270933B0280933C0249
:1020700090933D022196CA30D105A4F4D093390241
:10208000C09338022AE030E040E050E00E94A32AEA
:10209000C901DF91CF911F910F91FF90EF90DF90D9
:1020A000CF9008951092390210923802EBCF81E060
:1020B0008093AF02809108014EEF5EEF6EEF70E00B
:1020C00090E00E9487090E94F80D0E94FD0E609327
:1020D0001C0470931D0480931E0490931F040895A4
:1020E00080E680937C0081E08093230210927B0045
:1020F0008EEF80937A0080E090E0AAE2B5E48093CE
:10210000920290939302A0939402B09395028AE86E
:102110009DE3A6E9B6E480938E0290938F02A0938C
:102120009002B093910285E394E2A0E0B0E0809346
:102130008A0290938B02A0938C02B0938D0285E06B
:1021400090E090934F0280934E020895109288027F
:10215000109287020E9470100E94FD0E60937D0312
:1021600070937E0380937F03909380030E94FD0E03
:102170006093740270937502809376029093770255
:1021800081E0809303011092860210927D021092EA
:102190007E0210927F02109280028EE190E0909376
:1021A00005018093040110929B0210929A020895F7
:1021B0001F93CF93DF93EC01162F61E0411101C013
:1021C00060E08B890E949A0B80E58CBD81E08DBD1B
:1021D00060E08A890E949A0B1EBD00000DB407FEC4
:1021E000FDCF8EB561E08A89DF91CF911F910C946C
:1021F0009A0BDC01ED91FC910084F185E02D40E02B
:1022000009940F931F93CF938C01FC016483C085C5
:10221000C60F6C2F6F700E94F9106C2F62956F7053
:102220006061C801CF911F910F910C94F910FC01CE
:102230002781269526952695621738F46583238590
:10224000620F6770606B0C94F91008951F93CF9321
:10225000DF93EC01142F8E81681718F4CE010E94D1
:102260000111612FCE01DF91CF911F910C941711B5
:10227000CF92DF92EF92FF920F931F93CF93DF9352
:10228000EC01F62EC42ED22E1D868F818695869562
:102290008695081710F00FEF080F1D2D011780F01D
:1022A000412F6F2DCE010E942611EF2CCE1430F05D
:1022B0006889CE010E94090FE394F8CF1F5FEECF2B
:1022C0004D2D6F2DCE01DF91CF911F910F91FF907A
:1022D000EF90DF90CF900C9426110F93DC011596B0
:1022E0002C9115971E96ED91FC911F9700E0309769
:1022F00079F03396E491F0E0379683E0F595E79531
:102300008A95E1F751960C9151970E9F002D11245B
:10231000EFEFE20F0E0F16964C9116974150149660
:102320006C911497CD010E9438110F9108952F924E
:102330003F924F925F926F927F928F929F92AF9255
:10234000BF92CF92DF92EF92FF920F931F93CF93A2
:10235000DF9300D000D000D0CDB7DEB7FC010685FA
:1023600017850115110509F446C19E838D83F80177
:10237000329664903196A490EA2CF12CF7E0EF0E9F
:10238000F11C23E0F594E7942A95E1F7E982F8013E
:10239000349684913196E491681748F0CE2ED12C72
:1023A0009601280F311D621713060CF469C06D30B9
:1023B00031F5ED81FE81868181111BC081E090E0C5
:1023C00026960FB6F894DEBF0FBECDBFDF91CF913A
:1023D0001F910F91FF90EF90DF90CF90BF90AF9043
:1023E0009F908F907F906F905F904F903F902F9035
:1023F000089560E08D819E810E940111DFCF6A30D7
:1024000009F0F9C0ED81FE818681882321F060E02A
:10241000CF010E940111ED81FE8181898E9DE02C0A
:10242000112465816E0D8485882349F097819695E6
:10243000969596958E2D891B860F18162CF08D81FA
:102440009E810E941711BACFED81FE812385820FF4
:10245000877083879E199583CF010E946D11ED814E
:10246000FE818485813009F0A9CF6385660F660FF0
:10247000660F6F7362876064CF010E94F9109ECF70
:102480000A5F1F4FB62EB81AED81FE8191858189B2
:10249000989F802D11248C83CF010E94260F0297D4
:1024A00008F06AC06E9CC0016F9C900D1124B89E0C
:1024B0006001B99ED00C11240C0D1D1D512CED8115
:1024C000FE81F481FA83ED81FE812580F585FB8311
:1024D000862C912CAA24A394B12C312C89813816F6
:1024E00008F087C0412CED81FE818189481608F0F3
:1024F00079C08B818587311002C0442041F0ED8185
:10250000FE8145814F5F6A81CF010E942611D12C47
:10251000C12CC61408F059C0F801EC0DFD1D7490D3
:10252000552061F0EA14FB0449F4E72DF0E0052C96
:1025300002C0F595E7950A94E2F77E2EED81FE81C3
:102540008189823081F4442009F43BC072948FE089
:102550007822E72DF0E0ED52FF4F7490672D8D81CA
:102560009E810E94090F672D8D819E810E94090F17
:102570008FEFC81AD80ACDCFEA2DE77088E0582E21
:102580005E1AE11101C0512CF801612C90E080E04D
:102590006B1431F02491820F911D63943196F8CF22
:1025A000600E712E711CF3016490E89EF001E99EAB
:1025B000F00DF89EF00D1124CE0EDF1E0C0D1D1D2A
:1025C0007ECFF72DFF707F2EC4CFD12CEC81DE168D
:1025D00039F060E08D819E810E94090FD394F6CF7F
:1025E000439481CF3394080D191DFFEFAF1ABF0A32
:1025F00075CF622D24CF90E080E0E2CE0F93CF9391
:10260000DF93EC011B861A8660E40E94F9100F81AB
:1026100006950695069501504E81415020E060E0F8
:10262000CE010E943811DF91CF910F910895089546
:1026300090E080E00895CF93DF93EC018881998149
:10264000009711F00E94282D198218821D821C8289
:102650001B821A82DF91CF910895FC0180819181C4
:10266000009711F00C94282D0895FB010190002093
:10267000E9F73197AF01461B570BDC01ED91FC9157
:102680000280F381E02D09948F929F92AF92BF92C6
:10269000EF92FF920F931F93CF93DF93CDB7DEB7E7
:1026A000A1970FB6F894DEBF0FBECDBF7C01FA0133
:1026B000CB0119A2223008F42AE08E010F5D1F4FD2
:1026C000822E912CB12CA12CBF01A50194010E9456
:1026D0000C2BF901CA016A300CF5605DD8016E93CC
:1026E0008D01232B242B252B79F790E080E0109788
:1026F00021F0BD01C7010E943513A1960FB6F894D1
:10270000DEBF0FBECDBFDF91CF911F910F91FF9024
:10271000EF90BF90AF909F908F900895695CDECF4F
:10272000CF92DF92EF92FF92CF93DF936C01990FDC
:10273000EE08FF08F7FE1BC06DE287E993E00E94F8
:102740009711EC0144275527BA014C195D096E0910
:102750007F092AE087E993E00E9444138C0F9D1FB4
:10276000DF91CF91FF90EF90DF90CF9008952AE016
:10277000B701A60187E993E0DF91CF91FF90EF9039
:10278000DF90CF900C9444130F931F93CF93DF935C
:10279000EC010E9435138C016DE471E0CE010E94C2
:1027A0003513800F911FDF91CF911F910F910895E5
:1027B00087E993E00E94FE1241E069E187E993E036
:1027C0000E94261160E571E087E993E00E94C4133E
:1027D00045E065E087E993E00E94261168E571E035
:1027E00087E993E00C94C4130C94351380910D0188
:1027F000882361F041E066E187E993E00E942611B9
:1028000069E871E087E993E00C94F41308958091EE
:10281000A10281110FC081E08093A10245E066E42E
:1028200087E993E00E94261164E671E087E993E06E
:102830000C94F413089545E06CE387E993E00E945B
:1028400026116AE671E087E993E00C94F41345E001
:1028500065E087E993E00E94261161E771E087E96E
:1028600093E00C94F4138091A202811120C0809116
:102870009E0281110CC041E06CE287E993E00E9466
:10288000261167E771E087E993E00E94F4138091D5
:102890009E028823A9F041E06CE387E993E00E945F
:1028A000261161E871E087E993E00C94F41341E0AC
:1028B0006BE487E993E00E9426116EE771E0E3CFB5
:1028C0000895CF92DF92EF92FF920F931F93CF93D1
:1028D000DF937B0120916D0330916E038217930784
:1028E000F4F4880F991F880F991F20916B03309182
:1028F0006C03820F931FFC01C280D380FFEFCF16C1
:10290000DF0669F08B01C3E0D0E0C6018C1B9D0B94
:102910000E948D2AF80181938F012197B0F7C7019A
:10292000DF91CF911F910F91FF90EF90DF90CF90AB
:1029300008950C948D2A0F931F93CF93DF93EC018E
:102940008C01060F171FC017D1079CF4CE010E94FF
:1029500099148F3F61F0FC9AFD98FB98D2BDC1BDE0
:102960008FB7F894F999FECFFA9AF99A8FBF21960A
:10297000EACFDF91CF911F910F9108950F931F938D
:10298000CF93DF93EC01162F22E030E0062F009565
:10299000FD9AFC98FB98D2BDC1BD10BD8FB7F894CD
:1029A000F999FECFFA9AF99A8FBFF999FECF2130A3
:1029B000310539F0CE010E94991421E030E08023E6
:1029C00039F7DF91CF911F910F910895CF93DF9346
:1029D000EB010E948D2A8883CE01DF91CF9108956B
:1029E000CF93DF93EB010E948D2A8883CE01DF9184
:1029F000CF9108950E946E2E0F931F93CF93DF9374
:102A0000EC0188819981009759F02A813B81261732
:102A1000370730F081E0DF91CF911F910F9108953A
:102A20008B016F5F7F4F0E94B12D009759F0998302
:102A300088831B830A832C813D81232B59F7FC015A
:102A40001082E8CF80E0E7CFEF92FF920F931F93C1
:102A5000CF93DF93EC01FB01E080F180E114F104FE
:102A600011F10481158101151105A9F08C819D8159
:102A7000080F191FB801CE010E94FC14882399F099
:102A8000288139818C819D81B701820F931F0E941B
:102A90007C2E1D830C83CE01DF91CF911F910F916E
:102AA000FF90EF900895CE010E941B13F4CFEF9298
:102AB000FF920F931F93CF93DF9300D0CDB7DEB774
:102AC0008C018EE289831A82F801E480F580FFEFA1
:102AD000EF1AFF0AB701C8010E94FC148823C9F04D
:102AE000F8012081318184819581BE016F5F7F4F24
:102AF000820F931F0E947C2EF801F582E482C801A8
:102B00000F900F90DF91CF911F910F91FF90EF9059
:102B10000895C8010E941B13F2CFEF92FF920F930A
:102B20001F93CF93DF93EC017B018A01BA010E94CE
:102B3000FC1481110BC0CE010E941B13CE01DF914A
:102B4000CF911F910F91FF90EF9008951D830C83FB
:102B5000B701888199810E947C2EF0CFEF92FF927D
:102B60000F931F93CF93DF93CDB7DEB762970FB666
:102B7000F894DEBF0FBECDBF8C01CB01F8011182EE
:102B8000108213821282158214824AE09E012F5F06
:102B90003F4F7901B9010E943429F70101900020CB
:102BA000E9F73197AF014E195F09B701C8010E94DB
:102BB0008D1562960FB6F894DEBF0FBECDBFDF91C4
:102BC000CF911F910F91FF90EF900895FB01DC01D1
:102BD00011961C921E9213961C921E921297159695
:102BE0001C921E9214978617970749F06081718195
:102BF0006115710521F0448155810C948D1508955E
:102C00000F931F93CF93DF93CDB7DEB768970FB6BF
:102C1000F894DEBF0FBECDBF80910801882309F470
:102C2000B9C090919E02992309F463C009E110E0B4
:102C30009801281B310945E0429FC001439F900D38
:102C400011246AE070E00E946B2CBC01CE01439617
:102C50000E94AE1580910801B801681B710977FFC9
:102C600002C06F5F7F4F75956795CE0107960E94F2
:102C7000AE15BE01695F7F4FCE010D960E94E6152D
:102C8000CE010D960E945715BE016D5E7F4F0E94CA
:102C90002415BC01CE0101960E94E615CE010D96C9
:102CA0000E942D13CE0107960E942D13CE0143964C
:102CB0000E942D1341E06AE087E993E00E9426110B
:102CC00066E871E087E993E00E94F413CE01019673
:102CD0000E943A0ACE0101960E942D1368960FB603
:102CE000F894DEBF0FBECDBFDF91CF911F910F9142
:102CF00008959091A202911125C0803161F441E0C4
:102D000064E187E993E00E94261169E871E087E9B0
:102D100093E00E94F41341E06AE087E993E00E94A7
:102D2000261166E871E087E993E00E94F413909120
:102D3000080129E130E0A901491B5109CA010E949B
:102D40009013CCCF853161F441E069E387E993E0EA
:102D50000E9426116AE871E087E993E00E94F4136B
:102D600041E069E187E993E00E94261166E871E09D
:102D700087E993E00E94F4132091080189E190E033
:102D8000821B910924E1AC01249FC001259F900D75
:102D90001124D5CF8091A20241E0811116C06AE0D2
:102DA00087E993E00E9426116AE871E087E993E0E1
:102DB0000E94F4134091080150E070E060E02AE0C6
:102DC00087E993E00E94441389CF69E187E993E0A2
:102DD0000E94261168E871E087E993E00E94F413ED
:102DE00041E06DE287E993E00E942611E3CF0F9363
:102DF0001F93CF93DF93CDB7DEB768970FB6F894E4
:102E0000DEBF0FBECDBF80910801882309F45EC0EC
:102E100090919E02992309F464C025E0829FC0012D
:102E200011246AE070E00E946B2CBC01CE01439635
:102E30000E94AE156091080170E075956795CE010E
:102E40000D960E94AE1518861F821A8619861C865A
:102E50001B868BE289831A828E010F5F1F4FF80158
:102E600001900020E9F73197AF01401B510BB801E9
:102E7000CE0107960E948D15BE01635F7F4FCE0184
:102E800007960E9424150E945715BE016D5E7F4F64
:102E90000E942415BC01C8010E94E615CE010796C8
:102EA0000E942D13CE010D960E942D13CE01439644
:102EB0000E942D1341E06AE087E993E00E94261109
:102EC000C8010E943A0AC8010E942D1368960FB6E5
:102ED000F894DEBF0FBECDBFDF91CF911F910F9150
:102EE00008958091A20241E0811116C06AE087E94D
:102EF00093E00E9426116CE871E087E993E00E945C
:102F0000F4134091080150E070E060E02AE087E9A6
:102F100093E00E944413DACF69E187E993E00E94CD
:102F200026116CE871E087E993E00E94F413809128
:102F3000080124E1829FC00111240E949013C6CF92
:102F40000C94952AFF920F931F93CF93DF93EC017C
:102F5000F62E08811981C8010E948D2AF81621F0E9
:102F60006F2DC8010E94952ACE01DF91CF911F914C
:102F70000F91FF9008952F923F924F925F926F9220
:102F80007F928F929F92AF92BF92CF92DF92EF92F9
:102F9000FF920F931F93CF93DF9300D000D0CDB754
:102FA000DEB71C013B010E94F0097C0180916D039A
:102FB00090916E03281639060CF0BCC080906B030C
:102FC00090906C032FEF221A320A220C331C220C31
:102FD000331CF401E20DF31D4080518034E0231ACC
:102FE0003108820C931CF401A080B180C2018A19BF
:102FF0009B098E199F0904970CF49CC002811381D0
:103000000F3F100729F487010A0D1B1D01501109FC
:10301000680123E0C21AD1087C826B820C151D0561
:103020000CF488C0C6010E949914EB81FC81919137
:10303000FC83EB83FFEFCF1ADF0A891779F3C8010E
:1030400005960F5F1F4F481659064CF4B701C5018E
:103050000E949B14F401008111810E0D1F1D17FDAC
:1030600069C05301F4E0AF0EB11C6801C618D7085F
:10307000C601860D971D9A838983F30161913F01F3
:10308000CE0101960E94A2176A147B0489F78091F1
:103090006B0390916C03280E391EC8010396F10151
:1030A0009383828380819181E80EF91E0E191F0996
:1030B000780117FF03C0F7E0EF0EF11C83E0F594F1
:1030C000E7948A95E1F78E2D880F880F880F081BEB
:1030D00094E0892E912C6FEF27E0C22ED12CAA24E8
:1030E000A394B12CC601801B9109950102C0220F47
:1030F000331F8A95E2F7C901809568230F5F083076
:1031000060F0F101808191818E0D9F1D0E94BE149F
:10311000FFEFEF1AFF0A6FEF00E021E0821A91083B
:1031200009F76F3F39F0F101808191818E0D9F1D6C
:103130000E94BE140F900F900F900F90DF91CF91CF
:103140001F910F91FF90EF90DF90CF90BF90AF90C5
:103150009F908F907F906F905F904F903F902F90B7
:1031600008950F931F93CF93DF9300D0CDB7DEB7B1
:103170008B019A838983FB016081CE0101960E94B5
:10318000A217C8010F900F90DF91CF911F910F915F
:1031900008952F923F924F925F926F927F928F92FB
:1031A0009F92AF92BF92CF92DF92EF92FF920F93D6
:1031B0001F93CF93DF9300D000D01F92CDB7DEB71F
:1031C00010921401109213011092120161E082E03A
:1031D0000E94C80B61E085E00E94C80B61E082E0BC
:1031E0000E949A0B80910E0181508A3018F084E081
:1031F00080930E01809187039091880397FD08C00A
:1032000061E00E94C80B60E0809187030E949A0BE6
:1032100081E08093820362E370E080E090E00E94AE
:10322000CB0E61E085E00E949A0B61E089E00E948C
:10323000C80B62E080E10E94C80B0E94EC0F82E0A4
:1032400090E090936E0380936D038CE090E00E9479
:103250008C2CFC0190936C0380936B0381E090E0D5
:103260009183808382EE91E09583848383EC93E065
:103270009187808790E080E00E9499148D831A8264
:10328000198263E0CE0101960E94A217F12CE12C75
:10329000D12CC12C00916B0310916C030E0D1F1DDE
:1032A00080916D0390916E03C816D9060CF087C00B
:1032B000C6010E94F0091C012D81233031F0BC01B0
:1032C000F801808191810E949B1480916B03909101
:1032D0006C039C012E0D3F1D3C832B83F901A080C4
:1032E000B1802A0C3B1C2101F1E04F1A5108320138
:1032F00045018FEF0FEF1FEF68147904DCF08301B5
:103300000819190915950795080D191DC8010E947E
:1033100099149FEF980F9E3FC8F0811105C0480196
:103320002FEF821A920AE8CF380131E0631A710850
:103330008FEFE2CF811117C0041515053CF40F5F24
:103340001F4FC8010E9499148823B1F3C8010E943D
:10335000991427E030E091E0482F4923A1F0990F1C
:1033600021503109F9CF0A151B053CF00150110914
:10337000C8010E9499148F3FB1F30415150534F765
:103380000F5F1F4FE3CF0A191B0993E0000F111FB6
:103390009A95E1F7020F131F0F3F100769F0020D16
:1033A000131DEB81FC8113830283FFEFCF1ADF0A29
:1033B00024E0E20EF11C6ECF0FEF1FEFF2CF8FEF84
:1033C0009FEFF8019383828360EA72E08CEF93E0D1
:1033D0000E94F0148DEF93E00E948D2A8093A30247
:1033E0008EEF93E00E948D2A8093A4021982BE0181
:1033F0006F5F7F4F8BEF93E00E94B11868E572E03A
:103400008BEF93E00E94F01465EA72E090E080E0B8
:103410000E9461148091A5029091A602A091A7023A
:10342000B091A8020196A11DB11D8093A5029093B1
:10343000A602A093A702B093A80280916D03909179
:103440006E031816190634F465EA72E090E080E025
:103450000E94BB1769EA72E081E090E00E9461146B
:103460008FEF93E00E9499148E3141F088518230A1
:1034700028F069E18FEF93E00E94A0178CEF93E0B2
:103480000E949914823028F060E08CEF93E00E9453
:10349000A0170E94760B892B89F48FEF93E00E948E
:1034A00099146EE1893131F068E18E3119F088317B
:1034B00029F469E18FEF93E00E94A0176CE972E0B4
:1034C0008FEF93E00E94E61460EB72E089EF93E0E7
:1034D0000E94E6148091B002853010F01092B00284
:1034E00064E170E080E090E00E94CB0EF89480915F
:1034F0006800886080936800809173008860809382
:103500007300789461E08AE00E94C80B60E08AE072
:103510000E949A0B6AE070E080E090E00E94CB0E7F
:1035200061E08AE00E949A0B6AE070E080E090E03F
:103530000E94CB0E87E18093A90386E18093AA03C2
:1035400061E087E10E94C80B61E08091AA030E94BC
:10355000C80B1FB7F89480915502811127C0E8EA83
:10356000F2E18491E4E8F2E19491E82FF0E0EE0FCB
:10357000FF1FED51FF4FA591B491EC91E92321F488
:1035800061E08AE00E949A0B61E08AE00E94C80B29
:103590008CB580618CBD8CB580648CBD61E08DE0A4
:1035A0000E94C80B61E08BE00E94C80B809155021D
:1035B0008F5F809355021FBF10929B0310929C0354
:1035C000EDECF0E0C590D490EFECF0E0F490E0ED9D
:1035D000F0E0E491E0939D03E1EDF0E0E491E0930D
:1035E0009E03E2EDF0E0E491E0939F0310E000E041
:1035F0000F1558F4F801EC0DFD1D649187E993E077
:103600000E94F9100F5F1F4FF3CF87E993E00E94EC
:10361000FE126BED87E993E00E94F91060E787E9FD
:1036200093E00E94F91061E887E993E00E94F910A5
:103630006FEF87E993E00E94F91062E370E080E0A9
:1036400090E00E94CB0E83EE9AE00E94300F81E062
:10365000809315018093020110926D0210926C020A
:1036600010926B021092670210926A020E94FD0E85
:10367000609318047093190480931A0490931B04A8
:10368000109269021092680280917A008F7D809377
:103690007A0087E880937A0061E087E00E94C80B97
:1036A00061E087E00E949A0BF894109290008AE003
:1036B0008093910082E08093710080919C02883118
:1036C00051F481EC92EA9093990080939800909342
:1036D00057028093560280919C02893151F48FE306
:1036E0009CE990939900809398009093570280935F
:1036F000560280919C028E3151F484E392E89093BB
:103700009900809398009093570280935602789482
:1037100082E090E090930A01809309011092810069
:1037200081E080930F010F900F900F900F900F90FA
:10373000DF91CF911F910F91FF90EF90DF90CF908D
:10374000BF90AF909F908F907F906F905F904F90C1
:103750003F902F9008950F931F93CF9380914B022A
:10376000882391F010924B0210924A021092490263
:103770001092A1020E94D30D6093450270934602FD
:1037800080934702909348028091080181115CC0A8
:1037900080914A0281112AC08091A002811109C042
:1037A0008091A202811105C067EA87E993E00E9437
:1037B000F91080914902811114C081E0809349027F
:1037C00080919E02882309F48BC141E06AE287E977
:1037D00093E00E9426116DE971E087E993E00E9471
:1037E000F4130E94001681E080934A020E94D30DD8
:1037F0000091450210914602209147023091480203
:10380000AB01BC01401B510B620B730B80910B0190
:1038100090910C01092E000CAA0BBB0B48175907FD
:103820006A077B0788F00E94D30D6093450270936E
:10383000460280934702909348020E94F61366EA7C
:1038400087E993E00E94F91080910801813061F4CA
:1038500090914A02911108C080934A020E94071475
:103860000E9433140E94F7168091080181508C3019
:1038700090F580914A02811105C081E080934A024F
:103880000E94F7160E94D30D009145021091460246
:103890002091470230914802AB01BC01401B510B03
:1038A000620B730B80910B0190910C01092E000C9F
:1038B000AA0BBB0B481759076A077B0760F00E94E9
:1038C000D30D609345027093460280934702909314
:1038D00048020E94F613809108018C3009F057C00D
:1038E00080919D02882309F452C080914402811185
:1038F0004EC043E06EE187E993E00E94261187E91C
:1039000093E00E946D1164E971E087E993E00E9401
:10391000F41380913E02811117C00E94DC2823E13C
:1039200030E040E050E00E94A32A6F5F7F4F8F4F4E
:103930009F4F6093400270934102809342029093A4
:10394000430281E080933E028091090190910A0137
:10395000909307018093060180914002909141026B
:10396000880F991F90930A018093090181E0809349
:10397000440290910801292F30E09C5040E050E033
:10398000BA019D3008F0B5C0C9010E948709809135
:1039900008018D3009F061C080919D02882381F07B
:1039A00082E090E090930A018093090143E060E097
:1039B00087E993E00E94261187E993E00E946D1148
:1039C00080914A02811111C081E080934A021092D5
:1039D000A10245E066E487E993E00E94261187E9A9
:1039E00093E00E946D110E941B140E94FE0F2AE9B1
:1039F00030E0DC010E94852C653D7E4F8F4F9F4F4C
:103A00000CF47DC00E94FE0F2AE930E0DC010E9428
:103A1000852C643A754B810591050CF073C00E94AA
:103A2000FE0F2AE930E0DC010E94852C2CE231E017
:103A300040E050E00E94A32A2C593F4F4F4F5F4F68
:103A400030930101209300010E94FE0F8B389240B9
:103A50000CF45BC081E080933F02809108018E30BE
:103A600011F4109244028D508C30B0F580914A02CE
:103A7000811107C0C1E0C0934A020E940016C093A2
:103A80004A020E94D30D00914502109146022091F6
:103A9000470230914802AB01BC01401B510B620B45
:103AA000730B80910B0190910C01092E000CAA0B55
:103AB000BB0B481759076A077B0760F00E94D30DBC
:103AC00060934502709346028093470290934802A8
:103AD0000E94F61310923E02CF911F910F9108950C
:103AE00045E066E487E993E00E9426116EE871E004
:103AF00074CEC9010E9487090E94F80D48CF24E6C0
:103B000030E09ECF2EEF30E09BCF10923F02A5CF4A
:103B10001F920F920FB60F9211242F933F934F9342
:103B20005F936F937F938F939F93AF93BF93EF9325
:103B3000FF938091C2029091C302A091C402B09100
:103B4000C502892B8A2B8B2BD1F19091B502E09184
:103B5000B602F091B7028081892780838091C202EA
:103B60009091C302A091C402B091C5021816190623
:103B70001A061B069CF48091C2029091C302A09188
:103B8000C402B091C5020197A109B1098093C20294
:103B90009093C302A093C402B093C502FF91EF912A
:103BA000BF91AF919F918F917F916F915F914F9155
:103BB0003F912F910F900FBE0F901F9018958091FD
:103BC0001601E9E7F2E1E4919FEF90931601E230EC
:103BD000E1F040F4EE2381F0E13089F060E00E94F2
:103BE0009A0BDCCFE33011F1E430C1F79091720011
:103BF0009D7F90937200F2CF10926E00EFCF909164
:103C00006F009D7F90936F00E9CF909170009D7F32
:103C10009093700091E09093B0009091B100987FE4
:103C200094609093B1001092B300D8CF909171003E
:103C30009D7F90937100D2CF1F920F920FB60F927B
:103C400011242F933F934F935F936F937F938F93A1
:103C50009F93AF93BF93EF93FF938EEC92E00E94FC
:103C60008A0AFF91EF91BF91AF919F918F917F91C0
:103C70006F915F914F913F912F910F900FBE0F90D9
:103C80001F9018951F920F920FB60F9211242F9329
:103C90008F939F93EF93FF93E091DE02F091DF0209
:103CA0008081E091E402F091E50282FD1BC09081E9
:103CB0008091E7028F5F8F732091E802821741F0B5
:103CC000E091E702F0E0E253FD4F958F8093E70229
:103CD000FF91EF919F918F912F910F900FBE0F90B9
:103CE0001F9018958081F4CF1F920F920FB60F92FC
:103CF00011242F933F938F939F93AF93BF93809102
:103D00005A0290915B02A0915C02B0915D023091E9
:103D1000590223E0230F2D3758F50196A11DB11D3F
:103D20002093590280935A0290935B02A0935C0205
:103D3000B0935D0280915E0290915F02A09160025B
:103D4000B09161020196A11DB11D80935E02909316
:103D50005F02A0936002B0936102BF91AF919F9107
:103D60008F913F912F910F900FBE0F901F9018953C
:103D700026E8230F0296A11DB11DD2CF1F920F92EC
:103D80000FB60F9211242F933F934F935F936F932E
:103D90008F939F93AF93BF93EF93FF938091030112
:103DA000882309F46DC080912302882309F495C00B
:103DB000809179008455990B90932202809321027F
:103DC000209121023091220240910E01429FC001B8
:103DD000439F900D112490932202809321028091A1
:103DE0008A0290918B02A0918C02B0918D02409139
:103DF0001F0250912002480F591F509320024093F8
:103E00001F02209121023091220257FF02C020950B
:103E10003095809121029091220240E4450F47FFA6
:103E200002C080959095409152025091530260914A
:103E30004E02E0915202F0915302062E02C05595B7
:103E400047950A94E2F7241B350B2E0F3F1F309342
:103E5000530220935202209150023091510240911E
:103E600050025091510202C0359527956A95E2F7AC
:103E7000821B930B840F951F9093510280935002E5
:103E8000809186028823C9F0909178008091790012
:103E9000892798278927909379028093780281E077
:103EA00080934D0280917802909179028E3F9340E9
:103EB00024F01092790210927802FF91EF91BF9155
:103EC000AF919F918F916F915F914F913F912F9102
:103ED0000F900FBE0F901F90189580917900805819
:103EE000990B79CF1F920F920FB60F9211248F93D7
:103EF0009F9380910F0491E0892780930F049F91F5
:103F00008F910F900FBE0F901F9018951F920F92D8
:103F10000FB60F921124CF92DF92EF92FF920F9380
:103F20001F932F933F934F935F936F937F938F9341
:103F30009F93AF93BF93EF93FF9380917B029091F8
:103F40007C02019690937C0280937B0280911D02FB
:103F500090911E02019690931E0280931D02209163
:103F60007B0230917C028091090190910A0128170F
:103F7000390708F448C18091080110927C02109220
:103F80007B0291E090934B028F5F893108F064C10E
:103F90008093080180910801811152C085B191E0A0
:103FA000892785B910921C0210921B028091120180
:103FB0008823E1F00E94FD0E6093820270938302D9
:103FC000809384029093850248E050E060E070E0C6
:103FD00080EA9AE00E94040C0E94D30D60931702BD
:103FE000709318028093190290931A028091130122
:103FF000882331F18091A002882309F430C1809197
:10400000A20281112CC181E08093AF0210E000E098
:1040100044E654E664E670E0C8010E9487090F5F39
:104020001F4F0A311105A1F70E94F80D0E94FD0EE5
:1040300060931C0470931D0480931E0490931F04CE
:10404000809108018C3011F580919D02811126C16B
:104050008091090190910A019093070180930601D4
:1040600080919C028E3151F48091A2028111FAC09C
:104070008CE090E090930A018093090180919C026A
:10408000883109F00BC18DE080930801809108010F
:104090008D3009F061C02091060130910701309305
:1040A0000A012093090190919C029931D9F49091D1
:1040B00066022091A3023091A402409156025091D1
:1040C0005702992309F4D1C037FF02C021583F4F4E
:1040D000220F232F221F330B240F351F30939900FB
:1040E0002093980090919C029E31C9F42091A302E4
:1040F0003091A402409156025091570237FF02C0FE
:10410000295F3F4FA3E035952795AA95E1F74C5ECF
:104110005F4F240F351F30939900209398009091A2
:104120009C029831C9F42091A3023091A4024091DD
:1041300056025091570237FF02C0295F3F4FF3E00C
:1041400035952795FA95E1F7405E5F4F240F351FAF
:10415000309399002093980090911401992309F4C9
:1041600052C09FEF980F9C30A0F491E09093AF0263
:1041700090913F02992309F482C00E9457100E9437
:10418000FD0E60931C0470931D0480931E04909395
:104190001F04809108018C3039F490919C029E316B
:1041A00019F491E09093160293EF980F9D3058F513
:1041B00040910001C42ED12CF12CE12CB6015527E1
:1041C000442790E020913F02222361F03E2D2D2DC7
:1041D0001C2D0027402B512B622B732B4C295D2962
:1041E0006E297F290E9487090E94F80D81E0809343
:1041F000AF020E94FD0E60931C0470931D04809317
:104200001E0490931F04809108018D3071F48091F9
:104210007B0290917C02019741F48091560290912B
:1042200057029093990080939800FF91EF91BF916E
:10423000AF919F918F917F916F915F914F913F913E
:104240002F911F910F91FF90EF90DF90CF900F90E3
:104250000FBE0F901F901895109208019BCE0E94E0
:104260005710EECE86E090E005CF37FF02C0295F01
:104270003F4FB3E035952795BA95E1F72DCF4091A3
:10428000000150E070E060E0762F652F542F442746
:1042900090E00E9487090E94F80D71CF8CE05CCFFE
:1042A000FC01118210821382128215821482FB019A
:1042B00001900020E9F73197AF01461B570B0C9492
:1042C0008D151092D1021092D00288EE93E0A0E0FA
:1042D000B0E08093D2029093D302A093D402B09323
:1042E000D50281E391E09093CF028093CE0285ECDA
:1042F00090E09093DB028093DA0284EC90E090935C
:10430000DD028093DC0280EC90E09093DF028093EA
:10431000DE0281EC90E09093E1028093E00282EC77
:1043200090E09093E3028093E20286EC90E0909319
:10433000E5028093E4021092E7021092E8021092E4
:10434000E9021092EA0210926E0310926D03AFE63A
:10435000B3E0EEE0F0E091E29093570084918D930A
:104360003196E831F105C1F76AE971E082E394E042
:104370000E9450216FE471E08CE294E00E94502191
:104380006FE471E086E294E00E9450216FE471E0F6
:1043900080E294E00E9450210E94FD0E60931C0474
:1043A00070931D0480931E0490931F040E94FD0EC1
:1043B000609318047093190480931A0490931B045B
:1043C0000E94FD0E609314047093150480931604EC
:1043D000909317040E94FD0E0E94FD0E609310043E
:1043E00070931104809312049093130480910F042E
:1043F00080930E040E94FD0E8AE08093AC0310921D
:10440000AD031092AE031092AB03EBEFF3E080E04C
:1044100081938F5F8A30E1F70E94FD0E0E94FD0EAE
:1044200010929A03109299031092A3031092A4037E
:104430001092A6031092A5031092A70381E0809327
:10444000A80323E431E0309398032093970310925C
:10445000820310928903109290031092910310929C
:1044600092031092930380938F0380938C03109296
:104470008D0392E090938E03809381038BE490E010
:1044800090938603809385030E948C2C90938B03DA
:1044900080938A03009709F450C02BE4FC01119229
:1044A0002A95E9F789E190E0909384038093830350
:1044B0008FE090E09093880380938703809182033C
:1044C000882341F061E08FE00E94C80B60E08FE03C
:1044D0000E949A0BEDEAF2E1E491F0E0EE0FFF1F8B
:1044E000EE56FD4E8591949190939503809394039D
:1044F000E9E8F2E1E491E09396030E94FD0E6093F7
:104500007D0370937E0380937F03909380030E94CA
:10451000FD0E6093790370937A0380937B039093ED
:104520007C030E94FD0E0E94FD0E0E94FD0E0E9463
:10453000FD0E0E94FD0E0C94FD0E1092860310924B
:1045400085031092840310928303B2CFCF93DF933D
:1045500000D0CDB7DEB7789484B5826084BD84B5D1
:10456000816084BD85B5826085BD85B5816085BD6E
:1045700080916E00816080936E0010928100809126
:1045800081008260809381008091810081608093AE
:104590008100809180008160809380008091B100D3
:1045A00084608093B1008091B00081608093B000FE
:1045B0008091910082608093910080919100816050
:1045C0008093910080919000816080939000809111
:1045D000A10082608093A1008091A10081608093FE
:1045E000A1008091A00081608093A00080917A005A
:1045F000846080937A0080917A00826080937A0050
:1046000080917A00816080937A0080917A0080683E
:1046100080937A001092C100209A17BE0E94C91898
:1046200011E000E1F9E72F2EF3E03F2E90910F0407
:1046300080910E04981741F080910F0480930E042E
:104640000E94FD0E1093620280916202882351F055
:104650000E94FD0E0E94FD0E10926202639B93C2A7
:104660001093B1028091B202882309F47EC01092A7
:10467000B20264E170E080E090E00E94CB0E809195
:104680009F02811148C01092140110921301809171
:1046900068008860809368008091730088608093D0
:1046A000730060E085E00E949A0B64E170E080E0B6
:1046B00090E00E94CB0E60E082E00E949A0B64E1E1
:1046C00070E080E090E00E94CB0E83B7817F846031
:1046D00083BFF89410927A00809164002FEF2093AA
:1046E0006400809165008D638093650083B781606D
:1046F00083BF80E685BF90E495BF7894889583B7A3
:104700008E7F83BF80916400109264008091650069
:10471000827C8093650080919F02882331F1809193
:104720006302811122C010921401109213011092A1
:104730001201E4E0E0936900E99A60E085E00E94FC
:104740009A0B64E170E080E090E00E94CB0E60E0A4
:1047500082E00E949A0B10936302109366021093FA
:104760006402109265020E94FD0E8091B1028823BE
:10477000D1F01092B102109266021093650210926D
:104780006402809168008860809368008091730063
:10479000886080937300109214011092130110929C
:1047A00063020E94C91880911501882309F47DC213
:1047B00080910201882309F477C080916D028111F4
:1047C00050C00E94FD0E60931004709311048093FA
:1047D00012049093130487E993E00E94FE128FEE77
:1047E00090E00E94300F40E060E087E993E00E9493
:1047F00026116FE971E087E993E00E94F41383EEDC
:104800009AE00E94300F45E060E087E993E00E9463
:10481000261140919C0250E070E060E02AE087E9B8
:1048200093E00E94441345E067E187E993E00E942A
:10483000261167EA71E087E993E00E94F41345E0EE
:1048400066E487E993E00E9426116BEA71E087E94C
:1048500093E00E94F41382E394E00E943A0A1093DA
:104860006D020E94FD0EC0901004D0901104E090E3
:104870001204F09013046C197D098E099F096C3D98
:1048800075408105910580F00E94FD0E6093100433
:1048900070931104809312049093130410926D028C
:1048A0001092020110936C0280916C02882309F42B
:1048B00094C080916D02811167C00E94FD0E6093CB
:1048C000100470931104809312049093130487E9E9
:1048D00093E00E94FE1283EE9AE00E94300F109344
:1048E000A0030E94410F7C0160919D0370E0681B52
:1048F000790B7695679540E087E993E00E94261151
:104900006FE471E087E993E00E94C41360919D0316
:1049100070E06E197F097695679542E087E993E02C
:104920000E9426116FE471E087E993E00E94C413AE
:1049300060919D0370E06E197F097695679544E05C
:1049400087E993E00E9426116FE471E087E993E024
:104950000E94C41360919D0370E06E197F097695E3
:10496000679546E087E993E00E9426116FE471E0C5
:1049700087E993E00E94C4131093A00383EE9AE0AA
:104980000E94300F10936D020E94FD0EC090100423
:10499000D0901104E0901204F09013046C197D097A
:1049A0008E099F096433784081059105B0F00E941B
:1049B000FD0E609310047093110480931204909381
:1049C000130410926D021092020110926C02109367
:1049D0006B0287E993E00E94FE1280916B028823AC
:1049E00009F460C180916D0281110CC010936D02B9
:1049F0000E94FD0E609310047093110480931204C2
:104A0000909313042AE0D22EF12CE12C85E10E9430
:104A1000C10DE80EF91EDA94D110F8CFB701FF0CE2
:104A2000880B990B0E94702920E030E040E251E4AD
:104A30000E94AA2B20E030E040EA50E40E94CF29F7
:104A400020E030E040E85AE30E94CF299B01AC010E
:104A50000E943E2B20E030E048EC52E40E94CF2937
:104A60000E941C2C6B017C01E8E5CE1AE2E0DE0A14
:104A7000E108F108AAE1B0E0A70196010E94C22A6C
:104A80002CE231E040E050E00E94A32ACA01B901C3
:104A90000E9470292B013C0180916A02811144C05F
:104AA00010936A0241E069E187E993E00E942611D0
:104AB0008FEE90E00E94300FA4E6B0E0A7019601CF
:104AC0000E94C22A2CE231E040E050E00E94A32A7A
:104AD000C9012536310514F084E690E097FF02C045
:104AE00090E080E00E9490136DEA71E087E993E026
:104AF0000E94F41320E030E0A901C301B2010E943A
:104B0000522C45E018160CF041C069E187E993E0AA
:104B10000E94261183EE9AE00E94300F6FEA71E046
:104B200087E993E00E94F41320E030E0A901C3017B
:104B3000B2010E94692918160CF442C00E94FD0EB1
:104B40008091670281113CC00E94FD0E10936702A4
:104B500065EC71E08EEC92E00E94C41310920801A3
:104B6000F0900801F9E1FF1528F140E050E06AE01B
:104B700070E08F2D90E00E9487090E94F80DF39459
:104B8000F0920801EDCF1093B2026CCD60E087E99E
:104B900093E00E94261183EE9AE00E94300F10925B
:104BA000A00367EB71E087E993E00E94F413109390
:104BB000A003BACF68EE73E080E090E00E94CB0ED5
:104BC0000E94FD0EC0901804D0901904E0901A04C1
:104BD000F0901B046C197D098E099F096F307105D7
:104BE00081059105A0F10E94FD0E60931804709359
:104BF000190480931A0490931B04E0906802F090CB
:104C00006902B7010F2C000C880B990B0E947029C8
:104C10009B01AC01C301B2010E94522C44E150E05F
:104C200060E070E018161CF040E050E0BA01C701E7
:104C30000E9487090E94F80D2AE1E216F1043CF473
:104C40008FEFE81AF80AF0926902E09268020E9477
:104C5000FD0EC0901004D0901104E0901204F0906A
:104C600013046C197D098E099F09603D7740810509
:104C70009105C0F00E94FD0E609310047093110422
:104C8000809312049093130410926D02109202010B
:104C900010926C0210926B021092150187E993E05A
:104CA0000E94FE120E94190BC1CC0E94760B9093B9
:104CB000AE028093AD02009709F0E3C1809110012C
:104CC00090911101019791F40E94FD0E6B307105D6
:104CD0008105910558F00E94FD0E4B015C01809109
:104CE000AD029091AE02892B09F040C10E94FD0EE9
:104CF000681979098A099B09653F71408105910509
:104D000008F434C1809114018111109214011092A1
:104D100013011092120187E993E00E94FE120E9493
:104D2000EC0F83EE9AE00E94300F1092A00340E057
:104D300060E087E993E00E94261161E271E087E973
:104D400093E00E94C4136CEC71E087E993E00E9449
:104D5000F4138CE294E00E943A0A6DE471E087E972
:104D600093E00E94351386E294E00E943A0A6DE4D3
:104D700071E087E993E00E94351380E294E00E949D
:104D80003A0A60ED77E080E090E00E94CB0E83EE7F
:104D90009AE00E94300F87E993E00E94FE1240E003
:104DA00060E087E993E00E9426116FEC71E087E9EB
:104DB00093E00E94F4134091A9025091AA026091DD
:104DC000AB027091AC022AE087E993E00E944413A1
:104DD00064ED71E087E993E00E94C41368ED71E02F
:104DE00087E993E00E94F4134091A5025091A60236
:104DF0006091A7027091A8022AE087E993E00E94DF
:104E000044136DE471E087E993E00E9435136EED81
:104E100071E087E993E00E94F4138091A3029091DE
:104E2000A4020E94901365EE71E087E993E00E946E
:104E3000F41340910E0150E070E060E02AE087E951
:104E400093E00E94441360ED77E080E090E00E94E0
:104E5000CB0E8091B00281508093B00287E993E03D
:104E60000E94FE121093A0031092A2021092A102BF
:104E70000E9427148091AD029091AE02892B09F017
:104E800075C00E94FD0E681979098A099B0961376E
:104E900077418105910508F469C08091A0028111D4
:104EA0001EC11983BE016F5F7F4F8CEF93E00E949C
:104EB000B11842E350E060E070E084EF91E00E94BE
:104EC000040C1092140187E993E00E94FE120E94E4
:104ED000EC0F41E06AE087E993E00E94261168EE5A
:104EE00071E087E993E00E94F41343E06AE087E908
:104EF00093E00E94261163EF71E087E993E00E943E
:104F0000F4138DEF98E00E94300F46E060E087E9EF
:104F100093E00E9426119FE6E92E93E0F92EF70117
:104F200081917F01803130F46DE971E087E993E090
:104F30000E94F413F7013197408150E070E060E087
:104F400020E187E993E00E944413F9E7EF16F3E0CC
:104F5000FF0629F783EE9AE00E94300F60ED77E0BC
:104F600080E090E00E94CB0E0C9400008091AD0296
:104F70009091AE0290931101809310012CE0209348
:104F8000B00210921401109213011092120180913C
:104F90000F01882309F486CE10920F01E091DE0202
:104FA000F091DF0282E08083E091DA02F091DB028F
:104FB0001082E091DC02F091DD0200831092E602A3
:104FC000E091E202F091E30286E08083E091E0026A
:104FD000F091E102808180618083E091E002F091B4
:104FE000E102808188608083E091E002F091E1023B
:104FF000808180688083E091E002F091E10280810D
:105000008F7D808387E993E00E94FE1267EA87E93B
:1050100093E00E94F9108091A3029091A4020E9453
:1050200090136BEF71E087E993E00E94C4136FEF78
:1050300071E08EEC92E00E94F4138FE6E82E83E09C
:10504000F82EF70181917F01803130F46DE971E034
:105050008EEC92E00E94F413F7013197408150E00A
:1050600070E060E020E18EEC92E00E9444132E1488
:105070003F0439F76DE471E08EEC92E00E94351345
:1050800011CE019709F072CF80911001909111011A
:10509000892B09F06BCF0E94FD0E681979098A09E6
:1050A0009B096B3071058105910508F45FCF109362
:1050B0000F018091B0028F5F8093B002853010F0B5
:1050C0001092B0020E94FD0E89EF93E09A838983CB
:1050D0006091B002CE0101960E94A21700CE198203
:1050E000E1CE80918A0390918B030E94282D8091BC
:1050F00087039091880397FD03C060E00E94C80B6E
:1051000080E294E00E942D1386E294E00E942D1329
:105110008CE294E00E942D1382E394E00C942D1312
:105120008F929F92AF92BF92CF92DF92EF92FF92B7
:10513000CF93DF93EC01688179818A819B8161152E
:1051400071058105910521F464E279ED8BE597E025
:105150002DE133EF41E050E00E94A32A49015A01BA
:105160009B01AC01A7EAB1E40E94C22A6B017C0159
:10517000ACEEB4EFA50194010E94D02AC60ED71E52
:10518000E81EF91EF7FE06C081E0C81AD108E10842
:1051900080E8F80AC882D982EA82FB82C701B60198
:1051A0009F77DF91CF91FF90EF90DF90CF90BF90EE
:1051B000AF909F908F9008958F929F92AF92BF92E1
:1051C000CF92DF92EF92FF926091170170911801D8
:1051D0008091190190911A01611571058105910560
:1051E00021F464E279ED8BE597E02DE133EF41E0C6
:1051F00050E00E94A32A49015A019B01AC01A7EA91
:10520000B1E40E94C22A6B017C01ACEEB4EFA501AF
:1052100094010E94D02AC60ED71EE81EF91EF7FE82
:1052200006C081E0C81AD108E10880E8F80AC092F7
:105230001701D0921801E0921901F0921A01C701EA
:10524000B6019F77FF90EF90DF90CF90BF90AF9027
:105250009F908F9008956093170170931801809329
:10526000190190931A010895BB274A3031F499230C
:1052700022F4BDE2909581959F4F0C944029BB2765
:10528000FB015527AA27880F991FAA1FA41710F002
:10529000A41B83955051B9F7A05DAA3308F0A95D0E
:1052A000A193009779F7B111B1931192CB010C94AE
:1052B0005929DC01FC01672F71917723E1F73297BF
:1052C00004C07C916D9370836291AE17BF07C8F3E1
:1052D00008950E94AB2908F481E00895E89409C07C
:1052E00097FB3EF490958095709561957F4F8F4F19
:1052F0009F4F9923A9F0F92F96E9BB279395F6952F
:10530000879577956795B795F111F8CFFAF4BB0FAC
:1053100011F460FF1BC06F5F7F4F8F4F9F4F16C010
:10532000882311F096E911C0772321F09EE8872F9A
:10533000762F05C0662371F096E8862F70E060E056
:105340002AF09A95660F771F881FDAF7880F9695CF
:10535000879597F90895990F0008550FAA0BE0E873
:10536000FEEF16161706E807F907C0F01216130627
:10537000E407F50798F0621B730B840B950B39F467
:105380000A2661F0232B242B252B21F408950A26CD
:1053900009F4A140A6958FEF811D811D08950E94FB
:1053A000E2290C94532A0E94452A38F00E944C2A84
:1053B00020F0952311F00C943C2A0C94422A1124DD
:1053C0000C94872A0E94642A70F3959FC1F3950F6D
:1053D00050E0551F629FF001729FBB27F00DB11D79
:1053E000639FAA27F00DB11DAA1F649F6627B00D09
:1053F000A11D661F829F2227B00DA11D621F739FF2
:10540000B00DA11D621F839FA00D611D221F749FFF
:105410003327A00D611D231F849F600D211D822F46
:10542000762F6A2F11249F5750409AF0F1F088236D
:105430004AF0EE0FFF1FBB1F661F771F881F91509A
:105440005040A9F79E3F510580F00C943C2A0C94E3
:10545000872A5F3FE4F3983ED4F386957795679566
:10546000B795F795E7959F5FC1F7FE2B880F911DC4
:105470009695879597F9089597F99F6780E870E06A
:1054800060E008959FEF80EC089500240A941616BA
:10549000170618060906089500240A941216130622
:1054A000140605060895092E0394000C11F48823B0
:1054B00052F0BB0F40F4BF2B11F460FF04C06F5FCC
:1054C0007F4F8F4F9F4F089557FD9058440F551FA2
:1054D00059F05F3F71F04795880F97FB991F61F076
:1054E0009F3F79F087950895121613061406551FED
:1054F000F2CF4695F1DF08C0161617061806991F59
:10550000F1CF86957105610508940895E894BB274D
:1055100066277727CB0197F90895F999FECF92BDB9
:1055200081BDF89A992780B50895262FF999FECF65
:105530001FBA92BD81BD20BD0FB6F894FA9AF99AB0
:105540000FBE01960895052E97FB1EF400940E944D
:10555000BA2A57FD07D00E940C2B07FC03D04EF44B
:105560000C94BA2A50954095309521953F4F4F4F56
:105570005F4F089590958095709561957F4F8F4FFF
:105580009F4F08950E942E2BA59F900DB49F900DC4
:10559000A49F800D911D11240895B7FF0C94C22A79
:1055A0000E94C22A821B930B08952F923F924F9222
:1055B0005F926F927F928F929F92AF92BF92CF92A3
:1055C000DF92EF92FF920F931F93CF93DF93CDB7AC
:1055D000DEB7CA1BDB0B0FB6F894DEBF0FBECDBF24
:1055E00009942A88398848885F846E847D848C84F5
:1055F0009B84AA84B984C884DF80EE80FD800C81FE
:105600001B81AA81B981CE0FD11D0FB6F894DEBFE0
:105610000FBECDBFED010895A1E21A2EAA1BBB1B40
:10562000FD010DC0AA1FBB1FEE1FFF1FA217B3076E
:10563000E407F50720F0A21BB30BE40BF50B661F84
:10564000771F881F991F1A9469F760957095809548
:1056500090959B01AC01BD01CF010895A29FB001BF
:10566000B39FC001A39F700D811D1124911DB29F96
:10567000700D811D1124911D08955058BB27AA2734
:105680000E94552B0C94532A0E94452A38F00E9400
:105690004C2A20F039F49F3F19F426F40C94422A46
:1056A0000EF4E095E7FB0C943C2AE92F0E94642A53
:1056B00058F3BA17620773078407950720F079F447
:1056C000A6F50C94862A0EF4E0950B2EBA2FA02D89
:1056D0000B01B90190010C01CA01A0011124FF279F
:1056E000591B99F0593F50F4503E68F11A16F0409A
:1056F000A22F232F342F4427585FF3CF4695379599
:105700002795A795F0405395C9F77EF41F16BA0B5D
:10571000620B730B840BBAF09150A1F0FF0FBB1F0B
:10572000661F771F881FC2F70EC0BA0F621F731F54
:10573000841F48F4879577956795B795F7959E3FB1
:1057400008F0B0CF9395880F08F09927EE0F979542
:10575000879508950E94BE2B0C94532A0E944C2AD0
:1057600058F00E94452A40F029F45F3F29F00C943C
:105770003C2A51110C94872A0C94422A0E94642AD4
:1057800068F39923B1F3552391F3951B550BBB2770
:10579000AA2762177307840738F09F5F5F4F220FB5
:1057A000331F441FAA1FA9F335D00E2E3AF0E0E8AC
:1057B00032D091505040E695001CCAF72BD0FE2FF6
:1057C00029D0660F771F881FBB1F2617370748078A
:1057D000AB07B0E809F0BB0B802DBF01FF27935842
:1057E0005F4F3AF09E3F510578F00C943C2A0C94A0
:1057F000872A5F3FE4F3983ED4F3869577956795C3
:10580000B795F7959F5FC9F7880F911D9695879576
:1058100097F90895E1E0660F771F881FBB1F621795
:1058200073078407BA0720F0621B730B840BBA0B53
:10583000EE1F88F7E09508950E94232C6894B1111B
:105840000C94872A08950E946C2A88F09F5798F03C
:10585000B92F9927B751B0F0E1F0660F771F881F75
:10586000991F1AF0BA95C9F714C0B13091F00E948F
:10587000862AB1E008950C94862A672F782F88270E
:10588000B85F39F0B93FCCF3869577956795B395B6
:10589000D9F73EF490958095709561957F4F8F4F25
:1058A0009F4F08950E94AB2908F48FEF0895AA1B1B
:1058B000BB1B51E107C0AA1FBB1FA617B70710F0FB
:1058C000A61BB70B881F991F5A95A9F7809590952D
:1058D000BC01CD01089597FB072E16F4009407D064
:1058E00077FD09D00E94572C07FC05D03EF4909517
:1058F00081959F4F0895709561957F4F0895EE0FA4
:10590000FF1F0590F491E02D09940E942E2BB7FF04
:105910000895821B930B08950F931F93CF93DF93EA
:105920008230910510F482E090E0E0913A04F09129
:105930003B0430E020E0B0E0A0E0309799F421157E
:10594000310509F44AC0281B390B24303105D8F53C
:105950008A819B816115710589F1FB0193838283A3
:10596000FE0111C0408151810281138148175907FE
:10597000E0F04817590799F4109761F012960C93CC
:10598000129713961C933296CF01DF91CF911F91FE
:105990000F91089500933A0410933B04F4CF21151E
:1059A000310551F04217530738F0A901DB019A0184
:1059B000BD01DF01F801C1CFEF01F9CF90933B04A6
:1059C00080933A04CDCFFE01E20FF31F81939193B0
:1059D0002250310939832883D7CF20913804309160
:1059E0003904232B41F420911D0130911E01309385
:1059F00039042093380420911B0130911C0121159A
:105A0000310541F42DB73EB740911F01509120015F
:105A1000241B350BE0913804F0913904E217F307A9
:105A2000A0F42E1B3F0B2817390778F0AC014E5F0E
:105A30005F4F2417350748F04E0F5F1F509339040E
:105A400040933804819391939FCFF0E0E0E09CCFA6
:105A5000CF93DF930097E9F0FC0132971382128213
:105A6000A0913A04B0913B04ED0130E020E01097A2
:105A7000A1F420813181820F931F2091380430914D
:105A800039042817390709F061C0F0933904E0930D
:105A90003804DF91CF910895EA01CE17DF07E8F5CA
:105AA0004A815B819E0141155105B1F7E901FB83F4
:105AB000EA8349915991C40FD51FEC17FD0761F492
:105AC000808191810296840F951FE90199838883D3
:105AD000828193819B838A83F0E0E0E012968D912E
