:020000040000FA
:100000000C94A6090C94CE090C94CE090C94CE093C
:100010000C94CE090C94CE090C94CE090C94A41D1A
:100020000C94CE090C94CE090C94CE090C94CE09F4
:100030000C94CE090C94CE090C94CE090C94CE09E4
:100040000C94901E0C94CE090C945E1E0C94381ED9
:100050000C94CE090C94DA1E0C94CE090C94CE09A3
:100060000C94CE090C94CE090C94CE090C948E1FDE
:100070000C94CE090C94CE090C94CE090C94CE09A4
:100080000C94CE090C94A21F0C94CE090C94CE09AA
:100090000C94CE090C94CE090C94CE090C94CE0984
:1000A0000C94CE090C94CE090C94CE090C94CE0974
:1000B0000C94CE09AED580A83FD300408D14200209
:1000C000A1C8DA1281FFD9F1DB40A4A6AFB40019B0
:1000D00080400000030C0F30333C3FC0C3CCCFF056
:1000E000F3FCFF00000000240027002A002D000080
:1000F000901C242060080000000020000000000088
:1001000000000A0000150F15141615151414150813
:1001100000000000000000000000000000000000DF
:1001200000000018000000001700000000000000A0
:1001300000000000000000001500000000000800A2
:100140000000001400000000000E00000000160077
:10015000000000000000000000000000000000009F
:10016000000000000000000000000000000000008F
:1001700000000000000000000000000000C0F0F8D7
:10018000FC7C1C1C1C7CFCF8F8C00000000000007B
:10019000C0F0FC7C1C0400000000000000071F3FB2
:1001A0007F7C7070707C7F3F3F070080E0F8FE3FEF
:1001B0001F07010000000000000000000000000018
:1001C00000000000000000C0E0F8FE3F0F03000048
:1001D000F0FEFEFF1F0707071FFFFEFCF0000000F8
:1001E00000000000101C1F1F07030000000000009B
:1001F000010F0F1F1F1C1C1C1F1F0F0701000000F9
:1002000000000000000000000000000000000000EE
:1002100000000000000000000000000000000000DE
:1002200000000000000000000000000000000000CE
:10023000001F1F1F1F1F1F1F1F1F1F000000000088
:1002400000000000000000000000000000000000AE
:10025000C0F0F0F8F8FCFC7C7C7C7CFCFCF8F8F04E
:10026000E0C00000FFFFFFFFFFFFFF0000000000F5
:1002700000FFFFFFFFFFFFFF003FFFFFFFFFFFFF4C
:10028000C080808080C0FFFFFFFFFFFF3F000000B5
:100290000307070F0F0F0F0F0F0F0F0F0F070703A6
:1002A000010000000000000000000000000000004D
:1002B00000000000000000000000008080C0E0F0AE
:1002C000FCFCFCFCFCFCFC3F3F3F1F1F0F07FFFF3B
:1002D000FFFFFFFFFFFF00000000000000FFFFFF27
:1002E000FFFFFFFFFF000000000000000F0F0F0FD7
:1002F0000F0F0F0F000000000000000000000000C2
:1003000000000000C0E0F0F8F8FCFCFC7C7C7C7C89
:10031000FCFCFCF8F8F0E0C0000303030303030354
:100320000080C0C0E0F8FFFFFFFF7F3F0F0080C0EC
:10033000F0F8FCFEFFFFFFFFDFCFC7C7C3C1C0C09F
:10034000C0C00F0F0F0F0F0F0F0F0F0F0F0F0F0F5B
:100350000F0F0F0F0F0F0F00000000000000000034
:1003600000000000000000000000000080E0F0F845
:10037000F8FCFC7C7C3C7C7CFCFCFCF8F8F0C000CD
:100380000101010101010100F0F0F8F8FFFFFFFF9A
:10039000DF8F8700E0E0E0E0E0E0E08001010101C4
:1003A00083FFFFFFFFFFFFFF00010307070F0F0F92
:1003B0000F0F0F0F0F0F0F070703010000000000C2
:1003C000000000000000000000000000000000002D
:1003D000000000000000000080C0E0F8FCFCFCFC15
:1003E000FCFCFC0000000080C0E0F0FCFEFF7F1F72
:1003F0000F0703FFFFFFFFFFFF0000007F7F7F7FEE
:100400007F7F7D7C7C7C7C7C7CFFFFFFFFFFFF7C13
:100410007C7C000000000000000000000000000FD5
:100420000F0F0F0F0F000000000000000000000081
:1004300000000000000000000000000000000000BC
:10044000FCFCFCFCFCFCFCFCFCFCFCFCFCFCFCFCEC
:10045000FC00000000FFFFFFFFFFF878787878F8D5
:10046000F8F8F8F0E0E0800000E0E0E1E1E1E180B0
:100470000000000080FFFFFFFFFFFF7F1E00010361
:1004800007070F0F0F0F0F0F0F0F0F0F07070301B6
:10049000000000000000000000000000000000005C
:1004A0000000000000000000C0E0F0F8F8FCFC7C58
:1004B0003C3C3C7CFCFCF8F8F0E00000FEFFFFFF59
:1004C000FFFFFFE1F0787878F8F8F8F8F0E0C08006
:1004D000003FFFFFFFFFFFFFC18000000080C1FF62
:1004E000FFFFFFFFFF3E0000010307070F0F0F0F85
:1004F0000F0F0F0F0F0F0703030000000000000095
:1005000000000000000000000000000000000000EB
:10051000FCFCFCFCFCFCFCFCFCFCFCFCFCFCFCFC1B
:10052000FCFCFCFC0000000000000000C0F0F8FE35
:10053000FFFF7F1F0F0301000000000000E0FCFF31
:10054000FFFFFFFF0F01000000000000000000009F
:100550000E0F0F0F0F0F0F01000000000000000032
:10056000000000000000000000000000000000008B
:100570000000000080E0F0F8F8FCFC7C3C3C3C7C97
:10058000FCFCFCF8F8F0E080030F9FFFFFFFFFF892
:10059000F0F0F0F0FCFFFFFFFF9F0F03FEFFFFFFF7
:1005A000FFFFFF830100000183FFFFFFFFFFFFFE4E
:1005B000000307070F0F0F0F0F0F0F0F0F0F0F077E
:1005C000070701000000000000000000000000001C
:1005D000000000000000000000C0E0F0F8F8FCFCA3
:1005E0007C3C3C7C7CFCFCF8F8F0E0C0003F7FFFEA
:1005F000FFFFFFFFE0C0808080C0E0FFFFFFFFFF44
:10060000FFFE00C0C1C3C3C7C7C78707070783E191
:10061000FFFFFFFFFFFF3F00000103070F0F0F0F5A
:100620000F0F0F0F0F0F070703010000000000005E
:1006300000000000000000000000000000000000BA
:10064000000000000000000000FEFEFEFEFEFEFEB8
:10065000FEE0E0E0E0E0E0E0E00F0F0F0F0F0F0F33
:100660000F0000000000000000FCFCFCFCFCFCFC97
:10067000F8F0C080000000000000FCFCFCFCFCFC6A
:10068000FCFFFFFFFFFFFFFF7FFFFFFFFEFCF0E02F
:100690008000FFFFFFFFFFFFFFFFFFFFFFFFFFFFE8
:1006A000000001070F3F7FFFFFFFFFFFFFFFFFFF7E
:1006B000FF0F0F0F0F0F0F0F0000000000000001D1
:1006C000030F0F0F0F0F0F0F0F00000000000000AF
:1006D000000000000000000000000000000000001A
:1006E0000000E0F0F0F8F8FCFC7C7C7C7C7CFCFCFE
:1006F000FCF8F8F0E0C00000071F3F7FFFFFFFFF9E
:10070000FCFCF8F8F8F8F3F3F3E3E3C3830000F834
:10071000F8F8F8F8F8F8E1C18183838387CFFFFF09
:10072000FFFFFFFFFF7E00010307070F0F0F0F0FF3
:100730000F0F0F0F0F0F0F0707030100000000003E
:1007400000000000000000000000000000000000A9
:100750000000000000000000000000000000000099
:1007600000000000000000000000C0F0F8F8FCFCF1
:10077000FE7E7E3E3E3E7EFEFEFCFCF8F0E01EFF6E
:10078000FFFFFFFFFFF3C08080008080C0E0E0E05B
:10079000E0E0E00000010307070F0F0F0F0F0F0F3E
:1007A0000F0F0F0F07030300000000000000000000
:1007B000000000000000000000000000007C7C7CC5
:1007C0007C7C7C7C7CFEFEFEFEFEFEFEFEFFFFFFD0
:1007D000FFFFFFFFFF0F0F0F0F0F0F0F0F000000A6
:1007E0000000000000000000000000000000000009
:1007F000000000000000000000FEFEFEFEFEFEFE07
:10080000F0787C7C7EFEFEFEFEFCFCF8E0FFFFFF45
:10081000FFFFFFFF000000000000FFFFFFFFFFFFE2
:10082000FF0F0F0F0F0F0F0F0000000000000F0F42
:100830000F0F0F0F0F00000000000000000000006D
:10084000000000000000000000000000E0E0F0F008
:10085000F8F8F8000000007E7E7EFFFFFFFFFFFF3C
:10086000FF7E7E7E7E000000FFFFFFFFFFFFFF8018
:1008700080808000000003070F0F0F0F0F0F0F0F76
:100880000F00000000000000000000000000000059
:100890000000000000000000000000000000000058
:1008A0000000000000021E7EFEFEFEFEFCF0800046
:1008B000000080F8FEFEFEFEFE3E06000000010F76
:1008C0003FFFFFFFFFF8E0FCFFFFFFFF3F070000D7
:1008D0000000C0C08080C0C1E7FFFFFFFFFFFF3FF7
:1008E0000700000000000000307070F0F0F0F0F041
:1008F00070703010000000000000000000000005D3
:100900000F7C011020FF201000901C087C0180004B
:10091000000000000F0101010101010101010101BD
:10092000010101010101010F0101010101010101A9
:1009300001010101010101010101010F0101010199
:100940000101010101010101010101010101FF0199
:100950000101010101010101010101010101010187
:10096000010F010101010101010101010101010169
:1009700001010101010F0101010101010101010159
:100980000101010101010101010F0000000000004F
:100990000005072060000000000000005F0000006C
:1009A00003000300143E143E14242A7F2A1243330A
:1009B00008666136495522500005030000001C22DC
:1009C00041000041221C0014083E081408083E089B
:1009D00008005030000000000008080060600000BF
:1009E00020100804023E5149453E0004027F0042A7
:1009F0006151494622414949361814127F10274552
:100A00004545393E4949493201017109073649498D
:100A10004936264949493E00363600000056360020
:100A20000008142241001414141414004122140864
:100A300002015109063E4159555E7E0909097E7F32
:100A4000494949363E414141227F4141413E7F492A
:100A50004949417F090909013E4141493A7F080856
:100A6000087F00417F4100304040403F7F08142212
:100A7000417F404040407F020C027F7F0204087F9C
:100A80003E4141413E7F090909061E2121215E7F29
:100A900009090976264949493201017F01013F4090
:100AA00040403F1F2040201F7F2010207F41221CFC
:100AB000224107087008076151494543007F410002
:100AC0000002040810200000417F0004020102041B
:100AD0004040404040000102040020545454787FBC
:100AE000444444383844444444384444447F3854AB
:100AF00054541804047E0505085454543C7F0804DB
:100B0000047800447D40002040443D007F1028448C
:100B10000000417F40007C047804787C080404785D
:100B200038444444387C14141408081414147C0009
:100B30007C080404485454542004043F44443C407A
:100B400040207C1C2040201C3C4030403C4428106D
:100B500028440C5050503C4464544C4400083641E6
:100B60004100007F000041413608000201020402FA
:100B70007F7F7F7F7F00000A0F205F000000000062
:100B80000000000000000000000000000000000065
:100B9000000000FEFE000000000000000019190027
:100BA00000000000001E1E00001E1E0000000000CD
:100BB000000000000000000030FEFE3030FEFE307D
:100BC0000000031F1F03031F1F03000070F8D8FE5F
:100BD0009898000000000C18187F191F0F00001CC7
:100BE000B6A2F6CC60602030000101000E1B111B84
:100BF0000E00000000DC7EE6C6860C808000070F39
:100C00001C18191F1E1F13000000001E1E000000EC
:100C10000000000000000000000000000000E0FCF8
:100C20001E02000000000000073F784000000000A6
:100C300000021EFCE000000000000040783F0700BA
:100C400000000000F0FC0E86C66EFCFC06301B0F98
:100C50001F31181C0F030000808080F0F08080801E
:100C600000000101010F0F01010100000000000060
:100C70000000000000000000407C3C00000000007C
:100C80000000000000000000000000030303030355
:100C90000000000000000000000000000000000054
:100CA000001C1C0000000000000000C0F03C0E0210
:100CB000000020381E07010000000000F0FC0EC6F6
:100CC000C60EFCF80000030F1C18181C0F070000CC
:100CD000000C06FEFE00000000001818181F1F1868
:100CE000181800000C06060686C67C380000181C82
:100CF0001E1B1918181800000C06C6C6C6C6FC38FC
:100D000000000C18181818190F0F000080C0701878
:100D10000EFEFE00000003030303031F1F03000079
:100D2000FE7E666666E6C68000000C181818181C61
:100D30000F070000F0FCCE6666E6CC800000070FCF
:100D40001C18181C0F07000006060606E6FE3E0EDD
:100D5000000000101C0F03000000000038FCC6C695
:100D6000C6C6FC3800000F0F181818180F0F000027
:100D700078FCCE8686CEFCF80000000C1919191CF0
:100D80000F030000000000E0E00000000000000091
:100D9000001C1C0000000000000000E0E00000005B
:100DA00000000000407C3C00000000008080C0404B
:100DB000606020300000010103020606040C000000
:100DC00060606060606060600000060606060606FF
:100DD000060600003020606040C0808000000C04E7
:100DE00006060203010100000C0686C6667E1C0092
:100DF000000000001B1B0000000000E0F0389CCC4D
:100E0000CCDCF8F000071F387367666677270000B0
:100E100000C0FC3E3EFCC0000000181F0F03030F83
:100E20001F180000FEFEC6C6C6C6FC3C00001F1F01
:100E3000181818181F0F0000F0FC0C060606060C08
:100E40000000030F0C181818180C0000FEFE060610
:100E5000060CFCF000001F1F1818180C0F030000F0
:100E6000FEFEC6C6C6C6C60600001F1F1818181804
:100E700018180000FEFEC6C6C6C6C60600001F1F24
:100E80000000000000000000F0FC0C068686868C46
:100E90000000030F0C1819191F0F0000FEFEC0C040
:100EA000C0C0FEFE00001F1F000000001F1F00004A
:100EB000000606FEFE06060000000018181F1F1898
:100EC00018000000000000060606FEFE00000C18D8
:100ED000181818180F0F0000FEFEE0F0FC0E0602B6
:100EE00000001F1F0000030F1E180000FEFE000080
:100EF0000000000000001F1F181818181818000024
:100F0000FEFE3EF0F03EFEFE00001F1F000101004D
:100F10001F1F0000FEFE1EF0C000FEFE00001F1F8F
:100F20000000031E1F1F0000F0FC0E06060EFCF062
:100F30000000030F1C18181C0F030000FEFEC6C69D
:100F4000C6C67C7C00001F1F0000000000000000DF
:100F5000F0FC0E06060EFCF00000030F1C18183CF7
:100F60006F070000FEFEC6C6C6C6FC3C00001F1F81
:100F7000000001031F1E1000387CE6C6C6C68C00A8
:100F800000000C18181818190F0F0000060606FEAE
:100F9000FE06060600000000001F1F000000000003
:100FA000FEFE00000000FEFE0000070F1C18181CCB
:100FB0000F07000006FEFC0000FCFE06000000001B
:100FC0001F1F1F1F0000001EFEE000F0F000E0FEEB
:100FD0001E001F1F1E01011E1F1F0000020E3EF8F3
:100FE000F83E0E020000101C1F03031F1C1000021D
:100FF0000E3E78E0E0783E0E02000000001F1F0069
:1010000000000000060686C6F67E1E0E00001C1EAE
:101010001F1B1818181800000000FEFE0202000036
:10102000000000007F7F404000000000020E38E01A
:1010300080000000000000000000030E38200000C7
:10104000000202FEFE00000000000040407F7F0022
:1010500000000010181C0E060E1C181000000000E6
:101060000000000000000000000000000000000080
:1010700000404040404040404040400000010306E6
:10108000040000000000000000000000000000005C
:10109000006030B0B0B0F0E000000E1F1B19190D59
:1010A0001F1F0000FEFE60303070E0C000001F1FF8
:1010B0000C18181C0F070000C0E070303030306092
:1010C0000000070F1C181818180C0000C0E0703042
:1010D0003060FEFE0000070F1C18180C1F1F0000D8
:1010E000C0E0B0B0B0B0E0C00000070F1D19191982
:1010F000190D00003030FCFE3636360000000000CE
:101100001F1F000000000000C0E070303060F0F0F1
:10111000000003376E6C6C667F3F0000FEFE60309F
:101120003030F0E000001F1F000000001F1F000013
:10113000003030F7F700000000001818181F1F18C3
:1011400018180000003030F7F70000000000606061
:10115000607F3F0000000000FEFE80E07030100065
:1011600000001F1F0103071E181000000606FEFEE8
:1011700000000000000000000F1F181818000000F9
:10118000F0F030F0E030F0E000001F1F001F1F0003
:101190001F1F0000F0F060303030F0E000001F1F33
:1011A000000000001F1F0000C0E070303070E0C081
:1011B0000000070F1C18181C0F070000F0F060302B
:1011C0003070E0C000007F7F060C0C0E07030000AB
:1011D000C0E070303060F0F0000003070E0C0C0629
:1011E0007F7F000000F0F060303030300000001FE2
:1011F0001F00000000000000E0F0B0B0B0B03060B0
:1012000000000C191919191B1F0E00003030FCFCCE
:1012100030303000000000000F1F181818000000C8
:10122000F0F000000000F0F000000F1F1818180C7C
:101230001F1F000030F0E00000E0F030000000016F
:101240000F1E1E0F01000070F00000C0C00000F073
:101250007000071F1E03031E1F0700001030F0C0A0
:10126000C0F03010000010181E07071E18100000F4
:1012700010F0F08000F0F03000000060637F1F0F7E
:101280000100000030303030B0F070300000181C29
:101290001E1B191818180000000000FCFE020200B6
:1012A00000000001013E7E4040000000000000FE02
:1012B000FE00000000000000007F7F000000000032
:1012C000000202FEFC00000000000040407E3E01E3
:1012D0000100000080C0C0C0808080C0000001000C
:1012E0000000010101000000000000230026002989
:1012F000002C0000000008000201000003040700A9
:1013000000000000000000000000000201020408CC
:10131000102040800102040810200102040810205F
:101320000408010200000000250028002B002E0008
:10133000040404040404040402020202020203037B
:1013400003030303050505057D21452F11241FBE59
:10135000CFEFD8E0DEBFCDBF12E0A0E0B1E0E2EE1B
:10136000FAE602C005900D92A435B107D9F724E042
:10137000A4E5B2E001C01D92AA39B207E1F719E075
:10138000C5EAD9E004C02197FE010E945833C43A4F
:10139000D107C9F70E94C2220C9464350C94000056
:1013A0004F925F926F927F928F929F92AF92BF9275
:1013B000FF922091E1033091E2038217930708F036
:1013C00043C02B0166247724852E962EA72EBB249E
:1013D000B82DA42F2091E703F42C222391F0E22FC3
:1013E000F0E0E49DD001E59DB00DF49DB00D112419
:1013F000FB2E289D40011124B92D249F900111241A
:10140000A32FE091ED032091E8033091E90350917F
:10141000EA03E51323C0FC01EE0FFF1F8E0F9F1F91
:10142000820F931FE091EA03E80FF92FF11DF0827C
:10143000E091EB03E80FF92FF11DB0832091EC034D
:10144000820F911DFC01A083FF90BF90AF909F90F1
:101450008F907F906F905F904F900895880F991FA5
:10146000880F991F820F931FE80FF92FF11D10822B
:10147000D9CFE091C903F091CA030196880F991F53
:10148000880F991FE80FF91FDF0114978081918160
:101490002D913C91821B930B69E070E00E944433D4
:1014A000892B11F06F5F7F4FCB010895AF92BF92F0
:1014B000CF92DF92EF92FF920F931F93CF93DF9320
:1014C0006C017B018B01040F151FEB015E01AE184F
:1014D000BF08C017D10759F06991D601ED91FC9171
:1014E0000190F081E02DC6010995892B79F7C5019E
:1014F000DF91CF911F910F91FF90EF90DF90CF90F0
:10150000BF90AF900895FC01448155816081718145
:1015100085EF93E00C94560AFC01538D448D252FE2
:1015200030E0842F90E0821B930B541710F0CF967D
:10153000089501970895FC01918D828D981761F0AF
:10154000A28DAE0FBF2FB11D5D968C91928D9F5FC6
:101550009F73928F90E008958FEF9FEF0895FC01A5
:10156000918D828D981731F0828DE80FF11D858D58
:1015700090E008958FEF9FEF0895FC01918D228DEB
:10158000892F90E0805C9F4F821B91098F73992770
:1015900008958CE293E00E94BD0A21E0892B09F4B2
:1015A00020E0822F0895FC01A48DA80FB92FB11D52
:1015B000A35ABF4F2C91848D90E001968F73992789
:1015C000848FA689B7892C93A089B1898C91837067
:1015D00080648C93938D848D981306C00288F38960
:1015E000E02D80818F7D80830895EF92FF920F938D
:1015F0001F93CF93DF93EC0181E0888F9B8D8C8DBF
:1016000098131AC0E889F989808185FF15C09FB7B2
:10161000F894EE89FF896083E889F9898081837075
:10162000806480839FBF81E090E0DF91CF911F9124
:101630000F91FF90EF900895F62E0B8D10E00F5F45
:101640001F4F0F731127E02E8C8D8E110CC00FB61B
:1016500007FCFACFE889F989808185FFF5CFCE01B3
:101660000E94D30AF1CFEB8DEC0FFD2FF11DE35A51
:10167000FF4FF0829FB7F8940B8FEA89FB89808136
:101680008062CFCFCF93DF93EC01888D8823B9F0B0
:10169000AA89BB89E889F9898C9185FD03C080817D
:1016A00086FD0DC00FB607FCF7CF8C9185FFF2CFFA
:1016B000808185FFEDCFCE010E94D30AE9CFDF9173
:1016C000CF91089580E090E0892B29F00E94C90A0B
:1016D00081110E94000080E090E0892B49F080E0B9
:1016E00090E0892B29F00E94000081110C940000E9
:1016F000089581508D3008F03DC0E82FF0E0ED579F
:10170000F44F0C9458339A0B9E0B900B960BBA0B1C
:10171000BA0BA10BA70BAB0BB10BBA0BB50BBB0BE9
:10172000809180008F778093800008958091800061
:101730008F7DF9CF84B58F7784BD089584B58F7D73
:10174000FBCF8091B0008F778093B0000895809197
:10175000B0008F7DF9CF809190008F7780939000BB
:101760000895809190008F7DF9CF8091A0008F77B0
:101770008093A00008958091A0008F7DF9CFCF9332
:10178000DF93E3E0F3E18491ECE1F3E1D491E0E471
:10179000F3E1C491CC23A1F081110E94790BEC2FCD
:1017A000F0E0EE0FFF1FE951FD4EA591B491EC91D1
:1017B000ED2381E090E009F480E0DF91CF9108957E
:1017C00080E090E0FACF1F93CF93DF93282F30E093
:1017D000F901ED50FD4E8491F901E45FFC4ED49186
:1017E000F901E05DFC4EC491CC23A9F0162F8111C4
:1017F0000E94790BEC2FF0E0EE0FFF1FEC5DFC4E2A
:10180000A591B4918FB7F894EC91111108C0D095BF
:10181000DE23DC938FBFDF91CF911F910895DE2BE4
:10182000F8CFCF93DF9390E0FC01E45FFC4E24916E
:10183000805D9C4EFC0184918823C9F090E0880F64
:10184000991FFC01ED51FF4FA591B491FC01EC5D96
:10185000FC4EC591D49161110DC09FB7F8948C9145
:10186000209582238C938881282328839FBFDF9132
:10187000CF910895623051F49FB7F8943C91822F34
:10188000809583238C93E8812E2BEFCF8FB7F8942C
:10189000EC912E2B2C938FBFEACF4F925F926F92D9
:1018A0007F928F929F92AF92BF92CF92DF92EF92F0
:1018B000FF920F931F93CF938C014A015B0180919C
:1018C0001701893099F08F3F09F453C0CF911F91D0
:1018D0000F91FF90EF90DF90CF90BF90AF909F90CF
:1018E0008F907F906F905F904F900895EBE0F3E1C1
:1018F000C491C7FDEBCF61E089E00E94110C280183
:10190000712C612CCC23F1F0980150E040E0C23002
:1019100009F0E2C028013A0160E970ED83E090E04F
:101920000E94773169017A0181E0C81AD108E10883
:10193000F10893E08FEFC816D104E104F10409F037
:101940000CF461C168E478EE81E090E0A3019201BB
:101950000E94773169017A0181E0C81AD108E10853
:10196000F10894E0C1114FC185B5887F836085BDC2
:10197000C8C089E080931701EBE0F3E1C4918C2F9C
:10198000CF3F09F4A3CFC23009F466C060F4CC2382
:1019900069F1C13009F442C087FD98CF61E089E068
:1019A0000E94110CB1CFC33009F478C0C430A1F744
:1019B0001092A0001092A1008091A10088608093F5
:1019C000A1008091A10081608093A100E9E3F3E18F
:1019D000E491F0E0EE0FFF1FEC5DFC4E85919491D9
:1019E000E5E1F3E1E491E093110385CF14BC15BC6C
:1019F00084B5826084BD85B5816085BDE9E3F3E18E
:101A0000E491F0E0EE0FFF1FEC5DFC4E85919491A8
:101A1000E5E1F3E1E491E09317036DCF10928000CC
:101A20001092810080918100886080938100809174
:101A30008100816080938100E9E3F3E1E491F0E0CB
:101A4000EE0FFF1FEC5DFC4E85919491E5E1F3E113
:101A5000E491E09316034FCF1092B0001092B100C2
:101A60008091B00082608093B0008091B10081606D
:101A70008093B100E9E3F3E1E491F0E0EE0FFF1FA2
:101A8000EC5DFC4E85919491909315038093140323
:101A9000E5E1F3E1E491E09313032DCF1092900080
:101AA00010929100809191008860809391008091C4
:101AB0009100816080939100E9E3F3E1E491F0E02B
:101AC000EE0FFF1FEC5DFC4E85919491E5E1F3E193
:101AD000E491E09312030FCF60E072E18AE790E0B7
:101AE0000E94773169017A0181E0C81AD108E108C2
:101AF000F108C13071F580918100887F8160809309
:101B00008100D801AA0FBB1FA50194010E94963144
:101B100028EE33E040E050E00E94E031C230D1F1E5
:101B20000CF05AC0CC2339F1C13009F0CFCED0929D
:101B30008900C092880020932403309325034093AA
:101B400026035093270380916F00826080936F007B
:101B5000BDCEC33039F480919100887F816080933D
:101B60009100CFCFC43069F68091A100887F816059
:101B70008093A100C6CFC7BC2093280330932903CC
:101B800040932A0350932B0380916E0082608093D0
:101B90006E009CCEC092B3002093200330932103AB
:101BA00040932203509323038091700082608093BE
:101BB00070008CCED0929900C092980020931C03A4
:101BC00030931D0340931E0350931F0380917100B7
:101BD0008260809371007ACEC33061F3C43009F023
:101BE00075CED092A900C092A8002093180330931C
:101BF000190340931A0350931B0380917200826073
:101C00008093720063CE8091B100887F892B80938E
:101C1000B10077CF8E50806480937C0080917A00F1
:101C2000806480937A0080917A0086FDFCCF809159
:101C300078009091790008953FB7F8948091A802B8
:101C40009091A902A091AA02B091AB0226B5A89BDF
:101C500005C02F3F19F00196A11DB11D3FBFBA2F3E
:101C6000A92F982F8827BC01CD01620F711D811DFE
:101C7000911D42E0660F771F881F991F4A95D1F783
:101C800008950F931F93CF93DF93CDB7DEB72997B6
:101C90000FB6F894DEBF0FBECDBF8091E8039091E0
:101CA000E903892B09F47CC00E941C0E0091EE030D
:101CB0001091EF032091F0033091F1036017710749
:101CC0008207930740F46093EE037093EF038093D1
:101CD000F0039093F1030091EE031091EF03209134
:101CE000F0033091F103601B710B820B930B6C328C
:101CF000714081059105C0F2F8948091E3039091C1
:101D0000E4039A838983E091E803F091E903DF011A
:101D10001196808189879091DF03E091F203F09121
:101D2000F3038091F403992309F445C09081982B23
:101D300098879081809589238F838F818C8388E019
:101D40008B8358856F8149853B812C8189819A815C
:101D5000508347FD252F3A952083262F39F0441FC5
:101D600000C000006083000000C0F2CF38E04D9159
:101D700060830000019761F7F093F303E093F203AF
:101D800049873B832C839A83898378940E941C0E15
:101D90006093EE037093EF038093F0039093F1034D
:101DA00029960FB6F894DEBF0FBECDBFDF91CF915D
:101DB0001F910F9108959081982B9887908180951D
:101DC00089238F838F818E8388E08D8358856F81EF
:101DD00049853D812E8189819A81508347FD252F38
:101DE00000C000C0208300C000C000C000C000C010
:101DF00060830000262F3A9541F0441F000000C088
:101E000000C000C000C000C0E8CF38E04D9100C065
:101E1000608300C0019709F7F093F303E093F203A6
:101E200049873D832E83AFCF8F929F92AF92BF920F
:101E3000CF92DF92EF92FF924B015C010E941C0E49
:101E40006B017C010E941C0E6C197D098E099F0993
:101E5000683E734081059105A8F321E0821A91083C
:101E6000A108B10888EEC80E83E0D81EE11CF11C61
:101E700081149104A104B10429F7FF90EF90DF9041
:101E8000CF90BF90AF909F908F9008952FB7F89408
:101E90006091A4027091A5028091A6029091A70280
:101EA0002FBF0895CF93DF93EC018D85882329F010
:101EB00081508D87DF91CF9108959C818E819817F5
:101EC000C8F788896827E881F9810084F185E02DC9
:101ED00042E0CE0109958C818F5F8C83EBCFDC01D2
:101EE0001E96ED91FC9184913196E491982F8E2F5E
:101EF0000895909304048093030485EF93E00E9477
:101F00006F0F019719F41092FE03089581E08093FA
:101F1000FE03089590E080E008954FB7F894209173
:101F20009C0230919D0280919A0290919B024FBF3A
:101F300040919802042E02C0359527950A94E2F745
:101F400002C0959587954A95E2F78802C001112451
:101F50002202800D911D112408950E948D0F9093EF
:101F6000B9028093B8022091F7023091F8028217EB
:101F7000930720F09093F8028093F7022091F702E4
:101F80003091F80240910401509105013695279552
:101F900036952795240F351F265F3F4F82179307ED
:101FA00090F081E080939E028091F7029091F80278
:101FB0009093C1028093C0025093BF024093BE022F
:101FC00080919E02089510929E02FACF809197020E
:101FD0008823E1F1109296022091C6023091C70247
:101FE0008091F5029091F6022817390740F0809110
:101FF000C6029091C7029093F6028093F5028091F9
:10200000F5029091F6028091F5029091F6024091CE
:10201000F3025091F4022091F3023091F402E09126
:10202000C602F091C702841B950B6AE070E00E9423
:102030003033265F3F4F620F731F81E0E617F707CB
:1020400008F480E08093C802109297028091960273
:10205000811108C081E08093960280917A008864A3
:1020600080937A008091C8020895CF93DF93D0E0E7
:10207000C0E040E050E0BA01CE010E94D0092196B4
:10208000CA31D105B1F7DF91CF910C94410ECF92B7
:10209000DF92EF92FF920F931F93CF93DF93C09144
:1020A0008202D09183028E01000F111F02591D4F31
:1020B000F80140815181052E000C660B770BC09012
:1020C0008402D0908502E0908602F0908702C41AC4
:1020D000D50AE60AF70A81E10E940A0EF801918307
:1020E0008083092E000CAA0BBB0BBC01CD016C0D2B
:1020F0007D1D8E1D9F1D60938402709385028093C9
:102100008602909387022196CA30D105A4F4D09319
:102110008302C09382022AE030E040E050E00E9457
:102120007731C901DF91CF911F910F91FF90EF900F
:10213000DF90CF9008951092830210928202EBCF2D
:1021400081E080930D03809108014EEF5EEF6EEF0A
:1021500070E090E00E94D0090E94410E0E94460F5C
:1021600060937A0470937B0480937C0490937D0445
:10217000089580E680937C0081E080936D02109248
:102180007B008EEF80937A0080E090E0AAE2B5E4D5
:102190008093EF029093F002A093F102B093F202C9
:1021A0008AE89DE3A6E9B6E48093EB029093EC0203
:1021B000A093ED02B093EE0285E394E2A0E0B0E0DC
:1021C0008093E7029093E802A093E902B093EA02B9
:1021D00085E090E090939902809398020895109280
:1021E000E1021092E0020E94B9100E94460F609333
:1021F000DB037093DC038093DD039093DE030E9486
:10220000460F6093C2027093C3028093C4029093FE
:10221000C50281E0809303011092DF021092CC028C
:102220001092CD021092CE021092CF028EE190E079
:1022300090930501809304011092F8021092F70226
:1022400008951F93CF93DF93EC01162F61E04111A6
:1022500001C060E08B890E94E30B80E58CBD81E0CA
:102260008DBD60E08A890E94E30B1EBD00000DB4A5
:1022700007FEFDCF8EB561E08A89DF91CF911F9176
:102280000C94E30BDC01ED91FC910084F185E02DD1
:1022900040E009940F931F93CF938C01FC0164835A
:1022A000C085C60F6C2F6F700E9442116C2F629513
:1022B0006F706061C801CF911F910F910C94421112
:1022C000FC012781269526952695621738F46583AB
:1022D0002385620F6770606B0C94421108951F9301
:1022E000CF93DF93EC01142F8E81681718F4CE0181
:1022F0000E944A11612FCE01DF91CF911F910C9462
:102300006011CF92DF92EF92FF920F931F93CF93C2
:10231000DF93EC01F62EC42ED22E1D868F8186957A
:1023200086958695081710F00FEF080F1D2D0117E1
:1023300080F0412F6F2DCE010E946F11EF2CCE1433
:1023400030F06889CE010E94520FE394F8CF1F5FEE
:10235000EECF4D2D6F2DCE01DF91CF911F910F91BB
:10236000FF90EF90DF90CF900C946F110F93DC01F2
:1023700015962C9115971E96ED91FC911F9700E0F4
:10238000309779F03396E491F0E0379683E0F59555
:10239000E7958A95E1F751960C9151970E9F002D84
:1023A0001124EFEFE20F0E0F16964C911697415045
:1023B00014966C911497CD010E9481110F9108958C
:1023C0002F923F924F925F926F927F928F929F9245
:1023D000AF92BF92CF92DF92EF92FF920F931F9333
:1023E000CF93DF9300D000D000D0CDB7DEB7FC0193
:1023F000068517850115110509F446C19E838D8355
:10240000F801329664903196A490EA2CF12CF7E012
:10241000EF0EF11C23E0F594E7942A95E1F7E982A9
:10242000F801349684913196E491681748F0CE2EE5
:10243000D12C9601280F311D621713060CF469C0C8
:102440006D3031F5ED81FE81868181111BC081E007
:1024500090E026960FB6F894DEBF0FBECDBFDF9199
:10246000CF911F910F91FF90EF90DF90CF90BF9091
:10247000AF909F908F907F906F905F904F903F9024
:102480002F90089560E08D819E810E944A11DFCFD8
:102490006A3009F0F9C0ED81FE818681882321F040
:1024A00060E0CF010E944A11ED81FE8181898E9DFD
:1024B000E02C112465816E0D8485882349F0978175
:1024C0009695969596958E2D891B860F18162CF04D
:1024D0008D819E810E946011BACFED81FE8123859E
:1024E000820F877083879E199583CF010E94B61152
:1024F000ED81FE818485813009F0A9CF6385660F67
:10250000660F660F6F7362876064CF010E9442118D
:102510009ECF0A5F1F4FB62EB81AED81FE819185BE
:102520008189989F802D11248C83CF010E946F0F89
:10253000029708F06AC06E9CC0016F9C900D112438
:10254000B89E6001B99ED00C11240C0D1D1D512C9C
:10255000ED81FE81F481FA83ED81FE812580F58590
:10256000FB83862C912CAA24A394B12C312C898135
:10257000381608F087C0412CED81FE81818948160C
:1025800008F079C08B818587311002C0442041F06A
:10259000ED81FE8145814F5F6A81CF010E946F11FD
:1025A000D12CC12CC61408F059C0F801EC0DFD1D4A
:1025B0007490552061F0EA14FB0449F4E72DF0E033
:1025C000052C02C0F595E7950A94E2F77E2EED8181
:1025D000FE818189823081F4442009F43BC07294E9
:1025E0008FE07822E72DF0E0ED52FF4F7490672DD9
:1025F0008D819E810E94520F672D8D819E810E9448
:10260000520F8FEFC81AD80ACDCFEA2DE77088E0B5
:10261000582E5E1AE11101C0512CF801612C90E096
:1026200080E06B1431F02491820F911D63943196F8
:10263000F8CF600E712E711CF3016490E89EF001DA
:10264000E99EF00DF89EF00D1124CE0EDF1E0C0D4C
:102650001D1D7ECFF72DFF707F2EC4CFD12CEC81B6
:10266000DE1639F060E08D819E810E94520FD39476
:10267000F6CF439481CF3394080D191DFFEFAF1AA5
:10268000BF0A75CF622D24CF90E080E0E2CE0F9399
:10269000CF93DF93EC011B861A8660E40E944211FF
:1026A0000F8106950695069501504E81415020E018
:1026B00060E0CE010E948111DF91CF910F910895CA
:1026C000089590E080E00895CF93DF93EC01888136
:1026D0009981009711F00E940934198218821D8295
:1026E0001C821B821A82DF91CF910895FC018081A8
:1026F0009181009711F00C9409340895FB01019029
:102700000020E9F73197AF01461B570BDC01ED9133
:10271000FC910280F381E02D09948F929F92AF92F9
:10272000BF920F931F93CF93DF93CDB7DEB7A197DF
:102730000FB6F894DEBF0FBECDBF19A2423008F429
:102740004AE08E010F5D1F4F842E912CB12CA12CDD
:10275000A50194010E94E031E62FB901CA01EA30D7
:1027600004F5E05DD801EE938D01232B242B252B5E
:1027700079F790E080E0109729F0BD0185EF93E0B4
:102780000E947E13A1960FB6F894DEBF0FBECDBF98
:10279000DF91CF911F910F91BF90AF909F908F903D
:1027A0000895E95CDFCFCF92DF92EF92FF92CF9353
:1027B000DF936C01990FEE08FF08F7FE19C06DE278
:1027C00085EF93E00E94E011EC0166277727CB01AB
:1027D0006C197D098E099F094AE00E948D138C0FA8
:1027E0009D1FDF91CF91FF90EF90DF90CF900895E4
:1027F0004AE0C701B601DF91CF91FF90EF90DF90E3
:10280000CF900C948D13BC0185EF93E00C947E1354
:1028100080910D01882351F041E066E185EF93E05E
:102820000E946F1183E891E00C9403140895809145
:10283000FF0281110DC081E08093FF0245E066E454
:1028400085EF93E00E946F118EE491E00C940314E5
:10285000089545E06CE385EF93E00E946F118CE1F1
:1028600092E00C94031445E065E085EF93E00E944C
:102870006F1184E591E00C940314809100038111A1
:102880001CC08091FC0281110AC041E06CE285EF1E
:1028900093E00E946F118AE591E00E9403148091F9
:1028A000FC02882399F041E06CE385EF93E00E94FD
:1028B0006F1184E691E00C94031441E06BE485EF22
:1028C00093E00E946F1181E691E0E7CF08950F93A6
:1028D0001F93CF93DF93EC010E947E138C0169E676
:1028E00071E0CE010E947E13800F911FDF91CF9186
:1028F0001F910F91089585EF93E00E94471341E0E7
:1029000069E185EF93E00E946F116CE671E085EF5D
:1029100093E00E94671445E065E085EF93E00E9434
:102920006F1164E771E085EF93E00C946714CF9228
:10293000DF92EF92FF920F931F93CF93DF937B0170
:102940002091CB033091CC0382179307F4F4880FC6
:10295000991F880F991F2091C9033091CA03820FD4
:10296000931FFC01C280D380FFEFCF16DF0669F012
:102970008B01C3E0D0E0C6018C1B9D0B0E9461312E
:10298000F80181938F012197B0F7C701DF91CF91B3
:102990001F910F91FF90EF90DF90CF9008950C94CE
:1029A00061310F931F93CF93DF93EC018C01060FDE
:1029B000171FC017D1079CF4CE010E94CF148F3F80
:1029C00061F0FC9AFD98FB98D2BDC1BD8FB7F89419
:1029D000F999FECFFA9AF99A8FBF2196EACFDF9143
:1029E000CF911F910F9108950F931F93CF93DF9372
:1029F000EC01162F22E030E0062F0095FD9AFC989E
:102A0000FB98D2BDC1BD10BD8FB7F894F999FECF28
:102A1000FA9AF99A8FBFF999FECF2130310539F032
:102A2000CE010E94CF1421E030E0802339F7DF91FE
:102A3000CF911F910F910895CF93DF93EB010E94E7
:102A400061318883CE01DF91CF910895CF93DF93D9
:102A5000EB010E9461318883CE01DF91CF9108950F
:102A60000E944F350F931F93CF93DF93EC01888122
:102A70009981009759F02A813B812617370730F05A
:102A800081E0DF91CF911F910F9108958B016F5FCE
:102A90007F4F0E949234009759F0998388831B835B
:102AA0000A832C813D81232B59F7FC011082E8CF4A
:102AB00080E0E7CFEF92FF920F931F93CF93DF93C6
:102AC000EC01FB01E080F180E114F10411F10481DB
:102AD000158101151105A9F08C819D81080F191F21
:102AE000B801CE010E943215882399F028813981DE
:102AF0008C819D81B701820F931F0E945D351D83DC
:102B00000C83CE01DF91CF911F910F91FF90EF9039
:102B10000895CE010E946413F4CFEF92FF920F93B9
:102B20001F93CF93DF9300D0CDB7DEB78C018EE239
:102B300089831A82F801E480F580FFEFEF1AFF0A1B
:102B4000B701C8010E9432158823C9F0F80120811D
:102B5000318184819581BE016F5F7F4F820F931F0A
:102B60000E945D35F801F582E482C8010F900F9054
:102B7000DF91CF911F910F91FF90EF900895C801C1
:102B80000E946413F2CFEF92FF920F931F93CF93A3
:102B9000DF93EC017B018A01BA010E943215811199
:102BA0000BC0CE010E946413CE01DF91CF911F9123
:102BB0000F91FF90EF9008951D830C83B7018881DA
:102BC00099810E945D35F0CFEF92FF920F931F9392
:102BD000CF93DF93CDB7DEB762970FB6F894DEBF21
:102BE0000FBECDBF8C01CB01F80111821082138280
:102BF0001282158214824AE09E012F5F3F4F7901B5
:102C0000B9010E940830F70101900020E9F73197DF
:102C1000AF014E195F09B701C8010E94C315629642
:102C20000FB6F894DEBF0FBECDBFDF91CF911F91DD
:102C30000F91FF90EF900895FB01DC0111961C921B
:102C40001E9213961C921E92129715961C921E921B
:102C500014978617970749F0608171816115710596
:102C600021F0448155810C94C31508950F931F934F
:102C7000CF93DF93CDB7DEB768970FB6F894DEBF7A
:102C80000FBECDBF80910801882309F4AFC0909199
:102C9000FC02992309F461C009E110E09801281BA6
:102CA000310945E0429FC001439F900D11246AE025
:102CB00070E00E944433BC01CE0143960E94E415AB
:102CC00080910801B801681B710977FF02C06F5F2E
:102CD0007F4F75956795CE0107960E94E415BE015A
:102CE000695F7F4FCE010D960E941C16CE010D9696
:102CF0000E948D15BE016D5E7F4F0E945A15BC016A
:102D0000CE0101960E941C16CE010D960E947613EC
:102D1000CE0107960E947613CE0143960E94761349
:102D200041E06AE085EF93E00E946F1180E891E056
:102D30000E940314CE0101960E94830ACE010196DF
:102D40000E94761368960FB6F894DEBF0FBECDBF13
:102D5000DF91CF911F910F910895909100039111F0
:102D600021C0803151F441E064E185EF93E00E949D
:102D70006F1183E891E00E94031441E06AE085EF5F
:102D800093E00E946F1180E891E00E9403149091FB
:102D9000080129E130E0A901491B5109CA010E943B
:102DA000D313D0CF853151F441E069E385EF93E04F
:102DB0000E946F1184E891E00E94031441E069E1F0
:102DC00085EF93E00E946F1180E891E00E94031468
:102DD0002091080189E190E0821B910924E1AC0176
:102DE000249FC001259F900D1124D9CF809100030D
:102DF00041E0811112C06AE085EF93E00E946F11FB
:102E000084E891E00E9403146091080170E090E072
:102E100080E04AE00E948D1395CF69E185EF93E051
:102E20000E946F1182E891E00E94031441E06DE27C
:102E300085EF93E00E946F11E7CF0F931F93CF931D
:102E4000DF93CDB7DEB768970FB6F894DEBF0FBE3D
:102E5000CDBF80910801882309F45EC09091FC02E7
:102E6000992309F464C025E0829FC00111246AE01F
:102E700070E00E944433BC01CE0143960E94E415E9
:102E80006091080170E075956795CE010D960E94DE
:102E9000E41518861F821A8619861C861B868BE20B
:102EA00089831A828E010F5F1F4FF8010190002065
:102EB000E9F73197AF01401B510BB801CE010796DE
:102EC0000E94C315BE01635F7F4FCE0107960E942B
:102ED0005A150E948D15BE016D5E7F4F0E945A15D6
:102EE000BC01C8010E941C16CE0107960E947613F1
:102EF000CE010D960E947613CE0143960E94761362
:102F000041E06AE085EF93E00E946F11C8010E94E2
:102F1000830AC8010E94761368960FB6F894DEBF44
:102F20000FBECDBFDF91CF911F910F91089580917A
:102F3000000341E0811112C06AE085EF93E00E9436
:102F40006F1186E891E00E9403146091080170E01F
:102F500090E080E04AE00E948D13DECF69E185EFCA
:102F600093E00E946F1186E891E00E940314809123
:102F7000080124E1829FC00111240E94D313CCCF09
:102F80000C946931FF920F931F93CF93DF93EC0161
:102F9000F62E08811981C8010E946131F81621F0CE
:102FA0006F2DC8010E946931CE01DF91CF911F9131
:102FB0000F91FF9008952F923F924F925F926F92E0
:102FC0007F928F929F92AF92BF92CF92DF92EF92B9
:102FD000FF920F931F93CF93DF9300D000D0CDB714
:102FE000DEB71C013B010E94390A7C018091CB03B2
:102FF0009091CC03281639060CF0BCC08090C90310
:103000009090CA032FEF221A320A220C331C220C92
:10301000331CF401E20DF31D4080518034E0231A8B
:103020003108820C931CF401A080B180C2018A197E
:103030009B098E199F0904970CF49CC0028113818F
:103040000F3F100729F487010A0D1B1D01501109BC
:10305000680123E0C21AD1087C826B820C151D0521
:103060000CF488C0C6010E94CF14EB81FC819191C1
:10307000FC83EB83FFEFCF1ADF0A891779F3C801CE
:1030800005960F5F1F4F481659064CF4B701C5014E
:103090000E94D114F401008111810E0D1F1D17FD36
:1030A00069C05301F4E0AF0EB11C6801C618D7081F
:1030B000C601860D971D9A838983F30161913F01B3
:1030C000CE0101960E94C2176A147B0489F7809191
:1030D000C9039091CA03280E391EC8010396F10155
:1030E0009383828380819181E80EF91E0E191F0956
:1030F000780117FF03C0F7E0EF0EF11C83E0F594B1
:10310000E7948A95E1F78E2D880F880F880F081BAA
:1031100094E0892E912C6FEF27E0C22ED12CAA24A7
:10312000A394B12CC601801B9109950102C0220F06
:10313000331F8A95E2F7C901809568230F5F083035
:1031400060F0F101808191818E0D9F1D0E94F41429
:10315000FFEFEF1AFF0A6FEF00E021E0821A9108FB
:1031600009F76F3F39F0F101808191818E0D9F1D2C
:103170000E94F4140F900F900F900F90DF91CF9159
:103180001F910F91FF90EF90DF90CF90BF90AF9085
:103190009F908F907F906F905F904F903F902F9077
:1031A00008950F931F93CF93DF9300D0CDB7DEB771
:1031B0008B019A838983FB016081CE0101960E9475
:1031C000C217C8010F900F90DF91CF911F910F91FF
:1031D00008952F923F924F925F926F927F928F92BB
:1031E0009F92AF92BF92CF92DF92EF92FF920F9396
:1031F0001F93CF93DF9300D000D01F92CDB7DEB7DF
:1032000010921501109214011092130161E082E0F6
:103210000E94110C61E085E00E94110C61E082E0E7
:103220000E94E30B80910E0181508A3018F084E0F7
:1032300080930E018091E5039091E60397FD08C00D
:1032400061E00E94110C60E08091E5030E94E30BB5
:1032500081E08093E00362E370E080E090E00E9410
:10326000140F61E085E00E94E30B61E089E00E94B9
:10327000110C62E080E10E94110C0E94351082E086
:1032800090E09093CC038093CB038CE090E00E947D
:103290006D33FC019093CA038093C90381E090E0F1
:1032A0009183808382EE91E09583848383EC93E025
:1032B0009187808790E080E00E94CF148D831A82EE
:1032C000198263E0CE0101960E94C217F12CE12C15
:1032D000D12CC12C0091C9031091CA030E0D1F1DE2
:1032E0008091CB039091CC03C816D9060CF087C00F
:1032F000C6010E94390A1C012D81233031F0BC0126
:10330000F801808191810E94D1148091C90390912C
:10331000CA039C012E0D3F1D3C832B83F901A08025
:10332000B1802A0C3B1C2101F1E04F1A51083201F7
:1033300045018FEF0FEF1FEF68147904DCF0830174
:103340000819190915950795080D191DC8010E943E
:10335000CF149FEF980F9E3FC8F0811105C0480120
:103360002FEF821A920AE8CF380131E0631A710810
:103370008FEFE2CF811117C0041515053CF40F5FE4
:103380001F4FC8010E94CF148823B1F3C8010E94C7
:10339000CF1427E030E091E0482F4923A1F0990FA6
:1033A00021503109F9CF0A151B053CF001501109D4
:1033B000C8010E94CF148F3FB1F30415150534F7EF
:1033C0000F5F1F4FE3CF0A191B0993E0000F111F76
:1033D0009A95E1F7020F131F0F3F100769F0020DD6
:1033E000131DEB81FC8113830283FFEFCF1ADF0AE9
:1033F00024E0E20EF11C6ECF0FEF1FEFF2CF8FEF44
:103400009FEFF801938382836EEF72E08CEF93E07D
:103410000E9426158DEF93E00E9461318093010395
:103420008EEF93E00E946131809302031982BE0106
:103430006F5F7F4F8BEF93E00E94D11862EA72E0DA
:103440008BEF93E00E94261563E073E090E080E04C
:103450000E9497148091030390910403A0910503A7
:10346000B09106030196A11DB11D809303039093B3
:103470000403A0930503B09306038091CB039091BE
:10348000CC031816190634F463E073E090E080E092
:103490000E94DB1767E073E081E090E00E949714E0
:1034A0008FEF93E00E94CF148E3141F0885182302B
:1034B00028F069E18FEF93E00E94C0178CEF93E052
:1034C0000E94CF14823028F060E08CEF93E00E94DD
:1034D000C0170E94BF0B892B89F48FEF93E00E94E5
:1034E000CF146EE1893131F068E18E3119F0883105
:1034F00029F469E18FEF93E00E94C0176AEF72E050
:103500008FEF93E00E941C156EE073E089EF93E06B
:103510000E941C1580910E03853010F010920E034E
:1035200064E170E080E090E00E94140FF8948091D4
:103530006800886080936800809173008860809341
:103540007300789461E08AE00E94110C60E08AE0E8
:103550000E94E30B6AE070E080E090E00E94140FAC
:1035600061E08AE00E94E30B6AE070E080E090E0B6
:103570000E94140F87E18093070486E1809308047A
:1035800061E087E10E94110C61E0809108040E94D3
:10359000110C1FB7F89480919F02811127C0EAE3B4
:1035A000F3E18491E6E1F3E19491E82FF0E0EE0F8E
:1035B000FF1FED51FF4FA591B491EC91E92321F448
:1035C00061E08AE00E94E30B61E08AE00E94110C56
:1035D0008CB580618CBD8CB580648CBD61E08DE064
:1035E0000E94110C61E08BE00E94110C80919F02FF
:1035F0008F5F80939F021FBF1092F9031092FA030E
:10360000EDECF0E0C590D490EFECF0E0F490E0ED5C
:10361000F0E0E491E093FB03E1EDF0E0E491E0936E
:10362000FC03E2EDF0E0E491E093FD0310E000E044
:103630000F1558F4F801EC0DFD1D649185EF93E032
:103640000E9442110F5F1F4FF3CF85EF93E00E945E
:1036500047136BED85EF93E00E94421160E785EF21
:1036600093E00E94421161E885EF93E00E944211CD
:103670006FEF85EF93E00E94421162E370E080E01B
:1036800090E00E94140F85E79BE00E94790F81E093
:1036900080931601809302011092B7021092B60235
:1036A0001092B5021092B1021092B4020E94460F1D
:1036B00060937604709377048093780490937904F0
:1036C0001092B3021092B20280917A008F7D8093A3
:1036D0007A0087E880937A0061E087E00E94110C0D
:1036E00061E087E00E94E30BF894109290008AE07A
:1036F0008093910082E0809371008091FA0288317A
:1037000051F481EC92EA9093990080939800909301
:10371000A1028093A0028091FA02893151F48FE3D3
:103720009CE990939900809398009093A1028093D4
:10373000A0028091FA028E3151F484E392E89093D2
:103740009900809398009093A1028093A0027894AE
:1037500082E090E090930A01809309011092810029
:1037600081E080930F010F900F900F900F900F90BA
:10377000DF91CF911F910F91FF90EF90DF90CF904D
:10378000BF90AF909F908F907F906F905F904F9081
:103790003F902F9008950F931F93CF9380919502A0
:1037A000882391F010929502109294021092930245
:1037B0001092FF020E941C0E60938F027093900281
:1037C00080939102909392028091080181115AC0D6
:1037D00080919402811128C08091FE02811109C05C
:1037E00080910003811105C067EA85EF93E00E9494
:1037F000421180919302811112C081E08093930263
:103800008091FC02882309F487C141E06AE285EFD8
:1038100093E00E946F1187E991E00E9403140E94D7
:10382000361681E0809394020E941C0E00918F0254
:10383000109190022091910230919202AB01BC0153
:10384000401B510B620B730B80910B0190910C018B
:10385000092E000CAA0BBB0B481759076A077B07F8
:1038600088F00E941C0E60938F02709390028093E8
:103870009102909392020E94081466EA85EF93E009
:103880000E94421180910801813061F4909194026C
:10389000911108C0809394020E9417140E943D1455
:1038A0000E941D178091080181508C3090F5809105
:1038B0009402811105C081E0809394020E941D173B
:1038C0000E941C0E00918F02109190022091910293
:1038D00030919202AB01BC01401B510B620B730B88
:1038E00080910B0190910C01092E000CAA0BBB0BCF
:1038F000481759076A077B0760F00E941C0E609307
:103900008F027093900280939102909392020E9492
:103910000814809108018C3009F055C08091FB0299
:10392000882309F450C080918E0281114CC043E07D
:103930006EE185EF93E00E946F1185EF93E00E94A6
:10394000B6118EE891E00E940314809188028111E3
:1039500017C00E94B02F23E130E040E050E00E9409
:1039600077316F5F7F4F8F4F9F4F60938A027093C5
:103970008B0280938C0290938D0281E08093880269
:103980008091090190910A019093070180930601AB
:1039900080918A0290918B02880F991F90930A015F
:1039A0008093090181E080938E0290910801292F74
:1039B00030E09C5040E050E0BA019D3008F0B5C0C6
:1039C000C9010E94D009809108018D3009F061C0C1
:1039D0008091FB02882381F082E090E090930A01BD
:1039E0008093090143E060E085EF93E00E946F114E
:1039F00085EF93E00E94B61180919402811111C06D
:103A000081E0809394021092FF0245E066E485EF26
:103A100093E00E946F1185EF93E00E94B6110E941F
:103A200029140E9447102AE930E0DC010E94663325
:103A3000653D7E4F8F4F9F4F0CF47DC00E94471015
:103A40002AE930E0DC010E946633643A754B810557
:103A500091050CF073C00E9447102AE930E0DC01A8
:103A60000E9466332CE231E040E050E00E94773162
:103A70002C593F4F4F4F5F4F30930101209300016E
:103A80000E9447108B3892400CF45BC081E0809319
:103A90008902809108018E3011F410928E028D50AF
:103AA0008C30B0F580919402811107C0C1E0C093C1
:103AB00094020E943616C09394020E941C0E00913C
:103AC0008F02109190022091910230919202AB01ED
:103AD000BC01401B510B620B730B80910B01909149
:103AE0000C01092E000CAA0BBB0B481759076A07DB
:103AF0007B0760F00E941C0E60938F02709390020F
:103B000080939102909392020E940814109288026E
:103B1000CF911F910F91089545E066E485EF93E002
:103B20000E946F1188E891E078CEC9010E94D00907
:103B30000E94410E48CF24E630E09ECF2EEF30E0C9
:103B40009BCF10928902A5CF1F920F920FB60F92B2
:103B500011242F933F934F935F936F937F938F9392
:103B60009F93AF93BF93EF93FF9380912003909126
:103B70002103A0912203B0912303892B8A2B8B2B45
:103B8000D1F190911303E0911403F091150380811A
:103B9000892780838091200390912103A0912203A3
:103BA000B0912303181619061A061B069CF480917F
:103BB000200390912103A0912203B0912303019748
:103BC000A109B1098093200390932103A0932203BC
:103BD000B0932303FF91EF91BF91AF919F918F918C
:103BE0007F916F915F914F913F912F910F900FBEF9
:103BF0000F901F90189580911701EBE0F3E1E4918D
:103C00009FEF90931701E230E1F040F4EE2381F052
:103C1000E13089F060E00E94E30BDCCFE33011F18A
:103C2000E430C1F7909172009D7F90937200F2CFC3
:103C300010926E00EFCF90916F009D7F90936F0078
:103C4000E9CF909170009D7F9093700091E09093E8
:103C5000B0009091B100987F94609093B100109261
:103C6000B300D8CF909171009D7F90937100D2CF17
:103C70001F920F920FB60F9211242F933F934F93E1
:103C80005F936F937F938F939F93AF93BF93EF93C4
:103C9000FF938CE293E00E94D30AFF91EF91BF91D2
:103CA000AF919F918F917F916F915F914F913F91D4
:103CB0002F910F900FBE0F901F9018951F920F928B
:103CC0000FB60F9211242F938F939F93EF93FF932F
:103CD000E0913C03F0913D038081E0914203F0913B
:103CE000430382FD1BC09081809145038F5F8F73DA
:103CF00020914603821741F0E0914503F0E0E45D36
:103D0000FC4F958F80934503FF91EF919F918F9189
:103D10002F910F900FBE0F901F9018958081F4CFB8
:103D20001F920F920FB60F9211242F933F938F93F0
:103D30009F93AF93BF938091A4029091A502A0910D
:103D4000A602B091A7023091A30223E0230F2D37E2
:103D500058F50196A11DB11D2093A3028093A402E2
:103D60009093A502A093A602B093A7028091A80207
:103D70009091A902A091AA02B091AB020196A11D57
:103D8000B11D8093A8029093A902A093AA02B093B8
:103D9000AB02BF91AF919F918F913F912F910F9067
:103DA0000FBE0F901F90189526E8230F0296A11DB5
:103DB000B11DD2CF1F920F920FB60F9211242F93E5
:103DC0003F934F935F936F938F939F93AF93BF9363
:103DD000EF93FF9380910301882309F46DC08091D4
:103DE0006D02882309F495C0809179008455990B60
:103DF00090936C0280936B0220916B0230916C0265
:103E000040910E01429FC001439F900D1124909359
:103E10006C0280936B028091E7029091E802A0917E
:103E2000E902B091EA024091690250916A02480F9A
:103E3000591F50936A024093690220916B0230919E
:103E40006C0257FF02C02095309580916B029091D3
:103E50006C0240E4450F47FF02C080959095409169
:103E60009C0250919D0260919802E0919C02F09119
:103E70009D02062E02C0559547950A94E2F7241B31
:103E8000350B2E0F3F1F30939D0220939C022091F3
:103E90009A0230919B0240919A0250919B0202C07B
:103EA000359527956A95E2F7821B930B840F951F32
:103EB00090939B0280939A028091DF028823C9F03D
:103EC000909178008091790089279827892790938D
:103ED000C7028093C60281E0809397028091C60258
:103EE0009091C7028E3F934024F01092C702109227
:103EF000C602FF91EF91BF91AF919F918F916F910A
:103F00005F914F913F912F910F900FBE0F901F9097
:103F10001895809179008058990B79CF1F920F9254
:103F20000FB60F9211248F939F9380916D0491E0AF
:103F3000892780936D049F918F910F900FBE0F90F2
:103F40001F9018951F920F920FB60F921124CF92C7
:103F5000DF92EF92FF920F931F932F933F934F9314
:103F60005F936F937F938F939F93AF93BF93EF93E1
:103F7000FF938091C9029091CA0201969093CA0260
:103F80008093C90280916702909168020196909394
:103F90006802809367022091C9023091CA02809121
:103FA000090190910A012817390708F448C1809146
:103FB00008011092CA021092C90291E090939502F2
:103FC0008F5F893108F064C18093080180910801F6
:103FD000811152C085B191E0892785B9109266029E
:103FE00010926502809113018823E1F00E94460F30
:103FF0006093D6027093D7028093D8029093D9022F
:1040000048E050E060E070E080EA9AE00E944D0CE9
:104010000E941C0E6093610270936202809363029F
:104020009093640280911401882331F18091FE0203
:10403000882309F430C18091000381112CC181E0F3
:1040400080930D0310E000E044E654E664E670E07F
:10405000C8010E94D0090F5F1F4F0A311105A1F757
:104060000E94410E0E94460F60937A0470937B0475
:1040700080937C0490937D04809108018C3011F52D
:104080008091FB02811126C18091090190910A0162
:1040900090930701809306018091FA028E3151F4CA
:1040A000809100038111FAC08CE090E090930A01A6
:1040B000809309018091FA02883109F00BC18DE0EB
:1040C00080930801809108018D3009F061C0209132
:1040D00006013091070130930A0120930901909164
:1040E000FA029931D9F49091B002209101033091F4
:1040F00002034091A0025091A102992309F4D1C07A
:1041000037FF02C021583F4F220F232F221F330BAE
:10411000240F351F30939900209398009091FA0254
:104120009E31C9F420910103309102034091A00215
:104130005091A10237FF02C0295F3F4FA3E03595A0
:104140002795AA95E1F74C5E5F4F240F351F3093FA
:104150009900209398009091FA029831C9F4209127
:104160000103309102034091A0025091A10237FF58
:1041700002C0295F3F4FF3E035952795FA95E1F7A7
:10418000405E5F4F240F351F3093990020939800B5
:1041900090911501992309F452C09FEF980F9C301C
:1041A000A0F491E090930D0390918902992309F472
:1041B00082C00E94A0100E94460F60937A04709300
:1041C0007B0480937C0490937D04809108018C3063
:1041D00039F49091FA029E3119F491E090936002C3
:1041E00093EF980F9D3058F540910001C42ED12CCB
:1041F000F12CE12CB6015527442790E0209189024B
:10420000222361F03E2D2D2D1C2D0027402B512BFC
:10421000622B732B4C295D296E297F290E94D009BE
:104220000E94410E81E080930D030E94460F60932F
:104230007A0470937B0480937C0490937D04809136
:1042400008018D3071F48091C9029091CA020197E2
:1042500041F48091A0029091A102909399008093E3
:104260009800FF91EF91BF91AF919F918F917F91B6
:104270006F915F914F913F912F911F910F91FF90FF
:10428000EF90DF90CF900F900FBE0F901F9018957A
:10429000109208019BCE0E94A010EECE86E090E026
:1042A00005CF37FF02C0295F3F4FB3E03595279513
:1042B000BA95E1F72DCF4091000150E070E060E049
:1042C000762F652F542F442790E00E94D0090E943A
:1042D000410E71CF8CE05CCFFC0111821082138201
:1042E000128215821482FB0101900020E9F73197B8
:1042F000AF01461B570B0C94C31510922F0310925D
:104300002E0388EE93E0A0E0B0E08093300390931A
:104310003103A0933203B093330382E391E090938F
:104320002D0380932C0385EC90E0909339038093C8
:10433000380384EC90E090933B0380933A0380EC45
:1043400090E090933D0380933C0381EC90E0909348
:104350003F0380933E0382EC90E09093410380936F
:10436000400386EC90E090934303809342031092C5
:10437000450310924603109247031092480310928F
:10438000CC031092CB03ADECB3E0EEE0F0E091E2B1
:104390009093570084918D933196E831F105C1F7E0
:1043A00064E971E080E994E00E946C216BE671E0C1
:1043B0008AE894E00E946C216BE671E084E894E066
:1043C0000E946C216BE671E08EE794E00E946C2104
:1043D0000E94460F60937A0470937B0480937C0460
:1043E00090937D040E94460F609376047093770447
:1043F00080937804909379040E94460F609372042E
:104400007093730480937404909375040E94460F14
:104410000E94460F60936E0470936F048093700443
:104420009093710480916D0480936C040E94460FF8
:104430008AE080930A0410920B0410920C041092EC
:104440000904E9E5F4E080E081938F5F8A30E1F7C9
:104450000E94460F0E94460F1092F8031092F70335
:1044600010920104109202041092040410920304AA
:104470001092050481E08093060424E431E0309337
:10448000F6032093F5031092E0031092E7031092D5
:10449000EE031092EF031092F0031092F103809359
:1044A000ED038093EA031092EB0392E09093EC0308
:1044B0008093DF038BE490E09093E4038093E30325
:1044C0000E946D339093E9038093E803009709F409
:1044D00050C02BE4FC0111922A95E9F789E190E0A4
:1044E0009093E2038093E1038FE090E09093E603E2
:1044F0008093E5038091E003882341F061E08FE041
:104500000E94110C60E08FE00E94E30BEFE3F3E107
:10451000E491F0E0EE0FFF1FEC5DFC4E859194916D
:104520009093F3038093F203EBE1F3E1E491E093E2
:10453000F4030E94460F6093DB037093DC038093C7
:10454000DD039093DE030E94460F6093D7037093C0
:10455000D8038093D9039093DA030E94460F0E94F8
:10456000460F0E94460F0E94460F0E94460F0C9471
:10457000460F1092E4031092E3031092E2031092AC
:10458000E103B2CFCF93DF9300D000D000D0CDB7FE
:10459000DEB7789484B5826084BD84B5816084BDC3
:1045A00085B5826085BD85B5816085BD80916E00D1
:1045B000816080936E001092810080918100826002
:1045C000809381008091810081608093810080913F
:1045D00080008160809380008091B100846080932E
:1045E000B1008091B00081608093B0008091910013
:1045F000826080939100809191008160809391000E
:10460000809190008160809390008091A1008260F1
:104610008093A1008091A10081608093A10080918E
:10462000A00081608093A00080917A0084608093D4
:104630007A0080917A00826080937A0080917A007B
:10464000816080937A0080917A00806880937A00FC
:104650001092C100209A17BE0E94E91890916D0433
:1046600080916C04981749F080916D0480936C04DC
:104670000E94460F81E08093AC028091AC028823B7
:1046800059F00E94460F0E94460F1092AC0281E042
:10469000639B92C280930F0380911003882309F4D7
:1046A0007FC01092100364E170E080E090E00E940F
:1046B000140F8091FD02811148C0109215011092D3
:1046C0001401809168008860809368008091730075
:1046D00088608093730060E085E00E94E30B64E1F2
:1046E00070E080E090E00E94140F60E082E00E94A1
:1046F000E30B64E170E080E090E00E94140F83B768
:10470000817F846083BFF89410927A008091640066
:104710008FEF80936400809165008D6380936500C6
:1047200083B7816083BF80E685BF80E485BF7894CE
:10473000889583B78E7F83BF809164001092640058
:1047400080916500827C809365008091FD028823C2
:1047500039F18091AD02811123C0109215011092A0
:1047600014011092130184E080936900E99A60E0DB
:1047700085E00E94E30B64E170E080E090E00E943D
:10478000140F60E082E00E94E30B81E08093AD02B1
:104790008093B0028093AE021092AF020E94460F47
:1047A00080910F038823D9F010920F031092B0026A
:1047B00081E08093AF021092AE0280916800886021
:1047C00080936800809173008860809373001092DA
:1047D0001501109214011092AD020E94E918809107
:1047E0001601882309F477C280910201882309F415
:1047F00071C08091B702811149C00E94460F609339
:104800006E0470936F04809370049093710485EF2D
:1048100093E00E9447138FEE90E00E94790F40E0F2
:1048200060E085EF93E00E946F1189E991E00E94BA
:10483000031485E79BE00E94790F45E060E085EF77
:1048400093E00E946F116091FA0270E090E080E0C6
:104850004AE00E948D1345E067E185EF93E00E94F6
:104860006F1181EA91E00E94031445E066E485EF50
:1048700093E00E946F1185EA91E00E94031480E9A1
:1048800094E00E94830A81E08093B7020E94460F61
:1048900000916E0410916F042091700430917104A6
:1048A000601B710B820B930B6C3D7540810591056C
:1048B00088F00E94460F60936E0470936F0480939B
:1048C0007004909371041092B7021092020181E07B
:1048D0008093B6028091B602882309F499C0809132
:1048E000B70281116BC00E94460F60936E047093F3
:1048F0006F04809370049093710485EF93E00E949D
:10490000471385E79BE00E94790FFF24F394F09210
:10491000FE030E948A0F8C016091FB0370E0681B0C
:10492000790B7695679540E085EF93E00E946F11D3
:104930006BE671E085EF93E00E9467146091FB03E2
:1049400070E0601B710B7695679542E085EF93E010
:104950000E946F116BE671E085EF93E00E9467148F
:104960001092FE036091FB0370E0601B710B769563
:10497000679544E085EF93E00E946F116BE671E06C
:1049800085EF93E00E9467146091FB0370E0601B69
:10499000710B7695679546E085EF93E00E946F1165
:1049A0006BE671E085EF93E00E946714F092FE03DE
:1049B00085E79BE00E94790FF092B7020E94460FB4
:1049C00000916E0410916F04209170043091710475
:1049D000601B710B820B930B64337840810591054A
:1049E000B8F00E94460F60936E0470936F0480933A
:1049F0007004909371041092B70210920201109209
:104A0000B60281E08093B50285EF93E00E944713E0
:104A10008091B502882309F45BC18091B7028111AE
:104A20000DC081E08093B7020E94460F60936E0430
:104A300070936F0480937004909371049AE0F92E40
:104A400010E000E085E10E940A0E080F191FFA9499
:104A5000F110F8CFB801110F880B990B0E94443068
:104A600020E030E040E251E40E947E3220E030E07D
:104A700040EA50E40E94A33020E030E040E85AE3EE
:104A80000E94A3309B01AC010E94123220E030E072
:104A900048EC52E40E94A3300E94F0324B015C01CA
:104AA00048E5841A42E0940AA108B108AAE1B0E0FE
:104AB000A50194010E9496312CE231E040E050E0E3
:104AC0000E947731CA01B9010E9444306B017C0118
:104AD0008091B402811141C081E08093B40241E031
:104AE00069E185EF93E00E946F118FEE90E00E94E4
:104AF000790FA4E6B0E0A50194010E9496312CE262
:104B000031E040E050E00E947731C901253631059F
:104B100014F084E690E097FF02C090E080E00E94ED
:104B2000D31387EA91E00E94031420E030E0A9014A
:104B3000C701B6010E94263345E018160CF03FC0AD
:104B400069E185EF93E00E946F1185E79BE00E9489
:104B5000790F89EA91E00E94031420E030E0A90176
:104B6000C701B6010E943D3018160CF441C00E94E6
:104B7000460F8091B10281113BC00E94460F81E037
:104B80008093B1026FEB71E08CE293E00E946714B6
:104B900010920801109108011A3120F540E050E010
:104BA0006AE070E0812F90E00E94D0090E94410EDF
:104BB0001F5F10930801EECF809310036DCD60E06E
:104BC00085EF93E00E946F1185E79BE00E94790FCB
:104BD0001092FE0381EB91E00E94031481E0809328
:104BE000FE03BBCF68EE73E080E090E00E94140FFC
:104BF0000E94460F0091760410917704209178046A
:104C000030917904601B710B820B930B6F3071052F
:104C10008105910590F10E94460F60937604709390
:104C2000770480937804909379040091B2021091F4
:104C3000B302B801012E000C880B990B0E9444307E
:104C40009B01AC01C701B6010E94263344E150E04C
:104C500060E070E018161CF040E050E0BA01C801B6
:104C60000E94D0090E94410E0A31110534F40F5FF1
:104C70001F4F1093B3020093B2020E94460F00919F
:104C80006E0410916F042091700430917104601BC8
:104C9000710B820B930B603D774081059105C0F04D
:104CA0000E94460F60936E0470936F0480937004AB
:104CB000909371041092B702109202011092B60202
:104CC0001092B5021092160185EF93E00E944713EF
:104CD0000E94620BC3CC0E94BF0B90930C03809385
:104CE0000B03009709F060C18091100190911101B0
:104CF000019791F40E94460F6B3071058105910573
:104D000058F00E94460F2B013C0180910B039091BB
:104D10000C03892B09F029C10E94460F64197509FB
:104D200086099709653F71408105910508F41DC109
:104D300080911501811110921501109214011092A9
:104D4000130185EF93E00E9447130E94351085E719
:104D50009BE00E94790F1092FE0340E060E085EF37
:104D600093E00E946F1162E271E085EF93E00E9490
:104D7000671486EC91E00E9403148AE894E00E9494
:104D8000830A69E671E085EF93E00E947E1384E870
:104D900094E00E94830A69E671E085EF93E00E9447
:104DA0007E138EE794E00E94830A60ED77E080E056
:104DB00090E00E94140F85E79BE00E94790F85EF39
:104DC00093E00E94471340E060E085EF93E00E948B
:104DD0006F1189EC91E00E940314609107037091B8
:104DE00008038091090390910A034AE00E948D1301
:104DF0006EEC71E085EF93E00E94671482ED91E024
:104E00000E940314609103037091040380910503D1
:104E1000909106034AE00E948D1369E671E085EFE8
:104E200093E00E947E1388ED91E00E94031480912C
:104E30000103909102030E94D3138FED91E00E9431
:104E4000031460910E0170E090E080E04AE00E945F
:104E50008D1360ED77E080E090E00E94140F809168
:104E60000E03815080930E0385EF93E00E94471359
:104E700011E01093FE03109200031092FF020E94B3
:104E8000331480910B0390910C03892B09F06DC0B2
:104E90000E94460F641975098609970961377741A1
:104EA0008105910508F461C08091FE028111A8C0BE
:104EB0001983BE016F5F7F4F8CEF93E00E94D11882
:104EC00042E350E060E070E084EF91E00E944D0C1E
:104ED0001092150185EF93E00E9447130E94351050
:104EE00041E06AE085EF93E00E946F1182EE91E06D
:104EF0000E94031443E06AE085EF93E00E946F1183
:104F00008DEE91E00E9403148FE899E00E94790FE2
:104F100046E060E085EF93E00E946F110DEC13E036
:104F200087EDE82E83E0F82EF80181918F01803122
:104F300020F487E991E00E940314F8013197608121
:104F400070E090E080E040E10E948D13E016F106F1
:104F500059F785E79BE00E94790F60ED77E080E0EC
:104F600090E00E94140F0C94000080910B0390912C
:104F70000C039093110180931001E0910E03ED302A
:104F800008F0A6CEF0E0E953F84D0C94583302280F
:104F9000AD28EA286229A529282F302F302F302F5D
:104FA000302F302F372F3D2F0197F9F680911001C8
:104FB00090911101892BC9F60E94460F6419750959
:104FC000860997096B3071058105910570F281E0C2
:104FD00080930F0180910E038F5F80930E038530C5
:104FE00010F010920E030E94460F89EF93E09A830F
:104FF000898360910E03CE0101960E94C21785CE6F
:10500000198257CF80910F018823E9F11092810016
:1050100080917A008F7D80937A0087E880937A0070
:1050200066EA85EF93E00E94421185EF93E00E94CB
:1050300047130E94331481E080931501809314017B
:105040008093130180930D01109200031092FD02D2
:105050001092FC021092FB0288EA91E690930C01F8
:1050600080930B0182E18093120143E060E085EFC1
:1050700093E00E946F1185EF93E00E94B6110E94A9
:105080003D1410920F010E94CB1B809115018111DC
:1050900004C080911401882311F180910D038823AD
:1050A000F1F00E94460F00917A0410917B04209148
:1050B0007C0430917D04AB01BC01401B510B620BA1
:1050C000730B8091120190E0B0E0A0E048175907FF
:1050D0006A077B0720F010920D030E9435100E9492
:1050E000460F009172041091730420917404309162
:1050F0007504601B710B820B930B60367A4E810531
:10510000910508F4E5CD8091070390910803A091E3
:105110000903B0910A030196A11DB11D80930703F5
:1051200090930803A0930903B0930A038091CB03E3
:105130009091CC03029734F067E073E081E090E057
:105140000E94DB170E94460F6093720470937304F1
:105150008093740490937504BBCD80910F018823D4
:1051600009F491CF1092810011E010931501109372
:1051700014011093130166EA85EF93E00E94421137
:105180000E94331481E090E090930A01809309011A
:105190008AE08093120110920D0110930003109287
:1051A000FC021092FB021092FD0241E061E085EFEB
:1051B00093E00E946F1185EF93E00E94B61143E0E7
:1051C00062E185EF93E00E946F1185EF91E00E940C
:1051D000031457CF80910F01882309F454CF109204
:1051E000810011E010931501109314011093130125
:1051F00066EA85EF93E00E9442110E9433141092F8
:105200000D0143E060E085EF93E00E946F1185EFB0
:1052100093E00E94B6111092FF0280E197E2909312
:105220000C0180930B0182E18093120110920D0119
:10523000109200031093FC021092FB021092FD02E8
:105240008091FA028E3131F42EE130E030930A0180
:10525000209309018091FA02883171F588E190E08C
:1052600090930A018093090141E061E085EF93E0AA
:105270000E946F1185EF93E00E94B61143E063E254
:1052800085EF93E00E946F118EEF91E00E9403146E
:1052900045E065E085EF93E00E946F1183E092E0C6
:1052A0000E9403140E943D14809108018D508C309F
:1052B00030F40E942914E5CE89E190E0D1CF0E941C
:1052C0001714DFCE80910F01882309F4DCCE1092F1
:1052D000810011E010931501109314011093130134
:1052E00066EA85EF93E00E9442110E94331443E086
:1052F00060E085EF93E00E946F1185EF93E00E94DC
:10530000B61188EA91E690930C0180930B0182E13B
:105310008093120110920D01109200031092FC0272
:105320001092FD021093FB0242E050E050930A01FC
:105330004093090141E061E085EF93E00E946F1125
:1053400085EF93E00E94B6119CCE10921501109249
:1053500014011092130180910F01882349F11092DA
:10536000810010920F0166EA85EF93E00E944211DE
:105370000E947B140E9435100E94B9101092FB020B
:105380001092FD020E94460F6093D7037093D803DA
:105390008093D9039093DA030E94EF1082E090E0AB
:1053A00090930A018093090190930701809306016D
:1053B0000E94460F0091D7031091D8032091D90382
:1053C0003091DA03601B710B820B930B68357B41C4
:1053D0008105910520F10E94460F6093D7037093D9
:1053E000D8038093D9039093DA030E9435100E946A
:1053F000EF100E947B141092F9021092F8021092A2
:10540000F702EEE1F0E0F0930501E0930401109261
:10541000F6021092F5021092F4021092F3028091BB
:105420000301882309F4D7C10E94460FC090BA0235
:10543000D090BB02E090BC02F090BD026C197D09D7
:105440008E099F096436710581059105D0F00E948F
:10545000460F6C197D098E099F09653873408105D7
:10546000910578F48091B8029091B90220910401DD
:10547000309105018217930724F0909305018093E2
:1054800004010E948D0F9093B9028093B80220917D
:10549000F7023091F8028217930720F09093F802F8
:1054A0008093F7020E94AD0F8823D9F08091E60225
:1054B000811117C081E08093E6020E941C0E609368
:1054C000E2027093E3028093E4029093E50210926B
:1054D000F8021092F7022EE130E03093050120939C
:1054E00004010E94460FC090DB03D090DC03E090E3
:1054F000DD03F090DE036C197D098E099F09603B86
:1055000074408105910550F01092F8021092F70254
:105510004EE150E050930501409304010E94460F74
:105520006C197D098E099F09683B7B4081059105B7
:1055300008F45CC00E94460F6093DB037093DC03A9
:105540008093DD039093DE0320E030E04AE255E4EF
:105550006091EF027091F0028091F1029091F2025D
:105560000E943D308111FDC280E090E0AAEAB5E4DE
:105570008093EF029093F002A093F102B093F202B5
:1055800081E08093F9022091EB023091EC0240918E
:10559000ED025091EE026091EF027091F002809165
:1055A000F1029091F2020E947E3220E030E040E869
:1055B00057E40E94A3306B017C0120E030E0A90198
:1055C0000E94263320E030E040E05FE387FDD8C250
:1055D000C701B6010E9412320E94F0326093E702C6
:1055E0007093E8028093E9029093EA028091E602C8
:1055F000882309F4CDC00E94460F6093DB037093AB
:10560000DC038093DD039093DE030E941C0EC090A8
:10561000E202D090E302E090E402F090E5026C191F
:105620007D098E099F09603A7B4B8D40910508F4F6
:10563000AFC00E94AD0F882309F495C00E94460FA9
:105640000091C2021091C3022091C4023091C502A0
:10565000601B710B820B930B623371058105910501
:1056600008F481C00E941C0E9B01AC012C193D095D
:105670004E095F0969017A01C092CC02D092CD0235
:10568000E092CE02F092CF026093E2027093E302C6
:105690008093E4029093E5020E94460F6093BA0261
:1056A0007093BB028093BC029093BD024EE150E028
:1056B000509305014093040150EFC51A5EE7D50AE7
:1056C0005EE0E50AF10881EAC81686E8D80681E0BE
:1056D000E806F104D0F58091E0029091E1029C018E
:1056E0002F5F3F4F3093E1022093E0020A96209112
:1056F000F90240E050E064E670E0222321F040E04F
:1057000054E164E670E00E94D0090E94410E0E94BC
:10571000460F6093BA027093BB028093BC029093D1
:10572000BD020E94460F6093D7037093D803809305
:10573000D9039093DA030E94460F6093C2027093DC
:10574000C3028093C4029093C5021092E6021092A5
:10575000D5020E94460F6093D6027093D7028093C1
:10576000D8029093D9020E941C0E0091E20210917F
:10577000E3022091E4023091E502601B710B820B81
:10578000930B603E784C8041910510F01092E60238
:105790008091E0029091E1020297ECF01092E10218
:1057A0001092E00286E480937C0080917C008F7DE3
:1057B00080937C001092030181E08093DF021092BD
:1057C000E1021092E0021092CC021092CD021092EF
:1057D000CE021092CF028091DF02882309F4BFC26B
:1057E0000E94460F0091D6021091D7022091D80254
:1057F0003091D902601B710B820B930B6C3271409C
:105800008105910598F18091CB0281112FC0E4EFC1
:10581000F1E0F093F402E093F30244EF51E060E032
:1058200070E0CB010091C6021091C702012E000C5E
:10583000220B330B600F711F821F931F41505109C0
:1058400089F724EF31E040E050E00E94E0313093EE
:10585000F4022093F3028091F3029091F40281E02C
:105860008093CB028091F3029091F4020E94E60FA4
:105870008823D9F08091DE02811117C01092F602C0
:105880001092F5021092C8028091C6029091C70250
:1058900081E08093DE020E941C0E6093DA02709316
:1058A000DB028093DC029093DD028091DE0288238C
:1058B00009F4B4C00E941C0EC090DA02D090DB0242
:1058C000E090DC02F090DD026C197D098E099F09E1
:1058D000603A7B4B8D40910508F4A0C00E94E60F12
:1058E000882309F486C00E941C0E9B01AC012C1970
:1058F0003D094E095F0969017A01C092CC02D0923C
:10590000CD02E092CE02F092CF026093DA02709361
:10591000DB028093DC029093DD020E94460F10921E
:10592000CB0230EFC31A3EE7D30A3EE0E30AF108A8
:1059300041EAC41646E8D40641E0E406F10408F062
:105940004AC08091E0029091E10201969093E102B9
:105950008093E00282309105F9F4F894109291005E
:105960001092950010929400C19A2AE02093910021
:10597000209171002260209371001092CA0210924F
:10598000C9021092080190930A018093090178944A
:1059900085B191E0892785B98BB192E089278BB9D0
:1059A00085B191E0892785B98091E0029091E1026B
:1059B00044E650E060E070E00B960E94D0090E943F
:1059C000410E0E94460F6093D7037093D8038093D3
:1059D000D9039093DA031092DE021092D5020E944E
:1059E000460F6093D6027093D7028093D8029093AB
:1059F000D9020E941C0E0091DA021091DB02209164
:105A0000DC023091DD02601B710B820B930B603E58
:105A1000784C8041910510F01092DE028091E002F6
:105A20009091E10202970CF49AC10E94EF108091CC
:105A3000D3029091D4029093D2028093D1026091CC
:105A4000DA027091DB028091DC029091DD0200911C
:105A5000E2021091E3022091E4023091E502601B22
:105A6000710B820B930B20E432E44FE050E00E9474
:105A7000E03128EE33E040E050E00E94E031C9011F
:105A80003093D4022093D302255E33402730310572
:105A900018F003970CF079C081E08093D00267EA98
:105AA00085EF93E00E94421185EF93E00E94471337
:105AB0002091D3023091D4028091D1029091D202F0
:105AC000821B930B97FF03C09195819591098431B7
:105AD000910524F0855D9340879798F5C901845F0F
