:100000000C94A6090C94CE090C94CE090C94CE093C
:100010000C94CE090C94CE090C94CE090C94B91D05
:100020000C94CE090C94CE090C94CE090C94CE09F4
:100030000C94CE090C94CE090C94CE090C94CE09E4
:100040000C94A51E0C94CE090C94731E0C944D1E9A
:100050000C94CE090C94EF1E0C94CE090C94CE098E
:100060000C94CE090C94CE090C94CE090C94A31FC9
:100070000C94CE090C94CE090C94CE090C94CE09A4
:100080000C94CE090C94B71F0C94CE090C94CE0995
:100090000C94CE090C94CE090C94CE090C94CE0984
:1000A0000C94CE090C94CE090C94CE090C94CE0974
:1000B0000C94CE09AED580A83FD300408D14200209
:1000C000A1C8DA1281FFD9F1DB40A4A6AFB40019B0
:1000D00080400000030C0F30333C3FC0C3CCCFF056
:1000E000F3FCFF00000000240027002A002D00027E
:1000F00000901C2420600800000000200000000088
:100100000000000A0000150F15141615151414151B
:1001100008000000000000000000000000000000D7
:1001200000000000180000000017000000000000A0
:1001300000000000000000000015000000000008A2
:10014000000000001400000000000E000000001677
:10015000000000000000000000000000000000009F
:10016000000000000000000000000000000000008F
:100170000000000000000000000000000000C0F0CF
:10018000F8FC7C1C1C1C7CFCF8F8C0000000000083
:1001900000C0F0FC7C1C0400000000000000071FF1
:1001A0003F7F7C7070707C7F3F3F070080E0F8FEEF
:1001B0003F1F0701000000000000000000000000D9
:1001C0000000000000000000C0E0F8FE3F0F030048
:1001D00000F0FEFEFF1F0707071FFFFEFCF00000F8
:1001E0000000000000101C1F1F070300000000009B
:1001F00000010F0F1F1F1C1C1C1F1F0F07010000F9
:1002000000000000000000000000000000000000EE
:1002100000000000000000000000000000000000DE
:1002200000000000000000000000000000000000CE
:1002300000001F1F1F1F1F1F1F1F1F1F0000000088
:1002400000000000000000000000000000000000AE
:1002500000C0F0F0F8F8FCFC7C7C7C7CFCFCF8F83E
:10026000F0E0C00000FFFFFFFFFFFFFF0000000005
:100270000000FFFFFFFFFFFFFF003FFFFFFFFFFF4B
:10028000FFC080808080C0FFFFFFFFFFFF3F0000B6
:10029000000307070F0F0F0F0F0F0F0F0F0F0707A9
:1002A000030100000000000000000000000000004A
:1002B0000000000000000000000000008080C0E09E
:1002C000F0FCFCFCFCFCFCFC3F3F3F1F1F0F07FF4A
:1002D000FFFFFFFFFFFFFF00000000000000FFFF27
:1002E000FFFFFFFFFFFF000000000000000F0F0FE7
:1002F0000F0F0F0F0F0000000000000000000000B3
:100300000000000000C0E0F0F8F8FCFCFC7C7C7C05
:100310007CFCFCFCF8F8F0E0C000030303030303DB
:10032000030080C0C0E0F8FFFFFFFF7F3F0F0080A9
:10033000C0F0F8FCFEFFFFFFFFDFCFC7C7C3C1C09F
:10034000C0C0C00F0F0F0F0F0F0F0F0F0F0F0F0FAA
:100350000F0F0F0F0F0F0F0F000000000000000025
:100360000000000000000000000000000080E0F03D
:10037000F8F8FCFC7C7C3C7C7CFCFCFCF8F8F0C0D5
:10038000000101010101010100F0F0F8F8FFFFFF99
:10039000FFDF8F8700E0E0E0E0E0E0E080010101C6
:1003A0000183FFFFFFFFFFFFFF00010307070F0FA0
:1003B0000F0F0F0F0F0F0F0F0707030100000000B3
:1003C000000000000000000000000000000000002D
:1003D00000000000000000000080C0E0F8FCFCFC11
:1003E000FCFCFCFC0000000080C0E0F0FCFEFF7F95
:1003F0001F0F0703FFFFFFFFFFFF0000007F7F7F4E
:100400007F7F7F7D7C7C7C7C7C7CFFFFFFFFFFFF10
:100410007C7C7C0000000000000000000000000068
:100420000F0F0F0F0F0F0000000000000000000072
:1004300000000000000000000000000000000000BC
:1004400000FCFCFCFCFCFCFCFCFCFCFCFCFCFCFCE8
:10045000FCFC00000000FFFFFFFFFFF878787878D1
:10046000F8F8F8F8F0E0E0800000E0E0E1E1E1E138
:10047000800000000080FFFFFFFFFFFF7F1E0001E4
:100480000307070F0F0F0F0F0F0F0F0F0F070703B4
:10049000010000000000000000000000000000005B
:1004A000000000000000000000C0E0F0F8F8FCFCD4
:1004B0007C3C3C3C7CFCFCF8F8F0E00000FEFFFFDC
:1004C000FFFFFFFFE1F0787878F8F8F8F8F0E0C087
:1004D00080003FFFFFFFFFFFFFC18000000080C1E1
:1004E000FFFFFFFFFFFF3E0000010307070F0F0F95
:1004F0000F0F0F0F0F0F0F07030300000000000086
:1005000000000000000000000000000000000000EB
:1005100000FCFCFCFCFCFCFCFCFCFCFCFCFCFCFC17
:10052000FCFCFCFCFC0000000000000000C0F0F837
:10053000FEFFFF7F1F0F0301000000000000E0FC32
:10054000FFFFFFFFFF0F01000000000000000000A0
:10055000000E0F0F0F0F0F0F010000000000000032
:10056000000000000000000000000000000000008B
:10057000000000000080E0F0F8F8FCFC7C3C3C3C13
:100580007CFCFCFCF8F8F0E080030F9FFFFFFFFF0E
:10059000F8F0F0F0F0FCFFFFFFFF9F0F03FEFFFFFE
:1005A000FFFFFFFF830100000183FFFFFFFFFFFF4D
:1005B000FE000307070F0F0F0F0F0F0F0F0F0F0F87
:1005C0000707070100000000000000000000000015
:1005D00000000000000000000000C0E0F0F8F8FC9F
:1005E000FC7C3C3C7C7CFCFCF8F8F0E0C0003F7FED
:1005F000FFFFFFFFFFE0C0808080C0E0FFFFFFFF44
:10060000FFFFFE00C0C1C3C3C7C7C7870707078373
:10061000E1FFFFFFFFFFFF3F00000103070F0F0F88
:100620000F0F0F0F0F0F0F0707030100000000004F
:1006300000000000000000000000000000000000BA
:1006400000000000000000000000FEFEFEFEFEFEB6
:10065000FEFEE0E0E0E0E0E0E0E00F0F0F0F0F0F44
:100660000F0F0000000000000000FCFCFCFCFCFC84
:10067000FCF8F0C080000000000000FCFCFCFCFC6A
:10068000FCFCFFFFFFFFFFFFFF7FFFFFFFFEFCF013
:10069000E08000FFFFFFFFFFFFFFFFFFFFFFFFFF07
:1006A000FF000001070F3F7FFFFFFFFFFFFFFFFF7E
:1006B000FFFF0F0F0F0F0F0F0F00000000000000D3
:1006C00001030F0F0F0F0F0F0F0F000000000000AE
:1006D000000000000000000000000000000000001A
:1006E000000000E0F0F0F8F8FCFC7C7C7C7C7CFCFA
:1006F000FCFCF8F8F0E0C00000071F3F7FFFFFFFA1
:10070000FFFCFCF8F8F8F8F3F3F3E3E3C38300002D
:10071000F8F8F8F8F8F8F8E1C18183838387CFFF10
:10072000FFFFFFFFFFFF7E00010307070F0F0F0F03
:100730000F0F0F0F0F0F0F0F07070301000000002F
:1007400000000000000000000000000000000000A9
:100750000000000000000000000000000000000099
:100760000000000000000000000000C0F0F8F8FCED
:10077000FCFE7E7E3E3E3E7EFEFEFCFCF8F0E01E71
:10078000FFFFFFFFFFFFF3C08080008080C0E0E03C
:10079000E0E0E0E00000010307070F0F0F0F0F0F6D
:1007A0000F0F0F0F0F0703030000000000000000F1
:1007B00000000000000000000000000000007C7C41
:1007C0007C7C7C7C7C7CFEFEFEFEFEFEFEFEFFFF53
:1007D000FFFFFFFFFFFF0F0F0F0F0F0F0F0F0000A7
:1007E0000000000000000000000000000000000009
:1007F00000000000000000000000FEFEFEFEFEFE05
:10080000FEF0787C7C7EFEFEFEFEFCFCF8E0FFFF46
:10081000FFFFFFFFFF000000000000FFFFFFFFFFE2
:10082000FFFF0F0F0F0F0F0F0F0000000000000F52
:100830000F0F0F0F0F0F000000000000000000005E
:1008400000000000000000000000000000E0E0F0F8
:10085000F0F8F8F8000000007E7E7EFFFFFFFFFF4B
:10086000FFFF7E7E7E7E000000FFFFFFFFFFFFFF99
:100870008080808000000003070F0F0F0F0F0F0F05
:100880000F0F00000000000000000000000000004A
:100890000000000000000000000000000000000058
:1008A000000000000000021E7EFEFEFEFEFCF08046
:1008B00000000080F8FEFEFEFEFE3E060000000185
:1008C0000F3FFFFFFFFFF8E0FCFFFFFFFF3F0700C8
:1008D000000000C0C08080C0C1E7FFFFFFFFFFFF36
:1008E0003F0700000000000000307070F0F0F0F0F2
:1008F000F0707030100000000000000000000000E8
:10090000050F7C011020FF201000901C087C018046
:1009100000000000000F01010101010101010101BE
:1009200001010101010101010F01010101010101A9
:100930000101010101010101010101010F01010199
:10094000010101010101010101010101010101FF99
:100950000101010101010101010101010101010187
:1009600001010F0101010101010101010101010169
:100970000101010101010F01010101010101010159
:10098000010101010101010101010F00000000004E
:10099000000005072060000000000000005F00006C
:1009A0000003000300143E143E14242A7F2A12433D
:1009B0003308666136495522500005030000001CCB
:1009C0002241000041221C0014083E081408083E81
:1009D00008080050300000000000080800606000B7
:1009E0000020100804023E5149453E0004027F00E9
:1009F000426151494622414949361814127F102755
:100A0000454545393E494949320101710907364991
:100A1000494936264949493E0036360000005636D7
:100A2000000008142241001414141414004122146C
:100A30000802015109063E4159555E7E0909097EA9
:100A40007F494949363E414141227F4141413E7FF4
:100A5000494949417F090909013E4141493A7F0815
:100A600008087F00417F4100304040403F7F08142C
:100A700022417F404040407F020C027F7F020408F9
:100A80007F3E4141413E7F090909061E2121215E29
:100A90007F09090976264949493201017F01013F51
:100AA0004040403F1F2040201F7F2010207F4122D8
:100AB0001C224107087008076151494543007F41E6
:100AC000000002040810200000417F00040201021F
:100AD0000440404040400001020400205454547837
:100AE0007F444444383844444444384444447F3880
:100AF0005454541804047E0505085454543C7F088B
:100B000004047800447D40002040443D007F1028CC
:100B1000440000417F40007C047804787C08040491
:100B20007838444444387C14141408081414147C91
:100B3000007C080404485454542004043F44443CBA
:100B40004040207C1C2040201C3C4030403C44283D
:100B50001028440C5050503C4464544C4400083617
:100B6000414100007F0000414136080002010204BB
:100B7000027F7F7F7F7F00000A0F205F0000000060
:100B80000000000000000000000000000000000065
:100B900000000000FEFE0000000000000000191927
:100BA0000000000000001E1E00001E1E00000000CD
:100BB00000000000000000000030FEFE3030FEFEAD
:100BC000300000031F1F03031F1F03000070F8D82D
:100BD000FE9898000000000C18187F191F0F0000E5
:100BE0001CB6A2F6CC60602030000101000E1B1183
:100BF0001B0E00000000DC7EE6C6860C808000072D
:100C00000F1C18191F1E1F13000000001E1E0000DD
:100C1000000000000000000000000000000000E0F4
:100C2000FC1E02000000000000073F7840000000AA
:100C30000000021EFCE000000000000040783F07BA
:100C40000000000000F0FC0E86C66EFCFC06301BA7
:100C50000F1F31181C0F030000808080F0F080808F
:100C60008000000101010F0F0101010000000000E0
:100C7000000000000000000000407C3C000000007C
:100C80000000000000000000000000000303030358
:100C90000300000000000000000000000000000051
:100CA00000001C1C0000000000000000C0F03C0E12
:100CB00002000020381E07010000000000F0FC0EBA
:100CC000C6C60EFCF80000030F1C18181C0F070006
:100CD00000000C06FEFE00000000001818181F1F80
:100CE00018181800000C06060686C67C3800001886
:100CF0001C1E1B1918181800000C06C6C6C6C6FC18
:100D00003800000C18181818190F0F000080C07058
:100D1000180EFEFE00000003030303031F1F030061
:100D200000FE7E666666E6C68000000C181818187D
:100D30001C0F070000F0FCCE6666E6CC80000007C2
:100D40000F1C18181C0F07000006060606E6FE3EDC
:100D50000E000000101C0F03000000000038FCC64D
:100D6000C6C6C6FC3800000F0F181818180F0F0061
:100D70000078FCCE8686CEFCF80000000C1919190C
:100D80001C0F030000000000E0E000000000000075
:100D900000001C1C0000000000000000E0E000005B
:100DA0000000000000407C3C00000000008080C08B
:100DB00040606020300000010103020606040C00C0
:100DC0000060606060606060600000060606060605
:100DD00006060600003020606040C0808000000CE5
:100DE0000406060203010100000C0686C6667E1C8E
:100DF00000000000001B1B0000000000E0F0389C19
:100E0000CCCCDCF8F000071F3873676666772700E4
:100E10000000C0FC3E3EFCC0000000181F0F030392
:100E20000F1F180000FEFEC6C6C6C6FC3C00001F11
:100E30001F181818181F0F0000F0FC0C06060606F5
:100E40000C0000030F0C181818180C0000FEFE060A
:100E500006060CFCF000001F1F1818180C0F0300EA
:100E600000FEFEC6C6C6C6C60600001F1F1818181C
:100E70001818180000FEFEC6C6C6C6C60600001F2B
:100E80001F0000000000000000F0FC0C06868686B3
:100E90008C0000030F0C1819191F0F0000FEFEC074
:100EA000C0C0C0FEFE00001F1F000000001F1F008A
:100EB00000000606FEFE06060000000018181F1FB0
:100EC0001818000000000000060606FEFE00000CD8
:100ED00018181818180F0F0000FEFEE0F0FC0E06A0
:100EE0000200001F1F0000030F1E180000FEFE007E
:100EF000000000000000001F1F1818181818180024
:100F000000FEFE3EF0F03EFEFE00001F1F0001014D
:100F1000001F1F0000FEFE1EF0C000FEFE00001FAE
:100F20001F0000031E1F1F0000F0FC0E06060EFC33
:100F3000F00000030F1C18181C0F030000FEFEC673
:100F4000C6C6C67C7C00001F1F0000000000000019
:100F500000F0FC0E06060EFCF00000030F1C181833
:100F60003C6F070000FEFEC6C6C6C6FC3C00001F64
:100F70001F000001031F1E1000387CE6C6C6C68C89
:100F80000000000C18181818190F0F0000060606AC
:100F9000FEFE06060600000000001F1F0000000005
:100FA00000FEFE00000000FEFE0000070F1C1818E7
:100FB0001C0F07000006FEFC0000FCFE06000000FF
:100FC000001F1F1F1F0000001EFEE000F0F000E0E9
:100FD000FE1E001F1F1E01011E1F1F0000020E3EED
:100FE000F8F83E0E020000101C1F03031F1C100027
:100FF000020E3E78E0E0783E0E02000000001F1F67
:101000000000000000060686C6F67E1E0E00001CCC
:101010001E1F1B1818181800000000FEFE02020018
:1010200000000000007F7F404000000000020E38FA
:10103000E080000000000000000000030E382000E7
:1010400000000202FEFE00000000000040407F7F22
:101050000000000010181C0E060E1C1810000000E6
:101060000000000000000000000000000000000080
:1010700000004040404040404040404000000103EC
:101080000604000000000000000000000000000056
:1010900000006030B0B0B0F0E000000E1F1B191966
:1010A0000D1F1F0000FEFE60303070E0C000001F0A
:1010B0001F0C18181C0F070000C0E07030303030D3
:1010C000600000070F1C181818180C0000C0E07012
:1010D000303060FEFE0000070F1C18180C1F1F00A8
:1010E00000C0E0B0B0B0B0E0C00000070F1D19199B
:1010F00019190D00003030FCFE36363600000000B5
:10110000001F1F000000000000C0E070303060F0E1
:10111000F0000003376E6C6C667F3F0000FEFE60DF
:10112000303030F0E000001F1F000000001F1F00E3
:1011300000003030F7F700000000001818181F1FDB
:101140001818180000003030F7F7000000000060A9
:1011500060607F3F0000000000FEFE80E070301005
:101160000000001F1F0103071E181000000606FEE6
:10117000FE00000000000000000F1F1818180000FB
:1011800000F0F030F0E030F0E000001F1F001F1F03
:10119000001F1F0000F0F060303030F0E000001F52
:1011A0001F000000001F1F0000C0E070303070E022
:1011B000C00000070F1C18181C0F070000F0F0609B
:1011C000303070E0C000007F7F060C0C0E0703007B
:1011D00000C0E070303060F0F0000003070E0C0C2F
:1011E000067F7F000000F0F06030303030000000FB
:1011F0001F1F00000000000000E0F0B0B0B0B030F1
:101200006000000C191919191B1F0E00003030FC6A
:10121000FC30303000000000000F1F1818180000CC
:1012200000F0F000000000F0F000000F1F18181888
:101230000C1F1F000030F0E00000E0F03000000064
:10124000010F1E1E0F01000070F00000C0C0000062
:10125000F07000071F1E03031E1F0700001030F070
:10126000C0C0F03010000010181E07071E18100034
:101270000010F0F08000F0F03000000060637F1F8D
:101280000F0100000030303030B0F0703000001836
:101290001C1E1B191818180000000000FCFE02029A
:1012A0000000000001013E7E404000000000000000
:1012B000FEFE00000000000000007F7F0000000034
:1012C00000000202FEFC00000000000040407E3EE4
:1012D000010100000080C0C0C0808080C00000010B
:1012E00000000001010100000000000023002600B2
:1012F00029002C0000000008000201000003040780
:1013000000000000000000000000000001020408CE
:10131000102040800102040810200102040810205F
:101320000408010200000000250028002B002E0008
:10133000040404040404040402020202020203037B
:10134000030303030505050595215A2F11241FBE2C
:10135000CFEFD8E0DEBFCDBF12E0A0E0B1E0ECE01F
:10136000FBE602C005900D92AC34B107D9F724E03A
:10137000ACE4B2E001C01D92A239B207E1F719E076
:10138000C5EAD9E004C02197FE010E946D33C43A3A
:10139000D107C9F70E94DA220C9479350C94000029
:1013A0004F925F926F927F928F929F92AF92BF9275
:1013B000FF922091D9033091DA038217930708F046
:1013C00043C02B0166247724852E962EA72EBB249E
:1013D000B82DA42F2091DF03F42C222391F0E22FCB
:1013E000F0E0E49DD001E59DB00DF49DB00D112419
:1013F000FB2E289D40011124B92D249F900111241A
:10140000A32FE091E5032091E0033091E103509197
:10141000E203E51323C0FC01EE0FFF1F8E0F9F1F99
:10142000820F931FE091E203E80FF92FF11DF08284
:10143000E091E303E80FF92FF11DB0832091E4035D
:10144000820F911DFC01A083FF90BF90AF909F90F1
:101450008F907F906F905F904F900895880F991FA5
:10146000880F991F820F931FE80FF92FF11D10822B
:10147000D9CFE091C103F091C2030196880F991F63
:10148000880F991FE80FF91FDF0114978081918160
:101490002D913C91821B930B69E070E00E945933BF
:1014A000892B11F06F5F7F4FCB010895AF92BF92F0
:1014B000CF92DF92EF92FF920F931F93CF93DF9320
:1014C0006C017B018B01040F151FEB015E01AE184F
:1014D000BF08C017D10759F06991D601ED91FC9171
:1014E0000190F081E02DC6010995892B79F7C5019E
:1014F000DF91CF911F910F91FF90EF90DF90CF90F0
:10150000BF90AF900895FC01448155816081718145
:101510008DEE93E00C94560AFC01538D448D252FDB
:1015200030E0842F90E0821B930B541710F0CF967D
:10153000089501970895FC01918D828D981761F0AF
:10154000A28DAE0FBF2FB11D5D968C91928D9F5FC6
:101550009F73928F90E008958FEF9FEF0895FC01A5
:10156000918D828D981731F0828DE80FF11D858D58
:1015700090E008958FEF9FEF0895FC01918D228DEB
:10158000892F90E0805C9F4F821B91098F73992770
:10159000089584E293E00E94BD0A21E0892B09F4BA
:1015A00020E0822F0895FC01A48DA80FB92FB11D52
:1015B000A35ABF4F2C91848D90E001968F73992789
:1015C000848FA689B7892C93A089B1898C91837067
:1015D00080648C93938D848D981306C00288F38960
:1015E000E02D80818F7D80830895EF92FF920F938D
:1015F0001F93CF93DF93EC0181E0888F9B8D8C8DBF
:1016000098131AC0E889F989808185FF15C09FB7B2
:10161000F894EE89FF896083E889F9898081837075
:10162000806480839FBF81E090E0DF91CF911F9124
:101630000F91FF90EF900895F62E0B8D10E00F5F45
:101640001F4F0F731127E02E8C8D8E110CC00FB61B
:1016500007FCFACFE889F989808185FFF5CFCE01B3
:101660000E94D30AF1CFEB8DEC0FFD2FF11DE35A51
:10167000FF4FF0829FB7F8940B8FEA89FB89808136
:101680008062CFCFCF93DF93EC01888D8823B9F0B0
:10169000AA89BB89E889F9898C9185FD03C080817D
:1016A00086FD0DC00FB607FCF7CF8C9185FFF2CFFA
:1016B000808185FFEDCFCE010E94D30AE9CFDF9173
:1016C000CF91089580E090E0892B29F00E94C90A0B
:1016D00081110E94000080E090E0892B49F080E0B9
:1016E00090E0892B29F00E94000081110C940000E9
:1016F000089581508D3008F03DC0E82FF0E0ED579F
:10170000F44F0C946D339A0B9E0B900B960BBA0B07
:10171000BA0BA10BA70BAB0BB10BBA0BB50BBB0BE9
:10172000809180008F778093800008958091800061
:101730008F7DF9CF84B58F7784BD089584B58F7D73
:10174000FBCF8091B0008F778093B0000895809197
:10175000B0008F7DF9CF809190008F7780939000BB
:101760000895809190008F7DF9CF8091A0008F77B0
:101770008093A00008958091A0008F7DF9CFCF9332
:10178000DF93E4E0F3E18491ECE1F3E1D491E0E470
:10179000F3E1C491CC23A1F081110E94790BEC2FCD
:1017A000F0E0EE0FFF1FE851FD4EA591B491EC91D2
:1017B000ED2381E090E009F480E0DF91CF9108957E
:1017C00080E090E0FACF1F93CF93DF93282F30E093
:1017D000F901EC50FD4E8491F901E45FFC4ED49187
:1017E000F901E05DFC4EC491CC23A9F0162F8111C4
:1017F0000E94790BEC2FF0E0EE0FFF1FEC5DFC4E2A
:10180000A591B4918FB7F894EC91111108C0D095BF
:10181000DE23DC938FBFDF91CF911F910895DE2BE4
:10182000F8CFCF93DF9390E0FC01E45FFC4E24916E
:10183000805D9C4EFC0184918823C9F090E0880F64
:10184000991FFC01ED51FF4FA591B491FC01EC5D96
:10185000FC4EC591D49161110DC09FB7F8948C9145
:10186000209582238C938881282328839FBFDF9132
:10187000CF910895623051F49FB7F8943C91822F34
:10188000809583238C93E8812E2BEFCF8FB7F8942C
:10189000EC912E2B2C938FBFEACF4F925F926F92D9
:1018A0007F928F929F92AF92BF92CF92DF92EF92F0
:1018B000FF920F931F93CF938B0149015A0190918F
:1018C0000201891799F09F3F09F452C0CF911F91EF
:1018D0000F91FF90EF90DF90CF90BF90AF909F90CF
:1018E0008F907F906F905F904F900895EFEEF0E0B3
:1018F000C491C7FDEBCF61E00E94110C2801712C4F
:10190000612CCC23F1F0980150E040E0C23009F0A6
:10191000F4C028013A0160E970ED83E090E00E9494
:101920008C3169017A0181E0C81AD108E108F10817
:1019300093E08FEFC816D104E104F10409F00CF430
:1019400073C168E478EE81E090E0A30192010E9407
:101950008C3169017A0181E0C81AD108E108F108E7
:1019600094E0C11161C185B5887F836085BDDAC00F
:1019700080930201EFEEF0E0C4919C2FCF3F09F479
:10198000A5CFC23009F471C058F4CC2381F1C13025
:1019900009F449C097FD9ACF61E00E94110CB3CFC2
:1019A000C33009F488C0C430A9F71092A000109287
:1019B000A1009091A10098609093A1009091A10046
:1019C00091609093A100282F30E0F901E05DFC4E7A
:1019D000E491F0E0EE0FFF1FEC5DFC4E4591549159
:1019E000F901E45FFC4EE491E093A40284CF14BCBF
:1019F00015BC94B5926094BD95B5916095BD282FA6
:101A000030E0F901E05DFC4EE491F0E0EE0FFF1FE5
:101A1000EC5DFC4E45915491F901E45FFC4EE4917C
:101A2000E093A70268CF10928000109281009091FD
:101A300081009860909381009091810091609093D3
:101A40008100282F30E0F901E05DFC4EE491F0E0E8
:101A5000EE0FFF1FEC5DFC4E45915491F901E45FE0
:101A6000FC4EE491E093A60246CF1092B000109293
:101A7000B1009091B00092609093B0009091B1004D
:101A800091609093B100282F30E0F901E05DFC4EA9
:101A9000E491F0E0EE0FFF1FEC5DFC4E4591549198
:101AA0005093B9024093B802F901E45FFC4EE4910F
:101AB000E093BA0220CF1092900010929100909182
:101AC0009100986090939100909191009160909313
:101AD0009100282F30E0F901E05DFC4EE491F0E048
:101AE000EE0FFF1FEC5DFC4E45915491F901E45F50
:101AF000FC4EE491E093A502FECE60E072E18AE73D
:101B000090E00E948C3169017A0181E0C81AD10805
:101B1000E108F108C13071F580918100887F816012
:101B200080938100D801AA0FBB1FA50194010E94D8
:101B3000AB3128EE33E040E050E00E94F531C23096
:101B4000D1F10CF05AC0CC2339F1C13009F0BECE2E
:101B5000D0928900C09288002093B0023093B102E5
:101B60004093B2025093B30280916F0082608093E1
:101B70006F00ACCEC33039F480919100887F8160D2
:101B800080939100CFCFC43069F68091A100887F07
:101B900081608093A100C6CFC7BC2093B40230936C
:101BA000B5024093B6025093B70280916E008260F6
:101BB00080936E008BCEC092B3002093BB02309313
:101BC000BC024093BD025093BE02809170008260BF
:101BD000809370007BCED0929900C09298002093A1
:101BE000AC023093AD024093AE025093AF028091AD
:101BF000710082608093710069CEC33061F3C4309C
:101C000009F064CED092A900C092A8002093A80247
:101C10003093A9024093AA025093AB0280917200C4
:101C200082608093720052CE8091B100887F892BB0
:101C30008093B10077CF8E50806480937C00809138
:101C40007A00806480937A0080917A0086FDFCCFD0
:101C5000809178009091790008953FB7F894809131
:101C6000A0029091A102A091A202B091A30226B578
:101C7000A89B05C02F3F19F00196A11DB11D3FBFC4
:101C8000BA2FA92F982F8827BC01CD01620F711D93
:101C9000811D911D42E0660F771F881F991F4A958D
:101CA000D1F708950F931F93CF93DF93CDB7DEB78E
:101CB00029970FB6F894DEBF0FBECDBF8091E00329
:101CC0009091E103892B09F47CC00E942D0E0091B4
:101CD000E6031091E7032091E8033091E9036017D0
:101CE00071078207930740F46093E6037093E7035C
:101CF0008093E8039093E9030091E6031091E703D2
:101D00002091E8033091E903601B710B820B930B68
:101D10006C32714081059105C0F2F8948091DB032B
:101D20009091DC039A838983E091E003F091E103D1
:101D3000DF011196808189879091D703E091EA03B2
:101D4000F091EB038091EC03992309F445C0908155
:101D5000982B98879081809589238F838F818C839E
:101D600088E08B8358856F8149853B812C818981EF
:101D70009A81508347FD252F3A952083262F39F0ED
:101D8000441F00C000006083000000C0F2CF38E0B4
:101D90004D9160830000019761F7F093EB03E093AE
:101DA000EA0349873B832C839A83898378940E9432
:101DB0002D0E6093E6037093E7038093E8039093FE
:101DC000E90329960FB6F894DEBF0FBECDBFDF91B1
:101DD000CF911F910F9108959081982B98879081B2
:101DE000809589238F838F818E8388E08D835885AA
:101DF0006F8149853D812E8189819A81508347FD7C
:101E0000252F00C000C0208300C000C000C000C05B
:101E100000C060830000262F3A9541F0441F000067
:101E200000C000C000C000C000C0E8CF38E04D9145
:101E300000C0608300C0019709F7F093EB03E093C3
:101E4000EA0349873D832E83AFCF8F929F92AF9253
:101E5000BF92CF92DF92EF92FF924B015C010E9402
:101E60002D0E6B017C010E942D0E6C197D098E09CF
:101E70009F09683E734081059105A8F321E0821A0D
:101E80009108A108B10888EEC80E83E0D81EE11CB5
:101E9000F11C81149104A104B10429F7FF90EF9083
:101EA000DF90CF90BF90AF909F908F9008952FB705
:101EB000F89460919C0270919D0280919E02909195
:101EC0009F022FBF0895CF93DF93EC018D85882368
:101ED00029F081508D87DF91CF9108959C818E816B
:101EE0009817C8F788896827E881F9810084F18507
:101EF000E02D42E0CE0109958C818F5F8C83EBCF82
:101F0000DC011E96ED91FC9184913196E491982F1D
:101F10008E2F08959093FC038093FB038DEE93E046
:101F20000E94800F019719F41092F603089581E042
:101F30008093F603089590E080E008954FB7F894F9
:101F40002091940230919502809192029091930297
:101F50004FBF40919002042E02C0359527950A94F8
:101F6000E2F702C0959587954A95E2F78802C0018D
:101F700011242202800D911D112408950E949E0FAC
:101F80009093CC028093CB0220910A0330910B03F3
:101F90008217930720F090930B0380930A032091FC
:101FA0000A0330910B0340910501509106013695CB
:101FB000279536952795240F351F265F3F4F8217AB
:101FC000930790F081E08093960280910A039091AC
:101FD0000B039093D4028093D3025093D202409388
:101FE000D10280919602089510929602FACF8091C4
:101FF0008F028823E1F110928E022091D902309154
:10200000DA0280910803909109032817390740F0FC
:102010008091D9029091DA0290930903809308038A
:10202000809108039091090380910803909109031E
:102030004091060350910703209106033091070356
:10204000E091D902F091DA02841B950B6AE070E00E
:102050000E944533265F3F4F620F731F81E0E617F2
:10206000F70708F480E08093DB0210928F028091E2
:102070008E02811108C081E080938E0280917A00E7
:10208000886480937A008091DB020895CF93DF9378
:10209000D0E0C0E040E050E0BA01CE010E94D0099B
:1020A0002196CA31D105B1F7DF91CF910C94520E30
:1020B000CF92DF92EF92FF920F931F93CF93DF9314
:1020C000C0917A02D0917B028E01000F111F0A5934
:1020D0001D4FF80140815181052E000C660B770BD6
:1020E000C0907C02D0907D02E0907E02F0907F0252
:1020F000C41AD50AE60AF70A81E10E941B0EF8010C
:1021000091838083092E000CAA0BBB0BBC01CD016F
:102110006C0D7D1D8E1D9F1D60937C0270937D0252
:1021200080937E0290937F022196CA30D105A4F459
:10213000D0937B02C0937A022AE030E040E050E086
:102140000E948C31C901DF91CF911F910F91FF90B7
:10215000EF90DF90CF90089510927B0210927A0258
:10216000EBCF81E080932003809109014EEF5EEF79
:102170006EEF70E090E00E94D0090E94520E0E9423
:10218000570F609372047093730480937404909358
:102190007504089580E680937C0081E08093650259
:1021A00010927B008EEF80937A0080E090E0AAE2AC
:1021B000B5E48093020390930303A0930403B093C8
:1021C00005038AE89DE3A6E9B6E48093FE029093B6
:1021D000FF02A0930003B093010385E394E2A0E023
:1021E000B0E08093FA029093FB02A093FC02B093BC
:1021F000FD0285E090E09093910280939002089513
:102200001092F4021092F3020E94CA100E94570F1B
:102210006093D3037093D4038093D5039093D60334
:102220000E94570F6093D5027093D6028093D70215
:102230009093D80281E0809304011092F2021092F0
:10224000DF021092E0021092E1021092E2028EE1AF
:1022500090E0909306018093050110920B03109279
:102260000A0308951F93CF93DF93EC01162F61E0CB
:10227000411101C060E08B890E94E30B80E58CBDB9
:1022800081E08DBD60E08A890E94E30B1EBD0000E5
:102290000DB407FEFDCF8EB561E08A89DF91CF9145
:1022A0001F910C94E30BDC01ED91FC910084F1850E
:1022B000E02D40E009940F931F93CF938C01FC0114
:1022C0006483C085C60F6C2F6F700E9453116C2FF2
:1022D00062956F706061C801CF911F910F910C944E
:1022E0005311FC012781269526952695621738F40F
:1022F00065832385620F6770606B0C94531108959A
:102300001F93CF93DF93EC01142F8E81681718F47D
:10231000CE010E945B11612FCE01DF91CF911F9101
:102320000C947111CF92DF92EF92FF920F931F9353
:10233000CF93DF93EC01F62EC42ED22E1D868F8113
:10234000869586958695081710F00FEF080F1D2DBE
:10235000011780F0412F6F2DCE010E948011EF2CCC
:10236000CE1430F06889CE010E94630FE394F8CF59
:102370001F5FEECF4D2D6F2DCE01DF91CF911F91BD
:102380000F91FF90EF90DF90CF900C9480110F93FE
:10239000DC0115962C9115971E96ED91FC911F97D7
:1023A00000E0309779F03396E491F0E0379683E0DF
:1023B000F595E7958A95E1F751960C9151970E9F07
:1023C000002D1124EFEFE20F0E0F16964C91169789
:1023D000415014966C911497CD010E9492110F9167
:1023E00008952F923F924F925F926F927F928F92B9
:1023F0009F92AF92BF92CF92DF92EF92FF920F9394
:102400001F93CF93DF9300D000D000D0CDB7DEB7BD
:10241000FC01068517850115110509F446C19E8347
:102420008D83F801329664903196A490EA2CF12CB9
:10243000F7E0EF0EF11C23E0F594E7942A95E1F71D
:10244000E982F801349684913196E491681748F056
:10245000CE2ED12C9601280F311D621713060CF4D5
:1024600069C06D3031F5ED81FE81868181111BC01F
:1024700081E090E026960FB6F894DEBF0FBECDBF88
:10248000DF91CF911F910F91FF90EF90DF90CF9050
:10249000BF90AF909F908F907F906F905F904F9084
:1024A0003F902F90089560E08D819E810E945B1186
:1024B000DFCF6A3009F0F9C0ED81FE818681882383
:1024C00021F060E0CF010E945B11ED81FE818189E6
:1024D0008E9DE02C112465816E0D8485882349F042
:1024E00097819695969596958E2D891B860F181631
:1024F0002CF08D819E810E947111BACFED81FE81F9
:102500002385820F877083879E199583CF010E9450
:10251000C711ED81FE818485813009F0A9CF6385E3
:10252000660F660F660F6F7362876064CF010E944B
:1025300053119ECF0A5F1F4FB62EB81AED81FE8150
:1025400091858189989F802D11248C83CF010E94D1
:10255000800F029708F06AC06E9CC0016F9C900DBE
:102560001124B89E6001B99ED00C11240C0D1D1DC4
:10257000512CED81FE81F481FA83ED81FE8125806D
:10258000F585FB83862C912CAA24A394B12C312CA5
:102590008981381608F087C0412CED81FE81818940
:1025A000481608F079C08B818587311002C044201D
:1025B00041F0ED81FE8145814F5F6A81CF010E942C
:1025C0008011D12CC12CC61408F059C0F801EC0DB3
:1025D000FD1D7490552061F0EA14FB0449F4E72DC9
:1025E000F0E0052C02C0F595E7950A94E2F77E2EFF
:1025F000ED81FE818189823081F4442009F43BC061
:1026000072948FE07822E72DF0E0ED52FF4F749046
:10261000672D8D819E810E94630F672D8D819E8124
:102620000E94630F8FEFC81AD80ACDCFEA2DE7704A
:1026300088E0582E5E1AE11101C0512CF801612C7E
:1026400090E080E06B1431F02491820F911D63942F
:102650003196F8CF600E712E711CF3016490E89EE4
:10266000F001E99EF00DF89EF00D1124CE0EDF1E54
:102670000C0D1D1D7ECFF72DFF707F2EC4CFD12CEA
:10268000EC81DE1639F060E08D819E810E94630F3F
:10269000D394F6CF439481CF3394080D191DFFEFE7
:1026A000AF1ABF0A75CF622D24CF90E080E0E2CE52
:1026B0000F93CF93DF93EC011B861A8660E40E9490
:1026C00053110F8106950695069501504E81415094
:1026D00020E060E0CE010E949211DF91CF910F9136
:1026E0000895089590E080E00895CF93DF93EC0182
:1026F00088819981009711F00E941E3419821882F6
:102700001D821C821B821A82DF91CF910895FC01E9
:1027100080819181009711F00C941E340895FB0183
:1027200001900020E9F73197AF01461B570BDC0100
:10273000ED91FC910280F381E02D09948F929F929C
:10274000AF92BF920F931F93CF93DF93CDB7DEB7B6
:10275000A1970FB6F894DEBF0FBECDBF19A24230CD
:1027600008F44AE08E010F5D1F4F842E912CB12C8E
:10277000A12CA50194010E94F531E62FB901CA01EF
:10278000EA3004F5E05DD801EE938D01232B242B74
:10279000252B79F790E080E0109729F0BD018DEEB0
:1027A00093E00E948F13A1960FB6F894DEBF0FBE80
:1027B000CDBFDF91CF911F910F91BF90AF909F90B0
:1027C0008F900895E95CDFCFCF92DF92EF92FF9276
:1027D000CF93DF936C01990FEE08FF08F7FE19C045
:1027E0006DE28DEE93E00E94F111EC0166277727F0
:1027F000CB016C197D098E099F094AE00E949E1346
:102800008C0F9D1FDF91CF91FF90EF90DF90CF90C5
:1028100008954AE0C701B601DF91CF91FF90EF9094
:10282000DF90CF900C949E13BC018DEE93E00C943E
:102830008F1380910E01882351F041E066E18DEE07
:1028400093E00E94801183E891E00C9414140895A1
:102850008091120381110DC081E08093120345E045
:1028600066E48DEE93E00E9480118EE491E00C947A
:102870001414089545E06CE38DEE93E00E948011FE
:1028800083E192E00C94141445E065E08DEE93E052
:102890000E94801184E591E00C941414809113033C
:1028A00081111CC080910F0381110AC041E06CE2CC
:1028B0008DEE93E00E9480118AE591E00E9414144D
:1028C00080910F03882399F041E06CE38DEE93E053
:1028D0000E94801184E691E00C94141441E06BE4B2
:1028E0008DEE93E00E94801181E691E0E7CF08959C
:1028F0000F931F93CF93DF93EC010E948F138C01F2
:1029000069E671E0CE010E948F13800F911FDF9165
:10291000CF911F910F9108958DEE93E00E9458136F
:1029200041E069E18DEE93E00E9480116CE671E078
:102930008DEE93E00E94781445E065E08DEE93E023
:102940000E94801164E771E08DEE93E00C9478149E
:10295000CF92DF92EF92FF920F931F93CF93DF936B
:102960007B012091C3033091C40382179307F4F4D1
:10297000880F991F880F991F2091C1033091C203BE
:10298000820F931FFC01C280D380FFEFCF16DF06BA
:1029900069F08B01C3E0D0E0C6018C1B9D0B0E9447
:1029A0007631F80181938F012197B0F7C701DF914C
:1029B000CF911F910F91FF90EF90DF90CF900895EE
:1029C0000C9476310F931F93CF93DF93EC018C011E
:1029D000060F171FC017D1079CF4CE010E94E01408
:1029E0008F3F61F0FC9AFD98FB98D2BDC1BD8FB7B7
:1029F000F894F999FECFFA9AF99A8FBF2196EACF07
:102A0000DF91CF911F910F9108950F931F93CF9353
:102A1000DF93EC01162F22E030E0062F0095FD9A9F
:102A2000FC98FB98D2BDC1BD10BD8FB7F894F99941
:102A3000FECFFA9AF99A8FBFF999FECF213031056E
:102A400039F0CE010E94E01421E030E0802339F714
:102A5000DF91CF911F910F910895CF93DF93EB01F9
:102A60000E9476318883CE01DF91CF910895CF9374
:102A7000DF93EB010E9476318883CE01DF91CF9105
:102A800008950E9464350F931F93CF93DF93EC0159
:102A900088819981009759F02A813B812617370751
:102AA00030F081E0DF91CF911F910F9108958B015C
:102AB0006F5F7F4F0E94A734009759F099838883F6
:102AC0001B830A832C813D81232B59F7FC01108243
:102AD000E8CF80E0E7CFEF92FF920F931F93CF9361
:102AE000DF93EC01FB01E080F180E114F10411F1CE
:102AF0000481158101151105A9F08C819D81080FB4
:102B0000191FB801CE010E944315882399F028812E
:102B100039818C819D81B701820F931F0E9472358C
:102B20001D830C83CE01DF91CF911F910F91FF90F8
:102B3000EF900895CE010E947513F4CFEF92FF92AB
:102B40000F931F93CF93DF9300D0CDB7DEB78C01E7
:102B50008EE289831A82F801E480F580FFEFEF1A94
:102B6000FF0AB701C8010E9443158823C9F0F80184
:102B70002081318184819581BE016F5F7F4F820FFB
:102B8000931F0E947235F801F582E482C8010F900C
:102B90000F90DF91CF911F910F91FF90EF900895CB
:102BA000C8010E947513F2CFEF92FF920F931F930B
:102BB000CF93DF93EC017B018A01BA010E94431598
:102BC00081110BC0CE010E947513CE01DF91CF9110
:102BD0001F910F91FF90EF9008951D830C83B70113
:102BE000888199810E947235F0CFEF92FF920F9306
:102BF0001F93CF93DF93CDB7DEB762970FB6F894EC
:102C0000DEBF0FBECDBF8C01CB01F8011182108257
:102C100013821282158214824AE09E012F5F3F4F79
:102C20007901B9010E941D30F70101900020E9F7F8
:102C30003197AF014E195F09B701C8010E94D41541
:102C400062960FB6F894DEBF0FBECDBFDF91CF9175
:102C50001F910F91FF90EF900895FB01DC011196F9
:102C60001C921E9213961C921E92129715961C92FD
:102C70001E9214978617970749F06081718161153C
:102C8000710521F0448155810C94D41508950F935A
:102C90001F93CF93DF93CDB7DEB768970FB6F89445
:102CA000DEBF0FBECDBF80910901882309F4AFC0FC
:102CB00090910F03992309F461C009E110E0980194
:102CC000281B310945E0429FC001439F900D11240C
:102CD0006AE070E00E945933BC01CE0143960E9425
:102CE000F51580910901B801681B710977FF02C0D1
:102CF0006F5F7F4F75956795CE0107960E94F5151A
:102D0000BE01695F7F4FCE010D960E942D16CE0148
:102D10000D960E949E15BE016D5E7F4F0E946B1541
:102D2000BC01CE0101960E942D16CE010D960E9487
:102D30008713CE0107960E948713CE0143960E9407
:102D4000871341E06AE08DEE93E00E94801180E8F5
:102D500091E00E941414CE0101960E94830ACE01D4
:102D600001960E94871368960FB6F894DEBF0FBED7
:102D7000CDBFDF91CF911F910F91089590911303D3
:102D8000911121C0803151F441E064E18DEE93E076
:102D90000E94801183E891E00E94141441E06AE0EF
:102DA0008DEE93E00E94801180E891E00E9414145F
:102DB0009091090129E130E0A901491B5109CA019B
:102DC0000E94E413D0CF853151F441E069E38DEEE8
:102DD00093E00E94801184E891E00E94141441E085
:102DE00069E18DEE93E00E94801180E891E00E94FD
:102DF00014142091090189E190E0821B910924E1DA
:102E0000AC01249FC001259F900D1124D9CF809142
:102E1000130341E0811112C06AE08DEE93E00E943D
:102E2000801184E891E00E9414146091090170E01F
:102E300090E080E04AE00E949E1395CF69E18DEE1C
:102E400093E00E94801182E891E00E94141441E016
:102E50006DE28DEE93E00E948011E7CF0F931F93F8
:102E6000CF93DF93CDB7DEB768970FB6F894DEBF88
:102E70000FBECDBF80910901882309F45EC09091F7
:102E80000F03992309F464C025E0829FC001112437
:102E90006AE070E00E945933BC01CE0143960E9463
:102EA000F5156091090170E075956795CE010D9655
:102EB0000E94F51518861F821A8619861C861B86A5
:102EC0008BE289831A828E010F5F1F4FF8010190F8
:102ED0000020E9F73197AF01401B510BB801CE013B
:102EE00007960E94D415BE01635F7F4FCE010796FF
:102EF0000E946B150E949E15BE016D5E7F4F0E9461
:102F00006B15BC01C8010E942D16CE0107960E94C8
:102F10008713CE010D960E948713CE0143960E941F
:102F2000871341E06AE08DEE93E00E948011C801B2
:102F30000E94830AC8010E94871368960FB6F8940E
:102F4000DEBF0FBECDBFDF91CF911F910F910895CE
:102F50008091130341E0811112C06AE08DEE93E08D
:102F60000E94801186E891E00E941414609109018A
:102F700070E090E080E04AE00E949E13DECF69E1BD
:102F80008DEE93E00E94801186E891E00E94141477
:102F90008091090124E1829FC00111240E94E41361
:102FA000CCCF0C947E31FF920F931F93CF93DF937E
:102FB000EC01F62E08811981C8010E947631F816BD
:102FC00021F06F2DC8010E947E31CE01DF91CF919B
:102FD0001F910F91FF9008952F923F924F925F9211
:102FE0006F927F928F929F92AF92BF92CF92DF9219
:102FF000EF92FF920F931F93CF93DF9300D000D0F7
:10300000CDB7DEB71C013B010E94390A7C018091DB
:10301000C3039091C403281639060CF0BCC08090FD
:10302000C1039090C2032FEF221A320A220C331CE4
:10303000220C331CF401E20DF31D4080518034E07A
:10304000231A3108820C931CF401A080B180C201C4
:103050008A199B098E199F0904970CF49CC0028160
:1030600013810F3F100729F487010A0D1B1D015022
:103070001109680123E0C21AD1087C826B820C1509
:103080001D050CF488C0C6010E94E014EB81FC8190
:103090009191FC83EB83FFEFCF1ADF0A891779F355
:1030A000C80105960F5F1F4F481659064CF4B7012B
:1030B000C5010E94E214F401008111810E0D1F1D53
:1030C00017FD69C05301F4E0AF0EB11C6801C618CA
:1030D000D708C601860D971D9A838983F3016191F4
:1030E0003F01CE0101960E94D3176A147B0489F731
:1030F0008091C1039091C203280E391EC801039626
:10310000F1019383828380819181E80EF91E0E196B
:103110001F09780117FF03C0F7E0EF0EF11C83E0F1
:10312000F594E7948A95E1F78E2D880F880F880F24
:10313000081B94E0892E912C6FEF27E0C22ED12C32
:10314000AA24A394B12CC601801B9109950102C049
:10315000220F331F8A95E2F7C901809568230F5F1C
:10316000083060F0F101808191818E0D9F1D0E94D9
:103170000515FFEFEF1AFF0A6FEF00E021E0821A5A
:10318000910809F76F3F39F0F101808191818E0D2F
:103190009F1D0E9405150F900F900F900F90DF91CB
:1031A000CF911F910F91FF90EF90DF90CF90BF9044
:1031B000AF909F908F907F906F905F904F903F90D7
:1031C0002F9008950F931F93CF93DF9300D0CDB727
:1031D000DEB78B019A838983FB016081CE01019662
:1031E0000E94D317C8010F900F90DF91CF911F91CC
:1031F0000F9108952F923F924F925F926F927F921C
:103200008F929F92AF92BF92CF92DF92EF92FF92F6
:103210000F931F93CF93DF9300D000D01F92CDB7B1
:10322000DEB710921601109215011092140161E0A0
:1032300082E00E94110C61E085E00E94110C61E0C7
:1032400082E00E94E30B80910F0181508A3018F0D8
:1032500084E080930F018091DD039091DE0397FD60
:1032600008C061E00E94110C60E08091DD030E94C3
:10327000E30B81E08093D80362E370E080E090E0AC
:103280000E94250F61E085E00E94E30B61E089E088
:103290000E94110C61E083E00E94110C62E080E169
:1032A0000E94110C0E94461082E090E09093C403AB
:1032B0008093C3038CE090E00E948233FC019093E2
:1032C000C2038093C10381E090E09183808382EE0A
:1032D00091E09583848383EC93E09187808790E0ED
:1032E00080E00E94E0148D831A82198263E0CE018F
:1032F00001960E94D317F12CE12CD12CC12C009106
:10330000C1031091C2030E0D1F1D8091C303909144
:10331000C403C816D9060CF087C0C6010E94390A3A
:103320001C012D81233031F0BC01F8018081918195
:103330000E94E2148091C1039091C2039C012E0D62
:103340003F1D3C832B83F901A080B1802A0C3B1CDC
:103350002101F1E04F1A5108320145018FEF0FEFC3
:103360001FEF68147904DCF0830108191909159519
:103370000795080D191DC8010E94E0149FEF980FD2
:103380009E3FC8F0811105C048012FEF821A920AB2
:10339000E8CF380131E0631A71088FEFE2CF811175
:1033A00017C0041515053CF40F5F1F4FC8010E949C
:1033B000E0148823B1F3C8010E94E01427E030E054
:1033C00091E0482F4923A1F0990F21503109F9CFFD
:1033D0000A151B053CF001501109C8010E94E014B8
:1033E0008F3FB1F30415150534F70F5F1F4FE3CF7F
:1033F0000A191B0993E0000F111F9A95E1F7020FBC
:10340000131F0F3F100769F0020D131DEB81FC81A4
:1034100013830283FFEFCF1ADF0A24E0E20EF11CD0
:103420006ECF0FEF1FEFF2CF8FEF9FEFF801938377
:10343000828361E173E08CEF93E00E9437158DEF9A
:1034400093E00E947631809314038EEF93E00E9404
:103450007631809315031982BE016F5F7F4F8BEF2A
:1034600093E00E94E2186AE972E08BEF93E00E9419
:10347000371566E173E090E080E00E94A814809127
:10348000160390911703A0911803B09119030196A8
:10349000A11DB11D8093160390931703A0931803E9
:1034A000B09319038091C3039091C40318161906B1
:1034B00034F466E173E090E080E00E94EC176AE18A
:1034C00073E081E090E00E94A8148FEF93E00E94E7
:1034D000E0148E3141F08851823028F069E18FEF9D
:1034E00093E00E94D1178CEF93E00E94E0148230A9
:1034F00028F060E08CEF93E00E94D1170E94BF0B90
:10350000892B89F48FEF93E00E94E0146EE18931FA
:1035100031F068E18E3119F0883129F469E18FEFDB
:1035200093E00E94D1176DE073E08FEF93E00E946B
:103530002D1561E273E089EF93E00E942D158091D3
:103540002103853010F01092210364E170E080E0E7
:1035500090E00E94250FF894809168008860809325
:10356000680080917300886080937300789461E0B4
:103570008AE00E94110C60E08AE00E94E30B6AE09E
:1035800070E080E090E00E94250F61E08AE00E94F8
:10359000E30B6AE070E080E090E00E94250F87E195
:1035A0008093FF0386E18093000461E087E10E943D
:1035B000110C61E0809100040E94110C1FB7F89477
:1035C00080919702811127C0EAE3F3E18491E6E15B
:1035D000F3E19491E82FF0E0EE0FFF1FED51FF4F64
:1035E000A591B491EC91E92321F461E08AE00E9475
:1035F000E30B61E08AE00E94110C8CB580618CBD08
:103600008CB580648CBD61E08DE00E94110C61E09E
:103610008BE00E94110C809197028F5F809397023C
:103620001FBF1092F1031092F203EDECF0E0C59091
:10363000D490EFECF0E0F490E0EDF0E0E491E09372
:10364000F303E1EDF0E0E491E093F403E2EDF0E068
:10365000E491E093F50310E000E00F1558F4F80151
:10366000EC0DFD1D64918DEE93E00E9453110F5FF0
:103670001F4FF3CF8DEE93E00E9458136BED8DEE4C
:1036800093E00E94531160E78DEE93E00E94531186
:1036900061E88DEE93E00E9453116FEF8DEE93E0A1
:1036A0000E94531162E370E080E090E00E94250FD9
:1036B00086E79BE00E948A0F81E080931701809348
:1036C00003011092CA021092C9021092C80210920D
:1036D000C4021092C7020E94570F60936E04709349
:1036E0006F0480937004909371041092C60210923C
:1036F000C50280917A008F7D80937A0087E880935D
:103700007A0061E087E00E94110C61E087E00E948E
:10371000E30BF894109290008AE08093910082E08D
:103720008093710080910D03883151F481EC92EA0D
:1037300090939900809398009093990280939802B7
:1037400080910D03893151F48FE39CE990939900A6
:1037500080939800909399028093980280910D0332
:103760008E3151F484E392E890939900809398000D
:103770009093990280939802789482E090E09093DD
:103780000B0180930A011092810081E08093100167
:103790000F900F900F900F900F90DF91CF911F918E
:1037A0000F91FF90EF90DF90CF90BF90AF909F90E0
:1037B0008F907F906F905F904F903F902F900895E3
:1037C0000F931F93CF9380918D02882391F01092D5
:1037D0008D0210928C0210928B02109212030E94A2
:1037E0002D0E6093870270938802809389029093D4
:1037F0008A028091090181115AC080918C02811145
:1038000028C080911103811109C080911303811197
:1038100005C067EA8DEE93E00E94531180918B0200
:10382000811112C081E080938B0280910F03882365
:1038300009F487C141E06AE28DEE93E00E948011B5
:1038400087E991E00E9414140E94471681E080935A
:103850008C020E942D0E0091870210918802209107
:10386000890230918A02AB01BC01401B510B620BF3
:10387000730B80910C0190910D01092E000CAA0B85
:10388000BB0B481759076A077B0788F00E942D0E6B
:1038900060938702709388028093890290938A02D2
:1038A0000E94191466EA8DEE93E00E9453118091F4
:1038B0000901813061F490918C02911108C08093CC
:1038C0008C020E9428140E944E140E942E17809190
:1038D000090181508C3090F580918C02811105C0D6
:1038E00081E080938C020E942E170E942D0E009181
:1038F0008702109188022091890230918A02AB01DF
:10390000BC01401B510B620B730B80910C01909119
:103910000D01092E000CAA0BBB0B481759076A07AB
:103920007B0760F00E942D0E6093870270938802DF
:103930008093890290938A020E9419148091090150
:103940008C3009F055C080910E03882309F450C0D3
:103950008091860281114CC043E06EE18DEE93E0D0
:103960000E9480118DEE93E00E94C7118EE891E0D5
:103970000E94141480918002811117C00E94C52FEB
:1039800023E130E040E050E00E948C316F5F7F4FD8
:103990008F4F9F4F609382027093830280938402C3
:1039A0009093850281E08093800280910A0190913A
:1039B0000B019093080180930701809182029091FE
:1039C0008302880F991F90930B0180930A0181E075
:1039D0008093860290910901292F30E09C5040E0AD
:1039E00050E0BA019D3008F0B5C0C9010E94D0096D
:1039F000809109018D3009F061C080910E03882308
:103A000081F082E090E090930B0180930A0143E003
:103A100060E08DEE93E00E9480118DEE93E00E94B5
:103A2000C71180918C02811111C081E080938C02BA
:103A30001092120345E066E48DEE93E00E9480113F
:103A40008DEE93E00E94C7110E943A140E94581014
:103A50002AE930E0DC010E947B33653D7E4F8F4FC9
:103A60009F4F0CF47DC00E9458102AE930E0DC0121
:103A70000E947B33643A754B810591050CF073C04D
:103A80000E9458102AE930E0DC010E947B332CE2CE
:103A900031E040E050E00E948C312C593F4F4F4FB5
:103AA0005F4F30930101209300010E9458108B3822
:103AB00092400CF45BC081E0809381028091090107
:103AC0008E3011F4109286028D508C30B0F58091BA
:103AD0008C02811107C0C1E0C0938C020E9447167E
:103AE000C0938C020E942D0E0091870210918802D3
:103AF0002091890230918A02AB01BC01401B510B1D
:103B0000620B730B80910C0190910D01092E000C3A
:103B1000AA0BBB0B481759076A077B0760F00E9486
:103B20002D0E609387027093880280938902909390
:103B30008A020E94191410928002CF911F910F9156
:103B4000089545E066E48DEE93E00E94801188E8D8
:103B500091E078CEC9010E94D0090E94520E48CF50
:103B600024E630E09ECF2EEF30E09BCF1092810212
:103B7000A5CF1F920F920FB60F9211242F933F9350
:103B80004F935F936F937F938F939F93AF93BF9365
:103B9000EF93FF938091BB029091BC02A091BD0274
:103BA000B091BE02892B8A2B8B2BD1F19091BA0256
:103BB000E091B802F091B9028081892780838091D9
:103BC000BB029091BC02A091BD02B091BE0218163A
:103BD00019061A061B069CF48091BB029091BC0248
:103BE000A091BD02B091BE020197A109B1098093D5
:103BF000BB029093BC02A093BD02B093BE02FF91A2
:103C0000EF91BF91AF919F918F917F916F915F9154
:103C10004F913F912F910F900FBE0F901F901895CD
:103C200080910201EFEEF0E0E4919FEF90930201AA
:103C3000E230E1F040F4EE2381F0E13089F060E021
:103C40000E94E30BDCCFE33011F1E430C1F7909137
:103C500072009D7F90937200F2CF10926E00EFCFB2
:103C600090916F009D7F90936F00E9CF90917000CD
:103C70009D7F9093700091E09093B0009091B1007F
:103C8000987F94609093B1001092B300D8CF909138
:103C900071009D7F90937100D2CF1F920F920FB64B
:103CA0000F9211242F933F934F935F936F937F93C2
:103CB0008F939F93AF93BF93EF93FF9384E293E02F
:103CC0000E94D30AFF91EF91BF91AF919F918F9185
:103CD0007F916F915F914F913F912F910F900FBE08
:103CE0000F901F9018951F920F920FB60F921124EC
:103CF0002F938F939F93EF93FF93E0913403F09171
:103D000035038081E0913A03F0913B0382FD1BC0B3
:103D1000908180913D038F5F8F7320913E038217C6
:103D200041F0E0913D03F0E0EC5DFC4F958F809316
:103D30003D03FF91EF919F918F912F910F900FBEB7
:103D40000F901F9018958081F4CF1F920F920FB69D
:103D50000F9211242F933F938F939F93AF93BF9311
:103D600080919C0290919D02A0919E02B0919F0231
:103D700030919B0223E0230F2D3758F50196A11DAA
:103D8000B11D20939B0280939C0290939D02A0936F
:103D90009E02B0939F028091A0029091A102A091F7
:103DA000A202B091A3020196A11DB11D8093A002B1
:103DB0009093A102A093A202B093A302BF91AF91EE
:103DC0009F918F913F912F910F900FBE0F901F9059
:103DD000189526E8230F0296A11DB11DD2CF1F9280
:103DE0000F920FB60F9211242F933F934F935F932F
:103DF0006F938F939F93AF93BF93EF93FF938091B4
:103E00000401882309F46DC080916502882309F4B8
:103E100095C0809179008455990B909364028093AA
:103E20006302209163023091640240910F01429F2E
:103E3000C001439F900D112490936402809363020C
:103E40008091FA029091FB02A091FC02B091FD02D8
:103E50004091610250916202480F591F50936202D3
:103E600040936102209163023091640257FF02C0C7
:103E700020953095809163029091640240E4450F53
:103E800047FF02C080959095409194025091950211
:103E900060919002E0919402F0919502062E02C08A
:103EA000559547950A94E2F7241B350B2E0F3F1FBB
:103EB00030939502209394022091920230919302C4
:103EC000409192025091930202C0359527956A95D0
:103ED000E2F7821B930B840F951F909393028093BC
:103EE00092028091F2028823C9F09091780080912B
:103EF00079008927982789279093DA028093D9023D
:103F000081E080938F028091D9029091DA028E3FF6
:103F1000934024F01092DA021092D902FF91EF91AF
:103F2000BF91AF919F918F916F915F914F913F9111
:103F30002F910F900FBE0F901F90189580917900D0
:103F40008058990B79CF1F920F920FB60F921124C0
:103F50008F939F938091650491E0892780936504F6
:103F60009F918F910F900FBE0F901F9018951F92E9
:103F70000F920FB60F921124CF92DF92EF92FF9221
:103F80000F931F932F933F934F935F936F937F9361
:103F90008F939F93AF93BF93EF93FF938091DC0236
:103FA0009091DD0201969093DD028093DC02809176
:103FB0005F029091600201969093600280935F028D
:103FC0002091DC023091DD0280910A0190910B0179
:103FD0002817390708F42EC1809109011092DD02DB
:103FE0001092DC0291E090938D028F5F893108F08E
:103FF0004AC18093090180910901811138C085B1BE
:1040000091E0892785B910925E0210925D0280913D
:104010001401882309F10E94570F6093E9027093FD
:10402000EA028093EB029093EC028091110328E066
:1040300030E040E050E060EA7AE0811127C189E099
:104040000E944D0C0E942D0E6093590270935A02EB
:1040500080935B0290935C0280911501882339F074
:1040600080911303882309F413C10E94B110809139
:1040700009018C3011F580910E03811143C18091AB
:104080000A0190910B0190930801809307018091A0
:104090000D038E3151F480911303811117C18CE00F
:1040A00090E090930B0180930A0180910D03883179
:1040B00009F028C18DE080930901809109018D30BC
:1040C00009F061C0209107013091080130930B0184
:1040D00020930A0190910D039931D9F49091C30274
:1040E0002091140330911503409198025091990248
:1040F000992309F4EEC037FF02C021583F4F220F29
:10410000232F221F330B240F351F30939900209348
:10411000980090910D039E31C9F4209114033091C1
:104120001503409198025091990237FF02C0295F10
:104130003F4FA3E035952795AA95E1F74C5E5F4F79
:10414000240F351F309399002093980090910D0310
:104150009831C9F4209114033091150340919802CD
:104160005091990237FF02C0295F3F4FF3E0359528
:104170002795FA95E1F7405E5F4F240F351F309386
:1041800099002093980090911601992309F452C048
:104190009FEF980F9C30A0F491E0909320039091B2
:1041A0008102992309F49FC00E94B1100E94570F09
:1041B00060937204709373048093740490937504F5
:1041C000809109018C3039F490910D039E3119F4DE
:1041D00091E09093580293EF980F9D3058F54091DD
:1041E0000001C42ED12CF12CE12CB6015527442717
:1041F00090E020918102222361F03E2D2D2D1C2D77
:104200000027402B512B622B732B4C295D296E29E3
:104210007F290E94D0090E94520E81E080932003E2
:104220000E94570F60937204709373048093740418
:1042300090937504809109018D3071F48091DC02B6
:104240009091DD02019741F480919802909199023A
:104250009093990080939800FF91EF91BF91AF9157
:104260009F918F917F916F915F914F913F912F918E
:104270001F910F91FF90EF90DF90CF900F900FBEA6
:104280000F901F90189510920901B5CE83E0D8CEFB
:1042900081E08093200310E000E044E654E664E609
:1042A00070E0C8010E94D0090F5F1F4F0A3111054D
:1042B000A1F70E94520E0E94570F609372047093F0
:1042C00073048093740490937504D1CE86E090E0DB
:1042D000E8CE37FF02C0295F3F4FB3E03595279501
:1042E000BA95E1F710CF4091000150E070E060E036
:1042F000762F652F542F442790E00E94D0090E940A
:10430000520E54CF8CE03FCFFC01118210821382F9
:10431000128215821482FB0101900020E9F7319787
:10432000AF01461B570B0C94D41510922703109223
:10433000260388EE93E0A0E0B0E0809328039093FA
:104340002903A0932A03B0932B0382E391E0909377
:1043500025038093240385EC90E0909331038093B0
:10436000300384EC90E0909333038093320380EC2D
:1043700090E0909335038093340381EC90E0909328
:1043800037038093360382EC90E090933903809357
:10439000380386EC90E090933B0380933A031092AD
:1043A0003D0310923E0310923F031092400310927F
:1043B000C4031092C303A5ECB3E0EEE0F0E091E299
:1043C0009093570084918D933196E831F105C1F7B0
:1043D00064E971E088E894E00E9484216BE671E072
:1043E00082E894E00E9484216BE671E08CE794E01F
:1043F0000E9484216BE671E086E794E00E948421AC
:104400000E94570F60937204709373048093740436
:10441000909375040E94570F60936E0470936F041D
:1044200080937004909371040E94570F60936A0404
:1044300070936B0480936C0490936D040E94570FEB
:104440000E94570F6093660470936704809368041A
:104450009093690480916504809364040E94570FCF
:104460008AE08093020410920304109204041092D4
:104470000104E1E5F4E080E081938F5F8A30E1F7A9
:104480000E94570F0E94570F1092F0031092EF03F3
:104490001092F9031092FA031092FC031092FB039E
:1044A0001092FD0381E08093FE0324E431E0309319
:1044B000EE032093ED031092D8031092DF031092C5
:1044C000E6031092E7031092E8031092E903809349
:1044D000E5038093E2031092E30392E09093E403F8
:1044E0008093D7038BE490E09093DC038093DB030D
:1044F0000E9482339093E1038093E003009709F4D4
:1045000050C02BE4FC0111922A95E9F789E190E073
:104510009093DA038093D9038FE090E09093DE03C9
:104520008093DD038091D803882341F061E08FE020
:104530000E94110C60E08FE00E94E30BEFE3F3E1D7
:10454000E491F0E0EE0FFF1FEC5DFC4E859194913D
:104550009093EB038093EA03EBE1F3E1E491E093C2
:10456000EC030E94570F6093D3037093D40380939E
:10457000D5039093D6030E94570F6093CF03709397
:10458000D0038093D1039093D2030E94570F0E94CF
:10459000570F0E94570F0E94570F0E94570F0C94FD
:1045A000570F1092DC031092DB031092DA03109283
:1045B000D903B2CFCF93DF9300D000D000D0CDB7D6
:1045C000DEB7789484B5826084BD84B5816084BD93
:1045D00085B5826085BD85B5816085BD80916E00A1
:1045E000816080936E0010928100809181008260D2
:1045F000809381008091810081608093810080910F
:1046000080008160809380008091B10084608093FD
:10461000B1008091B00081608093B00080919100E2
:1046200082608093910080919100816080939100DD
:10463000809190008160809390008091A1008260C1
:104640008093A1008091A10081608093A10080915E
:10465000A00081608093A00080917A0084608093A4
:104660007A0080917A00826080937A0080917A004B
:10467000816080937A0080917A00806880937A00CC
:104680001092C100209A17BE0E94FA1890916504FA
:1046900080916404981749F08091650480936404C4
:1046A0000E94570F81E08093BF028091BF02882350
:1046B00059F00E94570F0E94570F1092BF0281E0DD
:1046C000639B90C28093220380912303882309F483
:1046D0007FC01092230364E170E080E090E00E94CC
:1046E000250F80911003811148C01092160110927D
:1046F0001501809168008860809368008091730044
:1047000088608093730060E085E00E94E30B64E1C1
:1047100070E080E090E00E94250F60E082E00E945F
:10472000E30B64E170E080E090E00E94250F83B726
:10473000817F846083BFF89410927A008091640036
:104740008FEF80936400809165008D638093650096
:1047500083B7816083BF80E685BF80E485BF78949E
:10476000889583B78E7F83BF809164001092640028
:1047700080916500827C809365008091100388237E
:1047800039F18091C002811123C01092160110925C
:1047900015011092140184E080936900E99A60E0A9
:1047A00085E00E94E30B64E170E080E090E00E940D
:1047B000250F60E082E00E94E30B81E08093C0025D
:1047C0008093C3028093C1021092C2020E94570FCD
:1047D000809122038823D9F0109222031092C30201
:1047E00081E08093C2021092C102809168008860CB
:1047F00080936800809173008860809373001092AA
:104800001601109215011092C0020E94FA188091B0
:104810001701882309F475C280910301882309F4E4
:1048200071C08091CA02811149C00E94570F6093E4
:1048300066047093670480936804909369048DEE16
:1048400093E00E94581380EF90E00E948A0F40E0AE
:1048500060E08DEE93E00E94801189E991E00E9472
:10486000141486E79BE00E948A0F45E060E08DEE1D
:1048700093E00E94801160910D0370E090E080E071
:104880004AE00E949E1345E067E18DEE93E00E94AE
:10489000801181EA91E00E94141445E066E48DEEF7
:1048A00093E00E94801185EA91E00E94141488E848
:1048B00094E00E94830A81E08093CA020E94570F0D
:1048C0000091660410916704209168043091690496
:1048D000601B710B820B930B6C3D7540810591053C
:1048E00088F00E94570F609366047093670480936A
:1048F0006804909369041092CA021092030181E047
:104900008093C9028091C902882309F497C08091DD
:10491000CA02811169C00E94570F609366047093A8
:10492000670480936804909369048DEE93E00E947D
:10493000581386E79BE00E948A0FFF24F394F092BD
:10494000F6030E949B0F8C016091F30370E0681BDB
:10495000790B7695679540E08DEE93E00E9480118B
:104960006BE671E08DEE93E00E9478146091F303A2
:1049700070E0601B710B7695679542E08DEE93E0D9
:104980000E9480116BE671E08DEE93E00E94781436
:104990006091F30370E0601B710B7695679544E0BE
:1049A0008DEE93E00E9480116BE671E08DEE93E056
:1049B0000E9478146091F30370E0601B710B769590
:1049C000679546E08DEE93E00E9480116BE671E002
:1049D0008DEE93E00E947814F092F60386E79BE058
:1049E0000E948A0FF092CA020E94570F009166043B
:1049F000109167042091680430916904601B710B69
:104A0000820B930B6433784081059105B8F00E94C6
:104A1000570F6093660470936704809368049093C3
:104A200069041092CA02109203011092C90281E037
:104A30008093C8028DEE93E00E9458138091C802C3
:104A4000882309F45BC18091CA0281110DC081E005
:104A50008093CA020E94570F6093660470936704A4
:104A600080936804909369049AE0F92E10E000E0C6
:104A700085E10E941B0E080F191FFA94F110F8CF60
:104A8000B801110F880B990B0E94593020E030E0DB
:104A900040E251E40E94933220E030E040EA50E4EA
:104AA0000E94B83020E030E040E85AE30E94B8307D
:104AB0009B01AC010E94273220E030E048EC52E438
:104AC0000E94B8300E9405334B015C0148E5841A0E
:104AD00042E0940AA108B108AAE1B0E0A50194015E
:104AE0000E94AB312CE231E040E050E00E948C317A
:104AF000CA01B9010E9459306B017C018091C70243
:104B0000811141C081E08093C70241E069E18DEEEF
:104B100093E00E94801180EF90E00E948A0FA4E64B
:104B2000B0E0A50194010E94AB312CE231E040E0FD
:104B300050E00E948C31C9012536310514F084E61D
:104B400090E097FF02C090E080E00E94E41387EAC3
:104B500091E00E94141420E030E0A901C701B601E1
:104B60000E943B3345E018160CF03FC069E18DEE22
:104B700093E00E94801186E79BE00E948A0F89EAF9
:104B800091E00E94141420E030E0A901C701B601B1
:104B90000E94523018160CF441C00E94570F8091A9
:104BA000C40281113BC00E94570F81E08093C40270
:104BB0006FEB71E084E293E00E9478141092090197
:104BC000109109011A3120F540E050E06AE070E0F0
:104BD000812F90E00E94D0090E94520E1F5F109317
:104BE0000901EECF809323036FCD60E08DEE93E05B
:104BF0000E94801186E79BE00E948A0F1092F603C4
:104C000081EB91E00E94141481E08093F603BBCF06
:104C100068EE73E080E090E00E94250F0E94570F3D
:104C200000916E0410916F04209170043091710412
:104C3000601B710B820B930B6F3071058105910521
:104C400090F10E94570F60936E0470936F048093ED
:104C50007004909371040091C5021091C602B801CE
:104C6000012E000C880B990B0E9459309B01AC015E
:104C7000C701B6010E943B3344E150E060E070E0C0
:104C800018161CF040E050E0BA01C8010E94D0099B
:104C90000E94520E0A31110534F40F5F1F4F10931A
:104CA000C6020093C5020E94570F0091660410913E
:104CB00067042091680430916904601B710B820BBA
:104CC000930B603D774081059105C0F00E94570F1E
:104CD00060936604709367048093680490936904FA
:104CE0001092CA02109203011092C9021092C802D7
:104CF000109217018DEE93E00E9458130E94620BF0
:104D0000C5CC0E94BF0B90931F0380931E03009796
:104D100009F05FC18091110190911201019791F406
:104D20000E94570F6B3071058105910558F00E9464
:104D3000570F2B013C0180911E0390911F03892B7B
:104D400009F028C10E94570F64197509860997094F
:104D5000653F71408105910508F41CC180911601E1
:104D600081111092160110921501109214018DEE0E
:104D700093E00E9458130E94461086E79BE00E9431
:104D80008A0F1092F60340E060E08DEE93E00E94FF
:104D9000801162E271E08DEE93E00E94781486EC5F
:104DA00091E00E94141482E894E00E94830A69E66C
:104DB00071E08DEE93E00E948F138CE794E00E94E7
:104DC000830A69E671E08DEE93E00E948F1386E717
:104DD00094E00E94830A60ED77E080E090E00E941A
:104DE000250F86E79BE00E948A0F8DEE93E00E94DC
:104DF000581340E060E08DEE93E00E94801189EC52
:104E000091E00E94141460911A0370911B03809129
:104E10001C0390911D034AE00E949E136EEC71E00A
:104E20008DEE93E00E94781482ED91E00E941414BC
:104E300060911603709117038091180390911903E4
:104E40004AE00E949E1369E671E08DEE93E00E94B5
:104E50008F1388ED91E00E941414809114039091B7
:104E600015030E94E4138FED91E00E9414146091E9
:104E70000F0170E090E080E04AE00E949E1360ED38
:104E800077E080E090E00E94250F8091210381501F
:104E9000809321038DEE93E00E94581311E010934C
:104EA000F60310921303109212030E94441480918F
:104EB0001E0390911F03892B09F06CC00E94570FAD
:104EC000641975098609970961377741810591054C
:104ED00008F460C0809111038111A7C01983BE013D
:104EE0006F5F7F4F8CEF93E00E94E21822E330E087
:104EF00040E050E064EF71E089E00E944D0C1092B8
:104F000016018DEE93E00E9458130E94461041E076
:104F10006AE08DEE93E00E9480118091110345E0DC
:104F20006AE08DEE93E00E94801182EE91E00E9493
:104F3000141480E999E00E948A0F46E060E08DEE4B
:104F400093E00E94801105EC13E08FECE82E83E0E3
:104F5000F82EF80181918F01803120F487E991E0EA
:104F60000E941414F8013197608170E090E080E0B5
:104F700040E10E949E13E016F10659F786E79BE098
:104F80000E948A0F60ED77E080E090E00E94250F9C
:104F90000C94000080911E0390911F0390931201C6
:104FA00080931101E0912103ED3008F0A7CEF0E0ED
:104FB000E452F84D0C946D331728C228FF28772946
:104FC000BA293D2F452F452F452F452F452F4C2FD3
:104FD000522F0197F9F68091110190911201892BBE
:104FE000C9F60E94570F64197509860997096B3035
:104FF00071058105910570F281E080931001809127
:1050000021038F5F80932103853010F010922103DC
:105010000E94570F89EF93E09A838983609121035F
:10502000CE0101960E94D31786CE198258CF809167
:1050300010018823E9F11092810080917A008F7D20
:1050400080937A0087E880937A0066EA8DEE93E099
:105050000E9453118DEE93E00E9458130E94441455
:1050600081E0809316018093150180931401809351
:105070000E01109213031092100310920F0310925E
:105080000E0388EA91E690930D0180930C0182E172
:105090008093130143E060E08DEE93E00E94801165
:1050A0008DEE93E00E94C7110E944E1410921001E1
:1050B0000E94E01B80911601811104C080911501AE
:1050C000882311F1809120038823F1F00E94570F6B
:1050D000009172041091730420917404309175044E
:1050E000AB01BC01401B510B620B730B8091130190
:1050F00090E0B0E0A0E0481759076A077B0720F06E
:10510000109220030E9446100E94570F00916A04DB
:1051100010916B0420916C0430916D04601B710B35
:10512000820B930B60367A4E8105910508F4E6CD2B
:1051300080911A0390911B03A0911C03B0911D0351
:105140000196A11DB11D80931A0390931B03A09398
:105150001C03B0931D038091C3039091C403029775
:1051600034F06AE173E081E090E00E94EC170E9465
:10517000570F60936A0470936B0480936C04909350
:105180006D04BCCD80911001882309F491CF109259
:10519000810011E010931601109315011093140172
:1051A00066EA8DEE93E00E9453110E94441481E060
:1051B00090E090930B0180930A018AE080931301A1
:1051C00010920E011093130310920F0310920E030E
:1051D0001092100341E061E08DEE93E00E94801197
:1051E0008DEE93E00E94C71143E062E18DEE93E003
:1051F0000E9480118CEE91E00E94141457CF809190
:105200001001882309F454CF1092810011E010930B
:105210001601109315011093140166EA8DEE93E0C8
:105220000E9453110E94441410920E0143E060E06A
:105230008DEE93E00E9480118DEE93E00E94C711E5
:105240001092120380E197E290930D0180930C017C
:1052500082E18093130110920E01109213031093B8
:105260000F0310920E031092100380910D038E31E4
:1052700031F42EE130E030930B0120930A0180914C
:105280000D03883171F588E190E090930B018093D4
:105290000A0141E061E08DEE93E00E9480118DEE05
:1052A00093E00E94C71143E063E28DEE93E00E9419
:1052B000801185EF91E00E94141445E065E08DEEC9
:1052C00093E00E9480118AEF91E00E9414140E94E2
:1052D0004E14809109018D508C3030F40E943A14A4
:1052E000E5CE89E190E0D1CF0E942814DFCE8091F5
:1052F0001001882309F4DCCE1092810011E0109394
:105300001601109315011093140166EA8DEE93E0D7
:105310000E9453110E94441443E060E08DEE93E03C
:105320000E9480118DEE93E00E94C71188EA91E6F9
:1053300090930D0180930C0182E1809313011092F0
:105340000E011092130310920F031092100310938A
:105350000E0342E050E050930B0140930A0141E0FC
:1053600061E08DEE93E00E9480118DEE93E00E944B
:10537000C7119CCE109216011092150110921401C3
:1053800080911001882349F1109281001092100140
:1053900066EA8DEE93E00E9453110E948C140E94E5
:1053A00046100E94CA1010920E03109210030E9421
:1053B000570F6093CF037093D0038093D1039093E2
:1053C000D2030E94001182E090E090930B01809341
:1053D0000A0190930801809307010E94570F0091E2
:1053E000CF031091D0032091D1033091D203601BE1
:1053F000710B820B930B68357B418105910520F180
:105400000E94570F6093CF037093D0038093D10312
:105410009093D2030E9446100E9400110E948C14A7
:1054200010920C0310920B0310920A03EEE1F0E0CD
:10543000F0930601E093050110920903109208030E
:10544000109207031092060380910401882309F447
:10545000D7C10E94570FC090CD02D090CE02E090ED
:10546000CF02F090D0026C197D098E099F09643635
:10547000710581059105D0F00E94570F6C197D09C7
:105480008E099F09653873408105910578F48091F4
:10549000CB029091CC022091050130910601821738
:1054A000930724F090930601809305010E949E0FBC
:1054B0009093CC028093CB0220910A0330910B038E
:1054C0008217930720F090930B0380930A030E94A6
:1054D000BE0F8823D9F08091F902811117C081E0B5
:1054E0008093F9020E942D0E6093F5027093F602EC
:1054F0008093F7029093F80210920B0310920A0324
:105500002EE130E030930601209305010E94570FF1
:10551000C090D303D090D403E090D503F090D6038D
:105520006C197D098E099F09603B744081059105C6
:1055300050F010920B0310920A034EE150E050938A
:105540000601409305010E94570F6C197D098E09D1
:105550009F09683B7B408105910508F45CC00E946F
:10556000570F6093D3037093D4038093D503909324
:10557000D60320E030E04AE255E4609102037091E6
:10558000030380910403909105030E94523081111E
:10559000FDC280E090E0AAEAB5E480930203909314
:1055A0000303A0930403B093050381E080930C03ED
:1055B0002091FE023091FF024091000350910103BF
:1055C000609102037091030380910403909105039D
:1055D0000E94933220E030E040E857E40E94B83067
:1055E0006B017C0120E030E0A9010E943B3320E008
:1055F00030E040E05FE387FDD8C2C701B6010E94FA
:1056000027320E9405336093FA027093FB02809365
:10561000FC029093FD028091F902882309F4CDC029
:105620000E94570F6093D3037093D4038093D503E4
:105630009093D6030E942D0EC090F502D090F602F2
:10564000E090F702F090F8026C197D098E099F092D
:10565000603A7B4B8D40910508F4AFC00E94BE0FAD
:10566000882309F495C00E94570F0091D50210912C
:10567000D6022091D7023091D802601B710B820BA9
:10568000930B623371058105910508F481C00E9476
:105690002D0E9B01AC012C193D094E095F096901D2
:1056A0007A01C092DF02D092E002E092E102F09231
:1056B000E2026093F5027093F6028093F7029093F2
:1056C000F8020E94570F6093CD027093CE02809330
:1056D000CF029093D0024EE150E0509306014093E8
:1056E000050150EFC51A5EE7D50A5EE0E50AF1084C
:1056F00081EAC81686E8D80681E0E806F104D0F50C
:105700008091F3029091F4029C012F5F3F4F309300
:10571000F4022093F3020A9620910C0340E050E03B
:1057200064E670E0222321F040E054E164E670E09A
:105730000E94D0090E94520E0E94570F6093CD0222
:105740007093CE028093CF029093D0020E94570FA5
:105750006093CF037093D0038093D1039093D203CF
:105760000E94570F6093D5027093D6028093D702A0
:105770009093D8021092F9021092E8020E94570FFB
:105780006093E9027093EA028093EB029093EC023B
:105790000E942D0E0091F5021091F6022091F70261
:1057A0003091F802601B710B820B930B603E784CBA
:1057B0008041910510F01092F9028091F3029091CE
:1057C000F4020297ECF01092F4021092F30286E4D5
:1057D00080937C0080917C008F7D80937C00109270
:1057E000040181E08093F2021092F4021092F3021D
:1057F0001092DF021092E0021092E1021092E20297
:105800008091F202882309F4BFC20E94570F0091D1
:10581000E9021091EA022091EB023091EC02601B48
:10582000710B820B930B6C3271408105910598F1DD
:105830008091DE0281112FC0E4EFF1E0F0930703C5
:10584000E093060344EF51E060E070E0CB0100918B
:10585000D9021091DA02012E000C220B330B600FDB
:10586000711F821F931F4150510989F724EF31E0C6
:1058700040E050E00E94F531309307032093060387
:10588000809106039091070381E08093DE0280916E
:105890000603909107030E94F70F8823D9F08091A7
:1058A000F102811117C0109209031092080310929F
:1058B000DB028091D9029091DA0281E08093F102BB
:1058C0000E942D0E6093ED027093EE028093EF0222
:1058D0009093F0028091F102882309F4B4C00E94F1
:1058E0002D0EC090ED02D090EE02E090EF02F0900D
:1058F000F0026C197D098E099F09603A7B4B8D403F
:10590000910508F4A0C00E94F70F882309F486C00F
:105910000E942D0E9B01AC012C193D094E095F0917
:1059200069017A01C092DF02D092E002E092E102C6
:10593000F092E2026093ED027093EE028093EF0228
:105940009093F0020E94570F1092DE0230EFC31ABC
:105950003EE7D30A3EE0E30AF10841EAC41646E80E
:10596000D40641E0E406F10408F04AC08091F30255
:105970009091F40201969093F4028093F3028230A6
:105980009105F9F4F89410929100109295001092FC
:105990009400C19A2AE02093910020917100226026
:1059A000209371001092DD021092DC021092090126
:1059B00090930B0180930A01789485B191E0892737
:1059C00085B98BB192E089278BB985B191E08927A0
:1059D00085B98091F3029091F40244E650E060E0D2
:1059E00070E00B960E94D0090E94520E0E94570F41
:1059F0006093CF037093D0038093D1039093D2032D
:105A00001092F1021092E8020E94570F6093E9028F
:105A10007093EA028093EB029093EC020E942D0EA9
:105A20000091ED021091EE022091EF023091F00210
:105A3000601B710B820B930B603E784C804191058B
:105A400010F01092F1028091F3029091F40202970B
:105A50000CF49AC10E9400118091E6029091E70235
:105A60009093E5028093E4026091ED027091EE0262
:105A70008091EF029091F0020091F5021091F602F0
:105A80002091F7023091F802601B710B820B930B8F
:105A900020E432E44FE050E00E94F53128EE33E09C
:105AA00040E050E00E94F531C9013093E7022093B5
:105AB000E602255E33402730310518F003970CF0DD
:105AC00079C081E08093E30267EA8DEE93E00E9463
:105AD00053118DEE93E00E9458132091E60230910D
