:100000000C94A6090C94CE090C94CE090C94CE093C
:100010000C94CE090C94CE090C94CE090C94421E7B
:100020000C94CE090C94CE090C94CE090C94CE09F4
:100030000C94CE090C94CE090C94CE090C94CE09E4
:100040000C94F81D0C94CE090C94FC1E0C94D61E36
:100050000C94CE090C942E1F0C94CE090C94CE094E
:100060000C94CE090C94CE090C94CE090C94E21F8A
:100070000C94CE090C94CE090C94CE090C94CE09A4
:100080000C94CE090C94F61F0C94CE090C94CE0956
:100090000C94CE090C94CE090C94CE090C94CE0984
:1000A0000C94CE090C94CE090C94CE090C94CE0974
:1000B0000C94CE09AED580A83FD300408D14200209
:1000C000A1C8DA1281FFD9F1DB40A4A6AFB40019B0
:1000D00080400000030C0F30333C3FC0C3CCCFF056
:1000E000F3FCFF90011C24206008000000002000A9
:1000F0000000000000000A0000150F151416151569
:1001000014141508000000000000000000000000AA
:1001100000000000000000180000000017000000B0
:1001200000000000000000000000000015000000BA
:10013000000008000000001400000000000E000095
:100140000000160000000000000000000000000099
:10015000000000000000000000000000000000009F
:10016000000000000000000000000000000000008F
:1001700000C0F0F8FC7C1C1C1C7CFCF8F8C00000E3
:1001800000000000C0F0FC7C1C0400000000000027
:1001900000071F3F7F7C7070707C7F3F3F070080AF
:1001A000E0F8FE3F1F070100000000000000000013
:1001B0000000000000000000000000C0E0F8FE3F6A
:1001C0000F030000F0FEFEFF1F0707071FFFFEFCE6
:1001D000F000000000000000101C1F1F07030000BB
:1001E00000000000010F0F1F1F1C1C1C1F1F0F070A
:1001F00001000000000000000000000000000000FE
:1002000000000000000000000000000000000000EE
:1002100000000000000000000000000000000000DE
:1002200000000000001F1F1F1F1F1F1F1F1F1F0098
:1002300000000000000000000000000000000000BE
:1002400000000000C0F0F0F8F8FCFC7C7C7C7CFC3A
:10025000FCF8F8F0E0C00000FFFFFFFFFFFFFF0029
:100260000000000000FFFFFFFFFFFFFF003FFFFF58
:10027000FFFFFFFFC080808080C0FFFFFFFFFFFF08
:100280003F0000000307070F0F0F0F0F0F0F0F0F97
:100290000F0707030100000000000000000000003D
:1002A00000000000000000000000000000000080CE
:1002B00080C0E0F0FCFCFCFCFCFCFC3F3F3F1F1F4F
:1002C0000F07FFFFFFFFFFFFFFFF00000000000020
:1002D00000FFFFFFFFFFFFFFFF0000000000000026
:1002E0000F0F0F0F0F0F0F0F000000000000000096
:1002F0000000000000000000C0E0F0F8F8FCFCFC8A
:100300007C7C7C7CFCFCFCF8F8F0E0C00003030380
:10031000030303030080C0C0E0F8FFFFFFFF7F3F3F
:100320000F0080C0F0F8FCFEFFFFFFFFDFCFC7C764
:10033000C3C1C0C0C0C00F0F0F0F0F0F0F0F0F0FA3
:100340000F0F0F0F0F0F0F0F0F0F0F000000000008
:10035000000000000000000000000000000000009D
:1003600080E0F0F8F8FCFC7C7C3C7C7CFCFCFCF83D
:10037000F8F0C0000101010101010100F0F0F8F8FE
:10038000FFFFFFFFDF8F8700E0E0E0E0E0E0E080DC
:100390000101010183FFFFFFFFFFFFFF00010307D2
:1003A000070F0F0F0F0F0F0F0F0F0F07070301009E
:1003B000000000000000000000000000000000003D
:1003C00000000000000000000000000080C0E0F815
:1003D000FCFCFCFCFCFCFC0000000080C0E0F0FC2D
:1003E000FEFF7F1F0F0703FFFFFFFFFFFF0000005F
:1003F0007F7F7F7F7F7F7D7C7C7C7C7C7CFFFFFFA1
:10040000FFFFFF7C7C7C000000000000000000007B
:100410000000000F0F0F0F0F0F0000000000000082
:1004200000000000000000000000000000000000CC
:1004300000000000FCFCFCFCFCFCFCFCFCFCFCFCEC
:10044000FCFCFCFCFC00000000FFFFFFFFFFF87855
:10045000787878F8F8F8F8F0E0E0800000E0E0E183
:10046000E1E1E1800000000080FFFFFFFFFFFF7F70
:100470001E00010307070F0F0F0F0F0F0F0F0F0FB6
:10048000070703010000000000000000000000005A
:10049000000000000000000000000000C0E0F0F8D4
:1004A000F8FCFC7C3C3C3C7CFCFCF8F8F0E00000F8
:1004B000FEFFFFFFFFFFFFE1F0787878F8F8F8F82B
:1004C000F0E0C080003FFFFFFFFFFFFFC1800000A2
:1004D0000080C1FFFFFFFFFFFF3E00000103070791
:1004E0000F0F0F0F0F0F0F0F0F0F07030300000069
:1004F00000000000000000000000000000000000FC
:1005000000000000FCFCFCFCFCFCFCFCFCFCFCFC1B
:10051000FCFCFCFCFCFCFCFC0000000000000000FB
:10052000C0F0F8FEFFFF7F1F0F0301000000000076
:1005300000E0FCFFFFFFFFFF0F01000000000000D4
:10054000000000000E0F0F0F0F0F0F010000000042
:10055000000000000000000000000000000000009B
:10056000000000000000000080E0F0F8F8FCFC7CD7
:100570003C3C3C7CFCFCFCF8F8F0E080030F9FFF67
:10058000FFFFFFF8F0F0F0F0FCFFFFFFFF9F0F030D
:10059000FEFFFFFFFFFFFF830100000183FFFFFF5E
:1005A000FFFFFFFE000307070F0F0F0F0F0F0F0FC7
:1005B0000F0F0F07070701000000000000000000F8
:1005C00000000000000000000000000000C0E0F09B
:1005D000F8F8FCFC7C3C3C7C7CFCFCF8F8F0E0C0CF
:1005E000003F7FFFFFFFFFFFE0C0808080C0E0FF93
:1005F000FFFFFFFFFFFE00C0C1C3C3C7C7C7870718
:10060000070783E1FFFFFFFFFFFF3F000001030734
:100610000F0F0F0F0F0F0F0F0F0F07070301000032
:1006200000000000000000000000000000000000CA
:1006300000000000000000000000000000FEFEFEC0
:10064000FEFEFEFEFEE0E0E0E0E0E0E0E00F0F0F87
:100650000F0F0F0F0F0000000000000000FCFCFC5B
:10066000FCFCFCFCF8F0C080000000000000FCFC7A
:10067000FCFCFCFCFCFFFFFFFFFFFFFF7FFFFFFF19
:10068000FEFCF0E08000FFFFFFFFFFFFFFFFFFFF2A
:10069000FFFFFFFF000001070F3F7FFFFFFFFFFF8E
:1006A000FFFFFFFFFF0F0F0F0F0F0F0F00000000E6
:1006B00000000001030F0F0F0F0F0F0F0F000000BE
:1006C000000000000000000000000000000000002A
:1006D000000000000000E0F0F0F8F8FCFC7C7C7CFE
:1006E0007C7CFCFCFCF8F8F0E0C00000071F3F7FBA
:1006F000FFFFFFFFFCFCF8F8F8F8F3F3F3E3E3C3C4
:10070000830000F8F8F8F8F8F8F8E1C181838383F2
:1007100087CFFFFFFFFFFFFFFF7E00010307070FEB
:100720000F0F0F0F0F0F0F0F0F0F0F070703010012
:1007300000000000000000000000000000000000B9
:1007400000000000000000000000000000000000A9
:100750000000000000000000000000000000C0F0E9
:10076000F8F8FCFCFE7E7E3E3E3E7EFEFEFCFCF883
:10077000F0E01EFFFFFFFFFFFFF3C08080008080DE
:10078000C0E0E0E0E0E0E00000010307070F0F0F2A
:100790000F0F0F0F0F0F0F0F0703030000000000D4
:1007A0000000000000000000000000000000000049
:1007B000007C7C7C7C7C7C7C7CFEFEFEFEFEFEFE67
:1007C000FEFFFFFFFFFFFFFFFF0F0F0F0F0F0F0FCA
:1007D0000F0000000000000000000000000000000A
:1007E00000000000000000000000000000FEFEFE0F
:1007F000FEFEFEFEF0787C7C7EFEFEFEFEFCFCF83B
:10080000E0FFFFFFFFFFFFFF000000000000FFFF11
:10081000FFFFFFFFFF0F0F0F0F0F0F0F0000000074
:1008200000000F0F0F0F0F0F0F000000000000005F
:1008300000000000000000000000000000000000B8
:10084000E0E0F0F0F8F8F8000000007E7E7EFFFFA8
:10085000FFFFFFFFFF7E7E7E7E000000FFFFFFFFA9
:10086000FFFFFF8080808000000003070F0F0F0F45
:100870000F0F0F0F0F00000000000000000000002D
:100880000000000000000000000000000000000068
:10089000000000000000000000021E7EFEFEFEFEC2
:1008A000FCF08000000080F8FEFEFEFEFE3E06002A
:1008B0000000010F3FFFFFFFFFF8E0FCFFFFFFFF1D
:1008C0003F0700000000C0C08080C0C1E7FFFFFFFD
:1008D000FFFFFF3F0700000000000000307070F0D5
:1008E000F0F0F0F070703010000000000000000028
:1008F000000000050F7C011020FF201001901C0853
:100900007C018000000000000F01010101010101D4
:1009100001010101010101010101010F01010101B9
:100920000101010101010101010101010101010FA9
:1009300001010101010101010101010101010101A7
:100940000101FF0101010101010101010101010199
:1009500001010101010F0101010101010101010179
:100960000101010101010101010F01010101010169
:10097000010101010101010101010101010F00005B
:1009800000000000000507206000000000000000DB
:100990005F00000003000300143E143E14242A7F6D
:1009A0002A12433308666136495522500005030078
:1009B00000001C2241000041221C0014083E0814C3
:1009C00008083E0808005030000000000008080039
:1009D0006060000020100804023E5149453E0004BA
:1009E000027F00426151494622414949361814129A
:1009F0007F1027454545393E494949320101710972
:100A0000073649494936264949493E0036360000ED
:100A10000056360000081422410014141414140067
:100A20004122140802015109063E4159555E7E09D2
:100A300009097E7F494949363E414141227F414172
:100A4000413E7F494949417F090909013E414149E8
:100A50003A7F0808087F00417F4100304040403F16
:100A60007F081422417F404040407F020C027F7F7C
:100A70000204087F3E4141413E7F090909061E21CB
:100A800021215E7F09090976264949493201017F02
:100A900001013F4040403F1F2040201F7F20102089
:100AA0007F41221C224107087008076151494543D4
:100AB000007F41000002040810200000417F000474
:100AC0000201020440404040400001020400205462
:100AD0005454787F4444443838444444443844446B
:100AE000447F385454541804047E05050854545463
:100AF0003C7F0804047800447D40002040443D00D1
:100B00007F1028440000417F40007C047804787CFA
:100B10000804047838444444387C14141408081435
:100B200014147C007C080404485454542004043FEA
:100B300044443C4040207C1C2040201C3C40304031
:100B40003C44281028440C5050503C4464544C44BD
:100B5000000836414100007F000041413608000294
:100B6000010204027F7F7F7F7F00000A0F205F0069
:100B70000000000000000000000000000000000075
:100B800000000000000000FEFE0000000000000069
:100B90000019190000000000001E1E00001E1E00AB
:100BA00000000000000000000000000030FEFE30E9
:100BB00030FEFE300000031F1F03031F1F03000051
:100BC00070F8D8FE9898000000000C18187F191FC4
:100BD0000F00001CB6A2F6CC6060203000010100BE
:100BE0000E1B111B0E00000000DC7EE6C6860C808A
:100BF0008000070F1C18191F1E1F13000000001E85
:100C00001E000000000000000000000000000000C6
:100C10000000E0FC1E02000000000000073F7840DA
:100C20000000000000021EFCE00000000000004088
:100C3000783F070000000000F0FC0E86C66EFCFC4A
:100C400006301B0F1F31181C0F030000808080F03E
:100C5000F080808000000101010F0F010101000000
:100C6000000000000000000000000000407C3C008C
:100C70000000000000000000000000000000000371
:100C80000303030300000000000000000000000058
:100C900000000000001C1C0000000000000000C05C
:100CA000F03C0E02000020381E070100000000008A
:100CB000F0FC0EC6C60EFCF80000030F1C18181C32
:100CC0000F070000000C06FEFE00000000001818D0
:100CD000181F1F18181800000C06060686C67C3858
:100CE0000000181C1E1B1918181800000C06C6C698
:100CF000C6C6FC3800000C18181818190F0F000091
:100D000080C070180EFEFE00000003030303031FE3
:100D10001F030000FE7E666666E6C68000000C18B3
:100D20001818181C0F070000F0FCCE6666E6CC8091
:100D30000000070F1C18181C0F0700000606060607
:100D4000E6FE3E0E000000101C0F03000000000035
:100D500038FCC6C6C6C6FC3800000F0F1818181895
:100D60000F0F000078FCCE8686CEFCF80000000C49
:100D70001919191C0F030000000000E0E00000003A
:100D800000000000001C1C0000000000000000E04B
:100D9000E000000000000000407C3C00000000007B
:100DA0008080C04060602030000001010302060620
:100DB000040C000060606060606060600000060617
:100DC00006060606060600003020606040C08080EF
:100DD00000000C0406060203010100000C0686C692
:100DE000667E1C00000000001B1B0000000000E0ED
:100DF000F0389CCCCCDCF8F000071F3873676666CF
:100E00007727000000C0FC3E3EFCC0000000181F19
:100E10000F03030F1F180000FEFEC6C6C6C6FC3C2B
:100E200000001F1F181818181F0F0000F0FC0C06F8
:100E30000606060C0000030F0C181818180C00000A
:100E4000FEFE0606060CFCF000001F1F1818180C0A
:100E50000F030000FEFEC6C6C6C6C60600001F1F62
:100E60001818181818180000FEFEC6C6C6C6C60612
:100E700000001F1F0000000000000000F0FC0C0636
:100E80008686868C0000030F0C1819191F0F0000AE
:100E9000FEFEC0C0C0C0FEFE00001F1F000000001C
:100EA0001F1F0000000606FEFE06060000000018D8
:100EB000181F1F1818000000000000060606FEFE9E
:100EC00000000C18181818180F0F0000FEFEE0F0B4
:100ED000FC0E060200001F1F0000030F1E1800007A
:100EE000FEFE00000000000000001F1F1818181868
:100EF00018180000FEFE3EF0F03EFEFE00001F1F30
:100F0000000101001F1F0000FEFE1EF0C000FEFEDB
:100F100000001F1F0000031E1F1F0000F0FC0E0634
:100F2000060EFCF00000030F1C18181C0F03000035
:100F3000FEFEC6C6C6C67C7C00001F1F0000000067
:100F400000000000F0FC0E06060EFCF00000030F8F
:100F50001C18183C6F070000FEFEC6C6C6C6FC3C47
:100F600000001F1F000001031F1E1000387CE6C692
:100F7000C6C68C0000000C18181818190F0F0000B6
:100F8000060606FEFE06060600000000001F1F0003
:100F900000000000FEFE00000000FEFE0000070F43
:100FA0001C18181C0F07000006FEFC0000FCFE06C3
:100FB000000000001F1F1F1F0000001EFEE000F0C9
:100FC000F000E0FE1E001F1F1E01011E1F1F00007B
:100FD000020E3EF8F83E0E020000101C1F03031F15
:100FE0001C1000020E3E78E0E0783E0E0200000089
:100FF000001F1F0000000000060686C6F67E1E0EBB
:1010000000001C1E1F1B1818181800000000FEFE10
:1010100002020000000000007F7F4040000000004E
:10102000020E38E080000000000000000000030E07
:1010300038200000000202FEFE0000000000004018
:10104000407F7F0000000010181C0E060E1C1810B8
:101050000000000000000000000000000000000090
:101060000000000000404040404040404040400000
:101070000001030604000000000000000000000062
:1010800000000000006030B0B0B0F0E000000E1FC3
:101090001B19190D1F1F0000FEFE60303070E0C0EC
:1010A00000001F1F0C18181C0F070000C0E0703054
:1010B000303030600000070F1C181818180C0000A2
:1010C000C0E070303060FEFE0000070F1C18180CE6
:1010D0001F1F0000C0E0B0B0B0B0E0C00000070FBC
:1010E0001D191919190D00003030FCFE3636360076
:1010F000000000001F1F000000000000C0E0703072
:101100003060F0F0000003376E6C6C667F3F0000CB
:10111000FEFE60303030F0E000001F1F00000000D5
:101120001F1F0000003030F7F70000000000181803
:10113000181F1F1818180000003030F7F7000000C3
:1011400000006060607F3F0000000000FEFE80E065
:101150007030100000001F1F0103071E1810000050
:101160000606FEFE00000000000000000F1F181819
:1011700018000000F0F030F0E030F0E000001F1F39
:10118000001F1F001F1F0000F0F060303030F0E043
:1011900000001F1F000000001F1F0000C0E0703093
:1011A0003070E0C00000070F1C18181C0F0700006B
:1011B000F0F060303070E0C000007F7F060C0C0E55
:1011C00007030000C0E070303060F0F0000003075B
:1011D0000E0C0C067F7F000000F0F06030303030E5
:1011E0000000001F1F00000000000000E0F0B0B091
:1011F000B0B0306000000C191919191B1F0E000047
:101200003030FCFC30303000000000000F1F181898
:1012100018000000F0F000000000F0F000000F1FC8
:101220001818180C1F1F000030F0E00000E0F0302C
:10123000000000010F1E1E0F01000070F00000C032
:10124000C00000F07000071F1E03031E1F070000F0
:101250001030F0C0C0F03010000010181E07071E3C
:101260001810000010F0F08000F0F0300000006076
:10127000637F1F0F0100000030303030B0F070305D
:101280000000181C1E1B191818180000000000FC94
:10129000FE02020000000001013E7E40400000000E
:1012A000000000FEFE00000000000000007F7F0044
:1012B00000000000000202FEFC00000000000040F0
:1012C000407E3E010100000080C0C0C0808080C020
:1012D00000000100000001010100000000000024E6
:1012E0000027002A002D000000000023002600290E
:1012F000002C0000000008000201000003040700A9
:1013000000000000000000000000000201020408CC
:10131000102040800102040810200102040810205F
:101320000408010200000000250028002B002E0008
:10133000040404040404040402020202020203037B
:101340000303030305050505D121A52F11241FBEA5
:10135000CFEFD8E0DEBFCDBF12E0A0E0B1E0E2EA1F
:10136000FBE602C005900D92AA36B107D9F724E03A
:10137000AAE6B2E001C01D92A03BB207E1F719E076
:10138000C5EAD9E004C02197FE010E94B833C43AEF
:10139000D107C9F70E9416230C94C4350C940000A1
:1013A0004F925F926F927F928F929F92AF92BF9275
:1013B000FF922091F7033091F8038217930708F00A
:1013C00043C02B0166247724852E962EA72EBB249E
:1013D000B82DA42F2091FD03F42C222391F0E22FAD
:1013E000F0E0E49DD001E59DB00DF49DB00D112419
:1013F000FB2E289D40011124B92D249F900111241A
:10140000A32FE09103042091FE033091FF0350913C
:101410000004E51323C0FC01EE0FFF1F8E0F9F1F7A
:10142000820F931FE0910004E80FF92FF11DF08265
:10143000E0910104E80FF92FF11DB083209102041F
:10144000820F911DFC01A083FF90BF90AF909F90F1
:101450008F907F906F905F904F900895880F991FA5
:10146000880F991F820F931FE80FF92FF11D10822B
:10147000D9CFE091DF03F091E0030196880F991F27
:10148000880F991FE80FF91FDF0114978081918160
:101490002D913C91821B930B69E070E00E94A43374
:1014A000892B11F06F5F7F4FCB01089581508D30F4
:1014B00008F03DC0E82FF0E0E05AF54F0C94B83347
:1014C000770A7B0A6D0A730A970A970A7E0A840ACA
:1014D000880A8E0A970A920A980A809180008F776C
:1014E000809380000895809180008F7DF9CF84B52E
:1014F0008F7784BD089584B58F7DFBCF8091B00038
:101500008F778093B00008958091B0008F7DF9CFE0
:10151000809190008F778093900008958091900043
:101520008F7DF9CF8091A0008F778093A0000895E0
:101530008091A0008F7DF9CFCF93DF93E3E0F3E1BB
:101540008491ECE1F3E1D491E0E4F3E1C491CC23A4
:10155000A1F081110E94560AEC2FF0E0EE0FFF1F60
:10156000E951FD4EA591B491EC91ED2381E090E01D
:1015700009F480E0DF91CF91089580E090E0FACF08
:101580001F93CF93DF93282F30E0F901ED50FD4EEC
:101590008491F901E45FFC4ED491F901E05DFC4EC9
:1015A000C491CC23A9F0162F81110E94560AEC2F6A
:1015B000F0E0EE0FFF1FEC5DFC4EA591B4918FB7EC
:1015C000F894EC91111108C0D095DE23DC938FBF05
:1015D000DF91CF911F910895DE2BF8CFCF93DF934A
:1015E00090E0FC01E45FFC4E2491805D9C4EFC0188
:1015F00084918823C9F090E0880F991FFC01E5527F
:10160000FD4EA591B491FC01EC5DFC4EC591D491C9
:1016100061110DC09FB7F8948C91209582238C9313
:101620008881282328839FBFDF91CF91089562305E
:1016300051F49FB7F8943C91822F809583238C932B
:10164000E8812E2BEFCF8FB7F894EC912E2B2C93B3
:101650008FBFEACF4F925F926F927F928F929F924D
:10166000AF92BF92CF92DF92EF92FF920F931F93B0
:10167000CF938C014A015B0180911701893099F069
:101680008F3F09F453C0CF911F910F91FF90EF90BE
:10169000DF90CF90BF90AF909F908F907F906F9092
:1016A0005F904F900895EBE0F3E1C491C7FDEBCF5D
:1016B00061E089E00E94EE0A2801712C612CCC23A4
:1016C000F1F0980150E040E0C23009F0E2C028019A
:1016D0003A0160E970ED83E090E00E94D731690142
:1016E0007A0181E0C81AD108E108F10893E08FEF90
:1016F000C816D104E104F10409F00CF461C168E4F6
:1017000078EE81E090E0A30192010E94D731690157
:101710007A0181E0C81AD108E108F10894E0C1110A
:101720004FC185B5887F836085BDC8C089E080933F
:101730001701EBE0F3E1C4918C2FCF3F09F4A3CF65
:10174000C23009F466C060F4CC2369F1C13009F4F9
:1017500042C087FD98CF61E089E00E94EE0AB1CFD8
:10176000C33009F478C0C430A1F71092A0001092E1
:10177000A1008091A10088608093A1008091A100C8
:1017800081608093A100E9E3F3E1E491F0E0EE0FE2
:10179000FF1FEC5DFC4E85919491E5E1F3E1E4914E
:1017A000E093270385CF14BC15BC84B5826084BD4B
:1017B00085B5816085BDE9E3F3E1E491F0E0EE0FEA
:1017C000FF1FEC5DFC4E85919491E5E1F3E1E4911E
:1017D000E0932D036DCF10928000109281008091D4
:1017E0008100886080938100809181008160809376
:1017F0008100E9E3F3E1E491F0E0EE0FFF1FEC5D1F
:10180000FC4E85919491E5E1F3E1E491E0932C03A2
:101810004FCF1092B0001092B1008091B000826062
:101820008093B0008091B10081608093B100E9E3C2
:10183000F3E1E491F0E0EE0FFF1FEC5DFC4E8591CB
:10184000949190932B0380932A03E5E1F3E1E491D3
:10185000E09329032DCF1092900010929100809177
:1018600091008860809391008091910081608093C5
:101870009100E9E3F3E1E491F0E0EE0FFF1FEC5D8E
:10188000FC4E85919491E5E1F3E1E491E093280326
:101890000FCF60E072E18AE790E00E94D7316901E2
:1018A0007A0181E0C81AD108E108F108C13071F568
:1018B00080918100887F816080938100D801AA0F88
:1018C000BB1FA50194010E94F63128EE33E040E0F1
:1018D00050E00E944032C230D1F10CF05AC0CC230B
:1018E00039F1C13009F0CFCED0928900C092880082
:1018F00020933A0330933B0340933C0350933D03C2
:1019000080916F00826080936F00BDCEC33039F448
:1019100080919100887F816080939100CFCFC43007
:1019200069F68091A100887F81608093A100C6CF75
:10193000C7BC20933E0330933F0340934003509332
:10194000410380916E00826080936E009CCEC092B5
:10195000B3002093360330933703409338035093FA
:101960003903809170008260809370008CCED09299
:101970009900C09298002093320330933303409330
:10198000340350933503809171008260809371001D
:101990007ACEC33061F3C43009F075CED092A9007D
:1019A000C092A80020932E0330932F03409330035E
:1019B000509331038091720082608093720063CEF5
:1019C0008091B100887F892B8093B10077CF8E50B2
:1019D000806480937C0080917A00806480937A0098
:1019E00080917A0086FDFCCF8091780090917900FB
:1019F00008953FB7F8948091230390912403A09118
:101A00002503B091260326B5A89B05C02F3F19F0EA
:101A10000196A11DB11D3FBFBA2FA92F982F88276E
:101A2000BC01CD01620F711D811D911D42E0660F49
:101A3000771F881F991F4A95D1F708950F931F9319
:101A4000CF93DF93CDB7DEB729970FB6F894DEBFFB
:101A50000FBECDBF8091FE039091FF03892B09F447
:101A60007CC00E94F90C009104041091050420919F
:101A7000060430910704601771078207930740F44A
:101A80006093040470930504809306049093070404
:101A9000009104041091050420910604309107047C
:101AA000601B710B820B930B6C32714081059105A9
:101AB000C0F2F8948091F9039091FA039A83898394
:101AC000E091FE03F091FF03DF0111968081898789
:101AD0009091F503E0910804F091090480910A04C3
:101AE000992309F445C09081982B9887908180951F
:101AF00089238F838F818C8388E08B8358856F81C6
:101B000049853B812C8189819A81508347FD252F0E
:101B10003A952083262F39F0441F00C000006083CF
:101B2000000000C0F2CF38E04D91608300000197C3
:101B300061F7F0930904E093080449873B832C8301
:101B40009A83898378940E94F90C609304047093BB
:101B50000504809306049093070429960FB6F89421
:101B6000DEBF0FBECDBFDF91CF911F910F910895C2
:101B70009081982B98879081809589238F838F817E
:101B80008E8388E08D8358856F8149853D812E81C4
:101B900089819A81508347FD252F00C000C0208392
:101BA00000C000C000C000C000C060830000262F3D
:101BB0003A9541F0441F000000C000C000C000C0C2
:101BC00000C0E8CF38E04D9100C0608300C00197AD
:101BD00009F7F0930904E093080449873D832E83B5
:101BE000AFCF8F929F92AF92BF92CF92DF92EF9240
:101BF000FF924B015C010E94F90C6B017C010E9479
:101C0000F90C6C197D098E099F09683E73408105A6
:101C10009105A8F321E0821A9108A108B10888EE85
:101C2000C80E83E0D81EE11CF11C81149104A104AC
:101C3000B10429F7FF90EF90DF90CF90BF90AF9065
:101C40009F908F9008952FB7F89460911F03709123
:101C5000200380912103909122032FBF0895AF921A
:101C6000BF92CF92DF92EF92FF920F931F93CF9389
:101C7000DF936C017B018B01040F151FEB015E01EB
:101C8000AE18BF08C017D10759F06991D601ED9180
:101C9000FC910190F081E02DC6010995892B79F71F
:101CA000C501DF91CF911F910F91FF90EF90DF90D1
:101CB000CF90BF90AF900895FC0144815581608121
:101CC00071818BE094E00C942F0EFC01538D448DB8
:101CD000252F30E0842F90E0821B930B541710F0D7
:101CE000CF96089501970895FC01918D828D9817E4
:101CF00061F0A28DAE0FBF2FB11D5D968C91928DBC
:101D00009F5F9F73928F90E008958FEF9FEF0895EC
:101D1000FC01918D828D981731F0828DE80FF11DB5
:101D2000858D90E008958FEF9FEF0895FC01918DD0
:101D3000228D892F90E0805C9F4F821B91098F73C9
:101D40009927089582E493E00E94960E21E0892B62
:101D500009F420E0822F0895FC01A48DA80FB92F6B
:101D6000B11DA35ABF4F2C91848D90E001968F73C3
:101D70009927848FA689B7892C93A089B1898C91E2
:101D8000837080648C93938D848D981306C0028831
:101D9000F389E02D80818F7D80830895EF92FF92FB
:101DA0000F931F93CF93DF93EC0181E0888F9B8D7E
:101DB0008C8D98131AC0E889F989808185FF15C038
:101DC0009FB7F894EE89FF896083E889F98980815B
:101DD0008370806480839FBF81E090E0DF91CF912A
:101DE0001F910F91FF90EF900895F62E0B8D10E04C
:101DF0000F5F1F4F0F731127E02E8C8D8E110CC0BB
:101E00000FB607FCFACFE889F989808185FFF5CF05
:101E1000CE010E94AC0EF1CFEB8DEC0FFD2FF11D2A
:101E2000E35AFF4FF0829FB7F8940B8FEA89FB8942
:101E300080818062CFCFCF93DF93EC01888D8823A0
:101E4000B9F0AA89BB89E889F9898C9185FD03C01D
:101E5000808186FD0DC00FB607FCF7CF8C9185FF02
:101E6000F2CF808185FFEDCFCE010E94AC0EE9CF8D
:101E7000DF91CF91089580E090E0892B29F00E94B6
:101E8000A20E81110E94000080E090E0892B49F0B1
:101E900080E090E0892B29F00E94000081110C94D1
:101EA00000000895CF93DF93EC018D85882329F0FE
:101EB00081508D87DF91CF9108959C818E819817F5
:101EC000C8F788896827E881F9810084F185E02DC9
:101ED00042E0CE0109958C818F5F8C83EBCFDC01D2
:101EE0001E96ED91FC9184913196E491982F8E2F5E
:101EF000089590931A04809319048BE094E00E9453
:101F00006F0F019719F410921404089581E08093E3
:101F100014040895CF92DF92EF92FF920F931F93D4
:101F2000CF93DF93EC0110E000E0E990EE2041F068
:101F30008091190490911A04009761F410E000E078
:101F4000C801DF91CF911F910F91FF90EF90DF902B
:101F5000CF900895FC013496C4903196E491EC142E
:101F600068F3F12CD12CEC0DFD2DF11DEE16FF06C2
:101F70002CF78BE094E00E946F0FE0911904F09130
:101F80001A0420911C040297D0F086E0E80EF11CA0
:101F9000EC18FD08EE0DFF1DE491E29FE02D1124E9
:101FA000EE2361F28091140490911C04899F802D8E
:101FB00011248E0F9927991F080F191FB6CF32963B
:101FC000EBCF4FB7F8942091B2023091B3028091D9
:101FD000B0029091B1024FBF4091AE02042E02C0F8
:101FE000359527950A94E2F702C0959587954A950D
:101FF000E2F78802C00111242202800D911D1124F4
:1020000008950E94E10F9093C6028093C50220912B
:102010000403309105038217930720F09093050382
:10202000809304032091040330910503409104013F
:10203000509105013695279536952795240F351F24
:10204000265F3F4F8217930790F081E08093B402A0
:1020500080910403909105039093CE028093CD026A
:102060005093CC024093CB028091B4020895109219
:10207000B402FACF8091AD028823E1F11092AC0254
:102080002091D3023091D4028091020390910303F6
:102090002817390740F08091D3029091D402909391
:1020A00003038093020380910203909103038091C4
:1020B000020390910303409100035091010320918A
:1020C000000330910103E091D302F091D402841B0C
:1020D000950B6AE070E00E949033265F3F4F620FDD
:1020E000731F81E0E617F70708F480E08093D502BC
:1020F0001092AD028091AC02811108C081E0809302
:10210000AC0280917A00886480937A008091D50235
:102110000895CF93DF93D0E0C0E040E050E0BA01F3
:10212000CE010E94D0092196CA31D105B1F7DF91C5
:10213000CF910C941E0DCF92DF92EF92FF920F93EE
:102140001F93CF93DF93C0919802D09199028E0193
:10215000000F111F0C571D4FF80140815181052EB2
:10216000000C660B770BC0909A02D0909B02E09017
:102170009C02F0909D02C41AD50AE60AF70A81E192
:102180000E94E70CF80191838083092E000CAA0BB2
:10219000BB0BBC01CD016C0D7D1D8E1D9F1D609381
:1021A0009A0270939B0280939C0290939D022196C9
:1021B000CA30D105A4F4D0939902C09398022AE0C2
:1021C00030E040E050E00E94D731C901DF91CF916B
:1021D0001F910F91FF90EF90DF90CF900895109294
:1021E000990210929802EBCF81E080931A038091BC
:1021F00008014EEF5EEF6EEF70E090E00E94D009B4
:102200000E941E0D0E94230E60939004709391040F
:102210008093920490939304089580E680937C00C9
:1022200081E08093830210927B008EEF80937A008E
:1022300080E090E0AAE2B5E48093FC029093FD0276
:10224000A093FE02B093FF028AE89DE3A6E9B6E4FC
:102250008093F8029093F902A093FA02B093FB02E4
:1022600085E394E2A0E0B0E08093F4029093F5025D
:10227000A093F602B093F70285E090E09093AF024E
:102280008093AE0208951092EE021092ED020E9429
:102290000D110E94230E6093F1037093F20380935B
:1022A000F3039093F4030E94230E6093CF02709384
:1022B000D0028093D1029093D20281E080930301F7
:1022C0001092EC021092D9021092DA021092DB0204
:1022D0001092DC028EE190E090930501809304015E
:1022E000109205031092040308951F93CF93DF9378
:1022F000EC01162F61E0411101C060E08B890E9462
:10230000C00A80E58CBD81E08DBD60E08A890E94B5
:10231000C00A1EBD00000DB407FEFDCF8EB561E002
:102320008A89DF91CF911F910C94C00ADC01ED9155
:10233000FC910084F185E02D40E009940F931F93F8
:10234000CF938C01FC016483C085C60F6C2F6F7026
:102350000E9496116C2F62956F706061C801CF91D9
:102360001F910F910C949611FC01278126952695BB
:102370002695621738F465832385620F6770606B5A
:102380000C94961108951F93CF93DF93EC01142FB3
:102390008E81681718F4CE010E949E11612FCE0124
:1023A000DF91CF911F910C94B411CF92DF92EF92F5
:1023B000FF920F931F93CF93DF93EC01F62EC42E61
:1023C000D22E1D868F81869586958695081710F0EA
:1023D0000FEF080F1D2D011780F0412F6F2DCE013B
:1023E0000E94C311EF2CCE1430F06889CE010E94F8
:1023F000520FE394F8CF1F5FEECF4D2D6F2DCE011E
:10240000DF91CF911F910F91FF90EF90DF90CF90D0
:102410000C94C3110F93DC0115962C9115971E9601
:10242000ED91FC911F9700E0309779F03396E4919D
:10243000F0E0379683E0F595E7958A95E1F75196B8
:102440000C9151970E9F002D1124EFEFE20F0E0F0C
:1024500016964C911697415014966C911497CD0195
:102460000E94D5110F9108952F923F924F925F9243
:102470006F927F928F929F92AF92BF92CF92DF9294
:10248000EF92FF920F931F93CF93DF9300D000D072
:1024900000D0CDB7DEB7FC01068517850115110503
:1024A00009F446C19E838D83F8013296649031967B
:1024B000A490EA2CF12CF7E0EF0EF11C23E0F59448
:1024C000E7942A95E1F7E982F801349684913196F0
:1024D000E491681748F0CE2ED12C9601280F311DBB
:1024E000621713060CF469C06D3031F5ED81FE8181
:1024F000868181111BC081E090E026960FB6F8948A
:10250000DEBF0FBECDBFDF91CF911F910F91FF9026
:10251000EF90DF90CF90BF90AF909F908F907F9083
:102520006F905F904F903F902F90089560E08D8165
:102530009E810E949E11DFCF6A3009F0F9C0ED81C3
:10254000FE818681882321F060E0CF010E949E11E8
:10255000ED81FE8181898E9DE02C112465816E0DB7
:102560008485882349F097819695969596958E2D2A
:10257000891B860F18162CF08D819E810E94B41144
:10258000BACFED81FE812385820F877083879E19E4
:102590009583CF010E940A12ED81FE8184858130EE
:1025A00009F0A9CF6385660F660F660F6F736287A8
:1025B0006064CF010E9496119ECF0A5F1F4FB62E16
:1025C000B81AED81FE8191858189989F802D112413
:1025D0008C83CF010E946F0F029708F06AC06E9C37
:1025E000C0016F9C900D1124B89E6001B99ED00C63
:1025F00011240C0D1D1D512CED81FE81F481FA83F7
:10260000ED81FE812580F585FB83862C912CAA2403
:10261000A394B12C312C8981381608F087C0412C45
:10262000ED81FE818189481608F079C08B8185870C
:10263000311002C0442041F0ED81FE8145814F5FA1
:102640006A81CF010E94C311D12CC12CC61408F09D
:1026500059C0F801EC0DFD1D7490552061F0EA148D
:10266000FB0449F4E72DF0E0052C02C0F595E79551
:102670000A94E2F77E2EED81FE818189823081F419
:10268000442009F43BC072948FE07822E72DF0E0FB
:10269000ED52FF4F7490672D8D819E810E94520FE5
:1026A000672D8D819E810E94520F8FEFC81AD80A24
:1026B000CDCFEA2DE77088E0582E5E1AE11101C0F7
:1026C000512CF801612C90E080E06B1431F02491E2
:1026D000820F911D63943196F8CF600E712E711C9C
:1026E000F3016490E89EF001E99EF00DF89EF00D74
:1026F0001124CE0EDF1E0C0D1D1D7ECFF72DFF7099
:102700007F2EC4CFD12CEC81DE1639F060E08D81B4
:102710009E810E94520FD394F6CF439481CF33947D
:10272000080D191DFFEFAF1ABF0A75CF622D24CF18
:1027300090E080E0E2CE0F93CF93DF93EC011B8615
:102740001A8660E40E9496110F81069506950695FB
:1027500001504E81415020E060E0CE010E94D51131
:10276000DF91CF910F910895089590E080E0089552
:10277000CF93DF93EC0188819981009711F00E943B
:102780006934198218821D821C821B821A82DF9191
:10279000CF910895FC0180819181009711F00C94F4
:1027A00069340895FB0101900020E9F73197AF01EA
:1027B000461B570BDC01ED91FC910280F381E02D6B
:1027C00009948F929F92AF92BF920F931F93CF93D2
:1027D000DF93CDB7DEB7A1970FB6F894DEBF0FBE7B
:1027E000CDBF19A2423008F44AE08E010F5D1F4FA1
:1027F000842E912CB12CA12CA50194010E94403271
:10280000E62FB901CA01EA3004F5E05DD801EE9384
:102810008D01232B242B252B79F790E080E0109756
:1028200029F0BD018BE094E00E94D213A1960FB66F
:10283000F894DEBF0FBECDBFDF91CF911F910F91F6
:10284000BF90AF909F908F900895E95CDFCFCF92BB
:10285000DF92EF92FF92CF93DF936C01990FEE0816
:10286000FF08F7FE19C06DE28BE094E00E9434127D
:10287000EC0166277727CB016C197D098E099F092A
:102880004AE00E94E1138C0F9D1FDF91CF91FF90D2
:10289000EF90DF90CF9008954AE0C701B601DF9135
:1028A000CF91FF90EF90DF90CF900C94E113BC019B
:1028B0008BE094E00C94D21380910D01882351F0A9
:1028C00041E066E18BE094E00E94C31183E891E06F
:1028D0000C945714089580910C0381110DC081E070
:1028E00080930C0345E066E48BE094E00E94C31102
:1028F0008EE491E00C945714089545E06CE38BE06E
:1029000094E00E94C31181E392E00C94571445E0D7
:1029100065E08BE094E00E94C31184E591E00C94A3
:10292000571480910D0381111CC0809109038111FE
:102930000AC041E06CE28BE094E00E94C3118AE59A
:1029400091E00E94571480910903882399F041E097
:102950006CE38BE094E00E94C31184E691E00C9458
:10296000571441E06BE48BE094E00E94C31181E6D0
:1029700091E0E7CF08950F931F93CF93DF93EC017E
:102980000E94D2138C0169E671E0CE010E94D2133D
:10299000800F911FDF91CF911F910F9108958BE0D0
:1029A00094E00E949B1341E069E18BE094E00E9477
:1029B000C3116CE671E08BE094E00E94BB1445E02B
:1029C00065E08BE094E00E94C31164E771E08BE066
:1029D00094E00C94BB14CF92DF92EF92FF920F938E
:1029E0001F93CF93DF937B012091E1033091E203AA
:1029F00082179307F4F4880F991F880F991F20916D
:102A0000DF033091E003820F931FFC01C280D3806B
:102A1000FFEFCF16DF0669F08B01C3E0D0E0C601FF
:102A20008C1B9D0B0E94C131F80181938F0121976E
:102A3000B0F7C701DF91CF911F910F91FF90EF90F9
:102A4000DF90CF9008950C94C1310F931F93CF93D3
:102A5000DF93EC018C01060F171FC017D1079CF400
:102A6000CE010E9423158F3F61F0FC9AFD98FB98E0
:102A7000D2BDC1BD8FB7F894F999FECFFA9AF99AF1
:102A80008FBF2196EACFDF91CF911F910F910895CB
:102A90000F931F93CF93DF93EC01162F22E030E0CA
:102AA000062F0095FD9AFC98FB98D2BDC1BD10BDC4
:102AB0008FB7F894F999FECFFA9AF99A8FBFF999DE
:102AC000FECF2130310539F0CE010E94231521E0DF
:102AD00030E0802339F7DF91CF911F910F91089556
:102AE000CF93DF93EB010E94C1318883CE01DF9148
:102AF000CF910895CF93DF93EB010E94C13188837A
:102B0000CE01DF91CF9108950E94AF350F931F93AF
:102B1000CF93DF93EC0188819981009759F02A8146
:102B20003B812617370730F081E0DF91CF911F916D
:102B30000F9108958B016F5F7F4F0E94F2340097D1
:102B400059F0998388831B830A832C813D81232B31
:102B500059F7FC011082E8CF80E0E7CFEF92FF92B7
:102B60000F931F93CF93DF93EC01FB01E080F18083
:102B7000E114F10411F10481158101151105A9F089
:102B80008C819D81080F191FB801CE010E94861506
:102B9000882399F0288139818C819D81B701820F2A
:102BA000931F0E94BD351D830C83CE01DF91CF9111
:102BB0001F910F91FF90EF900895CE010E94B813DE
:102BC000F4CFEF92FF920F931F93CF93DF9300D038
:102BD000CDB7DEB78C018EE289831A82F801E480DA
:102BE000F580FFEFEF1AFF0AB701C8010E948615B2
:102BF0008823C9F0F8012081318184819581BE014B
:102C00006F5F7F4F820F931F0E94BD35F801F582E1
:102C1000E482C8010F900F90DF91CF911F910F9127
:102C2000FF90EF900895C8010E94B813F2CFEF9281
:102C3000FF920F931F93CF93DF93EC017B018A01E7
:102C4000BA010E94861581110BC0CE010E94B813F3
:102C5000CE01DF91CF911F910F91FF90EF900895DA
:102C60001D830C83B701888199810E94BD35F0CF07
:102C7000EF92FF920F931F93CF93DF93CDB7DEB701
:102C800062970FB6F894DEBF0FBECDBF8C01CB01AB
:102C9000F8011182108213821282158214824AE096
:102CA0009E012F5F3F4F7901B9010E946830F70103
:102CB00001900020E9F73197AF014E195F09B70184
:102CC000C8010E94171662960FB6F894DEBF0FBEB9
:102CD000CDBFDF91CF911F910F91FF90EF9008959D
:102CE000FB01DC0111961C921E9213961C921E92FF
:102CF000129715961C921E9214978617970749F003
:102D0000608171816115710521F0448155810C94B8
:102D1000171608950F931F93CF93DF93CDB7DEB7A8
:102D200068970FB6F894DEBF0FBECDBF8091080143
:102D3000882309F4AFC090910903992309F461C075
:102D400009E110E09801281B310945E0429FC001CC
:102D5000439F900D11246AE070E00E94A433BC01EF
:102D6000CE0143960E94381680910801B801681B75
:102D7000710977FF02C06F5F7F4F75956795CE0130
:102D800007960E943816BE01695F7F4FCE010D96EF
:102D90000E947016CE010D960E94E115BE016D5E77
:102DA0007F4F0E94AE15BC01CE0101960E947016A5
:102DB000CE010D960E94CA13CE0107960E94CA1337
:102DC000CE0143960E94CA1341E06AE08BE094E092
:102DD0000E94C31180E891E00E945714CE01019631
:102DE0000E945C0ECE0101960E94CA1368960FB62F
:102DF000F894DEBF0FBECDBFDF91CF911F910F9131
:102E0000089590910D03911121C0803151F441E05A
:102E100064E18BE094E00E94C31183E891E00E949A
:102E2000571441E06AE08BE094E00E94C31180E80F
:102E300091E00E9457149091080129E130E0A90126
:102E4000491B5109CA010E942714D0CF853151F482
:102E500041E069E38BE094E00E94C31184E891E0D3
:102E60000E94571441E069E18BE094E00E94C31195
:102E700080E891E00E9457142091080189E190E0D8
:102E8000821B910924E1AC01249FC001259F900D74
:102E90001124D9CF80910D0341E0811112C06AE065
:102EA0008BE094E00E94C31184E891E00E945714E3
:102EB0006091080170E090E080E04AE00E94E11338
:102EC00095CF69E18BE094E00E94C31182E891E024
:102ED0000E94571441E06DE28BE094E00E94C31120
:102EE000E7CF0F931F93CF93DF93CDB7DEB76897EC
:102EF0000FB6F894DEBF0FBECDBF809108018823C6
:102F000009F45EC090910903992309F464C025E097
:102F1000829FC00111246AE070E00E94A433BC01CA
:102F2000CE0143960E9438166091080170E07595B5
:102F30006795CE010D960E94381618861F821A8654
:102F400019861C861B868BE289831A828E010F5F8D
:102F50001F4FF80101900020E9F73197AF01401BA6
:102F6000510BB801CE0107960E941716BE01635F90
:102F70007F4FCE0107960E94AE150E94E115BE015B
:102F80006D5E7F4F0E94AE15BC01C8010E94701695
:102F9000CE0107960E94CA13CE010D960E94CA1355
:102FA000CE0143960E94CA1341E06AE08BE094E0B0
:102FB0000E94C311C8010E945C0EC8010E94CA137E
:102FC00068960FB6F894DEBF0FBECDBFDF91CF91EC
:102FD0001F910F91089580910D0341E0811112C05E
:102FE0006AE08BE094E00E94C31186E891E00E94C1
:102FF00057146091080170E090E080E04AE00E9480
:10300000E113DECF69E18BE094E00E94C31186E812
:1030100091E00E9457148091080124E1829FC00131
:1030200011240E942714CCCF0C94C931FF920F9326
:103030001F93CF93DF93EC01F62E08811981C8010D
:103040000E94C131F81621F06F2DC8010E94C931CC
:10305000CE01DF91CF911F910F91FF9008952F9294
:103060003F924F925F926F927F928F929F92AF9218
:10307000BF92CF92DF92EF92FF920F931F93CF9365
:10308000DF9300D000D0CDB7DEB71C013B010E941A
:10309000390A7C018091E1039091E20328163906F8
:1030A0000CF0BCC08090DF039090E0032FEF221A59
:1030B000320A220C331C220C331CF401E20DF31DE6
:1030C0004080518034E0231A3108820C931CF401B3
:1030D000A080B180C2018A199B098E199F090497AB
:1030E0000CF49CC0028113810F3F100729F4870163
:1030F0000A0D1B1D01501109680123E0C21AD108F5
:103100007C826B820C151D050CF488C0C6010E94E0
:103110002315EB81FC819191FC83EB83FFEFCF1AA8
:10312000DF0A891779F3C80105960F5F1F4F48160C
:1031300059064CF4B701C5010E942515F401008120
:1031400011810E0D1F1D17FD69C05301F4E0AF0E74
:10315000B11C6801C618D708C601860D971D9A8351
:103160008983F30161913F01CE0101960E941618F7
:103170006A147B0489F78091DF039091E003280EA5
:10318000391EC8010396F101938382838081918166
:10319000E80EF91E0E191F09780117FF03C0F7E0AA
:1031A000EF0EF11C83E0F594E7948A95E1F78E2DFC
:1031B000880F880F880F081B94E0892E912C6FEFE1
:1031C00027E0C22ED12CAA24A394B12CC601801BC7
:1031D0009109950102C0220F331F8A95E2F7C901B8
:1031E000809568230F5F083060F0F1018081918144
:1031F0008E0D9F1D0E944815FFEFEF1AFF0A6FEF1B
:1032000000E021E0821A910809F76F3F39F0F101DF
:10321000808191818E0D9F1D0E9448150F900F9007
:103220000F900F90DF91CF911F910F91FF90EF9032
:10323000DF90CF90BF90AF909F908F907F906F90D6
:103240005F904F903F902F9008950F931F93CF93CF
:10325000DF9300D0CDB7DEB78B019A838983FB0162
:103260006081CE0101960E941618C8010F900F9040
:10327000DF91CF911F910F9108952F923F924F921E
:103280005F926F927F928F929F92AF92BF92CF92F6
:10329000DF92EF92FF920F931F93CF93DF9300D0B3
:1032A00000D01F92CDB7DEB7109215011092140115
:1032B0001092130161E082E00E94EE0A61E085E075
:1032C0000E94EE0A61E082E00E94C00A80910E0135
:1032D00081508A3018F084E080930E018091FB03C6
:1032E0009091FC0397FD08C061E00E94EE0A60E047
:1032F0008091FB030E94C00A81E08093F60362E3A1
:1033000070E080E090E00E94F10D61E085E00E94B5
:10331000C00A61E089E00E94EE0A62E080E10E945A
:10332000EE0A0E94891082E090E09093E20380937D
:10333000E1038CE090E00E94CD33FC019093E00328
:103340008093DF0381E090E09183808382EE91E0BF
:103350009583848383EC93E09187808790E080E07D
:103360000E9423158D831A82198263E0CE01019693
:103370000E941618F12CE12CD12CC12C0091DF03F6
:103380001091E0030E0D1F1D8091E1039091E20367
:10339000C816D9060CF087C0C6010E94390A1C0164
:1033A0002D81233031F0BC01F801808191810E9490
:1033B00025158091DF039091E0039C012E0D3F1DA8
:1033C0003C832B83F901A080B1802A0C3B1C210196
:1033D000F1E04F1A5108320145018FEF0FEF1FEF57
:1033E00068147904DCF0830108191909159507950B
:1033F000080D191DC8010E9423159FEF980F9E3FCD
:10340000C8F0811105C048012FEF821A920AE8CF57
:10341000380131E0631A71088FEFE2CF811117C0D4
:10342000041515053CF40F5F1F4FC8010E942315BA
:103430008823B1F3C8010E94231527E030E091E012
:10344000482F4923A1F0990F21503109F9CF0A15CE
:103450001B053CF001501109C8010E9423158F3F44
:10346000B1F30415150534F70F5F1F4FE3CF0A19A9
:103470001B0993E0000F111F9A95E1F7020F131F2C
:103480000F3F100769F0020D131DEB81FC811383C0
:103490000283FFEFCF1ADF0A24E0E20EF11C6ECFA9
:1034A0000FEF1FEFF2CF8FEF9FEFF801938382832F
:1034B0006BE073E08CEF93E00E947A158DEF93E060
:1034C0000E94C13180930E038EEF93E00E94C131C0
:1034D00080930F031982BE016F5F7F4F8BEF93E0E4
:1034E0000E94251968EB72E08BEF93E00E947A1539
:1034F00060E173E090E080E00E94EB1480911003A3
:1035000090911103A0911203B09113030196A11D94
:10351000B11D8093100390931103A0931203B093F5
:1035200013038091E1039091E2031816190634F415
:1035300060E173E090E080E00E942F1864E173E0A6
:1035400081E090E00E94EB148FEF93E00E9423153E
:103550008E3141F08851823028F069E18FEF93E09D
:103560000E9414188CEF93E00E942315823028F0FB
:1035700060E08CEF93E00E9414180E949C0A892B53
:1035800089F48FEF93E00E9423156EE1893131F0C9
:1035900068E18E3119F0883129F469E18FEF93E009
:1035A0000E94141867E073E08FEF93E00E9470159B
:1035B0006BE173E089EF93E00E94701580911B032B
:1035C000853010F010921B0364E170E080E090E021
:1035D0000E94F10DF89480916800886080936800E3
:1035E00080917300886080937300789461E08AE032
:1035F0000E94EE0A60E08AE00E94C00A6AE070E081
:1036000080E090E00E94F10D61E08AE00E94C00A33
:103610006AE070E080E090E00E94F10D87E1809325
:103620001D0486E180931E0461E087E10E94EE0A9A
:1036300061E080911E040E94EE0A1FB7F894809109
:10364000B502811127C0EAE3F3E18491E6E1F3E1F9
:103650009491E82FF0E0EE0FFF1FE552FD4EA5918B
:10366000B491EC91E92321F461E08AE00E94C00A60
:1036700061E08AE00E94EE0A8CB580618CBD8CB559
:1036800080648CBD61E08DE00E94EE0A61E08BE019
:103690000E94EE0A8091B5028F5F8093B5021FBF32
:1036A00010920F0410921004EDECF0E0C590D4904D
:1036B000EFECF0E0F490E0EDF0E0E491E093110441
:1036C000E1EDF0E0E491E0931204E2EDF0E0E4914A
:1036D000E093130410E000E00F1558F4F801EC0D2E
:1036E000FD1D64918BE094E00E9496110F5F1F4FC7
:1036F000F3CF8BE094E00E949B136BED8BE094E0A2
:103700000E94961160E78BE094E00E94961161E8B8
:103710008BE094E00E9496116FEF8BE094E00E94A2
:10372000961162E370E080E090E00E94F10D89E67E
:103730009BE00E94790F81E0809316018093020143
:103740001092C4021092C3021092C2021092BE02E2
:103750001092C1020E94230E60938C0470938D041A
:1037600080938E0490938F041092C0021092BF0237
:1037700080917A008F7D80937A0087E880937A0029
:1037800061E087E00E94EE0A61E087E00E94C00AE3
:10379000F894109290008AE08093910082E08093E8
:1037A000710080910703883151F481EC92EA909383
:1037B0009900809398009093B7028093B60280910D
:1037C0000703893151F48FE39CE99093990080932A
:1037D00098009093B7028093B602809107038E31D0
:1037E00051F484E392E89093990080939800909329
:1037F000B7028093B602789482E090E090930A0139
:10380000809309011092810081E080930F010F9055
:103810000F900F900F900F90DF91CF911F910F910C
:10382000FF90EF90DF90CF90BF90AF909F908F90E0
:103830007F906F905F904F903F902F9008950F93DF
:103840001F93CF938091AB02882391F01092AB022B
:103850001092AA021092A90210920C030E94F90C75
:103860006093A5027093A6028093A7029093A8028A
:103870008091080181115AC08091AA02811128C04B
:1038800080910B03811109C080910D03811105C046
:1038900067EA8BE094E00E9496118091A902811161
:1038A00012C081E08093A90280910903882309F462
:1038B00087C141E06AE28BE094E00E94C31187E98E
:1038C00091E00E9457140E948A1681E08093AA0218
:1038D0000E94F90C0091A5021091A6022091A70266
:1038E0003091A802AB01BC01401B510B620B730B62
:1038F00080910B0190910C01092E000CAA0BBB0BBF
:10390000481759076A077B0788F00E94F90C6093F3
:10391000A5027093A6028093A7029093A8020E942A
:103920005C1466EA8BE094E00E9496118091080195
:10393000813061F49091AA02911108C08093AA028B
:103940000E946B140E9491140E94711780910801CB
:1039500081508C3090F58091AA02811105C081E0E0
:103960008093AA020E9471170E94F90C0091A5028F
:103970001091A6022091A7023091A802AB01BC01D0
:10398000401B510B620B730B80910B0190910C014A
:10399000092E000CAA0BBB0B481759076A077B07B7
:1039A00060F00E94F90C6093A5027093A6028093C8
:1039B000A7029093A8020E945C14809108018C30A9
:1039C00009F055C080910803882309F450C0809104
:1039D000A40281114CC043E06EE18BE094E00E94B0
:1039E000C3118BE094E00E940A128EE891E00E94DD
:1039F000571480919E02811117C00E94103023E15C
:103A000030E040E050E00E94D7316F5F7F4F8F4F32
:103A10009F4F6093A0027093A1028093A2029093A3
:103A2000A30281E080939E028091090190910A0196
:103A300090930701809306018091A0029091A102CA
:103A4000880F991F90930A018093090181E0809368
:103A5000A40290910801292F30E09C5040E050E0F2
:103A6000BA019D3008F0B5C0C9010E94D00980910B
:103A700008018D3009F061C080910803882381F02E
:103A800082E090E090930A018093090143E060E0B6
:103A90008BE094E00E94C3118BE094E00E940A1234
:103AA0008091AA02811111C081E08093AA02109234
:103AB0000C0345E066E48BE094E00E94C3118BE0C8
:103AC00094E00E940A120E947D140E949B102AE931
:103AD00030E0DC010E94C633653D7E4F8F4F9F4F23
:103AE0000CF47DC00E949B102AE930E0DC010E94AA
:103AF000C633643A754B810591050CF073C00E9482
:103B00009B102AE930E0DC010E94C6332CE231E050
:103B100040E050E00E94D7312C593F4F4F4F5F4F4C
:103B200030930101209300010E949B108B3892403A
:103B30000CF45BC081E080939F02809108018E307D
:103B400011F41092A4028D508C30B0F58091AA022D
:103B5000811107C0C1E0C093AA020E948A16C093D7
:103B6000AA020E94F90C0091A5021091A6022091D0
:103B7000A7023091A802AB01BC01401B510B620BA4
:103B8000730B80910B0190910C01092E000CAA0B74
:103B9000BB0B481759076A077B0760F00E94F90CB6
:103BA0006093A5027093A6028093A7029093A80247
:103BB0000E945C1410929E02CF911F910F91089564
:103BC00045E066E48BE094E00E94C31188E891E050
:103BD00078CEC9010E94D0090E941E0D48CF24E66C
:103BE00030E09ECF2EEF30E09BCF10929F02A5CF0A
:103BF0001F920F920FB60F9211242F933F938F9322
:103C00009F93AF93BF9380911F0390912003A09146
:103C10002103B091220330911E0323E0230F2D379F
:103C200058F50196A11DB11D20931E0380931F031B
:103C300090932003A0932103B09322038091230348
:103C400090912403A0912503B09126030196A11D14
:103C5000B11D8093230390932403A0932503B09375
:103C60002603BF91AF919F918F913F912F910F901C
:103C70000FBE0F901F90189526E8230F0296A11DE6
:103C8000B11DD2CF1F920F920FB60F9211242F9316
:103C90003F934F935F936F937F938F939F93AF93D4
:103CA000BF93EF93FF938091360390913703A091D8
:103CB0003803B0913903892B8A2B8B2BD1F190914A
:103CC0002903E0912A03F0912B03808189278083C7
:103CD0008091360390913703A0913803B091390356
:103CE000181619061A061B069CF48091360390914B
:103CF0003703A0913803B09139030197A109B109A5
:103D00008093360390933703A0933803B09339031D
:103D1000FF91EF91BF91AF919F918F917F916F91A3
:103D20005F914F913F912F910F900FBE0F901F9079
:103D3000189580911701EBE0F3E1E4919FEF9093E8
:103D40001701E230E1F040F4EE2381F0E13089F038
:103D500060E00E94C00ADCCFE33011F1E430C1F72B
:103D6000909172009D7F90937200F2CF10926E003E
:103D7000EFCF90916F009D7F90936F00E9CF90916E
:103D800070009D7F9093700091E09093B0009091AF
:103D9000B100987F94609093B1001092B300D8CF97
:103DA000909171009D7F90937100D2CF1F920F92DE
:103DB0000FB60F9211242F933F934F935F936F93FE
:103DC0007F938F939F93AF93BF93EF93FF9382E47F
:103DD00093E00E94AC0EFF91EF91BF91AF919F9144
:103DE0008F917F916F915F914F913F912F910F90A4
:103DF0000FBE0F901F9018951F920F920FB60F9243
:103E000011242F938F939F93EF93FF93E09152038D
:103E1000F09153038081E0915803F091590382FDA2
:103E20001BC0908180915B038F5F8F7320915C0337
:103E3000821741F0E0915B03F0E0EE5BFC4F958F61
:103E400080935B03FF91EF919F918F912F910F9042
:103E50000FBE0F901F9018958081F4CF1F920F9284
:103E60000FB60F9211242F933F934F935F936F934D
:103E70008F939F93AF93BF93EF93FF938091030131
:103E8000882309F46DC080918302882309F495C0CA
:103E9000809179008455990B9093820280938102DE
:103EA000209181023091820240910E01429FC00117
:103EB000439F900D11249093820280938102809100
:103EC000F4029091F502A091F602B091F7024091B0
:103ED0007F0250918002480F591F509380024093F7
:103EE0007F02209181023091820257FF02C020950B
:103EF0003095809181029091820240E4450F47FF06
:103F000002C0809590954091B2025091B3026091A9
:103F1000AE02E091B202F091B302062E02C05595B6
:103F200047950A94E2F7241B350B2E0F3F1F309361
:103F3000B3022093B2022091B0023091B1024091BD
:103F4000B0025091B10202C0359527956A95E2F70B
:103F5000821B930B840F951F9093B1028093B00244
:103F60008091EC028823C9F09091780080917900CB
:103F70008927982789279093D4028093D30281E0E0
:103F80008093AD028091D3029091D4028E3F9340F2
:103F900024F01092D4021092D302FF91EF91BF91BE
:103FA000AF919F918F916F915F914F913F912F9121
:103FB0000F900FBE0F901F90189580917900805838
:103FC000990B79CF1F920F920FB60F9211248F93F6
:103FD0009F938091830491E08927809383049F912C
:103FE0008F910F900FBE0F901F9018951F920F92F8
:103FF0000FB60F921124CF92DF92EF92FF920F93A0
:104000001F932F933F934F935F936F937F938F9360
:104010009F93AF93BF93EF93FF938091D6029091BC
:10402000D70201969093D7028093D60280917D02A9
:1040300090917E02019690937E0280937D02209162
:10404000D6023091D7028091090190910A01281778
:10405000390708F448C1809108011092D7021092E4
:10406000D60291E09093AB028F5F893108F064C172
:104070008093080180910801811152C085B191E0BF
:10408000892785B910927C0210927B0280911301DE
:104090008823E1F00E94230E6093E3027093E40210
:1040A0008093E5029093E60248E050E060E070E023
:1040B00080EA9AE00E942A0B0E94F90C6093770232
:1040C000709378028093790290937A028091140120
:1040D000882331F180910B03882309F430C180914A
:1040E0000D0381112CC181E080931A0310E000E0E0
:1040F00044E654E664E670E0C8010E94D0090F5F10
:104100001F4F0A311105A1F70E941E0D0E94230EB8
:10411000609390047093910480939204909393041D
:10412000809108018C3011F580910803811126C11E
:104130008091090190910A019093070180930601F3
:10414000809107038E3151F480910D038111FAC0E3
:104150008CE090E090930A0180930901809107031D
:10416000883109F00BC18DE080930801809108012E
:104170008D3009F061C02091060130910701309324
:104180000A0120930901909107039931D9F4909184
:10419000BD0220910E0330910F034091B602509161
:1041A000B702992309F4D1C037FF02C021583F4F0D
:1041B000220F232F221F330B240F351F309399001A
:1041C00020939800909107039E31C9F420910E032B
:1041D00030910F034091B6025091B70237FF02C0F1
:1041E000295F3F4FA3E035952795AA95E1F74C5EEF
:1041F0005F4F240F351F30939900209398009091C2
:1042000007039831C9F420910E0330910F034091B8
:10421000B6025091B70237FF02C0295F3F4FF3E06B
:1042200035952795FA95E1F7405E5F4F240F351FCE
:10423000309399002093980090911501992309F4E7
:1042400052C09FEF980F9C30A0F491E090931A0316
:1042500090919F02992309F482C00E94F4100E9459
:10426000230E609390047093910480939204909332
:104270009304809108018C3039F4909107039E31AA
:1042800019F491E09093760293EF980F9D3058F5D2
:1042900040910001C42ED12CF12CE12CB601552700
:1042A000442790E020919F02222361F03E2D2D2D86
:1042B0001C2D0027402B512B622B732B4C295D2981
:1042C0006E297F290E94D0090E941E0D81E08093F3
:1042D0001A030E94230E60939004709391048093BC
:1042E000920490939304809108018D3071F4809131
:1042F000D6029091D702019741F48091B602909135
:10430000B7029093990080939800FF91EF91BF912D
:10431000AF919F918F917F916F915F914F913F915D
:104320002F911F910F91FF90EF90DF90CF900F9002
:104330000FBE0F901F901895109208019BCE0E94FF
:10434000F410EECE86E090E005CF37FF02C0295F83
:104350003F4FB3E035952795BA95E1F72DCF4091C2
:10436000000150E070E060E0762F652F542F442765
:1043700090E00E94D0090E941E0D71CF8CE05CCFAE
:10438000FC01118210821382128215821482FB01B9
:1043900001900020E9F73197AF01461B570B0C94B1
:1043A0001716109245031092440388EE93E0A0E0A4
:1043B000B0E08093460390934703A0934803B093E3
:1043C000490382E391E0909343038093420385EC99
:1043D00090E090934F0380934E0384EC90E0909391
:1043E00051038093500380EC90E0909353038093AB
:1043F000520381EC90E0909355038093540382EC38
:1044000090E0909357038093560386EC90E090934E
:1044100059038093580310925B0310925C0310922F
:104420005D0310925E031092E2031092E103A3EE8B
:10443000B3E0EEE0F0E091E29093570084918D9329
:104440003196E831F105C1F764E971E086EA94E05C
:104450000E94C02169E971E080EA94E00E94C021D5
:1044600064EA71E08AE994E00E94C0216BE671E0A1
:1044700084E994E00E94C0210E94230E609390047E
:104480007093910480939204909393040E94230E5E
:1044900060938C0470938D0480938E0490938F04AA
:1044A0000E94230E609388047093890480938A0489
:1044B00090938B040E94230E0E94230E6093840429
:1044C000709385048093860490938704809183047D
:1044D000809382040E94230E8AE08093200410922D
:1044E00021041092220410921F04EFE6F4E080E011
:1044F00081938F5F8A30E1F70E94230E0E94230E82
:1045000010920E0410920D041092170410921804C9
:1045100010921A041092190410921B0481E08093E7
:104520001C0424E431E030930C0420930B0410921B
:10453000F6031092FD0310920404109205041092E9
:1045400006041092070480930304809300041092E1
:10455000010492E0909302048093F5038BE490E0D1
:104560009093FA038093F9030E94CD339093FF0355
:104570008093FE03009709F450C02BE4FC011192D4
:104580002A95E9F789E190E09093F8038093F70387
:104590008FE090E09093FC038093FB038091F603FF
:1045A000882341F061E08FE00E94EE0A60E08FE036
:1045B0000E94C00AEFE3F3E1E491F0E0EE0FFF1F89
:1045C000EC5DFC4E859194919093090480930804CE
:1045D000EBE1F3E1E491E0930A040E94230E60937F
:1045E000F1037093F2038093F3039093F4030E941A
:1045F000230E6093ED037093EE038093EF0390938B
:10460000F0030E94230E0E94230E0E94230E0E949C
:10461000230E0E94230E0C94230E1092FA03109284
:10462000F9031092F8031092F703B2CFCF93DF9300
:1046300000D000D000D0CDB7DEB7789484B58260CA
:1046400084BD84B5816084BD85B5826085BD85B536
:10465000816085BD80916E00816080936E001092B4
:10466000810080918100826080938100809181002F
:1046700081608093810080918000816080938000C0
:104680008091B10084608093B1008091B00081601E
:104690008093B0008091910082608093910080911E
:1046A000910081608093910080919000816080935F
:1046B00090008091A10082608093A1008091A10070
:1046C00081608093A1008091A00081608093A00010
:1046D00080917A00846080937A0080917A00826071
:1046E00080937A0080917A00816080937A00809133
:1046F0007A00806880937A001092C100209A17BED9
:104700000E943D199091830480918204981749F08A
:1047100080918304809382040E94230E81E0809321
:10472000B9028091B902882359F00E94230E0E9499
:10473000230E1092B90281E0639B9EC280931C03FA
:1047400080911D03882309F47FC010921D0364E14A
:1047500070E080E090E00E94F10D80910A038111E9
:1047600048C0109215011092140180916800886071
:10477000809368008091730088608093730060E08C
:1047800085E00E94C00A64E170E080E090E00E9451
:10479000F10D60E082E00E94C00A64E170E080E018
:1047A00090E00E94F10D83B7817F846083BFF8940D
:1047B00010927A00809164008FEF80936400809162
:1047C00065008D638093650083B7816083BF80E659
:1047D00085BF80E485BF7894889583B78E7F83BF3B
:1047E000809164001092640080916500827C8093C7
:1047F000650080910A03882339F18091BA02811102
:1048000023C010921501109214011092130184E03C
:1048100080936900E99A60E085E00E94C00A64E143
:1048200070E080E090E00E94F10D60E082E00E9484
:10483000C00A81E08093BA028093BD028093BB02DC
:104840001092BC020E94230E80911C038823D9F091
:1048500010921C031092BD0281E08093BC02109262
:10486000BB0280916800886080936800809173002B
:1048700088608093730010921501109214011092B9
:10488000BA020E943D1980911601882309F483C25F
:1048900080910201882309F471C08091C4028111C2
:1048A00049C00E94230E6093840470938504809312
:1048B0008604909387048BE094E00E949B1383EE20
:1048C00090E00E94790F40E060E08BE094E00E946D
:1048D000C3118EEA91E00E94571489E69BE00E9482
:1048E000790F45E060E08BE094E00E94C311609195
:1048F000070370E090E080E04AE00E94E11345E0A9
:1049000067E18BE094E00E94C31186EB91E00E9486
:10491000571445E066E48BE094E00E94C3118AEBF3
:1049200091E00E94571486EA94E00E945C0E81E0B8
:104930008093C4020E94230E009184041091850488
:104940002091860430918704601B710B820B930BBE
:104950006C3D75408105910588F00E94230E60939F
:104960008404709385048093860490938704109246
:10497000C4021092020181E08093C3028091C302BD
:10498000882309F4A5C08091C402811177C00E94D8
:10499000230E60938404709385048093860490931F
:1049A00087048BE094E00E949B1389E69BE00E94C1
:1049B000790F11E0109314048BE691E00E948A0FA6
:1049C0006091110470E0681B790B7695679540E063
:1049D0008BE094E00E94C3116BE671E08BE094E001
:1049E0000E94BB1484EA91E00E948A0F6091110436
:1049F00070E0681B790B7695679543E08BE094E057
:104A00000E94C31164EA71E08BE094E00E94BB1441
:104A1000109314048BE691E00E948A0F60911104B8
:104A200070E0681B790B7695679544E08BE094E025
:104A30000E94C3116BE671E08BE094E00E94BB140E
:104A40008BE691E00E948A0F6091110470E0681B70
:104A5000790B7695679546E08BE094E00E94C31150
:104A60006BE671E08BE094E00E94BB141093140499
:104A700089E69BE00E94790F1093C4020E94230EE6
:104A8000009184041091850420918604309187045C
:104A9000601B710B820B930B643378408105910589
:104AA000B8F00E94230E6093840470938504809371
:104AB0008604909387041092C4021092020110920F
:104AC000C30281E08093C2028BE094E00E949B13BA
:104AD0008091C202882309F45BC18091C4028111D4
:104AE0000DC081E08093C4020E94230E6093840471
:104AF0007093850480938604909387049AE0F92E3E
:104B000010E000E085E10E94E70C080F191FFA94FD
:104B1000F110F8CFB801110F880B990B0E94A43047
:104B200020E030E040E251E40E94DE3220E030E05C
:104B300040EA50E40E94033120E030E040E85AE3CC
:104B40000E9403319B01AC010E94723220E030E0F0
:104B500048EC52E40E9403310E9450334B015C0147
:104B600048E5841A42E0940AA108B108AAE1B0E03D
:104B7000A50194010E94F6312CE231E040E050E0C2
:104B80000E94D731CA01B9010E94A4306B017C0197
:104B90008091C102811141C081E08093C10241E056
:104BA00069E18BE094E00E94C31183EE90E00E94E3
:104BB000790FA4E6B0E0A50194010E94F6312CE241
:104BC00031E040E050E00E94D731C901253631057F
:104BD00014F084E690E097FF02C090E080E00E942D
:104BE00027148CEB91E00E94571420E030E0A901DB
:104BF000C701B6010E94863345E018160CF03FC08D
:104C000069E18BE094E00E94C31189E69BE00E9479
:104C1000790F8EEB91E00E94571420E030E0A9015B
:104C2000C701B6010E949D3018160CF441C00E94C5
:104C3000230E8091BE0281113BC00E94230E81E0B1
:104C40008093BE0264ED71E082E493E00E94BB14A5
:104C500010920801109108011A3120F540E050E04F
:104C60006AE070E0812F90E00E94D0090E941E0D42
:104C70001F5F10930801EECF80931D0361CD60E0AC
:104C80008BE094E00E94C31189E69BE00E94790FBB
:104C90001092140486EC91E00E94571481E08093F6
:104CA0001404BBCF68EE73E080E090E00E94F10D49
:104CB0000E94230E00918C0410918D0420918E048B
:104CC00030918F04601B710B820B930B6F30710559
:104CD0008105910590F10E94230E60938C047093DE
:104CE0008D0480938E0490938F040091BF021091E5
:104CF000C002B801012E000C880B990B0E94A43051
:104D00009B01AC01C701B6010E94863344E150E02B
:104D100060E070E018161CF040E050E0BA01C801F5
:104D20000E94D0090E941E0D0A31110534F40F5F54
:104D30001F4F1093C0020093BF020E94230E0091E8
:104D40008404109185042091860430918704601BAF
:104D5000710B820B930B603D774081059105C0F08C
:104D60000E94230E609384047093850480938604CC
:104D7000909387041092C402109202011092C30211
:104D80001092C202109216018BE094E00E949B13D5
:104D90000E943B0FB7CC0E949C0A9093190380930A
:104DA0001803009709F060C18091100190911101E2
:104DB000019791F40E94230E6B30710581059105D6
:104DC00058F00E94230E2B013C0180911803909112
:104DD0001903892B09F029C10E94230E6419750952
:104DE00086099709653F71408105910508F41DC149
:104DF00080911501811110921501109214011092E9
:104E000013018BE094E00E949B130E94891089E6B5
:104E10009BE00E94790F1092140440E060E08BE068
:104E200094E00E94C31162E271E08BE094E00E9482
:104E3000BB148BED91E00E94571480EA94E00E942D
:104E40005C0E69E671E08BE094E00E94D2138AE97F
:104E500094E00E945C0E69E671E08BE094E00E94B1
:104E6000D21384E994E00E945C0E60ED77E080E06C
:104E700090E00E94F10D89E69BE00E94790F8BE0A3
:104E800094E00E949B1340E060E08BE094E00E947D
:104E9000C3118EED91E00E9457146091140370913C
:104EA000150380911603909117034AE00E94E113C5
:104EB00063EE71E08BE094E00E94BB1487EE91E01A
:104EC0000E94571460911003709111038091120396
:104ED000909113034AE00E94E11369E671E08BE0D0
:104EE00094E00E94D2138DEE91E00E9457148091BD
:104EF0000E0390910F030E94271484EF91E00E940B
:104F0000571460910E0170E090E080E04AE00E944A
:104F1000E11360ED77E080E090E00E94F10D809178
:104F20001B03815080931B038BE094E00E949B1332
:104F300011E01093140410920D0310920C030E94C0
:104F400087148091180390911903892B09F06DC083
:104F50000E94230E64197509860997096137774104
:104F60008105910508F461C080910B038111A8C0EF
:104F70001983BE016F5F7F4F8CEF93E00E9425196C
:104F800042E350E060E070E084EF91E00E942A0B81
:104F9000109215018BE094E00E949B130E948910EF
:104FA00041E06AE08BE094E00E94C31187EF91E05A
:104FB0000E94571443E06AE08BE094E00E94C31122
:104FC00082E092E00E94571483E899E00E94790FF2
:104FD00046E060E08BE094E00E94C31103EE13E032
:104FE0008DEEE82E83E0F82EF80181918F0180315B
:104FF00020F487E991E00E945714F801319760810D
:1050000070E090E080E040E10E94E113E016F106DC
:1050100059F789E69BE00E94790F60ED77E080E028
:1050200090E00E94F10D0C94000080911803909183
:1050300019039093110180931001E0911B03ED304F
:1050400008F0A6CEF0E0E95DF74D0C94B833622885
:105050000D294A29C229052A882F902F902F902F99
:10506000902F902F972F9D2F0197F9F68091100187
:1050700090911101892BC9F60E94230E64197509BC
:10508000860997096B3071058105910570F281E001
:1050900080930F0180911B038F5F80931B038530EA
:1050A00010F010921B030E94230E89EF93E09A8365
:1050B000898360911B03CE0101960E94161885CE4C
:1050C000198257CF80910F018823E9F11092810056
:1050D00080917A008F7D80937A0087E880937A00B0
:1050E00066EA8BE094E00E9496118BE094E00E94C7
:1050F0009B130E94871481E0809315018093140113
:105100008093130180930D0110920D0310920A03F6
:10511000109209031092080388EA91E690930C011B
:1051200080930B0182E18093120143E060E08BE009
:1051300094E00E94C3118BE094E00E940A120E9446
:10514000911410920F010E941F1C80911501811172
:1051500004C080911401882311F180911A038823DF
:10516000F1F00E94230E009190041091910420917F
:10517000920430919304AB01BC01401B510B620BB4
:10518000730B8091120190E0B0E0A0E0481759073E
:105190006A077B0720F010921A030E9489100E9470
:1051A000230E009188041091890420918A04309183
:1051B0008B04601B710B820B930B60367A4E81055A
:1051C000910508F4E5CD8091140390911503A09109
:1051D0001603B09117030196A11DB11D809314030E
:1051E00090931503A0931603B09317038091E103E6
:1051F0009091E203029734F064E173E081E090E083
:105200000E942F180E94230E6093880470938904D3
:1052100080938A0490938B04BBCD80910F018823E7
:1052200009F491CF1092810011E0109315011093B1
:1052300014011093130166EA8BE094E00E9496112A
:105240000E94871481E090E090930A018093090105
:105250008AE08093120110920D0110930D031092B9
:1052600009031092080310920A0341E061E08BE009
:1052700094E00E94C3118BE094E00E940A1243E084
:1052800062E18BE094E00E94C3118AE092E00E9408
:10529000571457CF80910F01882309F454CF1092EF
:1052A000810011E010931501109314011093130164
:1052B00066EA8BE094E00E9496110E948714109297
:1052C0000D0143E060E08BE094E00E94C3118BE0AD
:1052D00094E00E940A1210920C0380E197E29093EE
:1052E0000C0180930B0182E18093120110920D0159
:1052F00010920D03109309031092080310920A03F1
:10530000809107038E3131F42EE130E030930A01B1
:105310002093090180910703883171F588E190E0BD
:1053200090930A018093090141E061E08BE094E0F1
:105330000E94C3118BE094E00E940A1243E063E2F2
:105340008BE094E00E94C31183E192E00E94571425
:1053500045E065E08BE094E00E94C31188E192E0B3
:105360000E9457140E949114809108018D508C3036
:1053700030F40E947D14E5CE89E190E0D1CF0E9407
:105380006B14DFCE80910F01882309F4DCCE1092DC
:10539000810011E010931501109314011093130173
:1053A00066EA8BE094E00E9496110E94871443E025
:1053B00060E08BE094E00E94C3118BE094E00E94D7
:1053C0000A1288EA91E690930C0180930B0182E126
:1053D0008093120110920D0110920D031092090397
:1053E00010920A031093080342E050E050930A0120
:1053F0004093090141E061E08BE094E00E94C31119
:105400008BE094E00E940A129CCE1092150110923B
:1054100014011092130180910F01882349F1109219
:10542000810010920F0166EA8BE094E00E949611D1
:105430000E94CF140E9489100E940D11109208033F
:1054400010920A030E94230E6093ED037093EE0303
:105450008093EF039093F0030E94431182E090E069
:1054600090930A01809309019093070180930601AC
:105470000E94230E0091ED031091EE032091EF03A3
:105480003091F003601B710B820B930B68357B41ED
:105490008105910520F10E94230E6093ED03709326
:1054A000EE038093EF039093F0030E9489100E9413
:1054B00043110E94CF14109206031092050310921C
:1054C0000403EEE1F0E0F0930501E0930401109293
:1054D00003031092020310920103109200038091C3
:1054E0000301882309F4D7C10E94230EC090C7028C
:1054F000D090C802E090C902F090CA026C197D09F0
:105500008E099F096436710581059105D0F00E94CE
:10551000230E6C197D098E099F096538734081053A
:10552000910578F48091C5029091C6022091040102
:10553000309105018217930724F090930501809321
:1055400004010E94E10F9093C6028093C50220914E
:105550000403309105038217930720F0909305030D
:10556000809304030E9401108823D9F08091F302F4
:10557000811117C081E08093F3020E94F90C6093BF
:10558000EF027093F0028093F1029093F202109276
:105590000503109204032EE130E0309305012093BF
:1055A00004010E94230EC090F103D090F203E0901A
:1055B000F303F090F4036C197D098E099F09603B99
:1055C00074408105910550F0109205031092040378
:1055D0004EE150E050930501409304010E94230ED8
:1055E0006C197D098E099F09683B7B4081059105F7
:1055F00008F45CC00E94230E6093F1037093F203E1
:105600008093F3039093F40320E030E04AE255E402
:105610006091FC027091FD028091FE029091FF0268
:105620000E949D308111FDC280E090E0AAEAB5E4BD
:105630008093FC029093FD02A093FE02B093FF02C0
:1056400081E0809306032091F8023091F9024091A5
:10565000FA025091FB026091FC027091FD02809170
:10566000FE029091FF020E94DE3220E030E040E82E
:1056700057E40E9403316B017C0120E030E0A90176
:105680000E94863320E030E040E05FE387FDD8C22F
:10569000C701B6010E9472320E9450336093F40237
:1056A0007093F5028093F6029093F7028091F302D3
:1056B000882309F4CDC00E94230E6093F1037093F8
:1056C000F2038093F3039093F4030E94F90CC090CB
:1056D000EF02D090F002E090F102F090F2026C192B
:1056E0007D098E099F09603A7B4B8D40910508F436
:1056F000AFC00E940110882309F495C00E94230EB8
:105700000091CF021091D0022091D1023091D202AB
:10571000601B710B820B930B623371058105910540
:1057200008F481C00E94F90C9B01AC012C193D09C1
:105730004E095F0969017A01C092D902D092DA025A
:10574000E092DB02F092DC026093EF027093F002D1
:105750008093F1029093F2020E94230E6093C7029D
:105760007093C8028093C9029093CA024EE150E040
:10577000509305014093040150EFC51A5EE7D50A26
:105780005EE0E50AF10881EAC81686E8D80681E0FD
:10579000E806F104D0F58091ED029091EE029C01B3
:1057A0002F5F3F4F3093EE022093ED020A96209137
:1057B000060340E050E064E670E0222321F040E080
:1057C00054E164E670E00E94D0090E941E0D0E9420
:1057D000230E6093C7027093C8028093C90290930E
:1057E000CA020E94230E6093ED037093EE03809330
:1057F000EF039093F0030E94230E6093CF02709307
:10580000D0028093D1029093D2021092F3021092B0
:10581000E2020E94230E6093E3027093E4028093FD
:10582000E5029093E6020E94F90C0091EF021091BC
:10583000F0022091F1023091F202601B710B820B99
:10584000930B603E784C8041910510F01092F3026A
:105850008091ED029091EE020297ECF01092EE0230
:105860001092ED0286E480937C0080917C008F7D15
:1058700080937C001092030181E08093EC021092EF
:10588000EE021092ED021092D9021092DA021092FA
:10589000DB021092DC028091EC02882309F4BFC283
:1058A0000E94230E0091E3021091E4022091E50290
:1058B0003091E602601B710B820B930B6C327140CE
:1058C0008105910598F18091D80281112FC0E4EFF4
:1058D000F1E0F0930103E093000344EF51E060E056
:1058E00070E0CB010091D3021091D402012E000C84
:1058F000220B330B600F711F821F931F4150510900
:1059000089F724EF31E040E050E00E9440323093CC
:10591000010320930003809100039091010381E033
:105920008093D80280910003909101030E943A1065
:105930008823D9F08091EB02811117C010920303E4
:10594000109202031092D5028091D3029091D4025A
:1059500081E08093EB020E94F90C6093E702709360
:10596000E8028093E9029093EA028091EB02882397
:1059700009F4B4C00E94F90CC090E702D090E8028C
:10598000E090E902F090EA026C197D098E099F0906
:10599000603A7B4B8D40910508F4A0C00E943A10FC
:1059A000882309F486C00E94F90C9B01AC012C19D4
:1059B0003D094E095F0969017A01C092D902D0926E
:1059C000DA02E092DB02F092DC026093E70270936D
:1059D000E8028093E9029093EA020E94230E10925B
:1059E000D80230EFC31A3EE7D30A3EE0E30AF108DB
:1059F00041EAC41646E8D40641E0E406F10408F0A2
:105A00004AC08091ED029091EE0201969093EE02D1
:105A10008093ED0282309105F9F4F8941092910090
:105A20001092950010929400C19A2AE02093910060
:105A3000209171002260209371001092D702109281
:105A4000D6021092080190930A018093090178947C
:105A500085B191E0892785B98BB192E089278BB90F
:105A600085B191E0892785B98091ED029091EE0290
:105A700044E650E060E070E00B960E94D0090E947E
:105A80001E0D0E94230E6093ED037093EE0380932E
:105A9000EF039093F0031092EB021092E2020E9447
:105AA000230E6093E3027093E4028093E5029093E7
:105AB000E6020E94F90C0091E7021091E8022091A1
:105AC000E9023091EA02601B710B820B930B603E7E
:105AD000784C8041910510F01092EB028091ED021C
