:100000000C94A6090C94CE090C94CE090C94CE093C
:100010000C94CE090C94CE090C94CE090C94B91D05
:100020000C94CE090C94CE090C94CE090C94CE09F4
:100030000C94CE090C94CE090C94CE090C94CE09E4
:100040000C94A51E0C94CE090C94731E0C944D1E9A
:100050000C94CE090C94EF1E0C94CE090C94CE098E
:100060000C94CE090C94CE090C94CE090C94A31FC9
:100070000C94CE090C94CE090C94CE090C94CE09A4
:100080000C94CE090C94B71F0C94CE090C94CE0995
:100090000C94CE090C94CE090C94CE090C94CE0984
:1000A0000C94CE090C94CE090C94CE090C94CE0974
:1000B0000C94CE09AED580A83FD300408D14200209
:1000C000A1C8DA1281FFD9F1DB40A4A6AFB40019B0
:1000D00080400000030C0F30333C3FC0C3CCCFF056
:1000E000F3FCFF00000000240027002A002D00027E
:1000F00000901C2420600800000000200000000088
:100100000000000A0000150F15141615151414151B
:1001100008000000000000000000000000000000D7
:1001200000000000180000000017000000000000A0
:1001300000000000000000000015000000000008A2
:10014000000000001400000000000E000000001677
:10015000000000000000000000000000000000009F
:10016000000000000000000000000000000000008F
:100170000000000000000000000000000000C0F0CF
:10018000F8FC7C1C1C1C7CFCF8F8C0000000000083
:1001900000C0F0FC7C1C0400000000000000071FF1
:1001A0003F7F7C7070707C7F3F3F070080E0F8FEEF
:1001B0003F1F0701000000000000000000000000D9
:1001C0000000000000000000C0E0F8FE3F0F030048
:1001D00000F0FEFEFF1F0707071FFFFEFCF00000F8
:1001E0000000000000101C1F1F070300000000009B
:1001F00000010F0F1F1F1C1C1C1F1F0F07010000F9
:1002000000000000000000000000000000000000EE
:1002100000000000000000000000000000000000DE
:1002200000000000000000000000000000000000CE
:1002300000001F1F1F1F1F1F1F1F1F1F0000000088
:1002400000000000000000000000000000000000AE
:1002500000C0F0F0F8F8FCFC7C7C7C7CFCFCF8F83E
:10026000F0E0C00000FFFFFFFFFFFFFF0000000005
:100270000000FFFFFFFFFFFFFF003FFFFFFFFFFF4B
:10028000FFC080808080C0FFFFFFFFFFFF3F0000B6
:10029000000307070F0F0F0F0F0F0F0F0F0F0707A9
:1002A000030100000000000000000000000000004A
:1002B0000000000000000000000000008080C0E09E
:1002C000F0FCFCFCFCFCFCFC3F3F3F1F1F0F07FF4A
:1002D000FFFFFFFFFFFFFF00000000000000FFFF27
:1002E000FFFFFFFFFFFF000000000000000F0F0FE7
:1002F0000F0F0F0F0F0000000000000000000000B3
:100300000000000000C0E0F0F8F8FCFCFC7C7C7C05
:100310007CFCFCFCF8F8F0E0C000030303030303DB
:10032000030080C0C0E0F8FFFFFFFF7F3F0F0080A9
:10033000C0F0F8FCFEFFFFFFFFDFCFC7C7C3C1C09F
:10034000C0C0C00F0F0F0F0F0F0F0F0F0F0F0F0FAA
:100350000F0F0F0F0F0F0F0F000000000000000025
:100360000000000000000000000000000080E0F03D
:10037000F8F8FCFC7C7C3C7C7CFCFCFCF8F8F0C0D5
:10038000000101010101010100F0F0F8F8FFFFFF99
:10039000FFDF8F8700E0E0E0E0E0E0E080010101C6
:1003A0000183FFFFFFFFFFFFFF00010307070F0FA0
:1003B0000F0F0F0F0F0F0F0F0707030100000000B3
:1003C000000000000000000000000000000000002D
:1003D00000000000000000000080C0E0F8FCFCFC11
:1003E000FCFCFCFC0000000080C0E0F0FCFEFF7F95
:1003F0001F0F0703FFFFFFFFFFFF0000007F7F7F4E
:100400007F7F7F7D7C7C7C7C7C7CFFFFFFFFFFFF10
:100410007C7C7C0000000000000000000000000068
:100420000F0F0F0F0F0F0000000000000000000072
:1004300000000000000000000000000000000000BC
:1004400000FCFCFCFCFCFCFCFCFCFCFCFCFCFCFCE8
:10045000FCFC00000000FFFFFFFFFFF878787878D1
:10046000F8F8F8F8F0E0E0800000E0E0E1E1E1E138
:10047000800000000080FFFFFFFFFFFF7F1E0001E4
:100480000307070F0F0F0F0F0F0F0F0F0F070703B4
:10049000010000000000000000000000000000005B
:1004A000000000000000000000C0E0F0F8F8FCFCD4
:1004B0007C3C3C3C7CFCFCF8F8F0E00000FEFFFFDC
:1004C000FFFFFFFFE1F0787878F8F8F8F8F0E0C087
:1004D00080003FFFFFFFFFFFFFC18000000080C1E1
:1004E000FFFFFFFFFFFF3E0000010307070F0F0F95
:1004F0000F0F0F0F0F0F0F07030300000000000086
:1005000000000000000000000000000000000000EB
:1005100000FCFCFCFCFCFCFCFCFCFCFCFCFCFCFC17
:10052000FCFCFCFCFC0000000000000000C0F0F837
:10053000FEFFFF7F1F0F0301000000000000E0FC32
:10054000FFFFFFFFFF0F01000000000000000000A0
:10055000000E0F0F0F0F0F0F010000000000000032
:10056000000000000000000000000000000000008B
:10057000000000000080E0F0F8F8FCFC7C3C3C3C13
:100580007CFCFCFCF8F8F0E080030F9FFFFFFFFF0E
:10059000F8F0F0F0F0FCFFFFFFFF9F0F03FEFFFFFE
:1005A000FFFFFFFF830100000183FFFFFFFFFFFF4D
:1005B000FE000307070F0F0F0F0F0F0F0F0F0F0F87
:1005C0000707070100000000000000000000000015
:1005D00000000000000000000000C0E0F0F8F8FC9F
:1005E000FC7C3C3C7C7CFCFCF8F8F0E0C0003F7FED
:1005F000FFFFFFFFFFE0C0808080C0E0FFFFFFFF44
:10060000FFFFFE00C0C1C3C3C7C7C7870707078373
:10061000E1FFFFFFFFFFFF3F00000103070F0F0F88
:100620000F0F0F0F0F0F0F0707030100000000004F
:1006300000000000000000000000000000000000BA
:1006400000000000000000000000FEFEFEFEFEFEB6
:10065000FEFEE0E0E0E0E0E0E0E00F0F0F0F0F0F44
:100660000F0F0000000000000000FCFCFCFCFCFC84
:10067000FCF8F0C080000000000000FCFCFCFCFC6A
:10068000FCFCFFFFFFFFFFFFFF7FFFFFFFFEFCF013
:10069000E08000FFFFFFFFFFFFFFFFFFFFFFFFFF07
:1006A000FF000001070F3F7FFFFFFFFFFFFFFFFF7E
:1006B000FFFF0F0F0F0F0F0F0F00000000000000D3
:1006C00001030F0F0F0F0F0F0F0F000000000000AE
:1006D000000000000000000000000000000000001A
:1006E000000000E0F0F0F8F8FCFC7C7C7C7C7CFCFA
:1006F000FCFCF8F8F0E0C00000071F3F7FFFFFFFA1
:10070000FFFCFCF8F8F8F8F3F3F3E3E3C38300002D
:10071000F8F8F8F8F8F8F8E1C18183838387CFFF10
:10072000FFFFFFFFFFFF7E00010307070F0F0F0F03
:100730000F0F0F0F0F0F0F0F07070301000000002F
:1007400000000000000000000000000000000000A9
:100750000000000000000000000000000000000099
:100760000000000000000000000000C0F0F8F8FCED
:10077000FCFE7E7E3E3E3E7EFEFEFCFCF8F0E01E71
:10078000FFFFFFFFFFFFF3C08080008080C0E0E03C
:10079000E0E0E0E00000010307070F0F0F0F0F0F6D
:1007A0000F0F0F0F0F0703030000000000000000F1
:1007B00000000000000000000000000000007C7C41
:1007C0007C7C7C7C7C7CFEFEFEFEFEFEFEFEFFFF53
:1007D000FFFFFFFFFFFF0F0F0F0F0F0F0F0F0000A7
:1007E0000000000000000000000000000000000009
:1007F00000000000000000000000FEFEFEFEFEFE05
:10080000FEF0787C7C7EFEFEFEFEFCFCF8E0FFFF46
:10081000FFFFFFFFFF000000000000FFFFFFFFFFE2
:10082000FFFF0F0F0F0F0F0F0F0000000000000F52
:100830000F0F0F0F0F0F000000000000000000005E
:1008400000000000000000000000000000E0E0F0F8
:10085000F0F8F8F8000000007E7E7EFFFFFFFFFF4B
:10086000FFFF7E7E7E7E000000FFFFFFFFFFFFFF99
:100870008080808000000003070F0F0F0F0F0F0F05
:100880000F0F00000000000000000000000000004A
:100890000000000000000000000000000000000058
:1008A000000000000000021E7EFEFEFEFEFCF08046
:1008B00000000080F8FEFEFEFEFE3E060000000185
:1008C0000F3FFFFFFFFFF8E0FCFFFFFFFF3F0700C8
:1008D000000000C0C08080C0C1E7FFFFFFFFFFFF36
:1008E0003F0700000000000000307070F0F0F0F0F2
:1008F000F0707030100000000000000000000000E8
:10090000050F7C011020FF201000901C087C018046
:1009100000000000000F01010101010101010101BE
:1009200001010101010101010F01010101010101A9
:100930000101010101010101010101010F01010199
:10094000010101010101010101010101010101FF99
:100950000101010101010101010101010101010187
:1009600001010F0101010101010101010101010169
:100970000101010101010F01010101010101010159
:10098000010101010101010101010F00000000004E
:10099000000005072060000000000000005F00006C
:1009A0000003000300143E143E14242A7F2A12433D
:1009B0003308666136495522500005030000001CCB
:1009C0002241000041221C0014083E081408083E81
:1009D00008080050300000000000080800606000B7
:1009E0000020100804023E5149453E0004027F00E9
:1009F000426151494622414949361814127F102755
:100A0000454545393E494949320101710907364991
:100A1000494936264949493E0036360000005636D7
:100A2000000008142241001414141414004122146C
:100A30000802015109063E4159555E7E0909097EA9
:100A40007F494949363E414141227F4141413E7FF4
:100A5000494949417F090909013E4141493A7F0815
:100A600008087F00417F4100304040403F7F08142C
:100A700022417F404040407F020C027F7F020408F9
:100A80007F3E4141413E7F090909061E2121215E29
:100A90007F09090976264949493201017F01013F51
:100AA0004040403F1F2040201F7F2010207F4122D8
:100AB0001C224107087008076151494543007F41E6
:100AC000000002040810200000417F00040201021F
:100AD0000440404040400001020400205454547837
:100AE0007F444444383844444444384444447F3880
:100AF0005454541804047E0505085454543C7F088B
:100B000004047800447D40002040443D007F1028CC
:100B1000440000417F40007C047804787C08040491
:100B20007838444444387C14141408081414147C91
:100B3000007C080404485454542004043F44443CBA
:100B40004040207C1C2040201C3C4030403C44283D
:100B50001028440C5050503C4464544C4400083617
:100B6000414100007F0000414136080002010204BB
:100B7000027F7F7F7F7F00000A0F205F0000000060
:100B80000000000000000000000000000000000065
:100B900000000000FEFE0000000000000000191927
:100BA0000000000000001E1E00001E1E00000000CD
:100BB00000000000000000000030FEFE3030FEFEAD
:100BC000300000031F1F03031F1F03000070F8D82D
:100BD000FE9898000000000C18187F191F0F0000E5
:100BE0001CB6A2F6CC60602030000101000E1B1183
:100BF0001B0E00000000DC7EE6C6860C808000072D
:100C00000F1C18191F1E1F13000000001E1E0000DD
:100C1000000000000000000000000000000000E0F4
:100C2000FC1E02000000000000073F7840000000AA
:100C30000000021EFCE000000000000040783F07BA
:100C40000000000000F0FC0E86C66EFCFC06301BA7
:100C50000F1F31181C0F030000808080F0F080808F
:100C60008000000101010F0F0101010000000000E0
:100C7000000000000000000000407C3C000000007C
:100C80000000000000000000000000000303030358
:100C90000300000000000000000000000000000051
:100CA00000001C1C0000000000000000C0F03C0E12
:100CB00002000020381E07010000000000F0FC0EBA
:100CC000C6C60EFCF80000030F1C18181C0F070006
:100CD00000000C06FEFE00000000001818181F1F80
:100CE00018181800000C06060686C67C3800001886
:100CF0001C1E1B1918181800000C06C6C6C6C6FC18
:100D00003800000C18181818190F0F000080C07058
:100D1000180EFEFE00000003030303031F1F030061
:100D200000FE7E666666E6C68000000C181818187D
:100D30001C0F070000F0FCCE6666E6CC80000007C2
:100D40000F1C18181C0F07000006060606E6FE3EDC
:100D50000E000000101C0F03000000000038FCC64D
:100D6000C6C6C6FC3800000F0F181818180F0F0061
:100D70000078FCCE8686CEFCF80000000C1919190C
:100D80001C0F030000000000E0E000000000000075
:100D900000001C1C0000000000000000E0E000005B
:100DA0000000000000407C3C00000000008080C08B
:100DB00040606020300000010103020606040C00C0
:100DC0000060606060606060600000060606060605
:100DD00006060600003020606040C0808000000CE5
:100DE0000406060203010100000C0686C6667E1C8E
:100DF00000000000001B1B0000000000E0F0389C19
:100E0000CCCCDCF8F000071F3873676666772700E4
:100E10000000C0FC3E3EFCC0000000181F0F030392
:100E20000F1F180000FEFEC6C6C6C6FC3C00001F11
:100E30001F181818181F0F0000F0FC0C06060606F5
:100E40000C0000030F0C181818180C0000FEFE060A
:100E500006060CFCF000001F1F1818180C0F0300EA
:100E600000FEFEC6C6C6C6C60600001F1F1818181C
:100E70001818180000FEFEC6C6C6C6C60600001F2B
:100E80001F0000000000000000F0FC0C06868686B3
:100E90008C0000030F0C1819191F0F0000FEFEC074
:100EA000C0C0C0FEFE00001F1F000000001F1F008A
:100EB00000000606FEFE06060000000018181F1FB0
:100EC0001818000000000000060606FEFE00000CD8
:100ED00018181818180F0F0000FEFEE0F0FC0E06A0
:100EE0000200001F1F0000030F1E180000FEFE007E
:100EF000000000000000001F1F1818181818180024
:100F000000FEFE3EF0F03EFEFE00001F1F0001014D
:100F1000001F1F0000FEFE1EF0C000FEFE00001FAE
:100F20001F0000031E1F1F0000F0FC0E06060EFC33
:100F3000F00000030F1C18181C0F030000FEFEC673
:100F4000C6C6C67C7C00001F1F0000000000000019
:100F500000F0FC0E06060EFCF00000030F1C181833
:100F60003C6F070000FEFEC6C6C6C6FC3C00001F64
:100F70001F000001031F1E1000387CE6C6C6C68C89
:100F80000000000C18181818190F0F0000060606AC
:100F9000FEFE06060600000000001F1F0000000005
:100FA00000FEFE00000000FEFE0000070F1C1818E7
:100FB0001C0F07000006FEFC0000FCFE06000000FF
:100FC000001F1F1F1F0000001EFEE000F0F000E0E9
:100FD000FE1E001F1F1E01011E1F1F0000020E3EED
:100FE000F8F83E0E020000101C1F03031F1C100027
:100FF000020E3E78E0E0783E0E02000000001F1F67
:101000000000000000060686C6F67E1E0E00001CCC
:101010001E1F1B1818181800000000FEFE02020018
:1010200000000000007F7F404000000000020E38FA
:10103000E080000000000000000000030E382000E7
:1010400000000202FEFE00000000000040407F7F22
:101050000000000010181C0E060E1C1810000000E6
:101060000000000000000000000000000000000080
:1010700000004040404040404040404000000103EC
:101080000604000000000000000000000000000056
:1010900000006030B0B0B0F0E000000E1F1B191966
:1010A0000D1F1F0000FEFE60303070E0C000001F0A
:1010B0001F0C18181C0F070000C0E07030303030D3
:1010C000600000070F1C181818180C0000C0E07012
:1010D000303060FEFE0000070F1C18180C1F1F00A8
:1010E00000C0E0B0B0B0B0E0C00000070F1D19199B
:1010F00019190D00003030FCFE36363600000000B5
:10110000001F1F000000000000C0E070303060F0E1
:10111000F0000003376E6C6C667F3F0000FEFE60DF
:10112000303030F0E000001F1F000000001F1F00E3
:1011300000003030F7F700000000001818181F1FDB
:101140001818180000003030F7F7000000000060A9
:1011500060607F3F0000000000FEFE80E070301005
:101160000000001F1F0103071E181000000606FEE6
:10117000FE00000000000000000F1F1818180000FB
:1011800000F0F030F0E030F0E000001F1F001F1F03
:10119000001F1F0000F0F060303030F0E000001F52
:1011A0001F000000001F1F0000C0E070303070E022
:1011B000C00000070F1C18181C0F070000F0F0609B
:1011C000303070E0C000007F7F060C0C0E0703007B
:1011D00000C0E070303060F0F0000003070E0C0C2F
:1011E000067F7F000000F0F06030303030000000FB
:1011F0001F1F00000000000000E0F0B0B0B0B030F1
:101200006000000C191919191B1F0E00003030FC6A
:10121000FC30303000000000000F1F1818180000CC
:1012200000F0F000000000F0F000000F1F18181888
:101230000C1F1F000030F0E00000E0F03000000064
:10124000010F1E1E0F01000070F00000C0C0000062
:10125000F07000071F1E03031E1F0700001030F070
:10126000C0C0F03010000010181E07071E18100034
:101270000010F0F08000F0F03000000060637F1F8D
:101280000F0100000030303030B0F0703000001836
:101290001C1E1B191818180000000000FCFE02029A
:1012A0000000000001013E7E404000000000000000
:1012B000FEFE00000000000000007F7F0000000034
:1012C00000000202FEFC00000000000040407E3EE4
:1012D000010100000080C0C0C0808080C00000010B
:1012E00000000001010100000000000023002600B2
:1012F00029002C0000000008000201000003040780
:1013000000000000000000000000000001020408CE
:10131000102040800102040810200102040810205F
:101320000408010200000000250028002B002E0008
:10133000040404040404040402020202020203037B
:1013400003030303050505059521642F11241FBE22
:10135000CFEFD8E0DEBFCDBF12E0A0E0B1E0E0E229
:10136000FBE602C005900D92A635B107D9F724E03F
:10137000A6E5B2E001C01D92AC39B207E1F719E071
:10138000C5EAD9E004C02197FE010E947733C43A30
:10139000D107C9F70E94DA220C9483350C9400001F
:1013A0004F925F926F927F928F929F92AF92BF9275
:1013B000FF922091E3033091E4038217930708F032
:1013C00043C02B0166247724852E962EA72EBB249E
:1013D000B82DA42F2091E903F42C222391F0E22FC1
:1013E000F0E0E49DD001E59DB00DF49DB00D112419
:1013F000FB2E289D40011124B92D249F900111241A
:10140000A32FE091EF032091EA033091EB03509179
:10141000EC03E51323C0FC01EE0FFF1F8E0F9F1F8F
:10142000820F931FE091EC03E80FF92FF11DF0827A
:10143000E091ED03E80FF92FF11DB0832091EE0349
:10144000820F911DFC01A083FF90BF90AF909F90F1
:101450008F907F906F905F904F900895880F991FA5
:10146000880F991F820F931FE80FF92FF11D10822B
:10147000D9CFE091CB03F091CC030196880F991F4F
:10148000880F991FE80FF91FDF0114978081918160
:101490002D913C91821B930B69E070E00E946333B5
:1014A000892B11F06F5F7F4FCB010895AF92BF92F0
:1014B000CF92DF92EF92FF920F931F93CF93DF9320
:1014C0006C017B018B01040F151FEB015E01AE184F
:1014D000BF08C017D10759F06991D601ED91FC9171
:1014E0000190F081E02DC6010995892B79F7C5019E
:1014F000DF91CF911F910F91FF90EF90DF90CF90F0
:10150000BF90AF900895FC01448155816081718145
:1015100087EF93E00C94560AFC01538D448D252FE0
:1015200030E0842F90E0821B930B541710F0CF967D
:10153000089501970895FC01918D828D981761F0AF
:10154000A28DAE0FBF2FB11D5D968C91928D9F5FC6
:101550009F73928F90E008958FEF9FEF0895FC01A5
:10156000918D828D981731F0828DE80FF11D858D58
:1015700090E008958FEF9FEF0895FC01918D228DEB
:10158000892F90E0805C9F4F821B91098F73992770
:1015900008958EE293E00E94BD0A21E0892B09F4B0
:1015A00020E0822F0895FC01A48DA80FB92FB11D52
:1015B000A35ABF4F2C91848D90E001968F73992789
:1015C000848FA689B7892C93A089B1898C91837067
:1015D00080648C93938D848D981306C00288F38960
:1015E000E02D80818F7D80830895EF92FF920F938D
:1015F0001F93CF93DF93EC0181E0888F9B8D8C8DBF
:1016000098131AC0E889F989808185FF15C09FB7B2
:10161000F894EE89FF896083E889F9898081837075
:10162000806480839FBF81E090E0DF91CF911F9124
:101630000F91FF90EF900895F62E0B8D10E00F5F45
:101640001F4F0F731127E02E8C8D8E110CC00FB61B
:1016500007FCFACFE889F989808185FFF5CFCE01B3
:101660000E94D30AF1CFEB8DEC0FFD2FF11DE35A51
:10167000FF4FF0829FB7F8940B8FEA89FB89808136
:101680008062CFCFCF93DF93EC01888D8823B9F0B0
:10169000AA89BB89E889F9898C9185FD03C080817D
:1016A00086FD0DC00FB607FCF7CF8C9185FFF2CFFA
:1016B000808185FFEDCFCE010E94D30AE9CFDF9173
:1016C000CF91089580E090E0892B29F00E94C90A0B
:1016D00081110E94000080E090E0892B49F080E0B9
:1016E00090E0892B29F00E94000081110C940000E9
:1016F000089581508D3008F03DC0E82FF0E0ED579F
:10170000F44F0C9477339A0B9E0B900B960BBA0BFD
:10171000BA0BA10BA70BAB0BB10BBA0BB50BBB0BE9
:10172000809180008F778093800008958091800061
:101730008F7DF9CF84B58F7784BD089584B58F7D73
:10174000FBCF8091B0008F778093B0000895809197
:10175000B0008F7DF9CF809190008F7780939000BB
:101760000895809190008F7DF9CF8091A0008F77B0
:101770008093A00008958091A0008F7DF9CFCF9332
:10178000DF93E4E0F3E18491ECE1F3E1D491E0E470
:10179000F3E1C491CC23A1F081110E94790BEC2FCD
:1017A000F0E0EE0FFF1FE851FD4EA591B491EC91D2
:1017B000ED2381E090E009F480E0DF91CF9108957E
:1017C00080E090E0FACF1F93CF93DF93282F30E093
:1017D000F901EC50FD4E8491F901E45FFC4ED49187
:1017E000F901E05DFC4EC491CC23A9F0162F8111C4
:1017F0000E94790BEC2FF0E0EE0FFF1FEC5DFC4E2A
:10180000A591B4918FB7F894EC91111108C0D095BF
:10181000DE23DC938FBFDF91CF911F910895DE2BE4
:10182000F8CFCF93DF9390E0FC01E45FFC4E24916E
:10183000805D9C4EFC0184918823C9F090E0880F64
:10184000991FFC01ED51FF4FA591B491FC01EC5D96
:10185000FC4EC591D49161110DC09FB7F8948C9145
:10186000209582238C938881282328839FBFDF9132
:10187000CF910895623051F49FB7F8943C91822F34
:10188000809583238C93E8812E2BEFCF8FB7F8942C
:10189000EC912E2B2C938FBFEACF4F925F926F92D9
:1018A0007F928F929F92AF92BF92CF92DF92EF92F0
:1018B000FF920F931F93CF938B0149015A0190918F
:1018C0000201891799F09F3F09F452C0CF911F91EF
:1018D0000F91FF90EF90DF90CF90BF90AF909F90CF
:1018E0008F907F906F905F904F900895EFEEF0E0B3
:1018F000C491C7FDEBCF61E00E94110C2801712C4F
:10190000612CCC23F1F0980150E040E0C23009F0A6
:10191000F4C028013A0160E970ED83E090E00E9494
:10192000963169017A0181E0C81AD108E108F1080D
:1019300093E08FEFC816D104E104F10409F00CF430
:1019400073C168E478EE81E090E0A30192010E9407
:10195000963169017A0181E0C81AD108E108F108DD
:1019600094E0C11161C185B5887F836085BDDAC00F
:1019700080930201EFEEF0E0C4919C2FCF3F09F479
:10198000A5CFC23009F471C058F4CC2381F1C13025
:1019900009F449C097FD9ACF61E00E94110CB3CFC2
:1019A000C33009F488C0C430A9F71092A000109287
:1019B000A1009091A10098609093A1009091A10046
:1019C00091609093A100282F30E0F901E05DFC4E7A
:1019D000E491F0E0EE0FFF1FEC5DFC4E4591549159
:1019E000F901E45FFC4EE491E093AE0284CF14BCB5
:1019F00015BC94B5926094BD95B5916095BD282FA6
:101A000030E0F901E05DFC4EE491F0E0EE0FFF1FE5
:101A1000EC5DFC4E45915491F901E45FFC4EE4917C
:101A2000E093B10268CF10928000109281009091F3
:101A300081009860909381009091810091609093D3
:101A40008100282F30E0F901E05DFC4EE491F0E0E8
:101A5000EE0FFF1FEC5DFC4E45915491F901E45FE0
:101A6000FC4EE491E093B00246CF1092B000109289
:101A7000B1009091B00092609093B0009091B1004D
:101A800091609093B100282F30E0F901E05DFC4EA9
:101A9000E491F0E0EE0FFF1FEC5DFC4E4591549198
:101AA0005093C3024093C202F901E45FFC4EE491FB
:101AB000E093C40220CF1092900010929100909178
:101AC0009100986090939100909191009160909313
:101AD0009100282F30E0F901E05DFC4EE491F0E048
:101AE000EE0FFF1FEC5DFC4E45915491F901E45F50
:101AF000FC4EE491E093AF02FECE60E072E18AE733
:101B000090E00E94963169017A0181E0C81AD108FB
:101B1000E108F108C13071F580918100887F816012
:101B200080938100D801AA0FBB1FA50194010E94D8
:101B3000B53128EE33E040E050E00E94FF31C23082
:101B4000D1F10CF05AC0CC2339F1C13009F0BECE2E
:101B5000D0928900C09288002093BA023093BB02D1
:101B60004093BC025093BD0280916F0082608093CD
:101B70006F00ACCEC33039F480919100887F8160D2
:101B800080939100CFCFC43069F68091A100887F07
:101B900081608093A100C6CFC7BC2093BE02309362
:101BA000BF024093C0025093C10280916E008260D8
:101BB00080936E008BCEC092B3002093C502309309
:101BC000C6024093C7025093C802809170008260A1
:101BD000809370007BCED0929900C09298002093A1
:101BE000B6023093B7024093B8025093B902809185
:101BF000710082608093710069CEC33061F3C4309C
:101C000009F064CED092A900C092A8002093B2023D
:101C10003093B3024093B4025093B50280917200A6
:101C200082608093720052CE8091B100887F892BB0
:101C30008093B10077CF8E50806480937C00809138
:101C40007A00806480937A0080917A0086FDFCCFD0
:101C5000809178009091790008953FB7F894809131
:101C6000AA029091AB02A091AC02B091AD0226B550
:101C7000A89B05C02F3F19F00196A11DB11D3FBFC4
:101C8000BA2FA92F982F8827BC01CD01620F711D93
:101C9000811D911D42E0660F771F881F991F4A958D
:101CA000D1F708950F931F93CF93DF93CDB7DEB78E
:101CB00029970FB6F894DEBF0FBECDBF8091EA031F
:101CC0009091EB03892B09F47CC00E942D0E0091AA
:101CD000F0031091F1032091F2033091F3036017A8
:101CE00071078207930740F46093F0037093F10348
:101CF0008093F2039093F3030091F0031091F103AA
:101D00002091F2033091F303601B710B820B930B54
:101D10006C32714081059105C0F2F8948091E50321
:101D20009091E6039A838983E091EA03F091EB03B3
:101D3000DF011196808189879091E103E091F4039E
:101D4000F091F5038091F603992309F445C0908141
:101D5000982B98879081809589238F838F818C839E
:101D600088E08B8358856F8149853B812C818981EF
:101D70009A81508347FD252F3A952083262F39F0ED
:101D8000441F00C000006083000000C0F2CF38E0B4
:101D90004D9160830000019761F7F093F503E093A4
:101DA000F40349873B832C839A83898378940E9428
:101DB0002D0E6093F0037093F1038093F2039093E0
:101DC000F30329960FB6F894DEBF0FBECDBFDF91A7
:101DD000CF911F910F9108959081982B98879081B2
:101DE000809589238F838F818E8388E08D835885AA
:101DF0006F8149853D812E8189819A81508347FD7C
:101E0000252F00C000C0208300C000C000C000C05B
:101E100000C060830000262F3A9541F0441F000067
:101E200000C000C000C000C000C0E8CF38E04D9145
:101E300000C0608300C0019709F7F093F503E093B9
:101E4000F40349873D832E83AFCF8F929F92AF9249
:101E5000BF92CF92DF92EF92FF924B015C010E9402
:101E60002D0E6B017C010E942D0E6C197D098E09CF
:101E70009F09683E734081059105A8F321E0821A0D
:101E80009108A108B10888EEC80E83E0D81EE11CB5
:101E9000F11C81149104A104B10429F7FF90EF9083
:101EA000DF90CF90BF90AF909F908F9008952FB705
:101EB000F8946091A6027091A7028091A802909177
:101EC000A9022FBF0895CF93DF93EC018D8588235E
:101ED00029F081508D87DF91CF9108959C818E816B
:101EE0009817C8F788896827E881F9810084F18507
:101EF000E02D42E0CE0109958C818F5F8C83EBCF82
:101F0000DC011E96ED91FC9184913196E491982F1D
:101F10008E2F0895909306048093050487EF93E035
:101F20000E94800F019719F410920004089581E037
:101F300080930004089590E080E008954FB7F894EE
:101F400020919E0230919F0280919C0290919D026F
:101F50004FBF40919A02042E02C0359527950A94EE
:101F6000E2F702C0959587954A95E2F78802C0018D
:101F700011242202800D911D112408950E949E0FAC
:101F80009093D6028093D5022091140330911503CB
:101F90008217930720F090931503809314032091E8
:101FA00014033091150340910501509106013695B7
:101FB000279536952795240F351F265F3F4F8217AB
:101FC000930790F081E08093A00280911403909198
:101FD00015039093DE028093DD025093DC02409360
:101FE000DB028091A00208951092A002FACF8091A6
:101FF00099028823E1F1109298022091E302309136
:10200000E40280911203909113032817390740F0DE
:102010008091E3029091E402909313038093120362
:1020200080911203909113038091120390911303F6
:10203000409110035091110320911003309111032E
:10204000E091E302F091E402841B950B6AE070E0FA
:102050000E944F33265F3F4F620F731F81E0E617E8
:10206000F70708F480E08093E502109299028091CE
:102070009802811108C081E08093980280917A00D3
:10208000886480937A008091E5020895CF93DF936E
:10209000D0E0C0E040E050E0BA01CE010E94D0099B
:1020A0002196CA31D105B1F7DF91CF910C94520E30
:1020B000CF92DF92EF92FF920F931F93CF93DF9314
:1020C000C0918402D09185028E01000F111F00592A
:1020D0001D4FF80140815181052E000C660B770BD6
:1020E000C0908602D0908702E0908802F09089022A
:1020F000C41AD50AE60AF70A81E10E941B0EF8010C
:1021000091838083092E000CAA0BBB0BBC01CD016F
:102110006C0D7D1D8E1D9F1D60938602709387023E
:1021200080938802909389022196CA30D105A4F445
:10213000D0938502C09384022AE030E040E050E072
:102140000E949631C901DF91CF911F910F91FF90AD
:10215000EF90DF90CF900895109285021092840244
:10216000EBCF81E080932A03809109014EEF5EEF6F
:102170006EEF70E090E00E94D0090E94520E0E9423
:10218000570F60937C0470937D0480937E0490933A
:102190007F04089580E680937C0081E080936F0245
:1021A00010927B008EEF80937A0080E090E0AAE2AC
:1021B000B5E480930C0390930D03A0930E03B093AA
:1021C0000F038AE89DE3A6E9B6E4809308039093A1
:1021D0000903A0930A03B0930B0385E394E2A0E004
:1021E000B0E08093040390930503A0930603B0939B
:1021F000070385E090E090939B0280939A020895F4
:102200001092FE021092FD020E94CA100E94570F07
:102210006093DD037093DE038093DF039093E0030C
:102220000E94570F6093DF027093E0028093E102F7
:102230009093E20281E0809304011092FC021092DC
:10224000E9021092EA021092EB021092EC028EE187
:1022500090E090930601809305011092150310926F
:10226000140308951F93CF93DF93EC01162F61E0C1
:10227000411101C060E08B890E94E30B80E58CBDB9
:1022800081E08DBD60E08A890E94E30B1EBD0000E5
:102290000DB407FEFDCF8EB561E08A89DF91CF9145
:1022A0001F910C94E30BDC01ED91FC910084F1850E
:1022B000E02D40E009940F931F93CF938C01FC0114
:1022C0006483C085C60F6C2F6F700E9453116C2FF2
:1022D00062956F706061C801CF911F910F910C944E
:1022E0005311FC012781269526952695621738F40F
:1022F00065832385620F6770606B0C94531108959A
:102300001F93CF93DF93EC01142F8E81681718F47D
:10231000CE010E945B11612FCE01DF91CF911F9101
:102320000C947111CF92DF92EF92FF920F931F9353
:10233000CF93DF93EC01F62EC42ED22E1D868F8113
:10234000869586958695081710F00FEF080F1D2DBE
:10235000011780F0412F6F2DCE010E948011EF2CCC
:10236000CE1430F06889CE010E94630FE394F8CF59
:102370001F5FEECF4D2D6F2DCE01DF91CF911F91BD
:102380000F91FF90EF90DF90CF900C9480110F93FE
:10239000DC0115962C9115971E96ED91FC911F97D7
:1023A00000E0309779F03396E491F0E0379683E0DF
:1023B000F595E7958A95E1F751960C9151970E9F07
:1023C000002D1124EFEFE20F0E0F16964C91169789
:1023D000415014966C911497CD010E9492110F9167
:1023E00008952F923F924F925F926F927F928F92B9
:1023F0009F92AF92BF92CF92DF92EF92FF920F9394
:102400001F93CF93DF9300D000D000D0CDB7DEB7BD
:10241000FC01068517850115110509F446C19E8347
:102420008D83F801329664903196A490EA2CF12CB9
:10243000F7E0EF0EF11C23E0F594E7942A95E1F71D
:10244000E982F801349684913196E491681748F056
:10245000CE2ED12C9601280F311D621713060CF4D5
:1024600069C06D3031F5ED81FE81868181111BC01F
:1024700081E090E026960FB6F894DEBF0FBECDBF88
:10248000DF91CF911F910F91FF90EF90DF90CF9050
:10249000BF90AF909F908F907F906F905F904F9084
:1024A0003F902F90089560E08D819E810E945B1186
:1024B000DFCF6A3009F0F9C0ED81FE818681882383
:1024C00021F060E0CF010E945B11ED81FE818189E6
:1024D0008E9DE02C112465816E0D8485882349F042
:1024E00097819695969596958E2D891B860F181631
:1024F0002CF08D819E810E947111BACFED81FE81F9
:102500002385820F877083879E199583CF010E9450
:10251000C711ED81FE818485813009F0A9CF6385E3
:10252000660F660F660F6F7362876064CF010E944B
:1025300053119ECF0A5F1F4FB62EB81AED81FE8150
:1025400091858189989F802D11248C83CF010E94D1
:10255000800F029708F06AC06E9CC0016F9C900DBE
:102560001124B89E6001B99ED00C11240C0D1D1DC4
:10257000512CED81FE81F481FA83ED81FE8125806D
:10258000F585FB83862C912CAA24A394B12C312CA5
:102590008981381608F087C0412CED81FE81818940
:1025A000481608F079C08B818587311002C044201D
:1025B00041F0ED81FE8145814F5F6A81CF010E942C
:1025C0008011D12CC12CC61408F059C0F801EC0DB3
:1025D000FD1D7490552061F0EA14FB0449F4E72DC9
:1025E000F0E0052C02C0F595E7950A94E2F77E2EFF
:1025F000ED81FE818189823081F4442009F43BC061
:1026000072948FE07822E72DF0E0ED52FF4F749046
:10261000672D8D819E810E94630F672D8D819E8124
:102620000E94630F8FEFC81AD80ACDCFEA2DE7704A
:1026300088E0582E5E1AE11101C0512CF801612C7E
:1026400090E080E06B1431F02491820F911D63942F
:102650003196F8CF600E712E711CF3016490E89EE4
:10266000F001E99EF00DF89EF00D1124CE0EDF1E54
:102670000C0D1D1D7ECFF72DFF707F2EC4CFD12CEA
:10268000EC81DE1639F060E08D819E810E94630F3F
:10269000D394F6CF439481CF3394080D191DFFEFE7
:1026A000AF1ABF0A75CF622D24CF90E080E0E2CE52
:1026B0000F93CF93DF93EC011B861A8660E40E9490
:1026C00053110F8106950695069501504E81415094
:1026D00020E060E0CE010E949211DF91CF910F9136
:1026E0000895089590E080E00895CF93DF93EC0182
:1026F00088819981009711F00E94283419821882EC
:102700001D821C821B821A82DF91CF910895FC01E9
:1027100080819181009711F00C9428340895FB0179
:1027200001900020E9F73197AF01461B570BDC0100
:10273000ED91FC910280F381E02D09948F929F929C
:10274000AF92BF920F931F93CF93DF93CDB7DEB7B6
:10275000A1970FB6F894DEBF0FBECDBF19A24230CD
:1027600008F44AE08E010F5D1F4F842E912CB12C8E
:10277000A12CA50194010E94FF31E62FB901CA01E5
:10278000EA3004F5E05DD801EE938D01232B242B74
:10279000252B79F790E080E0109729F0BD0187EFB5
:1027A00093E00E948F13A1960FB6F894DEBF0FBE80
:1027B000CDBFDF91CF911F910F91BF90AF909F90B0
:1027C0008F900895E95CDFCFCF92DF92EF92FF9276
:1027D000CF93DF936C01990FEE08FF08F7FE19C045
:1027E0006DE287EF93E00E94F111EC0166277727F5
:1027F000CB016C197D098E099F094AE00E949E1346
:102800008C0F9D1FDF91CF91FF90EF90DF90CF90C5
:1028100008954AE0C701B601DF91CF91FF90EF9094
:10282000DF90CF900C949E13BC0187EF93E00C9443
:102830008F1380910E01882351F041E066E187EF0C
:1028400093E00E94801183E891E00C9414140895A1
:1028500080911C0381110DC081E080931C0345E031
:1028600066E487EF93E00E9480118EE491E00C947F
:102870001414089545E06CE387EF93E00E94801103
:102880008EE192E00C94141445E065E087EF93E04C
:102890000E94801184E591E00C94141480911D0332
:1028A00081111CC08091190381110AC041E06CE2C2
:1028B00087EF93E00E9480118AE591E00E94141452
:1028C00080911903882399F041E06CE387EF93E04E
:1028D0000E94801184E691E00C94141441E06BE4B2
:1028E00087EF93E00E94801181E691E0E7CF0895A1
:1028F0000F931F93CF93DF93EC010E948F138C01F2
:1029000069E671E0CE010E948F13800F911FDF9165
:10291000CF911F910F91089587EF93E00E94581374
:1029200041E069E187EF93E00E9480116CE671E07D
:1029300087EF93E00E94781445E065E087EF93E02D
:102940000E94801164E771E087EF93E00C947814A3
:10295000CF92DF92EF92FF920F931F93CF93DF936B
:102960007B012091CD033091CE0382179307F4F4BD
:10297000880F991F880F991F2091CB033091CC03AA
:10298000820F931FFC01C280D380FFEFCF16DF06BA
:1029900069F08B01C3E0D0E0C6018C1B9D0B0E9447
:1029A0008031F80181938F012197B0F7C701DF9142
:1029B000CF911F910F91FF90EF90DF90CF900895EE
:1029C0000C9480310F931F93CF93DF93EC018C0114
:1029D000060F171FC017D1079CF4CE010E94E01408
:1029E0008F3F61F0FC9AFD98FB98D2BDC1BD8FB7B7
:1029F000F894F999FECFFA9AF99A8FBF2196EACF07
:102A0000DF91CF911F910F9108950F931F93CF9353
:102A1000DF93EC01162F22E030E0062F0095FD9A9F
:102A2000FC98FB98D2BDC1BD10BD8FB7F894F99941
:102A3000FECFFA9AF99A8FBFF999FECF213031056E
:102A400039F0CE010E94E01421E030E0802339F714
:102A5000DF91CF911F910F910895CF93DF93EB01F9
:102A60000E9480318883CE01DF91CF910895CF936A
:102A7000DF93EB010E9480318883CE01DF91CF91FB
:102A800008950E946E350F931F93CF93DF93EC014F
:102A900088819981009759F02A813B812617370751
:102AA00030F081E0DF91CF911F910F9108958B015C
:102AB0006F5F7F4F0E94B134009759F099838883EC
:102AC0001B830A832C813D81232B59F7FC01108243
:102AD000E8CF80E0E7CFEF92FF920F931F93CF9361
:102AE000DF93EC01FB01E080F180E114F10411F1CE
:102AF0000481158101151105A9F08C819D81080FB4
:102B0000191FB801CE010E944315882399F028812E
:102B100039818C819D81B701820F931F0E947C3582
:102B20001D830C83CE01DF91CF911F910F91FF90F8
:102B3000EF900895CE010E947513F4CFEF92FF92AB
:102B40000F931F93CF93DF9300D0CDB7DEB78C01E7
:102B50008EE289831A82F801E480F580FFEFEF1A94
:102B6000FF0AB701C8010E9443158823C9F0F80184
:102B70002081318184819581BE016F5F7F4F820FFB
:102B8000931F0E947C35F801F582E482C8010F9002
:102B90000F90DF91CF911F910F91FF90EF900895CB
:102BA000C8010E947513F2CFEF92FF920F931F930B
:102BB000CF93DF93EC017B018A01BA010E94431598
:102BC00081110BC0CE010E947513CE01DF91CF9110
:102BD0001F910F91FF90EF9008951D830C83B70113
:102BE000888199810E947C35F0CFEF92FF920F93FC
:102BF0001F93CF93DF93CDB7DEB762970FB6F894EC
:102C0000DEBF0FBECDBF8C01CB01F8011182108257
:102C100013821282158214824AE09E012F5F3F4F79
:102C20007901B9010E942730F70101900020E9F7EE
:102C30003197AF014E195F09B701C8010E94D41541
:102C400062960FB6F894DEBF0FBECDBFDF91CF9175
:102C50001F910F91FF90EF900895FB01DC011196F9
:102C60001C921E9213961C921E92129715961C92FD
:102C70001E9214978617970749F06081718161153C
:102C8000710521F0448155810C94D41508950F935A
:102C90001F93CF93DF93CDB7DEB768970FB6F89445
:102CA000DEBF0FBECDBF80910901882309F4AFC0FC
:102CB00090911903992309F461C009E110E098018A
:102CC000281B310945E0429FC001439F900D11240C
:102CD0006AE070E00E946333BC01CE0143960E941B
:102CE000F51580910901B801681B710977FF02C0D1
:102CF0006F5F7F4F75956795CE0107960E94F5151A
:102D0000BE01695F7F4FCE010D960E942D16CE0148
:102D10000D960E949E15BE016D5E7F4F0E946B1541
:102D2000BC01CE0101960E942D16CE010D960E9487
:102D30008713CE0107960E948713CE0143960E9407
:102D4000871341E06AE087EF93E00E94801180E8FA
:102D500091E00E941414CE0101960E94830ACE01D4
:102D600001960E94871368960FB6F894DEBF0FBED7
:102D7000CDBFDF91CF911F910F91089590911D03C9
:102D8000911121C0803151F441E064E187EF93E07B
:102D90000E94801183E891E00E94141441E06AE0EF
:102DA00087EF93E00E94801180E891E00E94141464
:102DB0009091090129E130E0A901491B5109CA019B
:102DC0000E94E413D0CF853151F441E069E387EFED
:102DD00093E00E94801184E891E00E94141441E085
:102DE00069E187EF93E00E94801180E891E00E9402
:102DF00014142091090189E190E0821B910924E1DA
:102E0000AC01249FC001259F900D1124D9CF809142
:102E10001D0341E0811112C06AE087EF93E00E9438
:102E2000801184E891E00E9414146091090170E01F
:102E300090E080E04AE00E949E1395CF69E187EF21
:102E400093E00E94801182E891E00E94141441E016
:102E50006DE287EF93E00E948011E7CF0F931F93FD
:102E6000CF93DF93CDB7DEB768970FB6F894DEBF88
:102E70000FBECDBF80910901882309F45EC09091F7
:102E80001903992309F464C025E0829FC00111242D
:102E90006AE070E00E946333BC01CE0143960E9459
:102EA000F5156091090170E075956795CE010D9655
:102EB0000E94F51518861F821A8619861C861B86A5
:102EC0008BE289831A828E010F5F1F4FF8010190F8
:102ED0000020E9F73197AF01401B510BB801CE013B
:102EE00007960E94D415BE01635F7F4FCE010796FF
:102EF0000E946B150E949E15BE016D5E7F4F0E9461
:102F00006B15BC01C8010E942D16CE0107960E94C8
:102F10008713CE010D960E948713CE0143960E941F
:102F2000871341E06AE087EF93E00E948011C801B7
:102F30000E94830AC8010E94871368960FB6F8940E
:102F4000DEBF0FBECDBFDF91CF911F910F910895CE
:102F500080911D0341E0811112C06AE087EF93E088
:102F60000E94801186E891E00E941414609109018A
:102F700070E090E080E04AE00E949E13DECF69E1BD
:102F800087EF93E00E94801186E891E00E9414147C
:102F90008091090124E1829FC00111240E94E41361
:102FA000CCCF0C948831FF920F931F93CF93DF9374
:102FB000EC01F62E08811981C8010E948031F816B3
:102FC00021F06F2DC8010E948831CE01DF91CF9191
:102FD0001F910F91FF9008952F923F924F925F9211
:102FE0006F927F928F929F92AF92BF92CF92DF9219
:102FF000EF92FF920F931F93CF93DF9300D000D0F7
:10300000CDB7DEB71C013B010E94390A7C018091DB
:10301000CD039091CE03281639060CF0BCC08090E9
:10302000CB039090CC032FEF221A320A220C331CD0
:10303000220C331CF401E20DF31D4080518034E07A
:10304000231A3108820C931CF401A080B180C201C4
:103050008A199B098E199F0904970CF49CC0028160
:1030600013810F3F100729F487010A0D1B1D015022
:103070001109680123E0C21AD1087C826B820C1509
:103080001D050CF488C0C6010E94E014EB81FC8190
:103090009191FC83EB83FFEFCF1ADF0A891779F355
:1030A000C80105960F5F1F4F481659064CF4B7012B
:1030B000C5010E94E214F401008111810E0D1F1D53
:1030C00017FD69C05301F4E0AF0EB11C6801C618CA
:1030D000D708C601860D971D9A838983F3016191F4
:1030E0003F01CE0101960E94D3176A147B0489F731
:1030F0008091CB039091CC03280E391EC801039612
:10310000F1019383828380819181E80EF91E0E196B
:103110001F09780117FF03C0F7E0EF0EF11C83E0F1
:10312000F594E7948A95E1F78E2D880F880F880F24
:10313000081B94E0892E912C6FEF27E0C22ED12C32
:10314000AA24A394B12CC601801B9109950102C049
:10315000220F331F8A95E2F7C901809568230F5F1C
:10316000083060F0F101808191818E0D9F1D0E94D9
:103170000515FFEFEF1AFF0A6FEF00E021E0821A5A
:10318000910809F76F3F39F0F101808191818E0D2F
:103190009F1D0E9405150F900F900F900F90DF91CB
:1031A000CF911F910F91FF90EF90DF90CF90BF9044
:1031B000AF909F908F907F906F905F904F903F90D7
:1031C0002F9008950F931F93CF93DF9300D0CDB727
:1031D000DEB78B019A838983FB016081CE01019662
:1031E0000E94D317C8010F900F90DF91CF911F91CC
:1031F0000F9108952F923F924F925F926F927F921C
:103200008F929F92AF92BF92CF92DF92EF92FF92F6
:103210000F931F93CF93DF9300D000D01F92CDB7B1
:10322000DEB710921601109215011092140161E0A0
:1032300082E00E94110C61E085E00E94110C61E0C7
:1032400082E00E94E30B80910F0181508A3018F0D8
:1032500084E080930F018091E7039091E80397FD4C
:1032600008C061E00E94110C60E08091E7030E94B9
:10327000E30B81E08093E20362E370E080E090E0A2
:103280000E94250F61E085E00E94E30B61E089E088
:103290000E94110C61E083E00E94110C62E080E169
:1032A0000E94110C0E94461082E090E09093CE03A1
:1032B0008093CD038CE090E00E948C33FC019093CE
:1032C000CC038093CB0381E090E09183808382EEF6
:1032D00091E09583848383EC93E09187808790E0ED
:1032E00080E00E94E0148D831A82198263E0CE018F
:1032F00001960E94D317F12CE12CD12CC12C009106
:10330000CB031091CC030E0D1F1D8091CD03909126
:10331000CE03C816D9060CF087C0C6010E94390A30
:103320001C012D81233031F0BC01F8018081918195
:103330000E94E2148091CB039091CC039C012E0D4E
:103340003F1D3C832B83F901A080B1802A0C3B1CDC
:103350002101F1E04F1A5108320145018FEF0FEFC3
:103360001FEF68147904DCF0830108191909159519
:103370000795080D191DC8010E94E0149FEF980FD2
:103380009E3FC8F0811105C048012FEF821A920AB2
:10339000E8CF380131E0631A71088FEFE2CF811175
:1033A00017C0041515053CF40F5F1F4FC8010E949C
:1033B000E0148823B1F3C8010E94E01427E030E054
:1033C00091E0482F4923A1F0990F21503109F9CFFD
:1033D0000A151B053CF001501109C8010E94E014B8
:1033E0008F3FB1F30415150534F70F5F1F4FE3CF7F
:1033F0000A191B0993E0000F111F9A95E1F7020FBC
:10340000131F0F3F100769F0020D131DEB81FC81A4
:1034100013830283FFEFCF1ADF0A24E0E20EF11CD0
:103420006ECF0FEF1FEFF2CF8FEF9FEFF801938377
:1034300082836BE173E08CEF93E00E9437158DEF90
:1034400093E00E94803180931E038EEF93E00E94F0
:10345000803180931F031982BE016F5F7F4F8BEF16
:1034600093E00E94E21864EA72E08BEF93E00E941E
:10347000371560E273E090E080E00E94A81480912C
:10348000200390912103A0912203B0912303019680
:10349000A11DB11D8093200390932103A0932203CB
:1034A000B09323038091CD039091CE031816190693
:1034B00034F460E273E090E080E00E94EC1764E294
:1034C00073E081E090E00E94A8148FEF93E00E94E7
:1034D000E0148E3141F08851823028F069E18FEF9D
:1034E00093E00E94D1178CEF93E00E94E0148230A9
:1034F00028F060E08CEF93E00E94D1170E94BF0B90
:10350000892B89F48FEF93E00E94E0146EE18931FA
:1035100031F068E18E3119F0883129F469E18FEFDB
:1035200093E00E94D11767E173E08FEF93E00E9470
:103530002D156BE273E089EF93E00E942D158091C9
:103540002B03853010F010922B0364E170E080E0D3
:1035500090E00E94250FF894809168008860809325
:10356000680080917300886080937300789461E0B4
:103570008AE00E94110C60E08AE00E94E30B6AE09E
:1035800070E080E090E00E94250F61E08AE00E94F8
:10359000E30B6AE070E080E090E00E94250F87E195
:1035A0008093090486E180930A0461E087E10E9428
:1035B000110C61E080910A040E94110C1FB7F8946D
:1035C0008091A102811127C0EAE3F3E18491E6E151
:1035D000F3E19491E82FF0E0EE0FFF1FED51FF4F64
:1035E000A591B491EC91E92321F461E08AE00E9475
:1035F000E30B61E08AE00E94110C8CB580618CBD08
:103600008CB580648CBD61E08DE00E94110C61E09E
:103610008BE00E94110C8091A1028F5F8093A10228
:103620001FBF1092FB031092FC03EDECF0E0C5907D
:10363000D490EFECF0E0F490E0EDF0E0E491E09372
:10364000FD03E1EDF0E0E491E093FE03E2EDF0E054
:10365000E491E093FF0310E000E00F1558F4F80147
:10366000EC0DFD1D649187EF93E00E9453110F5FF5
:103670001F4FF3CF87EF93E00E9458136BED87EF56
:1036800093E00E94531160E787EF93E00E9453118B
:1036900061E887EF93E00E9453116FEF87EF93E0AB
:1036A0000E94531162E370E080E090E00E94250FD9
:1036B00086E79BE00E948A0F81E080931701809348
:1036C00003011092D4021092D3021092D2021092EF
:1036D000CE021092D1020E94570F6093780470932B
:1036E000790480937A0490937B041092D002109214
:1036F000CF0280917A008F7D80937A0087E8809353
:103700007A0061E087E00E94110C61E087E00E948E
:10371000E30BF894109290008AE08093910082E08D
:103720008093710080911703883151F481EC92EA03
:1037300090939900809398009093A3028093A202A3
:1037400080911703893151F48FE39CE9909399009C
:10375000809398009093A3028093A2028091170314
:103760008E3151F484E392E890939900809398000D
:103770009093A3028093A202789482E090E09093C9
:103780000B0180930A011092810081E08093100167
:103790000F900F900F900F900F90DF91CF911F918E
:1037A0000F91FF90EF90DF90CF90BF90AF909F90E0
:1037B0008F907F906F905F904F903F902F900895E3
:1037C0000F931F93CF9380919702882391F01092CB
:1037D0009702109296021092950210921C030E947A
:1037E0002D0E6093910270939202809393029093B6
:1037F00094028091090181115AC080919602811131
:1038000028C080911B03811109C080911D03811183
:1038100005C067EA87EF93E00E94531180919502FB
:10382000811112C081E08093950280911903882351
:1038300009F487C141E06AE287EF93E00E948011BA
:1038400087E991E00E9414140E94471681E080935A
:1038500096020E942D0E00919102109192022091E9
:10386000930230919402AB01BC01401B510B620BDF
:10387000730B80910C0190910D01092E000CAA0B85
:10388000BB0B481759076A077B0788F00E942D0E6B
:1038900060939102709392028093930290939402AA
:1038A0000E94191466EA87EF93E00E9453118091F9
:1038B0000901813061F490919602911108C08093C2
:1038C00096020E9428140E944E140E942E17809186
:1038D000090181508C3090F580919602811105C0CC
:1038E00081E0809396020E942E170E942D0E009177
:1038F0009102109192022091930230919402AB01B7
:10390000BC01401B510B620B730B80910C01909119
:103910000D01092E000CAA0BBB0B481759076A07AB
:103920007B0760F00E942D0E6093910270939202CB
:1039300080939302909394020E941914809109013C
:103940008C3009F055C080911803882309F450C0C9
:103950008091900281114CC043E06EE187EF93E0CB
:103960000E94801187EF93E00E94C7118EE891E0DA
:103970000E94141480918A02811117C00E94CF2FD7
:1039800023E130E040E050E00E9496316F5F7F4FCE
:103990008F4F9F4F60938C0270938D0280938E02A5
:1039A00090938F0281E080938A0280910A01909126
:1039B0000B01909308018093070180918C029091F4
:1039C0008D02880F991F90930B0180930A0181E06B
:1039D0008093900290910901292F30E09C5040E0A3
:1039E00050E0BA019D3008F0B5C0C9010E94D0096D
:1039F000809109018D3009F061C0809118038823FE
:103A000081F082E090E090930B0180930A0143E003
:103A100060E087EF93E00E94801187EF93E00E94BF
:103A2000C71180919602811111C081E080939602A6
:103A300010921C0345E066E487EF93E00E9480113A
:103A400087EF93E00E94C7110E943A140E94581019
:103A50002AE930E0DC010E948533653D7E4F8F4FBF
:103A60009F4F0CF47DC00E9458102AE930E0DC0121
:103A70000E948533643A754B810591050CF073C043
:103A80000E9458102AE930E0DC010E9485332CE2C4
:103A900031E040E050E00E9496312C593F4F4F4FAB
:103AA0005F4F30930101209300010E9458108B3822
:103AB00092400CF45BC081E080938B0280910901FD
:103AC0008E3011F4109290028D508C30B0F58091B0
:103AD0009602811107C0C1E0C09396020E9447166A
:103AE000C09396020E942D0E0091910210919202B5
:103AF0002091930230919402AB01BC01401B510B09
:103B0000620B730B80910C0190910D01092E000C3A
:103B1000AA0BBB0B481759076A077B0760F00E9486
:103B20002D0E609391027093920280939302909372
:103B300094020E94191410928A02CF911F910F9142
:103B4000089545E066E487EF93E00E94801188E8DD
:103B500091E078CEC9010E94D0090E94520E48CF50
:103B600024E630E09ECF2EEF30E09BCF10928B0208
:103B7000A5CF1F920F920FB60F9211242F933F9350
:103B80004F935F936F937F938F939F93AF93BF9365
:103B9000EF93FF938091C5029091C602A091C70256
:103BA000B091C802892B8A2B8B2BD1F19091C40242
:103BB000E091C202F091C3028081892780838091C5
:103BC000C5029091C602A091C702B091C802181612
:103BD00019061A061B069CF48091C5029091C60234
:103BE000A091C702B091C8020197A109B1098093C1
:103BF000C5029093C602A093C702B093C802FF917A
:103C0000EF91BF91AF919F918F917F916F915F9154
:103C10004F913F912F910F900FBE0F901F901895CD
:103C200080910201EFEEF0E0E4919FEF90930201AA
:103C3000E230E1F040F4EE2381F0E13089F060E021
:103C40000E94E30BDCCFE33011F1E430C1F7909137
:103C500072009D7F90937200F2CF10926E00EFCFB2
:103C600090916F009D7F90936F00E9CF90917000CD
:103C70009D7F9093700091E09093B0009091B1007F
:103C8000987F94609093B1001092B300D8CF909138
:103C900071009D7F90937100D2CF1F920F920FB64B
:103CA0000F9211242F933F934F935F936F937F93C2
:103CB0008F939F93AF93BF93EF93FF938EE293E025
:103CC0000E94D30AFF91EF91BF91AF919F918F9185
:103CD0007F916F915F914F913F912F910F900FBE08
:103CE0000F901F9018951F920F920FB60F921124EC
:103CF0002F938F939F93EF93FF93E0913E03F09167
:103D00003F038081E0914403F091450382FD1BC095
:103D10009081809147038F5F8F73209148038217B2
:103D200041F0E0914703F0E0E25DFC4F958F809316
:103D30004703FF91EF919F918F912F910F900FBEAD
:103D40000F901F9018958081F4CF1F920F920FB69D
:103D50000F9211242F933F938F939F93AF93BF9311
:103D60008091A6029091A702A091A802B091A90209
:103D70003091A50223E0230F2D3758F50196A11DA0
:103D8000B11D2093A5028093A6029093A702A09351
:103D9000A802B093A9028091AA029091AB02A091CF
:103DA000AC02B091AD020196A11DB11D8093AA0293
:103DB0009093AB02A093AC02B093AD02BF91AF91D0
:103DC0009F918F913F912F910F900FBE0F901F9059
:103DD000189526E8230F0296A11DB11DD2CF1F9280
:103DE0000F920FB60F9211242F933F934F935F932F
:103DF0006F938F939F93AF93BF93EF93FF938091B4
:103E00000401882309F46DC080916F02882309F4AE
:103E100095C0809179008455990B90936E028093A0
:103E20006D0220916D0230916E0240910F01429F10
:103E3000C001439F900D112490936E0280936D02F8
:103E40008091040390910503A0910603B0910703AC
:103E500040916B0250916C02480F591F50936C02B5
:103E600040936B0220916D0230916E0257FF02C0A9
:103E70002095309580916D0290916E0240E4450F3F
:103E800047FF02C08095909540919E0250919F02FD
:103E900060919A02E0919E02F0919F02062E02C06C
:103EA000559547950A94E2F7241B350B2E0F3F1FBB
:103EB00030939F0220939E0220919C0230919D029C
:103EC00040919C0250919D0202C0359527956A95BC
:103ED000E2F7821B930B840F951F90939D028093B2
:103EE0009C028091FC028823C9F090917800809117
:103EF00079008927982789279093E4028093E30229
:103F000081E0809399028091E3029091E4028E3FD8
:103F1000934024F01092E4021092E302FF91EF919B
:103F2000BF91AF919F918F916F915F914F913F9111
:103F30002F910F900FBE0F901F90189580917900D0
:103F40008058990B79CF1F920F920FB60F921124C0
:103F50008F939F9380916F0491E0892780936F04E2
:103F60009F918F910F900FBE0F901F9018951F92E9
:103F70000F920FB60F921124CF92DF92EF92FF9221
:103F80000F931F932F933F934F935F936F937F9361
:103F90008F939F93AF93BF93EF93FF938091E6022C
:103FA0009091E70201969093E7028093E602809158
:103FB000690290916A02019690936A028093690265
:103FC0002091E6023091E70280910A0190910B0165
:103FD0002817390708F42EC1809109011092E702D1
:103FE0001092E60291E0909397028F5F893108F07A
:103FF0004AC18093090180910901811138C085B1BE
:1040000091E0892785B91092680210926702809129
:104010001401882309F10E94570F6093F3027093F3
:10402000F4028093F5029093F60280911B0328E03E
:1040300030E040E050E060EA7AE0811127C189E099
:104040000E944D0C0E942D0E6093630270936402D7
:10405000809365029093660280911501882339F060
:1040600080911D03882309F413C10E94B11080912F
:1040700009018C3011F580911803811143C18091A1
:104080000A0190910B0190930801809307018091A0
:1040900017038E3151F480911D03811117C18CE0FB
:1040A00090E090930B0180930A018091170388316F
:1040B00009F028C18DE080930901809109018D30BC
:1040C00009F061C0209107013091080130930B0184
:1040D00020930A01909117039931D9F49091CD0260
:1040E00020911E0330911F034091A2025091A30220
:1040F000992309F4EEC037FF02C021583F4F220F29
:10410000232F221F330B240F351F30939900209348
:104110009800909117039E31C9F420911E033091AD
:104120001F034091A2025091A30237FF02C0295FF2
:104130003F4FA3E035952795AA95E1F74C5E5F4F79
:10414000240F351F30939900209398009091170306
:104150009831C9F420911E0330911F034091A202AF
:104160005091A30237FF02C0295F3F4FF3E035951E
:104170002795FA95E1F7405E5F4F240F351F309386
:1041800099002093980090911601992309F452C048
:104190009FEF980F9C30A0F491E090932A039091A8
:1041A0008B02992309F49FC00E94B1100E94570FFF
:1041B00060937C0470937D0480937E0490937F04CD
:1041C000809109018C3039F4909117039E3119F4D4
:1041D00091E09093620293EF980F9D3058F54091D3
:1041E0000001C42ED12CF12CE12CB6015527442717
:1041F00090E020918B02222361F03E2D2D2D1C2D6D
:104200000027402B512B622B732B4C295D296E29E3
:104210007F290E94D0090E94520E81E080932A03D8
:104220000E94570F60937C0470937D0480937E04FA
:1042300090937F04809109018D3071F48091E602A2
:104240009091E702019741F48091A2029091A3021C
:104250009093990080939800FF91EF91BF91AF9157
:104260009F918F917F916F915F914F913F912F918E
:104270001F910F91FF90EF90DF90CF900F900FBEA6
:104280000F901F90189510920901B5CE83E0D8CEFB
:1042900081E080932A0310E000E044E654E664E6FF
:1042A00070E0C8010E94D0090F5F1F4F0A3111054D
:1042B000A1F70E94520E0E94570F60937C047093E6
:1042C0007D0480937E0490937F04D1CE86E090E0BD
:1042D000E8CE37FF02C0295F3F4FB3E03595279501
:1042E000BA95E1F710CF4091000150E070E060E036
:1042F000762F652F542F442790E00E94D0090E940A
:10430000520E54CF8CE03FCFFC01118210821382F9
:10431000128215821482FB0101900020E9F7319787
:10432000AF01461B570B0C94D41510923103109219
:10433000300388EE93E0A0E0B0E0809332039093E6
:104340003303A0933403B093350382E391E0909359
:104350002F0380932E0385EC90E090933B03809392
:104360003A0384EC90E090933D0380933C0380EC0F
:1043700090E090933F0380933E0381EC90E0909314
:1043800041038093400382EC90E090934303809339
:10439000420386EC90E0909345038093440310928F
:1043A0004703109248031092490310924A03109257
:1043B000CE031092CD03AFECB3E0EEE0F0E091E27B
:1043C0009093570084918D933196E831F105C1F7B0
:1043D00064E971E082E994E00E9484216BE671E077
:1043E0008CE894E00E9484216BE671E086E894E01A
:1043F0000E9484216BE671E080E894E00E948421B1
:104400000E94570F60937C0470937D0480937E0418
:1044100090937F040E94570F6093780470937904FF
:1044200080937A0490937B040E94570F60937404E6
:104430007093750480937604909377040E94570FCD
:104440000E94570F609370047093710480937204FC
:104450009093730480916F0480936E040E94570FB1
:104460008AE080930C0410920D0410920E041092B6
:104470000B04EBE5F4E080E081938F5F8A30E1F795
:104480000E94570F0E94570F1092FA031092F903DF
:104490001092030410920404109206041092050472
:1044A0001092070481E08093080424E431E0309303
:1044B000F8032093F7031092E2031092E90310929D
:1044C000F0031092F1031092F2031092F303809321
:1044D000EF038093EC031092ED0392E09093EE03D0
:1044E0008093E1038BE490E09093E6038093E503EF
:1044F0000E948C339093EB038093EA03009709F4B6
:1045000050C02BE4FC0111922A95E9F789E190E073
:104510009093E4038093E3038FE090E09093E803AB
:104520008093E7038091E203882341F061E08FE00C
:104530000E94110C60E08FE00E94E30BEFE3F3E1D7
:10454000E491F0E0EE0FFF1FEC5DFC4E859194913D
:104550009093F5038093F403EBE1F3E1E491E093AE
:10456000F6030E94570F6093DD037093DE03809380
:10457000DF039093E0030E94570F6093D903709379
:10458000DA038093DB039093DC030E94570F0E94B1
:10459000570F0E94570F0E94570F0E94570F0C94FD
:1045A000570F1092E6031092E5031092E403109265
:1045B000E303B2CFCF93DF9300D000D000D0CDB7CC
:1045C000DEB7789484B5826084BD84B5816084BD93
:1045D00085B5826085BD85B5816085BD80916E00A1
:1045E000816080936E0010928100809181008260D2
:1045F000809381008091810081608093810080910F
:1046000080008160809380008091B10084608093FD
:10461000B1008091B00081608093B00080919100E2
:1046200082608093910080919100816080939100DD
:10463000809190008160809390008091A1008260C1
:104640008093A1008091A10081608093A10080915E
:10465000A00081608093A00080917A0084608093A4
:104660007A0080917A00826080937A0080917A004B
:10467000816080937A0080917A00806880937A00CC
:104680001092C100209A17BE0E94FA1890916F04F0
:1046900080916E04981749F080916F0480936E04A6
:1046A0000E94570F81E08093C9028091C90288233C
:1046B00059F00E94570F0E94570F1092C90281E0D3
:1046C000639B90C280932C0380912D03882309F46F
:1046D0007FC010922D0364E170E080E090E00E94C2
:1046E000250F80911A03811148C010921601109273
:1046F0001501809168008860809368008091730044
:1047000088608093730060E085E00E94E30B64E1C1
:1047100070E080E090E00E94250F60E082E00E945F
:10472000E30B64E170E080E090E00E94250F83B726
:10473000817F846083BFF89410927A008091640036
:104740008FEF80936400809165008D638093650096
:1047500083B7816083BF80E685BF80E485BF78949E
:10476000889583B78E7F83BF809164001092640028
:1047700080916500827C8093650080911A03882374
:1047800039F18091CA02811123C010921601109252
:1047900015011092140184E080936900E99A60E0A9
:1047A00085E00E94E30B64E170E080E090E00E940D
:1047B000250F60E082E00E94E30B81E08093CA0253
:1047C0008093CD028093CB021092CC020E94570FAF
:1047D00080912C038823D9F010922C031092CD02E3
:1047E00081E08093CC021092CB02809168008860B7
:1047F00080936800809173008860809373001092AA
:104800001601109215011092CA020E94FA188091A6
:104810001701882309F475C280910301882309F4E4
:1048200071C08091D402811149C00E94570F6093DA
:10483000700470937104809372049093730487EFF3
:1048400093E00E94581380EF90E00E948A0F40E0AE
:1048500060E087EF93E00E94801189E991E00E9477
:10486000141486E79BE00E948A0F45E060E087EF22
:1048700093E00E9480116091170370E090E080E067
:104880004AE00E949E1345E067E187EF93E00E94B3
:10489000801181EA91E00E94141445E066E487EFFC
:1048A00093E00E94801185EA91E00E94141482E94D
:1048B00094E00E94830A81E08093D4020E94570F03
:1048C000009170041091710420917204309173046E
:1048D000601B710B820B930B6C3D7540810591053C
:1048E00088F00E94570F6093700470937104809356
:1048F0007204909373041092D4021092030181E029
:104900008093D3028091D302882309F497C08091C9
:10491000D402811169C00E94570F60937004709394
:104920007104809372049093730487EF93E00E9464
:10493000581386E79BE00E948A0FFF24F394F092BD
:1049400000040E949B0F8C016091FD0370E0681BC6
:10495000790B7695679540E087EF93E00E94801190
:104960006BE671E087EF93E00E9478146091FD039D
:1049700070E0601B710B7695679542E087EF93E0DE
:104980000E9480116BE671E087EF93E00E9478143B
:104990006091FD0370E0601B710B7695679544E0B4
:1049A00087EF93E00E9480116BE671E087EF93E060
:1049B0000E9478146091FD0370E0601B710B769586
:1049C000679546E087EF93E00E9480116BE671E007
:1049D00087EF93E00E947814F092000486E79BE052
:1049E0000E948A0FF092D4020E94570F0091700427
:1049F000109171042091720430917304601B710B4B
:104A0000820B930B6433784081059105B8F00E94C6
:104A1000570F6093700470937104809372049093A5
:104A200073041092D402109203011092D30281E019
:104A30008093D20287EF93E00E9458138091D202B4
:104A4000882309F45BC18091D40281110DC081E0FB
:104A50008093D4020E94570F609370047093710486
:104A600080937204909373049AE0F92E10E000E0B2
:104A700085E10E941B0E080F191FFA94F110F8CF60
:104A8000B801110F880B990B0E94633020E030E0D1
:104A900040E251E40E949D3220E030E040EA50E4E0
:104AA0000E94C23020E030E040E85AE30E94C23069
:104AB0009B01AC010E94313220E030E048EC52E42E
:104AC0000E94C2300E940F334B015C0148E5841AFA
:104AD00042E0940AA108B108AAE1B0E0A50194015E
:104AE0000E94B5312CE231E040E050E00E94963166
:104AF000CA01B9010E9463306B017C018091D1022F
:104B0000811141C081E08093D10241E069E187EFEA
:104B100093E00E94801180EF90E00E948A0FA4E64B
:104B2000B0E0A50194010E94B5312CE231E040E0F3
:104B300050E00E949631C9012536310514F084E613
:104B400090E097FF02C090E080E00E94E41387EAC3
:104B500091E00E94141420E030E0A901C701B601E1
:104B60000E94453345E018160CF03FC069E187EF1D
:104B700093E00E94801186E79BE00E948A0F89EAF9
:104B800091E00E94141420E030E0A901C701B601B1
:104B90000E945C3018160CF441C00E94570F80919F
:104BA000CE0281113BC00E94570F81E08093CE025C
:104BB0006FEB71E08EE293E00E947814109209018D
:104BC000109109011A3120F540E050E06AE070E0F0
:104BD000812F90E00E94D0090E94520E1F5F109317
:104BE0000901EECF80932D036FCD60E087EF93E056
:104BF0000E94801186E79BE00E948A0F10920004B9
:104C000081EB91E00E94141481E080930004BBCFFB
:104C100068EE73E080E090E00E94250F0E94570F3D
:104C2000009178041091790420917A0430917B04EA
:104C3000601B710B820B930B6F3071058105910521
:104C400090F10E94570F60937804709379048093D9
:104C50007A0490937B040091CF021091D002B801A6
:104C6000012E000C880B990B0E9463309B01AC0154
:104C7000C701B6010E94453344E150E060E070E0B6
:104C800018161CF040E050E0BA01C8010E94D0099B
:104C90000E94520E0A31110534F40F5F1F4F10931A
:104CA000D0020093CF020E94570F00917004109120
:104CB00071042091720430917304601B710B820B9C
:104CC000930B603D774081059105C0F00E94570F1E
:104CD00060937004709371048093720490937304D2
:104CE0001092D402109203011092D3021092D202B9
:104CF0001092170187EF93E00E9458130E94620BF5
:104D0000C5CC0E94BF0B9093290380932803009782
:104D100009F062C18091110190911201019791F403
:104D20000E94570F6B3071058105910558F00E9464
:104D3000570F2B013C018091280390912903892B67
:104D400009F02BC10E94570F64197509860997094C
:104D5000653F71408105910508F41FC180911601DE
:104D6000811110921601109215011092140187EF13
:104D700093E00E9458130E94461086E79BE00E9431
:104D80008A0F1092000440E060E087EF93E00E94F9
:104D9000801162E271E087EF93E00E94781486EC64
:104DA00091E00E9414148CE894E00E94830A69E662
:104DB00071E087EF93E00E948F1386E894E00E94F1
:104DC000830A69E671E087EF93E00E948F1380E821
:104DD00094E00E94830A60ED77E080E090E00E941A
:104DE000250F86E79BE00E948A0F87EF93E00E94E1
:104DF000581340E060E087EF93E00E94801189EC57
:104E000091E00E9414146091240370912503809115
:104E10002603909127034AE00E949E136EEC71E0F6
:104E200087EF93E00E94781482ED91E00E941414C1
:104E300060912003709121038091220390912303BC
:104E40004AE00E949E1369E671E087EF93E00E94BA
:104E50008F1388ED91E00E94141480911E039091AD
:104E60001F030E94E4138FED91E00E9414146091DF
:104E70000F0170E090E080E04AE00E949E1360ED38
:104E800077E080E090E00E94250F80912B03815015
:104E900080932B0387EF93E00E94581311E0109347
:104EA000000410921D0310921C030E944414809170
:104EB000280390912903892B09F06FC00E94570F96
:104EC000641975098609970961377741810591054C
:104ED00008F463C080911B038111AAC01983BE012D
:104EE0006F5F7F4F8CEF93E00E94E21822E330E087
:104EF00040E050E064EF71E089E00E944D0C1092B8
:104F0000160187EF93E00E9458130E94461041E07B
:104F10006AE087EF93E00E94801180911B0342E0DA
:104F20006AE0882309F486C087EF93E00E9480112D
:104F300082EE91E00E94141480E999E00E948A0FA9
:104F400046E060E087EF93E00E9480110FEC13E0F1
:104F500089EDE82E83E0F82EF80181918F018031F0
:104F600020F487E991E00E941414F80131976081E0
:104F700070E090E080E040E10E949E13E016F106B0
:104F800059F786E79BE00E948A0F60ED77E080E0AA
:104F900090E00E94250F0C940000809128039091CE
:104FA00029039093120180931101E0912B03ED30BE
:104FB00008F0A4CEF0E0E152F84D0C9477332128AC
:104FC000CC2809298129C429472F4F2F4F2F4F2F34
:104FD0004F2F4F2F562F5C2F0197F9F6809111011B
:104FE00090911201892BC9F60E94570F6419750917
:104FF000860997096B3071058105910570F281E092
:105000008093100180912B038F5F80932B03853059
:1050100010F010922B030E94570F89EF93E09A83B0
:10502000898360912B03CE0101960E94D31783CE12
:10503000198255CF87EF93E00E9480118CEE91E0AA
:1050400079CF809110018823E9F11092810080913D
:105050007A008F7D80937A0087E880937A0066EAF1
:1050600087EF93E00E94531187EF93E00E9458135B
:105070000E94441481E0809316018093150180936F
:10508000140180930E0110921D0310921A031092C6
:1050900019031092180388EA91E690930D0180930A
:1050A0000C0182E18093130143E060E087EF93E01D
:1050B0000E94801187EF93E00E94C7110E944E1456
:1050C000109210010E94E01B80911601811104C012
:1050D00080911501882311F180912A038823F1F032
:1050E0000E94570F00917C0410917D0420917E0452
:1050F00030917F04AB01BC01401B510B620B730B61
:105100008091130190E0B0E0A0E0481759076A07CA
:105110007B0720F010922A030E9446100E94570F2E
:1051200000917404109175042091760430917704F5
:10513000601B710B820B930B60367A4E81059105D3
:1051400008F4DCCD8091240390912503A0912603DF
:10515000B09127030196A11DB11D80932403909364
:105160002503A0932603B09327038091CD0390914C
:10517000CE03029734F064E273E081E090E00E9495
:10518000EC170E94570F609374047093750480931A
:10519000760490937704B2CD80911001882309F4AE
:1051A00091CF1092810011E0109316011093150118
:1051B0001093140166EA87EF93E00E9453110E9456
:1051C000441481E090E090930B0180930A018AE0FF
:1051D0008093130110920E0110931D031092190376
:1051E0001092180310921A0341E061E087EF93E0F8
:1051F0000E94801187EF93E00E94C71143E062E1B3
:1052000087EF93E00E94801187EF91E00E941414D1
:1052100057CF80911001882309F454CF1092810058
:1052200011E010931601109315011093140166EA12
:1052300087EF93E00E9453110E94441410920E01D4
:1052400043E060E087EF93E00E94801187EF93E0F6
:105250000E94C71110921C0380E197E290930D0108
:1052600080930C0182E18093130110920E01109241
:105270001D03109319031092180310921A038091C2
:1052800017038E3131F42EE130E030930B0120937F
:105290000A0180911703883171F588E190E09093BD
:1052A0000B0180930A0141E061E087EF93E00E94E7
:1052B000801187EF93E00E94C71143E063E287EF1C
:1052C00093E00E94801180E092E00E94141445E077
:1052D00065E087EF93E00E94801185E092E00E94F4
:1052E00014140E944E14809109018D508C3030F4BA
:1052F0000E943A14E5CE89E190E0D1CF0E942814B3
:10530000DFCE80911001882309F4DCCE1092810059
:1053100011E010931601109315011093140166EA21
:1053200087EF93E00E9453110E94441443E060E031
:1053300087EF93E00E94801187EF93E00E94C711EE
:1053400088EA91E690930D0180930C0182E18093AD
:10535000130110920E0110921D0310921903109266
:105360001A031093180342E050E050930B0140934E
:105370000A0141E061E087EF93E00E94801187EF2E
:1053800093E00E94C7119CCE109216011092150155
:105390001092140180911001882349F1109281002C
:1053A0001092100166EA87EF93E00E9453110E9469
:1053B0008C140E9446100E94CA101092180310927A
:1053C0001A030E94570F6093D9037093DA038093F6
:1053D000DB039093DC030E94001182E090E0909345
:1053E0000B0180930A0190930801809307010E94AA
:1053F000570F0091D9031091DA032091DB0330910C
:10540000DC03601B710B820B930B68357B418105BC
:10541000910520F10E94570F6093D9037093DA032E
:105420008093DB039093DC030E9446100E940011DE
:105430000E948C14109216031092150310921403FC
:10544000EEE1F0E0F0930601E09305011092130302
:105450001092120310921103109210038091040114
:10546000882309F4D7C10E94570FC090D702D0906B
:10547000D802E090D902F090DA026C197D098E0909
:105480009F096436710581059105D0F00E94570F80
:105490006C197D098E099F09653873408105910556
:1054A00078F48091D5029091D60220910501309137
:1054B00006018217930724F090930601809305015B
:1054C0000E949E0F9093D6028093D50220911403E0
:1054D000309115038217930720F090931503809362
:1054E00014030E94BE0F8823D9F080910303811119
:1054F00017C081E0809303030E942D0E6093FF028A
:10550000709300038093010390930203109215039C
:10551000109214032EE130E0309306012093050130
:105520000E94570FC090DD03D090DE03E090DF03B0
:10553000F090E0036C197D098E099F09603B74406F
:105540008105910550F010921503109214034EE15D
:1055500050E050930601409305010E94570F6C19CB
:105560007D098E099F09683B7B408105910508F400
:105570005CC00E94570F6093DD037093DE0380933D
:10558000DF039093E00320E030E04AE255E46091CD
:105590000C0370910D0380910E0390910F030E94F4
:1055A0005C308111FDC280E090E0AAEAB5E480930E
:1055B0000C0390930D03A0930E03B0930F0381E0AF
:1055C00080931603209108033091090340910A0348
:1055D00050910B0360910C0370910D0380910E03A9
:1055E00090910F030E949D3220E030E040E857E4A4
:1055F0000E94C2306B017C0120E030E0A9010E94D2
:10560000453320E030E040E05FE387FDD8C2C701CA
:10561000B6010E9431320E940F33609304037093ED
:105620000503809306039093070380910303882367
:1056300009F4CDC00E94570F6093DD037093DE0321
:105640008093DF039093E0030E942D0EC090FF0231
:10565000D0900003E0900103F09002036C197D09E3
:105660008E099F09603A7B4B8D40910508F4AFC0CD
:105670000E94BE0F882309F495C00E94570F009125
:10568000DF021091E0022091E1023091E202601B02
:10569000710B820B930B623371058105910508F440
:1056A00081C00E942D0E9B01AC012C193D094E09B1
:1056B0005F0969017A01C092E902D092EA02E092A0
:1056C000EB02F092EC026093FF0270930003809370
:1056D0000103909302030E94570F6093D7027093C7
:1056E000D8028093D9029093DA024EE150E05093B1
:1056F00006014093050150EFC51A5EE7D50A5EE04A
:10570000E50AF10881EAC81686E8D80681E0E806CD
:10571000F104D0F58091FD029091FE029C012F5F73
:105720003F4F3093FE022093FD020A96209116030C
:1057300040E050E064E670E0222321F040E054E1D4
:1057400064E670E00E94D0090E94520E0E94570F3A
:105750006093D7027093D8028093D9029093DA02B3
:105760000E94570F6093D9037093DA038093DB0391
:105770009093DC030E94570F6093DF027093E00266
:105780008093E1029093E202109203031092F202DE
:105790000E94570F6093F3027093F4028093F50216
:1057A0009093F6020E942D0E0091FF0210910003CB
:1057B0002091010330910203601B710B820B930B4C
:1057C000603E784C8041910510F010920303809167
:1057D000FD029091FE020297ECF01092FE021092F0
:1057E000FD0286E480937C0080917C008F7D809315
:1057F0007C001092040181E08093FC021092FE0272
:105800001092FD021092E9021092EA021092EB024D
:105810001092EC028091FC02882309F4BFC20E941E
:10582000570F0091F3021091F4022091F50230918C
:10583000F602601B710B820B930B6C327140810579
:10584000910598F18091E80281112FC0E4EFF1E019
:10585000F0931103E093100344EF51E060E070E037
:10586000CB010091E3021091E402012E000C220B07
:10587000330B600F711F821F931F4150510989F72D
:1058800024EF31E040E050E00E94FF3130931103FB
:1058900020931003809110039091110381E0809375
:1058A000E80280911003909111030E94F70F882362
:1058B000D9F08091FB02811117C01092130310924E
:1058C00012031092E5028091E3029091E40281E0DC
:1058D0008093FB020E942D0E6093F7027093F802F2
:1058E0008093F9029093FA028091FB02882309F4D5
:1058F000B4C00E942D0EC090F702D090F802E09044
:10590000F902F090FA026C197D098E099F09603A3C
:105910007B4B8D40910508F4A0C00E94F70F8823AF
:1059200009F486C00E942D0E9B01AC012C193D0983
:105930004E095F0969017A01C092E902D092EA0238
:10594000E092EB02F092EC026093F7027093F8029F
:105950008093F9029093FA020E94570F1092E80286
:1059600030EFC31A3EE7D30A3EE0E30AF10841EA0A
:10597000C41646E8D40641E0E406F10408F04AC043
:105980008091FD029091FE0201969093FE02809319
:10599000FD0282309105F9F4F89410929100109272
:1059A000950010929400C19A2AE0209391002091D2
:1059B00071002260209371001092E7021092E602BB
:1059C0001092090190930B0180930A01789485B19C
:1059D00091E0892785B98BB192E089278BB985B190
:1059E00091E0892785B98091FD029091FE0244E6FD
:1059F00050E060E070E00B960E94D0090E94520EC9
:105A00000E94570F6093D9037093DA038093DB03EE
:105A10009093DC031092FB021092F2020E94570F47
:105A20006093F3027093F4028093F5029093F60270
:105A30000E942D0E0091F7021091F8022091F902B8
:105A40003091FA02601B710B820B930B603E784C15
:105A50008041910510F01092FB028091FD0290911F
:105A6000FE0202970CF49AC10E9400118091F0028C
:105A70009091F1029093EF028093EE026091F70211
:105A80007091F8028091F9029091FA020091FF0260
:105A9000109100032091010330910203601B710BF0
:105AA000820B930B20E432E44FE050E00E94FF3180
:105AB00028EE33E040E050E00E94FF31C90130930E
:105AC000F1022093F002255E33402730310518F0B3
:105AD00003970CF079C081E08093ED0267EA87EFCD
