:1000000058C600008AC6000088C6000086C60000E8
:1000100084C6000082C6000080C600007EC60000C4
:100020007CC600007AC6000078C6000076C60000D4
:1000300074C6000072C6000070C600006EC60000E4
:100040000C9438216AC600000C94A8210C948221DB
:1000500064C600000C94F72160C600005EC6000074
:100060005CC600005AC6000058C600000C94C423A9
:1000700054C6000052C6000050C600004EC6000024
:100080004CC600000C94D82348C6000046C60000A9
:1000900044C6000042C6000040C600003EC6000044
:1000A0003CC600003AC600000C94DA2136C60000B7
:1000B00034C60000AED580A83FD300408D14200286
:1000C000A1C8DA1281FFD9F1DB40A4A6AFB40019B0
:1000D00080400000030C0F30333C3FC0C3CCCFF056
:1000E000F3FCFF454550524F4D5F4944454E54493E
:1000F00054593D3000534F555243453D4C454741BF
:10010000435900454550524F4D5F5645523D3100D1
:10011000454550524F4D5F4944454E544954593D11
:100120003100534F555243453D454550524F4D00C8
:1001300000321C242D530A000000000000000000C3
:1001400000000000000000000000000000000000AF
:100150000000000000000000000000001700000088
:10016000000000000000000000000000150000007A
:10017000000008000000001400000000000E000055
:100180000000160000000000000000000000000059
:10019000000000000000000000000000001F1F1F02
:1001A0001F1F1F1F1F1F1F00000000000000000076
:1001B000000000000000000000000000E0F0F0F887
:1001C000F8FCFC7C7C7C7C7CFCFCFCF8F8F0E0C05F
:1001D0000000071F3F7FFFFFFFFFFCFCF8F8F8F867
:1001E000F3F3F3E3E3C3830000F8F8F8F8F8F8F862
:1001F000E1C18183838387CFFFFFFFFFFFFFFF7E86
:1002000000010307070F0F0F0F0F0F0F0F0F0F0F37
:100210000F070703010000000000000000000000BD
:1002200000000000000000000000000000000000CE
:1002300000000000000000000000000000000000BE
:1002400000000000C0F0F8F8FCFCFE7E7E3E3E3E62
:100250007EFEFEFCFCF8F0E01EFFFFFFFFFFFFF359
:10026000C08080008080C0E0E0E0E0E0E0000001CD
:100270000307070F0F0F0F0F0F0F0F0F0F0F0703BE
:10028000030000000000000000000000000000006B
:10029000000000000000007C7C7C7C7C7C7C7CFE80
:1002A000FEFEFEFEFEFEFEFFFFFFFFFFFFFFFF0F55
:1002B0000F0F0F0F0F0F0F000000000000000000D5
:1002C000000000000000000000000000000000002E
:1002D000000000FEFEFEFEFEFEFEF0787C7C7EFE50
:1002E000FEFEFEFCFCF8E0FFFFFFFFFFFFFF00004B
:1002F00000000000FFFFFFFFFFFFFF0F0F0F0F0FBA
:100300000F0F0000000000000F0F0F0F0F0F0F0066
:1003100000000000000000000000000000000000DD
:10032000000000000000E0E0F0F0F8F8F800000045
:10033000007E7E7EFFFFFFFFFFFFFF7E7E7E7E0052
:100340000000FFFFFFFFFFFFFF80808080000000B4
:1003500003070F0F0F0F0F0F0F0F0F00000000000C
:10036000000000000000000000000000000000008D
:10037000000000000000000000000000000000027B
:100380001E7EFEFEFEFEFCF08000000080F8FEFEF9
:10039000FEFEFE3E06000000010F3FFFFFFFFFF8DC
:1003A000E0FCFFFFFFFF3F0700000000C0C08080AF
:1003B000C0C1E7FFFFFFFFFFFF3F07000000000095
:1003C0000000307070F0F0F0F0F07070301000004D
:1003D0000000000000000001900A0F2060020000F1
:1003E000000000000000000000000000000000000D
:1003F00000000000000000000000000000000900F4
:1004000000000000000000000000000000000007E5
:1004100000000000000000000000000000000600D6
:1004200005060600000001000001000006000004AF
:1004300000000605000005000000000000000000AC
:10044000000000C0300C30C000001806020202029A
:10045000020618FC8484848478001E000000020CCC
:10046000104020202020C00C1212120A1EC0202092
:1004700020400E10101008C020202040FE0E10104A
:1004800010081EC020202020C00E1212121212E8E6
:100490001EFE1EC020202020C00E101010100EE0E6
:1004A0004020201E000000E000000000E00E1010C0
:1004B00010081E6080008060000618060060800042
:1004C000806000C638060000000A0F205F000000B0
:1004D000000000000000000000000000000000001C
:1004E0000000000000FEFE000000000000000019F7
:1004F000190000000000001E1E00001E1E0000006B
:100500000000000000000000000030FEFE3030FE61
:10051000FE300000031F1F03031F1F03000070F8BD
:10052000D8FE9898000000000C18187F191F0F00C3
:10053000001CB6A2F6CC60602030000101000E1B4A
:10054000111B0E00000000DC7EE6C6860C808000D9
:10055000070F1C18191F1E1F13000000001E1E008D
:10056000000000000000000000000000000000008B
:10057000E0FC1E02000000000000073F7840000081
:10058000000000021EFCE000000000000040783F78
:10059000070000000000487830FE30784800000076
:1005A00000000001000000000000808080F0F0806A
:1005B000808000000101010F0F0101010000000017
:1005C00000000000000000000000407C3C00000033
:1005D000000000000000000000000000030303030F
:1005E0000303000000000000000000000000000005
:1005F0000000001C1C0000000000000000C0F03CD7
:100600000E02000020381E07010000000000F0FC70
:100610000EC6C60EFCF80000030F1C18181C0F07AE
:100620000000000C06FEFE00000000001818181F55
:100630001F18181800000C06060686C67C38000035
:10064000181C1E1B1918181800000C06C6C6C6C6B2
:10065000FC3800000C18181818190F0F000080C083
:1006600070180EFEFE00000003030303031F1F03A8
:100670000000FE7E666666E6C68000000C1818184C
:10068000181C0F070000F0FCCE6666E6CC80000068
:10069000070F1C18181C0F07000006060606E6FECA
:1006A0003E0E000000101C0F03000000000038FC8C
:1006B000C6C6C6C6FC3800000F0F181818180F0F52
:1006C000000078FCCE8686CEFCF80000000C1919DC
:1006D000191C0F030000000000E0E0000000000013
:1006E0000000001C1C0000000000000000E0E00012
:1006F000000000000000407C3C0000000000808002
:10070000C040606020300000010103020606040CB6
:1007100000006060606060606060000006060606C1
:100720000606060600003020606040C080800000A1
:100730000C0406060203010100000C0686C6667E54
:100740001C00000000001B1B0000000000E0F0384F
:100750009CCCCCDCF8F000071F38736766667727FF
:10076000000000C0FC3E3EFCC0000000181F0F034C
:10077000030F1F180000FEFEC6C6C6C6FC3C0000E4
:100780001F1F181818181F0F0000F0FC0C06060693
:10079000060C0000030F0C181818180C0000FEFEC1
:1007A0000606060CFCF000001F1F1818180C0F039B
:1007B0000000FEFEC6C6C6C6C60600001F1F1818EB
:1007C000181818180000FEFEC6C6C6C6C6060000E9
:1007D0001F1F0000000000000000F0FC0C068686D1
:1007E000868C0000030F0C1819191F0F0000FEFE65
:1007F000C0C0C0C0FEFE00001F1F000000001F1F81
:100800000000000606FEFE06060000000018181F85
:100810001F1818000000000000060606FEFE00007B
:100820000C18181818180F0F0000FEFEE0F0FC0E50
:10083000060200001F1F0000030F1E180000FEFE2E
:1008400000000000000000001F1F181818181818DA
:100850000000FEFE3EF0F03EFEFE00001F1F000105
:1008600001001F1F0000FEFE1EF0C000FEFE000083
:100870001F1F0000031E1F1F0000F0FC0E06060EC7
:10088000FCF00000030F1C18181C0F030000FEFEF4
:10089000C6C6C6C67C7C00001F1F0000000000000A
:1008A0000000F0FC0E06060EFCF00000030F1C1802
:1008B000183C6F070000FEFEC6C6C6C6FC3C000022
:1008C0001F1F000001031F1E1000387CE6C6C6C6AD
:1008D0008C0000000C18181818190F0F00000606DD
:1008E00006FEFE06060600000000001F1F000000B6
:1008F0000000FEFE00000000FEFE0000070F1C18B6
:10090000181C0F07000006FEFC0000FCFE0600009D
:1009100000001F1F1F1F0000001EFEE000F0F0007F
:10092000E0FE1E001F1F1E01011E1F1F0000020E01
:100930003EF8F83E0E020000101C1F03031F1C109F
:1009400000020E3E78E0E0783E0E02000000001F3C
:100950001F0000000000060686C6F67E1E0E000080
:100960001C1E1F1B1818181800000000FEFE0202B3
:100970000000000000007F7F404000000000020EE9
:1009800038E080000000000000000000030E382066
:100990000000000202FEFE00000000000040407F58
:1009A0007F0000000010181C0E060E1C181000001E
:1009B0000000000000000000000000000000000037
:1009C00000000040404040404040404040000001A6
:1009D000030604000000000000000000000000000A
:1009E0000000006030B0B0B0F0E000000E1F1B1936
:1009F000190D1F1F0000FEFE60303070E0C00000C7
:100A00001F1F0C18181C0F070000C0E0703030309A
:100A100030600000070F1C181818180C0000C0E008
:100A200070303060FEFE0000070F1C18180C1F1FEE
:100A30000000C0E0B0B0B0B0E0C00000070F1D196A
:100A40001919190D00003030FCFE36363600000052
:100A500000001F1F000000000000C0E07030306088
:100A6000F0F0000003376E6C6C667F3F0000FEFE06
:100A700060303030F0E000001F1F000000001F1F3A
:100A80000000003030F7F700000000001818181FB1
:100A90001F1818180000003030F7F70000000000A1
:100AA0006060607F3F0000000000FEFE80E070306C
:100AB000100000001F1F0103071E1810000006068B
:100AC000FEFE00000000000000000F1F18181800B4
:100AD0000000F0F030F0E030F0E000001F1F001FD9
:100AE0001F001F1F0000F0F060303030F0E0000009
:100AF0001F1F000000001F1F0000C0E0703030709A
:100B0000E0C00000070F1C18181C0F070000F0F0D1
:100B100060303070E0C000007F7F060C0C0E0703D1
:100B20000000C0E070303060F0F0000003070E0CF1
:100B30000C067F7F000000F0F060303030300000A5
:100B4000001F1F00000000000000E0F0B0B0B0B0D7
:100B5000306000000C191919191B1F0E00003030ED
:100B6000FCFC30303000000000000F1F1818180087
:100B70000000F0F000000000F0F000000F1F181857
:100B8000180C1F1F000030F0E00000E0F030000003
:100B900000010F1E1E0F01000070F00000C0C00019
:100BA00000F07000071F1E03031E1F070000103017
:100BB000F0C0C0F03010000010181E07071E1810FB
:100BC000000010F0F08000F0F03000000060637F63
:100BD0001F0F0100000030303030B0F070300000E6
:100BE000181C1E1B191818180000000000FCFE023B
:100BF000020000000001013E7E40400000000000B5
:100C000000FEFE00000000000000007F7F000000EA
:100C10000000000202FEFC00000000000040407ED8
:100C20003E010100000080C0C0C0808080C0000084
:100C30000100000001010100000000000024002765
:100C4000002A002D00000000002300260029002CAF
:100C5000000A0D0E09000302000004050800000050
:100C60000000000000000000000000000102040875
:100C70001020408001020408102001020408102006
:100C80004080400102040800000000250028002BDD
:100C9000002E0004040404040404040202020202FC
:100CA00002030303030303020203050505059D2553
:100CB000913611241FBECFEFD8E0DEBFCDBF14BEEA
:100CC0000FB6F894A89580916000886180936000C9
:100CD000109260000FBE14E0A0E0B1E0EAE4FFE68D
:100CE00002C005900D92A63DB107D9F727E0A6ED09
:100CF000B4E001C01D92AB3FB207E1F716E0C8E5D2
:100D0000D6E004C02197FE010E947937C735D1078C
:100D1000C9F70E9454260C94993772C9FC01AC01A2
:100D2000425E5F4F8FEF9FEF2191822728E0BC0149
:100D30006170772796958795672B21F031E083279F
:100D400030EA9327215099F7E417F50769F70895DA
:100D50004F925F926F927F928F929F92AF92BF92CB
:100D6000FF922091E1073091E2078217930708F084
:100D700043C02B0166247724852E962EA72EBB24F4
:100D8000B82DA42F2091E707F42C222391F0E22F15
:100D9000F0E0E49DD001E59DB00DF49DB00D11246F
:100DA000FB2E289D40011124B92D249F9001112470
:100DB000A32FE091ED072091E8073091E9075091CA
:100DC000EA07E51323C0FC01EE0FFF1F8E0F9F1FE4
:100DD000820F931FE091EA07E80FF92FF11DF082CF
:100DE000E091EB07E80FF92FF11DB0832091EC079C
:100DF000820F911DFC01A083FF90BF90AF909F9048
:100E00008F907F906F905F904F900895880F991FFB
:100E1000880F991F820F931FE80FF92FF11D108281
:100E2000D9CF82508D3008F03EC0E82FF0E0E55E6B
:100E3000F84F0C9479375007540728072E075307AB
:100E40005307320738073C074207530746074C074A
:100E5000809180008F77809380000895809180003A
:100E60008F7DF9CF8091B0008F778093B000089587
:100E70008091B0008F7DF9CF809190008F77809323
:100E800090000895809190008F7DF9CF8091A0000F
:100E90008F778093A00008958091A0008F7DF9CF77
:100EA00084B58F7784BD089584B58F7DFBCFCF93B4
:100EB000DF93282F30E0F901EF5AF34F8491F901C5
:100EC000E459F34FD491F901ED56F34FC491CC237B
:100ED00099F08111A6DFEC2FF0E0EE0FFF1FEB5B26
:100EE000F34FA591B491EC91ED2381E090E009F4EA
:100EF00080E0DF91CF91089580E090E0FACF1F93DA
:100F0000CF93DF93282F30E0F901EF5AF34F84910C
:100F1000F901E459F34FD491F901ED56F34FC4911F
:100F2000CC23A1F0162F81117CDFEC2FF0E0EE0F27
:100F3000FF1FE957F34FA591B4918FB7F894EC9147
:100F4000111108C0D095DE23DC938FBFDF91CF91C4
:100F50001F910895DE2BF8CFCF93DF9390E0FC0133
:100F6000E459F34F24918D56934FFC0184918823CB
:100F7000C9F090E0880F991FFC01E75CF34FA59141
:100F8000B491FC01E957F34FC591D49161110DC0A3
:100F90009FB7F8948C91209582238C938881282385
:100FA00028839FBFDF91CF910895623051F49FB79E
:100FB000F8943C91822F809583238C93E8812E2B8B
:100FC000EFCF8FB7F894EC912E2B2C938FBFEACFF5
:100FD000883038F092EF980F9B30A8F08931A8F054
:100FE00083518770806480937C0080917A00806454
:100FF00080937A0080917A0086FDFCCF8091780002
:10100000909179000895892FECCF8FEFEACF3FB709
:10101000F8948091BE069091BF06A091C006B09151
:10102000C10626B5A89B05C02F3F19F00196A11D4A
:10103000B11D3FBFBA2FA92F982F8827BC01CD0122
:10104000620F711D811D911D42E0660F771F881F81
:10105000991F4A95D1F70895A9E0B0E0E2E3F8E0DE
:101060000C94E9368091E8079091E907892B09F4FF
:101070007AC0CDDF0091EE071091EF072091F007C5
:101080003091F107601771078207930740F460936E
:10109000EE077093EF078093F0079093F1070091AC
:1010A000EE071091EF072091F0073091F107601BD8
:1010B000710B820B930B6C32714081059105C8F264
:1010C000F8948091E3079091E4079A838983E091F3
:1010D000E807F091E907DF011196808189879091F7
:1010E000DF07E091F207F091F3078091F40799236D
:1010F00009F43DC09081982B988790818095892331
:101100008F838F818C8388E08B8358856F8149859D
:101110003B812C8189819A81508347FD252F3A9507
:101120002083262F39F0441F00C000006083000098
:1011300000C0F2CF38E04D9160830000019761F765
:10114000F093F307E093F20749873B832C839A835C
:10115000898378945CDF6093EE077093EF07809348
:10116000F0079093F1072996E4E00C9405379081FD
:10117000982B98879081809589238F838F818E8388
:1011800088E08D8358856F8149853D812E818981D5
:101190009A81508347FD252F00C000C0208300C0E6
:1011A00000C000C000C000C060830000262F3A9538
:1011B00041F0441F000000C000C000C000C000C0DB
:1011C000E8CF38E04D9100C0608300C0019709F777
:1011D000F093F307E093F20749873D832E83B7CF5F
:1011E0008F929F92AF92BF92CF92DF92EF92FF9237
:1011F0006B017C010CDF4B015C01C114D104E104E3
:10120000F104B1F004DF681979098A099B09683E85
:1012100073408105910588F321E0C21AD108E108E5
:10122000F10888EE880E83E0981EA11CB11CE5CF62
:10123000FF90EF90DF90CF90BF90AF909F908F90F6
:1012400008952FB7F8946091BA067091BB0680910B
:10125000BC069091BD062FBF0895B0E0A0E0E3E387
:10126000F9E00C94E3366C017B018B01040F151F30
:10127000EB015E01AE18BF08C017D10759F06991A4
:10128000D601ED91FC910190F081E02DC601099508
:10129000892B79F7C501CDB7DEB7EAE00C94FF36AC
:1012A000AB01BC0182EC96E0D8CFA2E0B0E0EBE568
:1012B000F9E00C94E7368C017C018AE0E80EF11C21
:1012C000F80181918F01282F30E094E03595279522
:1012D0009A95E1F72A3031059CF4205D29838F70BF
:1012E0008A3080F4805D8A8362E070E0CE010196EE
:1012F000D7DFE016F10621F72296E6E00C940337DB
:10130000295CECCF895CEFCFFC01538D448D252FF8
:1013100030E0842F90E0821B930B541710F0CF968F
:10132000089501970895FC01918D828D981761F0C1
:10133000A28DAE0FBF2FB11D5D968C91928D9F5FD8
:101340009F73928F90E008958FEF9FEF0895FC01B7
:10135000918D828D981731F0828DE80FF11D858D6A
:1013600090E008958FEF9FEF0895FC01918D228DFD
:10137000892F90E0805C9F4F821B91098F73992782
:10138000089582EC96E0F1DF21E0892B09F420E05A
:10139000822F0895FC01A48DA80FB92FB11DA35A67
:1013A000BF4F2C91848D90E001968F739927848F85
:1013B000A689B7892C93A089B1898C9183708064A8
:1013C0008C93938D848D981306C00288F389E02D49
:1013D00080818F7D80830895EF92FF920F931F93FA
:1013E000CF93DF93EC0181E0888F9B8D8C8D9813D8
:1013F00018C0E889F989808185FF13C09FB7F894E8
:10140000EE89FF896083E889F9898081837080642F
:1014100080839FBF81E090E0CDB7DEB7E6E00C941B
:101420000337F62E0B8D10E00F5F1F4F0F73112740
:10143000E02E8C8D8E110BC00FB607FCFACFE88919
:10144000F989808185FFF5CFCE01A4DFF2CFEB8D46
:10145000EC0FFD2FF11DE35AFF4FF0829FB7F89478
:101460000B8FEA89FB8980818062D2CFCF93DF9393
:10147000EC01888D8823B1F0AA89BB89E889F989B4
:101480008C9185FD03C0808186FD0CC00FB607FCE2
:10149000F7CF8C9185FFF2CF808185FFEDCFCE0114
:1014A00079DFEACFDF91CF91089580E090E0892B3A
:1014B00021F067DF81110E94000080E090E0892B1D
:1014C00049F080E090E0892B29F00E940000811112
:1014D0000E9400000895CF93DF93EC018D8588234F
:1014E00029F081508D87DF91CF9108959C818E8165
:1014F0009817C8F788896827E881F9810084F18501
:10150000E02D42E0CE0109958C818F5F8C83EBCF7B
:10151000DC011E96ED91FC9184913196E491982F17
:101520008E2F0895B0E0A0E0E8E9FAE00C94E536EB
:10153000EC0110E000E0E990EE2041F080917507A9
:1015400090917607009741F410E000E0C801CDB714
:10155000DEB7E8E00C940137FC013496C490319674
:10156000E491EC1488F3F12CD12CEC0DFD2DF11D40
:10157000EE16FF064CF787E697E0CADFE0917507A5
:10158000F0917607209178070297D0F086E0E80E78
:10159000F11CEC18FD08EE0DFF1DE491E29FE02D1B
:1015A0001124EE2389F28091700790917807899F2A
:1015B000802D11248E0F9927991F080F191FBBCF5B
:1015C0003296EBCFCF93DF93EC017F876E87672B4B
:1015D00039F09EDF019721F41986DF91CF910895AC
:1015E00081E08987FACF81E0809380058091820233
:1015F000882389F080919506882369F008DD685773
:101600007C4E8F4F9F4F60937C0570937D05809338
:101610007E0590937F050895DC01ED91FC91008497
:10162000F185E02D40E009950895CF93C82F61E83A
:1016300087E697E0F1DF6C2F87E697E0EDDFCF914B
:1016400008950F931F93CF938C01FC016483C08591
:10165000C60F6C2F6F70E0DF6C2F62956F7060614A
:10166000C801DADFCF911F910F910895FC01278106
:10167000269526952695621730F465832385620F9B
:101680006770606BC9CF08951F93CF93DF93EC0110
:10169000142F8E81681710F4CE01D3DF612FCE0195
:1016A000E5DFDF91CF911F910895B0E0A0E0EBE579
:1016B000FBE00C94E536EC01F62EC42ED22E1D86EE
:1016C0008F81869586958695081710F00FEF080F85
:1016D0001D2D011770F0412F6F2DCE01D5DFEF2C9E
:1016E000CE1428F06889CE01F6DEE394F9CF1F5FAF
:1016F000F0CF4D2D6F2DCE01C7DFCDB7DEB7E8E0BF
:101700000C9401370F93DC0115962C9115971E96BA
:10171000ED91FC911F9700E0309779F03396E491BA
:10172000F0E0379683E0F595E7958A95E1F75196D5
:101730000C9151970E9F002D1124EFEFE20F0E0F29
:1017400016964C911697415014966C911497CD01B2
:10175000ACDF0F910895A6E0B0E0E1EBFBE00C9464
:10176000DB36FC01068517850115110509F427C133
:101770009E838D83F801329664903196A490EA2C72
:10178000F12CF7E0EF0EF11C23E0F594E7942A9595
:10179000E1F7E982F801349684913196E491681773
:1017A00048F0CE2ED12C9601280F311D621713065A
:1017B0000CF44FC06D3081F4ED81FE818681811182
:1017C00006C081E090E02696E2E10C94F73660E0F6
:1017D0008D819E8136DFF5CF6A3009F0F0C0ED8152
:1017E000FE818681882319F060E0CF012ADFED8138
:1017F000FE8181898E9DE02C112465816E0D84858A
:10180000882349F097819695969596958E2D891BFC
:10181000860F181624F08D819E8128DFD2CFED81AE
:10182000FE812385820F877083879E199583CF0160
:1018300069DFED81FE818485813009F0C2CF638547
:10184000660F660F660F6F7362876064CF01E4DE18
:10185000B8CF0A5F1F4FB62EB81AED81FE81918571
:101860008189989F802D11248C83CF0151DE0297AE
:1018700008F067C06E9CC0016F9C900D1124B89E4B
:101880006001B99ED00C11240C0D1D1D512CED8151
:10189000FE81F481FA83ED81FE812580F585FB834D
:1018A000862C912CAA24A394B12C312C8981381632
:1018B00008F083C0412CED81FE818189481608F033
:1018C00075C08B818587311002C0442039F0ED81CD
:1018D000FE8145814F5F6A81CF01D6DED12CC12CBC
:1018E000C61408F057C0F801EC0DFD1D749055208A
:1018F00061F0EA14FB0449F4E72DF0E0052C02C086
:10190000F595E7950A94E2F77E2EED81FE818189B7
:10191000823079F4442009F439C072948FE078223F
:10192000E72DF0E0ED52FF4F7490672D8D819E8181
:10193000D2DD672D8D819E81CEDD8FEFC81AD80A4A
:10194000CFCFEA2DE77088E0582E5E1AE11101C072
:10195000512CF801612C90E080E06B1431F024915F
:10196000820F911D63943196F8CF600E712E711C19
:10197000F3016490E89EF001E99EF00DF89EF00DF1
:101980001124CE0EDF1E0C0D1D1D81CFF72DFF7013
:101990007F2EC6CFD12CEC81DE1631F060E08D8138
:1019A0009E8199DDD394F7CF439485CF3394080D6E
:1019B000191DFFEFAF1ABF0A79CF622D2CCF90E02F
:1019C00080E001CF0F93CF93DF93EC011B861A8643
:1019D00060E422DE0F8106950695069501504E8142
:1019E000415020E060E0CE0160DEDF91CF910F91A9
:1019F0000895DC019EE021E227BFE92FFF278491B3
:101A00008D939F5F9831C1F708952F923F924F9227
:101A10005F927F928F929F92AF92BF92CF92DF920E
:101A2000EF92FF920F931F93CF93DF934FB7F894EA
:101A300020916C0530916D0580916A0590916B0540
:101A40004FBF40916E05042E02C0359527950A942C
:101A5000E2F702C0959587954A95E2F79FB7F8940B
:101A60004091720550917305409170055091710538
:101A70009FBF8802C00111242202800D911D1124F4
:101A800090937A05809379058FB7F89480907505C7
:101A900090907605A0907705B09078058FBF8091E3
:101AA0000B0190910C01A0910D01B0910E018815D0
:101AB0009905AA05BB05C1F1C0917905D0917A05B8
:101AC00080911701811144C0D0930401C093030198
:101AD00081E090E0909306018093050188E290E018
:101AE0009093080180930701D0930A01C0930901E4
:101AF00081E08093170180920B0190920C01A092DB
:101B00000D01B0920E0120EF820E29E4921E22E018
:101B1000A21EB11C80920F0190921001A09211019F
:101B2000B09212011092740580917405DF91CF91EB
:101B30001F910F91FF90EF90DF90CF90BF90AF90EB
:101B40009F908F907F905F904F903F902F9008953F
:101B5000709018017110C2C02091030130910401EE
:101B60002C173D07D8F4CE01821B930BB4E0969559
:101B70008795BA95E1F7AC01420F531F50930401CA
:101B8000409303014C175D0738F52F5F3F4F892BBA
:101B9000F9F0809103019091040126C0C217D30788
:101BA000C0F7A9014C1B5D0BA4E056954795AA957B
:101BB000E1F7C901841B950B909304018093030105
:101BC000C817D90730F7452B09F07DC121503109DD
:101BD000309304012093030180910301909104014B
:101BE000C817D90708F46FC19E01281B390BC9011A
:101BF00020910501309106012817390708F066C1C8
:101C0000AC01421B530BF4E056954795FA95E1F76A
:101C1000B901640F751F7093060160930501681781
:101C2000790728F42F5F3F4F452B09F46AC1809153
:101C3000050190910601892B31F481E090E09093A9
:101C400006018093050180910F0190911001A091F0
:101C50001101B09112010097A105B10529F0881674
:101C60009906AA06BB06D0F1209105013091060124
:101C7000C901880F991F820F931F8A30910510F4B4
:101C80008AE090E0209107013091080182179307C4
:101C900008F03CC1A901481B590B5695479556952C
:101CA00047954115510511F441E050E0241B350BD7
:101CB0002817390708F42AC1309308012093070137
:101CC000D501C4018051964BAD4FBF4F80930F019A
:101CD00090931001A0931101B0931201409107015C
:101CE00050910801CA01969587959695879500971A
:101CF00039F431E020E0452B09F430E0832F922FB6
:101D000020910501309106017901EE0CFF1C4AE09B
:101D1000E416F10418F41AE0E12EF12CE816F906A5
:101D200008F47C018091030190910401AC0170E002
:101D300060E01C012B012E0C3F1C411C511CE80EC5
:101D4000F91E21143104E1E04E06510418F0EE248E
:101D5000EA94FE2C8E159F0508F0DDC08701081B54
:101D6000190B0930110508F4D6C0085011090217E3
:101D7000130708F48901400F511F611D711D080FE1
:101D8000191F411551056140710510F00FEF1FEF4C
:101D9000C0900901D0900A0154DAAB01BC01711066
:101DA00038C0809119018823A1F1CC16DD0688F591
:101DB000CE15DF0570F19FB7F8948092510690928E
:101DC0005206A0925306B092540681E080935506C5
:101DD0009FBF80931801DB01CA01805B9F4FAF4F0B
:101DE000BF4F8093130190931401A0931501B093FA
:101DF000160110921901D501C4018051964BAD4FC7
:101E0000BF4F80930F0190931001A0931101B093E5
:101E1000120180911801882309F485C08091030183
:101E2000909104019E01281B390B8C179D0710F01F
:101E300030E020E0E0910501F0910601CF01880F2C
:101E4000991F8E0F9F1F8A30910510F48AE090E051
:101E50008217930708F4C901209107013091080106
:101E60002817390720F49093080180930701D501C2
:101E7000C4018051964BAD4FBF4F80930F0190939B
:101E80001001A0931101B093120180911301909160
:101E90001401A0911501B0911601481B590B6A0B52
:101EA0007B0B77FF3BC081E080937405D0930A01E0
:101EB000C093090180920B0190920C01A0920D0138
:101EC000B0920E0131CE8C1B9D0B92CE82179307E0
:101ED00008F0ADCEA901481B590BE4E05695479593
:101EE000EA95E1F7241B350B309306012093050199
:101EF0008217930708F09BCE452B09F098CE21500E
:101F00003109309306012093050191CE9093080189
:101F100080930701D5CE10E000E029CFC017D1078C
:101F200010F61092180181E0809319011092740547
:101F3000BDCF8FB7F89410925106109252061092AE
:101F4000530610925406109255068FBF10925A06EF
:101F500010925B0610925C0610925D0687E1EAED36
:101F6000F2E0A3E0B1E001900D928A95E1F71092C2
:101F7000740510926A0608958FB7F894109256056A
:101F800010925505109223051092240510921A05FF
:101F900010921F0510922005109221051092220523
:101FA00091E0909356058FBF0895ECE7F0E080E64E
:101FB0008083808181E0809364051092A000E1EA33
:101FC000F0E010821092A5001092A4008FE990E03A
:101FD0009093A9008093A8008AE08083E2E7F0E074
:101FE0008081826080831092650583E1809315056E
:101FF000C3DF10927B008EED80937A0083EA9AE330
:10200000A0E0B0E080935E0590935F05A09360052B
:10201000B093610585E090E090936F0580936E0525
:10202000089520917E022223C9F080917F02482FDB
:1020300050E0FA01EE0FFF1FEE0FFF1FEA58FD4FB1
:1020400060817181828193814F5F5F4F417055271D
:1020500040937F02215020937E02089560E070E05B
:10206000CB0108952091390230913A02C901880FBD
:10207000991F820F931F8830910510F488E090E03B
:1020800020914402309145022817390720F490939B
:10209000450280934402809137029091380220914A
:1020A0004602309147022817390720F490934702DF
:1020B00080934602109249028CE89AE090934D0278
:1020C00080934C0208951092700210925602109262
:1020D0005702109258021092590210925B0210920D
:1020E0005A02109268021092690210926A021092CB
:1020F0006B0210926C0210926D0210926E0210929E
:102100006F0210927102109272021092730210927A
:1021100074021092750210924E0210924F021092A9
:1021200050021092510210925502109254021092D5
:102130007E0210927F021092800281E080938102E1
:102140001092910610927C0610927D0610927E06E7
:1021500010927F06109278061092790610927A06F5
:1021600010927B061092690610926806E0E8F6E08D
:1021700010821182128213821482158216821782B3
:1021800010860895A4E1B0E0E8ECF0E10C94DB36B1
:102190008FB7F89440905B054A868FBF20E03324C8
:1021A00033943FB7F89480912405212C882339F18A
:1021B00040912305842F90E0FC01EE0FFF1FEB5BA5
:1021C000FA4F00811181880F991F880F991FFC0118
:1021D000EB5DFA4FC080D180E280F380C982DA8261
:1021E000EB82FC824F5F483008F040E040932305CB
:1021F00080912405815080932405222423943FBF9D
:10220000222009F469C68091110590911205A091D0
:102210001305B09114050196A11DB11D8093110500
:1022200090931205A0931305B09314058091930623
:10223000909194060817190720F0109394060093C4
:102240009306D090A801D9868091390290913A02E4
:10225000E0903702F0903802FE82ED822D2D20347E
:1022600008F42CC3A0904402B0904502A501A81622
:10227000B90608F0AC017A018D809E80840E951E0F
:1022800060914302662309F443C080913D0290911E
:102290003E0261E08017910708F060E020913B0268
:1022A00030913C0276E0729FA001739F500D112483
:1022B0009801281B390B4217530754F508151905C7
:1022C00038F18017910718F580914A028F5F80934B
:1022D0004A029501A5E0B0E00E94343724E630E0E0
:1022E00040E050E00E9412372430310510F424E021
:1022F00030E02E153F0508F497014D805E80240DD7
:10230000351D61E00217130738F460E005C060E096
:1023100010924A026111DDCF8016910610F03092C2
:1023200081026D807E806016710608F045C16801EB
:10233000C618D708DE86CD8680917202909173020E
:10234000A0917402B0917502209180020097A105BE
:10235000B10509F4FCC549805A806B807C80481A1D
:10236000590A6A0A7B0AD301C201662309F4F1C53E
:10237000B7FDEFC52D832111B5C0C0903F02D090AD
:102380004002E0904102F090420280913D02909123
:102390003E028017910708F012C18815990508F0D0
:1023A0000EC1F801E81BF90BD401A81BB90B298158
:1023B0003A814B815C812C193D094E095F0921F45A
:1023C00021E030E040E050E00E94D1369F0150E033
:1023D00040E00E941237C20ED31EE41EF51E40904C
:1023E00068025090690260906A0270906B0241141A
:1023F00051046104710461F0E1E0D701C601841960
:102400009509A609B7098136934EA641B10508F092
:10241000E0E080916C0290916D02A0916E02B0910B
:102420006F028F87988BA98BBA8B892B8A2B8B2B6A
:1024300091F091E09D83B701A6018F859889A989C4
:10244000BA89481B590B6A0B7B0B4136534E6641C8
:10245000710508F01D82A50156954795569547953B
:102460005C8B4B8B4A30510520F44AE050E05C8B8A
:102470004B8B20917002222309F4CBC08F85988961
:10248000A989BA890097A105B10509F49DC0A701E2
:102490009601281B390B4A0B5B0B213630494F4004
:1024A000510508F491C09501A7E0B0E00E943437CF
:1024B000DC01CB01F3E0B695A79597958795FA9542
:1024C000D1F784319105A105B10520F484E190E0B4
:1024D000A0E0B0E02D853E852817390708F074C0CC
:1024E000F2DDC0DD8091540290915502009729F0F1
:1024F0000197909355028093540250914902752E92
:1025000073247D822985203458F0772049F031E00A
:102510003D838091540290915502892B09F01D82D0
:1025200040917002442309F4D7C1809168029091D0
:102530006902A0916A02B0916B0260EE462E61EBD7
:10254000562E66246A94762C481A590A6A0A7B0A1F
:10255000D301C201C980DA80EB80FC808C0D9D1D07
:10256000AE1DBF1D21E02D8781339A4AAC40B105D5
:1025700008F01D868091A801803408F0AFC160E0AA
:102580004985403408F42BC24D84411035C58091F3
:102590004A02811147C380918002811143C3809117
:1025A000490281113FC34D80442009F43BC380168A
:1025B000910608F01CC236C31E861D86BDCEC9809A
:1025C000DA80EB80FC800BCF3D81311103C0EE231C
:1025D00009F486CFD701C60184199509A609B70960
:1025E000803824E892072EE1A207B10508F4E0C084
:1025F0006ADD38DD4D855E854431510508F472CFC2
:10260000C0925602D0925702E0925802F0925902BC
:1026100069CF80915202909153028B34910508F05A
:1026200061CF4D845E846B887C884614570408F41F
:1026300059CF8091560290915702A0915802B091C3
:1026400059020097A105B10569F4C0925602D092D3
:102650005702E0925802F092590250925B02409267
:102660005A0240CFA7019601281B390B4A0B5B0B7E
:10267000DA01C901A901BD01405B5C436F4F7F4F87
:10268000403452446F40710550F480915A02909149
:102690005B024D845E8484159505B8F223CF8139A1
:1026A0009540A041B10508F08CC0109256021092DE
:1026B0005702109258021092590210925B02109227
:1026C0005A02C0926802D0926902E0926A02F092C5
:1026D0006B02309270021092710289819A81AB81F3
:1026E000BC818051964BAD4FBF4F80937202909347
:1026F0007302A0937402B093750290917F0280914F
:102700007E02823019F49F5F917081E0292F280F9B
:1027100021702B871C86EB85FC85EE0FFF1FEE0FCB
:10272000FF1FEA58FD4FC082D182E282F38290936C
:102730007F028F5F80937E0244E650E060E070E0AD
:102740008DE090E00E94A8060E94F30A0E942109F1
:102750006C597F4F8F4F9F4F609381057093820517
:1027600080938305909384053092800220E6C20E08
:102770002AEED21EE11CF11CC0924E02D0924F02F2
:10278000E0925002F092510240E653E0509355021D
:1027900040935402309249025EE0509348028CE824
:1027A0009AE090934D0280934C02109281029ACE4F
:1027B00020915202309153022B34310568F083DCB2
:1027C00051DCC0925602D0925702E0925802F09229
:1027D00059024D845E8441CF2C013D0120E2420E1E
:1027E0002EE4521E611C711C30E4431632E4530681
:1027F0003FE06306710418F41092710273CE8136C3
:1028000040E994074FE0A407B10508F447C08139B7
:102810009540A041B10588F59501A7E0B0E00E9480
:102820003437DC01CB01E3E0B695A7959795879502
:10283000EA95D1F784319105A105B10520F484E131
:1028400090E0A0E0B0E0ED85FE85E817F90748F0DC
:10285000C0926802D0926902E0926A02F0926B0222
:102860003ACF80917102882309F4CAC32D853E8531
:102870004B895C892417350758F720E8421624E86D
:1028800052062EE16206710418F7809171028F3FA3
:1028900009F428CE8F5F8093710224CEC50166E0D3
:1028A00070E00E9452376A30710510F46AE070E0FF
:1028B0004D845E844616570658F614CE6D807E8091
:1028C000680E791E6016710620F010928002309218
:1028D0008102912C812C06CE2D864CCE209139027E
:1028E00030913A0269E0629FC001639F900D11240C
:1028F0002091370230913802820F931F8017910781
:1029000028F0109253021092520239CE8091520256
:10291000909153028F3F980729F0019690935302AC
:10292000809352024423C1F0809168029091690221
:10293000A0916A02B0916B0249805A806B807C80C2
:10294000481A590A6A0A7B0AD301C20161E0813E32
:102950009441AE42B10508F460E080916C02909120
:102960006D02A0916E02B0916F02722D0097A105C9
:10297000B10589F049805A806B807C80481A590AD9
:102980006A0A7B0AD301C20171E081369049AF40E7
:10299000B10508F470E080915202909153022091A9
:1029A000540230915502232B59F4511109C0209142
:1029B0008002211105C020917E02222309F4F5C274
:1029C000803831E0930708F0DACD662331F08F3F8D
:1029D000910509F008F4D4CDD2CD622DD1CD5D8022
:1029E000552009F41FC16D84662009F41BC16111D3
:1029F00019C17090A80179864091A70150E080909C
:102A0000A9019090AA01A090AB01B090AC0168011F
:102A1000F12CE12CCD82DE82EF82F886C090AD01F0
:102A2000D090AE01E090AF01F090B0019801D801D4
:102A30000E9434372B013C01FA0131969F012F731C
:102A40003327388B2F87440F551FE985E03408F072
:102A500076C0495D5E4FDA010D931C932D813E8156
:102A60004F815885820E931EA41EB51E8092A90127
:102A70009092AA01A092AB01B092AC01C40CD51CFB
:102A8000E61CF71CC092AD01D092AE01E092AF01FE
:102A9000F092B0019E2F9F5F9093A8013F853093E5
:102AA000A7018091A801803408F4BCC0C090A9019E
:102AB000D090AA01E090AB01F090AC0186E0F694D2
:102AC000E794D794C7948A95D1F78090AD01909000
:102AD000AE01A090AF01B090B00196E0B694A7947B
:102AE000979487949A95D1F7A7019601C701B601EB
:102AF0000E944337681579058A059B0508F04EC08A
:102B000024013501461A570A680A790AB301A2015D
:102B10009601D0923802C0923702812C912CA12CC0
:102B2000B0E4BB2E481559056A057B05D8F5A2E02F
:102B3000B694A79497948794AA95D1F7F3CFFA0106
:102B4000E95DFE4FA081B1818A1A9B0AA108B108F4
:102B50002D813E814F815885820E931EA41EB51E85
:102B60008092A9019092AA01A092AB01B092AC010F
:102B70009D010E943437C61AD70AE80AF90AC40C24
:102B8000D51CE61CF71CC092AD01D092AE01E092BC
:102B9000AF01F092B0011183008380CF40E050E09C
:102BA000BA01B6CF80E090E0DC0181149104A10469
:102BB000B104F9F024013501480E591E6A1E7B1E2E
:102BC000B695A7959795879544155505660577059C
:102BD00040F04419550966097709880D991DAA1D09
:102BE000BB1DE2E0B694A79497948794EA95D1F739
:102BF000DCCFAA27BB270097A105B10521F481E00E
:102C000090E0A0E0B0E090933A0280933902809186
:102C10004602909147028217930720F4D092470210
:102C2000C092460280914302882309F440C020915B
:102C3000320280913D0290913E02F801E81BF90BAF
:102C40008091310290E0C0903302D0903402E09045
:102C50003502F0903602AF01F7FF04C04427552734
:102C60004E1B5F0B052E000C660B770BDC011196DB
:102C70003D013FE363227724880F991F203408F039
:102C80005BC08F549E4FDC01ED93FC93C40ED51EA8
:102C9000E61EF71EC0923302D0923402E092350253
:102CA000F09236022F5F209332026092310220911F
:102CB0003202211166C0E1E0F0E0F0933C02E093C3
:102CC0003B028091A801803418F1809146029091D6
:102CD0004702209149028017910708F069C01093BC
:102CE00047020093460286E180934B02211185C082
:102CF0008091490281110CC080914C0290914D024B
:102D0000009709F4B4C0019790934D0280934C0250
:102D100010933E0200933D0249805A806B807C8074
:102D200040923F02509240026092410270924202F1
:102D300030924302222D35CA9C012F543E4FD901B7
:102D40008D909C9097FE03C0919481949108092CDA
:102D5000000CAA08BB08C818D908EA08FB088F5459
:102D60009E4FDC01ED93FC93C40ED51EE61EF71EAC
:102D7000C0923302D0923402E0923502F0923602D1
:102D800094CF30E050E040E0609133027091340223
:102D900080913502909136020E941237211531053B
:102DA00011F421E030E030933C0220933B0289CFC4
:102DB000211123C020914B02222309F499CF2150E5
:102DC00020934B02211194CF209137023091380289
:102DD000821B930BF4E096958795FA95E1F7820FA5
:102DE000931F2817390708F49C013093470220935A
:102DF000460286E180934B027BCF80914802882374
:102E000019F081508093480280914802811170CF5F
:102E100040913702509138028091460290914702CA
:102E20006091390270913A0248175907F0F4841BF7
:102E3000950B9B01220F331F260F371F28173907C9
:102E400008F49C01309345022093440250934702BA
:102E500040934602109249027CE8472E7AE0572EB2
:102E600050924D0240924C0243CFCB01E2CF5CE83E
:102E7000652E5AE0752E70924D0260924C02809140
:102E8000390290913A029C01220F331F820F931F47
:102E90008430910510F484E090E020914402309158
:102EA00045028217930728F09093450280934402CD
:102EB0002FCF6901C81AD90AC601969587959695AC
:102EC0008795009711F481E090E0281B390B30932F
:102ED0004502209344021CCF809110055A8485112D
:102EE0001DC080910C0590910D05A0910E05B0912B
:102EF0000F050196A11DB11D80930C0590930D0542
:102F0000A0930E05B0930F0581E090917E02911180
:102F100001C080E06496E2E10C94F736211113C001
:102F20008091080590910905A0910A05B0910B05C3
:102F30000196A11DB11D8093080590930905A093EA
:102F40000A05B0930B056A8460921005DDCF61110C
:102F500011CA222309F4C6CA80914E0290914F02F1
:102F6000A0915002B09151020097A105B10509F45A
:102F7000B9CA49805A806B807C80481A590A6A0A0B
:102F80007B0AD301C201B7FDADCA809181028823BB
:102F900009F4A8CA1092800210924E0210924F02B9
:102FA00010925002109251029DCA442309F408CD98
:102FB000772309F405CD8B34910508F406CD83D829
:102FC00051D82091390230913A02C901880F991FD6
:102FD000820F931F8430910510F484E090E0909369
:102FE0004502809344028091370290913802909379
:102FF000470280934602C3CA5D805110F8CC12CEBE
:1030000020E8421624E852062EE16206710408F414
:1030100041CC1ECC9FB7F89480915B059FBF815037
:103020008093100508958BE591E0E7E2F1E0DF0180
:103030009C011D9221503040E1F781E090E0909397
:103040003A028093390290933C0280933B028FEFC7
:103050009FEFDC018093640290936502A093660267
:10306000B093670281E0809381028AE090E09093C0
:103070004502809344028CE89AE090934D0280933D
:103080004C02C8DF0E94BC0FC5CF462F682F87E6D1
:1030900097E00E94440B87E697E00C94820B1F9305
:1030A000CF93DF93EC01162F61E0411101C060E086
:1030B0008B890E947F0780E58CBD81E08DBD60E03B
:1030C0008A890E947F071EBD00000DB407FEFDCF58
:1030D0008EB561E08A890E947F07DF91CF911F91B1
:1030E0000895089590E080E0089581E08093D802EB
:1030F0008093D7028093D6020895CF93C091D202D5
:10310000CC2339F01092810066EA87E697E00E94AE
:103110000C0B8C2FCF910895CF93DF93D0E0C0E0BC
:1031200040E050E0BA01CE010E94A8062196CA31C3
:10313000D105B1F70E942C08DF91CF91089581E06D
:103140008093B506809183024EEF5EEF6EEF70E0E4
:1031500090E00E94A8060E942C080E94210960931A
:10316000F5077093F6078093F7079093F807089593
:10317000B0E0A0E0EEEBF8E10C94E536C091F90484
:10318000D091FA048E01000F111F0B511B4FF80153
:1031900040815181052E000C660B770BC090FB041B
:1031A000D090FC04E090FD04F090FE04C41AD50A0F
:1031B000E60AF70A81E10E94E807F801918380831B
:1031C000092E000CAA0BBB0BBC01CD016C0D7D1DA3
:1031D0008E1D9F1D6093FB047093FC048093FD047F
:1031E0009093FE042196CA30D10584F4D093FA045A
:1031F000C093F9042AE030E040E050E00E94B53688
:10320000C901CDB7DEB7E8E00C9401371092FA049B
:103210001092F904EFCF2FB7F89490932401809384
:10322000230190932601809325012FBF08950F93CA
:103230001F93CF9380919E068823E9F00E94070890
:1032400000919F061091A0062091A1063091A20640
:10325000601B710B820B930B97FD0DC0CFB7F894D9
:10326000109280001092810060E089E00E947F0748
:1032700010929E06CFBFCF911F910F9108950F938B
:103280001F930E94070800910105109102052091EB
:10329000030530910405AB01BC01401B510B620BCF
:1032A000730B8091840290918502B0E0A0E04817F2
:1032B00059076A077B0770F00E94070860930105B1
:1032C00070930205809303059093040581E01F919C
:1032D0000F91089580E0FBCFFC01DC018D918823E4
:1032E00089F080528F3538F01082E60FF71F319742
:1032F000108280E00895CD018E1B9F0B86179707E3
:1033000068F3F2CFE60FF71F3197108281E008953E
:10331000FB0101900020E9F73197AF01461B570BE5
:10332000DC01ED91FC910280F381E02D0995089577
:103330000F931F93CF93DF938C01D0E0C0E0F8018F
:10334000EC0FFD1F6491662341F082EC96E00E9431
:10335000EC09892B11F02196F2CF6EEC73E082EC30
:1033600096E0D6DF8C0F9D1FDF91CF911F910F91BB
:1033700008958F929F92AF92BF92EF92FF920F9318
:103380001F93CF93DF93CDB7DEB7A1970FB6F89415
:10339000DEBF0FBECDBF7C01FA01CB0119A22230E6
:1033A00008F42AE08E010F5D1F4F822E912CB12C64
:1033B000A12CBF01A50194010E941237F901CA0195
:1033C0006A3004F5605DD8016E938D01232B242BA8
:1033D000252B79F790E080E0109719F0BD01C70127
:1033E00097DFA1960FB6F894DEBF0FBECDBFDF9179
:1033F000CF911F910F91FF90EF90BF90AF909F9052
:103400008F900895695CDFCFB0E0A0E0EAE0FAE1D8
:103410000C94E5368C016B01770FEE08FF08F7FE80
:103420001AC0DC01ED91FC910190F081E02D6DE27C
:103430000995EC0144275527BA014C195D096E091D
:103440007F092AE0C80195DF8C0F9D1FCDB7DEB73D
:10345000E8E00C9401372AE0B701A6018ADFF6CF35
:10346000CF93DF93BC0182EC96E0CEDFEC016EECF3
:1034700073E082EC96E04CDF8C0F9D1FDF91CF91C3
:103480000895462F50E070E060E02AE072CFCF93BD
:10349000DF93682F82EC96E0F4DFEC016EEC73E0D2
:1034A00082EC96E035DF8C0F9D1FDF91CF91089560
:1034B0000F931F93CF93DF938C01D0E0C0E0611591
:1034C000710511F025DFEC016EEC73E0C80120DF1F
:1034D0008C0F9D1FDF91CF911F910F910895611562
:1034E000710509F015CF90E080E008958091860283
:1034F000882359F041E066E187E697E00E94440B9B
:103500006AE273E087E697E0EACF08958091A40627
:1035100081110EC081E08093A40645E066E487E651
:1035200097E00E94440B6DE173E087E697E0D7CF08
:10353000089545E06CE387E697E00E94440B69EA52
:1035400073E087E697E0CBCF45E065E087E697E05C
:103550000E94440B63E273E087E697E0C0CFCF930D
:10356000DF9380918302811128C08091A50641E0FC
:10357000811112C06AE087E697E00E94440B6BE27B
:1035800073E087E697E0ABDF6091830287E697E020
:1035900078DFDF91CF91089569E187E697E00E9497
:1035A000440B69E273E087E697E099DF41E06DE262
:1035B00087E697E00E94440BE7CFC9E1D0E0C81B43
:1035C000D10990919D06992349F141E06AE087E68F
:1035D00097E00E94440B67E573E087E697E07FDFA2
:1035E000BE01D7FF02C06F5F7F4F7595679587E675
:1035F00097E00ADF6DE273E087E697E070DF25E091
:103600002C9FC0012D9F900D11246AE070E00E9454
:103610006637BC0187E697E0F7DEBBCF9091A50641
:103620009923F9F0853159F441E069E387E697E0A1
:103630000E94440B6BE273E087E697E050DF41E0C5
:1036400069E187E697E00E94440B67E573E087E64F
:1036500097E045DF84E18C9FB0018D9F700D1124B0
:10366000D9CF803159F441E064E187E697E00E94C8
:10367000440B6AE273E087E697E031DF41E06AE0FD
:1036800087E697E00E94440B67E573E087E697E0E2
:1036900026DFBE01BFCF80919D06882359F041E00F
:1036A0006CE387E697E00E94440B6FE273E087E6E5
:1036B00097E015CF8091A50641E0882341F06BE4A7
:1036C00087E697E00E94440B64E373E0F0CF6CE27E
:1036D00087E697E00E94440B67E373E0E8CFCF935F
:1036E000A6DD80910705882391F0109207051092BE
:1036F0000605109205051092A4060E940708609323
:103700000105709302058093030590930405809151
:10371000AF06811138C08091830281113FC0809132
:103720000605811127C08091A306811109C08091EF
:10373000A506811105C067EA87E697E00E940C0B99
:1037400080910505811112C081E08093050580916B
:103750009D068823D1F041E06AE287E697E00E9467
:10376000440B6EE373E087E697E0B9DEF8DE81E0B4
:103770008093060584DD882331F0B8DE66EA87E6AB
:1037800097E00E940C0BCF91089545E066E487E630
:1037900097E00E94440B60E473E0E5CF9FEF980F41
:1037A0009C3008F048C090910605911141C091E00D
:1037B00090930605813011F4A9DE6DDFC09183027C
:1037C000CC23B1F180919D068823F1F041E064E1C2
:1037D00087E697E00E94440B6C2F669570E087E6C1
:1037E00097E012DE6DE273E087E697E078DE25E091
:1037F000C29FC00111246AE070E00E946637BC01DC
:1038000087E697E001DE14C08091A50641E08111B2
:10381000ADC06AE087E697E00E94440B66E473E07F
:1038200087E697E05CDE6091830287E697E029DE19
:1038300026DD81115BDE809183028C30C9F5809199
:103840009C068823A9F180910005811131C063E0B5
:103850008EE11BDC68E473E087E697E040DE809150
:10386000230190912401909326018093250180915A
:10387000020191E0980F943108F089C09093020101
:1038800090E0880F991F909324018093230181E099
:103890008093000590918302292F30E09C5040E0F6
:1038A00050E0BA019D3008F074C0C9010E94A8061A
:1038B0008091830293EF980F9C3008F064CF8D3095
:1038C00009F070C080919C06882349F082E090E066
:1038D000909324018093230163E080E0D6DB809104
:1038E0000605811109C081E0809306051092A406A7
:1038F00065E086E4CADB1DDE3BDC28E230E0DC016B
:103900000E947F372CE231E040E050E00E94B53663
:10391000DA01C9010A96A11DB11D83339105A105E4
:10392000B10524F082E390E0A0E0B0E08A30910598
:10393000A105B10524F48AE090E0A0E0B0E0909306
:1039400001018093000114DC8B38924044F181E046
:103950008093FF04809183028E3011F41092000551
:103960008EDC882309F40FCFC1DD0DCF69E187E636
:1039700097E00E94440B66E473E087E697E0AFDDD2
:103980006091830284E1689FB001112439CF91E0F6
:1039900075CFC9010E94A8060E942C0889CF1092F9
:1039A000FF04D8CF809106058111D4CF81E08093A8
:1039B0000605D5DDCFCF0E948537B0E0A0E0E3EE6D
:1039C000FCE10C94E536EB017B0120E2E20EF11CF8
:1039D0008B016C01C61AD70AC601800F911F0E9485
:1039E0009F36F80181938F01EE15FF05A9F7CE01EF
:1039F000CDB7DEB7E8E00C9401370C949F36B0E009
:103A0000A0E0E5E0FDE10C94E336EB012AE1FB01E7
:103A100011922A95E9F76B01FAE1CF0ED11C7B01D7
:103A200011E001E05C01A61AB70AC5018E0D9F1DC9
:103A3000E4DF8F3F19F000E08823D9F090EE980F73
:103A40009F3508F010E0F70181937F01CE16DF0665
:103A500061F780E0198E011104C0882311F0111163
:103A600002C0188210E0812FCDB7DEB7EAE00C94D7
:103A7000FF3681E0EFCF0C94A736A1E7B0E0E3E496
:103A8000FDE10C94E336109280001092810061E019
:103A900089E00E94AC0760E089E00E947F071092F5
:103AA000D8021092D7021092D60261E082E00E9402
:103AB000AC0761E085E00E94AC0761E082E00E9413
:103AC0007F078091E5079091E60797FD08C061E0C8
:103AD0000E94AC0760E08091E5070E947F0781E0CB
:103AE0008093E0078093B50617DB62E370E080E027
:103AF00090E00E94F00861E085E00E947F0762E0AC
:103B000080E10E94AC078CEF93E077DF91E08111B8
:103B100001C090E09093A3068DEF93E00E949F3642
:103B20008093A7068EEF93E00E949F368093A806AD
:103B300063E276E086E090E062DFE82E68E076E01F
:103B400082E290E05CDFF82E6CEE75E08EE390E0B0
:103B500056DF082F60ED75E08AE590E050DF182F02
:103B600080E290E04ADF873008F080E08093220610
:103B700081E290E042DF873008F081E080931E010F
:103B80008DE390E03ADF873008F080E0809307060D
:103B90008CE390E032DF873008F081E080931D01F4
:103BA00088E590E02ADF873008F080E08093EB051D
:103BB00089E590E022DF873008F080E080930606F8
:103BC00084E790E01ADF873008F080E08093CF052B
:103BD00085E790E012DF873008F080E08093EA0507
:103BE00086E790E00ADF9FEF980F9E3F08F0C7C17D
:103BF00080931C0187E790E000DF815091E08E3FC9
:103C000008F090E0909385058E3F90F4EE2031F01F
:103C1000FF2021F0002311F011110AC01092230699
:103C2000109208061092EC051092D00510928505AE
:103C300087E790E0E2DE8F3FC1F086E090E0DDDED6
:103C4000F82E82E290E0D9DE082F8EE390E0D5DEF8
:103C5000182F8AE590E0D1DE2FEFF21223C00F3F3C
:103C600009F51F3FF9F48F3FE9F4109223061092F3
:103C700008061092EC051092D0051092CF05109214
:103C8000EB05109207061092220681E080931E0138
:103C900080931D01109206061092EA0580931C0184
:103CA000109285058E010F5F1F4F580144E8E42EE6
:103CB00043E0F42ED02EC12EC7010E949F36D501BD
:103CC0008D935D01BFEFEB1AFB0AE5EDEE16E3E025
:103CD000FE0691F789819A818E3D904C09F451C17D
:103CE00063E573E087E892E00E94923763E573E052
:103CF0008DE892E00E9492376EE473E083E992E0EF
:103D00000E94923710929F0210929E021092A0027F
:103D10001092B90210E01093CE05BE016E5A7F4F8B
:103D200080E293E04ADE6D2D7C2D80E493E045DE59
:103D300064968EAD9FAD64978E3D904C91F46596E0
:103D40008FAD6597813069F4E296EEACFFACE297F7
:103D5000CE018E5A9F4F0E948E0611E0E816F9069A
:103D600009F010E089819A818E3D904C09F02DC2B6
:103D70008B81813009F029C2EF8CF8A08D2D9C2D0C
:103D80000E948E06E816F90609F01FC211115EC1E5
:103D900080E2ED2DFC2DA7EAB5E001900D928A9509
:103DA000E1F781E090E09093C8058093C70580918A
:103DB000AF059091B0054091B1055091B205609169
:103DC000B3057091B4054093AB065093AC06609375
:103DD000AD067093AE0601969093AA068093A9064D
:103DE00081E08093CD058FEF93E007DE8E3139F0CF
:103DF0008851823020F069E18FEF93E03CDE8CEF58
:103E000093E0FBDD823020F060E08CEF93E033DE66
:103E100080E10E945707892B79F48FEF93E0EDDD65
:103E20006EE1893131F068E18E3119F0883121F489
:103E300069E18FEF93E01FDE8FEF93E0DEDD80938B
:103E40009B0689EF93E0D9DD8093B60664E170E0CC
:103E500080E090E00E94F00884E08093A606F89449
:103E6000809168008860809368008091730088600A
:103E700080937300789461E08AE00E94AC0760E070
:103E80008AE00E947F076AE070E080E090E00E9494
:103E9000F00861E08AE00E947F076AE070E080E05D
:103EA00090E00E94F00888E18093790787E1809391
:103EB0007A0761E088E10E94AC0761E080917A07AF
:103EC0000E94AC071FB7F89480917B05811127C031
:103ED000EDE9FCE08491E6E7FCE09491E82FF0E066
:103EE000EE0FFF1FE75CF34FA591B491EC91E9232E
:103EF00021F461E08AE00E947F0761E08AE00E948D
:103F0000AC078CB580618CBD8CB580648CBD61E0E4
:103F10008DE00E94AC0761E08BE00E94AC078091CD
:103F20007B058F5F80937B051FBF10926B071092FC
:103F30006C07EDECF0E0C590D490EFECF0E0F4907D
:103F4000E0EDF0E0E491E0936D07E1EDF0E0E49165
:103F5000E0936E07E2EDF0E0E491E0936F0710E08C
:103F600000E00F1508F091C0F801EC0DFD1D649103
:103F700087E697E00E940C0B0F5F1F4FF2CF81E0A6
:103F800037CE8B81813009F0ABCE8C818B3409F038
:103F9000A7CEA801415B5F4F8FEF9FEFD8012D9116
:103FA0008D01922728E0BC01880F991F77FF04C07C
:103FB000B1E28B27B0E19B272150A9F70417150721
:103FC00069F762962EAD3FAD62972817390709F061
:103FD00087CE8BE4FE013596A7E8B2E001900D9202
:103FE0008A95E1F766E070E087E892E075D9082FDE
:103FF00066E070E08DE892E06FD9182F6BE070E01A
:1040000083E992E069D9F82E69E170E080EA92E0F4
:1040100063D969E170E089EB92E05ED9002321F079
:1040200080918702811110C0112321F080918D02AF
:10403000811171CEFF2009F453CE809193021F2D80
:10404000882309F44DCE67CE102F65CE6A964CAD0D
:104050005DAD6EAD7FAD6A978D819E81AF81B88574
:10406000481759076A077B0708F492CE80E2FE01E1
:10407000EE5AFF4FA7EAB5E001900D928A95E1F75D
:104080001092C8051092C70592CE87E697E00E946D
:10409000E20C6BED87E697E00E940C0B60E787E689
:1040A00097E00E940C0B6DE887E697E00E940C0BEE
:1040B00064E987E697E00E940C0B8FEF0E94150BD6
:1040C00062E370E080E090E00E94F00881E080937D
:1040D000D9028093220110924B0610924A06109248
:1040E0004C06109242060E94210960934306709389
:1040F0004406809345069093460610924806109217
:10410000470680917A008F7D80937A0087E88093BC
:104110007A0061E087E00E94AC0761E087E00E94DE
:104120007F07F894109290008AE08093910082E0DB
:104130008093710080919B06883151F481EC92EA62
:10414000909399008093980090931B0180931A019B
:1041500080919B06893151F48FE39CE990939900FB
:104160008093980090931B0180931A0180919B0685
:104170008E3151F484E392E89093990080939800F3
:1041800090931B0180931A01789482E090E09093C1
:1041900024018093230181E08093D2021092800653
:1041A0001092810610928206109283061092840665
:1041B0001092850610928606109287061092880645
:1041C000CF58DF4FEAE00C94FF3611114FCFE9EAE8
:1041D000F5E08EE1DF011D928A95E9F78EED90EC16
:1041E0009093A8058093A70581E08093A90587EAAD
:1041F00095E00E948E069093C6058093C50540CF3A
:104200001F93CF93DF93EC01162F0E949F36181750
:1042100021F0612FCE010E94A736DF91CF911F912F
:104220000895B0E0A0E0E7E1F1E20C94E5367C010E
:104230006B01D0E0C0E010E000E0111104C0F60115
:10424000EC0FFD1F0081602FC7018C0F9D1FD8DF71
:1042500011110CC011E0011110E02196CA31D105F5
:1042600059F7CDB7DEB7E8E00C94013711E0F5CF90
:104270001F920F920FB60F9211242F933F938F939B
:104280009F93AF93BF938091BA069091BB06A09184
:10429000BC06B091BD063091B90623E0230F2D373F
:1042A00068F126E8230F0296A11DB11D2093B906DF
:1042B0008093BA069093BB06A093BC06B093BD064C
:1042C0008091BE069091BF06A091C006B091C10634
:1042D0000196A11DB11D8093BE069093BF06A093C9
:1042E000C006B093C106BF91AF919F918F913F914E
:1042F0002F910F900FBE0F901F9018950196A11D42
:10430000B11DD4CF1F920F920FB60F9211242F938D
:104310003F934F935F936F937F938F939F93AF934D
:10432000BF93EF93FF9382EC96E00E94CA09FF913E
:10433000EF91BF91AF919F918F917F916F915F911D
:104340004F913F912F910F900FBE0F901F90189596
:104350001F920F920FB60F9211242F938F939F935A
:10436000EF93FF93E091D206F091D3068081E09124
:10437000D806F091D90682FD1BC090818091DB06A2
:104380008F5F8F732091DC06821741F0E091DB068E
:10439000F0E0EE53F94F958F8093DB06FF91EF919C
:1043A0009F918F912F910F900FBE0F901F90189596
:1043B0008081F4CF1F920F920FB60F9211248F932A
:1043C00080918202811104C080919506882349F072
:1043D00080917A0086FD05C080917A008064809388
:1043E0007A008F910F900FBE0F901F9018951F921B
:1043F0000F920FB60F9211242F933F934F935F9319
:104400006F937F938F939F93AF93BF93CF93DF93DC
:10441000EF93FF938091660590916705A0916805E1
:10442000B09169050196A11DB11D80936605909319
:104430006705A0936805B093690580916505909123
:104440007C008111D3C080916405882309F4C9C020
:10445000809179008455990B909363058093620550
:1044600020916205309163054091A606429FC001EC
:10447000439F900D11249093630580936205809172
:104480005E0590915F05A0916005B0916105209156
:104490005C0530915D05820F931F90935D058093BD
:1044A0005C05292F3327880F892F881F990B919539
:1044B000E0916205F091630527FF02C0E095F09559
:1044C0006091620570916305205C3F4F27FF02C039
:1044D00060957095409162055091630587FF02C019
:1044E000409550952091620530916305805C9F4F07
:1044F00087FF02C020953095A0916C05B0916D05A5
:1045000080916E05C0916C05D0916D05082E02C09A
:10451000B595A7950A94E2F7EA1BFB0BEC0FFD1F7C
:10452000F0936D05E0936C05E0916A05F0916B05E1
:10453000A0916A05B0916B05082E02C0F595E7952C
:104540000A94E2F76E1B7F0B6A0F7B1F70936B055B
:1045500060936A056091720570917305E091720530
:10456000F0917305082E02C0759567950A94E2F7DD
:10457000461B570B4E0F5F1F5093730540937205F8
:1045800040917005509171056091700570917105B1
:1045900002C0559547958A95E2F7241B350B260FE7
:1045A000371F30937105209370050E9407086093B0
:1045B00075057093760580937705909378058091C3
:1045C00015058111BCC01092150586E480937C000E
:1045D00080917C008F7D80937C0080917C0082E0C4
:1045E000BAC0809179008058990B45CF909178009E
:1045F000C0917900823009F0C3C0DC2FC92FCE3FB3
:1046000083E0D80710F0D0E0C0E0D0936306C093F9
:10461000620680915B058F5F80935B0580915705F3
:1046200090915805A0915905B0915A050196A11D88
:10463000B11D8093570590935805A0935905B093E9
:104640005A0580915605882309F465C00E94070821
:1046500040915505242F30E0F901EE0FFF1FEB5B71
:10466000FA4FD183C083220F331F220F331FF9016A
:10467000EB5DFA4F608371838283938381E0840FC3
:10468000883008F080E080935505809124058830BB
:1046900030F5809124058F5F8093240580911B0560
:1046A00090911C05A0911D05B0911E050196A11DBC
:1046B000B11D80931B0590931C05A0931D05B0931D
:1046C0001E059091240580911A05891720F4809188
:1046D000240580931A0583E18093150536C08091E7
:1046E00023058F5F883008F080E080932305809158
:1046F0001F0590912005A0912105B09122050196FA
:10470000A11DB11D80931F0590932005A093210545
:10471000B0932205C3CF8091160590911705A09103
:104720001805B09119050196A11DB11D80931605BC
:1047300090931705A0931805B0931905CCCF81501D
:1047400080931505882309F440CF80E680937C0090
:1047500080917C0080E080936505FF91EF91DF916F
:10476000CF91BF91AF919F918F917F916F915F9109
:104770004F913F912F910F900FBE0F901F90189562
:10478000813009F422CFA7CF1F920F920FB60F925C
:1047900011248F939F938091FA0791E0892780934A
:1047A000FA079F918F910F900FBE0F901F90189551
:1047B0001F920F920FB60F921124CF92DF92EF92B9
:1047C000FF920F931F932F933F934F935F936F939A
:1047D0007F938F939F93AF93BF93EF93FF938091BA
:1047E0006606909167060196909367068093660629
:1047F00020916606309167068091230190912401F3
:104800002817390708F456C1809183021092670671
:104810001092660691E0909307058F5F893108F04A
:1048200072C18093830280918302811164C01092CF
:10483000E4048091D6028823A1F10E9421096093AB
:1048400096067093970680939806909399061FB7E3
:10485000F89480E4809380008AE0809381008EE663
:1048600091E090938900809388000E940708605C23
:10487000704E8F4F9F4F60939F067093A00680935A
:10488000A1069093A20681E080939E061FBF0E941E
:1048900007086093E0047093E1048093E20490932E
:1048A000E3048091D702882331F18091A306882305
:1048B00009F42CC18091A506811128C181E0809363
:1048C000B50610E000E044E654E664E670E0C80196
:1048D0000E94A8060F5F1F4F0A311105A1F70E9421
:1048E0002C080E9421096093F5077093F6078093C6
:1048F000F7079093F807809183028C3011F580912F
:104900009C06811118C180912301909124019093FC
:1049100026018093250180919B068E3151F4809170
:10492000A5068111F6C08CE090E09093240180935D
:10493000230180919B06883109F0FDC08DE08093B2
:104940008302809183028D3009F05DC020912501A2
:1049500030912601309324012093230190919B06EE
:104960009931B9F42091A7063091A80640911A0117
:1049700050911B0137FF02C0295F3F4FB3E03595CF
:104980002795BA95E1F7240F351F309399002093AE
:10499000980090919B069E31C9F42091A706309112
:1049A000A80640911A0150911B0137FF02C0295FF0
:1049B0003F4FA3E035952795AA95E1F74C5E5F4FF1
:1049C000240F351F309399002093980090919B06F7
:1049D0009831C9F42091A7063091A80640911A0198
:1049E00050911B0137FF02C0295F3F4FF3E035951F
:1049F0002795FA95E1F7405E5F4F240F351F3093FE
:104A00009900209398009091D802992309F452C0FC
:104A10009FEF980F9C30A0F491E09093B506909191
:104A2000FF04992309F478C00E949F180E9421096D
:104A30006093F5077093F6078093F7079093F80754
:104A4000809183028C3039F490919B069E3119F449
:104A500091E09093DF0493EF980F9D3058F54091CB
:104A60000001C42ED12CF12CE12CB601552744278E
:104A700090E02091FF04222361F03E2D2D2D1C2D6E
:104A80000027402B512B622B732B4C295D296E295B
:104A90007F290E94A8060E942C0881E08093B50619
:104AA0000E9421096093F5077093F6078093F7073A
:104AB0009093F807809183028D3071F4809166069F
:104AC00090916706019741F480911A0190911B0122
:104AD0009093990080939800FF91EF91BF91AF91CF
:104AE0009F918F917F916F915F914F913F912F9106
:104AF0001F910F91FF90EF90DF90CF900F900FBE1E
:104B00000F901F901895109283028DCE0E949F18CF
:104B1000F2CE86E090E009CF4091000150E070E0D5
:104B200060E0762F652F542F442790E00E94A8065E
:104B30000E942C087BCF8CE066CFCF93DF93E2EC12
:104B4000F6E01382128288EE93E0A0E0B0E0848366
:104B50009583A683B78381E093E09183808385EC7E
:104B600090E09587848784EC90E09787868780EC37
:104B700090E0918B808B81EC90E0938B828B82EC28
:104B800090E0958B848B86EC90E0978B868B118ED2
:104B9000128E138E148E0E94210960935F0770930A
:104BA000600780936107909362070E9421096093D8
:104BB00063077093640780936507909366070E946C
:104BC00021090E9421090E9421090E9421090E94B5
:104BD0002109E7E6F7E0138212821486158617860C
:104BE0001686108AC1E0C18B83E193E091838083B4
:104BF0000E9421096093F5077093F6078093F707E9
:104C00009093F807AFEDB7E011961C9211971896A4
:104C10001C9218971F961D921D921D921C925297DE
:104C20001E96CC931E971B96CC931B971C961C929A
:104C30001C9782E01D968C931D97CC93EBE7F7E0D1
:104C40001A96FC93EE9319978BE490E015969C933B
:104C50008E931497EF0119928A95E9F789E190E014
:104C600013969C938E9312978FE090E017969C93E7
:104C70008E931697E2EAFCE0E491F0E0EE0FFF1F5E
:104C8000E957F34F8591949154969C938E93539743
:104C9000EBE7FCE0E4915596EC938091FA07809362
:104CA000F907DF91CF910895A6E2B0E0EAE5F6E2D8
:104CB0000C94DB36789484B5836084BD85B58360BD
:104CC00085BD80916E00816080936E0012E010932C
:104CD00081008091810081608093810080918000BB
:104CE0008160809380008091B10084608093B100E6
:104CF0008091B00081608093B000809191008360CA
:104D000080939100809190008160809390008091C9
:104D1000A10083608093A1008091A00081608093B6
:104D2000A00087E880937A001092C1001092800062
:104D30001092810061E089E00E94AC0760E089E0A8
:104D40000E947F07E091D206F091D3061083E09194
:104D5000D206F091D3061082E091CE06F091CF06F4
:104D60001082E091D006F091D10680E1808310920C
:104D7000DA06E091D606F091D70686E08083E091CE
:104D8000D406F091D506808188698083E091D406AD
:104D9000F091D50680818F7D80836CED75E080E099
:104DA00090E00E94F008209A17BE0E943D1D80915D
:104DB0008005882349F1C0907C05D0907D05E09066
:104DC0007E05F0907F05C114D104E104F104C1F027
:104DD000809182028823A1F080919506882381F03A
:104DE0000E9407086C197D098E099F0997FD0CC068
:104DF00010927C0510927D0510927E0510927F0521
:104E0000109280050E942C08C0905606D09057063C
:104E1000E0905806F0905906C114D104E104F10461
:104E2000C9F00E9421096C197D098E099F0997FD1F
:104E300011C040E050E0BA018CE090E00E94A8066A
:104E40000E94F30A109256061092570610925806C6
:104E500010925906C0908105D0908205E09083059C
:104E6000F0908405C114D104E104F104C9F00E945A
:104E700021096C197D098E099F0997FD11C040E039
:104E800050E0BA018DE090E00E94A8060E94F30A6B
:104E9000109281051092820510928305109284056C
:104EA000BB24B39427E8E22E22E0F22E82EC96E0B7
:104EB0000E94B5098C01892B09F4DAC282EC96E0D4
:104EC0000E9493098D3091F3E091A6058A3009F094
:104ED000C3C2AE2FB0E0AA57BA4F1C92E33031F5EF
:104EE00080918605893409F074C2809187058434E5
:104EF00009F06FC2809188058F3309F06AC2CE0134
:104F000001960E94F90C63E070E08BEB93E00E9445
:104F10005009CE0101960E94550962E070E08EECC6
:104F200093E00E9450091092A605C0CFE53009F029
:104F300092C180918605893409F04BC28091870522
:104F40008E3409F046C280918805863409F041C24A
:104F5000809189058F3409F03CC280918A058F3396
:104F600009F037C2CE0101960E94F90C63E070E0AF
:104F70008BEB93E00E945009CE0101960E945509E7
:104F800062E070E08EEC93E00E9450098091CE05C3
:104F9000882309F443C182E291E00E94981980E1DC
:104FA00091E00E94981983E091E00E94981963E0D3
:104FB00070E08FEB93E00E9450098091CE0588232A
:104FC00009F433C1D7010D900020E9F7BD016858FD
:104FD000724087E892E00E94500962E070E08EEC37
:104FE00093E00E94500963E070E081ED93E00E943D
:104FF00050098091CE05882309F41CC1EDE8F2E048
:1050000001900020E9F7BF016E5872408DE892E0F0
:105010000E94500962E070E08EEC93E00E9450091B
:105020008091CE0581110CC064E070E08AED93E0C0
:105030000E9450098091A7069091A8060E94301AFC
:1050400063E070E08FED93E00E9450098091CE05FF
:10505000882309F4F4C063E972E082EC96E00E94D0
:10506000581A8091CE058823D9F165E070E083EE6F
:1050700093E00E94500940919E0250919F0270E07F
:1050800060E02AE082EC96E00E94B9196EEC73E0D1
:1050900082EC96E00E94881964E070E08AED93E06B
:1050A0000E9450098091A7069091A8060E94301A8C
:1050B00069E070E089EE93E00E94500960EA72E0D6
:1050C00082EC96E00E94581A6AE070E083EF93E069
:1050D0000E94500969EB72E082EC96E00E94581A37
:1050E00063E070E08EEF93E00E94500963E276E0A7
:1050F00082EC96E00E94581A63E070E082E094E04F
:105100000E94500968E076E082EC96E00E94581A0E
:1051100063E070E086E094E00E9450096CEE75E078
:1051200082EC96E00E94581A63E070E08AE094E016
:105130000E94500960ED75E082EC96E00E94581ADA
:1051400067E070E08EE094E00E9450098091850550
:10515000882309F47BC081E090E00E94301A65E06A
:1051600070E086E194E00E94500980911C010E9449
:10517000471A63E070E08CE194E00E94500980914E
:1051800022060E94471A63E070E080E294E00E94E9
:105190005009809107060E94471A63E070E084E29C
:1051A00094E00E9450098091EB050E94471A63E049
:1051B00070E088E294E00E9450098091CF050E943F
:1051C000471A63E070E08CE294E00E9450098091FD
:1051D0001E010E94471A63E070E080E394E00E94A1
:1051E000500980911D010E94471A63E070E084E33A
:1051F00094E00E945009809106060E94471A63E0DD
:1052000070E088E394E00E9450098091EA050E94D2
:10521000471A66E070E08CE394E083CE85EF90E07F
:105220000E94981983EE90E0C0CE6DE070E083ECB0
:1052300093E0D7CE64E070E085ED93E0E9CE62E0E4
:1052400070E08EEC93E00E9450090BCF90E080E07C
:105250000E94301ADECFE43009F0B8C08091860594
:10526000833509F0B6C080918705813409F0B1C05B
:1052700080918805863509F0ACC080918905853418
:1052800009F0A7C040912306309108062091EC0553
:105290009091D00581E0411107C0311105C0211165
:1052A00003C0911101C080E08093850510923C06F7
:1052B0004F3F11F410922306109221063F3F11F444
:1052C00010920806109205062F3F11F41092EC057B
:1052D0001092E9059F3F11F41092D00563E276E049
:1052E00086E090E00E94112160912206673008F06C
:1052F00060E080E290E00E94002160911E01673032
:1053000008F061E081E290E00E94002168E076E030
:1053100082E290E00E94112160911D01673008F047
:1053200061E08CE390E00E94002160910706673005
:1053300008F060E08DE390E00E9400216CEE75E0E3
:105340008EE390E00E9411216091EB05673008F038
:1053500060E088E590E00E940021609106066730D9
:1053600008F060E089E590E00E94002160ED75E0C2
:105370008AE590E00E9411216091CF05673008F026
:1053800060E084E790E00E9400216091EA056730C8
:1053900008F060E085E790E00E94002180911C0108
:1053A00081508E3F10F0B0921C0160911C0186E785
:1053B00090E00E9400216091850587E790E00E94BF
:1053C000002164E070E082E494E0ABCDE33008F4C7
:1053D000AACD809186058C3409F0A5CD80918805F1
:1053E0008D3309F0A0CD809187059FEC980F943004
:1053F00008F099CD08E016E0823351F00CEE15E08C
:10540000833331F003E216E0843311F400ED15E04C
:10541000E9E8F5E0D12CC12C8191882391F08C37FB
:1054200059F080324CF08F3739F02FEFC21AD20A80
:105430003AE1C316D10481F765E070E080ED94E0B5
:1054400070CDA60169E875E0C8010E9489370C0D8E
:105450001D1DD8011C92B5CFEF3108F064CD91E04D
:105460009E0F9093A605F0E0EA57FA4F80831ECD79
:105470009091FA078091F907981749F08091FA07FF
:105480008093F90781E0639B1FC48093B7068091E6
:10549000B806882309F44CC11092B80664E170E0A4
:1054A00080E090E00E94F0088091CD05882309F407
:1054B0009BC00E9421094B015C018091C90590911C
:1054C000CA05A091CB05B091CC0575016401C81A3D
:1054D000D90AEA0AFB0AD701C60180329E44A10517
:1054E000B10508F481C08091C7059091C80521E0FD
:1054F00030E06901C81AD90A90E4292E93E0392EC8
:10550000C114D10421F480E2282E83E0382E8EEDE0
:1055100090EC9A83898381E08B831C828091AB0518
:105520009091AC05A091AD05B091AE050196A11D7D
:10553000B11D8D839E83AF83B8878091A90690911A
:10554000AA069A8789878091AB069091AC06A091B4
:10555000AD06B091AE068B879C87AD87BE87FE01F6
:105560003F9680E1DF011D928A95E9F7CE01019611
:105570000E948E0698A38F8FFE013196FAA3E9A3AD
:10558000F12CE12CA9A1BAA16D91BAA3A9A3C101E3
:105590008E0D9F1D0E940021BFEFEB1AFB0AEEE16A
:1055A000EE16F10479F76F8DC1014E960E9400212D
:1055B00068A1C1014F960E94002180E2FE01319650
:1055C000A7EAB5E001900D928A95E1F7D092C8055F
:1055D000C092C7058092C9059092CA05A092CB05DA
:1055E000B092CC051092CD05FFB6F89410928000D1
:1055F0001092810060E089E00E947F0710929E0671
:10560000FFBE1092D8021092D70280916800886085
:10561000809368008091730088608093730060E0DD
:105620008AE00E947F0765E070E080E090E00E94E1
:10563000F00882EC96E00E94360AE091D406F091E0
:10564000D5068081877480838091DC068093DB0699
:1056500060E080E00E94AC0760E081E00E94AC075F
:1056600060E080E00E947F0760E081E00E947F07A9
:1056700060E085E00E947F0764E170E080E090E0F8
:105680000E94F00860E082E00E947F0783B7817F7C
:10569000846083BFF89410927A00809164008FEF49
:1056A00080936400809165008D638093650083B76B
:1056B000816083BF80E685BF80E485BF789488954C
:1056C00083B78E7F83BF80916400109264008091C5
:1056D0006500827C80936500E091D206F091D3064C
:1056E00082E08083E091D206F091D3061082E091AF
:1056F000CE06F091CF061082E091D006F091D1064F
:1057000080E180831092DA06E091D606F091D70608
:1057100086E08083E091D406F091D5068081886987
:105720008083E091D406F091D50680818F7D8083BF
:105730008091B7068823A1F01092B7068091680087
:105740008860809368008091730088608093730004
:105750001092D8021092D7021092D6020E943D1DDC
:105760008091D902882309F4FCC280914C068111F2
:105770000EC01092D8021092D7021092D602109248
:1057800080001092810060E089E00E947F07809194
:105790002201882309F496C080914B0681115DC0D7
:1057A0000E9421090E94210960935F07709360079E
:1057B000809361079093620787E697E00E94E20C6E
:1057C00060E371E087E697E00E94E20A40E060E073
:1057D00087E697E00E94440B67E474E087E697E071
:1057E0000E946F1A67EC74E087E697E00E94E20A75
:1057F00045E060E087E697E00E94440B60919B06DD
:1058000087E697E00E94411A45E067E187E697E066
:105810000E94440B6FE474E087E697E00E946F1AE1
:1058200045E066E487E697E00E94440B63E574E098
:1058300087E697E00E946F1A8091CE056DE872E0CE
:10584000811102C065ED73E087E697E00E946F1A50
:105850000E948C1881E080934B060E942109C09021
:105860005F07D0906007E0906107F09062076C19C5
:105870007D098E099F096C3D75408105910510F1E8
:105880000E94210960935F0770936007809361070E
:105890009093620710924B0610922201809123068A
:1058A00081110DC080910806811109C08091EC051D
:1058B000811105C08091D005882309F408C281E0D8
:1058C00080934A0680914A06882309F4BCC08091DF
:1058D0004B0681118EC00E94210960935F0770936F
:1058E0006007809361079093620787E697E00E94C4
:1058F000E20C67EC74E087E697E00E94E20A809190
:105900001E018093700783E296E00E94920A6091E4
:105910006D0770E0681B790B7695679540912206BC
:1059200087E697E00E94440B63E276E087E697E023
:105930000E94581A80911D018093700788E096E0BC
:105940000E94920A60916D0770E0681B790B769552
:1059500067954091070687E697E00E94440B68E050
:1059600076E087E697E00E94581A809106068093B9
:1059700070078CEE95E00E94920A60916D0770E0CE
:10598000681B790B769567954091EB0587E697E064
:105990000E94440B6CEE75E087E697E00E94581A6F
:1059A0008091EA058093700780ED95E00E94920A4D
:1059B00060916D0770E0681B790B76956795409153
:1059C000CF0587E697E00E94440B60ED75E087E61F
:1059D00097E00E94581AFF24F394F092700767EC46
:1059E00074E087E697E00E94E20A0E948C18F09229
:1059F0004B060E942109C0905F07D0906007E0909D
:105A00006107F09062076C197D098E099F09643364
:105A1000784081059105B8F00E94210960935F07E5
:105A200070936007809361079093620710924B0612
:105A30001092220110924A0681E080934C0687E67C
:105A400097E00E94E20C80914C06882309F439C14A
:105A500080914B06811136C0FF24F394F0924B06DF
:105A60000E94210960935F0770936007809361072C
:105A7000909362078091490681110EC0F092490609
:105A80008091D802809321018091D70280932001D8
:105A90008091D60280931F011092D8021092D702F3
:105AA0001092D6020E948C18109248061092470657
:105AB0000E94210960934306709344068093450633
:105AC000909346065AE0F52E8AE10E94E807080FF7
:105AD000191FFA94F110F8CFC8016AE070E00E9433
