:100000000C94A6090C94CE090C94CE090C94CE093C
:100010000C94CE090C94CE090C94CE090C94CA1DF4
:100020000C94CE090C94CE090C94CE090C94CE09F4
:100030000C94CE090C94CE090C94CE090C94CE09E4
:100040000C94B61E0C94CE090C94841E0C945E1E67
:100050000C94CE090C94001F0C94CE090C94CE097C
:100060000C94CE090C94CE090C94CE090C94B41FB8
:100070000C94CE090C94CE090C94CE090C94CE09A4
:100080000C94CE090C94C81F0C94CE090C94CE0984
:100090000C94CE090C94CE090C94CE090C94CE0984
:1000A0000C94CE090C94CE090C94CE090C94CE0974
:1000B0000C94CE09AED580A83FD300408D14200209
:1000C000A1C8DA1281FFD9F1DB40A4A6AFB40019B0
:1000D00080400000030C0F30333C3FC0C3CCCFF056
:1000E000F3FCFF00000000240027002A002D000080
:1000F000901C242060080000000020000000000088
:1001000000000A0000150F15141615151414150813
:1001100000000000000000000000000000000000DF
:1001200000000018000000001700000000000000A0
:1001300000000000000000001500000000000800A2
:100140000000001400000000000E00000000160077
:10015000000000000000000000000000000000009F
:10016000000000000000000000000000000000008F
:1001700000000000000000000000000000C0F0F8D7
:10018000FC7C1C1C1C7CFCF8F8C00000000000007B
:10019000C0F0FC7C1C0400000000000000071F3FB2
:1001A0007F7C7070707C7F3F3F070080E0F8FE3FEF
:1001B0001F07010000000000000000000000000018
:1001C00000000000000000C0E0F8FE3F0F03000048
:1001D000F0FEFEFF1F0707071FFFFEFCF0000000F8
:1001E00000000000101C1F1F07030000000000009B
:1001F000010F0F1F1F1C1C1C1F1F0F0701000000F9
:1002000000000000000000000000000000000000EE
:1002100000000000000000000000000000000000DE
:1002200000000000000000000000000000000000CE
:10023000001F1F1F1F1F1F1F1F1F1F000000000088
:1002400000000000000000000000000000000000AE
:10025000C0F0F0F8F8FCFC7C7C7C7CFCFCF8F8F04E
:10026000E0C00000FFFFFFFFFFFFFF0000000000F5
:1002700000FFFFFFFFFFFFFF003FFFFFFFFFFFFF4C
:10028000C080808080C0FFFFFFFFFFFF3F000000B5
:100290000307070F0F0F0F0F0F0F0F0F0F070703A6
:1002A000010000000000000000000000000000004D
:1002B00000000000000000000000008080C0E0F0AE
:1002C000FCFCFCFCFCFCFC3F3F3F1F1F0F07FFFF3B
:1002D000FFFFFFFFFFFF00000000000000FFFFFF27
:1002E000FFFFFFFFFF000000000000000F0F0F0FD7
:1002F0000F0F0F0F000000000000000000000000C2
:1003000000000000C0E0F0F8F8FCFCFC7C7C7C7C89
:10031000FCFCFCF8F8F0E0C0000303030303030354
:100320000080C0C0E0F8FFFFFFFF7F3F0F0080C0EC
:10033000F0F8FCFEFFFFFFFFDFCFC7C7C3C1C0C09F
:10034000C0C00F0F0F0F0F0F0F0F0F0F0F0F0F0F5B
:100350000F0F0F0F0F0F0F00000000000000000034
:1003600000000000000000000000000080E0F0F845
:10037000F8FCFC7C7C3C7C7CFCFCFCF8F8F0C000CD
:100380000101010101010100F0F0F8F8FFFFFFFF9A
:10039000DF8F8700E0E0E0E0E0E0E08001010101C4
:1003A00083FFFFFFFFFFFFFF00010307070F0F0F92
:1003B0000F0F0F0F0F0F0F070703010000000000C2
:1003C000000000000000000000000000000000002D
:1003D000000000000000000080C0E0F8FCFCFCFC15
:1003E000FCFCFC0000000080C0E0F0FCFEFF7F1F72
:1003F0000F0703FFFFFFFFFFFF0000007F7F7F7FEE
:100400007F7F7D7C7C7C7C7C7CFFFFFFFFFFFF7C13
:100410007C7C000000000000000000000000000FD5
:100420000F0F0F0F0F000000000000000000000081
:1004300000000000000000000000000000000000BC
:10044000FCFCFCFCFCFCFCFCFCFCFCFCFCFCFCFCEC
:10045000FC00000000FFFFFFFFFFF878787878F8D5
:10046000F8F8F8F0E0E0800000E0E0E1E1E1E180B0
:100470000000000080FFFFFFFFFFFF7F1E00010361
:1004800007070F0F0F0F0F0F0F0F0F0F07070301B6
:10049000000000000000000000000000000000005C
:1004A0000000000000000000C0E0F0F8F8FCFC7C58
:1004B0003C3C3C7CFCFCF8F8F0E00000FEFFFFFF59
:1004C000FFFFFFE1F0787878F8F8F8F8F0E0C08006
:1004D000003FFFFFFFFFFFFFC18000000080C1FF62
:1004E000FFFFFFFFFF3E0000010307070F0F0F0F85
:1004F0000F0F0F0F0F0F0703030000000000000095
:1005000000000000000000000000000000000000EB
:10051000FCFCFCFCFCFCFCFCFCFCFCFCFCFCFCFC1B
:10052000FCFCFCFC0000000000000000C0F0F8FE35
:10053000FFFF7F1F0F0301000000000000E0FCFF31
:10054000FFFFFFFF0F01000000000000000000009F
:100550000E0F0F0F0F0F0F01000000000000000032
:10056000000000000000000000000000000000008B
:100570000000000080E0F0F8F8FCFC7C3C3C3C7C97
:10058000FCFCFCF8F8F0E080030F9FFFFFFFFFF892
:10059000F0F0F0F0FCFFFFFFFF9F0F03FEFFFFFFF7
:1005A000FFFFFF830100000183FFFFFFFFFFFFFE4E
:1005B000000307070F0F0F0F0F0F0F0F0F0F0F077E
:1005C000070701000000000000000000000000001C
:1005D000000000000000000000C0E0F0F8F8FCFCA3
:1005E0007C3C3C7C7CFCFCF8F8F0E0C0003F7FFFEA
:1005F000FFFFFFFFE0C0808080C0E0FFFFFFFFFF44
:10060000FFFE00C0C1C3C3C7C7C78707070783E191
:10061000FFFFFFFFFFFF3F00000103070F0F0F0F5A
:100620000F0F0F0F0F0F070703010000000000005E
:1006300000000000000000000000000000000000BA
:10064000000000000000000000FEFEFEFEFEFEFEB8
:10065000FEE0E0E0E0E0E0E0E00F0F0F0F0F0F0F33
:100660000F0000000000000000FCFCFCFCFCFCFC97
:10067000F8F0C080000000000000FCFCFCFCFCFC6A
:10068000FCFFFFFFFFFFFFFF7FFFFFFFFEFCF0E02F
:100690008000FFFFFFFFFFFFFFFFFFFFFFFFFFFFE8
:1006A000000001070F3F7FFFFFFFFFFFFFFFFFFF7E
:1006B000FF0F0F0F0F0F0F0F0000000000000001D1
:1006C000030F0F0F0F0F0F0F0F00000000000000AF
:1006D000000000000000000000000000000000001A
:1006E0000000E0F0F0F8F8FCFC7C7C7C7C7CFCFCFE
:1006F000FCF8F8F0E0C00000071F3F7FFFFFFFFF9E
:10070000FCFCF8F8F8F8F3F3F3E3E3C3830000F834
:10071000F8F8F8F8F8F8E1C18183838387CFFFFF09
:10072000FFFFFFFFFF7E00010307070F0F0F0F0FF3
:100730000F0F0F0F0F0F0F0707030100000000003E
:1007400000000000000000000000000000000000A9
:100750000000000000000000000000000000000099
:1007600000000000000000000000C0F0F8F8FCFCF1
:10077000FE7E7E3E3E3E7EFEFEFCFCF8F0E01EFF6E
:10078000FFFFFFFFFFF3C08080008080C0E0E0E05B
:10079000E0E0E00000010307070F0F0F0F0F0F0F3E
:1007A0000F0F0F0F07030300000000000000000000
:1007B000000000000000000000000000007C7C7CC5
:1007C0007C7C7C7C7CFEFEFEFEFEFEFEFEFFFFFFD0
:1007D000FFFFFFFFFF0F0F0F0F0F0F0F0F000000A6
:1007E0000000000000000000000000000000000009
:1007F000000000000000000000FEFEFEFEFEFEFE07
:10080000F0787C7C7EFEFEFEFEFCFCF8E0FFFFFF45
:10081000FFFFFFFF000000000000FFFFFFFFFFFFE2
:10082000FF0F0F0F0F0F0F0F0000000000000F0F42
:100830000F0F0F0F0F00000000000000000000006D
:10084000000000000000000000000000E0E0F0F008
:10085000F8F8F8000000007E7E7EFFFFFFFFFFFF3C
:10086000FF7E7E7E7E000000FFFFFFFFFFFFFF8018
:1008700080808000000003070F0F0F0F0F0F0F0F76
:100880000F00000000000000000000000000000059
:100890000000000000000000000000000000000058
:1008A0000000000000021E7EFEFEFEFEFCF0800046
:1008B000000080F8FEFEFEFEFE3E06000000010F76
:1008C0003FFFFFFFFFF8E0FCFFFFFFFF3F070000D7
:1008D0000000C0C08080C0C1E7FFFFFFFFFFFF3FF7
:1008E0000700000000000000307070F0F0F0F0F041
:1008F00070703010000000000000000000000005D3
:100900000F7C011020FF201000901C087C0180004B
:10091000000000000F0101010101010101010101BD
:10092000010101010101010F0101010101010101A9
:1009300001010101010101010101010F0101010199
:100940000101010101010101010101010101FF0199
:100950000101010101010101010101010101010187
:10096000010F010101010101010101010101010169
:1009700001010101010F0101010101010101010159
:100980000101010101010101010F0000000000004F
:10099000000A0F205F0000000000000000000000BF
:1009A00000000000000000000000000000FEFE004B
:1009B0000000000000000019190000000000001EE7
:1009C0001E00001E1E0000000000000000000000CD
:1009D000000030FEFE3030FEFE300000031F1F031B
:1009E000031F1F03000070F8D8FE98980000000055
:1009F0000C18187F191F0F00001CB6A2F6CC6060FF
:100A00002030000101000E1B111B0E00000000DC55
:100A10007EE6C6860C808000070F1C18191F1E1F5B
:100A200013000000001E1E00000000000000000077
:100A30000000000000000000E0FC1E0200000000BA
:100A40000000073F78400000000000021EFCE000AC
:100A5000000000000040783F070000000000F0FCAC
:100A60000E86C66EFCFC06301B0F1F31181C0F03D0
:100A70000000808080F0F080808000000101010F84
:100A80000F01010100000000000000000000000054
:100A90000000407C3C00000000000000000000005E
:100AA0000000000000030303030300000000000037
:100AB00000000000000000000000001C1C000000FE
:100AC0000000000000C0F03C0E02000020381E07AD
:100AD000010000000000F0FC0EC6C60EFCF800008D
:100AE000030F1C18181C0F070000000C06FEFE0068
:100AF000000000001818181F1F18181800000C0616
:100B0000060686C67C380000181C1E1B191818180B
:100B100000000C06C6C6C6C6FC3800000C18181823
:100B200018190F0F000080C070180EFEFE000000A4
:100B300003030303031F1F030000FE7E666666E6D1
:100B4000C68000000C181818181C0F070000F0FCD5
:100B5000CE6666E6CC800000070F1C18181C0F0735
:100B6000000006060606E6FE3E0E000000101C0F02
:100B700003000000000038FCC6C6C6C6FC380000F2
:100B80000F0F181818180F0F000078FCCE8686CEAD
:100B9000FCF80000000C1919191C0F0300000000DC
:100BA00000E0E000000000000000001C1C0000004D
:100BB0000000000000E0E000000000000000407CB9
:100BC0003C00000000008080C040606020300000D9
:100BD000010103020606040C0000606060606060B2
:100BE00060600000060606060606060600003020C5
:100BF000606040C0808000000C0406060203010112
:100C000000000C0686C6667E1C00000000001B1B50
:100C10000000000000E0F0389CCCCCDCF8F00007CD
:100C20001F38736766667727000000C0FC3E3EFCF5
:100C3000C0000000181F0F03030F1F180000FEFE66
:100C4000C6C6C6C6FC3C00001F1F181818181F0F88
:100C50000000F0FC0C060606060C0000030F0C1842
:100C60001818180C0000FEFE0606060CFCF000002A
:100C70001F1F1818180C0F030000FEFEC6C6C6C6BC
:100C8000C60600001F1F1818181818180000FEFECE
:100C9000C6C6C6C6C60600001F1F00000000000032
:100CA0000000F0FC0C068686868C0000030F0C18F2
:100CB00019191F0F0000FEFEC0C0C0C0FEFE0000DC
:100CC0001F1F000000001F1F0000000606FEFE069A
:100CD000060000000018181F1F1818000000000070
:100CE00000060606FEFE00000C18181818180F0F54
:100CF0000000FEFEE0F0FC0E060200001F1F0000D8
:100D0000030F1E180000FEFE00000000000000009F
:100D10001F1F1818181818180000FEFE3EF0F03EAD
:100D2000FEFE00001F1F000101001F1F0000FEFE4D
:100D30001EF0C000FEFE00001F1F0000031E1F1F4C
:100D40000000F0FC0E06060EFCF00000030F1C185D
:100D5000181C0F030000FEFEC6C6C6C67C7C000041
:100D60001F1F0000000000000000F0FC0E06060E31
:100D7000FCF00000030F1C18183C6F070000FEFE7B
:100D8000C6C6C6C6FC3C00001F1F000001031F1E94
:100D90001000387CE6C6C6C68C0000000C18181877
:100DA00018190F0F0000060606FEFE0606060000D4
:100DB0000000001F1F0000000000FEFE00000000F9
:100DC000FEFE0000070F1C18181C0F07000006FE8F
:100DD000FC0000FCFE06000000001F1F1F1F00009B
:100DE000001EFEE000F0F000E0FE1E001F1F1E01CE
:100DF000011E1F1F0000020E3EF8F83E0E0200000A
:100E0000101C1F03031F1C1000020E3E78E0E07848
:100E10003E0E02000000001F1F000000000006063A
:100E200086C6F67E1E0E00001C1E1F1B1818181802
:100E300000000000FEFE02020000000000007F7FB4
:100E4000404000000000020E38E08000000000007A
:100E500000000000030E38200000000202FEFE0029
:100E6000000000000040407F7F0000000010181CC0
:100E70000E060E1C1810000000000000000000000C
:100E80000000000000000000000000404040404022
:100E90004040404040000001030604000000000004
:100EA00000000000000000000000006030B0B0B0A2
:100EB000F0E000000E1F1B19190D1F1F0000FEFEA1
:100EC00060303070E0C000001F1F0C18181C0F07A6
:100ED0000000C0E07030303030600000070F1C1898
:100EE0001818180C0000C0E070303060FEFE0000E2
:100EF000070F1C18180C1F1F0000C0E0B0B0B0B0E6
:100F0000E0C00000070F1D191919190D000030303D
:100F1000FCFE36363600000000001F1F00000000F7
:100F20000000C0E070303060F0F0000003376E6CFD
:100F30006C667F3F0000FEFE60303030F0E0000065
:100F40001F1F000000001F1F0000003030F7F700D7
:100F5000000000001818181F1F1818180000003093
:100F600030F7F700000000006060607F3F00000085
:100F70000000FEFE80E07030100000001F1F010323
:100F8000071E181000000606FEFE0000000000000C
:100F900000000F1F181818000000F0F030F0E030CB
:100FA000F0E000001F1F001F1F001F1F0000F0F0D7
:100FB00060303030F0E000001F1F000000001F1FF5
:100FC0000000C0E070303070E0C00000070F1C1857
:100FD000181C0F070000F0F060303070E0C0000017
:100FE0007F7F060C0C0E07030000C0E070303060FD
:100FF000F0F0000003070E0C0C067F7F000000F0ED
:10100000F060303030300000001F1F000000000092
:101010000000E0F0B0B0B0B0306000000C19191959
:10102000191B1F0E00003030FCFC30303000000077
:1010300000000F1F181818000000F0F0000000005A
:10104000F0F000000F1F1818180C1F1F000030F0E0
:10105000E00000E0F030000000010F1E1E0F010054
:101060000070F00000C0C00000F07000071F1E03F9
:10107000031E1F0700001030F0C0C0F03010000049
:1010800010181E07071E1810000010F0F08000F066
:10109000F03000000060637F1F0F0100000030305F
:1010A0003030B0F070300000181C1E1B19181818D2
:1010B0000000000000FCFE02020000000001013EF2
:1010C0007E4040000000000000FEFE000000000026
:1010D0000000007F7F0000000000000202FEFC0014
:1010E000000000000040407E3E010100000080C082
:1010F000C0C0808080C0000001000000010101002C
:1011000000000005072060000000000000005F00F4
:10111000000003000300143E143E14242A7F2A1208
:10112000433308666136495522500005030000002C
:101130001C2241000041221C0014083E081408082B
:101140003E08080050300000000000080800606001
:10115000000020100804023E5149453E0004027F71
:1011600000426151494622414949361814127F1004
:1011700027454545393E494949320101710907363C
:1011800049494936264949493E003636000000564D
:1011900036000008142241001414141414004122D3
:1011A000140802015109063E4159555E7E0909099C
:1011B0007E7F494949363E414141227F4141413E7E
:1011C0007F494949417F090909013E4141493A7F27
:1011D0000808087F00417F4100304040403F7F08C1
:1011E0001422417F404040407F020C027F7F020476
:1011F000087F3E4141413E7F090909061E21212108
:101200005E7F09090976264949493201017F0101BA
:101210003F4040403F1F2040201F7F2010207F4143
:10122000221C224107087008076151494543007F8D
:1012300041000002040810200000417F0004020168
:101240000204404040404000010204002054545435
:10125000787F444444383844444444384444447FC8
:10126000385454541804047E0505085454543C7FE3
:101270000804047800447D40002040443D007F1075
:1012800028440000417F40007C047804787C0804F6
:10129000047838444444387C141414080814141492
:1012A0007C007C080404485454542004043F444403
:1012B0003C4040207C1C2040201C3C4030403C44B2
:1012C000281028440C5050503C4464544C440008AE
:1012D00036414100007F0000414136080002010212
:1012E00004027F7F7F7F7F0000000023002600290B
:1012F000002C0000000008000201000003040700A9
:1013000000000000000000000000000201020408CC
:10131000102040800102040810200102040810205F
:101320000408010200000000250028002B002E0008
:10133000040404040404040402020202020203037B
:101340000303030305050505F321632F11241FBEC5
:10135000CFEFD8E0DEBFCDBF12E0A0E0B1E0EEE11C
:10136000FBE602C005900D92AC35B107D9F724E039
:10137000ACE5B2E001C01D92AB3AB207E1F719E06B
:10138000C5EAD9E004C02197FE010E947633C43A31
:10139000D107C9F70E9438230C9482350C940000C1
:1013A0004F925F926F927F928F929F92AF92BF9275
:1013B000FF922091F2033091F3038217930708F014
:1013C00043C02B0166247724852E962EA72EBB249E
:1013D000B82DA42F2091F803F42C222391F0E22FB2
:1013E000F0E0E49DD001E59DB00DF49DB00D112419
:1013F000FB2E289D40011124B92D249F900111241A
:10140000A32FE091FE032091F9033091FA0350914C
:10141000FB03E51323C0FC01EE0FFF1F8E0F9F1F80
:10142000820F931FE091FB03E80FF92FF11DF0826B
:10143000E091FC03E80FF92FF11DB0832091FD032B
:10144000820F911DFC01A083FF90BF90AF909F90F1
:101450008F907F906F905F904F900895880F991FA5
:10146000880F991F820F931FE80FF92FF11D10822B
:10147000D9CFE091DA03F091DB030196880F991F31
:10148000880F991FE80FF91FDF0114978081918160
:101490002D913C91821B930B69E070E00E946233B6
:1014A000892B11F06F5F7F4FCB010895AF92BF92F0
:1014B000CF92DF92EF92FF920F931F93CF93DF9320
:1014C0006C017B018B01040F151FEB015E01AE184F
:1014D000BF08C017D10759F06991D601ED91FC9171
:1014E0000190F081E02DC6010995892B79F7C5019E
:1014F000DF91CF911F910F91FF90EF90DF90CF90F0
:10150000BF90AF900895FC01448155816081718145
:1015100086E094E00C94560AFC01538D448D252FEF
:1015200030E0842F90E0821B930B541710F0CF967D
:10153000089501970895FC01918D828D981761F0AF
:10154000A28DAE0FBF2FB11D5D968C91928D9F5FC6
:101550009F73928F90E008958FEF9FEF0895FC01A5
:10156000918D828D981731F0828DE80FF11D858D58
:1015700090E008958FEF9FEF0895FC01918D228DEB
:10158000892F90E0805C9F4F821B91098F73992770
:1015900008958DE393E00E94BD0A21E0892B09F4B0
:1015A00020E0822F0895FC01A48DA80FB92FB11D52
:1015B000A35ABF4F2C91848D90E001968F73992789
:1015C000848FA689B7892C93A089B1898C91837067
:1015D00080648C93938D848D981306C00288F38960
:1015E000E02D80818F7D80830895EF92FF920F938D
:1015F0001F93CF93DF93EC0181E0888F9B8D8C8DBF
:1016000098131AC0E889F989808185FF15C09FB7B2
:10161000F894EE89FF896083E889F9898081837075
:10162000806480839FBF81E090E0DF91CF911F9124
:101630000F91FF90EF900895F62E0B8D10E00F5F45
:101640001F4F0F731127E02E8C8D8E110CC00FB61B
:1016500007FCFACFE889F989808185FFF5CFCE01B3
:101660000E94D30AF1CFEB8DEC0FFD2FF11DE35A51
:10167000FF4FF0829FB7F8940B8FEA89FB89808136
:101680008062CFCFCF93DF93EC01888D8823B9F0B0
:10169000AA89BB89E889F9898C9185FD03C080817D
:1016A00086FD0DC00FB607FCF7CF8C9185FFF2CFFA
:1016B000808185FFEDCFCE010E94D30AE9CFDF9173
:1016C000CF91089580E090E0892B29F00E94C90A0B
:1016D00081110E94000080E090E0892B49F080E0B9
:1016E00090E0892B29F00E94000081110C940000E9
:1016F000089581508D3008F03DC0E82FF0E0ED579F
:10170000F44F0C9476339A0B9E0B900B960BBA0BFE
:10171000BA0BA10BA70BAB0BB10BBA0BB50BBB0BE9
:10172000809180008F778093800008958091800061
:101730008F7DF9CF84B58F7784BD089584B58F7D73
:10174000FBCF8091B0008F778093B0000895809197
:10175000B0008F7DF9CF809190008F7780939000BB
:101760000895809190008F7DF9CF8091A0008F77B0
:101770008093A00008958091A0008F7DF9CFCF9332
:10178000DF93E3E0F3E18491ECE1F3E1D491E0E471
:10179000F3E1C491CC23A1F081110E94790BEC2FCD
:1017A000F0E0EE0FFF1FE951FD4EA591B491EC91D1
:1017B000ED2381E090E009F480E0DF91CF9108957E
:1017C00080E090E0FACF1F93CF93DF93282F30E093
:1017D000F901ED50FD4E8491F901E45FFC4ED49186
:1017E000F901E05DFC4EC491CC23A9F0162F8111C4
:1017F0000E94790BEC2FF0E0EE0FFF1FEC5DFC4E2A
:10180000A591B4918FB7F894EC91111108C0D095BF
:10181000DE23DC938FBFDF91CF911F910895DE2BE4
:10182000F8CFCF93DF9390E0FC01E45FFC4E24916E
:10183000805D9C4EFC0184918823C9F090E0880F64
:10184000991FFC01ED51FF4FA591B491FC01EC5D96
:10185000FC4EC591D49161110DC09FB7F8948C9145
:10186000209582238C938881282328839FBFDF9132
:10187000CF910895623051F49FB7F8943C91822F34
:10188000809583238C93E8812E2BEFCF8FB7F8942C
:10189000EC912E2B2C938FBFEACF4F925F926F92D9
:1018A0007F928F929F92AF92BF92CF92DF92EF92F0
:1018B000FF920F931F93CF938C014A015B0180919C
:1018C0001701893099F08F3F09F453C0CF911F91D0
:1018D0000F91FF90EF90DF90CF90BF90AF909F90CF
:1018E0008F907F906F905F904F900895EBE0F3E1C1
:1018F000C491C7FDEBCF61E089E00E94110C280183
:10190000712C612CCC23F1F0980150E040E0C23002
:1019100009F0E2C028013A0160E970ED83E090E04F
:101920000E94953169017A0181E0C81AD108E10865
:10193000F10893E08FEFC816D104E104F10409F037
:101940000CF461C168E478EE81E090E0A3019201BB
:101950000E94953169017A0181E0C81AD108E10835
:10196000F10894E0C1114FC185B5887F836085BDC2
:10197000C8C089E080931701EBE0F3E1C4918C2F9C
:10198000CF3F09F4A3CFC23009F466C060F4CC2382
:1019900069F1C13009F442C087FD98CF61E089E068
:1019A0000E94110CB1CFC33009F478C0C430A1F744
:1019B0001092A0001092A1008091A10088608093F5
:1019C000A1008091A10081608093A100E9E3F3E18F
:1019D000E491F0E0EE0FFF1FEC5DFC4E85919491D9
:1019E000E5E1F3E1E491E093220385CF14BC15BC5B
:1019F00084B5826084BD85B5816085BDE9E3F3E18E
:101A0000E491F0E0EE0FFF1FEC5DFC4E85919491A8
:101A1000E5E1F3E1E491E09328036DCF10928000BB
:101A20001092810080918100886080938100809174
:101A30008100816080938100E9E3F3E1E491F0E0CB
:101A4000EE0FFF1FEC5DFC4E85919491E5E1F3E113
:101A5000E491E09327034FCF1092B0001092B100B1
:101A60008091B00082608093B0008091B10081606D
:101A70008093B100E9E3F3E1E491F0E0EE0FFF1FA2
:101A8000EC5DFC4E85919491909326038093250301
:101A9000E5E1F3E1E491E09324032DCF109290006F
:101AA00010929100809191008860809391008091C4
:101AB0009100816080939100E9E3F3E1E491F0E02B
:101AC000EE0FFF1FEC5DFC4E85919491E5E1F3E193
:101AD000E491E09323030FCF60E072E18AE790E0A6
:101AE0000E94953169017A0181E0C81AD108E108A4
:101AF000F108C13071F580918100887F8160809309
:101B00008100D801AA0FBB1FA50194010E94B43126
:101B100028EE33E040E050E00E94FE31C230D1F1C7
:101B20000CF05AC0CC2339F1C13009F0CFCED0929D
:101B30008900C09288002093350330933603409388
:101B400037035093380380916F00826080936F0059
:101B5000BDCEC33039F480919100887F816080933D
:101B60009100CFCFC43069F68091A100887F816059
:101B70008093A100C6CFC7BC2093390330933A03AA
:101B800040933B0350933C0380916E0082608093AE
:101B90006E009CCEC092B300209331033093320389
:101BA000409333035093340380917000826080939C
:101BB00070008CCED0929900C092980020932D0393
:101BC00030932E0340932F03509330038091710084
:101BD0008260809371007ACEC33061F3C43009F023
:101BE00075CED092A900C092A8002093290330930B
:101BF0002A0340932B0350932C0380917200826040
:101C00008093720063CE8091B100887F892B80938E
:101C1000B10077CF8E50806480937C0080917A00F1
:101C2000806480937A0080917A0086FDFCCF809159
:101C300078009091790008953FB7F8948091AF02B1
:101C40009091B002A091B102B091B20226B5A89BCA
:101C500005C02F3F19F00196A11DB11D3FBFBA2F3E
:101C6000A92F982F8827BC01CD01620F711D811DFE
:101C7000911D42E0660F771F881F991F4A95D1F783
:101C800008950F931F93CF93DF93CDB7DEB72997B6
:101C90000FB6F894DEBF0FBECDBF8091F9039091CF
:101CA000FA03892B09F47CC00E941C0E0091FF03EB
:101CB0001091000420910104309102046017710713
:101CC0008207930740F46093FF03709300048093AE
:101CD0000104909302040091FF03109100042091ED
:101CE000010430910204601B710B820B930B6C3268
:101CF000714081059105C0F2F8948091F4039091B0
:101D0000F5039A838983E091F903F091FA03DF01E7
:101D10001196808189879091F003E0910304F091FE
:101D2000040480910504992309F445C09081982BFF
:101D300098879081809589238F838F818C8388E019
:101D40008B8358856F8149853B812C8189819A815C
:101D5000508347FD252F3A952083262F39F0441FC5
:101D600000C000006083000000C0F2CF38E04D9159
:101D700060830000019761F7F0930404E09303048B
:101D800049873B832C839A83898378940E941C0E15
:101D90006093FF0370930004809301049093020406
:101DA00029960FB6F894DEBF0FBECDBFDF91CF915D
:101DB0001F910F9108959081982B9887908180951D
:101DC00089238F838F818E8388E08D8358856F81EF
:101DD00049853D812E8189819A81508347FD252F38
:101DE00000C000C0208300C000C000C000C000C010
:101DF00060830000262F3A9541F0441F000000C088
:101E000000C000C000C000C0E8CF38E04D9100C065
:101E1000608300C0019709F7F0930404E093030482
:101E200049873D832E83AFCF8F929F92AF92BF920F
:101E3000CF92DF92EF92FF924B015C010E941C0E49
:101E40006B017C010E941C0E6C197D098E099F0993
:101E5000683E734081059105A8F321E0821A91083C
:101E6000A108B10888EEC80E83E0D81EE11CF11C61
:101E700081149104A104B10429F7FF90EF90DF9041
:101E8000CF90BF90AF909F908F9008952FB7F89408
:101E90006091AB027091AC028091AD029091AE0264
:101EA0002FBF0895CF93DF93EC018D85882329F010
:101EB00081508D87DF91CF9108959C818E819817F5
:101EC000C8F788896827E881F9810084F185E02DC9
:101ED00042E0CE0109958C818F5F8C83EBCFDC01D2
:101EE0001E96ED91FC9184913196E491982F8E2F5E
:101EF0000895909315048093140486E094E00E9462
:101F00006F0F019719F410920F04089581E08093E8
:101F10000F040895CF92DF92EF92FF920F931F93D9
:101F2000CF93DF93EC0110E000E0E990EE2041F068
:101F30008091140490911504009761F410E000E082
:101F4000C801DF91CF911F910F91FF90EF90DF902B
:101F5000CF900895FC013496C4903196E491EC142E
:101F600068F3F12CD12CEC0DFD2DF11DEE16FF06C2
:101F70002CF786E094E00E946F0FE0911404F0913A
:101F80001504209117040297D0F086E0E80EF11CAA
:101F9000EC18FD08EE0DFF1DE491E29FE02D1124E9
:101FA000EE2361F280910F0490911704899F802D98
:101FB00011248E0F9927991F080F191FB6CF32963B
:101FC000EBCFDC01ED91FC910084F185E02D40E048
:101FD00009940F931F93CF938C01FC016483C085F8
:101FE000C60F6C2F6F700E94E10F6C2F62956F709F
:101FF0006061C801CF911F910F910C94E10FFC011A
:102000002781269526952695621738F465832385C2
:10201000620F6770606B0C94E10F08951F93CF936C
:10202000DF93EC01142F8E81681718F4CE010E9403
:10203000E90F612FCE01DF91CF911F910C94FF0F1B
:10204000CF92DF92EF92FF920F931F93CF93DF9384
:10205000EC01F62EC42ED22E1D868F818695869594
:102060008695081710F00FEF080F1D2D011780F04F
:10207000412F6F2DCE010E940E10EF2CCE1430F0A8
:102080006889CE010E94520FE394F8CF1F5FEECF14
:102090004D2D6F2DCE01DF91CF911F910F91FF90AC
:1020A000EF90DF90CF900C940E100F93DC011596FB
:1020B0002C9115971E96ED91FC911F9700E030979B
:1020C00079F03396E491F0E0379683E0F595E79563
:1020D0008A95E1F751960C9151970E9F002D11248E
:1020E000EFEFE20F0E0F16964C9116974150149693
:1020F0006C911497CD010E9420100F9108952F929A
:102100003F924F925F926F927F928F929F92AF9287
:10211000BF92CF92DF92EF92FF920F931F93CF93D4
:10212000DF9300D000D000D0CDB7DEB7FC0106852C
:1021300017850115110509F446C19E838D83F801A9
:10214000329664903196A490EA2CF12CF7E0EF0ED1
:10215000F11C23E0F594E7942A95E1F7E982F80170
:10216000349684913196E491681748F0CE2ED12CA4
:102170009601280F311D621713060CF469C06D30EB
:1021800031F5ED81FE81868181111BC081E090E0F7
:1021900026960FB6F894DEBF0FBECDBFDF91CF916C
:1021A0001F910F91FF90EF90DF90CF90BF90AF9075
:1021B0009F908F907F906F905F904F903F902F9067
:1021C000089560E08D819E810E94E90FDFCF6A3023
:1021D00009F0F9C0ED81FE818681882321F060E05D
:1021E000CF010E94E90FED81FE8181898E9DE02C57
:1021F000112465816E0D8485882349F09781969519
:10220000969596958E2D891B860F18162CF08D812C
:102210009E810E94FF0FBACFED81FE812385820F40
:10222000877083879E199583CF010E945510ED8199
:10223000FE818485813009F0A9CF6385660F660F22
:10224000660F6F7362876064CF010E94E10F9ECFBB
:102250000A5F1F4FB62EB81AED81FE8191858189E4
:10226000989F802D11248C83CF010E946F0F0297BD
:1022700008F06AC06E9CC0016F9C900D1124B89E3E
:102280006001B99ED00C11240C0D1D1D512CED8147
:10229000FE81F481FA83ED81FE812580F585FB8343
:1022A000862C912CAA24A394B12C312C8981381628
:1022B00008F087C0412CED81FE818189481608F025
:1022C00079C08B818587311002C0442041F0ED81B7
:1022D000FE8145814F5F6A81CF010E940E10D12C93
:1022E000C12CC61408F059C0F801EC0DFD1D749006
:1022F000552061F0EA14FB0449F4E72DF0E0052CC9
:1023000002C0F595E7950A94E2F77E2EED81FE81F5
:102310008189823081F4442009F43BC072948FE0BB
:102320007822E72DF0E0ED52FF4F7490672D8D81FC
:102330009E810E94520F672D8D819E810E94520FB7
:102340008FEFC81AD80ACDCFEA2DE77088E0582E53
:102350005E1AE11101C0512CF801612C90E080E07F
:102360006B1431F02491820F911D63943196F8CF54
:10237000600E712E711CF3016490E89EF001E99EDD
:10238000F00DF89EF00D1124CE0EDF1E0C0D1D1D5C
:102390007ECFF72DFF707F2EC4CFD12CEC81DE16BF
:1023A00039F060E08D819E810E94520FD394F6CF68
:1023B000439481CF3394080D191DFFEFAF1ABF0A64
:1023C00075CF622D24CF90E080E0E2CE0F93CF93C3
:1023D000DF93EC011B861A8660E40E94E10F0F81F7
:1023E00006950695069501504E81415020E060E02B
:1023F000CE010E942010DF91CF910F9108954FB729
:10240000F8942091A5023091A6028091A3029091A8
:10241000A4024FBF4091A102042E02C0359527951A
:102420000A94E2F702C0959587954A95E2F78802EB
:10243000C00111242202800D911D112408950E94D3
:10244000FF119093CC028093CB022091080330912E
:1024500009038217930720F09093090380930803E0
:102460002091080330910903409106015091070122
:102470003695279536952795240F351F265F3F4FB4
:102480008217930790F081E08093A7028091080360
:10249000909109039093D4028093D3025093D20277
:1024A0004093D1028091A70208951092A702FACF1B
:1024B0008091A0028823E1F110929F022091D9021D
:1024C0003091DA02809106039091070328173907AB
:1024D00040F08091D9029091DA02909307038093A3
:1024E0000603809106039091070380910603909163
:1024F0000703409104035091050320910403309198
:102500000503E091D902F091DA02841B950B6AE091
:1025100070E00E944E33265F3F4F620F731F81E0D1
:10252000E617F70708F480E08093DB021092A00220
:1025300080919F02811108C081E080939F02809169
:102540007A00886480937A008091DB020895CF93AB
:10255000DF93D0E0C0E040E050E0BA01CE010E943D
:10256000D0092196CA31D105B1F7DF91CF910C94F2
:10257000410ECF92DF92EF92FF920F931F93CF9372
:10258000DF93C0918B02D0918C028E01000F111F3E
:1025900009581D4FF80140815181052E000C660B32
:1025A000770BC0908D02D0908E02E0908F02F09059
:1025B0009002C41AD50AE60AF70A81E10E940A0EBF
:1025C000F80191838083092E000CAA0BBB0BBC0180
:1025D000CD016C0D7D1D8E1D9F1D60938D0270932E
:1025E0008E0280938F02909390022196CA30D1057B
:1025F000A4F4D0938C02C0938B022AE030E040E038
:1026000050E00E949531C901DF91CF911F910F9148
:10261000FF90EF90DF90CF90089510928C0210926F
:102620008B02EBCF81E080931E03809108014EEF77
:102630005EEF6EEF70E090E00E94D0090E94410EC4
:102640000E94460F60938B0470938C0480938D04DA
:1026500090938E04089580E680937C0081E08093BF
:10266000760210927B008EEF80937A0080E090E0FB
:10267000AAE2B5E48093000390930103A0930203C0
:10268000B09303038AE89DE3A6E9B6E48093FC02D5
:102690009093FD02A093FE02B093FF0285E394E2C3
:1026A000A0E0B0E08093F8029093F902A093FA02C0
:1026B000B093FB0285E090E09093A2028093A10288
:1026C00008951092F2021092F1020E942B130E94C0
:1026D000460F6093EC037093ED038093EE039093A9
:1026E000EF030E94460F6093D5027093D602809349
:1026F000D7029093D80281E0809305011092F002F6
:102700001092DD021092DE021092DF021092E002BF
:102710008EE190E0909307018093060110920903E7
:102720001092080308951F93CF93DF93EC01162FA7
:1027300061E0411101C060E08B890E94E30B80E5FC
:102740008CBD81E08DBD60E08A890E94E30B1EBDD7
:1027500000000DB407FEFDCF8EB561E08A89DF91E0
:10276000CF911F910C94E30B089590E080E00895C1
:10277000CF93DF93EC0188819981009711F00E943B
:102780002734198218821D821C821B821A82DF91D3
:10279000CF910895FC0180819181009711F00C94F4
:1027A00027340895FC0101900020E9F73197AF012B
:1027B000481B590BBC0186E094E00C94560A8F929A
:1027C0009F92AF92BF920F931F93CF93DF93CDB79A
:1027D000DEB7A1970FB6F894DEBF0FBECDBF19A22A
:1027E000423008F44AE08E010F5D1F4F842E912C79
:1027F000B12CA12CA50194010E94FE31E62FB90154
:10280000CA01EA30F4F4E05DD801EE938D01232B88
:10281000242B252B79F790E080E0109719F0CD015B
:102820000E94D213A1960FB6F894DEBF0FBECDBFA3
:10283000DF91CF911F910F91BF90AF909F908F909C
:102840000895E95CE1CFCF92DF92EF92FF92CF93B0
:10285000DF936C01990FEE08FF08F7FE19C06DE2D7
:1028600086E094E00E947F10EC0166277727CB0179
:102870006C197D098E099F094AE00E94DF138C0FB5
:102880009D1FDF91CF91FF90EF90DF90CF90089543
:102890004AE0C701B601DF91CF91FF90EF90DF9042
:1028A000CF900C94DF130C94D21380910B018823EA
:1028B00051F041E066E186E094E00E940E1083E86A
:1028C00091E00C94531408958091100381110DC070
:1028D00081E08093100345E066E486E094E00E9486
:1028E0000E108EE491E00C945314089545E06CE3CF
:1028F00086E094E00E940E1084E292E00C9453145F
:1029000045E065E086E094E00E940E1084E591E0E9
:102910000C9453148091110381111CC080910D03FC
:1029200081110AC041E06CE286E094E00E940E1042
:102930008AE591E00E94531480910D03882399F059
:1029400041E06CE386E094E00E940E1084E691E0A2
:102950000C94531441E06BE486E094E00E940E1066
:1029600081E691E0E7CF0895CF93DF930E94D213E1
:10297000EC0189E691E00E94D2138C0F9D1FDF913C
:10298000CF91089586E094E00E94E61141E069E16C
:1029900086E094E00E940E108CE691E00E94B41450
:1029A00045E065E086E094E00E940E1084E791E047
:1029B0000C94B414CF92DF92EF92FF920F931F9377
:1029C000CF93DF937B012091DC033091DD038217ED
:1029D0009307F4F4880F991F880F991F2091DA0349
:1029E0003091DB03820F931FFC01C280D380FFEF85
:1029F000CF16DF0669F08B01C3E0D0E0C6018C1B67
:102A00009D0B0E947F31F80181938F012197B0F7D0
:102A1000C701DF91CF911F910F91FF90EF90DF9051
:102A2000CF9008950C947F310F931F93CF93DF9332
:102A3000EC018C01060F171FC017D1079CF4CE01C3
:102A40000E9412158F3F61F0FC9AFD98FB98D2BD51
:102A5000C1BD8FB7F894F999FECFFA9AF99A8FBF52
:102A60002196EACFDF91CF911F910F9108950F9397
:102A70001F93CF93DF93EC01162F22E030E0062F57
:102A80000095FD9AFC98FB98D2BDC1BD10BD8FB7D3
:102A9000F894F999FECFFA9AF99A8FBFF999FECF77
:102AA0002130310539F0CE010E94121521E030E0CD
:102AB000802339F7DF91CF911F910F910895CF9324
:102AC000DF93EB010E947F318883CE01DF91CF91AC
:102AD0000895CF93DF93EB010E947F318883CE016D
:102AE000DF91CF9108950E946D350F931F93CF937F
:102AF000DF93EC0188819981009759F02A813B810D
:102B00002617370730F081E0DF91CF911F910F91A9
:102B100008958B016F5F7F4F0E94B034009759F08A
:102B2000998388831B830A832C813D81232B59F74A
:102B3000FC011082E8CF80E0E7CFEF92FF920F9385
:102B40001F93CF93DF93EC01FB01E080F180E11450
:102B5000F10411F10481158101151105A9F08C8191
:102B60009D81080F191FB801CE010E947515882399
:102B700099F0288139818C819D81B701820F931F43
:102B80000E947B351D830C83CE01DF91CF911F9175
:102B90000F91FF90EF900895CE010E94B813F4CFEB
:102BA000EF92FF920F931F93CF93DF9300D0CDB797
:102BB000DEB78C018EE289831A82F801E480F58009
:102BC000FFEFEF1AFF0AB701C8010E9475158823AD
:102BD000C9F0F8012081318184819581BE016F5F48
:102BE0007F4F820F931F0E947B35F801F582E482AC
:102BF000C8010F900F90DF91CF911F910F91FF901F
:102C0000EF900895C8010E94B813F2CFEF92FF929F
:102C10000F931F93CF93DF93EC017B018A01BA01DD
:102C20000E94751581110BC0CE010E94B813CE0110
:102C3000DF91CF911F910F91FF90EF9008951D8329
:102C40000C83B701888199810E947B35F0CFEF9288
:102C5000FF920F931F93CF93DF93CDB7DEB76297A9
:102C60000FB6F894DEBF0FBECDBF8C01CB01F801CB
:102C70001182108213821282158214824AE09E0110
:102C80002F5F3F4F7901B9010E942630F701019073
:102C90000020E9F73197AF014E195F09B701C8016C
:102CA0000E94061662960FB6F894DEBF0FBECDBF27
:102CB000DF91CF911F910F91FF90EF900895FB014D
:102CC000DC0111961C921E9213961C921E92129772
:102CD00015961C921E9214978617970749F06081EB
:102CE00071816115710521F0448155810C9406169E
:102CF00008950F931F93CF93DF93CDB7DEB76897F7
:102D00000FB6F894DEBF0FBECDBF809108018823B7
:102D100009F4AFC090910D03992309F461C009E152
:102D200010E09801281B310945E0429FC001439FF4
:102D3000900D11246AE070E00E946233BC01CE0164
:102D400043960E94271680910801B801681B7109FB
:102D500077FF02C06F5F7F4F75956795CE0107962D
:102D60000E942716BE01695F7F4FCE010D960E941B
:102D70005F16CE010D960E94D015BE016D5E7F4F8D
:102D80000E949D15BC01CE0101960E945F16CE01E6
:102D90000D960E94CA13CE0107960E94CA13CE0157
:102DA00043960E94CA1341E06AE086E094E00E94E4
:102DB0000E1080E891E00E945314CE0101960E940B
:102DC000830ACE0101960E94CA1368960FB6F89442
:102DD000DEBF0FBECDBFDF91CF911F910F91089540
:102DE00090911103911121C0803151F441E064E1CF
:102DF00086E094E00E940E1083E891E00E94531454
:102E000041E06AE086E094E00E940E1080E891E0E4
:102E10000E9453149091080129E130E0A901491B57
:102E20005109CA010E942314D0CF853151F441E0E9
:102E300069E386E094E00E940E1084E891E00E942D
:102E4000531441E069E186E094E00E940E1080E8AE
:102E500091E00E9453142091080189E190E0821BC7
:102E6000910924E1AC01249FC001259F900D1124FC
:102E7000D9CF8091110341E0811112C06AE086E050
:102E800094E00E940E1084E891E00E945314609137
:102E9000080170E090E080E04AE00E94DF1395CFE7
:102EA00069E186E094E00E940E1082E891E00E94C1
:102EB000531441E06DE286E094E00E940E10E7CFEB
:102EC0000F931F93CF93DF93CDB7DEB768970FB6FD
:102ED000F894DEBF0FBECDBF80910801882309F4AE
:102EE0005EC090910D03992309F464C025E0829F90
:102EF000C00111246AE070E00E946233BC01CE017F
:102F000043960E9427166091080170E075956795B9
:102F1000CE010D960E94271618861F821A861986E2
:102F20001C861B868BE289831A828E010F5F1F4FDE
:102F3000F80101900020E9F73197AF01401B510BD8
:102F4000B801CE0107960E940616BE01635F7F4F4F
:102F5000CE0107960E949D150E94D015BE016D5EA0
:102F60007F4F0E949D15BC01C8010E945F16CE01D3
:102F700007960E94CA13CE010D960E94CA13CE0175
:102F800043960E94CA1341E06AE086E094E00E9402
:102F90000E10C8010E94830AC8010E94CA136896D5
:102FA0000FB6F894DEBF0FBECDBFDF91CF911F915A
:102FB0000F9108958091110341E0811112C06AE0E0
:102FC00086E094E00E940E1086E891E00E9453147F
:102FD0006091080170E090E080E04AE00E94DF1319
:102FE000DECF69E186E094E00E940E1086E891E071
:102FF0000E9453148091080124E1829FC001112492
:103000000E942314CCCF0C948731FF920F931F930F
:10301000CF93DF93EC01F62E08811981C8010E943D
:103020007F31F81621F06F2DC8010E948731CE0143
:10303000DF91CF911F910F91FF9008952F923F92B2
:103040004F925F926F927F928F929F92AF92BF92B8
:10305000CF92DF92EF92FF920F931F93CF93DF9364
:1030600000D000D0CDB7DEB71C013B010E94390A69
:103070007C018091DC039091DD03281639060CF069
:10308000BCC08090DA039090DB032FEF221A320A43
:10309000220C331C220C331CF401E20DF31D408082
:1030A000518034E0231A3108820C931CF401A08073
:1030B000B180C2018A199B098E199F0904970CF4EB
:1030C0009CC0028113810F3F100729F487010A0D6C
:1030D0001B1D01501109680123E0C21AD1087C822E
:1030E0006B820C151D050CF488C0C6010E941215D8
:1030F000EB81FC819191FC83EB83FFEFCF1ADF0A18
:10310000891779F3C80105960F5F1F4F48165906B6
:103110004CF4B701C5010E941415F401008111811E
:103120000E0D1F1D17FD69C05301F4E0AF0EB11C59
:103130006801C618D708C601860D971D9A83898332
:10314000F30161913F01CE0101960E9405186A14B6
:103150007B0489F78091DA039091DB03280E391EF6
:10316000C8010396F1019383828380819181E80EE7
:10317000F91E0E191F09780117FF03C0F7E0EF0EC3
:10318000F11C83E0F594E7948A95E1F78E2D880F82
:10319000880F880F081B94E0892E912C6FEF27E091
:1031A000C22ED12CAA24A394B12CC601801B910954
:1031B000950102C0220F331F8A95E2F7C90180955D
:1031C00068230F5F083060F0F101808191818E0DDE
:1031D0009F1D0E943715FFEFEF1AFF0A6FEF00E007
:1031E00021E0821A910809F76F3F39F0F1018081DF
:1031F00091818E0D9F1D0E9437150F900F900F909B
:103200000F90DF91CF911F910F91FF90EF90DF9082
:10321000CF90BF90AF909F908F907F906F905F9076
:103220004F903F902F9008950F931F93CF93DF936C
:1032300000D0CDB7DEB78B019A838983FB01608113
:10324000CE0101960E940518C8010F900F90DF91E2
:10325000CF911F910F9108952F923F924F925F92BD
:103260006F927F928F929F92AF92BF92CF92DF9296
:10327000EF92FF920F931F93CF93DF9300D000D074
:103280001F92CDB7DEB71092150110921401109263
:10329000130161E082E00E94110C61E085E00E9470
:1032A000110C61E082E00E94E30B6CE071E088EFBA
:1032B00093E00E945F1580910C01811103C084E0AE
:1032C00080930C018091F6039091F70397FD08C05D
:1032D00061E00E94110C60E08091F6030E94E30B14
:1032E00081E08093F10362E370E080E090E00E946F
:1032F000140F61E085E00E94E30B61E089E00E9429
:10330000110C62E080E10E94110C0E94A71282E081
:1033100090E09093DD038093DC038CE090E00E94CA
:103320008B33FC019093DB038093DA0381E090E020
:103330009183808382EE91E09583848383EC93E094
:103340009187808790E080E00E9412158D831A8219
:10335000198263E0CE0101960E940518F12CE12C40
:10336000D12CC12C0091DA031091DB030E0D1F1D2F
:103370008091DC039091DD03C816D9060CF087C05C
:10338000C6010E94390A1C012D81233031F0BC0195
:10339000F801808191810E9414158091DA03909147
:1033A000DB039C012E0D3F1D3C832B83F901A08084
:1033B000B1802A0C3B1C2101F1E04F1A5108320167
:1033C00045018FEF0FEF1FEF68147904DCF08301E4
:1033D0000819190915950795080D191DC8010E94AE
:1033E00012159FEF980F9E3FC8F0811105C048014C
:1033F0002FEF821A920AE8CF380131E0631A710880
:103400008FEFE2CF811117C0041515053CF40F5F53
:103410001F4FC8010E9412158823B1F3C8010E94F2
:10342000121527E030E091E0482F4923A1F0990FD1
:1034300021503109F9CF0A151B053CF00150110943
:10344000C8010E9412158F3FB1F30415150534F71A
:103450000F5F1F4FE3CF0A191B0993E0000F111FE5
:103460009A95E1F7020F131F0F3F100769F0020D45
:10347000131DEB81FC8113830283FFEFCF1ADF0A58
:1034800024E0E20EF11C6ECF0FEF1FEFF2CF8FEFB3
:103490009FEFF801938382836FE073E08CEF93E0FA
:1034A0000E9469158DEF93E00E947F318093120393
:1034B0008EEF93E00E947F31809313031982BE0147
:1034C0006F5F7F4F8BEF93E00E94141969EA72E0FF
:1034D0008BEF93E00E94691564E173E090E080E077
:1034E0000E94DA148091140390911503A0911603A1
:1034F000B09117030196A11DB11D80931403909301
:103500001503A0931603B09317038091DC039091E9
:10351000DD031816190634F464E173E090E080E0EE
:103520000E941E1868E173E081E090E00E94DA14C6
:103530008FEF93E00E9412158E3141F08851823056
:1035400028F069E18FEF93E00E9403188CEF93E07D
:103550000E941215823028F060E08CEF93E00E9408
:1035600003180E94BF0B892B89F48FEF93E00E9410
:1035700012156EE1893131F068E18E3119F0883130
:1035800029F469E18FEF93E00E9403186BE073E088
:103590008FEF93E00E945F156FE173E089EF93E096
:1035A0000E945F1564E170E080E090E00E94140FDB
:1035B000F89480916800886080936800809173001F
:1035C000886080937300789461E08AE00E94110C17
:1035D00060E08AE00E94E30B6AE070E080E090E047
:1035E0000E94140F61E08AE00E94E30B6AE070E041
:1035F00080E090E00E94140F87E18093180486E138
:103600008093190461E087E10E94110C61E08091D0
:1036100019040E94110C1FB7F8948091A80281111F
:1036200027C0EAE3F3E18491E6E1F3E19491E82F26
:10363000F0E0EE0FFF1FED51FF4FA591B491EC911B
:10364000E92321F461E08AE00E94E30B61E08AE073
:103650000E94110C8CB580618CBD8CB580648CBDD2
:1036600061E08DE00E94110C61E08BE00E94110C82
:103670008091A8028F5F8093A8021FBF10920A0456
:1036800010920B04EDECF0E0C590D490EFECF0E07C
:10369000F490E0EDF0E0E491E0930C04E1EDF0E073
:1036A000E491E0930D04E2EDF0E0E491E0930E0488
:1036B00010E000E00F1558F4F801EC0DFD1D6491C9
:1036C00086E094E00E94E10F0F5F1F4FF3CF86E08A
:1036D00094E00E94E61162E370E080E090E00E94D6
:1036E000140F8FE899E00E94790F81E08093160112
:1036F000809304011092CA021092C9021092C8026B
:103700001092C7020E94460F60938704709388044A
:103710008093890490938A041092C6021092C50285
:1037200080917A008F7D80937A0087E880937A0079
:1037300061E087E00E94110C61E087E00E94E30BEA
:10374000F8941092900089E08093910082E0809339
:10375000710080910B03883169F48AE080939100B5
:103760008CE890E2909399008093980090930301E5
:103770008093020180910B03893151F48FEF99EF0F
:103780009093990080939800909303018093020195
:1037900080910B038E3151F484E590ED9093990064
:1037A00080939800909303018093020178948AE0BB
:1037B00080930D011092810081E0809310010F90A1
:1037C0000F900F900F900F90DF91CF911F910F915D
:1037D000FF90EF90DF90CF90BF90AF909F908F9031
:1037E0007F906F905F904F903F902F9008950F9330
:1037F0001F93CF9380919E02882391F010929E0296
:1038000010929D0210929C02109210030E941C0EB6
:10381000609398027093990280939A0290939B020E
:103820008091080181115AC080919D02811128C0A8
:1038300080910F03811109C080911103811105C08E
:1038400067EA86E094E00E94E10F80919C0281117A
:1038500012C081E080939C0280910D03882309F4BB
:1038600081C141E06AE286E094E00E940E1082EAA3
:1038700091E00E9453140E94791681E080939D028A
:103880000E941C0E009198021091990220919A02B8
:1038900030919B02AB01BC01401B510B620B730BBF
:1038A0008091090190910A01092E000CAA0BBB0B13
:1038B000481759076A077B0788F00E941C0E60931F
:1038C00098027093990280939A0290939B020E94AF
:1038D000551466EA86E094E00E94E10F80910801A9
:1038E000813061F490919D02911108C080939D02F6
:1038F0000E9464140E948A140E946017809108013B
:1039000081508C3090F580919D02811105C081E03D
:1039100080939D020E9460170E941C0E00919802E5
:103920001091990220919A0230919B02AB01BC0147
:10393000401B510B620B730B8091090190910A019E
:10394000092E000CAA0BBB0B481759076A077B0707
:1039500060F00E941C0E609398027093990280930D
:103960009A0290939B020E945514809108018C301A
:1039700009F052C080910C03882309F44DC0809156
:103980009702811149C043E06EE186E094E00E9415
:103990000E1086E094E00E9455108EE891E00E949F
:1039A000531480919102811117C00E94CE2F23E100
:1039B00030E040E050E00E9495316F5F7F4F8F4FC5
:1039C0009F4F60939302709394028093950290931B
:1039D000960281E08093910280910D0190E0909396
:1039E0000F0180930E01809193029AE0899F802DB0
:1039F000112480930D0181E080939702909108013A
:103A0000292F30E09C5040E050E0BA019D3008F092
:103A1000B2C0C9010E94D009809108018D3009F01F
:103A20005EC080910C03882369F08AE080930D01C9
:103A300043E060E086E094E00E940E1086E094E0AF
:103A40000E94551080919D02811111C081E08093E8
:103A50009D021092100345E066E486E094E00E9427
:103A60000E1086E094E00E9455100E9476140E9489
:103A7000B9122AE930E0DC010E948433653D7E4FB3
:103A80008F4F9F4F0CF47DC00E94B9122AE930E09D
:103A9000DC010E948433643A754B810591050CF07A
:103AA00073C00E94B9122AE930E0DC010E9484331D
:103AB0002CE231E040E050E00E9495312C593F4F1C
:103AC0004F4F5F4F30930101209300010E94B912C4
:103AD0008B3892400CF45BC081E08093920280911D
:103AE00008018E3011F4109297028D508C30B0F591
:103AF00080919D02811107C0C1E0C0939D020E9488
:103B00007916C0939D020E941C0E0091980210919C
:103B1000990220919A0230919B02AB01BC01401B9B
:103B2000510B620B730B8091090190910A01092ED0
:103B3000000CAA0BBB0B481759076A077B0760F0FC
:103B40000E941C0E609398027093990280939A02CF
:103B500090939B020E94551410929102CF911F9155
:103B60000F91089545E066E486E094E00E940E100F
:103B700088E891E07ECEC9010E94D0090E94410EE2
:103B80004BCF24E630E09ECF2EEF30E09BCF10925B
:103B90009202A5CF1F920F920FB60F9211242F936E
:103BA0003F934F935F936F937F938F939F93AF93C5
:103BB000BF93EF93FF938091310390913203A091D3
:103BC0003303B0913403892B8A2B8B2BD1F1909145
:103BD0002403E0912503F0912603808189278083C7
:103BE0008091310390913203A0913303B09134035B
:103BF000181619061A061B069CF480913103909141
:103C00003203A0913303B09134030197A109B109A4
:103C10008093310390933203A0933303B093340322
:103C2000FF91EF91BF91AF919F918F917F916F9194
:103C30005F914F913F912F910F900FBE0F901F906A
:103C4000189580911701EBE0F3E1E4919FEF9093D9
:103C50001701E230E1F040F4EE2381F0E13089F029
:103C600060E00E94E30BDCCFE33011F1E430C1F7F8
:103C7000909172009D7F90937200F2CF10926E002F
:103C8000EFCF90916F009D7F90936F00E9CF90915F
:103C900070009D7F9093700091E09093B0009091A0
:103CA000B100987F94609093B1001092B300D8CF88
:103CB000909171009D7F90937100D2CF1F920F92CF
:103CC0000FB60F9211242F933F934F935F936F93EF
:103CD0007F938F939F93AF93BF93EF93FF938DE366
:103CE00093E00E94D30AFF91EF91BF91AF919F9112
:103CF0008F917F916F915F914F913F912F910F9095
:103D00000FBE0F901F9018951F920F920FB60F9233
:103D100011242F938F939F93EF93FF93E0914D0383
:103D2000F0914E038081E0915303F091540382FDA2
:103D30001BC09081809156038F5F8F732091570332
:103D4000821741F0E0915603F0E0E35CFC4F958F61
:103D500080935603FF91EF919F918F912F910F9038
:103D60000FBE0F901F9018958081F4CF1F920F9275
:103D70000FB60F9211242F933F938F939F93AF937E
:103D8000BF938091AB029091AC02A091AD02B09133
:103D9000AE023091AA0223E0230F2D3758F5019689
:103DA000A11DB11D2093AA028093AB029093AC0297
:103DB000A093AD02B093AE028091AF029091B00299
:103DC000A091B102B091B2020196A11DB11D8093E4
:103DD000AF029093B002A093B102B093B202BF9130
:103DE000AF919F918F913F912F910F900FBE0F90A8
:103DF0001F90189526E8230F0296A11DB11DD2CF62
:103E00001F920F920FB60F9211242F933F934F934F
:103E10005F936F938F939F93AF93BF93EF93FF93B2
:103E200080910501882309F46DC080917602882372
:103E300009F495C0809179008455990B909375028F
:103E400080937402209174023091750240910C01AC
:103E5000429FC001439F900D11249093750280935F
:103E600074028091F8029091F902A091FA02B09147
:103E7000FB024091720250917302480F591F5093F8
:103E8000730240937202209174023091750257FFC1
:103E900002C020953095809174029091750240E4A3
:103EA000450F47FF02C0809590954091A502509123
:103EB000A6026091A102E091A502F091A602062E51
:103EC00002C0559547950A94E2F7241B350B2E0F37
:103ED0003F1F3093A6022093A5022091A3023091A8
:103EE000A4024091A3025091A40202C035952795E7
:103EF0006A95E2F7821B930B840F951F9093A4029F
:103F00008093A3028091F0028823C9F090917800F9
:103F1000809179008927982789279093DA028093E6
:103F2000D90281E08093A0028091D9029091DA02B7
:103F30008E3F934024F01092DA021092D902FF9142
:103F4000EF91BF91AF919F918F916F915F914F9141
:103F50003F912F910F900FBE0F901F901895809159
:103F600079008058990B79CF1F920F920FB60F925C
:103F700011248F939F9380917E0491E089278093F1
:103F80007E049F918F910F900FBE0F901F901895F8
:103F90001F920F920FB60F921124CF92DF92EF92E1
:103FA000FF920F931F932F933F934F935F936F93C2
:103FB0007F938F939F93AF93BF93EF93FF938091E2
:103FC000B5028823F9F01092B50280919800909183
:103FD0009900019604E0969587950A95E1F7019777
:103FE0009093990080939800809198009091990007
:103FF000909303018093020180E88093610084E044
:10400000809361008091B6028823E9F01092B60295
:1040100080E88093610010926100809198009091F7
:10402000990014E0880F991F1A95E1F74197909332
:1040300099008093980080919800909199009093B6
:10404000030180930201809171028F5F809371025E
:1040500080916F029091700201969093700280930C
:104060006F029091710280910D01981708F406C1BA
:10407000809108011092710291E090939E028F5FEF
:10408000893108F022C180930801809108018111D3
:1040900047C110926E0210926D0280911301882325
:1040A000E1F00E94460F6093E7027093E80280936C
:1040B000E9029093EA0248E050E060E070E080EAB4
:1040C0009AE00E944D0C0E941C0E6093690270934E
:1040D0006A0280936B0290936C0280911401882392
:1040E00009F46DC180910F038111F2C00E94121377
:1040F000809108018D3009F06AC020910E01309145
:104100000F0120930D0190910B039931E1F49091EF
:10411000B702992309F425C12091120330911303AA
:10412000409102015091030137FF02C0215F3F4FD0
:10413000B4E035952795BA95E1F7240F351F3093F4
:1041400099002093980090910B039E31F1F4909187
:10415000B702992309F40EC1209112033091130381
:10416000409102015091030137FF02C0215F3F4F90
:10417000A4E035952795AA95E1F74C595F4F240F98
:10418000351F309399002093980090910B0398313C
:10419000F1F49091B702992309F4F7C0209112032A
:1041A00030911303409102015091030137FF02C087
:1041B000215F3F4FF4E035952795FA95E1F7405898
:1041C0005D4F240F351F30939900209398009091F4
:1041D0001501992309F452C09FEF980F9C30A0F469
:1041E00091E090931E0390919202992309F4D8C014
:1041F0000E9412130E94460F60938B0470938C04EC
:1042000080938D0490938E04809108018C3039F452
:1042100090910B039E3119F491E09093680293EF13
:10422000980F9D3058F540910001C42ED12CF12CEF
:10423000E12CB6015527442790E0209192022223D9
:1042400061F03E2D2D2D1C2D0027402B512B622B74
:10425000732B4C295D296E297F290E94D0090E9469
:10426000410E81E080931E030E94460F60938B04F1
:1042700070938C0480938D0490938E048091080138
:104280008D3061F480917102813041F4809102019E
:10429000909103019093990080939800FF91EF9182
:1042A000BF91AF919F918F917F916F915F914F914E
:1042B0003F912F911F910F91FF90EF90DF90CF9042
:1042C0000F900FBE0F901F90189510920801DDCE31
:1042D00081E080931E034EEF5EEF6EEF70E090E0A2
:1042E00080E00E94D0090E94410E01E010E044E607
:1042F00054E664E670E0C8010E94D0090F5F1F4FCA
:104300000A311105A1F70E94410E0E94460F6093E9
:104310008B0470938C0480938D0490938E04E8CE6C
:104320008C3009F0E5CE80910C03811148C080915A
:104330000D0190E090930F0180930E0180910B038B
:104340008E3139F490911103911101C08CE3809367
:104350000D0180910B03883191F58DE08093080168
:10436000C7CE409102015091030120911203309178
:104370001303E3CE20910201309103014091120317
:10438000509113032C593F4FFACE209102013091E6
:104390000301409112035091130320583D4F11CF58
:1043A0004091000150E070E060E0762F652F542FBF
:1043B000442790E00E94D0090E94410E1BCF8091BB
:1043C000080105CFFC01118210821382128215822E
:1043D0001482FB0101900020E9F73197AF01461BE1
:1043E000570B0C9406161092400310923F0388EE70
:1043F00093E0A0E0B0E08093410390934203A09348
:104400004303B093440382E391E090933E0380938F
:104410003D0385EC90E090934A038093490384EC3C
:1044200090E090934C0380934B0380EC90E090934A
:104430004E0380934D0381EC90E090935003809362
:104440004F0382EC90E0909352038093510386ECEB
:1044500090E090935403809353031092560310926C
:10446000570310925803109259031092DD031092D3
:10447000DC03AEEDB3E0EEE0F0E091E290935700A4
:1044800084918D933196E831F105C1F764E971E0CB
:1044900081EA94E00E94E22169E971E08BE994E00D
:1044A0000E94E22164EA71E085E994E00E94E22141
:1044B0006BEA71E08FE894E00E94E2210E94460FCF
:1044C00060938B0470938C0480938D0490938E047E
:1044D0000E94460F60938704709388048093890438
:1044E00090938A040E94460F60938304709384041F
:1044F00080938504909386040E94460F0E94460F85
:1045000060937F047093800480938104909382046D
:1045100080917E0480937D040E94460F8AE0809300
:104520001B0410921C0410921D0410921A04EAE657
:10453000F4E080E081938F5F8A30E1F70E94460FBC
:104540000E94460F1092090410920804109212045F
:104550001092130410921504109214041092160471
:1045600081E08093170424E431E030930704209322
:1045700006041092F1031092F8031092FF031092B8
:10458000000410920104109202048093FE038093B1
:10459000FB031092FC0392E09093FD038093F003E1
:1045A0008BE490E09093F5038093F4030E948B33A7
:1045B0009093FA038093F903009709F450C02BE419
:1045C000FC0111922A95E9F789E190E09093F303B9
:1045D0008093F2038FE090E09093F7038093F603CB
:1045E0008091F103882341F061E08FE00E94110C7B
:1045F00060E08FE00E94E30BEFE3F3E1E491F0E091
:10460000EE0FFF1FEC5DFC4E859194919093040496
:1046100080930304EBE1F3E1E491E09305040E944D
:10462000460F6093EC037093ED038093EE03909339
:10463000EF030E94460F6093E8037093E9038093B1
:10464000EA039093EB030E94460F0E94460F0E94DC
:10465000460F0E94460F0E94460F0C94460F109280
:10466000F5031092F4031092F3031092F203B2CF09
:10467000CF93DF9300D000D000D0CDB7DEB77894D1
:1046800084B5826084BD84B5816084BD85B5826057
:1046900085BD85B5816085BD80916E008160809308
:1046A0006E00109281008091810082608093810071
:1046B0008091810081608093810080918000816081
:1046C000809380008091B10084608093B1008091DC
:1046D000B00081608093B0008091910082608093EF
:1046E0009100809191008160809391008091900071
:1046F0008160809390008091A10082608093A100EE
:104700008091A10081608093A1008091A0008160D0
:104710008093A00080917A00846080937A008091D9
:104720007A00826080937A0080917A008160809321
:104730007A0080917A00806880937A001092C1009C
:104740000E942C1990917E0480917D04981749F065
:1047500080917E0480937D040E94460F81E08093C7
:10476000B3028091B302882359F00E94460F0E9441
:10477000460F1092B30281E0639B80C280932003B6
:1047800080912103882309F473C010922103809142
:104790000E03811142C010921501109214018091F4
:1047A00068008860809368008091730088608093BF
:1047B000730060E085E00E94E30B64E170E080E05C
:1047C00090E00E94140F60E082E00E94E30B83B748
:1047D000817F846083BFF89410927A008091640096
:1047E0008FEF80936400809165008D6380936500F6
:1047F00083B7816083BF80E685BF80E485BF7894FE
:10480000889583B78E7F83BF809164001092640087
:1048100080916500827C8093650080910E038823DF
:1048200039F18091B402811123C0109215011092C8
:1048300014011092130184E080936900E99A60E00A
:1048400085E00E94E30B64E170E080E090E00E946C
:10485000140F60E082E00E94E30B81E08093B402D9
:104860008093B7028093B5021092B6020E94460F61
:10487000809120038823D9F0109220031092B70270
:1048800081E08093B6021092B50280916800886042
:104890008093680080917300886080937300109209
:1048A0001501109214011092B4020E942C198091EB
:1048B0001601882309F48BC280910401882309F42E
:1048C00071C08091CA02811149C00E94460F609355
:1048D0007F0470938004809381049093820486E027
:1048E00094E00E94E6118FEE90E00E94790F40E084
:1048F00060E086E094E00E940E1086EB91E00E945A
:1049000053148FE899E00E94790F45E060E086E05B
:1049100094E00E940E1060910B0370E090E080E044
:104920004AE00E94DF1345E067E186E094E00E94E0
:104930000E108EEB91E00E94531445E066E486E091
:1049400094E00E940E1082EC91E00E94531481EAE0
:1049500094E00E94830A81E08093CA020E94460F7D
:1049600000917F0410918004209181043091820491
:10497000601B710B820B930B6C3D7540810591059B
:1049800088F00E94460F60937F04709380048093A8
:104990008104909382041092CA021092040181E073
:1049A0008093C9028091C902882309F49BC0809139
:1049B000CA0281116DC00E94460F60937F047093FC
:1049C0008004809381049093820486E094E00E94A6
:1049D000E6118FE899E00E94790F11E010930F041F
:1049E0008BE691E00E948A0F60910C0470E0681BD6
:1049F000790B7695679540E086E094E00E940E1072
:104A00008BE691E00E94B41484EA91E00E948A0F40
:104A100060910C0470E0681B790B7695679541E016
:104A200086E094E00E940E1084EA91E00E94B414A3
:104A30008BEA91E00E948A0F60910C0470E0681B81
:104A4000790B7695679544E086E094E00E940E101D
:104A50008BEA91E00E94B4148BE691E00E948A0FE9
:104A600060910C0470E0681B790B7695679546E0C1
:104A700086E094E00E940E108BE691E00E94B41450
:104A800010930F048FE899E00E94790F1093CA02E7
:104A90000E94460F00917F041091800420918104B0
:104AA00030918204601B710B820B930B643378404E
:104AB00081059105B8F00E94460F60937F047093C2
:104AC000800480938104909382041092CA02109211
:104AD00004011092C90281E08093C80286E094E04C
:104AE0000E94E6118091C802882309F46DC180916B
:104AF000CA0281110DC081E08093CA020E94460F54
:104B000060937F0470938004809381049093820467
:104B10009AE0F92E10E000E085E10E940A0E080FED
:104B2000191FFA94F110F8CFB801110F880B990BE7
:104B30000E94623020E030E040E251E40E949C326A
:104B400020E030E040EA50E40E94C13020E030E054
:104B500040E85AE30E94C1309B01AC010E94303210
:104B600020E030E048EC52E40E94C1300E940E3355
:104B70006B017C0146E2C41A42E0D40AE108F10864
:104B80008091C702811137C081E08093C70241E064
:104B900069E186E094E00E940E108FEE90E00E94A2
:104BA000790FA4E6B0E0A70196010E94B43120E499
:104BB00031E040E050E00E949531C90125363105D1
:104BC00014F084E690E097FF02C090E080E00E943D
:104BD000231484EC91E00E94531445E069E186E0DF
:104BE00094E00E940E108FE899E00E94790F86EC05
:104BF00091E00E945314AAE1B0E0A70196010E943F
:104C0000B43120E431E040E050E00E949531CA0127
:104C1000B9010E9462306B017C0120E030E0A90103
:104C20000E945B3018160CF45FC08091BD028111A8
:104C30000DC00E94460F6093B9027093BA02809330
:104C4000BB029093BC0281E08093BD028091B802C8
:104C500081114AC010920801109108011A3188F49C
:104C600040E050E06AE070E0812F90E00E94D009BF
:104C70000E94410E1F5F10930801EECF8093210325
:104C80007FCD0E94460F0091B9021091BA02209187
:104C9000BB023091BC02601B710B820B930B643F13
:104CA00071408105910500F10E94460F6093B902A1
:104CB0007093BA028093BB029093BC0210920801D9
:104CC000109108011A3168F440E050E0BA01812FD8
:104CD00090E00E94D0090E94410E1F5F10930801CE
:104CE000EFCF81E08093B8020E94460F00918704C5
:104CF000109188042091890430918A04601B710B03
:104D0000820B930B6F3071058105910590F10E9424
:104D1000460F60938704709388048093890490936E
:104D20008A040091C5021091C602B801012E000C40
:104D3000880B990B0E9462309B01AC01C701B60140
:104D40000E94443344E150E060E070E018161CF02B
:104D500040E050E0BA01C8010E94D0090E94410E13
:104D60000A31110534F40F5F1F4F1093C6020093F0
:104D7000C5020E94460F00917F041091800420918B
:104D8000810430918204601B710B820B930B683E8F
:104D9000734081059105C0F00E94460F60937F0427
:104DA0007093800480938104909382041092CA02CD
:104DB000109204011092C9021092C80210921601BA
:104DC00086E094E00E94E6110E94620BBBCC0E9438
:104DD000BF0B90931D0380931C03009709F04EC1F5
:104DE0008091110190911201019791F40E94460F58
:104DF0006B3071058105910558F00E94460F2B011B
:104E00003C0180911C0390911D03892B09F017C16F
:104E10000E94460F6419750986099709653F71401C
:104E20008105910508F40BC1809115018111109243
:104E30001501109214011092130186E094E00E9473
:104E4000E6110E94A71210920F0440E060E086E095
:104E500094E00E940E1082E291E00E94B4148EEC65
:104E600091E00E9453148BE994E00E94830A89E642
:104E700091E00E94D21385E994E00E94830A89E6BA
:104E800091E00E94D2138FE894E00E94830A60EDC3
:104E900077E080E090E00E94140F86E094E00E94AA
:104EA000E61140E060E086E094E00E940E1081EDA3
:104EB00091E00E945314609118037091190380913E
:104EC0001A0390911B034AE00E94DF1386ED91E0E4
:104ED0000E94B4148AED91E00E945314609114036F
:104EE0007091150380911603909117034AE00E9478
:104EF000DF1389E691E00E94D21380EE91E00E94D8
:104F0000531480911203909113030E94231487EE8F
:104F100091E00E94531460910C0170E090E080E0F9
:104F20004AE00E94DF1360ED77E080E090E00E94AD
:104F3000140F80911F03815080931F0386E094E03B
:104F40000E94E61111E010930F04109211031092C9
:104F500010030E94801480911C0390911D03892BE3
:104F600009F06DC00E94460F6419750986099709FA
:104F7000613777418105910508F461C080910F0385
:104F80008111B0C01983BE016F5F7F4F8CEF93E03A
:104F90000E94141942E350E060E070E084EF91E079
:104FA0000E944D0C1092150186E094E00E94E611DB
:104FB0000E94A71241E06AE086E094E00E940E1091
:104FC0008AEE91E00E94531443E06AE086E094E0A8
:104FD0000E940E1085EF91E00E94531481E091E150
:104FE0000E94790F46E060E086E094E00E940E1097
:104FF0000EED13E088EEE82E83E0F82ED8018D91B7
:105000008D01803120F482EA91E00E945314F8016E
:105010003197608170E090E080E040E10E94DF1312
:10502000E016F10659F78FE899E00E94790F60EDDC
:1050300077E080E090E00E94140F0C9400008091D3
:105040001C0390911D039093120180931101E09134
:105050001F03ED3008F0B8CEF0E0EF5CF74D0C9494
:105060007633742818294F29BD29FA29462F4E2F47
:105070004E2F4E2F4E2F4E2F552F5B2F0197F9F6A7
:105080008091110190911201892BC9F60E94460F5F
:1050900064197509860997096B30710581059105B9
:1050A00070F281E08093100180911F038F5F8093E5
:1050B0001F03853010F010921F030E94460F89EFE6
:1050C00093E09A83898360911F03CE0101960E9429
:1050D00005180E94A71280910E0190910F018093F4
:1050E0000D018FCE19824FCF809110018823E9F1F5
:1050F0001092810080917A008F7D80937A0087E8FA
:1051000080937A0066EA86E094E00E94E10F86E0F0
:1051100094E00E94E6110E94801481E080931501C2
:10512000809314018093130180930B01109211035B
:1051300010920E0310920D0310920C038AE08093DC
:105140000D01E8EAF1E6F0930A01E093090143E07A
:1051500060E086E094E00E940E1086E094E00E94F9
:1051600055100E948A14109210010E94F71B809122
:105170001501811104C0809114018823D9F0809118
:105180001E038823B9F00E94460F00918B041091F2
:105190008C0420918D0430918E04601B710B820B66
:1051A000930B6A3071058105910520F010921E0362
:1051B0000E94A7120E94460F00918304109184045C
:1051C0002091850430918604601B710B820B930B38
:1051D00060367A4E8105910508F4F6CD809118036A
:1051E00090911903A0911A03B0911B030196A11D80
:1051F000B11D8093180390931903A0931A03B093E1
:105200001B038091DC039091DD03029734F068E189
:1052100073E081E090E00E941E180E94460F6093A8
:105220008304709384048093850490938604CCCD8A
:1052300080911001882309F498CF1092810011E029
:1052400010931501109314011093130166EA86E080
:1052500094E00E94E10F0E94801485E080930D018C
:1052600010920B011093110310920D0310920C0376
:1052700010920E0341E061E086E094E00E940E107F
:1052800086E094E00E94551043E062E186E094E0FD
:105290000E940E108DEF91E00E94531464CF809114
:1052A0001001882309F461CF1092810011E010935E
:1052B0001501109314011093130166EA86E094E03F
:1052C0000E94E10F0E94801410920B0143E060E005
:1052D00086E094E00E940E1086E094E00E94551053
:1052E0001092100380E197E290930A0180930901E4
:1052F00010920B011092110310930D0310920C03E6
:1053000010920E0380910B038E3119F486E980937D
:105310000D0180910B03883159F588E780930D01C9
:1053200041E061E086E094E00E940E1086E094E0A7
:105330000E94551043E063E286E094E00E940E1064
:1053400086E092E00E94531445E065E086E094E038
:105350000E940E108BE092E00E9453140E948A1467
:10536000809108018D508C3028F40E947614FBCE79
:105370008DE7D4CF0E946414F6CE8091100188236B
:1053800009F4F3CE1092810011E0109315011093EF
:1053900014011093130166EA86E094E00E94E10F85
:1053A0000E94801443E060E086E094E00E940E10CA
:1053B00086E094E00E94551028EA31E630930A0115
:1053C0002093090110920B011092110310920D030A
:1053D00010920E0310930C038AE080930D0141E0BC
:1053E00061E086E094E00E940E1086E094E00E9466
:1053F0005510B9CE1092150110921401109213019C
:1054000080911001882301F1109281001092100107
:1054100066EA86E094E00E94E10F0E94C2140E94B6
:10542000A7120E942B1310920E030E94460F609346
:10543000E8037093E9038093EA039093EB038AE017
:1054400080930D010E9461130E94460F0091E803B2
:105450001091E9032091EA033091EB03601B710B7B
:10546000820B930B68357B418105910520F10E94E9
:10547000460F6093E8037093E9038093EA039093E7
:10548000EB030E94A7120E9461130E94C2141092A3
:105490000A0310920903109208034EE150E0509362
:1054A0000701409306011092070310920603109221
:1054B00005031092040380910501882309F4D7C1E4
:1054C0000E94460FC090CD02D090CE02E090CF0255
:1054D000F090D0026C197D098E099F096436710520
:1054E00081059105D0F00E94460F6C197D098E0947
:1054F0009F09653873408105910578F48091CB024E
:105500009091CC02209106013091070182179307F8
:1055100024F090930701809306010E94FF1190935D
:10552000CC028093CB0220910803309109038217AB
:10553000930720F090930903809308030E941F12A1
:105540008823D9F08091F702811117C081E0809300
:10555000F7020E941C0E6093F3027093F402809392
:10556000F5029093F60210920903109208038EE15F
:1055700090E090930701809306010E94460FC0902F
:10558000EC03D090ED03E090EE03F090EF036C1984
:105590007D098E099F09603B74408105910550F09B
:1055A0001092090310920803EEE1F0E0F093070176
:1055B000E09306010E94460F6C197D098E099F0930
:1055C000683B7B408105910508F45CC00E94460F52
:1055D0006093EC037093ED038093EE039093EF03DD
:1055E00020E030E04AE255E460910003709101034D
:1055F00080910203909103030E945B308111D0C21D
:1056000020E030E04AEA55E42093000330930103A0
:10561000409302035093030381E080930A03209197
:10562000FC023091FD024091FE025091FF02609118
:1056300000037091010380910203909103030E9483
:105640009C3220E030E040E857E40E94C1306B011A
:105650007C0120E030E0A9010E94443320E030E0EA
:1056600040E05FE387FDABC2C701B6010E94303264
:105670000E940E336093F8027093F9028093FA024D
:105680009093FB028091F702882309F4CDC00E9419
:10569000460F6093EC037093ED038093EE039093B9
:1056A000EF030E941C0EC090F302D090F402E09031
:1056B000F502F090F6026C197D098E099F09603A97
:1056C0007B4B8D40910508F4AFC00E941F128823C8
:1056D00009F495C00E94460F0091D5021091D602A0
:1056E0002091D7023091D802601B710B820B930B73
:1056F000623371058105910508F481C00E941C0E7A
:105700009B01AC012C193D094E095F0969017A0121
:10571000C092DD02D092DE02E092DF02F092E0025F
:105720006093F3027093F4028093F5029093F60273
:105730000E94460F6093CD027093CE028093CF02F9
:105740009093D0024EE150E0509307014093060140
:1057500050EFC51A5EE7D50A5EE0E50AF10881EA76
:10576000C81686E8D80681E0E806F104D0F58091F5
:10577000F1029091F2029C012F5F3F4F3093F202B1
:105780002093F1020A9620910A0340E050E064E67B
:1057900070E0222321F040E054E164E670E00E94D2
:1057A000D0090E94410E0E94460F6093CD02709373
:1057B000CE028093CF029093D0020E94460F609356
:1057C000E8037093E9038093EA039093EB030E944C
:1057D000460F6093D5027093D6028093D7029093C0
:1057E000D8021092F7021092E6020E94460F6093D0
:1057F000E7027093E8028093E9029093EA020E9424
:105800001C0E0091F3021091F4022091F5023091E8
:10581000F602601B710B820B930B603E784C80414B
:10582000910510F01092F7028091F1029091F2022E
:105830000297ECF01092F2021092F10286E480934B
:105840007C0080917C008F7D80937C00109205010C
:1058500081E08093F0021092F2021092F102109215
:10586000DD021092DE021092DF021092E0028091BF
:10587000F002882309F471C20E94460F0091E702EA
:105880001091E8022091E9023091EA02601B710B4D
:10589000820B930B6C3271408105910598F18091D8
:1058A000DC0281112FC0E4EFF1E0F0930503E093F7
:1058B000040344EF51E060E070E0CB010091D902B5
:1058C0001091DA02012E000C220B330B600F711FB6
:1058D000821F931F4150510989F724EF31E040E0C6
:1058E00050E00E94FE313093050320930403809121
:1058F00004039091050381E08093DC02809104030E
:10590000909105030E9458128823D9F08091EF02EC
:10591000811117C010920703109206031092DB0248
:105920008091D9029091DA0281E08093EF020E9487
:105930001C0E6093EB027093EC028093ED02909347
:10594000EE028091EF02882309F487C00E941C0EAA
:10595000C090EB02D090EC02E090ED02F090EE02ED
:105960006C197D098E099F09603A7B4B8D4091052A
:1059700008F473C00E945812882309F459C00E9489
:105980001C0E9B01AC012C193D094E095F096901F0
:105990007A01C092DD02D092DE02E092DF02F09244
:1059A000E0026093EB027093EC028093ED0290931F
:1059B000EE020E94460F1092DC0230EFC31A3EE75F
:1059C000D30A3EE0E30AF10841EAC41646E8D406E9
:1059D00041E0E406F104F0F48091F1029091F202CA
:1059E0009C012F5F3F4F3093F2022093F10244E677
:1059F00050E060E070E00C960E94D0090E94410ED9
:105A00000E94460F6093E8037093E9038093EA03D2
:105A10009093EB031092EF021092E6020E94460F61
:105A20006093E7027093E8028093E9029093EA02A0
:105A30000E941C0E0091EB021091EC022091ED02ED
:105A40003091EE02601B710B820B930B603E784C21
:105A50008041910510F01092EF028091F102909137
:105A6000F20202970CF479C10E9461138091E40262
:105A70009091E5029093E3028093E2026091EB0241
:105A80007091EC028091ED029091EE020091F30290
:105A90001091F4022091F5023091F602601B710B17
:105AA000820B930B20E432E44FE050E00E94FE3181
:105AB00028EE33E040E050E00E94FE31C90130930F
:105AC000E5022093E402255E33402730310518F0CB
:105AD00003970CF079C081E08093E10267EA86E0E9
